:020000040200F8
:100000004010002221390002F1370002313900028C
:100010003139000231390002313900023139000230
:100020000000000000000000000000003139000264
:10003000313900020000000031390002313900027C
:10004000191E000201200002512100026922000253
:10005000412A0002112C0002690900020108000275
:08006000E1080002390700026B
:10006800102B01ADFFFFFFFF000000005C6D0002D8
:100078009C6C0002206D00020100000004000022B8
:040088003C11002205
:100090002DE9F047044680780D46097820F00300EA
:1000A000E561D5E90523471CD5F81C80A77048F207
:1000B0000007E362C4F2350707EB01216F78C4E95A
:1000C000081200212170A16217B940F00200A0704F
:1000D00095F90B204EF20019CEF2000901265009C5
:1000E00002F01F034CF2003AA97A09EB800006FAED
:1000F00003F3C4F2000A4EF6185CC0F88030CEF26A
:10010000000CBFF34F8FBFF36F8F5AF82230002AD5
:1001100023F480334AF822304FEA01115AF8223092
:1001200004D409EB020383F8001304E002F00F0388
:10013000634403F8041C95F9053041F2F01EC2F245
:10014000002E01215E0903F01F004EF8224001FA43
:1001500000F009EB86062979002BC6F880004FEAEB
:100160000112BFF34F8FBFF36F8F5AF8230020F4B3
:1001700080304AF823005AF8230004D409EB030026
:1001800080F8002304E003F00F00604400F8042C22
:1001900095F9072001264EF82340AB79500902F06B
:1001A0001F0106FA01F1002A09EB80004FEA031350
:1001B000C0F88010BFF34F8FBFF36F8F5AF8220043
:1001C00020F480304AF822005AF8220004D409EBC7
:1001D000020080F8003304E002F00F00604400F8F1
:1001E000043C95F909304EF822402A7A580903F068
:1001F0001F0106FA01F1002B09EB80004FEA021201
:10020000C0F88010BFF34F8FBFF36F8F5AF82300F1
:1002100020F480304AF823005AF8230004D409EB74
:10022000030080F8002304E003F00F00604400F8AE
:10023000042C4EF823400120EFF3108680F3108841
:1002400028784FF0004121FA00F043F20401C4F293
:1002500020010A6822EA0000086008681E200121C7
:1002600003F082FA86F310884FF48061206A4FF41D
:1002700080428160E869E9786E78437802EA8131EA
:10028000077866F30921DA03437B92B207F003078C
:1002900003F00103114441EA4352236A42EA076230
:1002A000416802F580525A61027802F0FE03022B87
:1002B00007D14FF60471022ACFF6007108BF203132
:1002C00000E00968226A11610C22017BAB78877813
:1002D00062F39F014FF44072022B08BF4FF480720B
:1002E000002B07F00103276A18BF114341EA03718D
:1002F000F960226A002191612A78092A04D8226AC9
:100300000023C1F61F735362B0F80F20807B236A6D
:1003100040EA022041F60172C0F21F021040186349
:10032000C4E90311206A1022C4E90511C9F6075275
:10033000B8F80A1021818266E06990F905104A092F
:1003400001F01F035AF8210020F480304AF8210000
:100350005AF8210009F5C0700121BFF35F8F01FA3F
:1003600003F340F8223049F82230E26992F90B2079
:100370005AF8223023F480334AF822305AF82230D7
:10038000530902F01F02BFF35F8F01FA02F240F837
:10039000232049F82320E26992F907205AF82230F5
:1003A00023F480334AF822305AF82230530902F0FD
:1003B0001F02BFF35F8F01FA02F240F8232049F8D1
:1003C0002320E26992F909205AF8223023F480337D
:1003D0004AF822305AF82230530902F01F02BFF3C4
:1003E0005F8F914040F8231049F8231040F21141EB
:1003F000206AC0F201018160206A00BF00BF00BF17
:10040000017FC907FCD044F642110020C5F24331F8
:100410006160BDE8F087D4D4D0F820C0DCF80830A3
:1004200023F44013CCF80830D0F820C000BF00BF40
:10043000DCF848305B00FBD5DCF8083023F0100313
:10044000CCF80830D0F820C09CF81C30DB06FBD478
:10045000C0E903120020DCF8081041F01011CCF8BC
:1004600008107047D4D4D4D4026A4FF6EE73CFF696
:10047000CE73D2F808C003EA0C039360026A00232B
:10048000C36009681161016A00202CF440128A607F
:100490007047D4D4D4D4D4D444F642124168C5F2BF
:1004A000433291426DD1B0B5016A8A6822F440129C
:1004B0008A60016A8A6822F010028A60016A00BFBD
:1004C0000A7FD206FCD4C1694EF2801CCEF2000C29
:1004D000054691F907104A0901F01F03012101FAAD
:1004E00003F34CF82230BFF34F8FBFF36F8FC26915
:1004F00092F90920530902F01F0201FA02F24CF8A6
:100500002320BFF34F8FBFF36F8F026A936823F4EA
:1005100080339360C26992F90520530902F01F02EB
:1005200001FA02F24CF82320BFF34F8FBFF36F8F15
:10053000C26992F90B20530902F01F0201FA02F27C
:100540004CF8232043F20402BFF34F8FBFF36F8FA9
:10055000EFF3108481F31088C169C4F220024FF0D8
:10056000004C1E20097813682CFA01F11943116020
:100570001168012103F0F8F884F310880020686006
:10058000B0BD07207047D4D42DE9F04F8BB0FF25C4
:100590001C46C0F2FE051B6803EA05074EF2540331
:1005A000C4F2010347F0004747F47F4727601F78F4
:1005B0000E460192049007F00F07022F03D8012086
:1005C00000FA07F70EE0F81E052806D246F21831A9
:1005D000C0F2002151F8207004E0A7F108001021BA
:1005E00001FA00F7587848F2A069C0F2010900F05A
:1005F0000F0003F061F80199494580F29180B0FB4A
:10060000F7F003904FF00008010A0691A0FB0901E2
:10061000CDE9091001210020059005F57F400890E3
:100620000FE000BF00BF00BF0198012105910299B2
:1006300081455FEADF9001424FF000004FF000017A
:1006400072D00027029102E001370D2FECD046F264
:10065000F020059AC0F20020C05D10F0060F5FEA9E
:100660000F918A42F0D146F2FE21049AC0F2002195
:1006700031F8171002FB01FA0399B1FBFAFBBBF545
:10068000807F98BF8A45DFD8C0F3C101702202EA9B
:10069000001040EA015007900BFB0AF5DDE9091054
:1006A000EB172A4603F096FA76B10699B5FBF1F1FD
:1006B000C9B28029C8D34843C21700EB12600012A8
:1006C00003E000BF00BF00BF002147F6601248F200
:1006D000A063CFF6FE72C0F201031218ABF1010B5A
:1006E00048BF1A1A4A450DDA4FEA0B208F252368B6
:1006F00080B2CFF6CF7588462B40079D28439146A0
:1007000018432060002E9FD0206808990840BBF154
:10071000000F40EA086040F480302060BCD193E7CD
:1007200000200BB0BDE8F08F01998945C8BF0320B8
:100730000BB0BDE8F08FD4D410B584B04FF0704149
:10074000EFF3038001EB00604CF200318015C4F23E
:100750000001425822F48032425041F2F0124158D6
:10076000C2F200221458E06900690028206902D012
:10077000E0B104B010BDC8B1A07800F003000228B9
:10078000E06805D10088216A20F4DC40486002E07E
:10079000216A00780871A078E26800F003012069FE
:1007A000401A20611144E1600028E2D1206A02224F
:1007B000816862F315518160616A00200029E06060
:1007C000D7D0A06A40B1D0E900CED0E90223CDE96C
:1007D0000223CDE900CE00E06846E269E36A1278C0
:1007E0000260802202710022C0E902238847A06AC9
:1007F00000281CBF9DE81E001EC004B010BDD4D44C
:10080000B0B586B04FF07041EFF3038001EB0060AC
:100810004CF200318015C4F20001425822F48032BB
:10082000425041F2F0124158C2F200221458A0780E
:1008300000F00302206A022A03D101686FF35F21EE
:1008400000E00178A0690191D0B1606901A903F0CD
:1008500041FBA078D4E9051200F003000144101A0E
:10086000C4E9051037D1616AA9B3A06A00B3D0E921
:1008700000C3D0E90252CDE90452CDE902C318E029
:10088000626A42B3A06A40B1D0E900CED0E9023535
:10089000CDE90435CDE902CE00E002A8E369E56ABE
:1008A0001B78C0E9021503600423037190470AE036
:1008B00002A8E269E36A1278026001220271002252
:1008C000C0E902238847A06A28B102AD2ECD01609D
:1008D00042608360C56006B0B0BDD4D4D4D4D4D453
:1008E000B0B584B04FF07041EFF3038001EB0060CE
:1008F00041F2F0128115C2F200224FF6EF73041696
:100900005558CFF6CF73296A8A681A408A60696A97
:10091000D9B1A86A40B1D0E900CED0E90223CDE92F
:100920000223CDE900CE00E06846EA69EB6A12785E
:100930000260022202710022C0E902238847A86AED
:1009400000281CBF9DE82E002EC04CF20030C4F2DF
:10095000000050F8241021F4803140F8241050F8A1
:10096000240004B0B0BDD4D4F0B585B04FF07041D0
:10097000EFF3038001EB006041F2F0128115C2F247
:1009800000225458A178236A01F00301022904D1FE
:10099000D3F800C06FF35F2C01E093F800C09A6CAD
:1009A0002025082105EAD2454FF0100E01EA126118
:1009B0001EEA126229440A4403D0996C090458BF04
:1009C0004032996E051641F0C8519966636AC3B109
:1009D000A06A40B1D0E900E1D0E90267CDE9036740
:1009E000CDE901E100E001A8E16902710978016047
:1009F000E16AC0E902C19847A06A10B101AF8ECF89
:100A00008EC04CF20030C4F2000050F8251021F4E2
:100A1000803140F8251050F8250005B0F0BDD4D441
:100A200010B541F2EC11EFF31082C2F20021012067
:100A300080F310880868002840F61450C4F2400083
:100A400003D100230370402303700B6801330B6054
:100A500082F310884FF63862CFF6FF7240F60043FB
:100A6000C0F2014383504FF63462CFF6FF728350D9
:100A70000123EFF3108283F310880B6813B10B6826
:100A8000013B0B60096819B90021017080210170D8
:100A900041F26C0046F2403182F31088C2F200202D
:100AA000C0F20021FFF7F4FA002818BF10BD46F28B
:100AB0002C300021C0F2002041F2883244684FF40B
:100AC000E1302346FFF760FD00B110BD41F26C003C
:100AD0002146C2F20020BDE81040FFF7C5BCD4D4C7
:100AE00041F26C00C2F200204068002808BF704745
:100AF00080B541F26C00C2F20020FFF7CDFCBDE8EA
:100B0000804070B1024646F2186046F6781146F60B
:100B1000E203C0F20020C0F20021C0F2002300F086
:100B200003B87047D4D4D4D483B070B5ADF6040DF7
:100B300001AD0446CDF814184FF400612846CDF8F5
:100B40001828CDF81C3803F0C1F90DF61402284618
:100B50002146009204F076FC002828D401A803F076
:100B60007CFA30B341F29C050446C2F20025002015
:100B700001A92246287041F26C00C2F20020FFF762
:100B80004BFC010616D12978022913D006464FF4F2
:100B90007A706043C44300BF013412D201200121A6
:100BA00002F0E2FD28780228F6D1304602E0032068
:100BB00000E01720C0B20DF6040DBDE8704003B090
:100BC00070471420F6E7D4D438B341F29C0201797F
:100BD000C2F200221170117804291ED1816841F2FD
:100BE000AE00C2F200200D2902880BD1002A08BFF6
:100BF000704741F29D010122C2F200210A700021DA
:100C0000018070470F2A09D8028841F29E0CC2F277
:100C1000002C531C03800CF80210704746F29E50C3
:100C2000C0F20020FFF780BF00F012B8D4D4D4D4B3
:100C3000022818BF704741F2341047F24C01C2F24B
:100C40000020C0F2002100F03FBDD4D4D4D4D4D4CD
:100C500090B047F26845C0F20025288800284FF080
:100C600000000D908DF83200ADF83000ADF82C008A
:100C70000A90CDE90800CDE90600CDE9040012D0C4
:100C800041F234140026C2F2002400BF00BF00BFAE
:100C90006868002230F81610204600F021FD2888F0
:100CA00001368642F4D3FFF7BBFE60B128880328E3
:100CB00008D368680122818841F23410C2F2002012
:100CC00000F00EFD00BE0DA802F046FD9DF8363086
:100CD0009DF8372046F2D46046F224419DF83570E5
:100CE000C0F20020C0F200210097FFF71DFF46F67A
:100CF0008410C0F20020FFF717FF41F2F40046F61F
:100D00003451C2F20020C0F2002100F0E1FD28B110
:100D100046F251620446C0F2002232E041F2D400B1
:100D200046F60051C2F20020C0F2002101F078FB2B
:100D300028B146F260320446C0F2002221E041F2BE
:100D4000CC0046F66851C2F20020C0F2002101F04A
:100D5000CFFF28B146F21F520446C0F2002210E035
:100D600041F2601046F6D851C2F20020C0F20021D4
:100D700000F016FA002872D046F23B520446C0F248
:100D8000002246F2186046F6FE01C0F20020C0F2D2
:100D90000021FFF7C9FE46F28652C0F2002246F259
:100DA000186046F27B41C0F20020C0F20021FFF73C
:100DB000BBFE46F2A1612046C0F2002100F0E0F83F
:100DC00046F2C93B46F2FF4A46F6221744F2402457
:100DD00046F2346900250DF130089FED678AC0F2B4
:100DE000002BC0F2002A04AEC0F20027C0F20F04AC
:100DF000C0F2002920E000BF9DF830009DF83110BE
:100E00005246CDF808B0000140EA111000EE100A79
:100E1000B8EE400A1E21304620EE080AB7EEC00A9E
:100E20008DED000B03F06AF938463146FFF77CFE82
:100E30000220214602F098FC00204146ADF82C50DB
:100E40000A95CDE90855CDE90655CDE9045500F0E0
:100E50002BF90028D0D0494600F092F8CCE741F2B7
:100E6000B00541F2BC06C2F20025C2F20026002005
:100E70008DF83C00ADF83A000121ADF83D10682135
:100E80008DF83F10FF21297203223168087041F26A
:100E90006010C2F200200DF13D0100F0ADF998B1F3
:100EA00046F2A3320446C0F2002246F2186046F62B
:100EB000CD01C0F20020C0F20021FFF735FE46F25E
:100EC000BA62C0F2002233E0287A30B3306801E021
:100ED000297A11B3297A0329FAD101780139C9B2E3
:100EE0000429F5D246F67C4046F68C43C0F2002039
:100EF000C0F2002350F8212053F8214046F2186038
:100F000046F27461C0F20020C0F20021FFF70CFE2F
:100F100046F6B302C0F20022C7E70DF13A01012004
:100F200000F0C2F898B146F609120446C0F2002259
:100F300046F2186046F20961C0F20020C0F20021BA
:100F4000FFF7F2FD46F28562C0F2002227E79DF826
:100F50003A0046F27C320124C0F200220028E7D198
:100F60009DF83B006828E3D146F2F530C0F200203E
:100F7000FFF7DAFD24E700BF0000803DD4D4D4D4CD
:100F800010B50A46044646F2186046F26E41C0F2B9
:100F90000020C0F20021FFF7C7FD41F2F400C2F2C9
:100FA0000020C068A0B141F2F400C2F2002000F0BD
:100FB0001FFD68B146F2186046F2F14146F2CD429B
:100FC000C0F20020C0F20021C0F20022FFF7ACFD09
:100FD00041F2D400C2F200200068A0B141F2D40076
:100FE000C2F2002001F090FC68B146F2186046F2AF
:100FF000F14146F28742C0F20020C0F20021C0F267
:101000000022FFF791FD41F2CC00C2F200200068FF
:10101000A0B141F2CC00C2F2002001F0ADFE68B1F7
:1010200046F2186046F2F14146F63512C0F2002051
:10103000C0F20021C0F20022FFF776FD41F26010FD
:10104000C2F20020806AA0B141F26010C2F200201A
:1010500000F0CAF868B146F2186046F2F14146F66F
:101060005212C0F20020C0F20021C0F20022FFF7AD
:101070005BFD47F26840C0F200200188032908D3D5
:1010800040680122818841F23410C2F2002000F051
:1010900027FB46F2E9502146C0F20020FFF744FD4D
:1010A000FFF71EFD00BE10BD70B582B08DF80700C1
:1010B00041F2C00041F2B004C2F20020C2F20024AA
:1010C00041F2BC06C2F200260A460DF10701C0E952
:1010D000001240F201330381FF232372336800259D
:1010E0001D70836841F26010C2F2002000F0ECF83D
:1010F00088B146F2CB320446C0F2002246F21860B4
:1011000046F22841C0F20020C0F20021FFF70CFD9A
:10111000204602B070BD207A38B3306802E000BFCC
:10112000217A11B3217A0329FAD101780139C9B2A0
:101130000429F5D246F67C4046F68C43C0F20020E6
:10114000C0F2002350F8212053F8214046F21860E5
:1011500046F27461C0F20020C0F20021FFF7E4FC07
:1011600046F6B302C0F20022C8E7002002B070BD0C
:10117000002808BF704741F2B002017AC2F2002293
:10118000117241F2BC01C2F2002140680860704750
:1011900080B5FFF749FD002080BDD4D4D4D4D4D489
:1011A00010B5D1E9012C0446D2E90102E262C2E99C
:1011B0000010C068D1E903E301211176816800685D
:1011C000C2E907344969C4F834E0C2F808C0884766
:1011D000002818BF10BD44F24E51C4F65071A162F0
:1011E00010BDD4D4D4D4D4D40146002000228A62C5
:1011F0007047D4D4D4D4D4D42DE9F047144605464E
:10120000D0F82C90002A1FBFD9F800004068007861
:101210005FEAC07002D18846484623E0D9F808004A
:101220002E462246007A400006F8010F06F101081A
:10123000404602F04FFE013401D3002210E047F295
:101240006C000023C0F200200022002100BF00BF7C
:10125000F35CD2B201315A408BB2825C9C42F7D827
:101260003255E86A406800698668D0E900713846FE
:10127000D1F81CA071698847C8B9F1683846884719
:10128000A8B941F23151D6F82CC0C0F20021002398
:1012900038462A46E047002818BFBDE8F087336A81
:1012A000DAF83010002238460026984708B1BDE829
:1012B000F0872E70484641462246BDE8F04700F0D0
:1012C00067B9D4D4D4D4D4D42DE9F04F81B0C56A51
:1012D00004469A4690462868894640680078012866
:1012E00028461FD1A86826465FFA8AF24946007A46
:1012F000400006F8010F701C02F0ECFD01210020F7
:1013000086F8250051FA8AFE47F26C01C0F20021EE
:1013100016F8012BC0B25040085C0FF007C884F8E3
:101320002600E06A406800698668D0E900713846A6
:10133000D1F81CB071698847B0B9F1683846884760
:1013400090B941F23151D6F82CC0C0F200210023EF
:1013500038462246E04738B9336ADBF830100022BD
:1013600038460026984710B101B0BDE8F08F2670CE
:10137000284649464246534601B0BDE8F04F00F0CA
:1013800037B9D4D4D4D4D4D42DE9F04387B0046889
:10139000007900218DF80710266A01380428716B46
:1013A00002916AD8DFE800F0036C316111003178F6
:1013B0006068856821B90069816800688968884724
:1013C000A9682868C96888479EE0F06A3178406853
:1013D00000290069D0E900528768D2F81C807CD0CF
:1013E000BA6A05A928469047002840F08D800598E4
:1013F000D8F8301001443B6A00222846984700285C
:1014000040F082807968284634E0606900286FD017
:10141000F06A616832784068D1F80880002A006973
:10142000D0E900518768D1F81C9065D0BA6A05A947
:1014300028469047002867D10598D9F83010014414
:101440003B6A00222846984700285DD179682846E3
:101450008847002858D1D8F80810D8F80000002391
:101460004F68D4E90421B84705E0606800698168E5
:10147000006849688847002846D107B0BDE8F08376
:1014800000208DF81000206840680078012841D1C4
:10149000A06896F82610012247F26C03007AC0F289
:1014A000002360F347024A40D4E904104F1E9A5CBF
:1014B00009D00025002600BF455D01366A40B5B25F
:1014C0009A5CAF42F8D8084410F8010C904221D041
:1014D00003208DF8100002201AE0B96828468847DA
:1014E00090B939692846884770B90120307077E78C
:1014F00000208DF810000DE0B9682846884718B91B
:1015000039692846884778B103208DF810000120FA
:101510008DF807000DF10700039002A9204600F0A6
:10152000CBF807B0BDE8F083012030707EE7D4D45B
:1015300070B584B00546006803268DF80C60C46A57
:101540006068216A0191806881680068C96888477D
:10155000287958B104280CD1606804228DF8032042
:101560000069816800688968884705E08DF8036034
:1015700002E001208DF803000DF10300029001A9A3
:10158000204600F099F804B070BDD4D4D4D4D4D49B
:101590002DE9F04104464068D0E90105A0421BD086
:1015A000A6688846A9681746327B28680B69B16827
:1015B0009847002818BFBDE8F0816068A96800233B
:1015C000224644602868D1F814C0F169E0473A46E1
:1015D000414608B1BDE8F081AB6800272868C4E93E
:1015E0000477D3F808C00023BDE8F0416047D4D4A5
:1015F0002DE9F04381B0044640681E469146D0E98B
:101600000107A04217D0A5688846B96838682A7BC8
:101610000B69A968984758B96068B96800232246E1
:1016200044603868D1F814C0E969E047414610B118
:1016300001B0BDE8F083BA6838680123C6F3072714
:10164000D2F808C0F2B2C4E9047901B0BDE8F043B1
:101650006047D4D4D4D4D4D470B584B004680079AD
:10166000616800F0FE02022A8868216A019113D1A4
:10167000616900268DF80C60A9B1826800680023BA
:1016800055682269A847C4E9046680B1E16903206E
:101690008DF80C0049B90AE081680068C96888477C
:1016A00003208DF80C00E16909B101A8884704B056
:1016B00070BDD4D4D4D4D4D4C269002A08BF704732
:1016C00008461047D4D4D4D480B545F25422C5F28C
:1016D0004F020260084600F01FF8002080BDD4D4FD
:1016E00010B5CBB2012098406FF0010E84B20EEA23
:1016F000D110002A40F208024FF4803C4FEA00115A
:10170000C4F240024FF0000008BF0CFA03F454503A
:1017100010BDD4D4D4D4D4D470B5044600F064F849
:1017200041F2EC1CEFF31081C2F2002C012080F397
:101730001088DCF8000038B940F614500022C4F2DA
:101740004000027040220270DCF800000130CCF84A
:10175000000081F31088208830B340F6000E00218D
:10176000C4F2400E08E000BF0EEB8010013140F8DB
:1017700022302088814217D2606800EBC10250F805
:1017800031309288D8034FEA1220D2B2ECD50EEB5A
:10179000801555F8226026F4803645F8226023F43F
:1017A000803645F82260DFE70120EFF3108180F3F7
:1017B0001088DCF8000020B1DCF800000138CCF81B
:1017C0000000DCF8000010B181F3108870BD40F615
:1017D00014500022C4F2400002708022027081F393
:1017E000108870BDD4D4D4D42DE9F04F81B0044614
:1017F0000088002867D04EF64C4B0025C4F2010B40
:101800004FF0010A04E000BF2088013585425AD21A
:1018100047F26C1642F240080027C0F20026C4F2DC
:1018200020080CE000BF00BF88F80000C82001219C
:1018300001F09AFF013708F10208032FE4D0606835
:1018400036F8021B00EBC50082888A42F2D100689C
:101850009BF8001000F0B8500AFA07F9B0F1807F49
:1018600009EA010018D158B9012002F031F89BF8BB
:10187000000040EA09008BF80000012001F0FCFFA5
:1018800098F900000028D5D498F8000040F08000B6
:10189000CAE700BF00BF00BF58B1012002F018F82E
:1018A0009BF8000020EA09008BF80000012001F0FD
:1018B000E3FF98F90000B0F1FF3FBBDC98F80000AF
:1018C00000F07F00B0E701B0BDE8F08FD4D4D4D4ED
:1018D00070B50D46097804464EF20000C4F22500AA
:1018E00000EB01202061A8686060287B25602072E1
:1018F000E8696063286AE0630020A063C4E905002A
:10190000C4E9070084F8290084F82A0084F82B0031
:1019100084F82C000120EFF3108680F310882978DA
:10192000C1F10901884043F20401C4F220010A68B0
:1019300022EA0000086008681E20012101F014FF5F
:1019400086F310882046294600F0C2F844F6431179
:101950000020C5F24921E16070BDD4D4D4D4D4D4E0
:101960009C46012380F82AC000F0AAB9D4D4D4D46C
:101970009C46002380F82AC000F0A2B9D4D4D4D465
:10198000B0B5044600690025C5712046216800F005
:101990009FF894F82600216984F82800A069C4E91A
:1019A0000750002084F82C5084F82A50B322CA71C2
:1019B000B0BDD4D4D4D4D4D40346002059601A7214
:1019C0007047D4D4D4D4D4D4844641630020CCE925
:1019D0000E327047D4D4D4D444F64312C068C5F252
:1019E000492290425FEA1F9200200A707047D4D4C7
:1019F000B0B5044600690025C5712046216800F095
:101A000067F894F82600A16984F828002069C4E9E1
:101A10000751B32184F82C5084F82A50C1714EF23A
:101A200080112069CEF20001C571E560206890F94F
:101A30001100430900F01F02012000FA02F241F8F0
:101A40002320BFF34F8FBFF36F8F226892F90E20D0
:101A5000530902F01F0200FA02F241F82320BFF3FB
:101A60004F8FBFF36F8F226892F91020530902F055
:101A70001F0200FA02F241F82320BFF34F8FBFF399
:101A80006F8F226892F90F20530902F01F0200FAAB
:101A900002F241F8232043F20402BFF34F8FBFF359
:101AA0006F8FEFF3108580F310882168C4F2200255
:101AB00009781368C1F109018840012118431060B9
:101AC00010681E2001F050FE85F310880020B0BD84
:101AD000F0B5026900231370402302691370026994
:101AE00013785B06FCD5C0231370026803690825D0
:101AF0004EF6185C526ACEF2000C127942F0E00207
:101B00001A7402680369526AD27842F0E0025A7489
:101B100002680369526A927862F306159D70026842
:101B20000569526A13785278012B5FEA1F9343EAE2
:101B3000420242F00402EA70026844F24025C0F218
:101B40000F0503695268AA424FF0770208BF6FF091
:101B500008025A71002302699371B3230269D37199
:101B60004EF2001291F911404B7BCEF20002002C94
:101B70004FEA031303D4151985F8003304E004F089
:101B80000F05654405F8043C41F2F01E4CF20033A9
:101B9000C2F2002EC4F2000301274EF8240053F8CD
:101BA000245025F4803543F8245053F82450650917
:101BB00004F01F04BFF35F8F02EB850607FA04F4FD
:101BC000C6F8804142F8254091F90F404D7B002C2A
:101BD0004FEA051503D4161986F8005304E004F003
:101BE0000F06664406F8045C4EF8240053F82450AF
:101BF00025F4803543F8245053F82450650904F047
:101C00001F04BFF35F8F02EB850607FA04F4C6F8E2
:101C1000804142F8254091F910404D7B002C4FEA5D
:101C2000051503D4161986F8005304E004F00F06D6
:101C3000664406F8045C4EF8240053F8245025F45A
:101C4000803543F8245053F82450650904F01F04EC
:101C5000BFF35F8F02EB850607FA04F4C6F88041F4
:101C600042F8254091F90E40497B002C4FEA0111C2
:101C700003D4171987F8001305E004F00F0505EBEE
:101C80000C0707F8041C4EF8240004F01F0753F853
:101C90002410012621F4803143F8241053F8241035
:101CA000610906FA07F7BFF35F8F02EB8103C3F800
:101CB000807142F821709F2100690170F0BDD4D479
:101CC00090F808C0C0E90512BCF1010F09D190F8E5
:101CD00004C04FF48071A0F8251043EA4C0180F84D
:101CE000241010B581B04EF2200180F82930C4F2E2
:101CF000010109680091009901F00F210091DDF8C0
:101D000000E0DDF800C001690B7C90F82C40BCB904
:101D1000CEF30322A2EB1C6203FA02F2042A09D3D7
:101D2000920800BF00BF00BF91F90130002B04D51D
:101D3000013AF9D1082001B010BD0022CA718269B0
:101D40000021C0E9072190F8262080F8281080F8AB
:101D5000272080F82B1080F82D1080F82E1080F8A6
:101D60002F1080F830100168496A0A784B7891F892
:101D700005C08C79012A5FEA1F9242EA4302036997
:101D800042EA0C1242EAC41242F00402DA7002691A
:101D9000137943F0100313710269137903F0F70309
:101DA00013710269137903F0EF0313710269C979A2
:101DB000137903F07F0343EAC111117101694A7974
:101DC00042F001024A71016891F90F1000290BD409
:101DD00001F01F02012303FA02F24EF20013490937
:101DE000CEF2000343F8212001694A7A02F0F3029F
:101DF0004A720169BF22CA7190F82C1019B10021F2
:101E000080F82C1002E0006902214170002001B02E
:101E100010BDD4D4D4D4D4D410B582B04FF0704116
:101E2000EFF3038001EB00604CF200328015C4F246
:101E30000002835823F4803383508058EFF30380EB
:101E400001EB006041F2F0118015C2F200210C5844
:101E500094F82D0078B1E069002800F0C88021686E
:101E6000496AC97901293FD1A06B58B3D0E9001262
:101E7000CDE9001227E0A069022804D82069017981
:101E800041F040010171E06901280ED1206901791A
:101E900041F0100101712069017941F008010171DF
:101EA0002069017901F0EF0101712068406AC07971
:101EB00001287CD1A06B002868D0D0E90012CDE9C0
:101EC000001264E06846616BE26B026005220271F9
:101ED0008847A06B00281CBFDDE90012C0E9001292
:101EE000002084F82B00E069012819D0022807D0CF
:101EF00003286FD12069017941F04001017169E047
:101F00002069017941F0100101712069017941F0E6
:101F1000080101712069017901F0EF01017159E0B7
:101F200094F82A0001284DD120684EF28013CEF299
:101F3000000390F90F00420900F01F01012000FA90
:101F400001F143F82210BFF34F8FBFF36F8F216968
:101F5000CA7942F08002CA7121690A7942F01002FE
:101F60000A7121690A7902F0F7020A7121690A7976
:101F700002F0EF020A71216904224A7021694A794C
:101F800002F0FE024A7184F82C0023E06846616B7F
:101F9000E26B0260052202718847A06B00281CBF1B
:101FA000DDE90012C0E90012002084F82B0020694E
:101FB000C07C8DF800009DF80000012084F82D0001
:101FC00002B010BD2069417A01F0F7014172206929
:101FD00008214170D4E90401C07C226A8854D4E904
:101FE0000701013801F10101C4E9070101D002B084
:101FF00010BD2069017901F0BF01017102B010BD6F
:10200000B0B582B04FF07041EFF3038001EB006098
:102010004CF200358015C4F20005425922F480329A
:1020200042514059EFF3038001EB006041F2F0119F
:102030008015C2F200210C5894F82700D8B194F80A
:102040002600032807D194F82800022803D194F829
:102050003000002843D0206994F82410817494F84B
:10206000280094F82710013084F82800481E84F8CE
:10207000270002B0B0BD94F8290080BB2068406AF8
:10208000C07901281CD194F82B00C8B9206AB8B1D6
:10209000A06B20B1D0E90012CDE9001200E0684643
:1020A000616BE26B0260052202718847A06B002819
:1020B0001CBFDDE90012C0E90012002084F82B00EB
:1020C000E06970B1D4E90401226A895C8174D4E9C1
:1020D0000701013801F10101C4E9070101D002B093
:1020E000B0BD2069C17901F07F01C17120696FF035
:1020F000BE0100BF00BF00BF90F90720B2F1FF3F53
:1021000003DC002901F10101F6D1206890F91000EB
:1021100055F8201021F4803145F8201055F82000A2
:10212000206890F9100000280BD44EF2802300F0B4
:102130001F014009CEF20003012202FA01F143F827
:1021400020102069C17941F04001C17102B0B0BDD9
:1021500010B582B04FF07041EFF3038001EB0060E7
:1021600041F2F0118015C2F200210C582068406A3B
:10217000C079012817D1A06B20B1D0E90012CDE9B8
:10218000001200E06846616BE26B0260052202719A
:102190008847A06B00281CBFDDE90012C0E90012CF
:1021A000002084F82B0094F82900012806D194F827
:1021B0002700012802D194F8300080B3E06970BB99
:1021C00094F82A00012822D120684EF28013CEF222
:1021D0000003012290F90F0000F01F01400902FAEC
:1021E00001F143F82010BFF34F8FBFF36F8F2069C9
:1021F000C17941F08001C1712069042141702069D9
:10220000417901F0FE01417184F82C2007E020693A
:10221000417A01F0F701417220690821417020697B
:10222000C17901F0BF01C17120696FF0BE0100BF2B
:10223000C279520603D5002901F10101F8D14FF00E
:102240007041EFF3038001EB00604CF20031801528
:10225000C4F20001425822F480324250405802B089
:1022600010BDD4D4D4D4D4D470B582B04FF0704162
:10227000EFF3038001EB006041F2F0118015C2F230
:1022800000210C5821694A7A4B7A02F01F0002F0B3
:1022900003020F2803F0E0034B7201D83AB92FE094
:1022A00021694B785B0658BF42F001022AB3012531
:1022B00084F82B5020690026C67120462168FFF75C
:1022C00007FC94F82600A16984F828002069C4E975
:1022D0000761B32184F82C6084F82A60C171A06B77
:1022E00020B1D0E90012CDE9001200E06846616B30
:1022F000E26B0260057188475AE04A78520611D4B1
:10230000010706D494F82C20012A31D110F00402E0
:102310002ED0E06910B994F82B00A8B3002919D485
:10232000012138E0012084F82B0008204870206843
:102330002369406A41790278807942EA011141EAD1
:10234000C01040F00200D8702069417941F00101CD
:10235000417137E00020A169C4E9070194F8261013
:1023600084F82810012184F82C0084F82A000FE05A
:10237000400727D52068406AC079012822D104216E
:10238000204600F031F81DE094F8290080F00301A8
:102390002069B322C271A06B20B1D0E90023CDE93E
:1023A000002300E06846626BE36B036001719047B5
:1023B000A06B00281CBFDDE90012C0E9001200205C
:1023C00084F82B004FF07041EFF3038001EB0060C5
:1023D0004CF200318015C4F20001425822F48032E0
:1023E0004250405802B070BD10B582B00446806BB8
:1023F00020B1D0E90023CDE9002300E06846626BFC
:10240000E36B036001719047A06B00281CBFDDE9FE
:102410000012C0E90012002084F82B0002B010BDA9
:102420002DE9F04381B00D46097C044600270D29B3
:102430005FEA9F92027401202A7C00FA01F1E160B8
:1024400042F20001C4F23201656001EB0221A16099
:1024500069696161A969E161A761EE69EFF31089BA
:1024600080F31088287C4FF00048011F28FA00F004
:1024700006296FF0006151EA30A043F21001C4F266
:1024800020010A681040086008681E20012101F040
:102490006BF989F310884FF42541A0684FF0060EC0
:1024A0000160A068C762A068C763A0688764287AD3
:1024B0002978A268C0050329696808BF00F5803043
:1024C000D0620139A068C0F81080A068C0F81480FC
:1024D000A068C0F81880A0684762A0688762A068FA
:1024E000B269C261A068F2690262A0688166A068F0
:1024F00041666168D6F850C0C969F64601F13002FC
:1025000008E000BF00BF00BF01370432BEF1010E7A
:1025100000D112E091F84830FB40DB07F4D03B4695
:10252000042F08BF0323032F08BF0423A06800EB78
:1025300083001368013BC364E6E7287C0D2802D8BA
:10254000A06800214164A06800218163A068C0F8F0
:102550008810306D40B996F8200096F8211040039D
:1025600040EA41704CEA000C96F84800A168002847
:102570004FF4A00008BF4FF4AA000864A068C0F898
:1025800034C041F2F01C96F8540096F85510A26839
:10259000C2F2002C4901D36A41EA0010032118431A
:1025A000D062A06801230163A0680363D4E902013B
:1025B000C1604EF2001095F912704CF20031CEF26B
:1025C0000000C4F20001002F1AD46D7CC2192D0145
:1025D00082F800534CF8274051F8272022F480322B
:1025E00041F8272051F827207A0907F01F07BFF389
:1025F0005F8F00EB8205BB40C5F8803140F8223088
:1026000096F92830002B1DD496F82220C7180125F2
:10261000120187F800234CF8234051F8232022F4BC
:10262000803241F8232051F823205A0903F01F0378
:10263000BFF35F8F00EB820705FA03F3C7F8803121
:1026400040F8223096F92930002B1DD496F823202B
:10265000C7180125120187F800234CF8234051F8D0
:10266000232022F4803241F8232051F823205A09F4
:1026700003F01F03BFF35F8F00EB820705FA03F33C
:10268000C7F8803140F8223096F92A30002B1DD44B
:1026900096F82420C7180125120187F800234CF86A
:1026A000234051F8232022F4803241F8232051F8AE
:1026B00023205A0903F01F03BFF35F8F00EB82074B
:1026C00005FA03F3C7F8803140F8223096F92B3031
:1026D000002B1DD496F82520C7180125120187F874
:1026E00000234CF8234051F8232022F4803241F893
:1026F000232051F823205A0903F01F03BFF35F8FF3
:1027000000EB820705FA03F3C7F8803140F8223066
:1027100096F92C30002B1DD496F82620C7180125D9
:10272000120187F800234CF8234051F8232022F4AB
:10273000803241F8232051F823205A0903F01F0367
:10274000BFF35F8F00EB820705FA03F3C7F8803110
:1027500040F8223096F92D30002B1DD496F8272012
:10276000C718120187F800234CF82340012751F8BD
:10277000232022F4803241F8232051F823105909F4
:1027800003F01F03BFF35F8F00EB810207FA03F32F
:10279000C2F8803140F8213045F254010020C0F2E7
:1027A0004701216001B0BDE8F083D4D4D4D4D4D49F
:1027B000D0E9021200204A607047D4D4D4D4D4D4D3
:1027C000D0E9021200208A607047D4D4D4D4D4D483
:1027D000D0E902120020CA607047D4D4D4D4D4D433
:1027E00080B5D0E9011EC969D1E901C3CA6843F0C7
:1027F0000043CEF8143042F0004283689A614CF0F6
:1028000000438268136182680B695362826800200A
:102810004969916280BDD4D481684FF000420A6159
:1028200081684A6181688A61002281684A628168A0
:1028300000208A627047D4D4826801399166826828
:10284000D36ADB0703D15166D0E90201C1600020E1
:102850007047D4D4D4D4D4D406207047D4D4D4D49C
:102860001346042A08BF0323032AA1F1010108BF6C
:102870000423806800EB83020020D1647047D4D425
:1028800070B582680C464EF25C00C4F20100516ED5
:102890000131A160D16A027802F00F02022A01D848
:1028A00001230BE0D31E052B06D247F2C812C0F25B
:1028B000002212F8235003E0083A102303FA02F52D
:1028C0004078C1F3C35600F00F0000F0F5FEE9B206
:1028D000B0FBF1F001212170F0406060002070BD7C
:1028E0008268D06A00F0010008710020926C0A60D2
:1028F0007047D4D4D4D4D4D4844641610020CCE9E8
:1029000006327047D4D4D4D4B0B543684EF2801E9A
:1029100041F2F01CCEF2000E93F91210DB69C2F204
:10292000002C00290ED44A0901F01F04012505FAE4
:1029300004F44EF82240BFF34F8FBFF36F8F002295
:102940004CF8212093F9281000290ED44A0901F0EF
:102950001F04012505FA04F44EF82240BFF34F8FFF
:10296000BFF36F8F00224CF8212093F92910002922
:102970000ED44A0901F01F04012505FA04F44EF8AB
:102980002240BFF34F8FBFF36F8F00224CF82120FE
:1029900093F92A1000290ED44A0901F01F040125D9
:1029A00005FA04F44EF82240BFF34F8FBFF36F8F48
:1029B00000224CF8212093F92B1000290ED44A094B
:1029C00001F01F04012505FA04F44EF82240BFF37C
:1029D0004F8FBFF36F8F00224CF8212093F92C10FA
:1029E00000290ED44A0901F01F04012505FA04F458
:1029F0004EF82240BFF34F8FBFF36F8F00224CF889
:102A0000212093F92D1000290ED44A0901F01F034B
:102A1000012404FA03F34EF82230BFF34F8FBFF3C3
:102A20006F8F00224CF82120D0E9021200230360AE
:102A30008A60816800204B63B0BDD4D4D4D4D4D490
:102A400010B584B04FF07041EFF3038001EB0061EB
:102A50004CF2003E8A15C4F2000E41F2F01452F816
:102A60000E30C2F2002423F4803342F80E3052F8C4
:102A70000E30A45862681378012B40F0AE80D4E980
:102A800002300916D2694EF2802C98600023A068AB
:102A9000CEF2000C8364A068C364A06803650123C0
:102AA0005EF8210020F480304EF821005EF821000D
:102AB000480901F01F01BFF35F8F03FA01F14CF8E1
:102AC000201092F84830D80717D092F92810002922
:102AD00013D45EF82100012320F480304EF8210049
:102AE0005EF82100480901F01F01BFF35F8F03FA70
:102AF00001F14CF8201092F84830980715D592F95A
:102B00002910002911D45EF82100012320F480301F
:102B10004EF821005EF82100BFF35F8F480901F0F5
:102B20001F0103FA01F14CF8201092F92A10002934
:102B300011D45EF82100012320F480304EF82100EA
:102B40005EF82100BFF35F8F480901F01F0103FA0F
:102B500001F14CF8201092F92B10002911D45EF8E5
:102B60002100012320F480304EF821005EF821007E
:102B7000BFF35F8F480901F01F0103FA01F14CF820
:102B8000201092F92C10002911D45EF821000123A5
:102B900020F480304EF821005EF82100BFF35F8FF3
:102BA000480901F01F0103FA01F14CF8201092F9D5
:102BB0002D10002911D45EF82100012220F480306C
:102BC0004EF821005EF82100BFF35F8F480901F045
:102BD0001F0102FA01F14CF820106169A1B1A0694E
:102BE00030B1D0E900C382680392CDE901C300E0AF
:102BF00001A8002202718260E26902608847A06930
:102C000010B101AB0ECB0EC004B010BDD4D4D4D4DF
:102C1000042000F001B8D4D4B0B584B04FF07042B5
:102C2000EFF3038102EB01634CF200359A15C4F215
:102C3000000541F2F01105285459C2F2002124F494
:102C40008034545154598C5805D86268D16991F830
:102C5000481089071BD04FF0000E6369ABB1A16922
:102C600031B1D1E900C58A680392CDE901C500E020
:102C700001A90871E06908600846C1F808E09847B2
:102C8000A06910B101AB0ECB0EC004B0B0BDD4F83A
:102C900008C00CEB80010338D1F83CE01178012921
:102CA000DBD14FF00041CCF81010A2681B16516127
:102CB000A26891610022A1684A62A1688A625A09E9
:102CC00055F8231021F4803145F8231055F82310CE
:102CD0004EF28025CEF20005BFF35F8F03F01F0197
:102CE000012303FA01F145F82210B6E7D4D4D4D475
:102CF000F0B581B043F20802EFF31087C4F220026E
:102D0000012686F31088044613680D4623F4804399
:102D100013601E200121126800F026FD87F3108841
:102D20004FF0210EF64641F220004FF2FF02002143
:102D3000C4F22000CCF6FB720AE000BF00BF00BF67
:102D400056EA4F0104300235BEF1010E00D108E011
:102D500001F0010306EA02073B43F1D02B88038010
:102D6000EEE744F643410020C0F24501216001B086
:102D7000F0BDD4D4D4D4D4D441F200030146C4F27B
:102D80002003002000220A601A707047D4D4D4D4E3
:102D900041F204020020C4F22002412302F8210083
:102DA000402002F82100002002F821307047D4D4DE
:102DB00041F220030020C4F2200323F821207047B1
:102DC00041F220020020C4F22002002322F8213028
:102DD0007047D4D4D4D4D4D441F200010020C4F23A
:102DE000200180220A70704741F200010020C4F2E5
:102DF000200100220A7070474EF22401C4F2010142
:102E00008878098801F00F02A2F1080103293BD854
:102E1000DFE801F0022C101E41F24001C2F2002155
:102E200051F820004AF6AB21CAF6AA21A0FB010105
:102E3000480830E041F24001C2F2002151F8200080
:102E40004AF6AB21CAF6AA21A0FB0101C80822E07C
:102E500041F24001C2F2002151F820004AF6AB21B4
:102E6000CAF6AA21A0FB0101080914E041F24001C1
:102E7000C2F2002151F820004AF6AB21CAF6AA217D
:102E8000A0FB0101880806E041F24001C2F20021E6
:102E900051F82000D04041F22421C2F20021086004
:102EA0007047D4D4D4D4D4D4D4D4D4D4D4D4D4D4D3
:102EB0002DE9F04782B00FF268604EF2FA3841F225
:102EC0004006C4F201084AF2015190ED001FC2F21F
:102ED00000260FF25C60CFF6FF714EF2550502310D
:102EE000A8F8001086ED001F06F12003C4F20105CA
:102EF00090ED001F48F2004040F60001C1F2D7708B
:102F000043F6000286ED041FC2F6AF71C1F69C4283
:102F100007C315F82F0C35F8311C01F00F02A2F190
:102F2000080103292BD8DFE801F002200C164AF62D
:102F3000AB2156F82000CAF6AA21A0FB01014808DF
:102F400020E04AF6AB2156F82000CAF6AA21A0FBE1
:102F50000101C80816E04AF6AB2156F82000CAF66F
:102F6000AA21A0FB010108090CE04AF6AB2156F8A2
:102F70002000CAF6AA21A0FB0101880802E056F849
:102F80002000D04041F2242A4EF60044C2F2002A2A
:102F9000C4F201040A214EF60147CAF800004FF6B8
:102FA0005060CFF6FF70C4F201072154092085F864
:102FB0004D00207818B93878800700F0A882207872
:102FC00048B901202070C820012100F0CDFB00BFCE
:102FD00020780128FCD10020387020704AF2015975
:102FE000002005F81F0C05F8230C00BF00BF00BF30
:102FF00015F8190C0007FBD542F602314EF61450B5
:10300000C0F20101C5F8731040F2234125F8071CF6
:10301000002205F80B2C4FF60211C5F8571040F2AC
:10302000514125F8091CCEF200004EF20001BFF319
:103030004F8FBFF36F8F0368CEF2010123F400338B
:103040000360C0F83C22BFF34F8FBFF36F8F0A6855
:1030500022F440520A60BFF34F8FBFF36F8F15F811
:10306000412C02F0F802013205F8412C00BF00BFEC
:1030700015F8412CD206FBD40A6842F440520A608B
:10308000BFF34F8FBFF36F8F0168890312D4BFF373
:103090004F8FBFF36F8F0021C0F83C12BFF34F8FEB
:1030A000BFF36F8F016841F400310160BFF34F8FB0
:1030B000BFF36F8F002005F82B0C00BF00BF00BFCF
:1030C00015F8190C8006FBD54CF200040020C4F260
:1030D000130420702078207820786068FA2807D0C0
:1030E000FA20C1F6006000BF60606168FA29FBD178
:1030F000A0687D2808D07D20CEF2001000BF00BF60
:10310000A060A1687D29FBD143F23240C3F22320A5
:1031100045F8350C42F2202025F8310C052005F841
:103120002F0C15F82F0C35F8311C01F00F02A2F10D
:10313000080103292BD8DFE801F002200C164AF61B
:10314000AB2156F82000CAF6AA21A0FB01014808CD
:1031500020E04AF6AB2156F82000CAF6AA21A0FBCF
:103160000101C80816E04AF6AB2156F82000CAF65D
:10317000AA21A0FB010108090CE04AF6AB2156F890
:103180002000CAF6AA21A0FB0101880802E056F837
:103190002000D040CAF800001E200121012700F0C5
:1031A000E3FA60686FF39F20652828BF277015F841
:1031B0002F0C35F8311C01F00F02A2F10801032990
:1031C0002BD8DFE801F002200C164AF6AB2156F8A6
:1031D0002000CAF6AA21A0FB0101480820E04AF617
:1031E000AB2156F82000CAF6AA21A0FB0101C808AD
:1031F00016E04AF6AB2156F82000CAF6AA21A0FB39
:10320000010108090CE04AF6AB2156F82000CAF685
:10321000AA21A0FB0101880802E056F82000D04056
:1032200042F20001CAF80000C4F200010120A1F836
:103230000090BFF35F8F08724FF42540BFF35F8F9C
:10324000088095F8850040F0400085F8850000BFB3
:1032500095F98500B0F1FF3FFADC032085F87F0087
:10326000C92085F8850095F8850000F0BF0085F835
:10327000850000BF00BF00BF95F985000028FBD482
:10328000012005F8250C05F8030C05F8020C0020B8
:1032900005F8170C802005F8170CE87F40F0400077
:1032A000E87700BF00BF00BF95F91F00B0F1FF3FF6
:1032B000FADC0720E8754A20E8770A20E87700BFA3
:1032C00095F91F000028FBD40720ADF806000DF18A
:1032D000060000F035F995F8210040F0400085F82F
:1032E000210000BF00BF00BF95F92100B0F1FF3FF2
:1032F000FADC03206876CA2085F8210095F82100C1
:1033000000F0BF0085F8210095F921000028FBD4CA
:10331000287840F04000287095F90000B0F1FF3F98
:10332000FADC022005F8010CCA202870287800F089
:10333000BF00287000BF00BF95F900000028FBD433
:10334000A87840F04000A87095F90200B0F1FF3F66
:10335000FADC00206870C720A870A87800F0BF00D1
:10336000A87000BF00BF00BF95F902000028FBD481
:10337000287A40F04000287295F90800B0F1FF3F2C
:10338000FADC0120E871C6202872287A00F0BF001C
:10339000287200BF00BF00BF95F908000028FBD4C9
:1033A00095F8230040F0400085F8230000BF00BFDF
:1033B00095F92300B0F1FF3FFADC0220E876C9203E
:1033C00085F8230095F8230000F0BF0085F823005E
:1033D00095F923000028FBD495F8220040F0400026
:1033E00085F8220000BF00BF95F92200B0F1FF3F31
:1033F000FADC0420A876CA2085F8220095F822007D
:1034000000F0BF0085F8220095F922000028FBD4C7
:10341000A87940F04000A87195F90600B0F1FF3F8F
:10342000FADC02206871CA20A871A87900F0BF00F8
:10343000A87100BF00BF00BF95F906000028FBD4AB
:1034400095F8860040F0400085F8860000BF00BF78
:1034500095F98600B0F1FF3FFADC022085F8800084
:10346000C52085F8860095F8860000F0BF0085F835
:10347000860000BF00BF00BF95F986000028FBD47E
:1034800095F8870040F0400085F8870000BF00BF36
:1034900095F98700B0F1FF3FFADC012085F8810043
:1034A000C52085F8870095F8870000F0BF0085F8F3
:1034B000870000BF00BF00BF95F987000028FBD43C
:1034C00095F8890040F0400085F8890000BF00BFF2
:1034D00095F98900B0F1FF3FFADC092085F88300F7
:1034E000C92085F8890095F8890000F0BF0085F8AB
:1034F000890000BF00BF00BF95F989000028FBD4F8
:103500004FF42540A8F8000002B0BDE8F0874FF462
:103510007A7000F0CDF861E500BF00BF00BF00BFCA
:10352000006CDC0200127A000080000000366E01A0
:103530000080000000CA9A3B0046C3235543DE13B7
:103540002DE9F04F81B04EF2FA3143F20406C4F295
:1035500001018246C4F220064AF20350B1F80090FD
:1035600008804FF0010B00254FF480340127002024
:1035700008E000BF00BF00BFF8074FF001004FF0A8
:10358000000716D004FA00F132680A42F4D1EFF3D2
:1035900010888BF3108832680BFA00F01143316009
:1035A000316805431E20012100F0DEF888F3108801
:1035B000E2E74EF2750741F24001C4F20107C2F2A0
:1035C0000021387800F00F0051F8200017F8081C8F
:1035D00001F00F01022901D801220BE0CA1E052AC1
:1035E00006D247F24441C0F2002151F8221003E014
:1035F0000839102202FA01F1B0FBF1F04DF68361B7
:10360000C4F21B31A0FB01016FF0010000EA514040
:10361000012100F0A9F8387840F04000387000BF70
:1036200097F90000B0F1FF3FFADC9AF8010007F8C3
:10363000080C9AF8000040F0400038709AF800003A
:10364000387000BF00BF00BF97F900000028FBD40E
:1036500000204FF0010A4FF48038012406E000BF3B
:10366000E0074FF001004FF0000415D025FA00F1FB
:10367000C907F5D0EFF310878AF3108808FA00F035
:10368000316821EA0000306030681E20012100F01E
:103690006BF887F31088E3E74EF2FA3149F42540DE
:1036A000C4F20101088001B0BDE8F08FD4D4D4D4B5
:1036B0007047D4D4D4D4D4D441F24001C2F2002112
:1036C00051F820007047D4D4B0B542F22404C82089
:1036D000C4F2200401210025257100F045F8257071
:1036E000207808B12FF005C0207840F0020020704B
:1036F00020788007FCD4002004F8020C00BF00BF33
:1037000014F8020C08B12FF005C84FF0030E00208A
:1037100004F11C0100BF00BF11F8102002F07F026D
:1037200001F8102000BF00BF11F91020002AFBD4BF
:1037300001300FF00FC8012000F0CAF84EF64C41DE
:103740000120C4F2010100220A70BDE8B04000F07F
:1037500093B8D4D4D4D4D4D4014600220020C0F2EB
:1037600004620A607047D4D441F2242241F200235B
:10377000C2F20022C0F27A03484312689A420FD381
:1037800044F23F21C0F20F0111444DF68362C4F2AE
:103790001B32A1FB0212910CA0FB0101C9B11DE07B
:1037A0004CF60021C3F69A31B1FBF2F148F638121B
:1037B000C0F24102904205D24FF47A725043B0FBFE
:1037C000F1F006E0B0FBF1F0904207D24FF47A71CD
:1037D0004843002808BF704700F006B84FF0FF309C
:1037E00000F002B8D4D4D4D401380028FCD17047FA
:1037F000F0B581B04CF2201541F29817C4F20005E3
:103800000024C2F2002755F8200C296801EA0006BE
:1038100006E000BF00BF00BF01340437152C09D0FB
:1038200026FA04F0C007F7D039680029F4D0204602
:103830008847F1E745F8106C28683042FCD101B0A8
:10384000F0BDD4D4D4D4D4D480B54FF00A0E4CF209
:10385000003047F25801C4F20000C0F2002100BF5E
:1038600031F8022B002A18BF026004300FF009C0A3
:1038700080BDD4D4D4D4D4D4EFF31081012282F308
:10388000108841F21822C2F2002232F8103023B11F
:1038900032F81030013B22F8103032F8102012B10B
:1038A00081F3108870474EF2FA3247F2584CC4F256
:1038B0000102C0F2002C13883CF8100043F42543A9
:1038C00023EA0000108081F310887047D4D4D4D448
:1038D00010B5EFF31081012282F3108841F2182213
:1038E000C2F2002232F8103083B94EF2FA3E47F2AB
:1038F000584CC4F2010EC0F2002CBEF800403CF857
:103900001030234343F42543AEF8003032F8103032
:10391000013322F8103081F3108810BDD4D4D4D4F0
:1039200000F00AF8FDF734FCFEE7D4D4D4D4D4D4A4
:1039300000BE7047D4D4D4D42DE9F04381B04EF604
:10394000085840F20120CEF20008C0F20E004EF2FC
:103950000004C8F80C00CEF20104BFF34F8FBFF390
:103960006F8F58F8081CC1F3035001285FEA1F92BB
:1039700011F00F0F5FEA0F911142216811D1022857
:103980000FD241F0040020604EF20800BFF34F8FC9
:10399000CEF20000BFF36F8F016841F48031016007
:1039A00002E021F004002060BFF34F8FBFF36F8F60
:1039B0004FF4700040F20001C8F880000020C0F20F
:1039C0000021C8F800100025FDF732F9FFF770FA62
:1039D0004EF2FA304EF6B022C4F20100C4F20102F7
:1039E0004AF20251018015704FF4254101800120F7
:1039F000FDF71EF940F24000C2F2002080F30A8871
:103A00002068800724D5D8F80000B0F1007F1FD1CE
:103A100020694FF40071C0F3C300626901FA00F33A
:103A2000C2F3C30081400020DA08CB0801460746F4
:103A300042F007C000BF00BFE7E802010FF005C079
:103A40004FF0005243F005C0E2E802010FF005C05C
:103A500047F21824C0F20024276897B160683E46F8
:103A6000051D05E000BF00BF013E05F10C0508D0B3
:103A700068790028F8D155E90101091A00F026FA01
:103A8000F2E7D4F80890B9F1000F13D0E0684E4681
:103A900000F1080504E000BF013E05F1100509D062
:103AA00068790028F8D155E902022968121A00F055
:103AB00011FAF1E7FFF7A0F9FFF706FE0320FFF781
:103AC00007FF4FF00E0E40F63050C4F240000021C8
:103AD00020F8041B0FF005C00320FFF7CDFE0320E4
:103AE000FFF7F6FE44F204000021C4F2200001605A
:103AF00041608160C1600320FFF7BEFE0220FDF738
:103B000097F89FB160684FF48076051D04E000BF10
:103B1000013F05F10C0509D06879B6EB002FF7D10C
:103B200055E90101091A00F0D1F9F1E7B9F1000FE7
:103B300016D0E0684FF4807500F1080405E000BF7E
:103B4000B9F1010904F110040AD06079B5EB002F36
:103B5000F6D154E902022168121A00F0BBF9EFE72E
:103B600041F22C24C2F20024204600F0A4FA2046A0
:103B700000F0B9FABFF34F8FBFF36F8F0020C8F882
:103B8000480247F2FE7047F2FE71C0F20020C0F218
:103B90000021BFF34F8F081ABFF36F8F8410012CE1
:103BA0000BDB47F2FE75C0F2002500BF00BF00BF6F
:103BB00055F8040B8047013CFAD1FFF745FE002081
:103BC00001B0BDE8F04300F003B8D4D4D4D4D4D4C9
:103BD0007047D4D440B584B002AE009600F004F82B
:103BE000029A039B04B040BDB0B584B00D4602A953
:103BF00080EAE57000911C4682EAE37285EAE5718D
:103C0000B0EBE57061EBE57183EAE373B2EBE4726C
:103C100063EBE47300F017F8DDE90223DDF820C060
:103C200083EAE57382EAE572B2EBE57263EBE57372
:103C3000CCE90023E21782EAE57250405140801A35
:103C4000914104B0B0BD2DE9F04F099D844681B18A
:103C5000C2B14BB3B1FA81F7B3FA83F6F71B202F49
:103C60004FD3002D18BFC5E900C100200021BDE8D9
:103C7000F08FCBB30021002D64D00020C5E900C136
:103C8000BDE8F08F002B60D0002861D05F1E3B4262
:103C900000F08580B1FA81F7B3FA83F6F71B1F2F86
:103CA000DFD207F1010C3CE0571E3A425DD0B1FA79
:103CB00081F7B2FA82F6F71B07F1210CBCF1200F55
:103CC00024D0BCF11F0F79D8CCF1200620FA0CF7D4
:103CD00021FA0CF901FA06F5B0403D434FF0000A15
:103CE000BCF1010F2CD07CE0B0FBF2FC002D1EBF1C
:103CF0000CFB12000021C5E9000100216046BDE86F
:103D0000F08F07F1010CBCF1200F0AD14FF0000930
:103D10004FF0200C0D464FF0000ABCF1010F0FD000
:103D20005FE0C7F11F0720FA0CF621FA0CF901FA3F
:103D300007F5B84035434FF0000ABCF1010F50D1F0
:103D400000248FE00020BDE8F08F6046BDE8F08FD2
:103D5000B1FBF3FC002D1EBF0CFB13100021C5E9C5
:103D6000001000216046BDE8F08F002D1EBF00232B
:103D70000740C5E90073012A0ED092FAA2F24F0063
:103D8000B2FA82F202F01F03D140D8401F239343BE
:103D900007FA03F343EA000C6046BDE8F08F002DFC
:103DA0001CBF07EA0100C5E900C093FAA3F0B0FA0E
:103DB00080F021FA00F00021BDE8F08FACF120077F
:103DC000CCF140044FF0000920FA07F601FA04F59F
:103DD0002E4300FA04FA21FA07F53046BCF1010F30
:103DE000AED02CF001070126023F4FF0000B06EB8E
:103DF000570E4FEA490444EAD5746D0045EAD07580
:103E00004000E743E943891843EB0708AF1A64EB26
:103E10000306B8F1000F56EA448457EA458564006A
:103E200044EAD5746D0045EAD07540EADA70AE1AFE
:103E30006FEA050164EB030789184FEA40006FEA57
:103E40000401594157EA448956EA4585CC0F4BEAAB
:103E50004A010027A34640EAD170490041EAD87AD6
:103E60000FF039C85FEACC711ED06F004FEA4901EC
:103E700047EAD07741EAD571B7EB020C4FEA400030
:103E800061EB030EFD4352196FEA010653EB060284
:103E900040EADA705EEA41895CEA4785D10F44EA7C
:103EA0004A0200270C4692464FEADA7141EA400086
:103EB00009994FEA4A02002918BFC1E9005940EAAE
:103EC000070122F001002043BDE8F08F0A460021DF
:103ED00000F076B8844641EA000313F0030349D1A9
:103EE000403A23D30B6803604B6843608B68836060
:103EF000CB68C3600B6903614B6943618B69836164
:103F0000CB69C3610B6A03624B6A43628B6A83624B
:103F1000CB6AC3620B6B03634B6B43638B6B836333
:103F2000CB6BC36340304031403ADBD230320BD3ED
:103F30000B6803604B6843608B688360CB68C36029
:103F400010301031103AF3D20C3205D351F8043B43
:103F500040F8043B043AF9D2043208D0D2071CBF1F
:103F600011F8013B00F8013B01D30B880380604648
:103F7000704700BF082A13D38B07B1D010F003039A
:103F8000AED0C3F10403D21ADB071CBF11F8013B0A
:103F900000F8013BA4D331F8023B20F8023B9FE735
:103FA000043AD9D3013A11F8013B00F8013BF9D2A8
:103FB0000B7803704B7843708B7883706046704742
:103FC00070B4840746D0541E002A41D0CDB20346B7
:103FD00002E0621EE4B3144603F8015B9A07F8D1CD
:103FE000032C2ED9CDB245EA05250F2C45EA05450F
:103FF00019D9264603F11002103E0F2E42F8105C2C
:1040000042F80C5C42F8085C42F8045C02F11002D1
:10401000F2D8A4F1100222F00F0204F00F041032C3
:10402000032C13440DD91E462246121F032A46F8BC
:10403000045BFAD8221F22F00302121D134404F07D
:1040400003042CB1C9B21C4403F8011BA342FBD1E9
:1040500070BC704714460346C2E720F0030110F01D
:104060000300C0F1000051F8043B00F1040C4FEADA
:10407000CC0C6FF000021CBF22FA0CF213434FF07D
:10408000010C4CEA0C2C4CEA0C4CA3EB0C0222EA7F
:10409000030212EACC1204BF51F8043B001DF4D015
:1040A000C2F1000102EA0102B2FA82F2C2F11F0279
:1040B00000EBD200704710B540F28C0140F20002D4
:1040C000C0F20021C0F200020446FFF703FF40F2F5
:1040D000000040F20001C0F20000C0F200012044E4
:1040E000FFF7F4FE10BD40F20801C0F20001401AD3
:1040F00041F22821C2F200210860704781B0B0B5BA
:1041000089B00C4644F25111C0F200210025019102
:104110004FF4003194460DAA009101190D93002C23
:104120000892CDE906550490CDE9025518BF481E06
:1041300048BF002005906846614600F011F8002C49
:104140001CBF04990D7009B0BDE8B04001B07047C4
:10415000D1E904239A421EBF531C0B6110707047B3
:104160002DE9F04F99B0814680781892800740F190
:10417000B58518980027D9F804808A46179011A8A9
:10418000821D0C92421E053010920E900D915146E8
:1041900011F8010B252803D08A4638B900F0A0BDDC
:1041A0009AF801500AF1020A252D06D14946C04766
:1041B00001370028EBD500F08BBD002200244FF022
:1041C000000C4FF0000B04E01AF8015B002D00F02A
:1041D0002D811FFA8BF61F2E20D8A5F12000102864
:1041E0001ED8DFE810F015001D001D0018001D008E
:1041F0001D001D0014001D001D001D0011001D00EC
:10420000CC001D001D00C9004BF0020B00E0DBE7F5
:104210004BF0040BD8E74BF0100BD5E77F2E0DD8F1
:10422000A5F13000092840D8402E80F0A0800CEB8A
:104230008C014BF0200B00EB410CC5E7A5F14C00C5
:104240002E2800F2F480DFE810F08F00F200F20078
:10425000F200F200F200F200F200F200F200F200CE
:10426000F200F200F200F200F200F200F200F200BE
:10427000F200F200F200F200F200F200F200F200AE
:10428000F200A400F2008F00F2009D00F200F200A4
:10429000F200F200F200F200F2002F00F200F20051
:1042A000F200F200F2002F008EE7A5F1240056285C
:1042B00000F2BD80DFE810F08600BB00BB00BB0051
:1042C000BB00BB007400BB00BB00BB00A400BB0074
:1042D000BB00BB00BB00BB00BB00BB00BB00BB0006
:1042E000BB00BB00BB00BB00BB00BB00BB00BB00F6
:1042F000BB00BB00BB00BB00BB00BB00BB00BB00E6
:10430000BB00BB00BB00BB005800BB00BB00BB0038
:10431000BB00BB00BB00BB00BB00BB00BB00BB00C5
:10432000BB00BB00BB00BB00BB00BB00BB00BB00B5
:10433000BB00BB00BB00BB00BB00BB00BB00BB00A5
:104340006D00BB005800BB006600BB00BB00BB009B
:10435000BB00BB00BB00BB005700BB00BB00BB00E9
:10436000BB00BB0057002FE74BF4207B2CE704EB8E
:10437000840100EB410427E74BF0010B24E74BF0ED
:10438000080B21E70BF080004BEA800040F0800B27
:104390001AE70BF480704BEA400040F4807B13E78F
:1043A000002A7FF411AF17983F2E00F104011791F6
:1043B000006832D8B0F1FF3F32DD4BF0200B002215
:1043C000844601E712B31898402E179017A90D984C
:1043D0006546CDF83C90C14690465CEA348200F0D8
:1043E00083FC1798402E4246C84600F104011791FD
:1043F0000068DDF83C9050EA358C54EA3084E3E6FE
:104400003F2E00F26D844BF0400BDDE66246002447
:104410004FF0000C4FF0000BD6E600220446D3E626
:104420004BF0280BC0F1000C0022CDE60025CDF8A2
:104430003CC03AB1189817A917900D9800F054FC99
:10444000DDF83CC0002C24EAE47E45F0200048BFA3
:104450002BF0400B61281CBFA0F16501022925D873
:104460001799612801F1070121F0070101F1080204
:104470001792A0EB050291ED000B0A9244D15FEA7E
:104480004B6058BF4FF0FF3E11A8D2B2714676463E
:1044900000F0C8FD451C4BF4C05B4FF0700C4FF0B2
:1044A000010EE8B28642D8BF461E5CE0A5F163016A
:1044B000122900F20A8108230026DFE811F03501F5
:1044C000130006010601060106011300060106019C
:1044D00006010601060161015D01060106010D01EB
:1044E00006012E011FFA8BF15FEA0B6000F10C81CF
:1044F0001798021D17920068CA0540F10C818905C2
:1045000054BF00B240B206E15FEA4B6158BF4FF0C2
:10451000060E662809D065280FD14BF4805B7646DD
:104520000EF101010023652411E04BF4005B012230
:1045300066241121764673460AE05FEA0E61A0F117
:104540000204714676464FF0000308BF01210022A5
:1045500011A8C9B2112928BF112100F08DFF05460D
:104560004FF0020EA446119B9DF84800A3F10A01EA
:1045700011F1130F38BF4FF0020EA3F1640108913F
:1045800011F1C70F38BF4FF0030E0F9CC1074FD179
:104590005FEA8B716FD41FFA8BF1202202EAC1020D
:1045A00011F0040F5FEA1F9110F00C0F45D11BF4BE
:1045B000405F0493CDE9062140F02B82012E4FF09D
:1045C000010056EA80801FFA8BF12A0600F06D8107
:1045D0000E9BEAB2134413F8013C302B40F00682E4
:1045E0006B1E1A0621D02E460E9DDAB2154415F820
:1045F000015C302D40F0F981B31E1A0615D00E9DD6
:10460000DAB2154415F8015C302D40F0EE81F31E4E
:104610001A060AD00E9DDAB2154415F8015C302D49
:1046200040F0E381351F2A06D2D100250022DDE1CA
:104630002D22002110F00C0FB9D000294FF00300FB
:1046400050EA1090844212DD0A9E0D465FEA0B711B
:1046500017D4041B934620204946C047002800F188
:10466000378301370134F6D300245A460AE0002488
:104670000A9E49B10FE02B22002110F00C0FDCD173
:1046800095E7241A294631B910464946C047002803
:1046900000F11E8301379DF8480046F6DE01C0F2A6
:1046A0000021000746F28250C0F2002050EA5185F6
:1046B0002878002800F0F982801B4946C0B2C04724
:1046C000013701350028F3D502E3782840F09880BF
:1046D000C5F188032E4653E01798011D1791006815
:1046E00046F67541C0F20021002851EA00855FEAD4
:1046F0004B6058BF4FF0FF3E2846714600F06AFEFF
:10470000DDF83CC0064617E01798890500F1868061
:10471000011D17910068C11788E04FF6EF700BEA92
:10472000000B0A2375262BE01798012611AD011DF9
:10473000179100688DF844005FEA0B700ED4B44501
:104740000CD9202049466446C047002800F1C082A9
:10475000A4F1010C0137B445F3D8B4463744ACEBAF
:104760000604002E00F0A18215F8010B4946C0474F
:10477000013E0028F5D5ABE24BF0100B1023782654
:104780004FF6F9700BEA00025FEA0B600B960AD451
:104790001798011D17910668D1050AD5900554BFD9
:1047A000B6B2F6B205E0179891050AD4011D17912B
:1047B0000668002156EA010008BF2BF0160278D1E6
:1047C0000FE00730154620F007000246416852F816
:1047D000086B17922A4656EA010008BF2BF0160212
:1047E00067D100265FEA4B6062D50021012C60DAB8
:1047F0004FF6E9700BEA00010B9D480637D467E0DD
:1048000025204946C047002800F1628228464946D3
:10481000C047023700287FF5BAAC59E2073020F0D4
:1048200007010A46496852F8080B179200295A46B0
:10483000CDF82CE048BF42F4806250EA010322D058
:1048400080EAE17081EAE173B0EBE17063EBE17162
:1048500011AC22F010060A23224600F06DFB31460F
:10486000061BDDF83CC0DDF82CE0480630D54FF6DD
:10487000FE70764500EA01002BDA002D08BF21F01A
:104880001100714626E05FEA4B604FF0000040F1F6
:104890009E810021012CDBDA4FF6EE70DDF83CC082
:1048A00000EA0B00DDF82CE014E0002500229EE079
:1048B000002111AC304616467546224600F03CFBFE
:1048C0003146AE46DDF83CC0061B0B9D4806CED4F3
:1048D000084631461FFA80FBC0060AD440F2064063
:1048E0001BEA000F5FEA0F9044185FEA0B7009D5CE
:1048F00026E0002D4FF0010050EA009044185FEAD6
:104900000B701DD45FEACB7008D0B646644505DA5B
:1049100006EB0C00A0EB040E644611E064450FDAD0
:10492000CDF82CE020204946C047002800F1D08176
:104930000F9801340137A042F4D1DDF82CE0044691
:104940005FEACB601BD440F206401BEA000F26D082
:104950005FEA8B7075464FF02B0058BF20205FEA4E
:104960004B51494648BF2D20C047002800F1B08177
:104970000137AE46F3467546B64514DC1CE03020E0
:104980004946F346C047002800F1A28135B32846C6
:104990004946C047002800F19B810237DE46F346B6
:1049A0007546B64508DD30204946C047002800F16D
:1049B0008F81013DB542F6DC0F985E45A0EB040403
:1049C00056EACB800744002E00F06F8110984946CC
:1049D000805DC047013E0028F5D579E10137DE460C
:1049E000F3467546B645DEDCE6E71D46049BC90680
:1049F00052EA508113F1040F08DB834206DA4BF4CC
:104A0000005B8B4204DAD8430E1802E04E1E00E031
:104A10000026A3F57A711FFA8BF4099424055FEA46
:104A20008B400395CDE9011C05940CD411F5FA6F68
:104A300070464FF0050198BF0420002C58BF032199
:104A400001EB000C03E023EAE37000F1010CDDF858
:104A500024B0002E079A4FF000050B96CBF30011FF
:104A600082F0010251EA06900F9983186344CB1A31
:104A700053EAC5841BF0090F11D10A9E84B160442A
:104A800075461044441A20204946C047002800F1CA
:104A90001F8101370134F6D30024AE4600E00A9EA0
:104AA0000798CDF800E00028069805D14946C04790
:104AB000002800F10D810137059800280ED530201F
:104AC0004946C047002800F10381C6F178004946F5
:104AD000C0B2C047002800F1FB80023709980007E8
:104AE0000AD44CB1274430204946C047002800F181
:104AF000EF80013CF7D100240998800427D49DF869
:104B000049004946C047002800F1E2800B9801287F
:104B100057DB2E204946C047002800F1D9800B986A
:104B2000384400F1020B0398C5B20020471CAF4285
:104B300002D20C99085C00E030204946C0470028AA
:104B400000F1C6800B98B8423846EFD148E004988F
:104B500020EAE076851B0B98C0F1000B0398C0B2E9
:104B60000F90701C06D12E204946C047002800F146
:104B7000AF8001373020002D04D40F998D42BCBF87
:104B80000E98405D49465E4506DDC0470135013758
:104B9000013E0028E5D59BE0C047002800F1988041
:104BA0000999781CC90640F19180002E40F08C8054
:104BB0002E204946C047B0F1FF3F40F389800237BD
:104BC00073E00998C00604D407F1010B08E0002146
:104BD0003EE62E204946C047002879D407F1020B53
:104BE00002984946801BC0B2C047002870D4049E7A
:104BF0002B204946002E48BF2D20C047002E48BF1D
:104C00007642002864D4019810F5FA6F15D844F65E
:104C1000D3504946C1F26200A6FB0005302000EBEC
:104C20009510C0B2C047002852D4A8094FF47A7139
:104C300000FB11620BF1030506E008980BF1020579
:104C4000324610F1C80F3BD848F21F504946C5F212
:104C5000EB101746A2FB0006302000EB5610C0B246
:104C6000C047002834D47009642100FB117201355B
:104C70004CF6CD404946CCF6CC401746A2FB000688
:104C8000302000EBD600C0B2C047002820D4F00886
:104C9000013500EB8000A7EB400202F130004946ED
:104CA000C0B2C047002813D46F1C012CFFF66FAAB6
:104CB00020204946C0470137013C0028F5D507E0D0
:104CC00000980228D4D2E8E70746EEE70746ECE76B
:104CD00099F8020040F0040089F802004FF0FF3715
:104CE000384619B0BDE8F08F022AB8BF70472DE9E9
:104CF000F04F42F689084FF0010CC0F2010804465B
:104D00004FF0010E03E05F789C1C252F29D123462C
:104D100013F8015B252D01D025B90AE16778A31CA2
:104D2000252F1DD11C4614F8015B252D01D025B976
:104D3000FFE05F789C1C252F13D1234613F8015BFD
:104D4000252D01D025B9F4E06778A31C252F07D1C4
:104D50001C4614F8015B252DD5D0002DD7D1E8E0F5
:104D60001C464FF0000A4FF00009002604E014F83A
:104D7000017B002F00F0A980B346BAF11F0F0AD8BB
:104D8000A7F12005102D09D80CFA05F515EA080F32
:104D900040F07C8002E0BAF17F0F0AD8A7F130051D
:104DA000092D3ED80BEB8B034AF0200A05EB430696
:104DB000DDE7A7F14C052E2D00F288805E46DFE886
:104DC00015F0670085008500850085008500850059
:104DD00085008500850085008500850085008500AB
:104DE000850085008500850085008500850085009B
:104DF00085008500850085008500770085006700B7
:104E0000850070008500850085008500850085008F
:104E100085002F00850085008500850085002F0016
:104E2000A5E7A7F12405562D00F250800026DFE803
:104E300005F0334D4D4D4D4D324D4D4D324D4D4D97
:104E40004D4D4D4D4D4D4D4D4D4D4D4D4D4D4D4D92
:104E50004D4D4D4D4D4D4D4D4D4D2F4D4D4D4D4DA0
:104E60004D4D4D4D4D4D4D4D4D4D4D4D4D4D4D4D72
:104E70004D4D4D4D4D4D3F4D2F4D384D4D4D4D4DA3
:104E80004D4D2C4D4D4D4D4D2C00FFE75E466EE7D0
:104E90004AF4207AFAE76AE7B9F1000F0FD1D94650
:104EA00065E70AF080034AEA830343F0800AEDE7EE
:104EB0000AF480734AEA430343F4807AE6E7F34551
:104EC0007FF455AF6327F14600E00027B9F1000FEA
:104ED0002FD0F14524D147F02003612B1CBF653B47
:104EE000022B05D80B68073323F00703083313E0C0
:104EF000A7F16303102B0AD8DFE803F00C090909B6
:104F00000909090909090909090909090C005FEAE0
:104F10000A6309D40B6804330EF1010E04460B60DA
:104F20009645FFF6F4AE04E00B685FEA8A54DAD4E3
:104F3000F1E7BDE8F04F70472DE9F04703F01F0699
:104F4000984691468A4605462846514632460023F1
:104F500000F06EFA044600FB16500F46A0EB080165
:104F6000092888BF01F13700303089F80000A81BFC
:104F70007AF1000049D3204639463246002300F03A
:104F800057FA054600FB16408A46A0EB080109289F
:104F900088BF01F13700303089F80100A01B77F19C
:104FA000000036D3284651463246002300F040FA2E
:104FB000044600FB16500F46A0EB0801092888BFE5
:104FC00001F13700303089F80200A81B7AF10000A7
:104FD00023D3204639463246002300F029FA0546FD
:104FE00000FB16408A46A0EB0801092888BF01F1A2
:104FF0003700303089F8030009F10409A01B77F16C
:105000000000A1D24846BDE8F08709F10100BDE8E3
:10501000F08709F10200BDE8F08709F1030948466D
:10502000BDE8F0872DE9F04F85B05AEC103B4FEA10
:10503000DA77CAF30A566FF31F5A077153EA0A0464
:1050400008BF002E0ED040F2FF75AE423CD10421C5
:10505000002C18BF0821394401710021084605B011
:10506000BDE8F08F002700234FF0000A00290760F9
:1050700037D40D2937D3190F00F1050B41EA0A1176
:105080000491190E4FEA1A5441EA0A210391190DAD
:105090004FEA1A4641EA0A310291190C4FEA1A38CE
:1050A00041EA0A410191190B41EA0A5C190A41EAF5
:1050B0000A6E190941EA0A794FEA1A1103F00F033F
:1050C0004FEA1A27009180E04FF60247002ECFF6F4
:1050D000FF771CBFA6F2FF370AF5801A0029076088
:1050E000C7D5002146E03326A6EB8105C5F1200691
:1050F00013274FF0020CA7EB81072CFA06F40126C8
:105100004FF0000E002F58BF0CFA07F458BF06FAF4
:1051100007FE06FA05F60CFA05F558BF002658BF3B
:105120000025D5F100094FF0000868EB040C013DA3
:1051300064F100041D4004EA0A04751B7EEB0404BC
:1051400011D38C00C4F13405D4F1140423FA05F70B
:10515000C5F120050AFA05F545EA070558BF2AFA00
:1051600004F5EC0702D09B194AEB0E0A03EA090387
:105170000AEA0C0A1F0947EA0A791F0F1D0B47EAC2
:105180000A1704971F0E45EA0A5C47EA0A270397A5
:105190001F0D1D0A47EA0A3702971F0C45EA0A6EDF
:1051A00047EA0A4700F1050B13F00F0301974FEA96
:1051B0001A174FEA1A544FEA1A464FEA1A384FEABA
:1051C0001A25009700F0B4802F46991A092B88BF42
:1051D00001F1270303F13001817409F00F030D2160
:1051E0009D1A092B88BF05F127030C2903F1300311
:1051F000437498BF0C210EF00F039D1A092B88BF32
:1052000005F127030B2903F13003037498BF0B2129
:105210000CF00F039D1A092B88BF05F127030A29FB
:1052200003F13003C37398BF0A21019B3D4603F08D
:105230000F039F1A092B88BF07F12703092903F1E0
:105240003003837398BF0921029B03F00F039F1A59
:10525000092B88BF07F12703082903F130034373A3
:1052600098BF0821039B03F00F039F1A092B88BFE7
:1052700007F12703072903F13003037398BF0721C0
:10528000049B03F00F039F1A092B88BF07F1270324
:10529000062903F13003C37298BF06210AF00F03F9
:1052A0009F1A092B88BF07F12703052903F1300353
:1052B000837298BF0521009B03F00F039F1A092BEF
:1052C00088BF07F12703042903F13003437298BF15
:1052D000042105F00F039F1A092B88BF07F127034C
:1052E000032903F13003037298BF032108F00F0371
:1052F0009F1A092B88BF07F12703022903F1300306
:10530000C37106F00F0398BF02219A1A092B88BFB8
:1053100002F1270303F130028271012998BF0121B4
:1053200004F130008BF80000084605B0BDE8F08FAE
:1053300019F00F0348D10C2946D21EF00F0345D1B6
:105340000B2943D21CF00F0342D10A2940D2019B02
:1053500013F00F037FF46DAF0929BFF46AAF029B0E
:1053600013F00F037FF473AF0829BFF470AF039BF2
:1053700013F00F037FF479AF0729BFF476AF049BD6
:1053800013F00F037FF47FAF0629BFF47CAF1AF050
:105390000F037FF485AF0529BFF482AF17F00F0329
:1053A0008CD104298AD215F00F0394D1032992D20B
:1053B00018F00F039CD102299AD206F00F0353EA8A
:1053C0000107A2D10021ABE72F4609E72F4614E7DA
:1053D0002F461FE7844639B370B500EB010C4B1E16
:1053E000A1F1020ECC1E0022855C85B1934219D03A
:1053F00085186E7876B1964514D0AE786EB1944229
:1054000010D0EE7866B104329142EDD10AE000EBA3
:10541000020C07E005F1010C04E005F1020C01E0CB
:1054200005F1030CBDE87040ACEB00007047D4D42C
:1054300040B584B002AE0096FEF705FC029A039BCD
:1054400004B040BDB0B588B000250446CDE90405E0
:1054500044F25110C0F20020CDE9025501904FF402
:10546000003000906846CDE90655FEF779FE002829
:1054700058BF255408B0B0BD2DE9F04FA1B056EC8F
:10548000108BB246C6F30A546FF31F5AF50F58EA51
:105490000A0708BF002C0ED040F2FF76B44215D1A7
:1054A0000821002F08BF042100242944017120464F
:1054B00021B0BDE8F08FA91C017130210124417198
:1054C00000210160204621B0BDE8F08FA4F23549EB
:1054D000002CCDE9062308F001060495CDE908105B
:1054E00006BF4FF6CC39CFF6FF790AF5801A4FEA9E
:1054F0008A0242EA9870002F15905FEA0F90022C02
:105500005FEA2F91B9F1000F40EA01074FEA8800E6
:1055100014900596139749D4484600F021FD05469E
:10552000B9F1030F88BF013D284600F027FD0DF1BA
:10553000580B04462846594600F00BFE1AA81CA931
:105540005A460297CDE90010A5EB090020445146C8
:1055500000F17C034046AB4600F031FC8246152D3D
:105560005FD8149F4CF6CD46159D1EA8CCF6CC46B0
:105570000C4600903846294632464FF0CC3300F0B6
:1055800072FEDDE91E01820842EA817120F003000B
:1055900008444042F8426AD13846294600F0F7FCF8
:1055A00058455FEA3F901290002087E0C9F1000B58
:1055B000584600F0DCFC044619F1010018BF013C1C
:1055C000ABEB040B584600F0D9FC16A9054658462B
:1055D0008B4600F03BFD1AA81CA95A460297CDE95C
:1055E0000010601B00F17D034046514600F0E7FBD0
:1055F00004EB090B8246012C1BD8089B002E069D4C
:105600004CF6CD46CCF6CC4608D0DDE91C0201387C
:105610001C9062F100001D90002013900120129058
:1056200050E04CF6CD460020CDE91200CCF6CC4639
:1056300046E0089B4CF6CD46069DCCF6CC463E2C6B
:1056400025D84FF0FF30B4F1200200FA04F758BF1C
:105650000027149C58BF9040159A24EA070722EAB5
:10566000000038435FEA1F901290002011E0059877
:1056700088B91398C043C01965F1000100F087FC98
:1056800058455FEA3F9013900020129017E00020E9
:105690001290139016E047F00200294600F077FCC4
:1056A000DDE91C124B1E62F10005584553EA2180CA
:1056B0001C9055EA22801D900020129013902146E4
:1056C000089B069D002D0C934AD0BAF10A0071F197
:1056D000000001D2012037E000274FF00A0C022021
:1056E0004FF064094FF47A7842F2107E0A22A2FB4E
:1056F0000C4507EB870305EB4303BAEB040471EB9E
:10570000030320D3A2FB093407FB0944BAEB0303CC
:1057100071EB040314D3A2FB083407FB0844BAEB73
:10572000030371EB04030DD3A2FB0E23043007FB2C
:105730000E37BAEB020371EB0703D8D2013802E04F
:10574000013000E00230089B079A0BEB0207384457
:10575000B0EBD27FB8BFD00F834253EAB0800C9039
:10576000CDF80CB00DF1680B1D9C16AD9BE8000B3D
:1057700000201591149011900B902FE01599504630
:1057800032464FF0CC3316AD4FEADB04009500F003
:105790006AFD1498BB46129910F0FF0FDDE916233D
:1057A0005FEA1F90014008EB880012914042109977
:1057B0004942B1EB400F13995FEA1F9001401391EA
:1057C000D00840EA437101EB8000AAEB400014903E
:1057D00011988A4601301190D808159058462146F4
:1057E00032464FF0CC330095CDF834B00E9400F033
:1057F0003AFD4046494632464FF0CC33DDE9164B80
:105800000095CDE90F9800F02EFDDDE91601E208C4
:1058100042EA4B774FEAD109C00840EA4178B8EB39
:10582000070079EBDB00A9D31599BAF10A0071F1F1
:10583000000001D201203BE00A9700250A22022045
:105840004FF00A0C64274FF47A7EA2FB0C3605EB6E
:10585000850406EB4406BAEB030371EB060322D37F
:10586000A2FB073605FB0766BAEB030371EB0603E1
:1058700016D3A2FB0E3605FB0E66BAEB030371EBE3
:1058800006030FD342F210740430A2FB042305FB7D
:105890000435BAEB020371EB0503D6D2013802E0FE
:1058A000013000E002300A9F4CF6CD46CCF6CC46E3
:1058B0000C9A4AEA010313435FEA1F93904203DD07
:1058C00013B901200B905AE71398C00771D0DDF887
:1058D000408032460F994FF0CC3316AD00954046CC
:1058E00000F0C1FCDDE91610C8F10003DDF848B096
:1058F000CA0842EA407404EB82025242B3EB420F00
:105900005FD1C208DDF84490DDF850C0DDE90D013B
:10591000904632464FF0CC33CDF850C0009500F0A1
:10592000A2FC1599324616984FF0CC33129050468F
:10593000179F009500F097FC4CF6CD4216A80090FA
:1059400020464146CCF6CC424FF0CC33DDE916651B
:10595000CDF83C8000F087FCF10841EA457E1498C0
:105960000EEB8101A046ED0810F0FF0FAAEB410CF1
:105970005FEA1F90DDE916120BEA000B12984CF655
:10598000CD461595CB0843EA4274C00804EB830367
:1059900040EA47705B4209F1010916ADF908C8F108
:1059A0000007CCF6CC46D208F246B7EB430FAFD097
:1059B0000CE00DF1400BD646DDF850C09BE8000B23
:1059C00004E0D646DDF84490DDF850C0159A8EEA22
:1059D00008010F981346424011430B9A5FEA0F915A
:1059E0001143CA07059900295FEA1F91002A04BFE5
:1059F000139A11EA02010ED05FFA8CF105295FEAD1
:105A00000F92042962EA0B025FEA9F9142EA0E02BA
:105A100002EA010C01E04FF0010C039809EB0005CC
:105A20001EEB0C0043F10001B0F10A0271F100021B
:105A300001D2012338E0AE4600264FF00A080223C7
:105A40004FF0640B4FF47A7A42F210790A25A5FBE5
:105A5000087206EB860402EB4402C41B71EB0202DF
:105A60001DD3A5FB0B2406FB0B44821A71EB040229
:105A700012D3A5FB0A2406FB0A44821A71EB040226
:105A80000CD3A5FB0952043306FB0926421B71EB1C
:105A90000602DCD2013B02E0013300E002334CF6A7
:105AA000CD467546CCF6CC460C9A93425FEADC8232
:105AB000012A079A3AD1069F4FB12A441A44012A73
:105AC000D8BF0122089F974257EAB2820C920C9AE3
:105AD00093422BDD05304CF6CD4741F10001CCF669
