:10000000C0040020BD23000035220000B9230000F9
:10001000B9230000B9230000B9230000B923000070
:10002000000000000000000000000000B9230000F4
:10003000B923000000000000B9230000B92300002C
:10004000B918000055190000F9190000DD1A000068
:10005000B918000055190000F9190000DD1A000058
:10006000FFFFFF000000100800000000000000007B
:100070000000000000000800000000000000000078
:100080000000000000001008000000000000000058
:100090000000000000000800000000000000000058
:1000A000000000006800002000000000EC100020AC
:1000B00054110020BC1100200000000000000000CE
:1000C0000000000000000000000000000000000030
:1000D0000000000000000000000000000000000020
:1000E0000000000000000000000000000000000010
:0400F000000000000C
:1000F4000348044B834202D0034B03B118477047B3
:10010400B4000020B400002000000000064B0749A2
:10011400C91A891048BF0131491003D0044B0BB1EF
:1001240001481847704700BFB4000020B400002005
:100134000000000010B5064C237843B9FFF7D8FF40
:10014400044B13B10448AFF300800123237010BDA6
:10015400DC0400200000000084A2000108B5054B67
:100164001BB105490548AFF30080BDE80840FFF71F
:10017400CDBF00BF00000000E004002084A2000105
:100184002DE9F041D0E902850446A8EB0507406853
:1001940097422844154408D80E463A46A5EB08056C
:1001A40002F0B0F92A466068F11902F0ABF9BFF326
:1001B4005F8FE560BDE8F0812DE9F8434FF0000959
:1001C400064688461746D0E902243369151B9C422B
:1001D40003F1FF3125BF03F1FF339B180B1B1B1BDE
:1001E400BD4228BF3D469D4228BF1D46706841461A
:1001F4002A46204402F086F9B2682C44A24208BF81
:100204000024A944A8447F1BBFF35F8FF460002F30
:10021400DBD14846BDE8F883F8B5164CA822002186
:10022400204602F097F94FF4006600230321402092
:10023400114A124F124D21616161A261E761266288
:10024400A3626362E36222666566A0662367E3666F
:100254006367BFF35F8F0B4B9C46A3F11000ACEBBD
:10026400030213F9011D8342A154F8D1BFF35F8F38
:10027400F8BD00BF380D00207026000038050020AE
:10028400F8040020883100002DE9F04FDFF8A89031
:10029400054699F800300F46532B144683B001D01D
:1002A400FFF7BAFF05EB450309EBC303D3F86CB0C2
:1002B4001E6F4FEA45085E451FD8ABEB060B5C4545
:1002C40028BF5C461CB9204603B0BDE8F08FA246A7
:1002D40008EB050309EBC303596E38463144224643
:1002E40002F010F92644BAF1000F04D0A84409EB37
:1002F400C808C8F870605446E5E79A6E596EA2EBD8
:10030400060AA24528BFA246314438465246019304
:1003140002F0F8F8019B56449B6EA4EB0A04B34226
:1003240014BFABEB060B00265C4528BF5C46002CD3
:10033400D9D05744A244CBE7380D002010B50B4662
:10034400EFF311844FF0200181F311881946FFF770
:100354009BFF84F3118810BD38B5214B00EB40049A
:1003640003EBC40EDEF82C40013000EB4000012CFE
:100374008C46154603EBC00015D0022C0FD034BBBD
:10038400DEF82830DEF8242093429CBFDEF82010EB
:100394005B18013B9A1A95421CD9204638BDBDE82A
:1003A4003840FFF709BFDEF82830DEF82440A342C6
:1003B4009CBFDEF820105B18013B1C1B944228BF35
:1003C400144661462246FFF7DBFE204638BD002472
:1003D400204638BD2A466146FFF7D2FE2C46DCE7AC
:1003E400380D0020F8B50B4B04461B780D46532BF3
:1003F400164601D0FFF710FFEFF311874FF02001ED
:1004040081F31188324629462046FFF7A5FF87F37A
:100414001188F8BD380D002010B5064C2378532BF5
:1004240001D0FFF7F9FEE36E206FC01A18BF012058
:1004340010BD00BF380D0020D0E9013210B50446CC
:10044400501C984207D8236899540246E1686368AF
:100454000131C4E902019A4200D010BD216820692B
:10046400FFF7C0FFA368984215BF4FF0FF33002386
:10047400E360A36010BD00BF2DE9F84F91420F4621
:10048400DDE90A94154683461E4668D30B464FF0B1
:100494000108B3FBF5F39D4208F10108F9D9B04511
:1004A40038BFB04614F0010A02D1B9F1000F3DD1B2
:1004B400DBF80C30002B29DB012402E005FB04F4FB
:1004C400013E012EFAD8B7FBF4F39D4205D805FB93
:1004D40004F4B7FBF4F39D42F9D9224E06E0AC4292
:1004E400B4FBF5F30CD31C46B7FBF3F3F1565846B3
:1004F40004FB1377FFF7A0FFDBF80C30002BEEDAD8
:10050400BAF1000F02D0B9F1000F09D1BDE8F88F9C
:1005140020215846FFF790FFDBF80C30002BF5DB69
:10052400C14509F1FF39F3D8BDE8F88FA30711D409
:1005340020240CE021465846FFF77EFFDBF80C3000
:1005440009F1FF39002BE1DBB9F1000FB2D0C1454D
:10055400F0D8ADE7002E0CBF30242024F7E74FF08D
:1005640001089CE78C3100002DE9F04F0023402462
:100574009BB00DF12809CDE9049480460C4617463A
:10058400CDE90633089006E004A8FFF755FF079B62
:10059400002BC0F2AE8014F9011B002900F0A180E9
:1005A4002529F1D10026234613F9011BA1F12302C9
:1005B4000D2A08D8DFE802F08007070707070707B6
:1005C4007C0784070778A1F13002D2B2092A4FF0E0
:1005D400000501D90EE0013305EB850501EB450566
:1005E40093F900101C46A1F13002D2B2092AA5F1F8
:1005F4003005F0D92E2900F080800022924694F92B
:10060400001021F00403682B04F101045CD02529B7
:10061400BAD05839CBB2202BB9D82029B7D801A3E6
:1006240053F821F04D0700009305000093050000E6
:100634009305000093050000930500009305000056
:100644009305000093050000930500009305000046
:1006540069070000F10700009305000093050000FE
:100664009305000093050000930500009305000026
:100674009305000093050000930500009305000016
:1006840093050000D30700009305000093050000C4
:1006940097070000930500007D0700009305000004
:1006A400930500004D0700001C4646F002067AE759
:1006B4001C4646F0040676E71C4646F0080672E738
:1006C4001C4646F001066EE714F9011B21F00403F1
:1006D400682B9CD114F9011B21F00403682B96D1DB
:1006E400F2E7079B002B04DD069C002C40F0B2804F
:1006F400234418461BB0BDE8F08F94F901102A2951
:1007040009D13B684FF0010A1A1D3A6094F90210AE
:100714001A68023475E7A1F13003DBB2092B4FF0FC
:10072400000204F1010400F2E18002EB820201EB19
:10073400420214F9011F303AA1F13003DBB2092B54
:10074400F3D94FF0010A5CE71346102238680168B8
:100754000430CDE9005638600DEB0200FFF78CFE43
:10076400079B15E73B6804A81A1D93F900103A602B
:10077400FFF762FE079B0BE73868134601680430F5
:10078400CDE900560A22386004A8FFF775FE079BDE
:10079400FEE63B68191D39601D68002D00F08D8050
:1007A4000132AE1815F9011B00293FF4F0AEBAF17D
:1007B400000F02D0B5423FF4EAAE04A8FFF73CFEB6
:1007C400079B002BEEDA18461BB0BDE8F08F082318
:1007D400102200253868016804303860CDE90035FE
:1007E4000DEB0200FFF748FE079BD1E63B684FF094
:1007F400010AD3F800B004333B608BEAEB73A3EB3C
:10080400EB73092B09DD4A481946A0FB03C363298E
:100814000AF1010A4FEAD303F6DC924538BF924647
:100824000DBB079900250B460029FFF662AFBBF10B
:10083400000F46DB730752D406F00303022B57D094
:10084400134659460A22CDE9005604A8FFF714FEC0
:10085400079B9DE62246494640460393FFF7C2FDA7
:10086400039B234445E7BBF1000F06F002031BDBA7
:10087400710719D4002B53D09AB1F3070FD510E0A8
:10088400202104A80392FFF7D7FD0799039A0029B2
:100894000B4605F1FF35FFF62CAF002DC4D0AA4559
:1008A400EED307990B46BFE7013D0BB1002AF8D000
:1008B400F107F6D4002DF2D1B3E74FF0000A1D4D35
:1008C4006EE72D2104A80392FFF7B6FD039ACBF13E
:1008D400000B079900290B46FFF60BAFACE72B2161
:1008E40004A80392FFF7A8FD039AF2E7924688E66C
:1008F400002AA5D1002DA3D0554517D9302104A82D
:100904000392FFF799FD0799013D00290B46FFF675
:10091400F0AE039A002DEFD10029FFF6EAAE8FE77F
:10092400F007BCD5079B002B8ADAE2E60B46F3E717
:10093400CDCCCCCC7C2600000EB400B582B003AB89
:1009440053F8041B01AA0193FFF70EFE02B05DF8F1
:1009540004EB03B0704700BF30B5002495B04022CB
:10096400214604A8039401F0F5FD03A801F00AFC54
:1009740055492046FFF7E0FF54492046FFF7DCFFC6
:10098400534A54492046FFF7D7FF9DF80D209DF8A0
:100994000E305149009220469DF80F20FFF7CCFFFE
:1009A40049492046FFF7C8FF4C492046FFF7C4FFDA
:1009B4004B492046FFF7C0FF00F0BEF800284DD099
:1009C400054648492046FFF7B7FF2A4620464649D0
:1009D400FFF7B2FF00BE45490020FFF7ADFF4449D1
:1009E4000020FFF7A9FF43490020FFF7A5FF0020DF
:1009F4004149FFF7A1FF0024032C29D0FFF70CFD88
:100A04000028FBD0402204A90020FFF797FC04A88B
:100A140001F085FDC4B2022C24D0032C09D0012C92
:100A240031D100F0DFF80546002849D000203349D1
:100A34001EE000F037FB044600283DD0304900207A
:100A4400FFF77AFF224628490020FFF775FF00BE12
:100A54002C490020FFF770FF15B030BD2A49FFF77D
:100A64006BFFB8E700F0EAF90546E8B10020274932
:100A7400FFF762FF00F058FB2A461B490020FFF7EE
:100A84005BFF00BE13E019490020FFF755FF18492A
:100A94000020FFF751FF17490020FFF74DFF1649CB
:100AA4000020FFF749FFA7E71949FFF745FF194958
:100AB4000020FFF741FF9FE71749FFF73DFFC7E716
:100AC4001649FFF739FFF2E784260000CC26000020
:100AD40014270000182700005C270000A827000046
:100AE40028280000402900005C2900009C290000FF
:100AF400C4290000E8290000042A0000182A000084
:100B0400C42A0000082B00007C290000742A00007D
:100B1400982A00002C2B0000E42A0000442A00003C
:100B2400022800D070470249024801F09FB800BF74
:100B3400B4320000E40F002010B51F491F4800F034
:100B44001FFDE8B91E491F4800F01AFD044608B904
:100B5400204610BD00201C4B1C4A1D49FFF7ECFE2B
:100B6400184800F065FBF8B9144800F061FB002850
:100B7400EED0184B154A16490020FFF7DDFEE7E7D3
:100B84000446154B0020114A1149FFF7D5FE0B48C6
:100B940000F04EFB0028DBD0104B0C4A0C4900201F
:100BA400FFF7CAFE204610BD0D4B084A0849002035
:100BB400FFF7C2FED8E700BFEC310000EC0F0020C5
:100BC400503200002C100020E02B0000E031000027
:100BD400902B0000402C0000602B0000AC2B000088
:100BE400102C00002DE9F047202200217B4801F061
:100BF400B1FC202200217A4801F0ACFC2022002123
:100C0400784801F0A7FC00207749FFF795FE734C64
:100C1400764DFFF701FC0028FBD0802200202146FE
:100C2400FFF78CFB18B92946FFF786FEF1E7431E50
:100C34009E0813F0030379D001361F233246694915
:100C44006B4800F065FC8046002872D11F233246B1
:100C54006249684800F078FC8046002840F098809B
:100C6400654C664D664F0BE02368013B23602368A7
:100C7400002B7AD02B78022B64D03B78022B61D0E6
:100C84002B78012BF0D13B78012BEDD14FF00009EB
:100C94006FF07F435B494846236085F8009087F8EE
:100CA4000090FFF749FE1F2332464E49504800F09A
:100CB4004BFC8046002874D11F23324648494D48D6
:100CC40000F026FC804660B172E02368013B23609B
:100CD4002368002B49D02B78022B33D03B78022B8E
:100CE40030D02B78012BF0D13B78012B5FFA83FABB
:100CF400EBD14FF000096FF07F434349484623602E
:100D040085F8009087F80090FFF716FE32463449C4
:100D1400324801F00FFC002851D1314A3B49FFF71A
:100D24000BFE50463A4901F03DFA08E044F82630FB
:100D340083E70020374B384A3849FFF7FDFD40462A
:100D4400BDE8F0874FF49678354B334A3349002099
:100D5400FFF7F2FD33490020FFF7EEFD3249002092
:100D6400FFF7EAFD4046BDE8F0874FF014082C4B2E
:100D7400294A2A490020FFF7DFFD2A490020FFF70E
:100D8400DBFD29490020FFF7D7FD4046BDE8F08789
:100D9400264B214A21490020FFF7CEFD4046BDE8FD
:100DA400F0874846224B1C4A1C49FFF7C5FDC6E79D
:100DB4004846204B184A1949FFF7BEFDBFE71E49B4
:100DC4004846FFF7B9FD17494846FFF7B5FD4846C1
:100DD4001549FFF7B1FD40F22F18B0E7600F00206E
:100DE400E00E0020E00D0020702C0000C02C00005C
:100DF4002C100020EC0F002020000020E10F002028
:100E0400E00F0020802D0000F42D0000242E0000AF
:100E140040420F00D02C0000CC310000902B000089
:100E24000C2D00003C2D0000682D0000EC2C00006F
:100E3400B42D0000D42D0000502E00002DE9F04107
:100E4400202282B000217D4801F084FB2022002171
:100E54007B4801F07FFB202200217A4801F07AFBD5
:100E640020220021784801F075FB00207749FFF724
:100E740063FD724D764CFFF7CFFA0028FBD0802239
:100E840000202946FFF75AFA18B92146FFF754FD06
:100E9400F1E7431E9C0813F0030371D001340020D2
:100EA4006C49FFF749FD674D694EFFF7B5FA002815
:100EB400FBD0802200202946FFF740FA18B93146BA
:100EC400FFF73AFDF1E7431E13F0030202D19B083A
:100ED40045F823201F2523465B4A5A495E4800955E
:100EE40000F0FEFA064600284DD12346544A5349E1
:100EF4005A48009500F0F4FA0646002874D1584A7E
:100F0400584959480BE01368013B13601568002DDC
:100F140057D00B78022B40D00378022B3DD00B78AE
:100F2400012BF0D10378012BDDB2ECD100276FF057
:100F34007F4313600F704D4907703846FFF7FCFC80
:100F44004B493846FFF7F8FC22463D493D4801F03D
:100F5400F1FA8046002851D1394A4649FFF7ECFCA2
:100F640022463949354801F0E5FA002857D1364A76
:100F74004149FFF7E1FC2846404901F013F908E034
:100F840045F824308BE700203D4B3E4A3E49FFF7AD
:100F9400D3FC304602B0BDE8F0814FF496763B4B6B
:100FA400384A39490020FFF7C7FC39490020FFF7C8
:100FB400C3FC38490020FFF7BFFC304602B0BDE84F
:100FC400F0811426314B2F4A28462F49FFF7B4FCF1
:100FD40028462F49FFF7B0FC28462E49FFF7ACFC02
:100FE400304602B0BDE8F0812B4B264A264900204A
:100FF400FFF7A2FC304602B0BDE8F081274B214A3E
:1010040021493846FFF798FC21493846FFF794FCFC
:1010140038462049FFF790FC40F22F16B9E7204BE1
:10102400184A40461849FFF787FC40461849FFF71D
:1010340083FC40461749FFF77FFCEDE7600F002073
:10104400E00E0020600E0020E00D0020882E00003D
:10105400C02C0000D82E00002C100020EC0F002023
:1010640020000020E10F0020E00F0020A02F00004E
:10107400D02F0000003000007030000040420F000C
:10108400282F0000BC310000902B0000702F0000BE
:101094003C2D0000682D00004C2F0000283000007B
:1010A4009830000010B50E4800F0C2F870B90D4831
:1010B40000F0BEF8044608B9204610BD0A4B0B4A9E
:1010C4000B490020FFF738FC204610BD0446094BAD
:1010D400064A07490020FFF72FFC204610BD00BF39
:1010E400EC0F00202C10002000310000AC31000077
:1010F400902B0000E03000000379012B03D0022282
:10110400024B1A707047014A13707047E10F0020B8
:101114000379012B03D00222024B1A707047014A53
:1011240013707047E00F002010B50E4800F080F8EF
:1011340020B90C4800F07CF858B910BD00200A4BC7
:101144000A4A0B49FFF7F8FB064800F071F800283B
:10115400F3D0BDE810400020064B044A0449FFF7D1
:10116400EBBB00BFEC0F0020203100009C310000DD
:10117400902B00004C31000008B5FFF7EDFB002078
:1011840008BD00BF42684369517A126A19B912B1A5
:10119400527B012A1DD0C1698B420FD08268C1687D
:1011A400A9B190F820C0BCF10F0F08D951F8231051
:1011B40011604FF000510133916643617047BCF1F7
:1011C400070F03D931F813101160F2E7C95C1160FD
:1011D400EFE78268116D8900F0D5C16901F1FF3C28
:1011E4009C45D9D1516921F080015161D7E700BFF5
:1011F40030B5836A85B004468C4601ADABB193E843
:10120400070085E8070062681846117883F804C06F
:10121400E26A19609A60636A9847A36A1BB195E809
:10122400070083E8070005B030BD2B46EBE700BF9D
:10123400002878D03D4B026810B59A4204466BD121
:10124400002143685A69016022B1936810681B6ADF
:10125400984763681A6922B1936810681B6A9847B3
:101264006368A1688A6822F44C128A6093F90220A8
:10127400002A0EDB01212E48530902F01F022033FD
:1012840001FA02F240F82320BFF34F8FBFF36F8FB0
:10129400636893F90120002A0EDB012124485309D5
:1012A40002F01F02203301FA02F240F82320BFF3B8
:1012B4004F8FBFF36F8F6368012293F903301C488B
:1012C400590903F01F03203102FA03F340F82130D7
:1012D400BFF34F8FBFF36F8F636893F904305909DD
:1012E40003F01F0302FA03F3203140F82130BFF367
:1012F4004F8FBFF36F8FA3680E48996821F00101E7
:10130400996061689866DA664A7A1AB90A6A527B01
:10131400012A03D0002010BD072010BD5A6C22F40E
:1013240040725A64F6E70120704700BF4950535297
:1013340000E100E0000080FD2DE9F0430446406830
:101344001E46436985B0884617469DF830906BB1B8
:101354009A6818686946D36998470546002840F09A
:101364008980029BB342C0F089806068036953B1ED
:101374009A6818686946D36998470546002879D160
:10138400029B9E427AD8A3681D6E002D40F0838094
:10139400B9F10F0FC4E90387C4E90555E66184F880
:1013A400209070D8B9F1070F94BF4FF000094FF0A7
:1013B400010962685069C0B102224368A6611968D4
:1013C400B3B2CB81CB788F6069F30513CB708B7884
:1013D40062F383038B70002F5FD0836800685B68BF
:1013E4009847002852D1D4E901231069D2F820E0AB
:1013F40092F809C038B3426866611168B7B2CA7816
:1014040069F30512CA70BCF1000F06D1BEF1000FDA
:1014140003D09EF80D20012A4DD0CF810226CA7830
:10142400C1F8048066F38302CA70B8F1000F3BD0A0
:101434009A6822F480129A60836800685B6898470F
:1014440020BBD4E90123596994F8200021F4F81150
:1014540041EA0041507A126A18B912B1527B012A4A
:1014640032D001225961DA669A6842F4801242F05D
:1014740001029A60284605B0BDE8F083012528469C
:1014840005B0BDE8F0834FF0020992E7054628460F
:1014940005B0BDE8F0830825ECE7DBB267F383030E
:1014A4008B700D4B8B6098E7D2B268F38302CA70DD
:1014B4000A4A4A60BCE7E269012AAED07A1E013EBC
:1014C40092B26661CA81A9E7E269012A14BF41F0B8
:1014D400800121F08001C4E7701000206C1000200E
:1014E400F0B49DF8107051B14AB140B10568074C91
:1014F400A54207D11BB10497F0BCFFF71DBF012023
:10150400F0BC70470720F0BC704700BF49505352ED
:10151400B0B130B51C4605680A4B83B09D420CD16E
:1015240041B13AB1134600940A460021FFF704FF83
:1015340003B030BD012003B030BD072003B030BD7F
:101544000120704749505352A8B170B51D46066832
:101554000A4B82B09E420BD139B132B11346009589
:101564000022FFF7E9FE02B070BD012002B070BD99
:10157400072002B070BD0120704700BF495053528C
:101584002DE9F843002852D0AC4B026806469A4233
:1015940000F047810C46002949D08B69002B46D0C6
:1015A4000A6A002A43D00B78012B00F2358191F9A5
:1015B400031000293BDB94F90410002937DB517B2D
:1015C400012903D11278012A00F06D8103F580030B
:1015D400D4F8108003F58D531F02B8F1000F0ED01C
:1015E4004FF00062D8F80410D8F800000B681A60B5
:1015F4009F60D8F808301B6898470546C0B96369EE
:10160400CBB1D3E901124FF4002518680B681268B6
:101614001D605F609047054668B1B8F1000F07D0C0
:10162400D8F80830D8F800001B6A984700E0012574
:101634002846BDE8F8830021D4E906237460726269
:10164400F362236AB16221787D4A01F5800101F5D4
:101654008D510D02B560677A607B002F18BF4FF47F
:101664004412E17A000340EA4100A17A0843D9799F
:1016740042EAC1721978002900F0D78042F08072E2
:10168400597809B942F400329C7842EA0172D97857
:1016940093F808C08C4044EA0C2493F804C009066B
:1016A400BCF1000F06D0BCF1020F0CBF4FF4401C7C
:1016B4004FF4001C93F805E0BEF1000F06D0BEF114
:1016C400010F14BF42F4807242F4407293F809E0AF
:1016D4000EF0030E41EA8E01014393F806E0002F59
:1016E40040F0A980587B012805D1686C42F400526F
:1016F40040F4407068641D7BD87A2D049B7A45EAD7
:10170400002541F460411D43EFF31088012080F36C
:10171400108873684B4F1B78D7F80490C3F11303F8
:1017240000FA03F329EA03037B607B6888F31088DB
:10173400454FB3689F661C615D60C3F80CC0596176
:1017440022F08041C3F840E0996071689C689A6017
:1017540091F90230002B7FDA3C4A91F90130002BD9
:1017640026DB497903F160400901C9B200F5614003
:1017740080F80013364903F1C00042F8236051F8A1
:10178400204024F4803441F8204051F82010BFF365
:101794005F8F01205909890003F01F0301F16041A3
:1017A40001F5614100FA03F3C1F880310B607168FF
:1017B400087A91F90430274C0101E5182448C9B28C
:1017C40085F8001303F1C00142F8236050F821505A
:1017D40025F4803540F8215050F82110BFF35F8F75
:1017E400012103F01F005B099B0003F1604303F533
:1017F40061438140C3F8801119607368002593F92F
:101804000310DB790C441B01DBB284F800330B4B6F
:1018140042F8216033600BE740F27A552846BDE870
:10182400F8830E252846BDE8F883B7FA87F14909FD
:1018340040EAC11024E7002566E700BF495053522F
:101844000010314000400840000080FDBC10002022
:101854000060004000E100E08A7903F16041120178
:10186400D2B201F5614181F80023104A104903F115
:10187400C00442F8236051F8245025F4803541F81F
:10188400245051F82410BFF35F8F03F01F015B094C
:101894009B0003F16043884003F56143C3F8800172
:1018A4001860716859E70625C2E600BFBC10002025
:1018B4000060004030B4EFF30383103B214A5BB275
:1018C40003F1C00152F8210020F4803042F82100D5
:1018D40052F821201C4A52F82330D3E906218A42C7
:1018E4001BD01C6998682CB393F820C0BCF10F0F6F
:1018F4000CD9016844F82210D9694FF00044013230
:101904008A4284669A6108D030BC7047BCF1070FE4
:1019140012D9056824F81250EFE75B6893F9033095
:10192400012203F01F0009495B09824041F823208A
:1019340030BC70470468E0E70168A154D96998682D
:10194400DBE700BF00600040BC10002000E100E0C5
:10195400EFF30383103B244A5BB203F1C00152F856
:10196400210020F4803042F8210052F821101F4950
:1019740051F8230041680B6A5B78012B01D0FFF713
:1019840001BC10B4C46904F1FF3C446964450FD040
:101994000A694AB191F90320154902F01F0C03FAB0
:1019A4000CF3520941F822305DF8044BFFF7EABB0F
:1019B40091F9031001F1C00C52F82C4024F4803446
:1019C40042F82C4052F82C20BFF35F8F4A09920052
:1019D40001F01F0102F1604203FA01F102F56142D4
:1019E400C2F880111160DFE700600040BC100020E5
:1019F40000E100E030B4EFF30382103A334953B20C
:101A040003F1C00051F8204002F0FF0224F48034B6
:101A140041F8204051F820102D4951F823008168E5
:101A2400096D890105D54168497A012901D030BC85
:101A340070470121274C5B0902F01F02203301FA91
:101A440002F244F82320BFF34F8FBFF36F8F436834
:101A540093F90230002B08DA82680121936823F09D
:101A64000103936030BCFFF7C3BB5A0903F01F03A3
:101A740001FA03F3203244F82230BFF34F8FBFF34F
:101A84006F8F8468114BA26822F00102A260426841
:101A940092F9022002F1C00453F8245025F4803551
:101AA40043F8245053F82430BFF35F8F53099B004D
:101AB40002F01F0203F16043914003F56143C3F850
:101AC40080111960012130BCFFF792BB0060004017
:101AD400BC10002000E100E070B5EFF30383354A49
:101AE400103B5CB252F82460736893F90230002B07
:101AF4001CDAB3689A6822F001029A601D6D2E4ABE
:101B04009A662A0151D4EB0141D405F0A055B5F1F0
:101B1400A05F45D0294A04F1C00352F8231021F4F0
:101B2400803142F8231052F8233070BD012224483A
:101B3400590903F01F03203102FA03F340F821305E
:101B4400BFF34F8FBFF36F8FB1688B6823F001032E
:101B54008B607368194993F9023003F1C00051F89E
:101B6400205025F4803541F8205051F82010BFF35F
:101B74005F8F03F01F015B099B0003F160438A4000
:101B840003F56143C3F880211A60B368B6E7042102
:101B9400304605F0A055FFF72BFBB5F1A05FB9D196
:101BA40008213046FFF724FBB4E705213046FFF750
:101BB4001FFBA8E7BC100020000080FD006000406F
:101BC40000E100E0F0B5EFF31082012383F3108805
:101BD400234F3B681BB923490B7340230B733B68AA
:101BE40001333B6082F3108803882BB341681E4C99
:101BF40001EBC30E06E01B01083113448E4544F883
:101C0400230019D008688A88C5034FEA1223D2B288
:101C1400F1D502EB031C54F82C601B01083120F4AD
:101C2400803526F4803613448E4544F82C6044F8FD
:101C34002C5044F82300E5D1EFF31082012383F301
:101C440010883B6813B13B68013B3B603B681BB9A0
:101C5400802004490B73087382F31088F0BD00BF21
:101C6400B810002000FD014000F8014098B191B186
:101C74004A6808B503464AB1094A186890420CD02C
:101C840008461A60FFF79EFF002008BD0A88002A54
:101C9400F2D0012008BD012070470E2008BD00BF0E
:101CA40054524F50062070470620704788B10A4BA3
:101CB40002689A420BD190F904300849C03351F8B4
:101CC4002320002022F0807241F82320704707204F
:101CD40070470120704700BF004354440060004037
:101CE4000620704706207047C37803F00C02042ACC
:101CF40011D0827802F00C0104290CD03F2B04D9B6
:101D0400C3899BB2B3F5807F07D83F2A00F1100046
:101D1400EAD800207047062070470120704700BFB2
:101D2400F0B1194B02689A421CD1C9B1002390F951
:101D34000400164A52F82020C1E90033D3783F2B1F
:101D440012D910B44FF48074D08903F0C003C0B228
:101D5400802BC1E902400FD000205DF8044B70478E
:101D640001207047072070474FF48030D3899BB21D
:101D7400C1E90203002070474FF4803093899BB27D
:101D8400C1E90003E8E700BF004354440000002019
:101D9400D8B10F4A01680346914214D110B490F9A6
:101DA40004100C4801F1C00C50F82C200A4C22F00D
:101DB400807240F82C20002244F8212010465DF85F
:101DC400044B1A607047072070470120704700BF1A
:101DD4000043544400600040000000201A4B30B51A
:101DE40053F820304FF0FF34054616E093F802C054
:101DF4000CF00C02042A19D05A68CAB19A68BAB114
:101E04009A686FEA010E8A4312D15868103310EAB7
:101E14000E000DD1BCF13F0F0CD9DA78C2F30111D9
:101E240002F00C02042A04FA01F1DFD1062030BDCD
:101E3400012030BD054AC03552F8253043F0807387
:101E440042F8253030BD00BF000000200060004093
:101E540030B583B00191009200283CD01F4A01683C
:101E6400914233D190F904101D4C1E4A01F1C00C6B
:101E740052F8215054F82C2041F4004122F0807291
:101E840044F82C20A4F54064E28992B29142FBD03C
:101E940008222274019A0AB1019A6A60009A0AB16E
:101EA400009AAA60EA7802F0C001802911D03F2A82
:101EB40098BFEB8118220C4B1A7490F90400FFF7B9
:101EC4008DFF002818BF132003B030BD072003B0D6
:101ED40030BDAB81EEE7012003B030BD0043544474
:101EE40000600040000000200054004048B1064B50
:101EF40002689A4201D00720704790F90400FFF766
:101F04006DBF0120704700BF00435444002847D0F0
:101F140038B50268244B04469A423FD10D46002945
:101F24003AD00846FFF7E0FE002835D1EB7803F0FD
:101F34003003302B36D094F904C01C4B0CF1C00292
:101F440053F8221060F3186143F8221018494CF436
:101F54000042CB899BB29A42FBD02B46DA781946D1
:101F64003F2A05D9DA89D2B202EB022292B2DA818F
:101F74008A7810333F2AF1D8082118220C4B19749F
:101F84000C4941F82C501A7494F90400FFF726FF09
:101F9400002818BF132038BD012038BD072038BDE4
:101FA40001207047062038BD0043544400600040BF
:101FB4000054004000000020002838D0F8B5026822
:101FC4002B4B04469A424ED00D4671B34B6863B313
:101FD400284A117869B393F90060002E45DB264F37
:101FE40057F82630002B3CD126712D68CDB12846F8
:101FF400FFF77AFEC0B92B46DA7819463F2A05D98D
:10200400DA89D2B202EB022292B2DA818A781033F0
:102014003F2AF1D80822194B1A74182247F826507F
:102024001A740020124B2360F8BD0120F8BD012072
:10203400704701261670EFF3108086F31088104B5A
:102044001A6822F480021A601B6880F310880A4B15
:102054002022184600F07EFA084A6B685061167315
:10206400B9E70820F8BD0E20F8BD0B20F8BD00BF6D
:102074000043544474100020000000200054004029
:1020840000400840064B074993F826001A6A51F8A5
:102094002030C2F302620449D3400B60704700BF92
:1020A40000E00140C0040020E81000204AF2035080
:1020B40001232B492B4A70B4A1F8FE03A2F8043182
:1020C400B2F804319BB2002BFAD101214FF4004540
:1020D4002548264C03618560A2F80011A1602160A7
:1020E40009212024224E05F1987505F52D45C0E9F6
:1020F40000561B4A92F82650156A82F8134482F857
:10210400A21082F832301B491B4BC160436192F824
:102114003C301907FBD54FF43C5400231049148577
:1021240082F82A3091F83C309B06FBD505234FF00A
:10213400010C4FF425440B4E104A86F81CC10A6268
:1021440081F8263091F826300A6A50F823300C4D75
:10215400C2F30262D3402B60A1F8FE4370BC704707
:1021640000E0014000C00140C004002000700040B5
:1021740000127A0080969800001C4E0E2112022054
:10218400E8100020034618B1024A00201A60704784
:102194000120704700000406A0F101000028FBD1D3
:1021A400704700BF1F4B204A1B6800FB01F193429C
:1021B40013D302F1854202F5071203F5741302F6F4
:1021C400834203F6FF03A2FB03231B0DA3FB013190
:1021D4004FF0FF30F9B1FFF7DFBF4FF47A7210B45C
:1021E400A1FB02C41148B0FBF3F34FF0FF3044B934
:1021F400BCFBF3FC4FEA9C0088B15DF8044BFFF78D
:10220400CBBF9B00B1FBF3F1A1FB0212002AF4D176
:10221400084620B1F1E71846002BDCD170475DF881
:10222400044B7047E810002000127A0000CA9A3B61
:1022340070B500240B4B0C4EB3F82021B3F8405179
:10224400ADB2154025FA04F3DB0704D556F8243063
:10225400E0B203B198470134102CF3D1014BA3F839
:10226400305170BD006000407810002030B503206C
:1022740085B000F075F800256FF0FF004FF0FF32D5
:102284001B4B1C4C986421462B464FF0010ECDE9A4
:102294000122039231F8020F0EFA03FC013310B14C
:1022A400012522EA0C02082BF4D1F5B10192124B5C
:1022B4000F4903200A67C3F88022029A4A67C3F8C9
:1022C4008422039A8A67C3F8882200F019F800234D
:1022D4000A4834F8022F03F1C00101330AB140F86F
:1022E4002120082BF5D105B030BD4FF0FF32DEE7D9
:1022F400008000408E33000000E100E000600040F8
:10230400EFF31081012383F31088124B33F810206C
:1023140092B22AB133F81020013A92B223F8102075
:1023240033F810309BB293B90B4A10B4B2F8FE33B1
:102334000A4C9BB234F8100043F4254323EA00030B
:10234400A2F8FE3381F310885DF8044B704781F3E3
:1023540010887047DC10002000E0014024340000A5
:1023640030B4EFF31081012383F310880E4A32F85E
:1023740010309BB26BB90D4C0D4DB4F8FE3335F8EB
:1023840010C09BB243EA0C0343F425439BB2A4F868
:10239400FE3332F8103001339BB222F8103081F34F
:1023A400108830BC704700BFDC10002000E0014002
:1023B4002434000000BE704708B500F035F8FEF77D
:1023C400DBFEFEE7F8B5174F05463E68A6B17C680C
:1023D40006EB460604EB860602E00C34B4420BD04E
:1023E400637AAB42F9D1D4E900020021121A0C3409
:1023F40000F0B0F8B442F3D1BE6896B1FC6804EBC7
:10240400061602E01034A6420BD0637BAB42F9D12E
:10241400D4E90002A168121A103400F073F8A6423D
:10242400F3D1F8BDCC3300004FF470012C4B2D4A8E
:1024340070B5C3F888109A60EFF31081012484F317
:102444001088294B9A6822F480129A609B6881F361
:1024540010880020FEF764FBFFF728FE2046FEF7F5
:102464005FFB224B83F30A880020FFF7ABFFFFF7E3
:1024740009FE0320FFF774FF00234FF6FF701C4989
:1024840003F10C0201330F2B21F82200F8D10024B0
:102494000320FFF735FF0320FFF762FF154B0320EE
:1024A4005C609C60DC601C61FFF72AFF0220FEF781
:1024B40037FB0120FFF786FF0F4D104B5B1BA34238
:1024C4004FEAA30605DD55F8043B01349847A642BC
:1024D400F9DCFFF7CBFEBDE87040002000F010B837
:1024E40000ED00E00000000000400840C0000020B3
:1024F40000FD014000000E40883500008C350000CE
:10250400704700BF0A44431E914200D1704710B582
:1025140011F8014B914203F8014FF9D110BD0A2281
:10252400002100F099B80000014B1868704700BF03
:10253400640000200139024410B5904201D100200A
:1025440005E0037811F8014FA34201D0181B10BD18
:102554000130F2E702440346934200D1704703F886
:10256400011BF9E7242B2DE9F0478646904601D854
:10257400012B06D1FFF7D8FF162303600020BDE826
:10258400F0870D4633482A4615F8014B065D16F0D0
:102594000806F8D12D2C10D12C780126951C33F087
:1025A400100215D1302C0DD12A7802F0DF02582AFE
:1025B40008D16C78023510230AE02B2C04BF2C7848
:1025C400951CECE7002BF6D1302C14BF0A2308230A
:1025D40006F1004C00220CF1FF3C1046BCFBF3F961
:1025E40003FB19CAA4F13007092F0FD83C46A342B4
:1025F4001BDD571C07D0814514D301D1A24511DB43
:1026040000FB0340012215F8014BEBE7A4F141075D
:10261400192F01D8373CEAE7A4F16107192F04D830
:10262400573CE4E74FF0FF32EDE7531C08D1222377
:102634006046CEF80030B8F1000FA0D0691E06E065
:1026440006B14042B8F1000F99D0002AF6D1C8F87B
:10265400001094E72F34000013460A46014602484E
:102664000068FFF77FBF00BF640000205465726DEF
:10267400696E616C00000000284E554C4C29000026
:102684000D0A2A2A2A2A2A2A2A2A2A2A2A2A2A2AE3
:102694002A2A2A2A2A2A2A2A2A2A2A2A2A2A2A2A96
:1026A4002A2A2A2A2A2A2A2A2A2A2A2A2A2A2A2A86
:1026B4002A2A2A2A2A2A2A2A2A2A2A2A2A2A2A2A76
:1026C4002A2A2A2A000000000D0A2A202020526506
:1026D4006E6573617320465350204578616D706C4C
:1026E400652050726F6A65637420666F7220725F32
:1026F400737069204D6F64756C6520202020202044
:1027040020202020202020202020202A000000003B
:10271400312E30000D0A2A2020204578616D706C1E
:10272400652050726F6A6563742056657273696FB1
:102734006E202573202020202020202020202020EF
:102744002020202020202020202020202020202085
:1027540020202020202000002A0D0A2A20202046A4
:102764006C657820536F667477617265205061637D
:102774006B2056657273696F6E202025642E256464
:102784002E256420202020202020202020202020EE
:102794002020202020202020202020202020202A2B
:1027A400000000000D0A526566657220746F207285
:1027B4006561646D652E7478742066696C65206645
:1027C4006F72206D6F72652064657461696C73202B
:1027D4006F6E204578616D706C652050726F6A650C
:1027E400637420616E640D0A4653502055736572FC
:1027F4002773204D616E75616C20666F72206D6F5A
:10280400726520696E666F726D6174696F6E2061A6
:10281400626F757420725F73706920647269766583
:10282400720D0A000D0A5468652070726F6A656340
:102834007420696E697469616C697A657320535098
:10284400492064726976657220616E6420636F6EDC
:102854006669677572657320535049206368616EB9
:102864006E656C7320696E204D61737465722061AE
:102874006E6420536C617665206D6F64652E0D0A5D
:10288400416674657220696E697469616C697A6104
:1028940074696F6E2C206D617374657220616E644F
:1028A40020736C6176652063616E207472616E734F
:1028B4006D697420616E6420726563656976652054
:1028C40064617461206261736564206F6E20746852
:1028D4006520636F6D6D616E64732066726F6D2029
:1028E400757365722E0D0A526566657220746F20C9
:1028F400746865204D43552055736572204D616E93
:1029040075616C20666F722076616C6964206269FF
:102914007420726174657320616E6420636F7272D7
:102924006573706F6E64696E6720636C6F636B2090
:1029340073657474696E67732E0D0A000D0A202A7C
:102944002A2053504920494E4954204641494C4578
:1029540044202A2A200D0A000D0A52657475726EED
:102964006564204572726F7220436F64653A20304B
:1029740078257820200D0A000D0A202A2A20535099
:102984004920494E495420535543434553534655D2
:102994004C202A2A200D0A000D0A53656C656374C5
:1029A4002066726F6D207468652062656C6F772095
:1029B4004D656E75206F7074696F6E730D0A00003B
:1029C4000D0A5072657373203120666F722057723E
:1029D400697465282920616E642052656164282920
:1029E400000000000D0A5072657373203220666F78
:1029F4007220577269746552656164282900000069
:102A04000D0A5072657373203320746F2045786902
:102A1400740D0A002A2A205350492057524954451C
:102A240020414E4420524541442044656D6F206648
:102A340061696C6564202A2A20200D0A00000000C8
:102A44000D0A2A2A205350492057524954452041FF
:102A54004E4420524541442044656D6F20537563B4
:102A64006365737366756C2A2A20200D0A000000C2
:102A74000D0A2A2A205350492057524954452044CC
:102A8400656D6F206661696C6564202A2A20200DBB
:102A94000A0000002A2A205350492057524954451D
:102AA40020414E4420524541442044656D6F2053DB
:102AB40075636365737366756C2A2A20200D0A009A
:102AC4002A2A2053504920455849542044656D6FA3
:102AD400206661696C6564202A2A200D0A000000C2
:102AE4002A2A2053504920455849542044656D6F83
:102AF400207375636365737366756C202A2A200DD1
:102B04000A0000001B5B313B33366D0D0A457869C2
:102B140074696E67205350492064656D6F2E2E2EA4
:102B24002E0D0A1B5B306D000D0A456E7465722014
:102B3400616E79206F74686572206B657920746F9B
:102B440020676F206261636B20746F207468652056
:102B54006D61696E206D656E750D0A002A2A20521A
:102B64005F5350495F4F70656E2041504920666F36
:102B74007220535049204D617374657220666169F7
:102B84006C6564202A2A200D0A0000005B4552521D
:102B94005D20496E2046756E6374696F6E3A202518
:102BA4007328292C202573002A2A20525F53504968
:102BB4005F436C6F73652041504920666F722053E8
:102BC4005049204D6173746572206661696C656457
:102BD400202A2A205C725C6E000000002A2A2052FF
:102BE4005F5350495F4F70656E2041504920666FB6
:102BF400722053504920536C617665206661696C7C
:102C04006564202A2A205C725C6E00002A2A205205
:102C14005F5350495F436C6F736520415049206690
:102C24006F722053504920536C6176652066616948
:102C34006C6564202A2A205C725C6E002A2A205269
:102C44005F5350495F436C6F736520415049206660
:102C54006F7220535049204D617374657220666110
:102C6400696C6564202A2A200D0A00000D0A456E4D
:102C7400746572207465787420696E70757420664A
:102C84006F72204D61737465722062756666657239
:102C94002E20446174612073697A652073686F75AE
:102CA4006C64206E6F7420657863656564203634C7
:102CB4002062797465732E200D0A00000D0A4E6F90
:102CC40020496E7075740D0A000000000D0A536CE3
:102CD40061766520525F5350495F526561642829CB
:102CE400206661696C6564000D0A4D6173746572D8
:102CF40020525F5350495F577269746528292066D2
:102D040061696C65640000000D0A535049206D6FC1
:102D140064756C6520626C6F636B656420696E20FA
:102D240057726974652F52656164206F70657261B2
:102D340074696F6E2E0D0A000D0A4572726F72204F
:102D4400696E20636F6E66696775726174696F6E10
:102D5400206F7220636F6E6E656374696F6E2E0DE3
:102D64000A0000000D0A52657365742074686520BA
:102D74004D43552E2E2E0D0A000000000D0A4D6104
:102D840073746572207472616E736D6974746564B2
:102D9400207573657220696E707574206461746146
:102DA40020746F20536C617665200D0A00000000CA
:102DB4000D0A536C61766520525F5350495F577218
:102DC4006974652829206661696C656400000000E7
:102DD4000D0A4D617374657220525F5350495F52FE
:102DE4006561642829206661696C656400000000DF
:102DF4000D0A536C617665207472616E736D69742B
:102E04007465642074686520646174612062616320
:102E14006B20746F204D6173746572200D0A00007D
:102E24000D0A4D6173746572207265636569766518
:102E34006420646174613A1B5B313B33326D20253D
:102E440073200D0A1B5B306D000000000D0A5265F3
:102E5400636569766564206461746120646F657379
:102E6400206E6F74206D61746368207769746820C4
:102E74007472616E736D6974746564204461746105
:102E84002E0D0A000D0A456E7465722074657874FF
:102E940020696E70757420666F72204D617374655D
:102EA40072206275666665722E20446174612073B7
:102EB400697A652073686F756C64206E6F74206521
:102EC40078636565642036342062797465732E0DE9
:102ED4000A0000000D0A456E7465722074657874EA
:102EE40020696E70757420666F7220536C6176650C
:102EF400206275666665722E204461746120736970
:102F04007A652073686F756C64206E6F74206578C1
:102F1400636565642036342062797465732E0D0A06
:102F2400000000000D0A536C61766520525F535017
:102F3400495F577269746552656164282920666126
:102F4400696C6564000000000D0A4D61737465725C
:102F540020525F5350495F577269746552656164CA
:102F64002829206661696C65640000000D0A5350CD
:102F740049206D6F64756C65206661696C656420B9
:102F8400696E2057726974652F52656164206F7091
:102F940065726174696F6E2E0D0A00000D0A4D6131
:102FA400737465722062756666657220646174610B
:102FB400207472616E736D697474656420746F201B
:102FC400536C617665200D0A000000000D0A536CF5
:102FD400617665206275666665722064617461203D
:102FE4007472616E736D697474656420746F204DBE
:102FF4006173746572200D0A000000000D0A4D61B2
:1030040073746572207265636569766564206461B2
:1030140074613A1B5B313B33326D2025730D0A1BFF
:103024005B306D000D0A4D617374657220726563C7
:103034006569766564206461746120646F657320DA
:103044006E6F74206D6174636820776974682053AF
:103054006C617665207472616E736D6974746564F5
:1030640020446174612E0D0A000000000D0A536CA7
:103074006176652072656365697665642064617450
:10308400613A1B5B313B33326D2025730D0A1B5BA8
:10309400306D00000D0A536C6176652072656365BE
:1030A40069766564206461746120646F6573206E61
:1030B4006F74206D617463682077697468204D6152
:1030C40073746572207472616E736D69747465646F
:1030D40020446174612E0D0A000000000D0A4D6148
:1030E4007374657220525F5350495F436C6F73650C
:1030F4002829206661696C65640000000D0A536C20
:1031040061766520525F5350495F436C6F73652845
:1031140029206661696C6564000000002A2A205237
:103124005F5350495F436C6F73652041504920667B
:103134006F72206D6173746572206661696C656479
:10314400202A2A20200D0A002A2A20525F5350499F
:103154005F436C6F73652041504920666F72207322
:103164006C617665206661696C6564202A2A20207A
:103174000D0A000000000000000054545220524583
:103184004747455300000000303132333435363779
:1031940038394142434445467370695F636C6561E5
:1031A4006E5F7570000000007370695F6578697404
:1031B4005F64656D6F0000007370695F7772697496
:1031C400655F7265616400007370695F777269742A
:1031D400655F616E645F7265616400007370695F4E
:1031E400696E69740000000000000102030202021B
:1031F400020001000100000020320000383200000B
:10320400FD1000000000000010320000010000006A
:10321400000000013B000000000000001C10002022
:103224002C320000A03300002400002034320000BF
:10323400010000002410002044320000A0330000EC
:10324400340000204C320000000000000104050698
:1032540007020202020101000100000084320000A2
:103264009C320000151100000000000074320000C0
:1032740001000000000000013B000000000000000D
:103284005C10002090320000A033000044000020B5
:10329400983200000500000064100020A8320000ED
:1032A400A033000054000020B032000004000000ED
:1032B4001A000000C03200000000000000000100FD
:1032C4000D0A0000000001000E0A000000000100C9
:1032D4000F0A000000400000010B00000000010084
:1032E400030B0000000001060D0B000000040106A2
:1032F4000E0B0000000401060F0B0000000000008C
:10330400000C000000000000010C00000040000060
:10331400040C000000400000050C00000500000043
:10332400060C000005000000070C0000050000006A
:10333400010D000005000000020D00000500000062
:10334400030D000000000000040D00000000000058
:10335400070D0000004000000C0D000000400000BC
:103364000D0D0000004000000E0D000005000000DF
:103374000F0D0000000C01060C0E000000040106F5
:103384000D0E0000000401060E0E0000C401C5016C
:10339400C801C701C901CA01CD01CC01BD1F00008C
:1033A400111F0000551E0000F11E0000B11C00009A
:1033B400A91C0000AD1C0000251D0000951D000087
:1033C400E51C0000E91C0000020000000C340000B1
:1033D40002000000EC33000001000000E4330000B0
:1033E400C0000020C0000020200000202000002099
:1033F400000000080000020320000020B4000020A8
:103404006000000000000103B4000020C0000020A0
:1034140000000003DC04002024120020000000034C
:1034240001000200080010002000002020202020BD
:103434002020202028282828282020202020202060
:103444002020202020202020202020881010101050
:1034540010101010101010101010100404040404A4
:1034640004040404041010101010101041414141D0
:1034740041410101010101010101010101010101B8
:1034840001010101010110101010101042424242CA
:103494004242020202020202020202020202020288
:1034A40002020202020210101010200000000000AC
:1034B4000000000000000000000000000000000008
:1034C40000000000000000000000000000000000F8
:1034D40000000000000000000000000000000000E8
:1034E40000000000000000000000000000000000D8
:1034F40000000000000000000000000000000000C8
:1035040000000000000000000000000000000000B7
:1035140000000000000000000000000000000000A7
:103524000000000000000000000000004275696C0B
:103534007420776974682052656E657361732041E5
:103544006476616E63656420466C657869626C6557
:1035540020536F667477617265205061636B616795
:10356400652076657273696F6E20362E342E3000B6
:0C357400362E342E30000000000004064B
:04358000F8B500BFDB
:04358400F8B500BFD7
:0435880061010000DD
:04358C003901000001
:020000040100F9
:04A10000FFFFFFFF5F
:04A20000FFFDF0FF6F
:04A28000F8F8F0FFFB
:04000003000023BD19
:00000001FF
