:020000040200F8
:1000000020080022713700022136000281370002E9
:1000100081370002813700028137000281370002F8
:100020000000000000000000000000008137000216
:100030008137000200000000813700028137000292
:10004000F1200002C12100027122000221230002DE
:10005000E9230002B11D0002511F0002B124000279
:100060006125000211260002C1260002712700024C
:1000700021280002F128000299290002412A0002E9
:08008000E92A0002912B0002A5
:100088000000000000000000000000220000002224
:1000980008000022080000221000002210000022A0
:1000A8001800002218000022200000222000002250
:1000B8002800002228000022300000223000002200
:1000C80038000022380000224000002240000022B0
:1000D8004800002248000022500000225000002260
:1000E8005800002258000022600000226000002210
:1000F80068000022680000227000002270000022C0
:10010800780000227800002280000022800000226F
:10011800880000228800002290000022900000221F
:100128009800002298000022A0000022A0000022CF
:10013800A8000022A8000022B0000022B00000227F
:10014800B8000022B8000022C0000022C00000222F
:10015800C8000022C8000022D0000022D0000022DF
:10016800D8000022D8000022E0000022E00000228F
:10017800E8000022E8000022F0000022F00000223F
:10018800F8000022F80000220001002200010022ED
:10019800080100220801002210010022100100229B
:1001A800180100221801002220010022200100224B
:1001B80028010022280100223001002230010022FB
:1001C80038010022380100224001002240010022AB
:1001D800480100224801002250010022500100225B
:1001E800580100225801002260010022600100220B
:1001F80068010022680100227001002270010022BB
:10020800780100227801002280010022800100226A
:10021800880100228801002290010022900100221A
:100228009801002298010022A0010022A0010022CA
:10023800A8010022A8010022B0010022B00100227A
:10024800B8010022B8010022C0010022C00100222A
:10025800C8010022C8010022D0010022D0010022DA
:10026800D8010022D8010022E0010022E00100228A
:10027800E8010022E8010022F0010022F00100223A
:10028800F8010022F80100220002002200020022E8
:100298000802002208020022100200221002002296
:1002A8001802002218020022200200222002002246
:1002B80028020022280200223002002230020022F6
:1002C80038020022380200224002002240020022A6
:1002D8004802002248020022500200225002002256
:1002E8005802002258020022600200226002002206
:1002F80068020022680200227002002270020022B6
:100308007802002278020022800200228002002265
:100318008802002288020022900200229002002215
:100328009802002298020022A0020022A0020022C5
:10033800A8020022A8020022B0020022B002002275
:10034800B8020022B8020022C0020022C002002225
:10035800C8020022C8020022D0020022D0020022D5
:10036800D8020022D8020022E0020022E002002285
:10037800E8020022E8020022F0020022F002002235
:10038800F8020022F80200220003002200030022E3
:100398000803002208030022100300221003002291
:1003A8001803002218030022200300222003002241
:1003B80028030022280300223003002230030022F1
:1003C80038030022380300224003002240030022A1
:1003D8004803002248030022500300225003002251
:1003E8005803002258030022600300226003002201
:1003F80068030022680300227003002270030022B1
:100408007803002278030022800300228003002260
:100418008803002288030022900300229003002210
:100428009803002298030022A0030022A0030022C0
:10043800A8030022A8030022B0030022B003002270
:10044800B8030022B8030022C0030022C003002220
:10045800C8030022C8030022D0030022D0030022D0
:10046800D8030022D8030022E0030022E003002280
:10047800E8030022E8030022F0030022F003002230
:10048800F8030022F803002200000200FFFFFFFF2C
:1004A0002DE9F04381B040F64C061546C2F2002615
:1004B000884607463378532B36D0A821304603F0C0
:1004C000C1FC03203061706144F2627040F6F401B7
:1004D000C0F20020B061C2F20021F1614FF400616E
:1004E00031620021B1627162F16241F2F402306660
:1004F0004FF0100E44F29E20C2F200227266C6F83F
:1005000068E03167F1667167BFF35F8FC0F200206A
:100510000F30314600BF00BF10F8012901F8012B50
:100520000FF007C0BFF35F8F07EB470006EBC0007B
:1005300000F16009C76E046FBC4213D9D9E901010B
:10054000091BA94251EA358601194046324603F09B
:100550007DFC3019D9F80810411AB04450EA1184D2
:10056000AD1B00E00026381BA84250EA358545B196
:10057000D9F804002A460119404603F067FC2E44CE
:100580002C44002E304618BFC9F8104001B0BDE819
:10059000F083D4D4D4D4D4D410B50B46EFF3118463
:1005A0004FF0200181F311881946FFF779FF84F39A
:1005B000118810BDD4D4D4D42DE9F04381B000EB20
:1005C000400040F64C03C2F20023154603EBC00383
:1005D000894603F11808D86A022819D001280CD0DE
:1005E00048B9D8F80C40D8F81000E143A04267D9C8
:1005F0000844A8426AD2002689E0D8F80C40D8F80E
:100600001010A14233D9E0430144D8F8080033E088
:10061000D8F80C40002621E0D8F80810104408440F
:10062000091B884250EA31804946A84250EA358782
:10063000D8F8040020443A4603F008FC3819D8F8EA
:100640000810411AA5EB070550EA11843E44B9444D
:10065000002DBFF35F8FC8F80C4058D0D8F81000B9
:10066000E243A042D8D91044D8F80810D8E7E243B2
:10067000D8F8080011440144A94251EA3586051B07
:10068000D8F804002044AE4209D24946324603F06D
:10069000DDFBBFF35F8F3019C8F80C0037E0494627
:1006A0002A4603F0D3FB771BD8F8040009EB0501B9
:1006B0003A4603F0CBFBBFF35F8FC8F80C7026E01F
:1006C000D8F8082008441044A84294D3D8E901017E
:1006D0000E1B2044B54209D249462A4603F0B6FB18
:1006E000BFF35F8F6019C8F80C000FE0494632462F
:1006F00003F0ACFBAF1BD8F8040009EB06013A4647
:1007000003F0A4FBBFF35F8FC8F80C702E46304691
:1007100001B0BDE8F083D4D4F0B581B040F64C050B
:100720000C46C2F200252B78532B37D00646A82161
:100730002846174603F086FB03202861686144F2CF
:10074000627040F6F401C0F20020A861C2F20021FC
:10075000E9614FF4006129620021A9626962E962DE
:1007600041F2F40228664FF0100E44F29E20C2F2CD
:1007700000226A66C5F868E02967E9666967BFF321
:100780005F8FC0F200200F3010F8011905F8011B2F
:100790000FF007C03A463046BFF35F8FEFF3118585
:1007A0004FF0200181F311882146FFF705FF85F303
:1007B000118801B0F0BDD4D410B540F64C04C2F29B
:1007C00000242078532837D0A821204603F03AFB94
:1007D00003202061606144F2627040F6F401C0F2CF
:1007E0000020A061C2F20021E1614FF400612162AA
:1007F0000021A1626162E16241F2F40220664FF0E1
:10080000100E44F29E20C2F200226266C4F868E034
:100810002167E1666167BFF35F8FC0F200200F3090
:10082000214600BF00BF00BF10F8012901F8012BCD
:100830000FF007C0BFF35F8FE06E216F81425FEA68
:100840000F9010BDD4D4D4D42DE9F04F9BB0924674
:100850000F464FF0000904901A900DF1580B00203C
:1008600006A9169140211791CDE918990EE0011DB6
:10087000CAF800100168CDE900385846234600F058
:100880001BFA1998B0F1FF3F40F3128217F8011BD1
:1008900025291DD0002900F0FB81DDE91720431C2C
:1008A000934207D8169A115418931998179A013041
:1008B000199018469042E4D116991A98FFF72CFF28
:1008C0001899884240F0DF81CDF86090D9E700BFE9
:1008D0004FF000083978A1F123030D2B18D802221C
:1008E000DFE803F00E161616161616161016121658
:1008F000160748EA02080137ECE700BF00BF00BF57
:100900000822F6E70422F4E70122F2E700BF00BF65
:10091000A1F13A02002312F10A0F0FD30A4600BFD9
:1009200017F8011F03EB8303A1F13A0602EB430220
:1009300016F10B0FA2F130030A46F1D82E290FD180
:100940003A4612F8016F2A2E0DD1DAF8001002375C
:100950000A1DCAF800200C6801211DE000BF00BF7D
:100960000021002418E0A6F13A0717F10A0F02D27D
:10097000002100240FE0002412F8011F04EB84077B
:10098000A1F13A0506EB470715F10B0FA7F130046B
:100990000E46F1D80121174617F8012B02F0FB068D
:1009A000682EF9D0A2F15806202E26D8DFE806F0EE
:1009B0001211111111111111111111163C111111F6
:1009C00011111111111111116C111179113811112D
:1009D000120056E7DAF80000102248E7DDE9172098
:1009E000411CDAF80030914203F10406CAF80060B5
:1009F0003FF660AF169A1B680AE0252A7FF441AFE4
:100A0000DDE91720411C91423FF654AF169A252389
:100A1000135418911998179A01301990084649E70C
:100A2000DAF800000A2222E7DAF800104CF6CD4C82
:100A30000A1DCAF800200A6805925142002A48BFE0
:100A40000A460A2ACCF6CC4C03914FF0010107DB91
:100A5000A2FB0C56632A01F101014FEAD602F7D836
:100A60008C4254EA81895E46002B58D0059908F0E3
:100A7000040200295FEA5F9141EA9201A3EB010BB6
:100A80005FEA887550D473E0DAF800001022011D87
:100A9000CAF80010016808230820CDE9000958466B
:100AA000EDE6DAF80020131DCAF80030126844F2AF
:100AB000C943002AC0F2002352EA13865FEA018884
:100AC0000BE000BF00BF00BF1998CDF86090B0F1F7
:100AD000FF3FA4F101047FF7D4AE16F8011B002CF0
:100AE0005FEA188200293FF4CCAE002A7FF4C9AE39
:100AF000DDE917235D1C954207D81698C1542B4693
:100B00001998179A0130189519909342DFD11699C8
:100B10001A98FFF701FE18998842D5D0B3E04FF03C
:100B2000000B5FEA887523D514BB002800F1A7806D
:100B30000598B0F1FF3F47DD5FEA487064D5DDE915
:100B40001720411C914208D8169A2B231354189150
:100B50001998179A013019900846904254D1169965
:100B60001A98FFF7D9FD18998842059944D08AE070
:100B70005FEAC871D9D1BBF1000FD6D0029502E06F
:100B80000028AB467BD4ABF101055D4538BFD945A4
:100B900036D2DDE917214B1C934208D81698202243
:100BA000425419461998179A013018931990914296
:100BB000E6D116991A98FFF7AFFD1899884262D1CD
:100BC000002018901998DBE7DDE91720411C9142BD
:100BD00008D8169A2D23135418911998179A013092
:100BE0001990084690420DD116991A98FFF794FD76
:100BF00018998842039946D100201890059103E086
:100C0000029D92E7039805901998002850D4002D72
:100C10000BD40A22304605992346CDE900B8B346E5
:100C200000F04AF84FF000092BE608F001012143DB
:100C3000EFD1BBF1000FECD0ABF101055D4538BF42
:100C4000D945E6D2DDE917214B1C934208D8169806
:100C50003022425419461998179A01301893199066
:100C6000914209D116991A98FFF756FD18998842B2
:100C700009D10020189019980028AB46DCD54FF018
:100C80000009B346FDE54FF0FF301BB0BDE8F08F23
:100C900040B1189A52B106A90498FFF73DFDDDE96D
:100CA000181004E000201BB0BDE8F08F00210844BC
:100CB0001BB0BDE8F08FD4D42DE9F04F81B01546BC
:100CC0008B4691421F460446DDF828904FF0010004
:100CD00007D3594600BF00BFB1FBF5F10130A9426F
:100CE000FAD2874257EA8088B9F1000F0B9938D0C1
:100CF00011F0010035D188074FF0200048BF3020A7
:100D00002021002F50EA01864FF0000A06E000BFC4
:100D1000E068A9F10109B0F1FF3F22DDB9F1000F50
:100D20001FD0C8451DD2D4E90120411C914207D8EB
:100D300022681654A160E06862680130E0600846ED
:100D40009042E5D121682069FFF7E6FCA16888425E
:100D500002D1C4F808A0DBE74FF0FF30E060A9F152
:100D60000109E068002842D4012603E000BF00BF6B
:100D7000013F6E43022FFBD2BBFBF6F1A942F8D232
:100D800044F64947A268C0F2002700BF00BF00BF79
:100D90006168531CBBFBF6FA8B4209D8206817F830
:100DA0000A1081541A46E06861680130A360E0606F
:100DB0008A4209D121682069FFF7AEFCA2689042FF
:100DC0000CD10022E068A26000280AD4B6FBF5F13D
:100DD0000AFB16BBB5420E46DAD902E04FF0FF30EF
:100DE000E0600B99C90718BFB9F1000F02D101B03B
:100DF000BDE8F08F2025A9F101064E4538BFC84552
:100E0000F5D26168531C8B4207D8206885541A4676
:100E1000E06861680130A360E0608A4209D121681E
:100E20002069FFF779FCA168884207D10022E068B9
:100E3000A260B0F1FF3FB146DDDCD8E74FF0FF30F4
:100E4000E06001B0BDE8F08F82B080B582B0CDE93E
:100E5000042304AA019201AAFFF7F6FC02B0BDE840
:100E6000804002B07047D4D4B0B582B044F65C4143
:100E70000546C0F2002101F1080028600020A8808A
:100E8000019001A802F080FB44F23B610020C0F217
:100E90000021FFF7D9FF44F28A310020C0F200217F
:100EA000FFF7D2FF44F2AF2144F2F522C0F2002155
:100EB000C0F200220020FFF7C7FF9DF806309DF822
:100EC000072044F627319DF80540C0F2002100209C
:100ED0000094FFF7B9FF44F6E0210020C0F20021A2
:100EE000FFF7B2FF44F2D1310020C0F20021FFF73A
:100EF000ABFF44F26B710020C0F20021FFF7A4FFAA
:100F000044F234510020C0F20021FFF79DFF284633
:100F100002B0B0BDD4D4D4D410B5044644F65C407D
:100F2000C0F2002044F2EF5108302060C0F20021EE
:100F30000020FFF789FF204610BDD4D4D4D4D4D4E8
:100F400010B5044644F65C40C0F2002044F2EF5174
:100F500008302060C0F200210020FFF775FF204616
:100F6000BDE8104002F05DBDB0B584B005466946ED
:100F700000200F220024CDF80B400294CDE900445C
:100F8000FFF70AFBB8B1684602F075FE022806D0EA
:100F9000012808D1284600F013F804460BE000F0C1
:100FA0008BF8044607E044F234510020C0F20021DF
:100FB0000024FFF749FF204604B0B0BDD4D4D4D4F8
:100FC000B0B541F20415C2F20025287848B144F6C4
:100FD000BF210020C0F200210024FFF735FF20468A
:100FE000B0BD41F2101044F6E851C2F20020C0F248
:100FF000002100F0D1FA68B144F2916144F6034255
:1010000044F696230446C0F20021C0F20022C0F24A
:1010100000233DE041F2101044F6A441C2F200204A
:10102000C0F2002100F0D4FB68B144F2916144F6B3
:10103000034244F6BB330446C0F20021C0F2002252
:10104000C0F2002324E000F093F868B144F291610B
:1010500044F6034244F2BF630446C0F20021C0F2EA
:101060000022C0F2002313E041F21010C2F200206F
:1010700000F05EFD88B144F2916144F6034244F20F
:10108000F9230446C0F20021C0F20022C0F200237E
:101090000020FFF7D9FE2046B0BD44F67131002094
:1010A000C0F200210024FFF7CFFE01202870204667
:1010B000B0BDD4D4D4D4D4D4B0B544F6E440C0F256
:1010C0000020406AF8B141F20415C2F200252878E8
:1010D000012818D141F21010C2F2002000F034FDB6
:1010E00010B344F2916144F20D6244F27843044635
:1010F000C0F20021C0F20022C0F200230020FFF75E
:10110000A3FE2046B0BD44F21E310020C0F20021F3
:10111000FFF79AFE44F2D0410020C0F200210024E3
:10112000FFF792FE2046B0BD44F686310020C0F2A3
:1011300000210024FFF788FE41F210102C70C2F24B
:10114000002000F0B5FD0028E4D044F2916144F2A3
:10115000AD6244F62843C0F20021C0F20022C0F282
:1011600000230020FFF770FED4E7D4D4D4D4D4D425
:1011700070B582B000208DF8070041F210100021F8
:10118000C2F2002000F02CFD44F2ED610446C0F2F2
:1011900000210020FFF758FE64B144F2916144F64B
:1011A000124244F20973C0F20021C0F20022C0F2E0
:1011B00000232DE041F210140226C2F200240DF1AA
:1011C000070500BF00BF00BF2046294600F0DCFC39
:1011D00088B99DF8070018B1002E06F10106F3D179
:1011E000E0B144F22E710020C0F20021FFF72CFE86
:1011F0001B2002B070BD44F2916144F6124244F6E5
:10120000DE33C0F20021C0F20022C0F20023044607
:101210000020FFF719FE204602B070BD44F21551C0
:101220000020C0F200210024FFF70EFEF3E7D4D423
:1012300080B541F21010C2F2002000F039FD002804
:1012400008BF80BD44F2916144F2AD6244F6284388
:10125000C0F20021C0F20022C0F200230020BDE84D
:101260008040FFF7F1BDD4D4B0B5051D41F2101098
:10127000C2F2002064212A4600F09AFC044680B1A4
:1012800044F2916144F2836244F69B33C0F2002140
:10129000C0F20022C0F200230020FFF7D5FD204657
:1012A000B0BD2A8844F29C41C0F2002100200025F4
:1012B000FFF7CAFD44F6E440C0F20020406A08BBD4
:1012C00041F20410C2F20020057041F21010C2F287
:1012D000002000F0EDFC70B144F2916144F2AD6287
:1012E00044F62843C0F20021C0F20022C0F20023DD
:1012F0000020FFF7A9FD44F2D0410020C0F20021F8
:10130000FFF7A2FD44F240210120C0F20F0102F0DC
:1013100043F92046B0BDD4D482B06C462046FFF7D6
:10132000A3FD41F2041744F21B650026C2F2002718
:10133000C0F2002500BF00BFFFF73EFAA8B120466B
:10134000FFF712FE80B106462046FFF771FF2046E8
:10135000FFF7E2FD002029463246FFF775FD00BE8B
:1013600003E000BF00BF00BF00263878012803D18A
:101370002046FFF779FF06460EB92FF023C8204616
:10138000FFF756FF2046FFF7C7FD002029463246EB
:10139000FFF75AFD00BECFE7022818BF704741F2A1
:1013A000081045F27001C2F20020C0F2002100F0E6
:1013B0000BB8D4D4D4D4D4D480B5FFF7ADFF00207B
:1013C00080BDD4D4D4D4D4D480B545F25422C5F24F
:1013D0004F020260084600F003F8002080BDD4D41C
:1013E00070B5044600F064F841F28C1CEFF31081F4
:1013F000C2F2002C012080F31088DCF8000038B91C
:1014000040F614500022C4F24000027040220270E4
:10141000DCF800000130CCF8000081F3108820884F
:1014200030B340F6000E0021C4F2400E08E000BFC9
:101430000EEB8010013140F822302088814217D213
:10144000606800EBC10250F831309288D8034FEA4F
:101450001220D2B2ECD50EEB801555F8226026F49E
:10146000803645F8226023F4803645F82260DFE7B5
:101470000120EFF3108180F31088DCF8000020B128
:10148000DCF800000138CCF80000DCF8000010B1F6
:1014900081F3108870BD40F614500022C4F2400061
:1014A00002708022027081F3108870BDD4D4D4D42D
:1014B0002DE9F04F81B004460088002867D04EF631
:1014C0004C4B0025C4F2010B4FF0010A04E000BFB1
:1014D0002088013585425AD245F2A00642F24008E2
:1014E0000027C0F20026C4F220080CE000BF00BFB5
:1014F00088F80000C820012102F04EF8013708F1F9
:101500000208032FE4D0606836F8021B00EBC50028
:1015100082888A42F2D100689BF8001000F0B8502F
:101520000AFA07F9B0F1807F09EA010018D158B929
:10153000012002F0E5F89BF8000040EA09008BF872
:101540000000012002F0B0F898F900000028D5D47E
:1015500098F8000040F08000CAE700BF00BF00BF5D
:1015600058B1012002F0CCF89BF8000020EA0900F5
:101570008BF80000012002F097F898F90000B0F114
:10158000FF3FBBDC98F8000000F07F00B0E701B03F
:10159000BDE8F08FD4D4D4D42DE9F041804643F295
:1015A0000C0401F10C05C4F220040161002625CDD4
:1015B000C8F81400C8F81C20C8F8186088F8006043
:1015C0000120EFF3108780F310880121206820F4B8
:1015D0000010206020681E2001F0DEFF87F31088D5
:1015E000E86900F0030001280FD10120EFF3108714
:1015F00080F310880121606820F00040606060681E
:101600001E2001F0C9FF87F3108848F20001286A04
:10161000C4F23301C8600E60486808B12FF005C0FD
:10162000E86988600120086048680128FCD12846E4
:101630004FF0020E00240F2350F8242F0A64F646C0
:101640000722002607E003FA07F73E430124BEF114
:10165000010E00D10CE0075D17F00C0FF6D107F07A
:101660000307012F4FEAC407EDD002FA07F7ECE7B2
:101670004E644FF0080ED5F89C00C1F8600295F852
:10168000900001F5587201F5607301F5697600F07C
:101690000700C1F8800295F89000C0F30210C1F86D
:1016A0008C02D5F89400C1F88802D5F89800C1F8EA
:1016B00094026869C1F84003A869C1F84403686EE0
:1016C000C1F86402A86EC1F8B00205F1E40000BFE1
:1016D00050F8447C42F8047B50F8247C43F8047BA7
:1016E00050F8047B46F8047B0FF00FC048F2044228
:1016F000D5F8E000C4F23302C1F8A0030020C1F81D
:10170000000410605060906041F2901C288F1C23F0
:10171000C2F8BC00C2F2002C688F4FF0010EC2F874
:10172000C000E86BC2F8C400286CC2F8C800686C3E
:10173000C2F8CC00A86CC2F8D000E86CC2F8D400A3
:1017400048F6F04040F2FF12C4F233004CF200358C
:10175000C4F200050260D8F8100042694EF2001091
:10176000CEF20000D26E03E0013B02F1010220D074
:1017700092F91C70002FF7D41678C419360184F83A
:1017800000634CF8278055F8274024F4803445F84E
:10179000274055F827407C0907F01F07BFF35F8FEC
:1017A00000EB84060EFA07F7C6F8807140F8247043
:1017B000DAE74FF44030886244F2483300200322D5
:1017C0000A62C4F244134A62C8F82430BDE8F081CA
:1017D0002DE9F04F89B08446D1A08B460021DCF87A
:1017E00010208CF8001090ED001F2121506980EF2F
:1017F000502021F001E000BFA0FD103E1FF005C009
:1018000048F240274FF60C61C4F23307CFF6FF7160
:10181000C26A7A504FF61062CFF6FF72016BB95070
:101820004FF61461CFF6FF71426B7A5047F63F6274
:10183000016D47F8801C416D47F87C1C816D47F8AD
:10184000781CCBF6CC72C16D47F8741C8118026EFF
:10185000102900F1700047F8702C0CD24FF0080EE0
:10186000394600BF00BF00BF50F8042B41F8042BDD
:101870000FF007C00AE04FF0020E394600BF00BF6C
:10188000B0EC041FA1EC101E0FF007C09BF80090F5
:101890000025CCE90155B9F1000F00F0ED8048F2C8
:1018A000046445F20008C4F23304C4F223080022A1
:1018B0004FF0010E0026CDE900BC18E000BF00BFCC
:1018C000DDF800B04FF0010EDDF804C09BF8009089
:1018D000059E0798049A069D0643DDE90210013231
:1018E00001FA00F04A4545EA000580F0C880DBF8BF
:1018F00004100492CDE9056551F822A09AF806205B
:101900009AF805109AF800509AF80400029041EAFB
:1019100002030EFA05F01B0680B207900CD1DAF82C
:10192000080043F20C060028C4F2200600F09C8058
:10193000002206E000BF00BF43F20C06D2B2C4F2A0
:101940002006079BDCF804001843CCF804004FF68F
:10195000806307EB0510CFF6FF730395C1504FF678
:101960008461CFF6FF7107EB85034FF6886542501F
:101970009AF80310CFF6FF75DAF8082000294251D3
:10198000DAF8100043F8400CA2D04FF0000B07E04B
:10199000C7F8E0E09AF803000BF1010B83458FD202
:1019A000DAF8180050F82B00017843680D0107EBB6
:1019B000011204EB0111C2F8C03382686251C2689F
:1019C0004A6002698A604068C0F306206528DFD05B
:1019D0006428DFD198F900000028DBD4EFF31085EC
:1019E0008EF310883068012120F480003060306868
:1019F0001E20F14601F0D0FD4EF6E02085F3108860
:101A0000C4F2010010F8040C00071BD44EF2FA31A6
:101A10004EF6E022C4F20101C4F201024AF2205063
:101A20000880107800F0FE00107012F8040C40F0EE
:101A3000080002F8040C107840F0010010704FF418
:101A40002540088098F80000012140F0800088F8C7
:101A500000001E2001F0A0FD98F80000CE4640F0E6
:101A6000100088F8000095E7079ADCF8080010439A
:101A70000022CCF808006AE700264FF00009DCF8E5
:101A800010104A694946D2F8209019F4803F5FEA65
:101A90001F9319F4003F5FEA1F908DF822308DF8F4
:101AA000230011B3DCF80430FBB10C46DBF8041062
:101AB00044F001E0503240F6FE7A00200DF1220899
:101AC00051F8044B32F8023B647818F80440002CBB
:101AD0004FF0040418BF0AEA49042344984250EA2C
:101AE00083800FF013C8013000E00120CCF80C0017
:101AF0004FF608604FF61C61CFF6FF70CFF6FF710E
:101B000044F248323E50C4F2441200207D50CCF8DA
:101B1000202009B0BDE8F08F00BF00BF00BF00BFAC
:101B2000C0853340D0853340E0853340F085334075
:101B300048F608420146C4F23302406810600020B3
:101B4000896891607047D4D448F680410022C4F27D
:101B5000330141F8782CC06828B100BF00BF00BF36
:101B600001380A68FCD1086850B140F2011041F810
:101B7000200C00BF00BF00BF086808B12FF005C0EF
:101B800000207047D4D4D4D448F680420078C4F200
:101B9000330201381268002A5FEA0F9204284FF0DE
:101BA000000038BF02220A707047D4D4D4D4D4D4F1
:101BB0004FF680604AF20003CFF6FF70C4F23303A1
:101BC00000EB81001729184400F5C07038BF43EAC4
:101BD00081000168252000EAE17011807047D4D4AB
:101BE00048F680410022C4F23301027041F8782C9B
:101BF000C26822B100BF00BF013A0B68FCD10A687D
:101C000052B140F2011241F8202C00BF00BF00BFCA
:101C10000A680AB12FF005C00322CA604A634FF672
:101C2000FF7240F27333C0F27F02C0F277038A631F
:101C30004B6448F280210278C4F2330105E000BF12
:101C400004220270CB685B072AD1D2B2052A1CD8C5
:101C5000DFE802F01D0403210D0DF1E703220270FD
:101C60000B685B07F1D00720086004221CE00269C2
:101C7000526992F8903003F007030B6092F89020BD
:101C8000C2F30212CA600522027000220CE0012297
:101C90000270032208E0022202704FF4407203E057
:101CA0000720C8604FF480620020C1F88029704787
:101CB000B0B548F680410022C4F2330141F8782CD7
:101CC000C26822B100BF00BF013A0B68FCD10A68AC
:101CD00052B140F2011241F8202C00BF00BF00BFFA
:101CE0000A680AB12FF005C048F220320021C4F280
:101CF0003302C0E908114160816011604FF01C0E91
:101D000000694EF280120121CEF200024069C06EDD
:101D1000F6461C3004E000BFBEF1010E00D10FE01A
:101D200010F9013B002BF7D45C0903F01F0301FA03
:101D300003F342F82430BFF34F8FBFF36F8FEBE70D
:101D400045F2000043F20C04C4F22300C4F2200464
:101D500090F90010B1F1FF3F17DC017801F0EF01BD
:101D60000170017801F07F0101700120EFF310850F
:101D700080F310880121206840F4800020602068F2
:101D80001E2001F009FC85F310880120EFF3108577
:101D900080F310880121206840F400102060206842
:101DA0001E2001F0F9FB85F310880020B0BDD4D4CB
:101DB0002DE9F04F91B048F68848C4F23308D8F8BE
:101DC0000000D8F81810C0074FF0070008BF032024
:101DD000C90703D14FF0000C002204E0D8F81CC062
:101DE000D8F8282007204FF07043EFF3038103EB6E
:101DF000016641F29013B115C2F2002348F280252A
:101E00004FEA266A5958C4F233050F7805E000BF3F
:101E100004270F70EC68640738D1FFB2052F1FD874
:101E2000DFE807F02304032A1010F1E703270F70FF
:101E30002C686407F1D007272F604FF004090328AE
:101E400020D029E00F697F6997F8904004F00704DB
:101E50002C6097F89070C7F30217EF6005270F709A
:101E60004FF0000903280DD016E001270F704FF046
:101E70000309032806D00FE002270F704FF44079C2
:101E8000032809D1097805290AD243E00727EF6022
:101E90004FF480690328F5D006270F704FF0000932
:101EA0004FF07044EFF3038104EB0161891553F89F
:101EB00001B0DBF8141069B38DF802000020CDE901
:101EC00004C2EC46ADF81800DBE906024FF0FF0350
:101ED0008DF808300192ADF8003080B1034608A9B2
:101EE000D4CBD4C193E8D400D4C10146BCE8CC0023
:101EF000CCC19CE8CC00CCC1DBF8141000E06046FB
:101F00008847DBF8180028B108A9CCC9CCC091E8F3
:101F1000CC00CCC00120C8F814004CF20030C4F250
:101F2000000050F82A1021F4803140F82A1050F8AF
:101F30002A0000BF00BF00BFD5F8000A08B12FF08B
:101F400005C8C5F8809911B0BDE8F08FD4D4D4D4B9
:101F50002DE9F04F91B048F68848C4F23308D8F81C
:101F60000000D8F8181080074FF0070058BF032072
:101F7000890703D44FF0000C002204E0D8F81CC0FD
:101F8000D8F8282007204FF07043EFF3038103EBCC
:101F9000016641F29013B115C2F2002348F2802588
:101FA0004FEA266A5958C4F233050F7805E000BF9E
:101FB00004270F70EC68640738D1FFB2052F1FD8D3
:101FC000DFE807F02304032A1010F1E703270F705E
:101FD0002C686407F1D007272F604FF0040903280D
:101FE00020D029E00F697F6997F8904004F007043A
:101FF0002C6097F89070C7F30217EF6005270F70F9
:102000004FF0000903280DD016E001270F704FF0A4
:102010000309032806D00FE002270F704FF4407920
:10202000032809D1097805290AD243E00727EF6080
:102030004FF480690328F5D006270F704FF0000990
:102040004FF07044EFF3038104EB0161891553F8FD
:1020500001B0DBF8141069B38DF802000020CDE95F
:1020600004C2EC46ADF81800DBE906024FF0FF03AE
:102070008DF808300192ADF8003080B1034608A910
:10208000D4CBD4C193E8D400D4C10146BCE8CC0081
:10209000CCC19CE8CC00CCC1DBF8141000E0604659
:1020A0008847DBF8180028B108A9CCC9CCC091E852
:1020B000CC00CCC00220C8F814004CF20030C4F2AE
:1020C000000050F82A1021F4803140F82A1050F80E
:1020D0002A0000BF00BF00BFD5F8000A08B12FF0EA
:1020E00005C8C5F8809911B0BDE8F08FD4D4D4D418
:1020F0002DE9F04F93B048F6285B4FF07041C4F2E1
:10210000330B41F29012C2F20022DBF800A0DBF8A0
:102110000430DBF81070EFF3038001EB00608115F1
:102120004FEA206852F80190D9F8141079B30820CA
:102130008DF80A000193FF22CDE90637D9E906039D
:102140008DF81020ADF8082002AAADF820A0039366
:10215000009778B103460AA9F0CBF0C193E8F000EC
:10216000F0C10146E8CAE8C192E8E800E8C1D9F840
:10217000141000E010468847D9F8180028B10AA9C1
:10218000CCC9CCC091E8CC00CCC0DDE900731FFA0B
:102190008AF0CBF814004CF20030CBF81830C4F2BF
:1021A0000000CBF8247050F8281021F4803140F85A
:1021B000281050F8280013B0BDE8F08FD4D4D4D440
:1021C0002DE9F04391B04FF07041EFF3038001EB44
:1021D000006041F290128115C2F200224FEA20689D
:1021E00052F80190D9F8141069B306208DF8020056
:1021F000FF208DF808000020CDE90400ADF818009C
:10220000D9E9060201920122ADF800206A4678B1B0
:10221000034608A9F0CBF0C193E8F000F0C10146F5
:10222000E8CAE8C192E8E800E8C1D9F8141000E073
:1022300010468847D9F8180028B108A9CCC9CCC0E5
:1022400091E8CC00CCC048F68C400121C4F23300A8
:1022500001604CF20030C4F2000050F8281021F464
:10226000803140F8281050F8280011B0BDE8F08304
:102270002DE9F04391B04FF07041EFF3038001EB93
:10228000006041F290128115C2F200224FEA2068EC
:1022900052F80190D9F8141069B306208DF80200A5
:1022A000FF208DF808000020CDE90400ADF81800EB
:1022B000D9E9060201920222ADF800206A4678B1FF
:1022C000034608A9F0CBF0C193E8F000F0C1014645
:1022D000E8CAE8C192E8E800E8C1D9F8141000E0C3
:1022E00010468847D9F8180028B108A9CCC9CCC035
:1022F00091E8CC00CCC048F68C400221C4F23300F7
:1023000001604CF20030C4F2000050F8281021F4B3
:10231000803140F8281050F8280011B0BDE8F08353
:102320002DE9F04F93B048F6A44A4FF07041C4F243
:10233000330A41F29012C2F20022DAF80030DAF8E1
:102340000C90EFF3038001EB006081154FEA206BE6
:1023500052F80180D8F8141079B307208DF80A00DC
:10236000FF208DF810000020ADF82000D8E906020B
:1023700003920122ADF8082002AA0193CDE90639A3
:1023800078B103460AA9F0CBF0C193E8F000F0C1A0
:102390000146E8CAE8C192E8E800E8C1D8F814109C
:1023A00000E010468847D8F8180028B10AA9CCC91F
:1023B000CCC091E8CC00CCC0019BCAF81430CAF85C
:1023C00020900120CAF810004CF20030C4F2000046
:1023D00050F82B1021F4803140F82B1050F82B00CE
:1023E00013B0BDE8F08FD4D42DE9F04F93B048F688
:1023F000A44A4FF07041C4F2330A41F29012C2F283
:102400000022DAF80030DAF80C90EFF3038001EBE9
:10241000006081154FEA206B52F80180D8F8141043
:1024200079B307208DF80A00FF208DF810000020F6
:10243000ADF82000D8E9060203920222ADF8082088
:1024400002AA0193CDE9063978B103460AA9F0CB77
:10245000F0C193E8F000F0C10146E8CAE8C192E893
:10246000E800E8C1D8F8141000E010468847D8F812
:10247000180028B10AA9CCC9CCC091E8CC00CCC0C6
:10248000019BCAF81430CAF820900220CAF8100044
:102490004CF20030C4F2000050F82B1021F48031CF
:1024A00040F82B1050F82B0013B0BDE8F08FD4D4B7
:1024B0002DE9F04391B04FF07041EFF3038001EB51
:1024C000006041F290128115C2F200224FEA2068AA
:1024D00052F80190D9F8141061B300208DF8020071
:1024E000CDE904000120ADF81800D9E90603FF2268
:1024F0008DF80820ADF800206A46019378B10346B4
:1025000008A9F0CBF0C193E8F000F0C10146E8CA99
:10251000E8C192E8E800E8C1D9F8141000E01046DC
:102520008847D9F8180028B108A9CCC9CCC091E8CF
:10253000CC00CCC048F654500121C4F233000160F5
:102540004CF20030C4F2000050F8281021F4803121
:1025500040F8281050F8280011B0BDE8F083D4D41A
:102560002DE9F04391B04FF07041EFF3038001EBA0
:10257000006041F290128115C2F200224FEA2068F9
:1025800052F80190D9F8141061B300208DF80200C0
:10259000CDE904000220ADF81800D9E90603FF22B6
:1025A0008DF80820ADF800206A46019378B1034603
:1025B00008A9F0CBF0C193E8F000F0C10146E8CAE9
:1025C000E8C192E8E800E8C1D9F8141000E010462C
:1025D0008847D9F8180028B108A9CCC9CCC091E81F
:1025E000CC00CCC048F654500221C4F23300016044
:1025F0004CF20030C4F2000050F8281021F4803171
:1026000040F8281050F8280011B0BDE8F083D4D469
:102610002DE9F04391B04FF07041EFF3038001EBEF
:10262000006041F290128115C2F200224FEA206848
:1026300052F80190D9F8141061B300208DF802000F
:10264000CDE904000420ADF81800D9E90603FF2203
:102650008DF80820ADF800206A46019378B1034652
:1026600008A9F0CBF0C193E8F000F0C10146E8CA38
:10267000E8C192E8E800E8C1D9F8141000E010467B
:102680008847D9F8180028B108A9CCC9CCC091E86E
:10269000CC00CCC048F654500421C4F23300016091
:1026A0004CF20030C4F2000050F8281021F48031C0
:1026B00040F8281050F8280011B0BDE8F083D4D4B9
:1026C0002DE9F04391B04FF07041EFF3038001EB3F
:1026D000006041F290128115C2F200224FEA206898
:1026E00052F80190D9F8141061B300208DF802005F
:1026F000CDE904000820ADF81800D9E90603FF224F
:102700008DF80820ADF800206A46019378B10346A1
:1027100008A9F0CBF0C193E8F000F0C10146E8CA87
:10272000E8C192E8E800E8C1D9F8141000E01046CA
:102730008847D9F8180028B108A9CCC9CCC091E8BD
:10274000CC00CCC048F654500821C4F233000160DC
:102750004CF20030C4F2000050F8281021F480310F
:1027600040F8281050F8280011B0BDE8F083D4D408
:102770002DE9F04391B04FF07041EFF3038001EB8E
:10278000006041F290128115C2F200224FEA2068E7
:1027900052F80190D9F8141061B300208DF80200AE
:1027A000CDE904001020ADF81800D9E90603FF2296
:1027B0008DF80820ADF800206A46019378B10346F1
:1027C00008A9F0CBF0C193E8F000F0C10146E8CAD7
:1027D000E8C192E8E800E8C1D9F8141000E010461A
:1027E0008847D9F8180028B108A9CCC9CCC091E80D
:1027F000CC00CCC048F654501021C4F23300016024
:102800004CF20030C4F2000050F8281021F480315E
:1028100040F8281050F8280011B0BDE8F083D4D457
:102820002DE9F04F91B048F6F8484FF07041C4F2EE
:10283000330841F29012C2F2002258F8049CEFF3E0
:10284000038001EB006081154FEA206A52F801B065
:10285000DBF8141079B3484600236FF35F20CDE90D
:102860000433ADF81800DBE906030A228DF80220D4
:10287000FF228DF80820ADF800206A46019378B158
:10288000034608A9F0CBF0C193E8F000F0C101467F
:10289000E8CAE8C192E8E800E8C1DBF8141000E0FB
:1028A00010468847DBF8180028B108A9CCC9CCC06D
:1028B00091E8CC00CCC048466FF35F2048F8080C84
:1028C000D8F8000069F30800C8F800004CF20030A6
:1028D000C4F2000050F82A1021F4803140F82A1088
:1028E00050F82A0011B0BDE8F08FD4D4D4D4D4D499
:1028F0002DE9F04391B04FF07041EFF3038001EB0D
:10290000006041F290128115C2F200224FEA206865
:1029100052F80190D9F8141069B309208DF802001B
:102920000020CDE904000120ADF81800D9E9060324
:10293000FF228DF80820ADF800206A46019378B197
:10294000034608A9F0CBF0C193E8F000F0C10146BE
:10295000E8CAE8C192E8E800E8C1D9F8141000E03C
:1029600010468847D9F8180028B108A9CCC9CCC0AE
:1029700091E8CC00CCC04CF20030C4F2000050F81A
:10298000281021F4803140F8281050F8280011B0A8
:10299000BDE8F083D4D4D4D42DE9F04391B04FF006
:1029A0007041EFF3038001EB006041F2901281155A
:1029B000C2F200224FEA206852F80190D9F81410B0
:1029C00069B309208DF802000020CDE9040002203F
:1029D000ADF81800D9E90603FF228DF80820ADF8FC
:1029E00000206A46019378B1034608A9F0CBF0C1F4
:1029F00093E8F000F0C10146E8CAE8C192E8E800B7
:102A0000E8C1D9F8141000E010468847D9F818003A
:102A100028B108A9CCC9CCC091E8CC00CCC04CF2FC
:102A20000030C4F2000050F8281021F4803140F842
:102A3000281050F8280011B0BDE8F083D4D4D4D4C5
:102A40002DE9F04391B04FF07041EFF3038001EBBB
:102A5000006041F290128115C2F200224FEA206814
:102A600052F80190D9F8141069B309208DF80200CA
:102A70000020CDE904000420ADF81800D9E90603D0
:102A8000FF228DF80820ADF800206A46019378B146
:102A9000034608A9F0CBF0C193E8F000F0C101466D
:102AA000E8CAE8C192E8E800E8C1D9F8141000E0EB
:102AB00010468847D9F8180028B108A9CCC9CCC05D
:102AC00091E8CC00CCC04CF20030C4F2000050F8C9
:102AD000281021F4803140F8281050F8280011B057
:102AE000BDE8F083D4D4D4D42DE9F04391B04FF0B5
:102AF0007041EFF3038001EB006041F29012811509
:102B0000C2F200224FEA206852F80190D9F814105E
:102B100069B309208DF802000020CDE904000820E7
:102B2000ADF81800D9E90603FF228DF80820ADF8AA
:102B300000206A46019378B1034608A9F0CBF0C1A2
:102B400093E8F000F0C10146E8CAE8C192E8E80065
:102B5000E8C1D9F8141000E010468847D9F81800E9
:102B600028B108A9CCC9CCC091E8CC00CCC04CF2AB
:102B70000030C4F2000050F8281021F4803140F8F1
:102B8000281050F8280011B0BDE8F083D4D4D4D474
:102B90002DE9F04391B04FF07041EFF3038001EB6A
:102BA000006041F290128115C2F200224FEA2068C3
:102BB00052F80190D9F8141069B309208DF8020079
:102BC0000020CDE904001020ADF81800D9E9060373
:102BD000FF228DF80820ADF800206A46019378B1F5
:102BE000034608A9F0CBF0C193E8F000F0C101461C
:102BF000E8CAE8C192E8E800E8C1D9F8141000E09A
:102C000010468847D9F8180028B108A9CCC9CCC00B
:102C100091E8CC00CCC04CF20030C4F2000050F877
:102C2000281021F4803140F8281050F8280011B005
:102C3000BDE8F083D4D4D4D44EF22401C4F201010F
:102C40008878098801F00F02A2F1080103293BD816
:102C5000DFE801F0022C101E40F62001C2F2002134
:102C600051F820004AF6AB21CAF6AA21A0FB0101C7
:102C7000480830E040F62001C2F2002151F820005F
:102C80004AF6AB21CAF6AA21A0FB0101C80822E03E
:102C900040F62001C2F2002151F820004AF6AB2193
:102CA000CAF6AA21A0FB0101080914E040F62001A0
:102CB000C2F2002151F820004AF6AB21CAF6AA213F
:102CC000A0FB0101880806E040F62001C2F20021C5
:102CD00051F82000D04041F2E411C2F20021086016
:102CE0007047D4D4D4D4D4D4D4D4D4D4D4D4D4D495
:102CF0002DE9F04782B00FF268604EF2FA3840F6E4
:102D00002006C4F201084AF2015190ED001FC2F200
:102D100000260FF25C60CFF6FF714EF255050231CE
:102D2000A8F8001086ED001F06F12003C4F201058B
:102D300090ED001F48F2004040F60001C1F2D7704C
:102D400043F6000286ED041FC2F6AF71C1F69C4245
:102D500007C315F82F0C35F8311C01F00F02A2F152
:102D6000080103292BD8DFE801F002200C164AF6EF
:102D7000AB2156F82000CAF6AA21A0FB01014808A1
:102D800020E04AF6AB2156F82000CAF6AA21A0FBA3
:102D90000101C80816E04AF6AB2156F82000CAF631
:102DA000AA21A0FB010108090CE04AF6AB2156F864
:102DB0002000CAF6AA21A0FB0101880802E056F80B
:102DC0002000D04041F2E41A4EF60044C2F2002A3C
:102DD000C4F201040A214EF60147CAF800004FF67A
:102DE0005060CFF6FF70C4F201072154092085F826
:102DF0004D00207818B93878800700F0A882207834
:102E000048B901202070C820012100F0C5FB00BF97
:102E100020780128FCD10020387020704AF2015936
:102E2000002005F81F0C05F8230C00BF00BF00BFF1
:102E300015F8190C0007FBD542F602314EF6145076
:102E4000C0F20101C5F8731040F2234125F8071CB8
:102E5000002205F80B2C4FF60211C5F8571040F26E
:102E6000514125F8091CCEF200004EF20001BFF3DB
:102E70004F8FBFF36F8F0368CEF2010123F400334D
:102E80000360C0F83C22BFF34F8FBFF36F8F0A6817
:102E900022F440520A60BFF34F8FBFF36F8F15F8D3
:102EA000412C02F0F802013205F8412C00BF00BFAE
:102EB00015F8412CD206FBD40A6842F440520A604D
:102EC000BFF34F8FBFF36F8F0168890312D4BFF335
:102ED0004F8FBFF36F8F0021C0F83C12BFF34F8FAD
:102EE000BFF36F8F016841F400310160BFF34F8F72
:102EF000BFF36F8F002005F82B0C00BF00BF00BF91
:102F000015F8190C8006FBD54CF200040020C4F221
:102F1000130420702078207820786068FA2807D081
:102F2000FA20C1F6006000BF60606168FA29FBD139
:102F3000A0687D2808D07D20CEF2001000BF00BF21
:102F4000A060A1687D29FBD143F23240C3F2232067
:102F500045F8350C42F2202025F8310C052005F803
:102F60002F0C15F82F0C35F8311C01F00F02A2F1CF
:102F7000080103292BD8DFE801F002200C164AF6DD
:102F8000AB2156F82000CAF6AA21A0FB010148088F
:102F900020E04AF6AB2156F82000CAF6AA21A0FB91
:102FA0000101C80816E04AF6AB2156F82000CAF61F
:102FB000AA21A0FB010108090CE04AF6AB2156F852
:102FC0002000CAF6AA21A0FB0101880802E056F8F9
:102FD0002000D040CAF800001E200121012700F087
:102FE000DBFA60686FF39F20652828BF277015F80B
:102FF0002F0C35F8311C01F00F02A2F10801032952
:103000002BD8DFE801F002200C164AF6AB2156F867
:103010002000CAF6AA21A0FB0101480820E04AF6D8
:10302000AB2156F82000CAF6AA21A0FB0101C8086E
:1030300016E04AF6AB2156F82000CAF6AA21A0FBFA
:10304000010108090CE04AF6AB2156F82000CAF647
:10305000AA21A0FB0101880802E056F82000D04018
:1030600042F20001CAF80000C4F200010120A1F8F8
:103070000090BFF35F8F08724FF42540BFF35F8F5E
:10308000088095F8850040F0400085F8850000BF75
:1030900095F98500B0F1FF3FFADC032085F87F0049
:1030A000C92085F8850095F8850000F0BF0085F8F7
:1030B000850000BF00BF00BF95F985000028FBD444
:1030C000012005F8250C05F8030C05F8020C00207A
:1030D00005F8170C802005F8170CE87F40F0400039
:1030E000E87700BF00BF00BF95F91F00B0F1FF3FB8
:1030F000FADC0720E8754A20E8770A20E87700BF65
:1031000095F91F000028FBD40720ADF806000DF14B
:10311000060000F035F995F8210040F0400085F8F0
:10312000210000BF00BF00BF95F92100B0F1FF3FB3
:10313000FADC03206876CA2085F8210095F8210082
:1031400000F0BF0085F8210095F921000028FBD48C
:10315000287840F04000287095F90000B0F1FF3F5A
:10316000FADC022005F8010CCA202870287800F04B
:10317000BF00287000BF00BF95F900000028FBD4F5
:10318000A87840F04000A87095F90200B0F1FF3F28
:10319000FADC00206870C720A870A87800F0BF0093
:1031A000A87000BF00BF00BF95F902000028FBD443
:1031B000287A40F04000287295F90800B0F1FF3FEE
:1031C000FADC0120E871C6202872287A00F0BF00DE
:1031D000287200BF00BF00BF95F908000028FBD48B
:1031E00095F8230040F0400085F8230000BF00BFA1
:1031F00095F92300B0F1FF3FFADC0220E876C92000
:1032000085F8230095F8230000F0BF0085F823001F
:1032100095F923000028FBD495F8220040F04000E7
:1032200085F8220000BF00BF95F92200B0F1FF3FF2
:10323000FADC0420A876CA2085F8220095F822003E
:1032400000F0BF0085F8220095F922000028FBD489
:10325000A87940F04000A87195F90600B0F1FF3F51
:10326000FADC02206871CA20A871A87900F0BF00BA
:10327000A87100BF00BF00BF95F906000028FBD46D
:1032800095F8860040F0400085F8860000BF00BF3A
:1032900095F98600B0F1FF3FFADC022085F8800046
:1032A000C52085F8860095F8860000F0BF0085F8F7
:1032B000860000BF00BF00BF95F986000028FBD440
:1032C00095F8870040F0400085F8870000BF00BFF8
:1032D00095F98700B0F1FF3FFADC012085F8810005
:1032E000C52085F8870095F8870000F0BF0085F8B5
:1032F000870000BF00BF00BF95F987000028FBD4FE
:1033000095F8890040F0400085F8890000BF00BFB3
:1033100095F98900B0F1FF3FFADC092085F88300B8
:10332000C92085F8890095F8890000F0BF0085F86C
:10333000890000BF00BF00BF95F989000028FBD4B9
:103340004FF42540A8F8000002B0BDE8F0874FF424
:103350007A7000F0CDF861E500BF00BF00BF00BF8C
:10336000006CDC0200127A000080000000366E0162
:103370000080000000CA9A3B0046C3235543DE1379
:103380002DE9F04F81B04EF2FA3143F20406C4F257
:1033900001018246C4F220064AF20350B1F80090BF
:1033A00008804FF0010B00254FF4803401270020E6
:1033B00008E000BF00BF00BFF8074FF001004FF06A
:1033C000000716D004FA00F132680A42F4D1EFF394
:1033D00010888BF3108832680BFA00F011433160CB
:1033E000316805431E20012100F0D6F888F31088CB
:1033F000E2E74EF2750740F62001C4F20107C2F27F
:103400000021387800F00F0051F8200017F8081C50
:1034100001F00F01022901D801220BE0CA1E052A82
:1034200006D245F2F421C0F2002151F8221003E047
:103430000839102202FA01F1B0FBF1F04DF6836178
:10344000C4F21B31A0FB01016FF0010000EA514002
:10345000012100F0A1F8387840F04000387000BF3A
:1034600097F90000B0F1FF3FFADC9AF8010007F885
:10347000080C9AF8000040F0400038709AF80000FC
:10348000387000BF00BF00BF97F900000028FBD4D0
:1034900000204FF0010A4FF48038012406E000BFFD
:1034A000E0074FF001004FF0000415D025FA00F1BD
:1034B000C907F5D0EFF310878AF3108808FA00F0F7
:1034C000316821EA0000306030681E20012100F0E0
:1034D00063F887F31088E3E74EF2FA3149F42540A8
:1034E000C4F20101088001B0BDE8F08FD4D4D4D477
:1034F0007047D4D4D4D4D4D4B0B542F22404C82074
:10350000C4F2200401210025257100F045F8257042
:10351000207808B12FF005C0207840F0020020701C
:1035200020788007FCD4002004F8020C00BF00BF04
:1035300014F8020C08B12FF005C84FF0030E00205C
:1035400004F11C0100BF00BF11F8102002F07F023F
:1035500001F8102000BF00BF11F91020002AFBD491
:1035600001300FF00FC8012000F0CAF84EF64C41B0
:103570000120C4F2010100220A70BDE8B04000F051
:1035800093B8D4D4D4D4D4D4014600220020C0F2BD
:1035900004620A607047D4D441F2E41241F200237D
:1035A000C2F20022C0F27A03484312689A420FD353
:1035B00044F23F21C0F20F0111444DF68362C4F280
:1035C0001B32A1FB0212910CA0FB0101C9B11DE04D
:1035D0004CF60021C3F69A31B1FBF2F148F63812ED
:1035E000C0F24102904205D24FF47A725043B0FBD0
:1035F000F1F006E0B0FBF1F0904207D24FF47A719F
:103600004843002808BF704700F006B84FF0FF306D
:1036100000F002B8D4D4D4D401380028FCD17047CB
:10362000F0B581B04CF2201541F23817C4F2000514
:103630000024C2F2002755F8200C296801EA000690
:1036400006E000BF00BF00BF01340437152C09D0CD
:1036500026FA04F0C007F7D039680029F4D02046D4
:103660008847F1E745F8106C28683042FCD101B07A
:10367000F0BDD4D4D4D4D4D480B54FF0120E4CF2D3
:10368000003045F27C01C4F20000C0F2002100BF0E
:1036900031F8022B002A18BF026004300FF009C075
:1036A00080BDD4D4D4D4D4D4EFF31081012282F3DA
:1036B000108841F2D812C2F2002232F8103023B141
:1036C00032F81030013B22F8103032F8102012B1DD
:1036D00081F3108870474EF2FA3245F2083CC4F28A
:1036E0000102C0F2002C13883CF8100043F425437B
:1036F00023EA0000108081F310887047D4D4D4D41A
:1037000010B5EFF31081012282F3108841F2D81234
:10371000C2F2002232F8103083B94EF2FA3E45F27E
:10372000083CC4F2010EC0F2002CBEF800403CF888
:103730001030234343F42543AEF8003032F8103004
:10374000013322F8103081F3108810BDD4D4D4D4C2
:1037500080B505487844026800F0BAFA01464FF097
:10376000FF300C238B5080BD8C1D0000D4D4D4D4EA
:1037700000F00AF8FDF720FEFEE7D4D4D4D4D4D468
:1037800000BE7047D4D4D4D42DE9F04381B04EF6B6
:10379000085840F20120CEF20008C0F20E004EF2AE
:1037A0000004C8F80C00CEF20104BFF34F8FBFF342
:1037B0006F8F58F8081CC1F3035001285FEA1F926D
:1037C00011F00F0F5FEA0F911142216811D1022809
:1037D0000FD241F0040020604EF20800BFF34F8F7B
:1037E000CEF20000BFF36F8F016841F480310160B9
:1037F00002E021F004002060BFF34F8FBFF36F8F12
:103800004FF4700040F20001C8F880000020C0F2C0
:103810000021C8F800100025FDF7BEFDFFF768FA8B
:103820004EF2FA304EF6B022C4F20100C4F20102A8
:103830004AF20251018015704FF4254101800120A8
:10384000FDF7AAFD40F22040C2F2002080F30A8872
:103850002068800724D5D8F80000B0F1007F1FD180
:1038600020694FF40071C0F3C300626901FA00F3EC
:10387000C2F3C30081400020DA08CB0801460746A6
:1038800042F007C000BF00BFE7E802010FF005C02B
:103890004FF0005243F005C0E2E802010FF005C00E
:1038A00045F2C804C0F20024276897B160683E461C
:1038B000051D05E000BF00BF013E05F10C0508D065
:1038C00068790028F8D155E90101091A00F0BAFA1F
:1038D000F2E7D4F80890B9F1000F13D0E0684E4633
:1038E00000F1080504E000BF013E05F1100509D014
:1038F00068790028F8D155E902022968121A00F007
:10390000A5FAF1E7FFF798F9FFF7F6FD0320FFF7B7
:10391000F7FE4FF00E0E40F63050C4F2400000218A
:1039200020F8041B0FF005C00320FFF7BDFE0320A5
:10393000FFF7E6FE44F204000021C4F2200001601B
:1039400041608160C1600320FFF7AEFE0220FDF7F9
:1039500023FD9FB160684FF48076051D04E000BF31
:10396000013F05F10C0509D06879B6EB002FF7D1BE
:1039700055E90101091A00F065FAF1E7B9F1000F04
:1039800016D0E0684FF4807500F1080405E000BF30
:10399000B9F1010904F110040AD06079B5EB002FE8
:1039A000F6D154E902022168121A00F04FFAEFE74B
:1039B00041F2A424C2F20024204600F060F920461F
:1039C00000F075F9BFF34F8FBFF36F8F0020C8F879
:1039D000480245F2E84045F2E841C0F20020C0F25A
:1039E0000021BFF34F8F081ABFF36F8F8410012C93
:1039F0000BDB45F2E845C0F2002500BF00BF00BF69
:103A000055F8040B8047013CFAD1FFF735FE002042
:103A100001B0BDE8F04300F003B8D4D4D4D4D4D47A
:103A2000704700F0D6BA0846114600F000B82DE9FC
:103A3000F04F8BB08246C06C8B4601A990F8038092
:103A4000584600F09FF89AF850100028039F18BFBE
:103A50000027C80768D13E68002E65D008F00F0027
:103A600003282CD001285BD10DF104084FF0000988
:103A700003E007463E68002E56D058460F214246C6
:103A80007D88DAF84840CDF8049000F061F806F03F
:103A90000101381D65F341010229EAD356D1019A8B
:103AA00025F001012144083722F001029142E1D8BA
:103AB0004FF6FE73334019448A42DBD228E00DF101
:103AC00004084FF0000902E007463E6866B3584616
:103AD0000F214246DAF848407D68CDF8049000F0A6
:103AE00037F806F0010107F1080065F341010229EA
:103AF000EAD32BD1019A25F0010121440C3722F0A1
:103B000001029142E1D826F0010319448A42DCD235
:103B10000168480061F31E00411C13D0023015D12A
:103B200009200BB0BDE8F08F584600F027F8014699
:103B30000920002908BF0520012908BF08200BB073
:103B4000BDE8F08F06200BB0BDE8F08F00F029F83B
:103B500070B50646006814460D46826830469047A8
:103B600038B130682946C26830469047206000204E
:103B700070BD4EF27260CFF6FF7070BD01680A6AC8
:103B80000021104710B50C4601684A6A214690474B
:103B900061680020002904BF4EF26B60CFF6FF7011
:103BA00010BD062000F004F8012000F063F8D4D422
:103BB00080B51F2807D92E49162200F089F84250F7
:103BC0004FF0FF3080BD41F2E8114FF0000CC2F21F
:103BD000002101EB8002D2E8AF1F012942D0002969
:103BE00042D0D2E8EF3F8B4204D1C2E8E3CFC3B367
:103BF0002FF009C8BFF32F8FD2E8AF1F012931D0B2
:103C000091B3D2E8EF3F8B4204D1C2E8E3CF43B394
:103C10002FF009C8BFF32F8FD2E8AF1F012921D0A1
:103C200011B3D2E8EF3F8B4204D1C2E8E3CFC3B176
:103C30002FF009C8BFF32F8FD2E8AF1F012911D091
:103C400091B1D2E8EF3F8B4204D1C2E8E3CF43B158
:103C50002FF009C8BFF32F8FD2E8AF1F0129BED1C3
:103C600000E08847002080BD40F0800000F002F8AE
:103C700008000000FEE700210A2200F02FB810B56E
:103C800040F2984140F20002C0F20021C0F200026E
:103C9000044600F0DBF840F2000040F20401C0F2FC
:103CA0000000C0F20001204400F0CCF810BD40F24A
:103CB0000801C0F20001401A41F26821C2F200215D
:103CC00008607047D4D4D4D4D4D4D4D4D4D4D4D4E5
:103CD0000148006870470000681200222DE9F04199
:103CE0000346242A2BD8012A29D045F21235002672
:103CF000C0F200259E46985D2F1897F880409F19C6
:103D0000240729D578782C1894F88040240729D5E1
:103D1000B8782C1894F8804024072BD5F87804360E
:103D20000EF1040E2F1897F880703F07E3D49C190A
:103D3000A4F1010E4FF0000C2B2822D125E0404ABF
:103D40001624FFF7C5FF845019B100200B60BDE8B1
:103D5000F0810020BDE8F0817C1C4FF0000C2B2886
:103D60000FD112E00EF1010EBC1C4FF0000C2B28FD
:103D700007D10AE00EF1020EFC1C4FF0000C2B28BC
:103D800003D02D2804D14FF0010C20780EF102044D
:103D900030280CD112F02F0F02BF207800F0DF0086
:103DA000582848D0002A08BF0822302002E0002A04
:103DB00008BF0A2227466FF000460CEB0608461E95
:103DC000392846F0200688BFA6F12600A0F130066B
:103DD00096421DD2B8FBF2F47B1E04FB1285002034
:103DE0000EE04CF0020C13F8017F7E1E392F46F0D6
:103DF000200688BFA6F12607A7F13006964208D212
:103E0000A042EED801D1AE42EBD800FB0260EAE757
:103E10000020002918BF0B605FEACC7150EA00B0A7
:103E20005FEA8C7105D506492222FFF751FF425007
:103E30004046BDE8F081A71C607810222346BAE70F
:103E4000080000000A46002100F076B8844641EAE6
:103E5000000313F0030349D1403A23D30B680360F6
:103E60004B6843608B688360CB68C3600B690361F8
:103E70004B6943618B698361CB69C3610B6A0362E0
:103E80004B6A43628B6A8362CB6AC3620B6B0363C8
:103E90004B6B43638B6B8363CB6BC36340304031AD
:103EA000403ADBD230320BD30B6803604B6843607F
:103EB0008B688360CB68C36010301031103AF3D246
:103EC0000C3205D351F8043B40F8043B043AF9D2D4
:103ED000043208D0D2071CBF11F8013B00F8013BA7
:103EE00001D30B8803806046704700BF082A13D3B4
:103EF0008B07B1D010F00303AED0C3F10403D21A84
:103F0000DB071CBF11F8013B00F8013BA4D331F8DB
:103F1000023B20F8023B9FE7043AD9D3013A11F85B
:103F2000013B00F8013BF9D20B7803704B784370EA
:103F30008B7883706046704770B4840746D0541EF7
:103F4000002A41D0CDB2034602E0621EE4B314461B
:103F500003F8015B9A07F8D1032C2ED9CDB245EABC
:103F600005250F2C45EA054519D9264603F110020F
:103F7000103E0F2E42F8105C42F80C5C42F8085CD0
:103F800042F8045C02F11002F2D8A4F1100222F00F
:103F90000F0204F00F041032032C13440DD91E46F7
:103FA0002246121F032A46F8045BFAD8221F22F089
:103FB0000302121D134404F003042CB1C9B21C44C3
:103FC00003F8011BA342FBD170BC704714460346A3
:103FD000C2E7002808BF704710B5044641F26C20C4
:103FE000C2F2002000F059F954F8042CA4F1080E94
:103FF00040F2000C22F00101C2F2002C0EEB010392
:10400000DCF80800D2075C68834224F003042BD05C
:104010005C6072B9DEF80000AEEB000E01440CF1FA
:104020000800DEF8082082425BD0DEF80C00D06089
:10403000826018190079C00708D19A6821440CF1F0
:104040000804A24264D0D868D06082604A0A41F075
:1040500001004EF80110CEF804002CD0042A3CD800
:10406000382000EB91127DE0214442B9DEF80000D7
:10407000AEEB000E0144DEE902239A60D36041F00A
:104080000100CEF8040040F20840CCF808E0C2F28B
:1040900000200068814206D341F27020C2F2002065
:1040A000006800F09DF841F26C20C2F20020BDE8EB
:1040B000104000F0F3B801F4FC70DCF80420604418
:1040C00049090124836804FA01F1CEE90230114361
:1040D000CCF80410C0F808E078E0142A2AD85B3243
:1040E00040E018190079C00716D1D3E90202214433
:1040F00041F00103CEF804304EF80110C260906028
:1041000041F26C20C2F20020BDE8104000F0C6B8B9
:10411000CCE904EECEE9024441F001004EF8011072
:10412000CEF8040041F26C20C2F20020BDE810403D
:1041300000F0B4B8542A03D86E2000EB113211E01D
:104140004AF60022C0F20202914203D2772000EB2D
:10415000D13207E002F500237E227C20994238BF4D
:1041600000EB91420CEBC204A368A34221D0586833
:1041700020F0030081421AD29B68A34217D05868EE
:1041800020F00300814212D29B68A3420FD05868EE
:1041900020F0030081420AD29B68A34207D05868EE
:1041A00020F00300814202D29B68A342DFD1DC6889
:1041B00008E090080122DCF8041002FA00F008433D
:1041C000CCF80400CEE90234C4F808E0C3F80CE0EF
:1041D00041F26C20C2F20020BDE8104000F05EB851
:1041E0002DE9F041044641F26C20C2F2002000F0BB
:1041F00054F840F2000840F6FF71C2F20028D8F8E7
:104200000800406820F00306301B002400F6EF7021
:1042100020EA0105A5F58057B7F5805F34DB002063
:10422000FFF796FAD8F80810314488422CD1C5F52A
:104230008050FFF78DFA01300ED041F27C20D8F883
:104240000820C2F2002001240168C91B0160F01B94
:1042500040F00100506017E000200024FFF778FADA
:10426000D8F80810421A102A0EDB40F20C4342F034
:104270000102C2F200234A6041F27C211B68C2F2B3
:1042800000210024C01A086041F26C20C2F2002014
:1042900000F004F82046BDE8F08170477047000048
:1042A0000000000054545220524547474553000D2A
:1042B0000A202A2020204578616D706C652050729C
:1042C0006F6A6563742056657273696F6E2025731B
:1042D00020202020202020202020202020202020DE
:1042E00020202020202020202020202020202020CE
:1042F00020202A2000312E30002A2A20525F4144FB
:10430000435F425F5363616E537461727420415026
:1043100049206661696C6564202A2A0D0A000D0A2D
:1043200053746F7020636F6D6D616E6420697320CC
:104330006E6F7420737570706F7274656420696E2F
:104340002053696E676C65205363616E206D6F64E6
:1043500065206F72207468652075736572206E6FBA
:104360007420707265737365642053746172742075
:104370005363616E20696E20436F6E74696E756F52
:104380007573206D6F64650D0A000D0A202A2020C8
:104390002052656E657361732046535020457861E5
:1043A0006D706C652050726F6A65637420666F7201
:1043B00020725F6164635F62204D6F64756C65207D
:1043C00020202020202020202020202020202A20E3
:1043D000000D0A20526566657220746F2072656157
:1043E000646D652E7478742066696C6520666F72E2
:1043F000206D6F72652064657461696C73206F6EE7
:10440000204578616D706C652050726F6A656374C9
:1044100020616E64202020202020202020202020C9
:10442000202020202020202020202020202020208C
:104430002020202020200D0A20465350205573654F
:10444000722773204D616E75616C20666F72206DEE
:104450006F726520696E666F726D6174696F6E2030
:1044600061626F757420725F6164635F6220647261
:10447000697665720D0A20002A2A20525F41444362
:104480005F425F5363616E53746F702041504920E7
:104490006661696C6564202A2A0D0A000D0A4D4385
:1044A00055206469652074656D70657261747572FC
:1044B000652072656164696E672066726F6D204168
:1044C00044433A2025640D0A00284E554C4C2900DF
:1044D0000D0A507265737320616E79206F74686580
:1044E00072206B65792028657863657074203120AF
:1044F000616E6420322920746F20676F20626163CF
:104500006B20746F20746865206D61696E206D6525
:104510006E750D0A000D0A4144432043616C6962C7
:10452000726174696F6E205375636365737366752A
:104530006C0D0A000D0A4D454E5520746F205365D1
:104540006C65637420202020202020202020202043
:10455000202020202020202020202020200D0A5054
:1045600072657373203120746F20537461727420EC
:10457000414443205363616E2020202020202020CE
:10458000202020202020202020202020202020202B
:10459000200D0A5072657373203220746F2053749B
:1045A0006F7020414443205363616E20284F6E6C2E
:1045B0007920666F7220436F6E74696E756F7573C4
:1045C000206D6F64652920202020202020202020BD
:1045D0002020202020202020202020202020200DEE
:1045E0000A5573657220496E707574203A20002A4E
:1045F0002A20414443206F626A65637420697320F6
:1046000064656C65746564202A2A0D0A0061646320
:104610005F7363616E5F73746F70000D0A5265742F
:1046200075726E6564204572726F7220436F6465A7
:104630003A203078257820200D0A00200D0A202A03
:104640002A2A2A2A2A2A2A2A2A2A2A2A2A2A2A2ACA
:104650002A2A2A2A2A2A2A2A2A2A2A2A2A2A2A2ABA
:104660002A2A2A2A2A2A2A2A2A2A2A2A2A2A2A2AAA
:104670002A2A2A2A2A2A2A2A2A2A2A2A2A2A2A2A9A
:104680002A20006164635F726561645F64617461C4
:10469000005B4552525D20496E2046756E63746919
:1046A0006F6E3A20257328292C20257300646569D4
:1046B0006E69745F6164635F6D6F64756C65002A19
:1046C0002A206164635F73746172745F63616C69F3
:1046D00062726174696F6E2066756E6374696F6E65
:1046E000206661696C6564202A2A0D0A000D0A4162
:1046F00044432063616C6962726174696F6E2073F8
:104700007461727465640D0A002A2A20525F414464
:10471000435F425F43616C6962726174652041501E
:1047200049206661696C6564202A2A0D0A000D0A19
:104730004144432043616C6962726174696F6E2009
:104740006973206E6F742073756363657373667528
:104750006C2064756520746F2074696D65206F75B9
:1047600074005465726D696E616C000D0A54686561
:10477000206578616D706C652070726F6A65637416
:104780002064656D6F6E7374726174657320736FEE
:104790006D65206665617475726573206F66204370
:1047A0002B2B207375636820617320636C617373B6
:1047B0002C20636F6E7374727563746F72732C2028
:1047C00020202020202020202020202020202020E9
:1047D00020202020202020200D0A6465737472752B
:1047E00063746F722C206D656D6265722066756EE4
:1047F0006374696F6E73207573696E6720414443FB
:104800002048414C206D6F64756C652041504973A0
:104810002070726F76696465642062792046535017
:104820002E2020202020202020202020202020207A
:10483000202020202020202020200D0A54686520E0
:10484000414443206D6F64756C65206973207772F5
:10485000617070656420696E746F206120636C61A3
:1048600073732E20416E20414443206F626A65635A
:1048700074206F66207468697320636C61737320A1
:10488000697320696E7374616E7469617465642004
:104890002020202020202020202020202020202018
:1048A00020202020202020200D0A616E64206973C2
:1048B000207573656420746F2063616C6C20726571
:1048C0007370656374697665206D656D62657220CD
:1048D00066756E6374696F6E732E20546865207000
:1048E000726F6A65637420696E697469616C697A54
:1048F0006573207468652041444320696E20202040
:1049000020202020202020202020202020202020A7
:104910002020202020200D0A53696E676C652053EB
:1049200063616E206F7220436F6E74696E756F7570
:1049300073205363616E206D6F64657320626173D1
:104940006564206F6E20757365722073656C656396
:1049500074696F6E20696E20524120436F6E6669E4
:1049600067757261746F722E202020202020202015
:104970002020202020202020202020202020202037
:10498000200D0A4F6E636520696E697469616C69F8
:104990007A65642C20746865207573657220636184
:1049A0006E20696E69746961746520746865204160
:1049B0004443207363616E20616E6420616C736F89
:1049C0002073746F7020746865207363616E202893
:1049D000696E20746865202020202020202020205F
:1049E0002020202020202020202020202020200DDA
:1049F0000A63617365206F6620436F6E74696E751C
:104A00006F7573205363616E206D6F646529207527
:104A100073696E67204A2D4C696E6B205254542086
:104A20005669657765722062792073656E64696E78
:104A30006720636F6D6D616E64732E2052657375B0
:104A40006C7420616E6420202020202020202020F3
:104A50002020202020202020202020202020200D69
:104A60000A41444320737461747573206172652038
:104A7000646973706C61796564206F6E2074686519
:104A8000204A2D4C696E6B2052545420566965772C
:104A900065722E0D0A002A2A20414443206D6F645E
:104AA000756C6520696E697469616C697A61746995
:104AB0006F6E206661696C6564202A2A0D0A000DFC
:104AC0000A414443207363616E20616C72656164C6
:104AD0007920696E2070726F67726573730D0A00BA
:104AE0000D0A202A2A2A2A2A2A2A2A2A2A2A2A2A6D
:104AF0002A2A2A2A2A2A2A2A2A2A2A2A2A2A2A2A16
:104B00002A2A2A2A2A2A2A2A2A2A2A2A2A2A2A2A05
:104B10002A2A2A2A2A2A2A2A2A2A2A2A2A2A2A2AF5
:104B20002A2A2A2A2A20000D0A202A202020466C20
:104B3000657820536F667477617265205061636B8E
:104B40002056657273696F6E2025642E25642E25AC
:104B50006420202020202020202020202020202011
:104B600020202020202020202020202020202A203B
:104B7000000D0A414443207363616E2073746172B7
:104B80007465640D0A000D0A414443207363616E2D
:104B90002073746F707065640D0A002A2A20525FBA
:104BA0004144435F425F5265616420415049206641
:104BB00061696C6564202A2A0D0A002A2A20525F46
:104BC0004144435F425F5363616E436667204150D7
:104BD00049206661696C6564202A2A0D0A002A2A28
:104BE00020525F4144435F425F5374617475734761
:104BF000657420415049206661696C6564202A2AE9
:104C00000D0A006164635F7363616E5F7374617248
:104C100074006164635F73746172745F63616C6973
:104C200062726174696F6E002A2A20525F414443A8
:104C30005F425F436C6F7365204150492066616934
:104C40006C6564202A2A0D0A00303132333435363F
:104C5000373839414243444546D4D4D4000000009B
:104C600000000000190F0002410F000200000000C8
:104C700001640000000000000000000000001200BD
:104C80006C4C000200000101010000000000000067
:104C9000000000000000000001000000804C000245
:104CA000844C000201000000A04C00020C0C0C0C13
:104CB0000C0C0C0C0C0CFFFFFFFFFF0C0C0C0C0C75
:104CC0000C0C0CFFFFFFFFFF050601020C0D0E0F81
:104CD0001011DFDFDFDFDF0003040708090A0BDF45
:104CE000DFDFDFDF00000100000001000000010045
:104CF00000000100000000000101010101010101AB
:104D00000200040064000300010000000000000035
:104D10000000000000000000000000000000000093
:104D20000000000000000000000000000000000083
:104D30000000000000000000000000000000000073
:104D400000000000000000005F00050005000500F5
:104D5000AC4C00025F005F005F005F005F005F001F
:104D60005F005F005F005F005F005F005F005F004B
:104D70005F005F00000000005F0005005F000500AD
:104D80000505000000000000000000000000000019
:104D90000000000000000000000000000000000013
:104DA0000000000000400000004000000040000043
:104DB00000400000004000000040000000400000F3
:104DC00000400000000000000000000000000000A3
:104DD00000000000000000000000000000000000D3
:104DE0000000000000000000FCFF00000000DFDF0A
:104DF00000FFFF000000000000000000E44C000283
:104E0000008000000100000000800000020000009F
:104E1000008000000300000000800000040000008B
:104E20000080000005000000008000000700000076
:104E300000400000080000000040000009000000E1
:104E4000008000000E000000008000000F00000045
:104E50000000011C000100000000011C0101000015
:104E60000000011C020100000000011C0301000001
:104E70000000011C040100000000011C05010000ED
:104E80000000011C060100000000010008020000F3
:104E90000000010009020000000001000A020000F9
:104EA000000001000B020000000001000C020000E5
:104EB000000001000D020000000001000E020000D1
:104EC000000001000F0200000400000003030000C6
:104ED0000000011802040000000001180504000091
:104EE0000000011806040000000001130704000080
:104EF0000000011408040000040000000005000088
:104F0000000401070B050000000401070C05000068
:104F1000040000000006000000000104010600007B
:104F20000000010402060000000001040306000066
:104F30000000010404060000000001040506000052
:104F40000000011800070000000001180107000020
:104F5000000001180207000000000118030700000C
:104F600000000118050700000000011806070000F6
:104F70000000011C000800000000011C01080000E6
:104F80000000011C020800000000011C03080000D2
:104F90000000011C040800000000011C08080000BB
:104FA000000001130E080000000001130F080000AC
:104FB00004000000070900000000011008090000BB
:104FC0000000011009090000000C0104020A0000A1
:104FD000000C0104030A0000000C0104040A000094
:104FE000000C0104050A000000000104060A00008C
:104FF00004000000070A000000000105080A000084
:1050000000000105090A00000000010E0A0A000064
:1050100000000118000B000000000118020B000046
:1050200000000118030B000000000118040B000031
:10503000000001180B0C0000000001180C0C00000F
:10504000000001180D0C000000000104020D00001A
:1050500000000104030D000000000104040D000025
:1050600000000104050D000004000000070D000011
:105070004E000000004E0002000000004B036303DE
:105080006B0364036C0366036E034D034E034F030F
:10509000500351034C0356035703580359035A0353
:1050A000020403040404D4D4000000680000006873
:1050B0000000008000000080000000700000007010
:1050C00020040022200400220B000000E050000217
:1050D000190000006451000204000000A850000202
:1050E00000000068000000680001000D000000687A
:1050F000000000680001000D00000080000000803A
:10510000000100080000008000000080000100088D
:1051100000000070000000700001000A0000007034
:10512000000000700001000A000000000000000004
:105130000100000500000020000000200100000424
:105140002004002220040022000000034C0800225A
:10515000A412002200000003A4120022A8120022C0
:1051600000000003000000680000006800000090DC
:105170000001090D000000680000006800000078D0
:1051800000010B0D0000006800000068000000270F
:105190000001020D000000680000006888000002A5
:1051A0000001010D00000080000000800000009060
:1051B0000001090800000080000000800000007865
:1051C00000010B08000000800000008000000027A4
:1051D000000102080000008000000080880000023A
:1051E0000001010800000070000000700000009045
:1051F0000001090A00000070000000700000007843
:1052000000010B0A00000070000000700000002781
:105210000001020A00000070000000708800000217
:105220000001010A000000000000000000000090E2
:1052300001010905000000000000000000000078E6
:1052400001010B0500000000000000000000002725
:1052500001000205000000000000000088000002BC
:105260000100010500000020000000200000009067
:105270000101090400000020000000200000007867
:1052800001010B04000000200000002000000027A6
:10529000010002040000002000000020880000023D
:1052A0000100010400000022000000220000009024
:1052B0000001090300000022000000220000007825
:1052C00000010B0300000022000000220000002764
:1052D00000000203000000221004002288000002E7
:1052E00000000103A4120022A4120022980400026C
:1052F0000000010306000000080000000300000099
:10530000050000000A000000010002000800100073
:10531000200000000000000000000000000000006D
:10532000000000000000000000000000000000007D
:10533000000000000000000000000000000000006D
:10534000000000000000000000000000000000005D
:10535000000000000000000000000000000000004D
:10536000000000000000000000000000000000003D
:10537000000000000000000000000000000000002D
:10538000000000000000000000000000000000001D
:105390000000202020202020202020282828282825
:1053A00020202020202020202020202020202020FD
:1053B0002020881010101010101010101010101055
:1053C0001010040404040404040404041010101055
:1053D0001010104141414141410101010101010110
:1053E0000101010101010101010101010110101080
:1053F00010101042424242424202020202020202E3
:105400000202020202020202020202020210101052
:10541000102000000000000000000000000000005C
:10542000000000000000000000000000000000007C
:10543000000000000000000000000000000000006C
:10544000000000000000000000000000000000005C
:10545000000000000000000000000000000000004C
:10546000000000000000000000000000000000003C
:10547000000000000000000000000000000000002C
:10548000000000000000000000000000000000001C
:105490000000D4D400000406362E342E30004275AD
:1054A000696C7420776974682052656E65736173E6
:1054B00020416476616E63656420466C657869623C
:1054C0006C6520536F667477617265205061636B01
:1054D0006167652076657273696F6E20362E342E93
:0254E00030009A
:0454E40008000000BC
:0200000402C92F
:04F04000FFFFFFFFD0
:04F04400EFFFFFFFDC
:04F0C000FFFFFFFD52
:04F0C400FFFFFFFF4C
:04F1200000000000EB
:04F1240000000000E7
:04000005020037714D
:00000001FF
