:020000040200F8
:1000000000040022791C0002591B0002891C000216
:10001000891C0002891C0002891C0002891C000244
:10002000000000000000000000000000891C000229
:10003000891C000200000000891C0002891C0002CB
:04004000610E00024B
:100050002DE9F04381B000EB400040F22C43C2F2A6
:100060000023154603EBC003894603F11808D86A3C
:10007000022819D001280CD048B9D8F80C40D8F87B
:100080001000E143A04267D90844A8426AD2002682
:1000900089E0D8F80C40D8F81010A14233D9E043D9
:1000A0000144D8F8080033E0D8F80C40002621E0DD
:1000B000D8F8081010440844091B884250EA3180DF
:1000C0004946A84250EA3587D8F8040020443A4609
:1000D00001F052FF3819D8F80810411AA5EB0705AE
:1000E00050EA11843E44B944002DBFF35F8FC8F835
:1000F0000C4058D0D8F81000E243A042D8D91044A0
:10010000D8F80810D8E7E243D8F8080011440144B1
:10011000A94251EA3586051BD8F804002044AE42B6
:1001200009D24946324601F027FFBFF35F8F3019ED
:10013000C8F80C0037E049462A4601F01DFF771B3E
:10014000D8F8040009EB05013A4601F015FFBFF3AA
:100150005F8FC8F80C7026E0D8F8082008441044D7
:10016000A84294D3D8E901010E1B2044B54209D21C
:1001700049462A4601F000FFBFF35F8F6019C8F8B7
:100180000C000FE04946324601F0F6FEAF1BD8F8EE
:10019000040009EB06013A4601F0EEFEBFF35F8F63
:1001A000C8F80C702E46304601B0BDE8F083D4D4B8
:1001B000F0B581B040F22C450C46C2F200252B78F8
:1001C000532B37D00646A8212846174601F0D0FE0B
:1001D00003202861686142F2B06040F2D441C0F26D
:1001E0000020A861C2F20021E9614FF40061296298
:1001F0000021A9626962E96240F6D44228664FF0A4
:10020000100E42F2FE00C2F200226A66C5F868E0F3
:100210002967E9666967BFF35F8FC0F200200F307E
:1002200010F8011905F8011B0FF007C03A463046D7
:10023000BFF35F8FEFF311854FF0200181F3118839
:100240002146FFF705FF85F3118801B0F0BDD4D436
:100250002DE9F04F9BB092460F464FF000090490F5
:100260001A900DF1580B002006A916914021179104
:10027000CDE918990EE0011DCAF800100168CDE91A
:1002800000385846234600F01BFA1998B0F1FF3F9A
:1002900040F3128217F8011B25291DD0002900F018
:1002A000FB81DDE91720431C934207D8169A1154AD
:1002B00018931998179A0130199018469042E4D172
:1002C00016991A98FFF774FF1899884240F0DF8159
:1002D000CDF86090D9E700BF4FF000083978A1F160
:1002E00023030D2B18D80222DFE803F00E16161692
:1002F0001616161610161216160748EA02080137C7
:10030000ECE700BF00BF00BF0822F6E70422F4E7D5
:100310000122F2E700BF00BFA1F13A02002312F16F
:100320000A0F0FD30A4600BF17F8011F03EB830320
:10033000A1F13A0602EB430216F10B0FA2F13003D2
:100340000A46F1D82E290FD13A4612F8016F2A2E0B
:100350000DD1DAF8001002370A1DCAF800200C6827
:1003600001211DE000BF00BF0021002418E0A6F11C
:100370003A0717F10A0F02D2002100240FE00024EF
:1003800012F8011F04EB8407A1F13A0506EB4707B9
:1003900015F10B0FA7F130040E46F1D801211746D5
:1003A00017F8012B02F0FB06682EF9D0A2F15806CF
:1003B000202E26D8DFE806F01211111111111111AB
:1003C000111111163C1111111111111111111111ED
:1003D0006C11117911381111120056E7DAF800008A
:1003E000102248E7DDE91720411CDAF8003091427D
:1003F00003F10406CAF800603FF660AF169A1B6866
:100400000AE0252A7FF441AFDDE91720411C914223
:100410003FF654AF169A2523135418911998179A3A
:1004200001301990084649E7DAF800000A2222E76D
:10043000DAF800104CF6CD4C0A1DCAF800200A6804
:1004400005925142002A48BF0A460A2ACCF6CC4CF3
:1004500003914FF0010107DBA2FB0C56632A01F167
:1004600001014FEAD602F7D88C4254EA81895E46F0
:10047000002B58D0059908F0040200295FEA5F912B
:1004800041EA9201A3EB010B5FEA887550D473E057
:10049000DAF800001022011DCAF8001001680823D4
:1004A0000820CDE900095846EDE6DAF80020131DD2
:1004B000CAF80030126842F21C33002AC0F200234E
:1004C00052EA13865FEA01880BE000BF00BF00BF5D
:1004D0001998CDF86090B0F1FF3FA4F101047FF7C7
:1004E000D4AE16F8011B002C5FEA188200293FF4F5
:1004F000CCAE002A7FF4C9AEDDE917235D1C95421E
:1005000007D81698C1542B461998179A0130189598
:1005100019909342DFD116991A98FFF749FE18995E
:100520008842D5D0B3E04FF0000B5FEA887523D541
:1005300014BB002800F1A7800598B0F1FF3F47DD0C
:100540005FEA487064D5DDE91720411C914208D864
:10055000169A2B23135418911998179A0130199051
:100560000846904254D116991A98FFF721FE18991F
:100570008842059944D08AE05FEAC871D9D1BBF1BD
:10058000000FD6D0029502E00028AB467BD4ABF139
:1005900001055D4538BFD94536D2DDE917214B1C31
:1005A000934208D816982022425419461998179A4F
:1005B0000130189319909142E6D116991A98FFF7D5
:1005C000F7FD1899884262D1002018901998DBE74E
:1005D000DDE91720411C914208D8169A2D231354A7
:1005E00018911998179A01301990084690420DD128
:1005F00016991A98FFF7DCFD18998842039946D19D
:1006000000201890059103E0029D92E70398059061
:100610001998002850D4002D0BD40A223046059991
:100620002346CDE900B8B34600F04AF84FF0000980
:100630002BE608F001012143EFD1BBF1000FECD014
:10064000ABF101055D4538BFD945E6D2DDE917219B
:100650004B1C934208D816983022425419461998D8
:10066000179A013018931990914209D116991A9846
:10067000FFF79EFD1899884209D10020189019981B
:100680000028AB46DCD54FF00009B346FDE54FF03E
:10069000FF301BB0BDE8F08F40B1189A52B106A9E7
:1006A0000498FFF785FDDDE9181004E000201BB079
:1006B000BDE8F08F002108441BB0BDE8F08FD4D412
:1006C0002DE9F04F81B015468B4691421F460446F6
:1006D000DDF828904FF0010007D3594600BF00BF56
:1006E000B1FBF5F10130A942FAD2874257EA80887E
:1006F000B9F1000F0B9938D011F0010035D18807FE
:100700004FF0200048BF30202021002F50EA018602
:100710004FF0000A06E000BFE068A9F10109B0F15E
:10072000FF3F22DDB9F1000F1FD0C8451DD2D4E92B
:100730000120411C914207D822681654A160E0684C
:1007400062680130E06008469042E5D12168206986
:10075000FFF72EFDA168884202D1C4F808A0DBE7AC
:100760004FF0FF30E060A9F10109E068002842D4B1
:10077000012603E000BF00BF013F6E43022FFBD202
:10078000BBFBF6F1A942F8D242F61427A268C0F2E8
:10079000002700BF00BF00BF6168531CBBFBF6FA17
:1007A0008B4209D8206817F80A1081541A46E0686D
:1007B00061680130A360E0608A4209D12168206944
:1007C000FFF7F6FCA26890420CD10022E068A2601C
:1007D00000280AD4B6FBF5F10AFB16BBB5420E465B
:1007E000DAD902E04FF0FF30E0600B99C90718BF7B
:1007F000B9F1000F02D101B0BDE8F08F2025A9F1B9
:1008000001064E4538BFC845F5D26168531C8B427E
:1008100007D8206885541A46E06861680130A360F3
:10082000E0608A4209D121682069FFF7C1FCA16814
:10083000884207D10022E068A260B0F1FF3FB146D4
:10084000DDDCD8E74FF0FF30E06001B0BDE8F08FAD
:1008500082B080B582B0CDE9042304AA019201AA36
:10086000FFF7F6FC02B0BDE8804002B07047D4D478
:1008700084B00020039003A801F016F99DF80F3012
:1008800042F2573142F248129DF80D709DF80E6009
:10089000C0F20021C0F200220020CDE90067FFF77E
:1008A000D7FF42F2C3610020C0F20021FFF7D0FF62
:1008B00042F273110020C0F20021FFF7C9FF42F697
:1008C0008C74C0F20024208878B942F20F11002005
:1008D000C0F20021FFF7BCFF42F277510020C0F2C6
:1008E00000210622FFF7B4FF00BE4EF64020C4F2FE
:1008F0000100017889073AD5017801F0FD01017006
:1009000042F22D510020C0F20021FFF7A1FF6068E4
:100910000122018840F6E840C2F2002000F028FBE6
:1009200028B342F24C6542F22332C0F2002542F273
:100930004C130446C0F20022C0F2002300202946D6
:10094000FFF786FF42F2B96242F22813C0F200229A
:10095000C0F2002300202946FFF77AFF42F27751C8
:100960000020C0F200212246FFF772FF00BE40F6D1
:10097000F04042F62421C2F20020C0F2002100F033
:100980009BF8C0B142F24C6142F2B96242F2686334
:100990000446C0F20021C0F20022C0F20023002071
:1009A000FFF756FF42F277510020C0F200212246A5
:1009B000FFF74EFF00BE42F297510020C0F2002127
:1009C0004FF00009FFF744FF40F6E44A42F288681E
:1009D00040F6F04542F22B6642F24C6742F2B964AF
:1009E000C2F2002AC0F20028C2F20025C0F200269E
:1009F000C0F20027C0F2002411E000BF00BF00BF1A
:100A000042F277510020C0F200215A46FFF720FF42
:100A100000BE00203146FFF71BFF8AF800909AF8CD
:100A200000000128FBD100204146FFF711FF2846B6
:100A300000F096F90028ECD042F2046383460020CF
:100A400039462246C0F20023FFF702FF284600F095
:100A50009FF90028D4D042F236330020394622468E
:100A6000C0F20023FFF7F4FECAE7D4D4D4D4D4D420
:100A70000079012818BF704740F6E4400121C2F216
:100A8000002001707047D4D4022818BF704740F688
:100A9000E84042F6AC41C2F20020C0F2002100F072
:100AA0005BBAD4D4D4D4D4D480B5FFF7E1FE00200F
:100AB00080BDD4D4D4D4D4D42DE9F04F85B08146B0
:100AC0000D68052D4160D1E90302C9F80800C9F895
:100AD00010204FF00000C9F80C0000F2F18040F641
:100AE00004506E1EC2F20020022D40F826901BD842
:100AF00048798C79002800F0ED80042815D0012871
:100B000040F0FA8091F90920897A4EF2001044F001
:100B10000404CEF20000002A4FEA011100F1F18036
:100B2000831883F80013F3E000244FF0000AD9F88B
:100B30000400022590F90800411C13D005FA01F1C8
:100B400043F6095251434CF2C062C0F22D02050136
:100B500002EB8111CA0B1D2A4FF01D0288BFCA0B80
:100B6000501C00E01E2001904EF634370220C4F2E3
:100B7000010701F059F8387845EA0A0B01214FF0D6
:100B8000050E002842F6D8431CBF00203870D9F863
:100B900004000294C0F200230022D0F800A0EFF37A
:100BA000108C81F310880DF10F05F6461F4606E004
:100BB000013201350437BEF1010E00D10EE001FA19
:100BC00002F010F01B0FF3D03868047804F08004B2
:100BD0002C70047804F07F040470E9E753F8268051
:100BE0004FF0050E0025012298F80000D9F80410F6
:100BF00000F0E0000979084388F80000D9F8040003
:100C000042F6EC41C0F20021407951F82610032849
:100C10005FEA1F9008700DF10F01F6460CE000BF6F
:100C200008781F683C78204338700135043301315F
:100C3000BEF1010E00D109E002FA05F010F01B0F21
:100C4000F3D0AE42ECD180204746EBE72AF001001A
:100C50008CF31088042842F6C440C0F2002008BF7C
:100C60004BF0400B50F826504BF00800287042F62D
:100C70000050C0F20020029950F826000170D9F807
:100C800004000168022909D842F6BC400021C0F2E4
:100C9000002050F826000170D9F80400407904289B
:100CA00003D0287840F0090028700121019800F055
:100CB00003FF287840F00C002870022000F088FF25
:100CC00045F244610020C0F24C01C9F8001005B0A3
:100CD000BDE8F08F681C40F6E961C0B2C0F20021A7
:100CE00000F02EFF4CF200110220C4F20001A840D7
:100CF0004FF0000A08601AE7C879C00100F1400A05
:100D000015E74EF6145702F00F03CEF20007D9553F
:100D10004CF2001140F67053C4F20001C2F20023FD
:100D200001EB8201012743F822904FF0000AD1F82D
:100D3000003223F48033C1F80032D1F80012510997
:100D400002F01F02BFF35F8F00EB810307FA02F28C
:100D5000C3F8802140F82120E9E6D4D4D4D4D4D4F7
:100D600010B50446022000F05FFF606800680228AA
:100D700009D842F6BC41C0F2002101EB80000021FD
:100D800050F8040C0170022000F022FF002010BD7A
:100D9000F0B581B00446406890F9091011F12102C4
:100DA00010D04EF2801301F01F004909CEF200036B
:100DB000012202FA00F043F82100BFF34F8FBFF386
:100DC0006F8F60680068052845D80228A0F10105EA
:100DD00004D801300021C0B200F0B2FE0220022788
:100DE00000F022FF42F6C440C0F2002050F8256017
:100DF000307800F0F30008303070606890F9080037
:100E000001300FD007FA00F043F6095148434CF285
:100E1000C061C0F22D0101EB8010012101EBD03047
:100E200000F04AFE307800F0F4000A30307042F6EC
:100E3000D840C0F2002050F82500017801F07F0171
:100E40000170022000F0C4FE40F604500021C2F2FE
:100E5000002040F8251000200021216001B0F0BDE5
:100E6000B0B584B04FF07041EFF3038001EB006048
:100E70004CF200318015C4F20001425822F4803255
:100E8000425040F670524158C2F200221458616834
:100E9000E0680968A1F1010230B1D0E900C58368BA
:100EA0000393CDE901C500E001A842F6BC43C0F2BE
:100EB000002353F822502A780160A168C2F340024F
:100EC0000271226982608847E06810B101AB0ECBE5
:100ED0000EC0022000F0A8FE00202870022000F0C2
:100EE00077FE04B0B0BDD4D4B0B584B040F60451A0
:100EF000C2F2002101EB800050F8084C6168E06804
:100F00000968A1F1010230B1D0E900C583680393FB
:100F1000CDE901C500E001A842F6BC43C0F20023C0
:100F200053F822502A780160A168C2F3400202718E
:100F3000226982608847E06810B101AB0ECB0EC019
:100F4000022000F071FE00202870022000F040FE18
:100F500004B0B0BDD4D4D4D480B545F25422C5F287
:100F60004F020260084600F01FF8002080BDD4D474
:100F700010B5CBB2012098406FF0010E84B20EEA9A
:100F8000D110002A40F208024FF4803C4FEA0011D1
:100F9000C4F240024FF0000008BF0CFA03F45450B2
:100FA00010BDD4D4D4D4D4D470B5044600F064F8C1
:100FB00040F66C5CEFF31081C2F2002C012080F34C
:100FC0001088DCF8000038B940F614500022C4F252
:100FD0004000027040220270DCF800000130CCF8C2
:100FE000000081F31088208830B340F6000E002105
:100FF000C4F2400E08E000BF0EEB8010013140F853
:1010000022302088814217D2606800EBC10250F87C
:1010100031309288D8034FEA1220D2B2ECD50EEBD1
:10102000801555F8226026F4803645F8226023F4B6
:10103000803645F82260DFE70120EFF3108180F36E
:101040001088DCF8000020B1DCF800000138CCF892
:101050000000DCF8000010B181F3108870BD40F68C
:1010600014500022C4F2400002708022027081F30A
:10107000108870BDD4D4D4D42DE9F04F81B004468B
:101080000088002867D04EF64C4B0025C4F2010BB7
:101090004FF0010A04E000BF2088013585425AD292
:1010A00042F6145642F240080027C0F20026C4F26D
:1010B00020080CE000BF00BF88F80000C820012114
:1010C00000F0FAFC013708F10208032FE4D0606851
:1010D00036F8021B00EBC50082888A42F2D1006814
:1010E0009BF8001000F0B8500AFA07F9B0F1807FC1
:1010F00009EA010018D158B9012000F095FD9BF8CC
:10110000000040EA09008BF80000012000F060FDBB
:1011100098F900000028D5D498F8000040F080002D
:10112000CAE700BF00BF00BF58B1012000F07CFD3E
:101130009BF8000020EA09008BF80000012000F075
:1011400047FD98F90000B0F1FF3FBBDC98F80000C4
:1011500000F07F00B0E701B0BDE8F08FD4D4D4D464
:101160004EF22401C4F201018878098801F00F02CF
:10117000A2F1080103293BD8DFE801F0022C101E80
:1011800040F20041C2F2002151F820004AF6AB21A2
:10119000CAF6AA21A0FB0101480830E040F2004154
:1011A000C2F2002151F820004AF6AB21CAF6AA216A
:1011B000A0FB0101C80822E040F20041C2F2002178
:1011C00051F820004AF6AB21CAF6AA21A0FB010182
:1011D000080914E040F20041C2F2002151F8200059
:1011E0004AF6AB21CAF6AA21A0FB0101880806E055
:1011F00040F20041C2F2002151F82000D04040F6F8
:101200008051C2F2002108607047D4D4D4D4D4D421
:101210002DE9F04782B00FF268604EF2FA3840F2E2
:101220000046C4F201084AF2015190ED001FC2F2DB
:1012300000260FF25C60CFF6FF714EF255050231C9
:10124000A8F8001086ED001F06F12003C4F2010586
:1012500090ED001F48F2004040F60001C1F2D77047
:1012600043F6000286ED041FC2F6AF71C1F69C4240
:1012700007C315F82F0C35F8311C01F00F02A2F14D
:10128000080103292BD8DFE801F002200C164AF6EA
:10129000AB2156F82000CAF6AA21A0FB010148089C
:1012A00020E04AF6AB2156F82000CAF6AA21A0FB9E
:1012B0000101C80816E04AF6AB2156F82000CAF62C
:1012C000AA21A0FB010108090CE04AF6AB2156F85F
:1012D0002000CAF6AA21A0FB0101880802E056F806
:1012E0002000D04040F6805A4EF60044C2F2002A58
:1012F000C4F201040A214EF60147CAF800004FF675
:101300005060CFF6FF70C4F201072154092085F820
:101310004D00207818B93878800700F0A88220782E
:1013200048B901202070C820012100F0C5FB00BF92
:1013300020780128FCD10020387020704AF2015931
:10134000002005F81F0C05F8230C00BF00BF00BFEC
:1013500015F8190C0007FBD542F602314EF6145071
:10136000C0F20101C5F8731040F2234125F8071CB3
:10137000002205F80B2C4FF60211C5F8571040F269
:10138000514125F8091CCEF200004EF20001BFF3D6
:101390004F8FBFF36F8F0368CEF2010123F4003348
:1013A0000360C0F83C22BFF34F8FBFF36F8F0A6812
:1013B00022F440520A60BFF34F8FBFF36F8F15F8CE
:1013C000412C02F0F802013205F8412C00BF00BFA9
:1013D00015F8412CD206FBD40A6842F440520A6048
:1013E000BFF34F8FBFF36F8F0168890312D4BFF330
:1013F0004F8FBFF36F8F0021C0F83C12BFF34F8FA8
:10140000BFF36F8F016841F400310160BFF34F8F6C
:10141000BFF36F8F002005F82B0C00BF00BF00BF8B
:1014200015F8190C8006FBD54CF200040020C4F21C
:10143000130420702078207820786068FA2807D07C
:10144000FA20C1F6006000BF60606168FA29FBD134
:10145000A0687D2808D07D20CEF2001000BF00BF1C
:10146000A060A1687D29FBD143F23240C3F2232062
:1014700045F8350C42F2202025F8310C052005F8FE
:101480002F0C15F82F0C35F8311C01F00F02A2F1CA
:10149000080103292BD8DFE801F002200C164AF6D8
:1014A000AB2156F82000CAF6AA21A0FB010148088A
:1014B00020E04AF6AB2156F82000CAF6AA21A0FB8C
:1014C0000101C80816E04AF6AB2156F82000CAF61A
:1014D000AA21A0FB010108090CE04AF6AB2156F84D
:1014E0002000CAF6AA21A0FB0101880802E056F8F4
:1014F0002000D040CAF800001E200121012700F082
:10150000DBFA60686FF39F20652828BF277015F805
:101510002F0C35F8311C01F00F02A2F1080103294C
:101520002BD8DFE801F002200C164AF6AB2156F862
:101530002000CAF6AA21A0FB0101480820E04AF6D3
:10154000AB2156F82000CAF6AA21A0FB0101C80869
:1015500016E04AF6AB2156F82000CAF6AA21A0FBF5
:10156000010108090CE04AF6AB2156F82000CAF642
:10157000AA21A0FB0101880802E056F82000D04013
:1015800042F20001CAF80000C4F200010120A1F8F3
:101590000090BFF35F8F08724FF42540BFF35F8F59
:1015A000088095F8850040F0400085F8850000BF70
:1015B00095F98500B0F1FF3FFADC032085F87F0044
:1015C000C92085F8850095F8850000F0BF0085F8F2
:1015D000850000BF00BF00BF95F985000028FBD43F
:1015E000012005F8250C05F8030C05F8020C002075
:1015F00005F8170C802005F8170CE87F40F0400034
:10160000E87700BF00BF00BF95F91F00B0F1FF3FB2
:10161000FADC0720E8754A20E8770A20E87700BF5F
:1016200095F91F000028FBD40720ADF806000DF146
:10163000060000F035F995F8210040F0400085F8EB
:10164000210000BF00BF00BF95F92100B0F1FF3FAE
:10165000FADC03206876CA2085F8210095F821007D
:1016600000F0BF0085F8210095F921000028FBD487
:10167000287840F04000287095F90000B0F1FF3F55
:10168000FADC022005F8010CCA202870287800F046
:10169000BF00287000BF00BF95F900000028FBD4F0
:1016A000A87840F04000A87095F90200B0F1FF3F23
:1016B000FADC00206870C720A870A87800F0BF008E
:1016C000A87000BF00BF00BF95F902000028FBD43E
:1016D000287A40F04000287295F90800B0F1FF3FE9
:1016E000FADC0120E871C6202872287A00F0BF00D9
:1016F000287200BF00BF00BF95F908000028FBD486
:1017000095F8230040F0400085F8230000BF00BF9B
:1017100095F92300B0F1FF3FFADC0220E876C920FA
:1017200085F8230095F8230000F0BF0085F823001A
:1017300095F923000028FBD495F8220040F04000E2
:1017400085F8220000BF00BF95F92200B0F1FF3FED
:10175000FADC0420A876CA2085F8220095F8220039
:1017600000F0BF0085F8220095F922000028FBD484
:10177000A87940F04000A87195F90600B0F1FF3F4C
:10178000FADC02206871CA20A871A87900F0BF00B5
:10179000A87100BF00BF00BF95F906000028FBD468
:1017A00095F8860040F0400085F8860000BF00BF35
:1017B00095F98600B0F1FF3FFADC022085F8800041
:1017C000C52085F8860095F8860000F0BF0085F8F2
:1017D000860000BF00BF00BF95F986000028FBD43B
:1017E00095F8870040F0400085F8870000BF00BFF3
:1017F00095F98700B0F1FF3FFADC012085F8810000
:10180000C52085F8870095F8870000F0BF0085F8AF
:10181000870000BF00BF00BF95F987000028FBD4F8
:1018200095F8890040F0400085F8890000BF00BFAE
:1018300095F98900B0F1FF3FFADC092085F88300B3
:10184000C92085F8890095F8890000F0BF0085F867
:10185000890000BF00BF00BF95F989000028FBD4B4
:101860004FF42540A8F8000002B0BDE8F0874FF41F
:101870007A7000F0CDF861E500BF00BF00BF00BF87
:10188000006CDC0200127A000080000000366E015D
:101890000080000000CA9A3B0046C3235543DE1374
:1018A0002DE9F04F81B04EF2FA3143F20406C4F252
:1018B00001018246C4F220064AF20350B1F80090BA
:1018C00008804FF0010B00254FF4803401270020E1
:1018D00008E000BF00BF00BFF8074FF001004FF065
:1018E000000716D004FA00F132680A42F4D1EFF38F
:1018F00010888BF3108832680BFA00F011433160C6
:10190000316805431E20012100F0D6F888F31088C5
:10191000E2E74EF2750740F20041C4F20107C2F25D
:101920000021387800F00F0051F8200017F8081C4B
:1019300001F00F01022901D801220BE0CA1E052A7D
:1019400006D242F66871C0F2002151F8221003E07D
:101950000839102202FA01F1B0FBF1F04DF6836173
:10196000C4F21B31A0FB01016FF0010000EA5140FD
:10197000012100F0A1F8387840F04000387000BF35
:1019800097F90000B0F1FF3FFADC9AF8010007F880
:10199000080C9AF8000040F0400038709AF80000F7
:1019A000387000BF00BF00BF97F900000028FBD4CB
:1019B00000204FF0010A4FF48038012406E000BFF8
:1019C000E0074FF001004FF0000415D025FA00F1B8
:1019D000C907F5D0EFF310878AF3108808FA00F0F2
:1019E000316821EA0000306030681E20012100F0DB
:1019F00063F887F31088E3E74EF2FA3149F42540A3
:101A0000C4F20101088001B0BDE8F08FD4D4D4D471
:101A10007047D4D4D4D4D4D4B0B542F22404C8206E
:101A2000C4F2200401210025257100F045F825703D
:101A3000207808B12FF005C0207840F00200207017
:101A400020788007FCD4002004F8020C00BF00BFFF
:101A500014F8020C08B12FF005C84FF0030E002057
:101A600004F11C0100BF00BF11F8102002F07F023A
:101A700001F8102000BF00BF11F91020002AFBD48C
:101A800001300FF00FC8012000F0CEF84EF64C41A7
:101A90000120C4F2010100220A70BDE8B04000F04C
:101AA00097B8D4D4D4D4D4D4014600220020C0F2B4
:101AB00004620A607047D4D440F6805241F2002399
:101AC000C2F20022C0F27A03484312689A420FD34E
:101AD00044F23F21C0F20F0111444DF68362C4F27B
:101AE0001B32A1FB0212910CA0FB0101C9B11DE048
:101AF0004CF60021C3F69A31B1FBF2F148F63812E8
:101B0000C0F24102904205D24FF47A725043B0FBCA
:101B1000F1F006E0B0FBF1F0904207D24FF47A7199
:101B20004843002808BF704700F006B84FF0FF3068
:101B300000F002B8D4D4D4D401380028FCD17047C6
:101B400040F618530246C2F20023002043F8221048
:101B50007047D4D4D4D4D4D4F0B581B04CF220158D
:101B600040F61857C4F200050024C2F2002755F8C9
:101B7000200C296801EA000606E000BF00BF00BF94
:101B800001340437152C09D026FA04F0C007F7D029
:101B900039680029F4D020468847F1E745F8106CF1
:101BA00028683042FCD101B0F0BDD4D4D4D4D4D410
:101BB00042F6B840C0F200200088002808BF7047F5
:101BC0004CF20031C4F2000108607047D4D4D4D480
:101BD000EFF31081012282F3108840F67452C2F2B2
:101BE000002232F8103023B132F81030013B22F8D5
:101BF000103032F8102012B181F3108870474EF285
:101C0000FA3242F67C7CC4F20102C0F2002C138846
:101C10003CF8100043F4254323EA0000108081F3D0
:101C200010887047D4D4D4D410B5EFF310810122BA
:101C300082F3108840F67452C2F2002232F810305B
:101C400083B94EF2FA3E42F67C7CC4F2010EC0F239
:101C5000002CBEF800403CF81030234343F42543E9
:101C6000AEF8003032F81030013322F8103081F332
:101C7000108810BDD4D4D4D400F00AF8FEF714FFB5
:101C8000FEE7D4D4D4D4D4D400BE7047D4D4D4D4B2
:101C90002DE9F04381B04EF6085840F20120CEF213
:101CA0000008C0F20E004EF20004C8F80C00CEF29C
:101CB0000104BFF34F8FBFF36F8F58F8081CC1F3B7
:101CC000035001285FEA1F9211F00F0F5FEA0F9196
:101CD0001142216811D102280FD241F00400206086
:101CE0004EF20800BFF34F8FCEF20000BFF36F8FAC
:101CF000016841F48031016002E021F004002060BD
:101D0000BFF34F8FBFF36F8F4FF4700040F20001AD
:101D1000C8F880000020C0F20021C8F8001000259B
:101D2000FEF7B2FEFFF774FA4EF2FA304EF6B0222A
:101D3000C4F20100C4F201024AF20251018015709E
:101D40004FF4254101800120FEF79EFE40F2000085
:101D5000C2F2002080F30A882068800724D5D8F8D2
:101D60000000B0F1007F1FD120694FF40071C0F373
:101D7000C300626901FA00F3C2F3C300814000208E
:101D8000DA08CB080146074642F007C000BF00BF93
:101D9000E7E802010FF005C04FF0005243F005C024
:101DA000E2E802010FF005C042F63C54C0F2002404
:101DB000276897B160683E46051D05E000BF00BF7B
:101DC000013E05F10C0508D068790028F8D155E9E5
:101DD0000101091A00F0CCF8F2E7D4F80890B9F143
:101DE000000F13D0E0684E4600F1080504E000BF84
:101DF000013E05F1100509D068790028F8D155E9B0
:101E000002022968121A00F0B7F8F1E7FFF7A8F903
:101E1000FFF702FE0320FFF707FF4FF00E0E40F61C
:101E20003050C4F24000002120F8041B0FF005C020
:101E30000320FFF7CDFE0320FFF7F6FE44F2040077
:101E40000021C4F22000016041608160C160032074
:101E5000FFF7BEFE0220FEF717FE9FB160684FF449
:101E60008076051D04E000BF013F05F10C0509D097
:101E70006879B6EB002FF7D155E90101091A00F096
:101E800077F8F1E7B9F1000F16D0E0684FF48075EC
:101E900000F1080405E000BFB9F1010904F11004E4
:101EA0000AD06079B5EB002FF6D154E9020221681F
:101EB000121A00F061F8EFE740F68854C2F20024ED
:101EC000204600F032F8204600F047F8BFF34F8F6D
:101ED000BFF36F8F0020C8F8480242F6E27042F666
:101EE000E271C0F20020C0F20021BFF34F8F081A48
:101EF000BFF36F8F8410012C0BDB42F6E275C0F24A
:101F0000002500BF00BF00BF55F8040B8047013C0F
:101F1000FAD1FFF74DFE002001B0BDE8F04300F01C
:101F200003B8D4D4D4D4D4D4704710B540F244010B
:101F300040F20002C0F20021C0F20002044600F0AC
:101F40001BF840F2000040F20001C0F20000C0F2B5
:101F50000001204400F00CF810BD40F20801C0F26E
:101F60000001401A40F68451C2F200210860704717
:101F70000A46002100F076B8844641EA000313F0D7
:101F8000030349D1403A23D30B6803604B68436095
:101F90008B688360CB68C3600B6903614B694361E5
:101FA0008B698361CB69C3610B6A03624B6A4362CD
:101FB0008B6A8362CB6AC3620B6B03634B6B4363B5
:101FC0008B6B8363CB6BC36340304031403ADBD2D1
:101FD00030320BD30B6803604B6843608B688360BF
:101FE000CB68C36010301031103AF3D20C3205D3F5
:101FF00051F8043B40F8043B043AF9D2043208D0CB
:10200000D2071CBF11F8013B00F8013B01D30B883C
:1020100003806046704700BF082A13D38B07B1D0F6
:1020200010F00303AED0C3F10403D21ADB071CBFC8
:1020300011F8013B00F8013BA4D331F8023B20F832
:10204000023B9FE7043AD9D3013A11F8013B00F86B
:10205000013BF9D20B7803704B7843708B78837017
:102060006046704770B4840746D0541E002A41D0A1
:10207000CDB2034602E0621EE4B3144603F8015BEE
:102080009A07F8D1032C2ED9CDB245EA05250F2C9D
:1020900045EA054519D9264603F11002103E0F2ED8
:1020A00042F8105C42F80C5C42F8085C42F8045CB0
:1020B00002F11002F2D8A4F1100222F00F0204F093
:1020C0000F041032032C13440DD91E462246121F52
:1020D000032A46F8045BFAD8221F22F00302121DDD
:1020E000134404F003042CB1C9B21C4403F8011BCF
:1020F000A342FBD170BC704714460346C2E7000000
:102100000000000054545220524547474553000DEB
:102110000A4E6F206F6E2D626F617264204C4544D1
:102120007320466F756E64000D0A2A2A20556E6171
:10213000626C6520746F207475726E204C4544206B
:102140004F4E202A2A0D0A00312E30000D0A2A2A6D
:1021500020525F494F504F52545F50696E57726919
:10216000746520415049206661696C6564202A2AA3
:102170000D0A000D0A4E6F74653A0D0A312E205477
:102180006F2072756E204C5644206578616D706CBE
:10219000652070726F6A6563742C207573652065A5
:1021A000787465726E616C206465627567676572CC
:1021B00020666F7220666C617368696E6720746850
:1021C0006520636F64652C20646973636F6E6E6550
:1021D00063740D0A646562756767696E67206D6F69
:1021E000646520616E642072756E2074686520706D
:1021F000726F6A6563742E0D0A322E20546F20644C
:102200006574656374204C56443020526573657460
:102210002C20696E70757420766F6C746167652010
:1022200068617320746F20626520726169736564F0
:10223000206261636B2061626F76652074687265ED
:1022400073686F6C642076616C75652028566465D0
:102250007430290D0A6F6E636520697420697320DC
:1022600064726F707065642062656C6F772074684B
:10227000726573686F6C642076616C756520285692
:1022800064657430292E20546869732077696C6CFA
:10229000207475726E204F4E204C454420616E6450
:1022A000207072696E74204C5644302072657365DC
:1022B000740D0A646574656374696F6E206D65736F
:1022C00073616765206F6E204A2D4C696E6B2052DA
:1022D0005454205669657765722E205664657430B3
:1022E0002076616C7565732061726520646F63751B
:1022F0006D656E74656420696E20726561646D65DC
:102300002E74787420666F720D0A73706563696647
:10231000696320626F6172642E0D0A00284E554C6D
:102320004C2900636865636B5F72657365745F73E6
:102330007461747573000D0A2A2A20525F4C56444A
:102340005F436C6F736520415049206661696C651D
:1023500064202A2A0D0A000D0A2A2A2A2A2A2A2A51
:102360002A2A2A2A2A2A2A2A2A2A2A2A2A2A2A2ACD
:102370002A2A2A2A2A2A2A2A2A2A2A2A2A2A2A2ABD
:102380002A2A2A2A2A2A2A2A2A2A2A2A2A2A2A2AAD
:102390002A2A2A2A2A2A2A2A2A2A2A0D0A2A2020EE
:1023A0002052656E657361732046535020457861F5
:1023B0006D706C652050726F6A65637420666F7211
:1023C00020725F6C7664204D6F64756C65202020F0
:1023D00020202020202020202020202020202A0D06
:1023E0000A2A2020204578616D706C652050726F3C
:1023F0006A6563742056657273696F6E2025732059
:1024000020202020202020202020202020202020CC
:1024100020202020202020202020202020202020BC
:10242000202A0D0A2A202020466C657820536F66EA
:102430007477617265205061636B205665727369B1
:102440006F6E2025642E25642E25642020202020F8
:10245000202020202020202020202020202020207C
:1024600020202020202020202A0D0A2A2A2A2A2A59
:102470002A2A2A2A2A2A2A2A2A2A2A2A2A2A2A2ABC
:102480002A2A2A2A2A2A2A2A2A2A2A2A2A2A2A2AAC
:102490002A2A2A2A2A2A2A2A2A2A2A2A2A2A2A2A9C
:1024A0002A2A2A2A2A2A2A2A2A2A2A2A2A0D0A52A1
:1024B0006566657220746F20726561646D652E7447
:1024C00078742066696C6520666F72206D6F726526
:1024D0002064657461696C73206F6E204578616D4E
:1024E000706C652050726F6A65637420616E640D54
:1024F0000A46535020557365722773204D616E75DF
:10250000616C20666F72206D6F726520696E666FF8
:10251000726D6174696F6E2061626F757420725F95
:102520006C7664206472697665720D0A000D0A2A61
:102530002A2A2A2A2A2A2A2A2A2A2A2A2A2A2A2AFB
:102540002A2A2A2A2A2A2A204C56443020526573E5
:102550006574206465746563746564202A2A2A2A78
:102560002A2A2A2A2A2A2A2A2A2A2A2A2A2A2A2ACB
:102570002A2A2A2A0D0A000D0A52657475726E65A0
:1025800064204572726F7220436F64653A20307820
:10259000257820200D0A000D0A4C5644312069731D
:1025A00020656E61626C656420746F2067656E657E
:1025B000726174652061206D61736B61626C65206E
:1025C000696E74657272757074207768656E2074B8
:1025D000686520696E70757420766F6C74616765CC
:1025E000207261697365732061626F76652074681B
:1025F00065207468726573686F6C642076616C75B1
:10260000650D0A000D0A2A2A20525F4C56445F537A
:102610007461747573436C65617220415049206622
:1026200061696C6564202A2A0D0A000D0A4C564423
:10263000312053746174757320666C61672069730F
:1026400020436C65617265642E0D0A005B45525231
:102650005D20496E2046756E6374696F6E3A202561
:102660007328292C202573000D0A2A2A20525F4C3A
:1026700056445F4F70656E20415049206661696C19
:102680006564202A2A0D0A000D0A566F6C74616772
:1026900065205261697365642061626F766520749C
:1026A00068726573686F6C642076616C75652E0066
:1026B0005465726D696E616C0068616C5F656E7403
:1026C0007279000D0A546865206578616D706C65DB
:1026D0002070726F6A6563742064656D6F6E7374C9
:1026E00072617465732074686520747970696361C0
:1026F0006C20757365206F6620746865204C5644A5
:102700002048414C206D6F64756C652041504973C1
:102710002E0D0A546865206578616D706C652070B7
:10272000726F6A65637420656E61626C6573204CBC
:10273000564430206369726375697420746F207227
:1027400065736574204D435520616E64204C56447A
:102750003120746F2067656E65726174650D0A6D56
:1027600061736B61626C6520696E746572727570FD
:10277000742E0D0A0D0A4C56443020726573657430
:1027800073204D4355206F6E6C79207768656E20FD
:10279000696E70757420766F6C7461676520647201
:1027A0006F70732062656C6F77204C5644302074D4
:1027B00068726573686F6C642076616C75652C2037
:1027C00063617573696E6720746865204D43552099
:1027D000746F20706F776572206F66662E0D0A54D5
:1027E0006F2064657465637420746869732C207449
:1027F000686520757365722068617320746F206945
:102800006E6372656173652074686520766F6C74A1
:102810006167652076616C7565206261636B207409
:102820006F2061626F7665204C5644302074687268
:102830006573686F6C642076616C75652E0D0A4255
:102840007920646F696E6720746869732C204C4529
:10285000442077696C6C207475726E204F4E20692D
:102860006E6469636174696E67204C5644302072EF
:102870006573657420646574656374696F6E2E0D8D
:102880000A45783A20322E3856206973204C564437
:1028900030207468726573686F6C642076616C7543
:1028A000652E205768656E20696E70757420766F8E
:1028B0006C746167652069732064726F7070656401
:1028C0002066726F6D20322E395620746F20322EA2
:1028D00037562C0D0A4C564430207265736574735C
:1028E000204D43552E0D0A5468652075736572207E
:1028F00068617320746F20726169736520696E70FE
:10290000757420766F6C746167652061626F76659F
:1029100020322E385620616761696E20746F206402
:102920006574656374204C56443020726573657419
:102930002E0D0A0D0A4C5644312067656E65726192
:102940007465732061206D61736B61626C652069D1
:102950006E74657272757074206F6E6C7920776812
:10296000656E20696E70757420766F6C7461676532
:10297000206973207261697365642061626F766596
:10298000204C564431207468726573686F6C642003
:1029900076616C75652E0D0A45783A20322E3956CF
:1029A000206973204C564431207468726573686FD7
:1029B0006C642076616C75652E205768656E2069A1
:1029C0006E70757420766F6C746167652069732012
:1029D0007261697365642066726F6D20322E38569D
:1029E00020746F20332E30562C0D0A4C5644312063
:1029F00067656E65726174657320746865206D61CA
:102A0000736B61626C6520696E7465727275707447
:102A10002E0D0A00303132333435363738394142E1
:102A2000434445460100000006010001FF000C0080
:102A3000710A000200000000000000000080000099
:102A40000100000000800000020000000080000083
:102A5000030000000080000004000000008000006F
:102A6000050000000080000007000000004000009A
:102A70000800000000400000090000000080000085
:102A80000E000000008000000F0000000000011C8C
:102A9000000100000000011C010100000000011CF9
:102AA000020100000000011C030100000000011CE5
:102AB000040100000000011C050100000000011CD1
:102AC00006010000000001000802000000000100F3
:102AD00009020000000001000A02000000000100DD
:102AE0000B020000000001000C02000000000100C9
:102AF0000D020000000001000E02000000000100B5
:102B00000F02000004000000030300000000011891
:102B10000204000000000118050400000000011874
:102B20000604000000000113070400000000011467
:102B30000804000004000000000500000004010774
:102B40000B050000000401070C0500000400000054
:102B5000000600000000010401060000000001045E
:102B6000020600000000010403060000000001044A
:102B70000406000000000104050600000000011822
:102B80000007000000000118010700000000011804
:102B900002070000000001180307000000000118F0
:102BA0000507000000000118060700000000011CD6
:102BB000000800000000011C010800000000011CCA
:102BC000020800000000011C030800000000011CB6
:102BD000040800000000011C0808000000000113A8
:102BE0000E080000000001130F08000004000000A0
:102BF0000709000000000110080900000000011092
:102C000009090000000C0104020A0000000C010484
:102C1000030A0000000C0104040A0000000C010477
:102C2000050A000000000104060A0000040000007C
:102C3000070A000000000105080A00000000010565
:102C4000090A00000000010E0A0A00000000011835
:102C5000000B000000000118020B0000000001182A
:102C6000030B000000000118040B00000000011815
:102C70000B0C0000000001180C0C000000000118F3
:102C80000D0C000000000104020D00000000010412
:102C9000030D000000000104040D00000000010409
:102CA000050D000004000000070D00004E000000AC
:102CB0003C2A0002000000007000D4D4E1E0014092
:102CC000E3E0014070EA014074EA014078EA014023
:102CD0007CEA014080EA014058EA01405CEA014098
:102CE00060EA014064EA014068EA014020EB0140EB
:102CF00024EB014028EB01402CEB014030EB01407C
:102D0000E0E00140E2E00140E4E00140E6E00140B3
:102D1000E8E00140020403040404D4D40000006885
:102D200000000068000000800000008000000070CB
:102D30000000007000000022000000220B000000D4
:102D4000542D000219000000D82D000204000000DC
:102D50001C2D000200000068000000680001000D4A
:102D600000000068000000680001000D0000008005
:102D700000000080000100080000008000000080CA
:102D80000001000800000070000000700001000A4F
:102D900000000070000000700001000A0000000048
:102DA00000000000010000050000002000000020DD
:102DB00001000004000000220000002200000003C7
:102DC0002C040022880D002200000003880D002240
:102DD000880D002200000003000000680000006869
:102DE000000000900001090D00000068000000686C
:102DF0000000007800010B0D000000680000006872
:102E0000000000270001020D0000006800000068BB
:102E1000440000020001010D00000080000000805D
:102E20000000009000010908000000800000008000
:102E30000000007800010B08000000800000008006
:102E40000000002700010208000000800000008050
:102E50004400000200010108000000700000007042
:102E6000000000900001090A0000007000000070DE
:102E70000000007800010B0A0000007000000070E4
:102E8000000000270001020A00000070000000702E
:102E9000440000020001010A0000000000000000E0
:102EA0000000009001010905000000000000000082
:102EB0000000007801010B05000000000000000088
:102EC00000000027010002050000000000000000D3
:102ED0004400000201000105000000200000002065
:102EE0000000009001010904000000200000002003
:102EF0000000007801010B04000000200000002009
:102F00000000002701000204000000200000002053
:102F10004400000201000104000000220000002221
:102F200000000090000109030000002200000022C0
:102F30000000007800010B030000002200000022C6
:102F40000000002700000203000000220000002211
:102F50004400000200000103880D0022880D0022B9
:102F60004400000200000103060000000800000009
:102F700003000000050000000A000000010002003C
:102F800008001000200000060303070A03000000E9
:102F9000862F000200000406362E342E30004275C3
:102FA000696C7420776974682052656E657361730B
:102FB00020416476616E63656420466C6578696261
:102FC0006C6520536F667477617265205061636B26
:102FD0006167652076657273696F6E20362E342EB8
:022FE0003000BF
:0200000402C92F
:04F04000FFFFFFFFD0
:04F04400EFFFFFFFDC
:04F0C000F0FFFFFD61
:04F0C400FFFFFFFF4C
:04F1200000000000EB
:04F1240000000000E7
:0400000502001C7960
:00000001FF
