:020000040200F8
:1000000080040022013A0002D1380002113A0002B5
:10001000113A0002113A0002113A0002113A0002AC
:10002000000000000000000000000000113A000283
:10003000113A000200000000113A0002113A0002D9
:10004000B9210002F92000026123000211240002FC
:10005000E92C000251080002310900028907000260
:04006000B9090002D8
:10006400102B01AD004B00000102031112132122D9
:100074002331323320000000080000220301000075
:10008400210000000B0000220301000022000000F8
:100094000E000022030100002300000011000022D2
:1000A40003010000100000003C0D002202010000CA
:1000B400110000003C0D00220201000012000000AB
:1000C4003C0D002202010000130000003C0D002240
:0400D4000201000025
:1000E0002DE9F047044680780D46097820F003009A
:1000F000E561D5E90523471CD5F81C80A77048F2B7
:100100000007E362C4F2350707EB01216F78C4E909
:10011000081200212170A16217B940F00200A070FE
:1001200095F90B204EF20019CEF200090126500974
:1001300002F01F034CF2003AA97A09EB800006FA9C
:1001400003F3C4F2000A4EF6185CC0F88030CEF219
:10015000000CBFF34F8FBFF36F8F5AF82230002A85
:1001600023F480334AF822304FEA01115AF8223042
:1001700004D409EB020383F8001304E002F00F0338
:10018000634403F8041C95F9053040F6F45EC2F2AE
:10019000002E01215E0903F01F004EF8224001FAF3
:1001A00000F009EB86062979002BC6F880004FEA9B
:1001B0000112BFF34F8FBFF36F8F5AF8230020F463
:1001C00080304AF823005AF8230004D409EB0300D6
:1001D00080F8002304E003F00F00604400F8042CD2
:1001E00095F9072001264EF82340AB79500902F01B
:1001F0001F0106FA01F1002A09EB80004FEA031300
:10020000C0F88010BFF34F8FBFF36F8F5AF82200F2
:1002100020F480304AF822005AF8220004D409EB76
:10022000020080F8003304E002F00F00604400F8A0
:10023000043C95F909304EF822402A7A580903F017
:100240001F0106FA01F1002B09EB80004FEA0212B0
:10025000C0F88010BFF34F8FBFF36F8F5AF82300A1
:1002600020F480304AF823005AF8230004D409EB24
:10027000030080F8002304E003F00F00604400F85E
:10028000042C4EF823400120EFF3108680F31088F1
:1002900028784FF0004121FA00F043F20401C4F243
:1002A00020010A6822EA0000086008681E20012177
:1002B00003F0CAFA86F310884FF48061206A4FF485
:1002C00080428160E869E9786E78437802EA81319A
:1002D000077866F30921DA03437B92B207F003073C
:1002E00003F00103114441EA4352236A42EA0762E0
:1002F000416802F580525A61027802F0FE03022B37
:1003000007D14FF60471022ACFF6007108BF2031E1
:1003100000E00968226A11610C22017BAB788778C2
:1003200062F39F014FF44072022B08BF4FF48072BA
:10033000002B07F00103276A18BF114341EA03713C
:10034000F960226A002191612A78092A04D8226A78
:100350000023C1F61F735362B0F80F20807B236A1D
:1003600040EA022041F60172C0F21F0210401863F9
:10037000C4E90311206A1022C4E90511C9F6075225
:10038000B8F80A1021818266E06990F905104A09DF
:1003900001F01F035AF8210020F480304AF82100B0
:1003A0005AF8210009F5C0700121BFF35F8F01FAEF
:1003B00003F340F8223049F82230E26992F90B2029
:1003C0005AF8223023F480334AF822305AF8223087
:1003D000530902F01F02BFF35F8F01FA02F240F8E7
:1003E000232049F82320E26992F907205AF82230A5
:1003F00023F480334AF822305AF82230530902F0AD
:100400001F02BFF35F8F01FA02F240F8232049F880
:100410002320E26992F909205AF8223023F480332C
:100420004AF822305AF82230530902F01F02BFF373
:100430005F8F914040F8231049F8231040F211419A
:10044000206AC0F201018160206A00BF00BF00BFC6
:10045000017FC907FCD044F642110020C5F24331A8
:100460006160BDE8F087D4D4D0F820C0DCF8083053
:1004700023F44013CCF80830D0F820C000BF00BFF0
:10048000DCF848305B00FBD5DCF8083023F01003C3
:10049000CCF80830D0F820C09CF81C30DB06FBD428
:1004A000C0E903120020DCF8081041F01011CCF86C
:1004B00008107047D4D4D4D4026A4FF6EE73CFF646
:1004C000CE73D2F808C003EA0C039360026A0023DB
:1004D000C36009681161016A00202CF440128A602F
:1004E0007047D4D4D4D4D4D444F642124168C5F26F
:1004F000433291426DD1B0B5016A8A6822F440124C
:100500008A60016A8A6822F010028A60016A00BF6C
:100510000A7FD206FCD4C1694EF2801CCEF2000CD8
:10052000054691F907104A0901F01F03012101FA5C
:1005300003F34CF82230BFF34F8FBFF36F8FC269C4
:1005400092F90920530902F01F0201FA02F24CF855
:100550002320BFF34F8FBFF36F8F026A936823F49A
:1005600080339360C26992F90520530902F01F029B
:1005700001FA02F24CF82320BFF34F8FBFF36F8FC5
:10058000C26992F90B20530902F01F0201FA02F22C
:100590004CF8232043F20402BFF34F8FBFF36F8F59
:1005A000EFF3108481F31088C169C4F220024FF088
:1005B000004C1E20097813682CFA01F119431160D0
:1005C0001168012103F040F984F31088002068606D
:1005D000B0BD07207047D4D42DE9F04F8BB0FF2574
:1005E0001C46C0F2FE051B6803EA05074EF25403E1
:1005F000C4F2010347F0004747F47F4727601F78A4
:100600000E460192049007F00F07022F03D8012035
:1006100000FA07F70EE0F81E052806D246F22C4134
:10062000C0F2002151F8207004E0A7F10800102169
:1006300001FA00F7587848F2A069C0F2010900F009
:100640000F0003F0A9F80199494580F29180B0FBB1
:10065000F7F003904FF00008010A0691A0FB090192
:10066000CDE9091001210020059005F57F40089093
:100670000FE000BF00BF00BF019801210591029962
:1006800081455FEADF9001424FF000004FF000012A
:1006900072D00027029102E001370D2FECD046F214
:1006A0000240059AC0F20020C05D10F0060F5FEA1C
:1006B0000F918A42F0D146F21041049AC0F2002113
:1006C00031F8171002FB01FA0399B1FBFAFBBBF5F5
:1006D000807F98BF8A45DFD8C0F3C101702202EA4B
:1006E000001040EA015007900BFB0AF5DDE9091004
:1006F000EB172A4603F0FEFA76B10699B5FBF1F145
:10070000C9B28029C8D34843C21700EB1260001257
:1007100003E000BF00BF00BF002147F6601248F2AF
:10072000A063CFF6FE72C0F201031218ABF1010B09
:1007300048BF1A1A4A450DDA4FEA0B208F25236865
:1007400080B2CFF6CF7588462B40079D284391464F
:1007500018432060002E9FD0206808990840BBF104
:10076000000F40EA086040F480302060BCD193E77D
:1007700000200BB0BDE8F08F01998945C8BF032068
:100780000BB0BDE8F08FD4D410B584B04FF07041F9
:10079000EFF3038001EB00604CF200318015C4F2EE
:1007A0000001425822F48032425040F6F45241583F
:1007B000C2F200221458E06900690028206902D0C2
:1007C000E0B104B010BDC8B1A07800F00300022869
:1007D000E06805D10088216A20F4DC40486002E02E
:1007E000216A00780871A078E26800F003012069AE
:1007F000401A20611144E1600028E2D1206A0222FF
:10080000816862F315518160616A00200029E0600F
:10081000D7D0A06A40B1D0E900CED0E90223CDE91B
:100820000223CDE900CE00E06846E269E36A12786F
:100830000260802202710022C0E902238847A06A78
:1008400000281CBF9DE81E001EC004B010BDD4D4FB
:10085000B0B586B04FF07041EFF3038001EB00605C
:100860004CF200318015C4F20001425822F480326B
:10087000425040F6F4524158C2F200221458A07877
:1008800000F00302206A022A03D101686FF35F219E
:1008900000E00178A0690191D0B1606901A905F07B
:1008A000BFFCA078D4E9051200F003000144101A3F
:1008B000C4E9051037D1616AA9B3A06A00B3D0E9D1
:1008C00000C3D0E90252CDE90452CDE902C318E0D9
:1008D000626A42B3A06A40B1D0E900CED0E90235E5
:1008E000CDE90435CDE902CE00E002A8E369E56A6E
:1008F0001B78C0E9021503600423037190470AE0E6
:1009000002A8E269E36A1278026001220271002201
:10091000C0E902238847A06A28B102AD2ECD01604C
:1009200042608360C56006B0B0BDD4D4D4D4D4D402
:10093000B0B584B04FF07041EFF3038001EB00607D
:1009400040F6F4528115C2F200224FF6EF730416FE
:100950005558CFF6CF73296A8A681A408A60696A47
:10096000D9B1A86A40B1D0E900CED0E90223CDE9DF
:100970000223CDE900CE00E06846EA69EB6A12780E
:100980000260022202710022C0E902238847A86A9D
:1009900000281CBF9DE82E002EC04CF20030C4F28F
:1009A000000050F8241021F4803140F8241050F851
:1009B000240004B0B0BDD4D4F0B585B04FF0704180
:1009C000EFF3038001EB006040F6F4528115C2F2B0
:1009D00000225458A178236A01F00301022904D1AE
:1009E000D3F800C06FF35F2C01E093F800C09A6C5D
:1009F0002025082105EAD2454FF0100E01EA1261C8
:100A00001EEA126229440A4403D0996C090458BFB3
:100A10004032996E051641F0C8519966636AC3B1B8
:100A2000A06A40B1D0E900E1D0E90267CDE90367EF
:100A3000CDE901E100E001A8E169027109780160F6
:100A4000E16AC0E902C19847A06A10B101AF8ECF38
:100A50008EC04CF20030C4F2000050F8251021F492
:100A6000803140F8251050F8250005B0F0BDD4D4F1
:100A700046F254410268C0F2002109788A4244D10A
:100A8000017904290AD002293FD140F2DC40C2F2A8
:100A90000020017841F002010170704740F2DD4111
:100AA000C2F20021097881B340F2E041C2F2002194
:100AB0000A6880683F2A0FD80A68531C0B6040F20E
:100AC000E443C2F20023985440F2DC42C2F2002216
:100AD000137843F004031370C0B208280ED00D2819
:100AE00018BF0A2811D1086878B140F2DC40C2F280
:100AF0000020017841F0010101707047086800286A
:100B000008BF70470868013808607047D4D4D4D44F
:100B100040F6F051EFF31082C2F20021012080F381
:100B200010880868002840F61450C4F2400003D131
:100B300000230370402303700B6801330B6082F3C2
:100B400010884FF63862CFF6FF7240F60043C0F2CD
:100B5000014383504FF63462CFF6FF728350012376
:100B6000EFF3108283F310880B6813B10B68013B1D
:100B70000B60096819B9002101708021017010B55E
:100B800040F2AC4046F2544182F31088C2F2002099
:100B9000C0F20021FFF7A4FA00B110BD46F24040B8
:100BA0000021C0F200204FF47A6244684FF4E13033
:100BB0002346FFF711FD0028EFD140F2AC4021465B
:100BC000C2F20020FFF778FC002818BF10BD40F2E9
:100BD000DD400121C2F200200170002010BDD4D4FC
:100BE00040F2AC40C2F200204068002808BF7047C5
:100BF00040F2AC40C2F20020FFF776BCD4D4D4D48B
:100C000083B0B0B581B0044605A80EC040F22450B0
:100C100005AAC2F200202146009204F0A6FB00289B
:100C200029D440F22450C2F2002005F0BCFB20B3CE
:100C300040F2DC450446C2F2002540F22451C2F2E3
:100C400000212246287800F0FD00287040F2AC40D8
:100C5000C2F20020FFF708FC90B90020A0EB0414BA
:100C6000287880070BD45620012102F0EDFD0134D5
:100C7000F6D3142004E0032002E0172000E0002057
:100C800001B0BDE8B04003B07047D4D4D4D4D4D4BC
:100C900070B540F2DD450C46C2F2002540F2E04658
:100CA000012CC2F200264FF0000129700DD13168ED
:100CB00059B1316840F2E442013931603168C2F221
:100CC0000022515C0170012070BD3168A14240F2E8
:100CD000E44138BF3468C2F20021224605F0A0FA90
:100CE00040F2DC40C2F20020017801F0FA0101700C
:100CF0000020306001202870204670BDD4D4D4D4A8
:100D000040F2DC40C2F200200078C0F3800070475F
:100D100000F012B8D4D4D4D4022818BF704740F6DB
:100D2000445047F28071C2F20020C0F2002101F06D
:100D300037BCD4D4D4D4D4D4B6B008A8402105F05C
:100D40006AFA00200790FFF7E3FE00B100BE07A893
:100D500002F072FD46F6CF24C0F200242046FFF7D1
:100D60004FFF46F27440C0F20020FFF749FF46F6FD
:100D70009C4046F2B551C0F20020C0F20021FFF7BE
:100D80003FFF9DF81D309DF81E209DF81F1046F274
:100D90000760C0F20020FFF733FF2046FFF730FF67
:100DA00046F21770C0F20020FFF72AFF46F6A9505E
:100DB000C0F20020FFF724FF47F2482440F66C50B1
:100DC000C0F20024C2F20020214600F041FD46F2AC
:100DD0002251C0F2002100F00FF940F64C5047F2CA
:100DE0000821C2F20020C0F2002101F0C1FC46F24D
:100DF0004F61C0F2002100F0FFF846F29B79C0F28B
:100E000000294846FFF7FCFE47F2282146F6A01BC2
:100E1000C0F2002108AE18AFC0F2002B088800F025
:100E20000102C0F301100290888B01902AA803925E
:100E3000043000902068069060680590A0680490D7
:100E40000BE0012000F02CF947F28901C0F20021EB
:100E500000F0D2F84846FFF7D3FEFFF751FF08B97C
:100E60002FF005C84021304605F0D5F9082130465D
:100E7000FFF70EFF9DF82000332865D03228E0D020
:100E8000312869D14021384605F0C5F946F62220BF
:100E9000C0F2002000BF00BFFFF7B2FE00BF00BFDE
:100EA000FFF72EFF08B92FF005C84021384605F09E
:100EB000B2F908213846FFF7EBFE9DF86010A1F16A
:100EC000310005285846E7D847F2981040F204044C
:100ED000C0F20020C2F2002400EB810050F8C41CD4
:100EE00046F68110C0F200202160FFF789FE47F22C
:100EF00028212AADC0F2002106983290059833903F
:100F0000049834902846D4F800805CC95CC091E80D
:100F10005C005CC040F66C503595C2F2002000F0D9
:100F200003FF00B346F6165447F21A11C0F200242C
:100F300046F2C14282462046C0F20021C0F20022A1
:100F4000FFF75EFE08AE3DE0002000F0A9F846F293
:100F50007561C0F200217BE747F2AF00C0F20020CC
:100F6000FFF74EFE76E703988DF8A40002988DF8FF
:100F7000A5000198ADF8A60028A80099CDF8A0809A
:100F800001F06AF846F6165408AEC0F2002428B103
:100F900047F22D128246C0F200220CE040F66C505F
:100FA00032A9C2F2002000F053FCE0B146F2225216
:100FB0008246C0F2002247F21A112046C0F20021F8
:100FC000FFF71EFE46F6913146F203522046C0F26C
:100FD0000021C0F20022FFF713FE46F68E015046B4
:100FE000C0F2002134E746F6AF30C0F20020FFF730
:100FF00007FE4FF0000AF0E7002808BF704710B561
:1010000004460A4646F6165046F2C561C0F2002074
:10101000C0F20021FFF7F4FD40F66C50C2F2002050
:101020000068A0B140F66C50C2F2002000F07CFED7
:1010300068B146F6165046F2C56146F2E842C0F283
:101040000020C0F20021C0F20022FFF7D9FD40F6D7
:101050004C50C2F200200068A0B140F64C50C2F2E1
:10106000002001F0A5FD68B146F6165046F2C561B4
:1010700046F67F42C0F20020C0F20021C0F20022FA
:10108000FFF7BEFD46F6D7302146C0F20020FFF73D
:10109000B7FDFFF7A5FD00BE10BDD4D4D4D4D4D481
:1010A0002DE9F04F9BB003AD814644F2402B402127
:1010B0002846C0F20F0B05F0AEF846F6BA0046F629
:1010C000F731C0F20020C0F20021B9F1000F50EA60
:1010D0001180FFF795FD40F2040A40F630544DF6BA
:1010E000836646F64317C2F2002A4FF4EE78C2F246
:1010F0000024C4F21B36C0F20027CDF8089002E0AD
:101100003846FFF77DFDFFF7FBFD08B92FF005C856
:101110004021284605F07FF808212846FFF7B8FD52
:101120009DF80C00A0F130010A0600F04082C9B21F
:101130000429E5D8B9F1000FA0F1310074D0C5B28F
:101140008C226900B14651FA80F040F21401C2F2DB
:10115000002140F64C5601EB8001DAF800008A4687
:10116000C2F20026097ABBFBF0F011FB022100FB62
:1011700008F2484349F69A11C1F69911A2FB0117EA
:101180004CF6CD41CCF6CC41A0FB010B30462146BC
:1011900001F0DEFC002840F0138240F62450646821
:1011A000C2F2002000210170304601F0B9FC002895
:1011B00040F00C82A4FB0901880C00FB07F13046CB
:1011C00001F0B6FC002840F00D823046374601F0B1
:1011D00097FC002840F0348240F62856C2F20026E0
:1011E000306820F00800306047F25C10C0F2002048
:1011F000455D40F66C50C2F20020294600F068FEC2
:10120000002840F04A8240F624544FEADB09C2F23B
:1012100000244FF0000B00BF3068000700F18F8002
:1012200020780128F8D195E1C5B28C2269003746B3
:1012300051FA80F040F24401C2F2002101EB800932
:10124000DAF800004FF0000ACDF868A099F808100D
:10125000CDF864A0BBFBF0F011FB022140F64C5B23
:1012600000FB08F2C2F2002B484349F69A11C1F67E
:101270009911CDF860A0A2FB01164CF6CD41CCF639
:10128000CC41CDF85CA0A0FB01015846019121465C
:10129000CDF858A0CDF854A0CDE913AA01F058FC20
:1012A000002840F0878140F624506468C2F2002094
:1012B00080F800A0584601F033FC002840F08C81F3
:1012C000A4FB0701880C00FB06F1584601F030FC36
:1012D000002840F08D81584601F012FC002840F0B3
:1012E0008D8140F62856C2F20026306820F00800B2
:1012F000306047F25810C0F2002010F805A040F608
:101300006C50C2F20020514600F0E2FD002840F08F
:10131000D281019840F64C5740F62454C508C2F2D9
:101320000027C2F200244FF0000B00BF00BF00BF37
:10133000306800076BD420780128F9D1F3E03846F3
:1013400001F0E6FB002840F0C28140F630563846F6
:10135000C2F20026314601F0FBFB002840F030814C
:101360003846766884F800B001F0DAFB002840F0D7
:101370002D814DF68360C4F21B30A6FB0001880C62
:1013800000FB09F1384601F0D3FB002840F02A8128
:10139000384601F0B5FB002840F0528140F6285154
:1013A000C2F20021086820F01000086040F66C507E
:1013B0005146C2F2002000F0A3FD002840F08D81CC
:1013C000102000F0CDF9002840F09B8146F61E0069
:1013D0002946C0F20020FFF713FC44F2402B40F2F4
:1013E000040A40F630544DF6836646F64317DDF89E
:1013F0000890C0F20F0B03ADC2F2002A4FF4EE7852
:10140000C2F20024C4F21B36C0F200277BE6384645
:1014100001F07EFB002840F0548140F630563846FB
:10142000C2F20026314601F093FB002840F0C28052
:101430003846766884F800B001F072FB002840F06E
:10144000CB804DF68360C4F21B30A6FB0001880CF4
:1014500000FB05F1384601F06BFB002840F0C88026
:10146000384601F04DFB002840F0C88040F6285176
:10147000C2F20021086820F00400086040F66C50B9
:101480004946C2F2002000F0DFFC002840F0338122
:10149000042000F065F9002840F0358199F8080033
:1014A00046F2B944C0F2002490B140F63C57002601
:1014B000C2F2002713AD00BF17F8012B28462146C2
:1014C00002F0C1FD99F80810013605448E42F3D3AD
:1014D00040F62C5013AAC2F20020017846F6815043
:1014E000C0F20020FFF78CFB99F80810504600F07E
:1014F00073F944F2402B40F2040A40F6305446F6A9
:1015000043174DF68366DDF80890C0F20F0B03AD6C
:10151000C2F2002A4FF4EE78C2F20024C0F2002793
:10152000C4F21B36EFE540F66C50C2F2002000F02A
:10153000DBFB30B346F614328046C0F2002246F69A
:10154000165047F2FA01C0F20020C0F20021FFF766
:1015500057FB18E040F66C50C2F2002000F0C4FBCC
:10156000B0B146F614328046C0F2002246F616505C
:1015700047F2FA01C0F20020C0F20021FFF740FB61
:1015800008E04FF0140846F29A62C0F2002248E0E8
:101590004FF0140846F6165047F2091146F29A62C7
:1015A000C0F20020C0F20021C0F2002261E04FF042
:1015B00000086EE046F658528046C0F2002222E053
:1015C00046F658528046C0F200223EE046F2B9523A
:1015D0008046C0F2002238E046F2B9528046C0F29E
:1015E000002210E046F634528046C0F200222CE081
:1015F00046F634528046C0F2002204E046F66F02FE
:101600008046C0F2002246F6165046F65801C0F257
:101610000020C0F20021FFF7F3FA46F64132C0F293
:10162000002246F6165046F2B561C0F20020C0F224
:101630000021FFF7E5FA46F2FD62C0F200221EE04B
:1016400046F66F028046C0F2002246F6165446F671
:101650005801C0F20024C0F200212046FFF7D0FA62
:1016600047F2091146F64132C0F20021C0F20022D1
:101670002046FFF7C5FA46F6E042C0F2002246F6E1
:10168000165046F6FB41C0F20020C0F20021FFF7E1
:10169000B7FA40461BB0BDE8F08F804646F61650BC
:1016A00047F2091146F6DE12C0F20020C0F2002116
:1016B000C0F20022DDE746F6DE128046C0F20022CC
:1016C000AFE747F2D8028046C0F2002237E747F280
:1016D000D8028046C0F2002248E7804646F61650FF
:1016E00047F2091146F66232C0F20020C0F2002132
:1016F000C0F20022BDE746F2D8528046C0F2002276
:101700008FE7804646E746F607228046C0F2002271
:1017100087E7D4D4D4D4D4D40079002818BF704734
:1017200040F624500121C2F2002001707047D4D449
:1017300098B140F628524168C2F20022136819435A
:1017400011601168490758BF704740F62C51407A24
:10175000C2F2002100F03F0008707047D4D4D4D406
:1017600010B540F6285140F62452C2F20021C2F2D0
:10177000002200BF00BF00BF0B6803420FD11378E7
:10178000012BF9D140F66C50C2F2002000F0ACFA07
:10179000F8B146F614320446C0F200220BE040F6DF
:1017A0004C50C2F2002001F0B3F980B147F2D802E8
:1017B0000446C0F2002246F6165047F2FA01C0F283
:1017C0000020C0F20021FFF71BFA204610BD0020C8
:1017D00010BD142010BDD4D48C46014647F26810C9
:1017E0000422C0F20020043010F8043C8B4204D0E4
:1017F000013A00F10C00F7D17047BCF1020F0ED195
:10180000006840F63C52C2F20022008812888242F0
:101810000DD046F28E50C0F20020FFF7F1B946F22B
:1018200046500222C0F200206346FFF7E9B946F2B3
:10183000D260C0F20020FFF7E3B9D4D4D4D4D4D41A
:1018400080B5FFF765FA002080BDD4D4D4D4D4D4B9
:101850002DE9F04F83B00A78824648F200004EF23C
:101860000014C4F235004CF2003600EB0220CAE945
:1018700001104868CAF80C0088680022CAF82820BD
:10188000CAF81400C868CAF81020CAF81C20CEF2A2
:1018900000040188057AC4F2000601F0010000F09E
:1018A00027FEDAF80410062303EA5513C968D84066
:1018B000CAF8240091F91220002A15D4500902F028
:1018C0001F03012704EB800007FA03F3C0F8803000
:1018D000BFF34F8FBFF36F8F56F8220020F4803094
:1018E00046F8220056F8220091F91300002815D47A
:1018F000420900F01F03012704EB820207FA03F3F9
:10190000C2F88030BFF34F8FBFF36F8F56F820209F
:1019100022F4803246F8202056F8200091F9140075
:10192000002815D4420900F01F03012704EB8202AE
:1019300007FA03F3C2F88030BFF34F8FBFF36F8F06
:1019400056F8202022F4803246F8202056F8200055
:1019500091F91500002815D4420900F01F03012752
:1019600004EB820207FA03F3C2F88030BFF34F8F13
:10197000BFF36F8F56F8202022F4803246F82020E3
:1019800056F8200091F91000002815D4420900F003
:101990001F03012704EB820207FA03F3C2F8803029
:1019A000BFF34F8FBFF36F8F56F8202022F48032A1
:1019B00046F8202056F8200091F91100002815D48F
:1019C000410900F01F02012304EB810103FA02F236
:1019D000C1F88020BFF34F8FBFF36F8F56F82010F0
:1019E00021F4803146F8201056F82000DAE901672A
:1019F00001204FF00041F568EFF3108480F3108868
:101A0000307821FA00F043F20401C4F220010A68A0
:101A100022EA0000086008681E20012101F014FF7E
:101A200084F310880020B8604FF480332A887078DF
:101A30004CF255065106C2F3011458BF4FF65576C5
:101A4000297A0290002802F0010904BF40F2003315
:101A5000C0F2300343EA9111C2F3C00341EA0461CA
:101A6000C2F3801441EA4341EB7B41EA845195F88B
:101A70000CC003F00704C3F3C0004FEA0030C3F307
:101A8000011340EA44306C8940EA832095F80DE068
:101A900008444FEA0448A97B4FEA520B019149F2EE
:101AA000032108BF46EA04484FF48044C0F206010F
:101AB00004EA0234002644EAC914102321436C6866
:101AC0007863BE63C7F83C80C2F3C215C2F340001E
:101AD000DAF808202D06C9F6075345EA0070936628
:101AE0004FF47F43936779613C61F860BE614FF0CA
:101AF0000110B86000BF00BF387FC007FCD04FEABC
:101B00000E200BF02001029A40EA0C60002A4EF2EF
:101B1000001508BF10310844B968019A21F48031DA
:101B2000B9604CF2003440EA0240B863DAF80400CD
:101B3000CEF20005C4F20004C16840F6F450C2F2CF
:101B4000002091F91220002A1CD40B7EAF18012628
:101B50001B0187F8003340F822A054F8223023F408
:101B6000803344F8223054F82230530902F01F0227
:101B7000BFF35F8F05EB830706FA02F2C7F88021F7
:101B800045F8232091F91320002A1CD44B7EAF186E
:101B900001261B0187F8003340F822A054F82230B8
:101BA00023F4803344F8223054F82230530902F0F1
:101BB0001F02BFF35F8F05EB830706FA02F2C7F837
:101BC000802145F8232091F91420002A1CD48B7E13
:101BD000AF1801261B0187F8003340F822A054F803
:101BE000223023F4803344F8223054F82230530951
:101BF00002F01F02BFF35F8F05EB830706FA02F2C4
:101C0000C7F8802145F8232091F91520002A1CD41B
:101C1000CB7EAF1801261B0187F8003340F822A0C5
:101C200054F8223023F4803344F8223054F8223020
:101C3000530902F01F02BFF35F8F05EB830706FA1B
:101C400002F2C7F8802145F8232091F91020002ADC
:101C50001CD48B7DAF1801261B0187F8003340F898
:101C600022A054F8223023F4803344F8223054F870
:101C70002230530902F01F02BFF35F8F05EB830789
:101C800006FA02F2C7F8802145F8232091F91120C5
:101C9000002A1CD4C97DAB18090183F8001340F851
:101CA00022A0012354F8220020F4803044F82200BE
:101CB00054F82200500902F01F02BFF35F8F05EBBA
:101CC000800103FA02F2C1F8802145F8202044F691
:101CD00042610020C4F64941CAF8001003B0BDE8D3
:101CE000F08FD4D4D4D4D4D481684FF6EF73CFF628
:101CF000CE738A681A408A600A7FD206FCD4416893
:101D00000022028580F82A20C968C2610978490644
:101D100007D58068816B21F0300241F03001826389
:101D2000816300207047D4D4B0B504468068002198
:101D3000816000BF00BF00BF017FC906FCD460689E
:101D40004EF2801CCEF2000CC16891F91220002ADC
:101D50000AD4530902F01F02012090404CF82300DE
:101D6000BFF34F8FBFF36F8F91F91320002A0BD46D
:101D7000500902F01F02012303FA02F24CF820205E
:101D8000BFF34F8FBFF36F8F91F91420002A0BD44C
:101D9000500902F01F02012303FA02F24CF820203E
:101DA000BFF34F8FBFF36F8F91F91520002A0BD42B
:101DB000500902F01F02012303FA02F24CF820201E
:101DC000BFF34F8FBFF36F8F91F91020002A0BD410
:101DD000500902F01F02012303FA02F24CF82020FE
:101DE000BFF34F8FBFF36F8F91F9111000290BD400
:101DF000480901F01F01012202FA01F14CF82010FC
:101E0000BFF34F8FBFF36F8F0120EFF3108580F387
:101E1000108843F204016068C4F220014FF00042D0
:101E200000780B6822FA00F01843086008681E204A
:101E3000012101F009FD85F31088002000212160B7
:101E4000B0BDD4D4D4D4D4D410B58468A36823F45A
:101E50008033A360D1F804E091F808C00023A0F813
:101E60002B304B7AC0F81CE080F82AC0022B5FEAC6
:101E70000F9280F82D2022D0012B0CF1010280F866
:101E80002A2019D109784A08CB0882EA910282EA0D
:101E9000111283EA51134A4002F0010283EA51030E
:101EA00083EA111301F03F0141EA82116FF07F02D2
:101EB00041EAC311514000E0002180F82C104FF09E
:101EC0001940A066A168002041F48031A16010BDD6
:101ED00080B584B08DF804100021CDF80910CDF83C
:101EE000051002228DF80D20ADF80E1001A9012277
:101EF00000F00EF8002004B080BDD4D4D4D4D4D4E3
:101F000080B5002200F004F8002080BDD4D4D4D4E1
:101F1000F0B585684FF6EF74CFF6CE74AB6B23F057
:101F20000103AB63AB682340AB6000BF00BF00BFE1
:101F30002B7FDB06FCD44B680024C0E9064380F805
:101F4000284080F82C404B68002B41D04C7A91F807
:101F500008C080F828C0022C4B681FD0012C23D168
:101F600091F800E04FEA5E044FEADE0684EA9E0440
:101F700084EA1E1486EA5E1684EA0E0404F0010464
:101F800086EA5E0686EA1E170EF03F0646EA8416CB
:101F90006FF07F0446EAC7177C4006E0634413F8FD
:101FA000013C80F82C3013E000244CF00BC000BF43
:101FB00013F8016B56FA84F4FF2C54EA94940FF052
:101FC00009C8E34380F82C300CF1010380F8283075
:101FD000002A40F21002C9F6075231D009784B08A6
:101FE000CF0883EA910383EA111387EA51174B4024
:101FF00003F0010387EA510787EA111701F03F0157
:1020000041EA8311022341EAC71180F8293081F0A7
:10201000800180F82E10A86840F01000A86000BF72
:10202000287FC006FCD5A86840F48010A860AA6686
:102030004FF47F40A867A86B40F00100A863F0BD93
:1020400080684FF47F4182668167A86840F0101075
:10205000A860F0BDD4D4D4D42DE9F04381B00546B6
:102060000079884600F044FA2A684FF0FF310426D0
:1020700001312027334600BF02FA03F4B0FBF4F429
:10208000013CB4F5807F09D3203F013317F12004D0
:10209000F2D1032906F10206EAD11FE047EA015016
:1020A000012740EA0420022440F07F404FF6FF76EB
:1020B00040F0040900BF00BF287900F019FAE98850
:1020C000E0402A680023A0FB010101F08FFF0138E6
:1020D000B04207D301370234042FEDD1032001B001
:1020E000BDE8F083B901C9B241EA0040C8E90090F7
:1020F000002001B0BDE8F0834FF07041EFF30380A2
:1021000001EB00604CF200318015C4F2000142582E
:1021100022F48032425040F6F4524158C2F200227A
:1021200010588168CA6DD20507D54FF480728A674E
:102130004FF080528A6600228A6790F8292022B1E7
:10214000022A0A680ED155220EE090F82820AAB182
:10215000012A0A6813D190F82C204A60102282616B
:10216000002214E090F82E204A60082390F82920DD
:102170008361531E80F829301A060ED07047C26959
:10218000531CC36112784A6090F82820013A90F8F5
:10219000293080F828201A06F0D190F82820002A4B
:1021A00018BF70478A68022363F315528A600021C2
:1021B000C1617047D4D4D4D410B584B04FF070410D
:1021C000EFF3038001EB00604CF200318015C4F2A4
:1021D0000001425822F48032425040F6F4524158F5
:1021E000C2F200221458A068C16D0A0524D411F46B
:1021F000405F2DD04FF4405181670078410842097B
:1022000081EA900100F03F0381EA101182EAD002D6
:10221000414001F0010182EA500282EA101243EAD1
:10222000811141EAC2114140C9B280292AD14FF03F
:10223000020C84F82E0027E04FF0004181664FF435
:1022400000618167816B21F02001816304B010BDC2
:1022500094F82B1094F82A208A423AD9531A02781B
:1022600094F82D10012B48D100295AD094F82C1045
:102270004FF0200C1144FF2908BF4FF0040C84F8E4
:102280002C2057E04FF0006C206940B1D0E900E30A
:10229000D0E90212CDE90212CDE900E300E0684680
:1022A0006168E2686369C360097894F82C30C0E91A
:1022B000001C94F82E10417294F82B100172837256
:1022C0009047206900281CBF9DE81E001EC004B076
:1022D00010BD4FF000418166816821F4803181603A
:1022E0006068C06800884006F1D5A068816B21F065
:1022F000300241F030018263A7E739B194F82C0035
:102300001044FF2850EA909084F82C00E069411CAA
:10231000E161027094F82B00013084F82B0004B0C6
:1023200010BDE1694FF0040C0A7094F82B100131D4
:1023300084F82B10002284F82A20E261826822F4BB
:10234000803282606068C068008840069CD5A068C2
:10235000826B22F0300342F030028363826393E7A2
:10236000B0B584B04FF07041EFF3038001EB006033
:1023700040F6F4528115C2F200224FF6EF73545822
:10238000CFF6CF73A1688A681A408A606168C9680D
:102390000978490607D5A1688A6B22F0300342F01C
:1023A00030028B638A63A169051619B3206940B1B5
:1023B000D0E900CED0E90223CDE90223CDE900CE59
:1023C00000E068466268D4F80CC06369C3601278A4
:1023D000C0E9002194F82E10417294F82B1094F863
:1023E0002C2001728272E047206900281CBF9DE802
:1023F0001E001EC04CF20030C4F2000050F8251040
:1024000021F4803140F8251050F8250004B0B0BD0B
:1024100070B584B04FF07041EFF3038001EB006CB6
:1024200040F6F4524FEAAC50C2F200221458A068B1
:102430008268836B23F0010383636368DB681B7826
:102440005B0607D5A3689D6B25F0300145F030058C
:1024500099639D634FF6EF714FF01943CFF6CE713C
:1024600011408160A068C16D826C83664FF4464361
:10247000836702F0C852206901F4844102EB01062F
:1024800040B1D0E900E3D0E90251CDE90251CDE9F4
:1024900000E300E068466168E3686269C260097849
:1024A00094F82C20C0E9001694F82E10417294F88C
:1024B0002B104FEA2C650172827298472069002820
:1024C0001CBF9DE84E004EC00020C4E90600A0627B
:1024D0004CF20030C4F2000050F8251021F4803195
:1024E00040F8251050F8250004B070BDD4D4D4D4E1
:1024F00010B501284EF22000C4F2010012D101688B
:10250000828842EA113002F00F020007C1F3033063
:1025100010D440F62461C2F200210968914021FAEA
:1025200000F010BD90F8341001F00F01022920D8FE
:1025300001222AE002F007034FF0030E0EFA03F324
:102540004FF0010C0C0B082A38BF0CFA02F304F010
:10255000070240F62464C2F2002409040EFA02F2D3
:10256000246804FB03F158BF0CFA00F2B1FBF2F04F
:1025700010BDCA1E052A06D247F2A071C0F2002182
:1025800051F8224003E00839102202FA01F490F8D1
:10259000350000F00F0001F0FFF8B0FBF4F010BDC3
:1025A00080B545F25422C5F24F020260084600F0A1
:1025B00003F8002080BDD4D470B5044600F064F860
:1025C00040F6F05CEFF31081C2F2002C012080F3A2
:1025D0001088DCF8000038B940F614500022C4F22C
:1025E0004000027040220270DCF800000130CCF89C
:1025F000000081F31088208830B340F6000E0021DF
:10260000C4F2400E08E000BF0EEB8010013140F82C
:1026100022302088814217D2606800EBC10250F856
:1026200031309288D8034FEA1220D2B2ECD50EEBAB
:10263000801555F8226026F4803645F8226023F490
:10264000803645F82260DFE70120EFF3108180F348
:102650001088DCF8000020B1DCF800000138CCF86C
:102660000000DCF8000010B181F3108870BD40F666
:1026700014500022C4F2400002708022027081F3E4
:10268000108870BDD4D4D4D42DE9F04F81B0044665
:102690000088002867D04EF64C4B0025C4F2010B91
:1026A0004FF0010A04E000BF2088013585425AD26C
:1026B00047F2B47642F240080027C0F20026C4F286
:1026C00020080CE000BF00BF88F80000C8200121EE
:1026D00001F0BAF8013708F10208032FE4D060686E
:1026E00036F8021B00EBC50082888A42F2D10068EE
:1026F0009BF8001000F0B8500AFA07F9B0F1807F9B
:1027000009EA010018D158B9012001F051F99BF8EC
:10271000000040EA09008BF80000012001F01CF9DC
:1027200098F900000028D5D498F8000040F0800007
:10273000CAE700BF00BF00BF58B1012001F038F95F
:102740009BF8000020EA09008BF80000012001F04E
:1027500003F998F90000B0F1FF3FBBDC98F80000E6
:1027600000F07F00B0E701B0BDE8F08FD4D4D4D43E
:102770002DE9F04381B00D46097C044600270D2960
:102780005FEA9F92027401202A7C00FA01F1E16065
:1027900042F20001C4F23201656001EB0221A16046
:1027A00069696161A969E161A761EE69EFF3108967
:1027B00080F31088287C4FF00048011F28FA00F0B1
:1027C00006296FF0006151EA30A043F21001C4F213
:1027D00020010A681040086008681E20012101F0ED
:1027E00033F889F310884FF42541A0684FF0060EA6
:1027F0000160A068C762A068C763A0688764287A80
:102800002978A268C0050329696808BF00F58030EF
:10281000D0620139A068C0F81080A068C0F81480A8
:10282000A068C0F81880A0684762A0688762A068A6
:10283000B269C261A068F2690262A0688166A0689C
:1028400041666168D6F850C0C969F64601F13002A8
:1028500008E000BF00BF00BF01370432BEF1010E27
:1028600000D112E091F84830FB40DB07F4D03B4642
:10287000042F08BF0323032F08BF0423A06800EB25
:1028800083001368013BC364E6E7287C0D2802D867
:10289000A06800214164A06800218163A068C0F89D
:1028A0008810306D40B996F8200096F8211040034A
:1028B00040EA41704CEA000C96F84800A1680028F4
:1028C0004FF4A00008BF4FF4AA000864A068C0F845
:1028D00034C040F6F45C96F8540096F85510A2689F
:1028E000C2F2002C4901D36A41EA001003211843C7
:1028F000D062A06801230163A0680363D4E90201E8
:10290000C1604EF2001095F912704CF20031CEF217
:102910000000C4F20001002F1AD46D7CC2192D01F1
:1029200082F800534CF8274051F8272022F48032D7
:1029300041F8272051F827207A0907F01F07BFF335
:102940005F8F00EB8205BB40C5F8803140F8223034
:1029500096F92830002B1DD496F82220C71801259F
:10296000120187F800234CF8234051F8232022F469
:10297000803241F8232051F823205A0903F01F0325
:10298000BFF35F8F00EB820705FA03F3C7F88031CE
:1029900040F8223096F92930002B1DD496F82320D8
:1029A000C7180125120187F800234CF8234051F87D
:1029B000232022F4803241F8232051F823205A09A1
:1029C00003F01F03BFF35F8F00EB820705FA03F3E9
:1029D000C7F8803140F8223096F92A30002B1DD4F8
:1029E00096F82420C7180125120187F800234CF817
:1029F000234051F8232022F4803241F8232051F85B
:102A000023205A0903F01F03BFF35F8F00EB8207F7
:102A100005FA03F3C7F8803140F8223096F92B30DD
:102A2000002B1DD496F82520C7180125120187F820
:102A300000234CF8234051F8232022F4803241F83F
:102A4000232051F823205A0903F01F03BFF35F8F9F
:102A500000EB820705FA03F3C7F8803140F8223013
:102A600096F92C30002B1DD496F82620C718012586
:102A7000120187F800234CF8234051F8232022F458
:102A8000803241F8232051F823205A0903F01F0314
:102A9000BFF35F8F00EB820705FA03F3C7F88031BD
:102AA00040F8223096F92D30002B1DD496F82720BF
:102AB000C718120187F800234CF82340012751F86A
:102AC000232022F4803241F8232051F823105909A1
:102AD00003F01F03BFF35F8F00EB810207FA03F3DC
:102AE000C2F8803140F8213045F254010020C0F294
:102AF0004701216001B0BDE8F083D4D4D4D4D4D44C
:102B0000D0E9021200204A607047D4D4D4D4D4D47F
:102B1000D0E9021200208A607047D4D4D4D4D4D42F
:102B2000D0E902120020CA607047D4D4D4D4D4D4DF
:102B30008268013991668268D36ADB0703D15166E6
:102B4000D0E90201C16000207047D4D4D4D4D4D4D9
:102B500070B582680C464EF25C00C4F20100516E02
:102B60000131A160D16A027802F00F02022A01D875
:102B700001230BE0D31E052B06D247F2BC72C0F234
:102B8000002212F8235003E0083A102303FA02F55A
:102B90004078C1F3C35600F00F0000F0FDFDE9B22C
:102BA000B0FBF1F001212170F0406060002070BDA9
:102BB000B0B543684EF2801E40F6F45CCEF2000ED3
:102BC00093F91210DB69C2F2002C00290ED44A09D5
:102BD00001F01F04012505FA04F44EF82240BFF36A
:102BE0004F8FBFF36F8F00224CF8212093F92810EC
:102BF00000290ED44A0901F01F04012505FA04F446
:102C00004EF82240BFF34F8FBFF36F8F00224CF876
:102C1000212093F9291000290ED44A0901F01F043C
:102C2000012505FA04F44EF82240BFF34F8FBFF39D
:102C30006F8F00224CF8212093F92A1000290ED41E
:102C40004A0901F01F04012505FA04F44EF8224058
:102C5000BFF34F8FBFF36F8F00224CF8212093F901
:102C60002B1000290ED44A0901F01F04012505FA92
:102C700004F44EF82240BFF34F8FBFF36F8F002252
:102C80004CF8212093F92C1000290ED44A0901F0A8
:102C90001F04012505FA04F44EF82240BFF34F8FBC
:102CA000BFF36F8F00224CF8212093F92D100029DB
:102CB0000ED44A0901F01F03012404FA03F34EF86D
:102CC0002230BFF34F8FBFF36F8F00224CF82120CB
:102CD000D0E90212002303608A60816800204B6300
:102CE000B0BDD4D4D4D4D4D410B584B04FF0704196
:102CF000EFF3038001EB00614CF2003E8A15C4F251
:102D0000000E40F6F45452F80E30C2F2002423F4C0
:102D1000803342F80E3052F80E30A45862681378AF
:102D2000012B40F0AE80D4E902300916D2694EF290
:102D3000802C98600023A068CEF2000C8364A06809
:102D4000C364A068036501235EF8210020F480308D
:102D50004EF821005EF82100480901F01F01BFF381
:102D60005F8F03FA01F14CF8201092F84830D80731
:102D700017D092F92810002913D45EF821000123FE
:102D800020F480304EF821005EF82100480901F05F
:102D90001F01BFF35F8F03FA01F14CF8201092F886
:102DA0004830980715D592F92910002911D45EF8FA
:102DB0002100012320F480304EF821005EF821002C
:102DC000BFF35F8F480901F01F0103FA01F14CF8CE
:102DD000201092F92A10002911D45EF82100012355
:102DE00020F480304EF821005EF82100BFF35F8FA1
:102DF000480901F01F0103FA01F14CF8201092F983
:102E00002B10002911D45EF82100012320F480301A
:102E10004EF821005EF82100BFF35F8F480901F0F2
:102E20001F0103FA01F14CF8201092F92C1000292F
:102E300011D45EF82100012320F480304EF82100E7
:102E40005EF82100BFF35F8F480901F01F0103FA0C
:102E500001F14CF8201092F92D10002911D45EF8E0
:102E60002100012220F480304EF821005EF821007C
:102E7000BFF35F8F480901F01F0102FA01F14CF81E
:102E800020106169A1B1A06930B1D0E900C38268A6
:102E90000392CDE901C300E001A800220271826023
:102EA000E26902608847A06910B101AB0ECB0EC089
:102EB00004B010BDD4D4D4D44EF22401C4F2010124
:102EC0008878098801F00F02A2F1080103293BD894
:102ED000DFE801F0022C101E40F28041C2F2002116
:102EE00051F820004AF6AB21CAF6AA21A0FB010145
:102EF000480830E040F28041C2F2002151F8200041
:102F00004AF6AB21CAF6AA21A0FB0101C80822E0BB
:102F100040F28041C2F2002151F820004AF6AB2174
:102F2000CAF6AA21A0FB0101080914E040F2804181
:102F3000C2F2002151F820004AF6AB21CAF6AA21BC
:102F4000A0FB0101880806E040F28041C2F20021A6
:102F500051F82000D04040F62461C2F20021086000
:102F60007047D4D4D4D4D4D4D4D4D4D4D4D4D4D412
:102F70002DE9F04782B00FF288604EF2FA3840F245
:102F80008046C4F201084AF2015190ED001FC2F2DE
:102F900000260FF27C60CFF6FF714EF2550502312C
:102FA000A8F8001086ED001F06F12003C4F2010509
:102FB00090ED001F48F2004040F60001C1F2D770CA
:102FC00043F6000286ED041FC2F6AF71C1F69C42C3
:102FD00007C315F82F0C35F8311C01F00F02A2F1D0
:102FE000080103292BD8DFE801F002200C164AF66D
:102FF000AB2156F82000CAF6AA21A0FB010148081F
:1030000020E04AF6AB2156F82000CAF6AA21A0FB20
:103010000101C80816E04AF6AB2156F82000CAF6AE
:10302000AA21A0FB010108090CE04AF6AB2156F8E1
:103030002000CAF6AA21A0FB0101880802E056F888
:103040002000D04040F6246A4EF60044C2F2002A26
:10305000C4F201040A214EF60147CAF800004FF6F7
:103060005060CFF6FF70C4F201072154092085F8A3
:103070004D00207818B93878800700F0BC8220789D
:1030800048B901202070C820012100F0DDFB00BFFD
:1030900020780128FCD10020387020704AF20159B4
:1030A000002005F81F0C05F8230C00BF00BF00BF6F
:1030B00015F8190C0007FBD542F602314EF61450F4
:1030C000C0F20101C5F8731040F2234125F8071C36
:1030D000002205F80B2C4FF60211C5F8571040F2EC
:1030E000514125F8091CCEF200004EF20001BFF359
:1030F0004F8FBFF36F8F0368CEF2010123F40033CB
:103100000360C0F83C22BFF34F8FBFF36F8F0A6894
:1031100022F440520A60BFF34F8FBFF36F8F15F850
:10312000412C02F0F802013205F8412C00BF00BF2B
:1031300015F8412CD206FBD40A6842F440520A60CA
:10314000BFF34F8FBFF36F8F0168890312D4BFF3B2
:103150004F8FBFF36F8F0021C0F83C12BFF34F8F2A
:10316000BFF36F8F016841F400310160BFF34F8FEF
:10317000BFF36F8F002005F82B0C00BF00BF00BF0E
:1031800015F8190C8006FBD54CF200040020C4F29F
:10319000130420702078207820786068FA2807D0FF
:1031A000FA20C1F6006000BF60606168FA29FBD1B7
:1031B000A0687D2808D07D20CEF2001000BF00BF9F
:1031C000A060A1687D29FBD143F23240C3F22320E5
:1031D00045F8350C42F2202025F8310C052005F881
:1031E0002F0C15F82F0C35F8311C01F00F02A2F14D
:1031F000080103292BD8DFE801F002200C164AF65B
:10320000AB2156F82000CAF6AA21A0FB010148080C
:1032100020E04AF6AB2156F82000CAF6AA21A0FB0E
:103220000101C80816E04AF6AB2156F82000CAF69C
:10323000AA21A0FB010108090CE04AF6AB2156F8CF
:103240002000CAF6AA21A0FB0101880802E056F876
:103250002000D040CAF800001E200121012700F004
:10326000F3FA60686FF39F20652828BF277015F870
:103270002F0C35F8311C01F00F02A2F108010329CF
:103280002BD8DFE801F002200C164AF6AB2156F8E5
:103290002000CAF6AA21A0FB0101480820E04AF656
:1032A000AB2156F82000CAF6AA21A0FB0101C808EC
:1032B00016E04AF6AB2156F82000CAF6AA21A0FB78
:1032C000010108090CE04AF6AB2156F82000CAF6C5
:1032D000AA21A0FB0101880802E056F82000D04096
:1032E00042F20001CAF80000C4F200010120A1F876
:1032F0000090BFF35F8F08724FF42540BFF35F8FDC
:10330000088095F8850040F0400085F8850000BFF2
:1033100095F98500B0F1FF3FFADC032085F87F00C6
:10332000C92085F8850095F8850000F0BF0085F874
:10333000850000BF00BF00BF95F985000028FBD4C1
:10334000012005F8020C002005F8170C802005F874
:10335000170CE87F40F04000E87700BF00BF00BFD7
:1033600095F91F00B0F1FF3FFADC0720E8754A200D
:10337000E8770A20E87700BF95F91F000028FBD402
:103380000720ADF806000DF1060000F049F995F8A8
:10339000210040F0400085F8210000BF00BF00BFC1
:1033A00095F92100B0F1FF3FFADC03206876CA20CE
:1033B00085F8210095F8210000F0BF0085F8210074
:1033C00095F921000028FBD4287840F040002870AF
:1033D00095F90000B0F1FF3FFADC022005F8010C7E
:1033E000CA202870287800F0BF00287000BF00BFF6
:1033F00095F900000028FBD4A87840F04000A870A0
:1034000095F90200B0F1FF3FFADC00206870C72098
:10341000A870A87800F0BF00A87000BF00BF00BF70
:1034200095F902000028FBD4287A40F04000287269
:1034300095F90800B0F1FF3FFADC0120E871C620E1
:103440002872287A00F0BF00287200BF00BF00BFBA
:1034500095F908000028FBD495F8230040F04000BF
:1034600085F8230000BF00BF95F92300B0F1FF3FAE
:10347000FADC0220E876C92085F8230095F82300BD
:1034800000F0BF0085F8230095F923000028FBD445
:10349000A87A40F04000A87295F90A00B0F1FF3F09
:1034A000FADC01206872CA20A872A87A00F0BF0076
:1034B000A87200BF00BF00BF95F90A000028FBD426
:1034C00095F8220040F0400085F8220000BF00BFC0
:1034D00095F92200B0F1FF3FFADC0420A876CA205B
:1034E00085F8220095F8220000F0BF0085F8220040
:1034F00095F922000028FBD4A87940F04000A8717B
:1035000095F90600B0F1FF3FFADC02206871CA208D
:10351000A871A87900F0BF00A87100BF00BF00BF6C
:1035200095F906000028FBD495F8860040F040008D
:1035300085F8860000BF00BF95F98600B0F1FF3F17
:10354000FADC022085F88000C52085F8860095F811
:10355000860000F0BF0085F8860000BF00BF00BFF6
:1035600095F986000028FBD495F8870040F04000CC
:1035700085F8870000BF00BF95F98700B0F1FF3FD5
:10358000FADC012085F88100C52085F8870095F8D0
:10359000870000F0BF0085F8870000BF00BF00BFB4
:1035A00095F987000028FBD495F8890040F0400089
:1035B00085F8890000BF00BF95F98900B0F1FF3F91
:1035C000FADC092085F88300C92085F8890095F880
:1035D000890000F0BF0085F8890000BF00BF00BF70
:1035E00095F989000028FBD44FF42540A8F8000085
:1035F00002B0BDE8F0874FF47A7000F0C9F84DE5ED
:10360000006CDC0200127A000080000000366E01BF
:103610000080000000CA9A3B0046C3235543DE13D6
:103620002DE9F04F81B04EF2FA3143F20406C4F2B4
:1036300001018246C4F220064AF20350B1F800901C
:1036400008804FF0010B00254FF480340127002043
:1036500008E000BF00BF00BFF8074FF001004FF0C7
:10366000000716D004FA00F132680A42F4D1EFF3F1
:1036700010888BF3108832680BFA00F01143316028
:10368000316805431E20012100F0DEF888F3108820
:10369000E2E74EF2750740F28041C4F20107C2F240
:1036A0000021387800F00F0051F8200017F8081CAE
:1036B00001F00F01022901D801220BE0CA1E052AE0
:1036C00006D247F61C21C0F2002151F8221003E077
:1036D0000839102202FA01F1B0FBF1F04DF68361D6
:1036E000C4F21B31A0FB01016FF0010000EA514060
:1036F000012100F0A9F8387840F04000387000BF90
:1037000097F90000B0F1FF3FFADC9AF8010007F8E2
:10371000080C9AF8000040F0400038709AF8000059
:10372000387000BF00BF00BF97F900000028FBD42D
:1037300000204FF0010A4FF48038012406E000BF5A
:10374000E0074FF001004FF0000415D025FA00F11A
:10375000C907F5D0EFF310878AF3108808FA00F054
:10376000316821EA0000306030681E20012100F03D
:103770006BF887F31088E3E74EF2FA3149F42540FD
:10378000C4F20101088001B0BDE8F08FD4D4D4D4D4
:103790007047D4D4D4D4D4D440F28041C2F20021B2
:1037A00051F820007047D4D4B0B542F22404C820A8
:1037B000C4F2200401210025257100F045F8257090
:1037C000207808B12FF005C0207840F0020020706A
:1037D00020788007FCD4002004F8020C00BF00BF52
:1037E00014F8020C08B12FF005C84FF0030E0020AA
:1037F00004F11C0100BF00BF11F8102002F07F028D
:1038000001F8102000BF00BF11F91020002AFBD4DE
:1038100001300FF00FC8012000F0CAF84EF64C41FD
:103820000120C4F2010100220A70BDE8B04000F09E
:1038300093B8D4D4D4D4D4D4014600220020C0F20A
:1038400004620A607047D4D440F6246241F2002337
:10385000C2F20022C0F27A03484312689A420FD3A0
:1038600044F23F21C0F20F0111444DF68362C4F2CD
:103870001B32A1FB0212910CA0FB0101C9B11DE09A
:103880004CF60021C3F69A31B1FBF2F148F638123A
:10389000C0F24102904205D24FF47A725043B0FB1D
:1038A000F1F006E0B0FBF1F0904207D24FF47A71EC
:1038B0004843002808BF704700F006B84FF0FF30BB
:1038C00000F002B8D4D4D4D401380028FCD1704719
:1038D000F0B581B04CF2201540F69C57C4F20005BB
:1038E0000024C2F2002755F8200C296801EA0006DE
:1038F00006E000BF00BF00BF01340437152C09D01B
:1039000026FA04F0C007F7D039680029F4D0204621
:103910008847F1E745F8106C28683042FCD101B0C7
:10392000F0BDD4D4D4D4D4D480B54FF0090E4CF229
:10393000003047F28C71C4F20000C0F2002100BFD9
:1039400031F8022B002A18BF026004300FF009C0C2
:1039500080BDD4D4D4D4D4D4EFF31081012282F327
:10396000108840F61862C2F2002232F8103023B1FB
:1039700032F81030013B22F8103032F8102012B12A
:1039800081F3108870474EF2FA3247F6302CC4F2B9
:103990000102C0F2002C13883CF8100043F42543C8
:1039A00023EA0000108081F310887047D4D4D4D467
:1039B00010B5EFF31081012282F3108840F61862EF
:1039C000C2F2002232F8103083B94EF2FA3E47F6C6
:1039D000302CC4F2010EC0F2002CBEF800403CF8BE
:1039E0001030234343F42543AEF8003032F8103052
:1039F000013322F8103081F3108810BDD4D4D4D410
:103A000000F00AF8FDF71CFFFEE7D4D4D4D4D4D4D8
:103A100000BE7047D4D4D4D42DE9F04381B04EF623
:103A2000085840F20120CEF20008C0F20E004EF21B
:103A30000004C8F80C00CEF20104BFF34F8FBFF3AF
:103A40006F8F58F8081CC1F3035001285FEA1F92DA
:103A500011F00F0F5FEA0F911142216811D1022876
:103A60000FD241F0040020604EF20800BFF34F8FE8
:103A7000CEF20000BFF36F8F016841F48031016026
:103A800002E021F004002060BFF34F8FBFF36F8F7F
:103A90004FF4700040F20001C8F880000020C0F22E
:103AA0000021C8F800100025FDF736F9FFF760FA8D
:103AB0004EF2FA304EF6B022C4F20100C4F2010216
:103AC0004AF20251018015704FF425410180012016
:103AD000FDF722F940F28000C2F2002080F30A884C
:103AE0002068800724D5D8F80000B0F1007F1FD1EE
:103AF00020694FF40071C0F3C300626901FA00F35A
:103B0000C2F3C30081400020DA08CB080146074613
:103B100042F007C000BF00BFE7E802010FF005C098
:103B20004FF0005243F005C0E2E802010FF005C07B
:103B300047F2F074C0F20024276897B160683E46EF
:103B4000051D05E000BF00BF013E05F10C0508D0D2
:103B500068790028F8D155E90101091A02F05BFBE8
:103B6000F2E7D4F80890B9F1000F13D0E0684E46A0
:103B700000F1080504E000BF013E05F1100509D081
:103B800068790028F8D155E902022968121A02F072
:103B900047FBF1E7FFF790F9FFF706FE0320FFF779
:103BA00007FF4FF00E0E40F63050C4F240000021E7
:103BB00020F8041B0FF005C04EF210150320C4F2CC
:103BC0000105FFF7C9FE0320FFF7F2FE44F20400EF
:103BD0000021C4F22000016041608160C1600320C7
:103BE000FFF7BAFED5F8C802800714D42878A0B130
:103BF0000120FFF7DDFE00BF95F9000010F1410F35
:103C0000FADC0020287000BF28783F28FCD801206B
:103C1000FFF7A2FE01E0D5F8C8020220FDF77CF80C
:103C2000A7B160684FF48076051D05E000BF00BFB6
:103C3000013F05F10C0509D06879B6EB002FF7D1EB
:103C400055E90101091A02F0E6FAF1E7B9F1000FAE
:103C500016D0E0684FF4807500F1080405E000BF5D
:103C6000B9F1010904F110040AD06079B5EB002F15
:103C7000F6D154E902022168121A02F0D1FAEFE7F4
:103C800040F62C64C2F20024204600F0B9F9204628
:103C900000F0CEF9BFF34F8FBFF36F8F0020C8F84D
:103CA000480247F6CE5047F6CE51C0F20020C0F28F
:103CB0000021BFF34F8F081ABFF36F8F8410012CC0
:103CC0000BDB47F6CE55C0F2002500BF00BF00BF9A
:103CD00055F8040B8047013CFAD1FFF725FE002080
:103CE00001B0BDE8F04300F003B8D4D4D4D4D4D4A8
:103CF0007047D4D440B584B002AE009600F004F80A
:103D0000029A039B04B040BDB0B584B00D4602A931
:103D100080EAE57000911C4682EAE37285EAE5716B
:103D2000B0EBE57061EBE57183EAE373B2EBE4724B
:103D300063EBE47300F017F8DDE90223DDF820C03F
:103D400083EAE57382EAE572B2EBE57263EBE57351
:103D5000CCE90023E21782EAE57250405140801A14
:103D6000914104B0B0BD2DE9F04F099D844681B169
:103D7000C2B14BB3B1FA81F7B3FA83F6F71B202F28
:103D80004FD3002D18BFC5E900C100200021BDE8B8
:103D9000F08FCBB30021002D64D00020C5E900C115
:103DA000BDE8F08F002B60D0002861D05F1E3B4241
:103DB00000F08580B1FA81F7B3FA83F6F71B1F2F65
:103DC000DFD207F1010C3CE0571E3A425DD0B1FA58
:103DD00081F7B2FA82F6F71B07F1210CBCF1200F34
:103DE00024D0BCF11F0F79D8CCF1200620FA0CF7B3
:103DF00021FA0CF901FA06F5B0403D434FF0000AF4
:103E0000BCF1010F2CD07CE0B0FBF2FC002D1EBFFA
:103E10000CFB12000021C5E9000100216046BDE84D
:103E2000F08F07F1010CBCF1200F0AD14FF000090F
:103E30004FF0200C0D464FF0000ABCF1010F0FD0DF
:103E40005FE0C7F11F0720FA0CF621FA0CF901FA1E
:103E500007F5B84035434FF0000ABCF1010F50D1CF
:103E600000248FE00020BDE8F08F6046BDE8F08FB1
:103E7000B1FBF3FC002D1EBF0CFB13100021C5E9A4
:103E8000001000216046BDE8F08F002D1EBF00230A
:103E90000740C5E90073012A0ED092FAA2F24F0042
:103EA000B2FA82F202F01F03D140D8401F2393439D
:103EB00007FA03F343EA000C6046BDE8F08F002DDB
:103EC0001CBF07EA0100C5E900C093FAA3F0B0FAED
:103ED00080F021FA00F00021BDE8F08FACF120075E
:103EE000CCF140044FF0000920FA07F601FA04F57E
:103EF0002E4300FA04FA21FA07F53046BCF1010F0F
:103F0000AED02CF001070126023F4FF0000B06EB6C
:103F1000570E4FEA490444EAD5746D0045EAD0755E
:103F20004000E743E943891843EB0708AF1A64EB05
:103F30000306B8F1000F56EA448457EA4585640049
:103F400044EAD5746D0045EAD07540EADA70AE1ADD
:103F50006FEA050164EB030789184FEA40006FEA36
:103F60000401594157EA448956EA4585CC0F4BEA8A
:103F70004A010027A34640EAD170490041EAD87AB5
:103F80000FF039C85FEACC711ED06F004FEA4901CB
:103F900047EAD07741EAD571B7EB020C4FEA40000F
:103FA00061EB030EFD4352196FEA010653EB060263
:103FB00040EADA705EEA41895CEA4785D10F44EA5B
:103FC0004A0200270C4692464FEADA7141EA400065
:103FD00009994FEA4A02002918BFC1E9005940EA8D
:103FE000070122F001002043BDE8F08F40B584B006
:103FF00002AE0096FFF7B7FE029A039B04B040BDE5
:1040000010B540F2D80140F20002C0F20021C0F227
:104010000002044602F004F940F2000040F2000100
:10402000C0F20000C0F20001204402F0F4F810BD1C
:1040300040F20801C0F20001401A40F62861C2F2C5
:1040400000210860704782B0B0B58AB000250446F0
:10405000CDE9050544F28B00C0F20020CDE90E2326
:1040600002904FF400300EAA019001A80992CDE908
:104070000355CDE9075500F011F8002858BF255425
:104080000AB0BDE8B04002B07047D1E904239A42BB
:104090001EBF531C0B6110707047D4D42DE9F04F34
:1040A00099B0814680781892800740F1B5851898BC
:1040B0000027D9F804808A46179011A8821D0C9217
:1040C000421E053010920E900D91514611F8010BD1
:1040D000252803D08A4638B900F0A0BD9AF80150CF
:1040E0000AF1020A252D06D14946C04701370028AA
:1040F000EBD500F08BBD002200244FF0000C4FF0F8
:10410000000B04E01AF8015B002D00F02D811FFA6E
:104110008BF61F2E20D8A5F1200010281ED8DFE82E
:1041200010F015001D001D0018001D001D001D00D1
:1041300014001D001D001D0011001D00CC001D00FD
:104140001D00C9004BF0020B00E0DBE74BF0040B55
:10415000D8E74BF0100BD5E77F2E0DD8A5F1300036
:10416000092840D8402E80F0A0800CEB8C014BF049
:10417000200B00EB410CC5E7A5F14C002E2800F206
:10418000F480DFE810F08F00F200F200F200F2009D
:10419000F200F200F200F200F200F200F200F2008F
:1041A000F200F200F200F200F200F200F200F2007F
:1041B000F200F200F200F200F200F200F200A400BD
:1041C000F2008F00F2009D00F200F200F200F20017
:1041D000F200F200F2002F00F200F200F200F20012
:1041E000F2002F008EE7A5F12400562800F2BD80D2
:1041F000DFE810F08600BB00BB00BB00BB00BB00CB
:104200007400BB00BB00BB00A400BB00BB00BB0034
:10421000BB00BB00BB00BB00BB00BB00BB00BB00C6
:10422000BB00BB00BB00BB00BB00BB00BB00BB00B6
:10423000BB00BB00BB00BB00BB00BB00BB00BB00A6
:10424000BB00BB005800BB00BB00BB00BB00BB00F9
:10425000BB00BB00BB00BB00BB00BB00BB00BB0086
:10426000BB00BB00BB00BB00BB00BB00BB00BB0076
:10427000BB00BB00BB00BB00BB00BB006D00BB00B4
:104280005800BB006600BB00BB00BB00BB00BB000E
:10429000BB00BB005700BB00BB00BB00BB00BB00AA
:1042A00057002FE74BF4207B2CE704EB840100EB55
:1042B000410427E74BF0010B24E74BF0080B21E703
:1042C0000BF080004BEA800040F0800B1AE70BF403
:1042D00080704BEA400040F4807B13E7002A7FF4B3
:1042E00011AF17983F2E00F104011791006832D8E2
:1042F000B0F1FF3F32DD4BF0200B0022844601E796
:1043000012B31898402E179017A90D986546CDF84E
:104310003C90C14690465CEA348200F083FC1798DA
:10432000402E4246C84600F1040117910068DDF8AE
:104330003C9050EA358C54EA3084E3E63F2E00F29C
:104340006D844BF0400BDDE6624600244FF0000C1C
:104350004FF0000BD6E600220446D3E64BF0280BC4
:10436000C0F1000C0022CDE60025CDF83CC03AB1EA
:10437000189817A917900D9800F054FCDDF83CC070
:10438000002C24EAE47E45F0200048BF2BF0400BCF
:1043900061281CBFA0F16501022925D81799612861
:1043A00001F1070121F0070101F108021792A0EBCA
:1043B000050291ED000B0A9244D15FEA4B6058BFB1
:1043C0004FF0FF3E11A8D2B27146764600F0C8FD0C
:1043D000451C4BF4C05B4FF0700C4FF0010EE8B27F
:1043E0008642D8BF461E5CE0A5F16301122900F2A7
:1043F0000A8108230026DFE811F0350113000601C9
:104400000601060106011300060106010601060168
:10441000060161015D01060106010D0106012E0183
:104420001FFA8BF15FEA0B6000F10C811798021DF7
:1044300017920068CA0540F10C81890554BF00B28B
:1044400040B206E15FEA4B6158BF4FF0060E6628A6
:1044500009D065280FD14BF4805B76460EF101013F
:104460000023652411E04BF4005B01226624112136
:10447000764673460AE05FEA0E61A0F102047146D7
:1044800076464FF0000308BF0121002211A8C9B2EF
:10449000112928BF112100F082FF05464FF0020EBE
:1044A000A446119B9DF84800A3F10A0111F1130FD6
:1044B00038BF4FF0020EA3F16401089111F1C70F4C
:1044C00038BF4FF0030E0F9CC1074FD15FEA8B71CD
:1044D0006FD41FFA8BF1202202EAC10211F0040FFF
:1044E0005FEA1F9110F00C0F45D11BF4405F04935D
:1044F000CDE9062140F02B82012E4FF0010056EA53
:1045000080801FFA8BF12A0600F06D810E9BEAB2C3
:10451000134413F8013C302B40F006826B1E1A0640
:1045200021D02E460E9DDAB2154415F8015C302DCF
:1045300040F0F981B31E1A0615D00E9DDAB215446B
:1045400015F8015C302D40F0EE81F31E1A060AD0FA
:104550000E9DDAB2154415F8015C302D40F0E38170
:10456000351F2A06D2D100250022DDE12D220021AF
:1045700010F00C0FB9D000294FF0030050EA109052
:10458000844212DD0A9E0D465FEA0B7117D4041BAC
:10459000934620204946C047002800F13783013761
:1045A0000134F6D300245A460AE000240A9E49B199
:1045B0000FE02B22002110F00C0FDCD195E7241A1C
:1045C000294631B910464946C047002800F11E83EC
:1045D00001379DF8480047F2F601C0F200210007BC
:1045E00046F6CB20C0F2002050EA518528780028FA
:1045F00000F0F982801B4946C0B2C047013701353F
:104600000028F3D502E3782840F09880C5F18803AC
:104610002E4653E01798011D1791006847F251117B
:10462000C0F20021002851EA00855FEA4B6058BFC4
:104630004FF0FF3E2846714600F06AFEDDF83CC0B0
:10464000064617E01798890500F18680011D17912D
:104650000068C11788E04FF6EF700BEA000B0A23E1
:1046600075262BE01798012611AD011D17910068E2
:104670008DF844005FEA0B700ED4B4450CD92020AD
:1046800049466446C047002800F1C082A4F1010CED
:104690000137B445F3D8B4463744ACEB0604002EDA
:1046A00000F0A18215F8010B4946C047013E0028E1
:1046B000F5D5ABE24BF0100B102378264FF6F970CE
:1046C0000BEA00025FEA0B600B960AD41798011DF3
:1046D00017910668D1050AD5900554BFB6B2F6B257
:1046E00005E0179891050AD4011D1791066800216D
:1046F00056EA010008BF2BF0160278D10FE0073010
:10470000154620F007000246416852F8086B1792E0
:104710002A4656EA010008BF2BF0160267D1002690
:104720005FEA4B6062D50021012C60DA4FF6E97038
:104730000BEA00010B9D480637D467E02520494667
:10474000C047002800F1628228464946C047023728
:1047500000287FF5BAAC59E2073020F007010A467D
:10476000496852F8080B179200295A46CDF82CE0F8
:1047700048BF42F4806250EA010322D080EAE1702F
:1047800081EAE173B0EBE17063EBE17111AC22F00F
:1047900010060A23224600F06DFB3146061BDDF8A9
:1047A0003CC0DDF82CE0480630D54FF6FE7076456B
:1047B00000EA01002BDA002D08BF21F0110071463C
:1047C00026E05FEA4B604FF0000040F19E8100213F
:1047D000012CDBDA4FF6EE70DDF83CC000EA0B008E
:1047E000DDF82CE014E0002500229EE0002111AC51
:1047F000304616467546224600F03CFB3146AE4632
:10480000DDF83CC0061B0B9D4806CED40846314659
:104810001FFA80FBC0060AD440F206401BEA000FD4
:104820005FEA0F9044185FEA0B7009D526E0002D6F
:104830004FF0010050EA009044185FEA0B701DD45D
:104840005FEACB7008D0B646644505DA06EB0C008B
:10485000A0EB040E644611E064450FDACDF82CE0BD
:1048600020204946C047002800F1D0810F9801342C
:104870000137A042F4D1DDF82CE004465FEACB60BA
:104880001BD440F206401BEA000F26D05FEA8B7073
:1048900075464FF02B0058BF20205FEA4B51494628
:1048A00048BF2D20C047002800F1B0810137AE4637
:1048B000F3467546B64514DC1CE030204946F34605
:1048C000C047002800F1A28135B328464946C047B9
:1048D000002800F19B810237DE46F3467546B64557
:1048E00008DD30204946C047002800F18F81013D96
:1048F000B542F6DC0F985E45A0EB040456EACB8087
:104900000744002E00F06F8110984946805DC04733
:10491000013E0028F5D579E10137DE46F3467546BC
:10492000B645DEDCE6E71D46049BC90652EA508127
:1049300013F1040F08DB834206DA4BF4005B8B4271
:1049400004DAD8430E1802E04E1E00E00026A3F55C
:104950007A711FFA8BF4099424055FEA8B40039562
:10496000CDE9011C05940CD411F5FA6F70464FF097
:10497000050198BF0420002C58BF032101EB000C57
:1049800003E023EAE37000F1010CDDF824B0002E0F
:10499000079A4FF000050B96CBF3001182F001024D
:1049A00051EA06900F9983186344CB1A53EAC584E1
:1049B0001BF0090F11D10A9E84B160447546104462
:1049C000441A20204946C047002800F11F810137C2
:1049D0000134F6D30024AE4600E00A9E0798CDF8D5
:1049E00000E00028069805D14946C047002800F19C
:1049F0000D810137059800280ED530204946C04763
:104A0000002800F10381C6F178004946C0B2C047D2
:104A1000002800F1FB800237099800070AD44CB146
:104A2000274430204946C047002800F1EF80013C70
:104A3000F7D100240998800427D49DF849004946FD
:104A4000C047002800F1E2800B98012857DB2E2098
:104A50004946C047002800F1D9800B98384400F13E
:104A6000020B0398C5B20020471CAF4202D20C993A
:104A7000085C00E030204946C047002800F1C680AD
:104A80000B98B8423846EFD148E0049820EAE07627
:104A9000851B0B98C0F1000B0398C0B20F90701CDF
:104AA00006D12E204946C047002800F1AF800137CB
:104AB0003020002D04D40F998D42BCBF0E98405D6C
:104AC00049465E4506DDC04701350137013E0028F5
:104AD000E5D59BE0C047002800F198800999781C33
:104AE000C90640F19180002E40F08C802E2049466E
:104AF000C047B0F1FF3F40F38980023773E0099867
:104B0000C00604D407F1010B08E000213EE62E2088
:104B10004946C047002879D407F1020B029849465C
:104B2000801BC0B2C047002870D4049E2B20494689
:104B3000002E48BF2D20C047002E48BF76420028D7
:104B400064D4019810F5FA6F15D844F6D35049464D
:104B5000C1F26200A6FB0005302000EB9510C0B248
:104B6000C047002852D4A8094FF47A7100FB1162A3
:104B70000BF1030506E008980BF10205324610F12F
:104B8000C80F3BD848F21F504946C5F2EB101746F4
:104B9000A2FB0006302000EB5610C0B2C047002830
:104BA00034D47009642100FB117201354CF6CD40FC
:104BB0004946CCF6CC401746A2FB0006302000EB5D
:104BC000D600C0B2C047002820D4F008013500EB61
:104BD0008000A7EB400202F130004946C0B2C04756
:104BE000002813D46F1C012CFFF66FAA2020494621
:104BF000C0470137013C0028F5D507E0009802289E
:104C0000D4D2E8E70746EEE70746ECE799F802005A
:104C100040F0040089F802004FF0FF37384619B021
:104C2000BDE8F08F022AB8BF70472DE9F04F42F679
:104C300089084FF0010CC0F2010804464FF0010E44
:104C400003E05F789C1C252F29D1234613F8015BD4
:104C5000252D01D025B90AE16778A31C252F1DD188
:104C60001C4614F8015B252D01D025B9FFE05F78C3
:104C70009C1C252F13D1234613F8015B252D01D051
:104C800025B9F4E06778A31C252F07D11C4614F83A
:104C9000015B252DD5D0002DD7D1E8E01C464FF083
:104CA000000A4FF00009002604E014F8017B002FF1
:104CB00000F0A980B346BAF11F0F0AD8A7F120056A
:104CC000102D09D80CFA05F515EA080F40F07C8084
:104CD00002E0BAF17F0F0AD8A7F13005092D3ED8BE
:104CE0000BEB8B034AF0200A05EB4306DDE7A7F147
:104CF0004C052E2D00F288805E46DFE815F0670037
:104D0000850085008500850085008500850085007B
:104D1000850085008500850085008500850085006B
:104D2000850085008500850085008500850085005B
:104D3000850085008500770085006700850070008C
:104D400085008500850085008500850085002F0091
:104D5000850085008500850085002F00A5E7A7F167
:104D60002405562D00F250800026DFE805F0334D73
:104D70004D4D4D4D324D4D4D324D4D4D4D4D4D4D99
:104D80004D4D4D4D4D4D4D4D4D4D4D4D4D4D4D4D53
:104D90004D4D4D4D4D4D2F4D4D4D4D4D4D4D4D4D61
:104DA0004D4D4D4D4D4D4D4D4D4D4D4D4D4D4D4D33
:104DB0004D4D3F4D2F4D384D4D4D4D4D4D4D2C4D85
:104DC0004D4D4D4D2C00FFE75E466EE74AF4207ACC
:104DD000FAE76AE7B9F1000F0FD1D94665E70AF0A3
:104DE00080034AEA830343F0800AEDE70AF4807304
:104DF0004AEA430343F4807AE6E7F3457FF455AF8C
:104E00006327F14600E00027B9F1000F2FD0F145EC
:104E100024D147F02003612B1CBF653B022B05D832
:104E20000B68073323F00703083313E0A7F163038C
:104E3000102B0AD8DFE803F00C0909090909090950
:104E400009090909090909090C005FEA0A6309D47B
:104E50000B6804330EF1010E04460B609645FFF615
:104E6000F4AE04E00B685FEA8A54DAD4F1E7BDE8F7
:104E7000F04F70472DE9F04703F01F069846914622
:104E80008A4605462846514632460023FFF7AEF8CB
:104E9000044600FB16500F46A0EB0801092888BF06
:104EA00001F13700303089F80000A81B7AF10000CA
:104EB00049D32046394632460023FFF797F8054686
:104EC00000FB16408A46A0EB0801092888BF01F1C3
:104ED0003700303089F80100A01B77F1000036D38D
:104EE0002846514632460023FFF780F8044600FB6F
:104EF00016500F46A0EB0801092888BF01F13700C2
:104F0000303089F80200A81B7AF1000023D3204634
:104F1000394632460023FFF769F8054600FB164084
:104F20008A46A0EB0801092888BF01F1370030301C
:104F300089F8030009F10409A01B77F10000A1D250
:104F40004846BDE8F08709F10100BDE8F08709F1A6
:104F50000200BDE8F08709F103094846BDE8F08783
:104F60002DE9F04F85B05AEC103B4FEADA77CAF3DF
:104F70000A566FF31F5A077153EA0A0408BF002E3E
:104F80000ED040F2FF75AE423CD10421002C18BF78
:104F90000821394401710021084605B0BDE8F08FB1
:104FA000002700234FF0000A0029076037D40D299D
:104FB00037D3190F00F1050B41EA0A110491190EBC
:104FC0004FEA1A5441EA0A210391190D4FEA1A4691
:104FD00041EA0A310291190C4FEA1A3841EA0A41B2
:104FE0000191190B41EA0A5C190A41EA0A6E190992
:104FF00041EA0A794FEA1A1103F00F034FEA1A2720
:10500000009180E04FF60247002ECFF6FF771CBFDD
:10501000A6F2FF370AF5801A00290760C7D50021DC
:1050200046E03326A6EB8105C5F1200613274FF095
:10503000020CA7EB81072CFA06F401264FF0000EB4
:10504000002F58BF0CFA07F458BF06FA07FE06FAFD
:1050500005F60CFA05F558BF002658BF0025D5F116
:1050600000094FF0000868EB040C013D64F10004F6
:105070001D4004EA0A04751B7EEB040411D38C0066
:10508000C4F13405D4F1140423FA05F7C5F1200561
:105090000AFA05F545EA070558BF2AFA04F5EC07B0
:1050A00002D09B194AEB0E0A03EA09030AEA0C0A2A
:1050B0001F0947EA0A791F0F1D0B47EA0A170497D1
:1050C0001F0E45EA0A5C47EA0A2703971F0D1D0ACF
:1050D00047EA0A3702971F0C45EA0A6E47EA0A4771
:1050E00000F1050B13F00F0301974FEA1A174FEA6F
:1050F0001A544FEA1A464FEA1A384FEA1A2500970F
:1051000000F0B4802F46991A092B88BF01F12703BC
:1051100003F13001817409F00F030D219D1A092B51
:1051200088BF05F127030C2903F13003437498BFAE
:105130000C210EF00F039D1A092B88BF05F12703E0
:105140000B2903F13003037498BF0B210CF00F03FC
:105150009D1A092B88BF05F127030A2903F13003A3
:10516000C37398BF0A21019B3D4603F00F039F1AAA
:10517000092B88BF07F12703092903F13003837343
:1051800098BF0921029B03F00F039F1A092B88BFC8
:1051900007F12703082903F13003437398BF08215F
:1051A000039B03F00F039F1A092B88BF07F1270306
:1051B000072903F13003037398BF0721049B03F011
:1051C0000F039F1A092B88BF07F12703062903F154
:1051D0003003C37298BF06210AF00F039F1A092BF0
:1051E00088BF07F12703052903F13003837298BFB5
:1051F0000521009B03F00F039F1A092B88BF07F1BD
:105200002703042903F13003437298BF042105F0FA
:105210000F039F1A092B88BF07F12703032903F106
:105220003003037298BF032108F00F039F1A092B64
:1052300088BF07F12703022903F13003C37106F089
:105240000F0398BF02219A1A092B88BF02F1270386
:1052500003F130028271012998BF012104F130006D
:105260008BF80000084605B0BDE8F08F19F00F0379
:1052700048D10C2946D21EF00F0345D10B2943D249
:105280001CF00F0342D10A2940D2019B13F00F03F7
:105290007FF46DAF0929BFF46AAF029B13F00F03CF
:1052A0007FF473AF0829BFF470AF039B13F00F03B3
:1052B0007FF479AF0729BFF476AF049B13F00F0397
:1052C0007FF47FAF0629BFF47CAF1AF00F037FF4A1
:1052D00085AF0529BFF482AF17F00F038CD10429E5
:1052E0008AD215F00F0394D1032992D218F00F033C
:1052F0009CD102299AD206F00F0353EA0107A2D1EA
:105300000021ABE72F4609E72F4614E72F461FE79A
:10531000844639B370B500EB010C4B1EA1F1020EAF
:10532000CC1E0022855C85B1934219D085186E7819
:1053300076B1964514D0AE786EB1944210D0EE7826
:1053400066B104329142EDD10AE000EB020C07E0B5
:1053500005F1010C04E005F1020C01E005F1030C7C
:10536000BDE87040ACEB00007047B0B588B00025D8
:105370000446CDE9040544F28B00C0F20020CDE9DB
:10538000025501904FF4003000906846CDE9065573
:10539000FEF784FE002858BF255408B0B0BD2DE9A3
:1053A000F04FA1B056EC108BB246C6F30A546FF31F
:1053B0001F5AF50F58EA0A0708BF002C0ED040F21A
:1053C000FF76B44215D10821002F08BF0421002424
:1053D00029440171204621B0BDE8F08FA91C01715C
:1053E00030210124417100210160204621B0BDE837
:1053F000F08FA4F23549002CCDE9062308F0010610
:105400000495CDE9081006BF4FF6CC39CFF6FF79E9
:105410000AF5801A4FEA8A0242EA9870002F159026
:105420005FEA0F90022C5FEA2F91B9F1000F40EA7A
:1054300001074FEA880014900596139749D448460F
:1054400000F021FD0546B9F1030F88BF013D284654
:1054500000F027FD0DF1580B04462846594600F090
:105460000BFE1AA81CA95A460297CDE90010A5EB1D
:1054700009002044514600F17C034046AB4600F051
:1054800031FC8246152D5FD8149F4CF6CD46159DF4
:105490001EA8CCF6CC460C4600903846294632462B
:1054A0004FF0CC3300F072FEDDE91E01820842EAC3
:1054B000817120F0030008444042F8426AD1384626
:1054C000294600F0F7FC58455FEA3F901290002013
:1054D00087E0C9F1000B584600F0DCFC044619F1E6
:1054E000010018BF013CABEB040B584600F0D9FC9F
:1054F00016A9054658468B4600F03BFD1AA81CA984
:105500005A460297CDE90010601B00F17D0340462A
:10551000514600F0E7FB04EB090B8246012C1BD837
:10552000089B002E069D4CF6CD46CCF6CC4608D006
:10553000DDE91C0201381C9062F100001D90002082
:1055400013900120129050E04CF6CD460020CDE99A
:105550001200CCF6CC4646E0089B4CF6CD46069DA4
:10556000CCF6CC463E2C25D84FF0FF30B4F12002CB
:1055700000FA04F758BF0027149C58BF9040159AB2
:1055800024EA070722EA000038435FEA1F901290DE
:10559000002011E0059888B91398C043C01965F13F
:1055A000000100F087FC58455FEA3F90139000200F
:1055B000129017E000201290139016E047F00200BE
:1055C000294600F077FCDDE91C124B1E62F1000554
:1055D000584553EA21801C9055EA22801D900020F6
:1055E000129013902146089B069D002D0C934AD0E3
:1055F000BAF10A0071F1000001D2012037E0002762
:105600004FF00A0C02204FF064094FF47A7842F20E
:10561000107E0A22A2FB0C4507EB870305EB430330
:10562000BAEB040471EB030320D3A2FB093407FB9C
:105630000944BAEB030371EB040314D3A2FB08344F
:1056400007FB0844BAEB030371EB04030DD3A2FB81
:105650000E23043007FB0E37BAEB020371EB07038E
:10566000D8D2013802E0013000E00230089B079AEE
:105670000BEB02073844B0EBD27FB8BFD00F8342A8
:1056800053EAB0800C90CDF80CB00DF1680B1D9C66
:1056900016AD9BE8000B00201591149011900B9013
:1056A0002FE01599504632464FF0CC3316AD4FEAF5
:1056B000DB04009500F06AFD1498BB46129910F0C7
:1056C000FF0FDDE916235FEA1F90014008EB880019
:1056D0001291404210994942B1EB400F13995FEA91
:1056E0001F9001401391D00840EA437101EB800004
:1056F000AAEB4000149011988A4601301190D80806
:1057000015905846214632464FF0CC330095CDF8DF
:1057100034B00E9400F03AFD4046494632464FF010
:10572000CC33DDE9164B0095CDE90F9800F02EFD46
:10573000DDE91601E20842EA4B774FEAD109C008D9
:1057400040EA4178B8EB070079EBDB00A9D3159963
:10575000BAF10A0071F1000001D201203BE00A9782
:1057600000250A2202204FF00A0C64274FF47A7EAB
:10577000A2FB0C3605EB850406EB4406BAEB0303EB
:1057800071EB060322D3A2FB073605FB0766BAEBD3
:10579000030371EB060316D3A2FB0E3605FB0E6660
:1057A000BAEB030371EB06030FD342F2107404301B
:1057B000A2FB042305FB0435BAEB020371EB0503DE
:1057C000D6D2013802E0013000E002300A9F4CF6E8
:1057D000CD46CCF6CC460C9A4AEA010313435FEA65
:1057E0001F93904203DD13B901200B905AE71398E1
:1057F000C00771D0DDF8408032460F994FF0CC33AE
:1058000016AD0095404600F0C1FCDDE91610C8F168
:105810000003DDF848B0CA0842EA407404EB820293
:105820005242B3EB420F5FD1C208DDF84490DDF87D
:1058300050C0DDE90D01904632464FF0CC33CDF833
:1058400050C0009500F0A2FC1599324616984FF012
:10585000CC3312905046179F009500F097FC4CF601
:10586000CD4216A8009020464146CCF6CC424FF0DF
:10587000CC33DDE91665CDF83C8000F087FCF108FB
:1058800041EA457E14980EEB8101A046ED0810F028
:10589000FF0FAAEB410C5FEA1F90DDE916120BEA3D
:1058A000000B12984CF6CD461595CB0843EA42748E
:1058B000C00804EB830340EA47705B4209F1010929
:1058C00016ADF908C8F10007CCF6CC46D208F2466E
:1058D000B7EB430FAFD00CE00DF1400BD646DDF82F
:1058E00050C09BE8000B04E0D646DDF84490DDF89C
:1058F00050C0159A8EEA08010F9813464240114392
:105900000B9A5FEA0F911143CA07059900295FEAD4
:105910001F91002A04BF139A11EA02010ED05FFA08
:105920008CF105295FEA0F92042962EA0B025FEA13
:105930009F9142EA0E0202EA010C01E04FF0010CD5
:10594000039809EB00051EEB0C0043F10001B0F1D8
:105950000A0271F1000201D2012338E0AE460026AE
:105960004FF00A0802234FF0640B4FF47A7A42F2A8
:1059700010790A25A5FB087206EB860402EB4402A7
:10598000C41B71EB02021DD3A5FB0B2406FB0B44C9
:10599000821A71EB040212D3A5FB0A2406FB0A4407
:1059A000821A71EB04020CD3A5FB0952043306FBE7
:1059B0000926421B71EB0602DCD2013B02E00133F7
:1059C00000E002334CF6CD467546CCF6CC460C9A38
:1059D00093425FEADC82012A079A3AD1069F4FB1CF
:1059E0002A441A44012AD8BF0122089F974257EA45
:1059F000B2820C920C9A93422BDD05304CF6CD47C7
:105A000041F10001CCF6CC474008013B40EAC170AF
:105A1000013510EB51024FEA510142F10002A2FBA5
:105A2000077626F0030707EB96074FF0CC36D21B1C
:105A3000821A4CF6CD40CCF6CC4061F10001A2FBBD
:105A4000000702FB06724CF6CD46CCF6CC4601FBB5
:105A500006210C9A934253EAB2822BB214B2234429
:105A6000A3F10108012CC0F2348102F00303099A6A
:105A7000CDF84880042C02F105091193149402D248
:105A80004FF0000AA9E0E31A2244149C02F1040832
:105A90004FF0000A13936422002383460F46FEF75B
:105AA000A5FA420800F0010042EAC17212EB51016E
:105AB00041F10001A1FB062323F0030202EB930254
:105AC0000023891A4FF47A7240EA4100394640F0C7
:105AD000300015905846FEF789FA42084CF6CD463C
