:020000040200F8
:1000000020040022812700026126000291270002BD
:1000100091270002912700029127000291270002F8
:10002000000000000000000000000000911000022D
:100030009127000200000000A9100002191100021F
:04004000811A00021F
:0C004400C8000000995D0002F80F0000E9
:100050002DE9F04381B000EB400040F24C43C2F286
:100060000023154603EBC003894603F11808D86A3C
:10007000022819D001280CD048B9D8F80C40D8F87B
:100080001000E143A04267D90844A8426AD2002682
:1000900089E0D8F80C40D8F81010A14233D9E043D9
:1000A0000144D8F8080033E0D8F80C40002621E0DD
:1000B000D8F8081010440844091B884250EA3180DF
:1000C0004946A84250EA3587D8F8040020443A4609
:1000D00004F014FE3819D8F80810411AA5EB0705EA
:1000E00050EA11843E44B944002DBFF35F8FC8F835
:1000F0000C4058D0D8F81000E243A042D8D91044A0
:10010000D8F80810D8E7E243D8F8080011440144B1
:10011000A94251EA3586051BD8F804002044AE42B6
:1001200009D24946324604F0E9FDBFF35F8F30192A
:10013000C8F80C0037E049462A4604F0DFFD771B7B
:10014000D8F8040009EB05013A4604F0D7FDBFF3E7
:100150005F8FC8F80C7026E0D8F8082008441044D7
:10016000A84294D3D8E901010E1B2044B54209D21C
:1001700049462A4604F0C2FDBFF35F8F6019C8F8F4
:100180000C000FE04946324604F0B8FDAF1BD8F82A
:10019000040009EB06013A4604F0B0FDBFF35F8F9F
:1001A000C8F80C702E46304601B0BDE8F083D4D4B8
:1001B000F0B581B040F24C450C46C2F200252B78D8
:1001C000532B37D00646A8212846174604F091FD48
:1001D00003202861686145F60D4040F2F441C0F209
:1001E0000020A861C2F20021E9614FF48061296218
:1001F0000021A9626962E96240F6F40228664FF0C4
:10020000100E44F68260C2F200226A66C5F868E009
:100210002967E9666967BFF35F8FC0F200200F307E
:1002200010F8011905F8011B0FF007C03A463046D7
:10023000BFF35F8FEFF311854FF0200181F3118839
:100240002146FFF705FF85F3118801B0F0BDD4D436
:100250002DE9F04F9BB092460F464FF000090490F5
:100260001A900DF1580B002006A916914021179104
:10027000CDE918990EE0011DCAF800100168CDE91A
:1002800000385846234600F01BFA1998B0F1FF3F9A
:1002900040F3128217F8011B25291DD0002900F018
:1002A000FB81DDE91720431C934207D8169A1154AD
:1002B00018931998179A0130199018469042E4D172
:1002C00016991A98FFF774FF1899884240F0DF8159
:1002D000CDF86090D9E700BF4FF000083978A1F160
:1002E00023030D2B18D80222DFE803F00E16161692
:1002F0001616161610161216160748EA02080137C7
:10030000ECE700BF00BF00BF0822F6E70422F4E7D5
:100310000122F2E700BF00BFA1F13A02002312F16F
:100320000A0F0FD30A4600BF17F8011F03EB830320
:10033000A1F13A0602EB430216F10B0FA2F13003D2
:100340000A46F1D82E290FD13A4612F8016F2A2E0B
:100350000DD1DAF8001002370A1DCAF800200C6827
:1003600001211DE000BF00BF0021002418E0A6F11C
:100370003A0717F10A0F02D2002100240FE00024EF
:1003800012F8011F04EB8407A1F13A0506EB4707B9
:1003900015F10B0FA7F130040E46F1D801211746D5
:1003A00017F8012B02F0FB06682EF9D0A2F15806CF
:1003B000202E26D8DFE806F01211111111111111AB
:1003C000111111163C1111111111111111111111ED
:1003D0006C11117911381111120056E7DAF800008A
:1003E000102248E7DDE91720411CDAF8003091427D
:1003F00003F10406CAF800603FF660AF169A1B6866
:100400000AE0252A7FF441AFDDE91720411C914223
:100410003FF654AF169A2523135418911998179A3A
:1004200001301990084649E7DAF800000A2222E76D
:10043000DAF800104CF6CD4C0A1DCAF800200A6804
:1004400005925142002A48BF0A460A2ACCF6CC4CF3
:1004500003914FF0010107DBA2FB0C56632A01F167
:1004600001014FEAD602F7D88C4254EA81895E46F0
:10047000002B58D0059908F0040200295FEA5F912B
:1004800041EA9201A3EB010B5FEA887550D473E057
:10049000DAF800001022011DCAF8001001680823D4
:1004A0000820CDE900095846EDE6DAF80020131DD2
:1004B000CAF80030126845F22553002AC0F2002322
:1004C00052EA13865FEA01880BE000BF00BF00BF5D
:1004D0001998CDF86090B0F1FF3FA4F101047FF7C7
:1004E000D4AE16F8011B002C5FEA188200293FF4F5
:1004F000CCAE002A7FF4C9AEDDE917235D1C95421E
:1005000007D81698C1542B461998179A0130189598
:1005100019909342DFD116991A98FFF749FE18995E
:100520008842D5D0B3E04FF0000B5FEA887523D541
:1005300014BB002800F1A7800598B0F1FF3F47DD0C
:100540005FEA487064D5DDE91720411C914208D864
:10055000169A2B23135418911998179A0130199051
:100560000846904254D116991A98FFF721FE18991F
:100570008842059944D08AE05FEAC871D9D1BBF1BD
:10058000000FD6D0029502E00028AB467BD4ABF139
:1005900001055D4538BFD94536D2DDE917214B1C31
:1005A000934208D816982022425419461998179A4F
:1005B0000130189319909142E6D116991A98FFF7D5
:1005C000F7FD1899884262D1002018901998DBE74E
:1005D000DDE91720411C914208D8169A2D231354A7
:1005E00018911998179A01301990084690420DD128
:1005F00016991A98FFF7DCFD18998842039946D19D
:1006000000201890059103E0029D92E70398059061
:100610001998002850D4002D0BD40A223046059991
:100620002346CDE900B8B34600F04AF84FF0000980
:100630002BE608F001012143EFD1BBF1000FECD014
:10064000ABF101055D4538BFD945E6D2DDE917219B
:100650004B1C934208D816983022425419461998D8
:10066000179A013018931990914209D116991A9846
:10067000FFF79EFD1899884209D10020189019981B
:100680000028AB46DCD54FF00009B346FDE54FF03E
:10069000FF301BB0BDE8F08F40B1189A52B106A9E7
:1006A0000498FFF785FDDDE9181004E000201BB079
:1006B000BDE8F08F002108441BB0BDE8F08FD4D412
:1006C0002DE9F04F81B015468B4691421F460446F6
:1006D000DDF828904FF0010007D3594600BF00BF56
:1006E000B1FBF5F10130A942FAD2874257EA80887E
:1006F000B9F1000F0B9938D011F0010035D18807FE
:100700004FF0200048BF30202021002F50EA018602
:100710004FF0000A06E000BFE068A9F10109B0F15E
:10072000FF3F22DDB9F1000F1FD0C8451DD2D4E92B
:100730000120411C914207D822681654A160E0684C
:1007400062680130E06008469042E5D12168206986
:10075000FFF72EFDA168884202D1C4F808A0DBE7AC
:100760004FF0FF30E060A9F10109E068002842D4B1
:10077000012603E000BF00BF013F6E43022FFBD202
:10078000BBFBF6F1A942F8D246F25A07A268C0F2C2
:10079000002700BF00BF00BF6168531CBBFBF6FA17
:1007A0008B4209D8206817F80A1081541A46E0686D
:1007B00061680130A360E0608A4209D12168206944
:1007C000FFF7F6FCA26890420CD10022E068A2601C
:1007D00000280AD4B6FBF5F10AFB16BBB5420E465B
:1007E000DAD902E04FF0FF30E0600B99C90718BF7B
:1007F000B9F1000F02D101B0BDE8F08F2025A9F1B9
:1008000001064E4538BFC845F5D26168531C8B427E
:1008100007D8206885541A46E06861680130A360F3
:10082000E0608A4209D121682069FFF7C1FCA16814
:10083000884207D10022E068A260B0F1FF3FB146D4
:10084000DDDCD8E74FF0FF30E06001B0BDE8F08FAD
:1008500082B080B582B0CDE9042304AA019201AA36
:10086000FFF7F6FC02B0BDE8804002B07047D4D478
:10087000B0B5054600F090FE68B145F6452145F259
:10088000580245F6E5430446C0F20021C0F20022BA
:10089000C0F2002323E0284601F046F820B30446C6
:1008A000284601F051F870B145F6452145F258024D
:1008B00045F2F013C0F20021C0F20022C0F2002382
:1008C0000020FFF7C5FF45F6452145F2580245F2E5
:1008D0008D73C0F20021C0F20022C0F2002300207C
:1008E000FFF7B6FF2046B0BD45F6A6510020C0F286
:1008F00000210024FFF7ACFF2046B0BDD4D4D4D4EF
:10090000022818BF704740F6081046F28811C2F25C
:100910000020C0F2002100F057BDD4D4D4D4D4D4E8
:1009200082B040F6941744F6C47545F24E76C2F292
:1009300000276C46C0F20025C0F200260020CDE959
:10094000000000BF00BF00BF38684FF0FF322146F3
:1009500002F06AFD0128F7D100202946FFF778FF51
:100960009DF80020019B00203146FFF771FFEBE767
:1009700045F6C2610020C0F20021FFF769FF40F692
:10098000E41046F2D001C2F20020C0F20021FFF7CD
:100990006FFF40B145F6A4010246C0F200210020DD
:1009A000FFF756FF00BE40F6041B40F6E41445F680
:1009B000452545F65C5645F6A40A45F22C58C2F288
:1009C000002BC2F20024C0F20025C0F20026C0F2C3
:1009D000002AC0F2002810E045F641410020C0F294
:1009E0000021FFF735FF45F644310020C0F2002119
:1009F000FFF72EFF002003F0D7FA9BF80000002835
:100A00003ED0204600F098FFE0B18146204600F03D
:100A10009BFF40B145F2F703002029463246C0F261
:100A20000023FFF715FF45F6340300202946324620
:100A3000C0F20023FFF70CFF002051464A46FFF7A3
:100A400007FF00BE45F6F4110020C0F20021FFF7B9
:100A5000FFFE204600F078FF0028BDD045F2F703E6
:100A60000746002029463246C0F20023FFF7F0FE79
:100A7000002051463A46FFF7EBFE00BEACE700BF50
:100A800000204146FFF7E4FE40F6E0104FF4FA7113
:100A9000C2F20020006802F0A3FD0128ADD145F6A6
:100AA00061210020C0F20021FFF7D2FEA5E7D4D4D7
:100AB00010B582B040F60514C2F2002420780A284E
:100AC0004FF00000019007D140F604100121C2F25E
:100AD0000020017002B010BD40F6E01001A9C2F282
:100AE0000020006802F014FC2078019900F1010058
:100AF000207051B14EF604504FF08051CEF20000FC
:100B00000160BFF34F8FBFF36F8F02B010BDD4D41D
:100B100088B046F270010020C0F200210790D1E9B0
:100B20000001CDE9040107A801F046FD9DF81F3042
:100B300045F2792145F23E029DF81D709DF81E6038
:100B4000C0F20021C0F200220020CDE90067FFF7CB
:100B50007FFE45F27F510020C0F20021FFF778FEB2
:100B600003F01AFD40F63C710390C2F200210868C0
:100B700003F0B6F9022806D840F63C70C2F2002015
:100B8000006803F011FA45F65E010020C0F2002172
:100B9000FFF75EFE40F6042046F24811C2F2002044
:100BA000C0F20021FFF764FE40B145F6A401024601
:100BB000C0F200210020FFF74BFE00BE40F60618F1
:100BC00040F6941B40F6042545F6452745F6536448
:100BD00045F6A409C2F20028C2F2002BC2F2002599
:100BE000C0F20027C0F20024C0F200290DF1100A63
:100BF00028E000BF00BF00BF40F63870C2F20020FE
:100C0000006803F0D1F945F20B210020C0F2002169
:100C1000FFF71EFE40F63C70C2F20020006803F0B1
:100C2000DFFA45F671510020C0F20021FFF710FEF7
:100C300045F2A8710020C0F20021FFF709FE002054
:100C400003F0B2F998F800000028DBF800004BD060
:100C5000002102F051F80128F4D144F693610020FC
:100C6000C0F20021FFF7F4FD284600F065FEE0B178
:100C70000646284600F068FE40B145F6F8630020BD
:100C800039462246C0F20023FFF7E2FD45F6FF4356
:100C9000002039462246C0F20023FFF7D9FD00208C
:100CA00049463246FFF7D4FD00BE45F69571002057
:100CB000C0F20021FFF7CCFD284600F045FE0028D9
:100CC0009AD045F6F8630646002039462246C0F21F
:100CD0000023FFF7BDFD002049463246FFF7B8FD6F
:100CE00000BE89E700BF00BF4FF4FA7200235146EF
:100CF00002F002F90128A5D145F66F410020C0F2AB
:100D00000021FFF7A5FD45F6C4010020C0F2002137
:100D1000FFF79EFD4FF4FA7103A802F025FF45F29C
:100D200046210020C0F20021FFF792FD8AE7D4D4CB
:100D300010B582B040F60714C2F2002420780A28C9
:100D40004FF00000019007D140F606100121C2F2D9
:100D50000020017002B010BD40F6941040F2000176
:100D6000C2F20020C2F2002101AA0023006802F0B2
:100D700017FA012802D1207801302070019850B173
:100D80004EF604504FF08051CEF200000160BFF3E8
:100D90004F8FBFF36F8F02B010BDD4D4D4D4D4D44E
:100DA00080B582B040F6101240F64C13C2F2002219
:100DB000C2F2002304200F214FF0000CCDF800C038
:100DC00001F0FAFF40F69411C2F20021086018B950
:100DD0000020002100F024F840F698130120C2F210
:100DE0000023002100224FF0030CCDF800C001F0D9
:100DF000E3FF40F6E0110028C2F2002108601CBFAA
:100E000002B080BD0020002102B0BDE8804000F0AB
:100E100007B8D4D4D4D4D4D4FFF7C2BFD4D4D4D454
:100E200000BE7047D4D4D4D4B0B540F624244FF0DB
:100E3000FF31C2F20024206802F0D2FB012803D067
:100E400020680021FFF7ECFF40F62820C2F20020C6
:100E50000178002918BFB0BD01210170FFF7DCFF48
:100E600040F62C25C2F200252868013828600CD0F5
:100E7000206800210022002302F03EF80128F3D070
:100E800020680021FFF7CCFFEEE7B0BDD4D4D4D466
:100E900080B540F6282240F62C20C2F20022C2F291
:100EA00000200021117040F630220160C2F20022C1
:100EB0004FF48070012101F0CFFF40F62421C2F2EF
:100EC0000021086018B900200021FFF7A9FF00F0F9
:100ED0009BF800F029F800F05FF803F0E5F9002036
:100EE00080BDD4D4D4D4D4D440F6782C40F6D823C2
:100EF000C2F2002CC2F20023C0F800C00B608020B8
:100F000010607047D4D4D4D440F6D84C40F638534F
:100F1000C2F2002CC2F20023C0F800C00B60802097
:100F200010607047D4D4D4D4B0B582B040F62C2031
:100F300046F29413C2F2002040F63875C0F2002346
:100F400080220168C2F200250131016040F6817003
:100F500046F24C01C0F20020C0F200210124CDE98C
:100F6000004502F095FD012801D102B0B0BD28680E
:100F7000002102B0BDE8B040FFF752BFD4D4D4D4B2
:100F800010B50446FFF750FF2046BDE81040FFF7BC
:100F9000C7BCD4D4D4D4D4D4B0B582B040F62C20BD
:100FA00046F29813C2F2002040F63C75C0F20023CE
:100FB0004FF480720168C2F200250131016040F6F1
:100FC000F17045F2D071C0F20020C0F2002101247E
:100FD000CDE9004502F05CFD012801D102B0B0BDB1
:100FE0002868002102B0BDE8B040FFF719BFD4D493
:100FF00010B50446FFF718FF2046BDE81040FFF784
:10100000B7BCD4D4D4D4D4D480B584B040F62C208A
:1010100046F29C13C2F2002040F6407C42F2802E41
:10102000C0F2002301684FF4807201310160012099
:10103000009041F2790045F69521C0F20020C0F2FF
:101040000021C2F2002CC2F2002ECDE901EC02F028
:10105000EFFB40F6A0710028C2F2002108601CBF1F
:1010600004B080BD0020002104B0BDE88040FFF73F
:10107000D7BED4D4D4D4D4D410B50446FFF7D4FE0C
:101080002046BDE81040FFF743BDD4D4D4D4D4D417
:101090001EF0040F0CBFEFF30880EFF30980014945
:1010A00008470000411100020F4B1968EFF3098255
:1010B0001EF0100F08BF22ED108A22E9F04FEFF367
:1010C0000B8342F8043D0A604FF0100080F3118852
:1010D000BFF34F8FBFF36F8F03F02EF84FF0000078
:1010E00080F3118800F004B87C200022D4D4D4D43A
:1010F000074801680A6802CA81F30B88B2E8F04F1A
:101100001EF0100F08BFB2EC108A82F309887047F6
:101110007C200022D4D4D4D410B51020EFF3118455
:1011200080F3118803F064F930B14EF604504FF0AB
:101130008051CEF20000016084F3118810BDD4D438
:10114000806910F8020C022801D1FFF7D1BF0428F2
:1011500038BF704780B544F6027045F2DF7245F241
:101160004203C0F20020C0F20022C0F200234FF47C
:101170007E7101F029FAD4D4283140F8481D41F29B
:10118000A1114FF0807CC0F2002122F00102C16366
:101190000264C0F844C06FF00201C0E9091370474F
:1011A00000BE00BF00BF00BFFEE7D4D4D4D4D4D467
:1011B0004EF62250F021CEF20000017000F018F837
:1011C0004EF63470CEF20000016841F040410160FB
:1011D00062B6BFF36F8FEFF3148C2CF0040C8CF31A
:1011E0001488BFF36F8F02DF00BEFDE7D4D4D4D4E0
:1011F00041F2140044F6D351C2F20020C1F2620160
:101200000068A0FB01014FF0FF3000EB91110020BE
:10121000B0EB116F18BF70474EF21002F023CEF200
:10122000000251604EF62351CEF200010B70906027
:10123000072010607047D4D4EFF31180102181F3A0
:10124000118840F6A471C2F200210A68002A02F156
:1012500001020A6018BF704740F6A871C2F200216F
:1012600008604EF60450CEF200000068C00500D1C0
:10127000704780B544F6027044F6287245F2D9638F
:10128000C0F20020C0F20022C0F2002340F2A441CC
:1012900001F09AF9D4D4D4D440F6A470C2F200205C
:1012A000016859B10139016018BF704740F6A87054
:1012B000C2F20020006880F31188704780B544F6C0
:1012C000027045F6207244F6B863C0F20020C0F206
:1012D0000022C0F2002340F2AD4101F075F9D4D4F0
:1012E00010B572B64EF69024C4F2010402F0D4FC9C
:1012F0002078010720D04EF2FA314AF2025CC4F2A3
:101300000101CFF6FF7C00220B88A1F800C02270FB
:1013100043F425420A80BFF34F8F30BFBFF36F8F76
:1013200062B6BFF36F8F72B60A88A1F800C0207052
:1013300042F42540088008E0BFF34F8F30BFBFF371
:101340006F8F62B6BFF36F8F72B662B6BDE81040A2
:1013500002F0FEBCD4D4D4D480B5EFF303801038AF
:1013600040B2002806D44EF20041CEF20001405CAB
:101370000F2817D94EF60C50CEF200000068400539
:1013800058BF80BD44F6027045F6164245F222135E
:10139000C0F20020C0F20022C0F2002340F221611E
:1013A00001F012F944F6027045F6164245F66563FF
:1013B000C0F20020C0F20022C0F2002340F20F6110
:1013C00001F002F9D4D4D4D480B545F25422C5F248
:1013D0004F020260084600F003F8002080BDD4D41C
:1013E00070B5044600F064F841F2000CEFF3108190
:1013F000C2F2002C012080F31088DCF8000038B91C
:1014000040F614500022C4F24000027040220270E4
:10141000DCF800000130CCF8000081F3108820884F
:1014200030B340F6000E0021C4F2400E08E000BFC9
:101430000EEB8010013140F822302088814217D213
:10144000606800EBC10250F831309288D8034FEA4F
:101450001220D2B2ECD50EEB801555F8226026F49E
:10146000803645F8226023F4803645F82260DFE7B5
:101470000120EFF3108180F31088DCF8000020B128
:10148000DCF800000138CCF80000DCF8000010B1F6
:1014900081F3108870BD40F614500022C4F2400061
:1014A00002708022027081F3108870BDD4D4D4D42D
:1014B0002DE9F04F81B004460088002867D04EF631
:1014C0004C4B0025C4F2010B4FF0010A04E000BFB1
:1014D0002088013585425AD246F2A21642F24008CF
:1014E0000027C0F20026C4F220080CE000BF00BFB5
:1014F00088F80000C820012101F06EF8013708F1DA
:101500000208032FE4D0606836F8021B00EBC50028
:1015100082888A42F2D100689BF8001000F0B8502F
:101520000AFA07F9B0F1807F09EA010018D158B929
:10153000012001F0FDF89BF8000040EA09008BF85B
:101540000000012001F0C8F898F900000028D5D467
:1015500098F8000040F08000CAE700BF00BF00BF5D
:1015600058B1012001F0E4F89BF8000020EA0900DE
:101570008BF80000012001F0AFF898F90000B0F1FD
:10158000FF3FBBDC98F8000000F07F00B0E701B03F
:10159000BDE8F08FD4D4D4D42DE9F04381B00D460A
:1015A000097C044600270D295FEA9F9202740120FE
:1015B0002A7C00FA01F1E16042F20001C4F232013A
:1015C000656001EB0221A16069696161A969E1615E
:1015D000A761EE69EFF3108980F31088287C4FF043
:1015E0000048011F28FA00F006296FF0006151EA57
:1015F00030A043F21001C4F220010A6810400860D4
:1016000008689620012100F0E7FF89F310884FF465
:101610002541A0684FF0060E0160A068C762A0686F
:10162000C763A0688764287A2978A268C00503295F
:10163000696808BF00F58030D0620139A068C0F841
:101640001080A068C0F81480A068C0F81880A06856
:101650004762A0688762A068B269C261A068F26947
:101660000262A0688166A06841666168D6F850C0D1
:10167000C969F64601F1300208E000BF00BF00BFB3
:1016800001370432BEF1010E00D112E091F848306A
:10169000FB40DB07F4D03B46042F08BF0323032F96
:1016A00008BF0423A06800EB83001368013BC364F8
:1016B000E6E7287C0D2802D8A06800214164A068D4
:1016C00000218163A068C0F88810306D40B996F899
:1016D000200096F82110400340EA41704CEA000CCB
:1016E00096F84800A16800284FF4A00008BF4FF406
:1016F000AA000864A068C0F834C041F2040C96F84F
:10170000540096F85510A268C2F2002C4901D36A21
:1017100041EA001003211843D062A068012301634D
:10172000A0680363D4E90201C1604EF2001095F98C
:1017300012704CF20031CEF20000C4F20001002F12
:101740001AD46D7CC2192D0182F800534CF8274041
:1017500051F8272022F4803241F8272051F8272021
:101760007A0907F01F07BFF35F8F00EB8205BB40CC
:10177000C5F8803140F8223096F92830002B1DD46E
:1017800096F82220C7180125120187F800234CF88B
:10179000234051F8232022F4803241F8232051F8CD
:1017A00023205A0903F01F03BFF35F8F00EB82076A
:1017B00005FA03F3C7F8803140F8223096F9293052
:1017C000002B1DD496F82320C7180125120187F895
:1017D00000234CF8234051F8232022F4803241F8B2
:1017E000232051F823205A0903F01F03BFF35F8F12
:1017F00000EB820705FA03F3C7F8803140F8223086
:1018000096F92A30002B1DD496F82420C7180125FC
:10181000120187F800234CF8234051F8232022F4CA
:10182000803241F8232051F823205A0903F01F0386
:10183000BFF35F8F00EB820705FA03F3C7F880312F
:1018400040F8223096F92B30002B1DD496F8252035
:10185000C7180125120187F800234CF8234051F8DE
:10186000232022F4803241F8232051F823205A0902
:1018700003F01F03BFF35F8F00EB820705FA03F34A
:10188000C7F8803140F8223096F92C30002B1DD457
:1018900096F82620C7180125120187F800234CF876
:1018A000234051F8232022F4803241F8232051F8BC
:1018B00023205A0903F01F03BFF35F8F00EB820759
:1018C00005FA03F3C7F8803140F8223096F92D303D
:1018D000002B1DD496F82720C718120187F8002383
:1018E0004CF82340012751F8232022F4803241F89C
:1018F000232051F82310590903F01F03BFF35F8F12
:1019000000EB810207FA03F3C2F8803140F821307E
:1019100045F254010020C0F24701216001B0BDE84A
:10192000F083D4D4D4D4D4D4D0E9021200204A60B5
:101930007047D4D4D4D4D4D4D0E9021200208A6021
:101940007047D4D4D4D4D4D4B0B543684EF2801EFA
:1019500041F2040CCEF2000E93F91210DB69C2F2D0
:10196000002C00290ED44A0901F01F04012505FAB4
:1019700004F44EF82240BFF34F8FBFF36F8F002265
:101980004CF8212093F9281000290ED44A0901F0BF
:101990001F04012505FA04F44EF82240BFF34F8FCF
:1019A000BFF36F8F00224CF8212093F929100029F2
:1019B0000ED44A0901F01F04012505FA04F44EF87B
:1019C0002240BFF34F8FBFF36F8F00224CF82120CE
:1019D00093F92A1000290ED44A0901F01F040125A9
:1019E00005FA04F44EF82240BFF34F8FBFF36F8F18
:1019F00000224CF8212093F92B1000290ED44A091B
:101A000001F01F04012505FA04F44EF82240BFF34B
:101A10004F8FBFF36F8F00224CF8212093F92C10C9
:101A200000290ED44A0901F01F04012505FA04F427
:101A30004EF82240BFF34F8FBFF36F8F00224CF858
:101A4000212093F92D1000290ED44A0901F01F031B
:101A5000012404FA03F34EF82230BFF34F8FBFF393
:101A60006F8F00224CF82120D0E90212002303607E
:101A70008A60816800204B63B0BDD4D4D4D4D4D460
:101A800010B584B04FF07041EFF3038001EB0061BB
:101A90004CF2003E8A15C4F2000E41F2040452F8E2
:101AA0000E30C2F2002423F4803342F80E3052F894
:101AB0000E30A45862681378012B40F0AE80D4E950
:101AC00002300916D2694EF2802C98600023A0687B
:101AD000CEF2000C8364A068C364A0680365012390
:101AE0005EF8210020F480304EF821005EF82100DD
:101AF000480901F01F01BFF35F8F03FA01F14CF8B1
:101B0000201092F84830D80717D092F928100029F1
:101B100013D45EF82100012320F480304EF8210018
:101B20005EF82100480901F01F01BFF35F8F03FA3F
:101B300001F14CF8201092F84830980715D592F929
:101B40002910002911D45EF82100012320F48030EF
:101B50004EF821005EF82100BFF35F8F480901F0C5
:101B60001F0103FA01F14CF8201092F92A10002904
:101B700011D45EF82100012320F480304EF82100BA
:101B80005EF82100BFF35F8F480901F01F0103FADF
:101B900001F14CF8201092F92B10002911D45EF8B5
:101BA0002100012320F480304EF821005EF821004E
:101BB000BFF35F8F480901F01F0103FA01F14CF8F0
:101BC000201092F92C10002911D45EF82100012375
:101BD00020F480304EF821005EF82100BFF35F8FC3
:101BE000480901F01F0103FA01F14CF8201092F9A5
:101BF0002D10002911D45EF82100012220F480303C
:101C00004EF821005EF82100BFF35F8F480901F014
:101C10001F0102FA01F14CF820106169A1B1A0691D
:101C200030B1D0E900C382680392CDE901C300E07E
:101C300001A8002202718260E26902608847A069FF
:101C400010B101AB0ECB0EC004B010BDD4D4D4D4AF
:101C50004EF22401C4F201018878098801F00F02D4
:101C6000A2F1080103293BD8DFE801F0022C101E85
:101C700040F22041C2F2002151F820004AF6AB2187
:101C8000CAF6AA21A0FB0101480830E040F2204139
:101C9000C2F2002151F820004AF6AB21CAF6AA216F
:101CA000A0FB0101C80822E040F22041C2F200215D
:101CB00051F820004AF6AB21CAF6AA21A0FB010187
:101CC000080914E040F22041C2F2002151F820003E
:101CD0004AF6AB21CAF6AA21A0FB0101880806E05A
:101CE00040F22041C2F2002151F82000D04041F2E0
:101CF0001401C2F2002108607047D4D4D4D4D4D4E3
:101D00002DE9F04782B00FF288604EF2FA3840F2C7
:101D10002046C4F201084AF2015190ED001FC2F2C0
:101D200000260FF27C60CFF6FF714EF255050231AE
:101D3000A8F8001086ED001F06F12003C4F201058B
:101D400090ED001F48F2004040F60001C1F2D7704C
:101D500043F6000286ED041FC2F6AF71C1F69C4245
:101D600007C315F82F0C35F8311C01F00F02A2F152
:101D7000080103292BD8DFE801F002200C164AF6EF
:101D8000AB2156F82000CAF6AA21A0FB01014808A1
:101D900020E04AF6AB2156F82000CAF6AA21A0FBA3
:101DA0000101C80816E04AF6AB2156F82000CAF631
:101DB000AA21A0FB010108090CE04AF6AB2156F864
:101DC0002000CAF6AA21A0FB0101880802E056F80B
:101DD0002000D04041F2140A4EF60044C2F2002A1C
:101DE000C4F201040A214EF60147CAF800004FF67A
:101DF0005060CFF6FF70C4F201072154092085F826
:101E00004D00207818B93878800700F0BC8220781F
:101E100048B901202070C820012100F0DDFB00BF7F
:101E200020780128FCD10020387020704AF2015936
:101E3000002005F81F0C05F8230C00BF00BF00BFF1
:101E400015F8190C0007FBD542F602314EF6145076
:101E5000C0F20101C5F8731040F2234125F8071CB8
:101E6000002205F80B2C4FF60211C5F8571040F26E
:101E7000514125F8091CCEF200004EF20001BFF3DB
:101E80004F8FBFF36F8F0368CEF2010123F400334D
:101E90000360C0F83C22BFF34F8FBFF36F8F0A6817
:101EA00022F440520A60BFF34F8FBFF36F8F15F8D3
:101EB000412C02F0F802013205F8412C00BF00BFAE
:101EC00015F8412CD206FBD40A6842F440520A604D
:101ED000BFF34F8FBFF36F8F0168890312D4BFF335
:101EE0004F8FBFF36F8F0021C0F83C12BFF34F8FAD
:101EF000BFF36F8F016841F400310160BFF34F8F72
:101F0000BFF36F8F002005F82B0C00BF00BF00BF90
:101F100015F8190C8006FBD54CF200040020C4F221
:101F2000130420702078207820786068FA2807D081
:101F3000FA20C1F6006000BF60606168FA29FBD139
:101F4000A0687D2808D07D20CEF2001000BF00BF21
:101F5000A060A1687D29FBD143F23240C3F2232067
:101F600045F8350C42F2201025F8310C052005F813
:101F70002F0C15F82F0C35F8311C01F00F02A2F1CF
:101F8000080103292BD8DFE801F002200C164AF6DD
:101F9000AB2156F82000CAF6AA21A0FB010148088F
:101FA00020E04AF6AB2156F82000CAF6AA21A0FB91
:101FB0000101C80816E04AF6AB2156F82000CAF61F
:101FC000AA21A0FB010108090CE04AF6AB2156F852
:101FD0002000CAF6AA21A0FB0101880802E056F8F9
:101FE0002000D040CAF8000096200121012700F00F
:101FF000F3FA60686FF39F20652828BF277015F8F3
:102000002F0C35F8311C01F00F02A2F10801032951
:102010002BD8DFE801F002200C164AF6AB2156F867
:102020002000CAF6AA21A0FB0101480820E04AF6D8
:10203000AB2156F82000CAF6AA21A0FB0101C8086E
:1020400016E04AF6AB2156F82000CAF6AA21A0FBFA
:10205000010108090CE04AF6AB2156F82000CAF647
:10206000AA21A0FB0101880802E056F82000D04018
:1020700042F20001CAF80000C4F200010120A1F8F8
:102080000090BFF35F8F08724FF42540BFF35F8F5E
:10209000088095F8850040F0400085F8850000BF75
:1020A00095F98500B0F1FF3FFADC032085F87F0049
:1020B000C92085F8850095F8850000F0BF0085F8F7
:1020C000850000BF00BF00BF95F985000028FBD444
:1020D000012005F8020C002005F8170C802005F8F7
:1020E000170CE87F40F04000E87700BF00BF00BF5A
:1020F00095F91F00B0F1FF3FFADC0720E8754A2090
:10210000E8770A20E87700BF95F91F000028FBD484
:102110000720ADF806000DF1060000F049F995F82A
:10212000210040F0400085F8210000BF00BF00BF43
:1021300095F92100B0F1FF3FFADC03206876CA2050
:1021400085F8210095F8210000F0BF0085F82100F6
:1021500095F921000028FBD4287840F04000287031
:1021600095F90000B0F1FF3FFADC022005F8010C00
:10217000CA202870287800F0BF00287000BF00BF78
:1021800095F900000028FBD4A87840F04000A87022
:1021900095F90200B0F1FF3FFADC00206870C7201B
:1021A000A870A87800F0BF00A87000BF00BF00BFF3
:1021B00095F902000028FBD4287A40F040002872EC
:1021C00095F90800B0F1FF3FFADC0120E871C62064
:1021D0002872287A00F0BF00287200BF00BF00BF3D
:1021E00095F908000028FBD495F8230040F0400042
:1021F00085F8230000BF00BF95F92300B0F1FF3F31
:10220000FADC0220E876C92085F8230095F823003F
:1022100000F0BF0085F8230095F923000028FBD4C7
:10222000A87A40F04000A87295F90A00B0F1FF3F8B
:10223000FADC01206872CA20A872A87A00F0BF00F8
:10224000A87200BF00BF00BF95F90A000028FBD4A8
:1022500095F8220040F0400085F8220000BF00BF42
:1022600095F92200B0F1FF3FFADC0420A876CA20DD
:1022700085F8220095F8220000F0BF0085F82200C2
:1022800095F922000028FBD4A87940F04000A871FD
:1022900095F90600B0F1FF3FFADC02206871CA2010
:1022A000A871A87900F0BF00A87100BF00BF00BFEF
:1022B00095F906000028FBD495F8860040F0400010
:1022C00085F8860000BF00BF95F98600B0F1FF3F9A
:1022D000FADC022085F88000C52085F8860095F894
:1022E000860000F0BF0085F8860000BF00BF00BF79
:1022F00095F986000028FBD495F8870040F040004F
:1023000085F8870000BF00BF95F98700B0F1FF3F57
:10231000FADC012085F88100C52085F8870095F852
:10232000870000F0BF0085F8870000BF00BF00BF36
:1023300095F987000028FBD495F8890040F040000B
:1023400085F8890000BF00BF95F98900B0F1FF3F13
:10235000FADC092085F88300C92085F8890095F802
:10236000890000F0BF0085F8890000BF00BF00BFF2
:1023700095F989000028FBD44FF42540A8F8000007
:1023800002B0BDE8F0874FF47A7000F0C9F84DE56F
:10239000006CDC0200127A000080000000366E0142
:1023A0000080000000CA9A3B0046C3235543DE1359
:1023B0002DE9F04F81B04EF2FA3143F20406C4F237
:1023C00001018246C4F220064AF20350B1F800909F
:1023D00008804FF0010B00254FF4803401270020C6
:1023E00008E000BF00BF00BFF8074FF001004FF04A
:1023F000000716D004FA00F132680A42F4D1EFF374
:1024000010888BF3108832680BFA00F011433160AA
:10241000316805439620012100F0DEF888F310882A
:10242000E2E74EF2750740F22041C4F20107C2F222
:102430000021387800F00F0051F8200017F8081C30
:1024400001F00F01022901D801220BE0CA1E052A62
:1024500006D246F2F431C0F2002151F8221003E016
:102460000839102202FA01F1B0FBF1F04DF6836158
:10247000C4F21B31A0FB01016FF0010000EA5140E2
:10248000012100F0A9F8387840F04000387000BF12
:1024900097F90000B0F1FF3FFADC9AF8010007F865
:1024A000080C9AF8000040F0400038709AF80000DC
:1024B000387000BF00BF00BF97F900000028FBD4B0
:1024C00000204FF0010A4FF48038012406E000BFDD
:1024D000E0074FF001004FF0000415D025FA00F19D
:1024E000C907F5D0EFF310878AF3108808FA00F0D7
:1024F000316821EA0000306030689620012100F048
:102500006BF887F31088E3E74EF2FA3149F425407F
:10251000C4F20101088001B0BDE8F08FD4D4D4D456
:102520007047D4D4D4D4D4D4B0B542F22404C82053
:10253000C4F2200401210025257100F04DF825701A
:10254000207808B12FF005C0207840F002002070FC
:1025500020788007FCD4002004F8020C00BF00BFE4
:1025600014F8020C08B12FF005C84FF0030E00203C
:1025700004F11C0100BF00BF11F8102002F07F021F
:1025800001F8102000BF00BF11F91020002AFBD471
:1025900001300FF00FC8012000F0CAF84EF64C4190
:1025A0000120C4F2010100220A70BDE8B04000F031
:1025B00093B8D4D4D4D4D4D4014600220020C0F29D
:1025C00004620A607047D4D400BE00BF00BF00BFE1
:1025D000FEE7D4D4D4D4D4D441F2140241F200237F
:1025E000C2F20022C0F27A03484312689A420FD323
:1025F00044F23F21C0F20F0111444DF68362C4F250
:102600001B32A1FB0212910CA0FB0101C9B11DE01C
:102610004CF60021C3F69A31B1FBF2F148F63812BC
:10262000C0F24102904205D24FF47A725043B0FB9F
:10263000F1F006E0B0FBF1F0904207D24FF47A716E
:102640004843002808BF704700F006B84FF0FF303D
:1026500000F002B8D4D4D4D401380028FCD170479B
:10266000F0B581B04CF2201540F6AC77C4F200050D
:102670000024C2F2002755F8200C296801EA000660
:1026800006E000BF00BF00BF01340437152C09D09D
:1026900026FA04F0C007F7D039680029F4D02046A4
:1026A0008847F1E745F8106C28683042FCD101B04A
:1026B000F0BDD4D4D4D4D4D446F2A010C0F20020BB
:1026C0000088002808BF70474CF20031C4F20001B6
:1026D00008607047D4D4D4D4EFF31081012282F380
:1026E000108841F20802C2F2002232F8103023B101
:1026F00032F81030013B22F8103032F8102012B1BD
:1027000081F3108870474EF2FA3246F2084CC4F258
:102710000102C0F2002C13883CF8100043F425435A
:1027200023EA0000108081F310887047D4D4D4D4F9
:1027300010B5EFF31081012282F3108841F20802F4
:10274000C2F2002232F8103083B94EF2FA3E46F25D
:10275000084CC4F2010EC0F2002CBEF800403CF858
:102760001030234343F42543AEF8003032F81030E4
:10277000013322F8103081F3108810BDD4D4D4D4A2
:1027800000F00AF8FEF784FBFEE7D4D4D4D4D4D406
:1027900000BE7047D4D4D4D42DE9F04381B04EF6B6
:1027A000085840F20120CEF20008C0F20E004EF2AE
:1027B0000004C8F80C00CEF20104BFF34F8FBFF342
:1027C0006F8F58F8081CC1F3035001285FEA1F926D
:1027D00011F00F0F5FEA0F911142216811D1022809
:1027E0000FD241F0040020604EF20800BFF34F8F7B
:1027F000CEF20000BFF36F8F016841F480310160B9
:1028000002E021F004002060BFF34F8FBFF36F8F11
:102810004FF4700040F20001C8F880000020C0F2C0
:102820000021C8F800100025FEF76AF8FFF768FAE3
:102830004EF2FA304EF6B022C4F20100C4F20102A8
:102840004AF20251018015704FF4254101800120A8
:10285000FEF756F840F22000C2F2002080F30A880A
:102860002068800724D5D8F80000B0F1007F1FD180
:1028700020694FF40071C0F3C300626901FA00F3EC
:10288000C2F3C30081400020DA08CB0801460746A6
:1028900042F007C000BF00BFE7E802010FF005C02B
:1028A0004FF0005243F005C0E2E802010FF005C00E
:1028B00046F2C814C0F20024276897B160683E460B
:1028C000051D05E000BF00BF013E05F10C0508D065
:1028D00068790028F8D155E90101091A02F009FACE
:1028E000F2E7D4F80890B9F1000F13D0E0684E4633
:1028F00000F1080504E000BF013E05F1100509D014
:1029000068790028F8D155E902022968121A02F004
:10291000F5F9F1E7FFF79CF9FFF706FE0320FFF753
:1029200007FF4FF00E0E40F63050C4F24000002179
:1029300020F8041B0FF005C04EF210150320C4F25E
:102940000105FFF7C9FE0320FFF7F2FE44F2040081
:102950000021C4F22000016041608160C160032059
:10296000FFF7BAFED5F8C802800714D42878A0B1C2
:102970000120FFF7DDFE00BF95F9000010F1410FC7
:10298000FADC0020287000BF28783F28FCD80120FE
:10299000FFF7A2FE01E0D5F8C802D5F8C80240074B
:1029A00015D42879A8B10120FFF7C2FE00BF00BFEF
:1029B00095F9040010F1410FFADC0020287100BFE6
:1029C00028793F28FCD80120FFF786FE01E0D5F8E2
:1029D000C8020220FDF794FFA7B160684FF480762B
:1029E000051D05E000BF00BF013F05F10C0509D042
:1029F0006879B6EB002FF7D155E90101091A02F009
:102A000078F9F1E7B9F1000F16D0E0684FF480755E
:102A100000F1080405E000BFB9F1010904F1100458
:102A20000AD06079B5EB002FF6D154E90202216893
:102A3000121A02F063F9EFE742F28024C2F2002496
:102A4000204602F033F9204602F048F9BFF34F8FD9
:102A5000BFF36F8F0020C8F8480246F2664046F286
:102A60006641C0F20020C0F20021BFF34F8F081A68
:102A7000BFF36F8F8410012C0BDB46F26645C0F26A
:102A8000002500BF00BF00BF55F8040B8047013C84
:102A9000FAD1FFF711FE002001B0BDE8F04300F0CD
:102AA00003B8D4D4D4D4D4D47047D4D4D4D4D4D4C4
:102AB00070B500F10805092D05D310F0070103D00A
:102AC00009398D4264D9002501F0E6F841F2180079
:102AD000C2F200200178C9B941F22C0141F21C0276
:102AE000C2F20021C2F200220731002321F00701C7
:102AF000C2E9001341F2240240F6F874C2F2002247
:102B0000C2E90034C1E9002401210170012D4FF018
:102B100000044DDB40F2080CC2F2002CDCF800008F
:102B2000854245D841F21C00C2F200200268536879
:102B3000AB4208D200BF00BF116821B110460A465F
:102B40004B68AB42F8D341F22401C2F200218A4221
:102B50001CD00468591B08341029136803601CD961
:102B600002EB050E41F21C03C2F20023CEF8041062
:102B70005560DEF8041000BF18461B685E688E4280
:102B8000FAD3CEF80030C0F800E007E000240FE0F0
:102B900020F0070000F1100596E75568DCF800000A
:102BA0000021401BCCF8000045F00040C2E90010B5
:102BB00001F0CEF8204670BDB0B5002808BFB0BD0A
:102BC00050F8041C002925D5A0F1080422688ABB0E
:102BD00021F0004140F8041C054601F05DF841F287
:102BE0001C0255F8040CC2F2002200BF00BF00BF57
:102BF0001146126853688342FAD3226040F20802F9
:102C0000C2F200220C60116808441060BDE8B040B8
:102C100001F09EB845F6EC0045F6A12245F62913D1
:102C2000C0F20020C0F20022C0F200234FF49871DD
:102C3000FFF7CAFC45F6EC0045F6A12245F63273D3
:102C4000C0F20020C0F20022C0F2002340F2311195
:102C5000FFF7BAFCD4D4D4D401464FF0FF3241F888
:102C6000082F0022C0E90311C0E900217047D4D425
:102C7000002101617047D4D4D0E900C308619A688B
:102C8000C1E90132996051600CF1010101607047A6
:102C900080B5D1F800C01CF1010207D000F1080294
:102CA0009646526813686345FAD903E0D0F810E0FD
:102CB000DEF804204A609160C1F808E0CEF8041004
:102CC000086101680131016080BDD4D4D4D4D4D46A
:102CD0000269D0E9013C51688142C3F808C0CCF8D0
:102CE00004304FF0000308BFC2F804C0116803614C
:102CF000013911600846704770B500284BD0044672
:102D0000C06BC0B30E46216CA0FB010199BBFEF75E
:102D100093FAD4E90F010025226801FB0023013852
:102D2000A56300FB0120C4E90123E060FF2084F8D3
:102D3000440084F8450004F110004EB1FFF78CFF09
:102D400004F12400FFF788FFFEF7A6FA012070BD0A
:102D500001680029F8D001F08FFC0028F4D04EF66D
:102D600004504FF08051CEF200000160BFF34F8F4E
:102D7000BFF36F8FE8E745F61A2045F69A6245F6ED
:102D8000AB43C0F20020C0F20022C0F200234FF497
:102D9000B671FFF719FC45F61A2045F69A6245F61A
:102DA000A343C0F20020C0F20022C0F2002340F290
:102DB0003711FFF709FCD4D410B582B05BB3D0B1A2
:102DC0001C4601B9BAB901B1AAB148230193019BCC
:102DD000482B30D1019B002954EA0282C4E90F013B
:102DE00001212046012384F846302260FFF784FF4A
:102DF000204602B010BD45F61A2045F2737245F622
:102E00009433C0F20020C0F20022C0F200234FF43D
:102E1000D871FFF7D9FB45F61A2045F2737245F2D7
:102E20008313C0F20020C0F20022C0F200234FF44E
:102E3000C271FFF7C9FB45F61A2045F2737245F2DD
:102E40001F73C0F20020C0F20022C0F200234FF432
:102E5000CB71FFF7B9FBD4D4B0B582B0C8B10D4681
:102E6000814216D8144622B348210191019948297C
:102E70002FD10199012184F846100021C4E90F01E6
:102E8000012120462460FFF737FFA563204602B0EA
:102E9000B0BD45F61A2045F69C1245F29113C0F2DA
:102EA0000020C0F20022C0F200234FF45E71FFF751
:102EB0008BFB45F61A2045F2737245F28313C0F27C
:102EC0000020C0F20022C0F200234FF4C271FFF7CD
:102ED0007BFB45F61A2045F2737245F21F73C0F270
:102EE0000020C0F20022C0F200234FF4CB71FFF7A4
:102EF0006BFBD4D4D4D4D4D42DE9F04F85B00028C2
:102F0000049200F0CC8004469946154619B9206C0D
:102F1000002840F0F480B9F1020F03D1E06B0128E2
:102F200040F0DD80019101F093FC10B9002D40F0DC
:102F3000C680FEF781F9B9F1020FA06B5CD0E16B9E
:102F4000884259D304F11007012002AE4FF0000B64
:102F500004AD0EE000BF00BF204600F0E1F800F035
:102F6000F7FEFEF769F9A06BE16B88424FF00000B5
:102F700042D3049900295DD0C00702D0304601F049
:102F8000FFFBFEF789F900F087FEFEF755F994F88C
:102F90004400FF2808BF84F844B094F84500FF2897
:102FA00008BF84F845B0FEF777F93046294601F0AE
:102FB000F7FB002841D1FEF73FF9D4F838A0D4F848
:102FC0003C80FEF769F9C245C6D10499384601F044
:102FD000F3FA204600F0A4F800F0BAFE0028C0D1B1
:102FE0004EF604504FF08051CEF200000160BFF366
:102FF0004F8FBFF36F8FB4E7A56B226C9AB3B9F113
:10300000000F23D0E068019901F078FE2168E268A2
:10301000206C121AE2608A4203D24042A16808443E
:10302000E060B9F1020F5FEA1F90002D5FEA0080B7
:103030002D1A18E0FEF730F904E0204600F070F891
:1030400000F086FE002005B0BDE8F08F60680199B1
:1030500001F054FED4E90101226C10446060884202
:1030600001D32068606054F8240F002805F10100A6
:1030700060610ED0204601F0FFFA50B14EF60450C8
:103080004FF08051CEF200000160BFF34F8FBFF3CD
:103090006F8FFEF701F9012005B0BDE8F08F45F60E
:1030A0001A2045F2670245F6A343C0F20020C0F2A1
:1030B0000022C0F2002340F2B631FFF785FA45F650
:1030C0001A2045F2670245F27903C0F20020C0F2EF
:1030D0000022C0F2002340F2BB31FFF775FA45F63B
:1030E0001A2045F2670245F29913C0F20020C0F29F
:1030F0000022C0F200234FF46E71FFF765FA45F627
:103100001A2045F2670245F6B873C0F20020C0F2FB
:103110000022C0F2002340F2B731FFF755FAD4D4B1
:10312000F0B581B00446FEF787F894F94560012EAA
:1031300010DB04F1240503E070B2013E012809DD33
:10314000286838B1284601F097FA0028F4D001F039
:1031500077FBF1E7FF2684F84560FEF79DF8FEF760
:103160006BF894F94470012F10DB04F1100503E0B3
:1031700078B2013F012809DD286838B1284601F0FE
:103180007BFA0028F4D001F05BFBF1E784F844609F
:1031900001B0BDE8F040FEF77FB8D4D4D4D4D4D485
:1031A0002DE9F04F81B0002872D005461E469046AA
:1031B0000F4619B9286C002840F08A80022E02D1EF
:1031C000E86B012874D1FEF7C7F8EFF311891020DE
:1031D00080F31188022EA86B04D0E96B884201D3DA
:1031E000002050E095F945B0A86BAC6B2A6C5FFAF3
:1031F0008BFA22B3B6B1E868394601F07FFD296841
:10320000EA68286C121AEA608A4203D24042A9682E
:103210000844E860022E5FEA1F90002C5FEA0080FD
:10322000241A0CE06868394601F068FDD5E901010F
:103230002A6C10446860884201D328686860BAF13B
:10324000FF0F04F10100A8630BD001F0ADF9584560
:1032500018D9BAF17F0F4BD00AF1010085F845006B
:1032600010E055F8240F68B1284601F005FAB8F1CE
:10327000000F01464FF0010005D0002918BFC8F823
:10328000000000E0012089F3118801B0BDE8F08F53
:1032900045F61A2045F2CC0245F6A343C0F20020C1
:1032A000C0F20022C0F200234FF49261FFF78CF9C4
:1032B00045F61A2045F2CC0245F29913C0F20020DF
:1032C000C0F20022C0F2002340F29241FFF77CF9E5
:1032D00045F61A2045F2CC0245F6B873C0F200203C
:1032E000C0F20022C0F2002340F29141FFF76CF9D6
:1032F00045F61A2045F2CC0245F6AB23C0F2002079
:10330000C0F20022C0F2002340F21E51FFF75CF928
:103310002DE9F041002846D00546006C002852D126
:103320002868884610B9A86800285CD1FEF714F810
:103330001020EFF3118680F31188A86BE96B8842A7
:1033400010D295F945400130A863E7B2FF2F0ED0A7
:1033500001F02AF9A0421BD97F2F54D0781C85F8A0
:10336000450015E0002086F31188BDE8F08155F88E
:10337000240F68B1284601F07FF901460120B8F119
:10338000000F18BF002908D186F31188BDE8F0812D
:10339000012086F31188BDE8F081C8F8000086F3AB
:1033A0001188BDE8F08145F61A2045F2E50245F6A0
:1033B000A343C0F20020C0F20022C0F200234FF469
:1033C000A861FFF701F945F61A2045F2E50245F636
:1033D0005873C0F20020C0F20022C0F2002340F275
:1033E0004451FFF7F1F845F61A2045F2E50245F69B
:1033F000C953C0F20020C0F20022C0F2002340F204
:103400004951FFF7E1F845F61A2045F2E50245F685
:10341000AB23C0F20020C0F20022C0F2002340F231
:10342000CB51FFF7D1F8D4D42DE9F04F83B0002869
:10343000029200F0A48004461646894619B9206C11
:10344000002840F0BC8001F003FA10B9002E40F0D3
:10345000A680FDF7F1FED4F838A0BAF1000F29D00C
:10346000226C52B1D4E902011144E160814201D3DE
:103470002168E160484601F041FC54F8100F002833
:10348000AAF10100A0620ED0204601F0F5F850B17B
:103490004EF604504FF08051CEF200000160BFF3B1
:1034A0004F8FBFF36F8F0124FDF7F6FE204603B068
:1034B000BDE8F08F04F1240801206F464FF0000BA7
:1034C00002AE2DE000BF00BFFDF7E6FE00F0E4FB1A
:1034D000FDF7B2FE94F84400FF2808BF84F844B01A
:1034E00094F84500FF2808BF84F845B0FDF7D4FEE6
:1034F0003846314601F054F9D0B12046FFF710FEAE
:1035000000F026FCFDF798FEA56BFDF7C5FEA5B300
:10351000FDF792FED4F838A00020BAF1000F9FD139
:10352000029941B3C007CFD0384601F029F9CBE763
:10353000FDF782FEA56BFDF7AFFE2DB12046FFF72C
:10354000EFFD00F005FCE3E70299404601F034F896
:103550002046FFF7E5FD00F0FBFB0028D8D14EF632
:1035600004504FF08051CEF200000160BFF34F8F46
:10357000BFF36F8FCCE7002496E7002496E745F66B
:103580001A2045F6C01245F26813C0F20020C0F2BE
:103590000022C0F2002340F2E951FFF715F845F68A
:1035A0001A2045F6C01245F27903C0F20020C0F29D
:1035B0000022C0F2002340F2F251FFF705F845F671
:1035C0001A2045F6C01245F69F33C0F20020C0F223
:1035D0000022C0F2002340F2ED51FEF7F5FFD4D4F3
:1035E0002DE9F04F83B00028029100F08F8004464F
:1035F000006C002840F09A800D4601F029F910B9BE
:10360000002D40F0A380FDF717FEA06BD0B154F859
:10361000101F0138A06271B1204601F02DF850B1A1
:103620004EF604504FF08051CEF200000160BFF31F
:103630004F8FBFF36F8F0124FDF72EFE204603B09E
:10364000BDE8F08F4EF6045904F1240801216E46BE
:103650004FF0000B02AFCEF200094FF0805A29E084
:10366000FDF71AFE00F018FBFDF7E6FD94F84400A4
:10367000FF2808BF84F844B094F84500FF2808BF2D
:1036800084F845B0FDF708FE3046394601F088F869
:10369000D0B12046FFF744FD00F05AFBFDF7CCFD0A
:1036A000A56BFDF7F9FD7DB3FDF7C6FDA06B00210D
:1036B0000028ACD1029828B3C807D1D0304601F019
:1036C0005FF8CDE700BF00BFFDF7B6FDA56BFDF7C6
:1036D000E3FD2DB12046FFF723FD00F039FBE3E7C2
:1036E0000299404600F068FF2046FFF719FD00F000
:1036F0002FFB0028D8D1C9F800A0BFF34F8FBFF32C
:103700006F8FD1E7002497E7002497E745F61A204A
:1037100045F23A7245F26813C0F20020C0F200226E
:10372000C0F2002340F28261FEF74EFF45F61A20F8
:1037300045F23A7245F65873C0F20020C0F20022FA
:10374000C0F2002340F28661FEF73EFF45F61A20E4
:1037500045F23A7245F27903C0F20020C0F200222D
:10376000C0F2002340F28B61FEF72EFFD4D4D4D4F4
:1037700010B530B3002908BF10BD42F22C024FF043
:10378000000C0A23C2F200224FF0000E04E000BF3A
:10379000013B02F108020ED05468A04207D0BEF1EE
:1037A000000FF5D11468002C52EA0C8EF0E7964613
:1037B000CEE9001010BDBEF1000F18BFCEE9001019
:1037C00010BD45F61A2044F6CA6245F62653C0F2EB
:1037D0000020C0F20022C0F2002340F6C931FEF7FB
:1037E000F3FED4D4D4D4D4D470B515460E460446D2
:1037F000FDF722FD94F84400FF2802D1002084F850
:10380000440094F84500FF2802D1002084F84500C8
:10381000FDF742FDA06B28B904F1240031462A4689
:1038200000F0EEFE2046BDE87040FFF779BCD4D42E
:103830002DE9F04782B0DDF82CA0BAF1000F49D095
:103840000C9C002C56D08146602001900198602885
:1038500060D10D46019860212046984617460A9E81
:1038600001F047FAC4F830A04FF0020084F85D0080
:1038700075B104F134000F2115F8012B00F8012B6C
:103880001AB10029A1F10101F6D1002084F843000A
:10389000052E4FD20AEB8700E662043820F00705B8
:1038A000201DFFF7E5F904F11800FFF7E1F9C6F173
:1038B0000500A061216B28464A46434624616462A4
:1038C000FDF75AFC2060204600F046F8204602B082
:1038D000BDE8F08745F6133045F6CD2244F6F57382
:1038E000C0F20020C0F20022C0F2002340F2F141F9
:1038F000FEF76AFE45F6133045F6CD2245F2F54354
:10390000C0F20020C0F20022C0F2002340F2F241D7
:10391000FEF75AFE45F6133045F6CD2246F20E0369
:10392000C0F20020C0F20022C0F2002340F2FA41AF
:10393000FEF74AFE45F6133045F2105245F23523A4
:10394000C0F20020C0F20022C0F2002340F26471F5
:10395000FEF73AFED4D4D4D42DE9F04381B0044626
:10396000FDF76AFC42F2A00042F27C07C2F200209E
:10397000C2F2002742F284090168C2F20029013133
:103980000160396851B1D9F80000002842D1386887
:10399000E16AC06A884298BF3C603BE03C600068D6
:1039A000012837D142F2DC050526C2F2002500BF0E
:1039B0002846FFF751F9013E05F11405F8D142F20E
:1039C0005818C2F200284046FFF746F942F26C153B
:1039D000C2F200252846FFF73FF942F2B400C2F2D6
:1039E0000020FFF739F942F28800C2F20020FFF709
:1039F00033F942F2C800C2F20020FFF72DF942F27B
:103A0000AC0042F2B001C2F20020C2F20021C0F8C4
:103A100000800D6042F28000261DC2F20020016885
:103A20000131016042F24011E06AC2F200210A68ED
:103A3000904288BF086000EB800042F2DC01C2F2D5
:103A4000002101EB80026261536851F820200132AD
:103A500041F820209D68C4E902359E606E60FDF744
:103A60001BFCD9F8000078B13868E16AC06A884266
:103A70000AD24EF604504FF08051CEF200000160A1
:103A8000BFF34F8FBFF36F8F01B0BDE8F083D4D485
:103A90002DE9F04781469000984617460D46FFF7FE
:103AA00007F8002843D004466020FFF701F80028FB
:103AB00041D060210646DDF820A001F01AF93463F8
:103AC00075B106F134000F2115F8012B00F8012B18
:103AD0001AB10029A1F10101F6D1002086F84300B6
:103AE000BAF1050F2ED204EB8700099D0438C6F801
:103AF0002CA020F00704301DFFF7BAF806F11800DB
:103B0000FFF7B6F8CAF10500B061316B20464A46AE
:103B1000434636617662FDF72FFB30603046002D5C
:103B200018BF2E60FFF718FF0120BDE8F0874FF0A7
:103B3000FF30BDE8F0872046FFF73EF84FF0FF303A
:103B4000BDE8F08745F6133045F2105245F23523B3
:103B5000C0F20020C0F20022C0F2002340F26471E3
:103B6000FEF732FDD4D4D4D42DE9F041002862D040
:103B7000002970D042F2A40642F2A803C2F2002645
:103B8000C2F200233268013232601A683668012EB0
:103B900071D1066831440160B24206D2B1424FF0A1
:103BA000000434D2914206D831E0B14203D39142AD
:103BB00001D800242BE042F2AC001E68C2F20020C3
:103BC00042F27C07C2F200278C1AD0F8008042F241
:103BD000B000C2F20020056838680430FFF778F8BA
:103BE000386836194660386800F1040103D3284666
:103BF000FFF74EF80AE04046FFF74AF842F2481055
:103C0000C2F2002001688E4238BF0660012400F035
:103C10009FF810B12046BDE8F0814EF604504FF0F9
:103C20008051CEF200000160BFF34F8FBFF36F8F62
:103C30002046BDE8F08145F6133045F6286245F68A
:103C4000CE13C0F20020C0F20022C0F2002340F6E2
:103C50002F11FEF7B9FC45F6133045F6286244F6FD
:103C6000DE63C0F20020C0F20022C0F200234FF455
:103C70001361FEF7A9FC45F6133045F6286245F2BC
:103C8000F173C0F20020C0F20022C0F2002340F61F
:103C90003811FEF799FCD4D442F2A400C2F20020FD
:103CA00001680131016070472DE9F04381B042F2B3
:103CB000A80242F2AC03C2F2002242F27C04C2F239
:103CC0000023C2F20024156842F2B002C2F20022C0
:103CD000D3F8008006460F46D2F800902268101DE7
:103CE000FEF7F6FF701C18D1BFB142F2C800C2F255
:103CF0000020D0E90012236801319A609368276898
:103D0000FB60276804375F60236804339360226890
:103D10000160506101B0BDE8F0832068AD194560D5
:103D2000206800F1040105D3484601B0BDE8F04326
:103D3000FEF7AEBF4046FEF7ABFF42F24810C2F2BC
:103D4000002001688D4238BF056001B0BDE8F083F6
:103D50002DE9F04F81B0FDF76FFA42F2A400C2F2F4
:103D600000200168002900F0A98001680139016084
:103D7000006830B10024FDF78FFA204601B0BDE89D
:103D8000F08F42F2A000C2F2002000680028F1D0BB
:103D900042F2B40B42F24419C2F2002B42F27C0808
:103DA000C2F20029C2F20028DBF80010002960D01E
:103DB00042F2401A42F2DC034FF0000EC2F2002A37
:103DC000C2F200234FF0010CDBF80C70FC6804F128
:103DD0001805A76AD4E907167A68AA428E6071604E
:103DE00008BF7E603968C4F828E001393960261DB3
:103DF0006769D4E902157A68B2428D60696008BFCC
:103E00007D60396801393960E76ADAF800108F425D
:103E100007EB870188BFCAF8007003EB810262617B
:103E20005568A868C4E90250AE60466053F82100A6
:103E3000013043F82100D8F80000C06A874288BFEB
:103E4000C9F800C0DBF8000008B12FF043C842F207
:103E5000AC00C2F200200168096819B10068C068AE
:103E6000006801E04FF0FF3042F24811C2F2002139
:103E7000086042F25014C2F20024266856B10127AD
:103E800000F0B6FA002818BFC9F80070013EF7D15B
:103E900000202060D9F8000000283FF46BAFD8F86C
:103EA00000004EF60450CEF200004FF08051012485
:103EB0000160BFF34F8FBFF36F8F5CE745F61330A0
:103EC00045F2AD4245F64153C0F20020C0F2002257
:103ED000C0F2002340F68B71FEF776FBD4D4D4D425
:103EE0002DE9F04100284CD0044642F27C00C2F299
:103EF0000020006884421DD0FDF79EF942F2AC001C
:103F000042F2B001C2F20020C2F200216569A66A45
:103F10000768D1F80080FDF7BFF942F2B400C2F2A1
:103F20000020864209D00220BD4218BF454507D176
:103F3000BDE8F0810020BDE8F0810120BDE8F081FE
:103F400042F2C800C2F2002085420CD042F2880141
:103F50000120C2F20021002D08BF04208D4208BFBD
:103F60000420BDE8F081A06A00284FF0020018BFCD
:103F7000BDE8F08194F85C10012950EA0090BDE89A
:103F8000F08145F6133045F60C0245F63E33C0F29B
:103F90000020C0F20022C0F200234FF41C61FEF7A3
:103FA00013FBD4D4D4D4D4D4F0B581B00446FDF7F7
:103FB00043F942F27C07002CC2F2002708BF3C689C
:103FC000261D3046FEF784FEA06A18B104F11800E1
:103FD000FEF77EFE42F2C8053146C2F200252846B1
:103FE000FEF74AFE94F85C00012802D1002084F814
:103FF0005C00FDF751F942F28406C2F200263068F7
:10400000A8B1FDF719F942F2AC00C2F20020016834
:10401000096819B10068C068006801E04FF0FF301E
:1040200042F24811C2F200210860FDF735F9386804
:10403000844201D001B0F0BD306820B342F2A40048
:10404000C2F200200068002801BF4EF60450CEF2F4
:1040500000004FF08051016001BFBFF34F8FBFF3ED
:104060006F8F01B0F0BD45F6133045F6AD6245F2F5
:104070004E13C0F20020C0F20022C0F2002340F62E
:10408000A841FEF7A1FA42F2A0002968C2F200207E
:104090000068814203D10020386001B0F0BD42F2D7
:1040A000A400C2F20020006838B142F2441001219D
:1040B000C2F20020016001B0F0BD42F244100021C4
:1040C000C2F2002042F2DC03C2F20023016042F29D
:1040D0004010C2F20020016801EB810253F8226017
:1040E00003EB82023EB900BFA1B152F8143D013981
:1040F0000BB92FF007C8536802F108065B685360DC
:10410000B34201D1D3685360DA683A60016038681D
:1041100001B0F0BD45F6133044F6B17245F6877331
:10412000C0F20020C0F20022C0F2002341F2FA31B6
:10413000FEF74AFAD4D4D4D480B542F2A400C2F235
:104140000020006830B142F244100121C2F2002088
:10415000016080BD42F2441042F2401CC2F20020D5
:10416000C2F2002C002142F2DC030160C2F2002303
:10417000DCF8001001EB810253F8220003EB82020D
:1041800048B900BF00BF00BFC1B152F8140D0139DA
:1041900008B92FF007C8536802F108005B68536044
:1041A000834201D1D368536042F27C02D868C2F2E4
:1041B00000221060CCF80010106880BD45F6133066
:1041C00044F6B17245F68773C0F20020C0F20022B7
:1041D000C0F2002341F2FA31FEF7F6F9D4D4D4D478
:1041E000F0B581B000284DD042F27C060446C2F200
:1041F00000263068844243D0FDF71EF842F2C80121
:104200006069C2F20021884235D1A06A98BB94F857
:104210005C0001282FD0271D3846FEF759FD42F2D9
:104220004011E06AC2F2002142F2DC0CC2F2002C22
:104230000A68904288BF086000EB80010CEB8103A4
:1042400063615A689568C4E9022597605CF821208B
:104250006F6001324CF821203168C96A81420AD26C
:104260004EF604504FF08051CEF200000160BFF3D3
:104270004F8FBFF36F8F01B0BDE8F040FDF70CB872
:1042800001B0F0BD45F6133045F6354245F61A0348
:10429000C0F20020C0F20022C0F200234FF45261AD
:1042A000FEF792F9D4D4D4D4B0B58AB044F24940E0
:1042B00004A9C4F24C50069005A803AA00248DF866
:1042C0001C40CDE90444FCF70FFE44F67900DDE91B
:1042D000032CC0F2002006A90023059D0094CDE91F
:1042E00001C5FFF7A5FA42F24C10C2F200200560AA
:1042F00065B300F0DDFA012811D0013026D145F672
:10430000133045F62D5245F69203C0F20020C0F25C
:104310000022C0F2002340F6A961FEF755F942F2EF
:1043200048110120C2F2002180F310884FF0FF32C3
:104330000A6042F28401C2F20021086042F2A80041
:10434000C2F2002000210160FCF732FF46F2144067
:10435000C0F2002000680AB0B0BDD4D4D4D4D4D404
:10436000F0B581B042F29C05C2F200252868D0B3B6
:1043700042F2880642F2A007C2F20026C2F20027EB
:104380000AE000BF00BF00BF206BFEF715FC20460F
:10439000FEF712FC286830B3FCF74EFFF068C468E3
:1043A000201DFEF795FC3868013838602868013810
:1043B0002860FCF771FF94F85D000228EAD001281C
:1043C000E5D00028E0D045F6133045F26C2245F6E2
:1043D000E123C0F20020C0F20022C0F2002341F627
:1043E0002E11FEF7F1F801B0F0BDD4D4D4D4D4D45A
:1043F0002DE9F04F81B042F2A400C2F20020006823
:1044000050B142F25010C2F2002001680131016047
:10441000002001B0BDE8F08F42F2A80042F248123D
:10442000C2F20020C2F20022016811F1010BC0F8B3
:1044300000B021D342F2AC00C2F20020016809684A
:10444000002940F0968042F2B0030168C2F20023D6
:104450001F680760196042F25411C2F200210B6814
:1044600001330B600168096819B10068C068006811
:1044700001E04FF0FF3010601068834501D200204A
:104480006CE042F2AC0AC2F2002ADAF800000068DE
:10449000002858D042F2401942F2DC0E42F27C0869
:1044A000C2F20029C2F2002EC2F20028002020E051
:1044B000F56AD9F800108D4205EB850188BFC9F86F
:1044C00000500EEB8102726153685EF821200132C8
:1044D0004EF821209C68C6E902349F606760D8F8D6
:1044E0000010C96ADAF800208D4288BF01201168E7
:1044F00069B3DAF80010C968CE68374657F8041F68
:104500008B4526D37169D6E902354A68BA429D6067
:104510006B6008BF4D60B56A0A68002DA2F1010208
:104520000A60C5D006F11802D6E90731D5F804C0F3
:10453000944599604B6008BF69600021B1622968A9
:1045400001392960B4E74FF0FF31002005E04FF05A
:10455000FF3142F24812C2F20022116042F24411CD
:10456000C2F200210968002918BF012001B0BDE88E
:10457000F08F45F6133045F6E11244F63B73C0F276
:104580000020C0F20022C0F2002341F25F21FEF7BA
:104590001BF8D4D4D4D4D4D442F2A800C2F2002060
:1045A00000687047D4D4D4D442F2A000C2F20020F4
:1045B00000687047D4D4D4D410B570B10C4642F220
:1045C0007C01C2F2002109681831FEF761FB01216C
:1045D0002046BDE81040FFF767BB45F6133045F6AF
:1045E000CF4245F62803C0F20020C0F20022C0F2FC
:1045F00000234FF4A451FDF7E7FFD4D4D4D4D4D48E
:10460000B0B530B342F27C0ED0E900C3C2F2002E46
:10461000002ADEF80040E3619C68DEF800502C625E
:10462000DEF8005005F118056560DEF8004004F181
:1046300018049C60DEF8003018BF4FF0FF3198621C
:104640000CF10103036008461146BDE8B040FFF7D6
:104650002BBB45F6133045F2BC4245F62803C0F2A9
:104660000020C0F20022C0F2002341F2BE41FDF75B
:10467000ABFFD4D4D4D4D4D4B0B5C068C0680028BB
:104680006CD0826A00F1180CD0E9071E53686345AC
:10469000C1F808E0CEF804104FF0000108BFC2F8DE
:1046A00004E013688162591E116042F2A401C2F253
:1046B0000021096889B142F2B401C2F2002181628D
:1046C000D1E9002301320A609D68C26AC0E907355A
:1046D000C5F804C0C3F808C02FE0426900F1040C1B
:1046E000D0E9021E53686345C1F808E0CEF8041013
:1046F00042F2401308BFC2F804E01168C2F200237E
:1047000001391160C26A196842F2DC0E8A42C2F2B3
:10471000002E02EB820188BF1A600EEB8103436119
:104720005C68A568C0E902455EF82100C4F808C0CD
:10473000C5F804C001304EF8210042F27C00C2F2FC
:1047400000200068C06A824206D942F2441101206A
:10475000C2F200210860B0BD0020B0BD45F61330A4
:1047600045F2DC4245F27413C0F20020C0F2002290
:10477000C0F2002341F2F541FDF726FFD4D4D4D492
:1047800042F25411C2F200210968016042F2A8010C
:10479000C2F20021096841607047D4D4D4D4D4D483
:1047A00070B568B30D46D9B30446FCF745FD42F237
:1047B000A80EC2F2002EDEF8003029684A1C16D07E
:1047C00042F2541CD4E90002C2F2002CDCF8006072
:1047D000864201D093420CD29A1A914209D9881A82
:1047E0002860DCF800002060DEF800006060002433
:1047F00002E0012400202860FCF74EFD204670BD39
:1048000045F6133045F6F83245F2E613C0F20020C3
:10481000C0F20022C0F2002341F2A551FDF7D4FE00
:1048200045F6133045F6F83245F26953C0F20020E0
:10483000C0F20022C0F2002341F2A651FDF7C4FEEF
:1048400042F244100121C2F2002001607047D4D42A
:1048500042F28400C2F20020006850B142F2A4008B
:10486000C2F20020006800284FF0000008BF0220BC
:10487000704701207047D4D442F2DC044EF6045550
:10488000C2F20024CEF200054FF0805602E000BFD5
:10489000FCF726FDFFF764FD20680228F8D32E60A0
:1048A000BFF34F8FBFF36F8FF2E7D4D4D4D4D4D4F7
:1048B00080B586B000F03CF842F28010C2F20020D1
:1048C000006820B30020CDE9040005A804A903AACC
:1048D000FCF71AFB0DF10C0E0320009044F6B1100A
:1048E00045F6BA61C0F200209EE80450C0F20021F3
:1048F0000023CDE901CEFEF79BFF42F28411002890
:10490000C2F2002108601EBF012006B080BD45F242
:10491000120045F6717245F27753C0F20020C0F2E2
:104920000022C0F200234FF4A371FDF74DFED4D452
:1049300070B582B0FCF780FC42F28016C2F200260D
:10494000306868BB42F29414C2F200242046FEF79D
:1049500083F942F2A815C2F200252846FEF77CF939
:1049600042F2881042F28C11C2F20020C2F2002101
:1049700042F2042242F2BC1304600D60C2F2002233
:10498000C2F200230A200C2100250095FEF714FA3C
:10499000306028B145F25301C0F20021FEF7E8FE75
:1049A00002B0BDE87040FCF777BCD4D4D4D4D4D4E2
:1049B00086B042F2881842F28C1A42F2801BC2F290
:1049C00000280DF10C09C2F2002AC2F2002B00BF30
:1049D000D8F8000006681EB1C068046801E000BF96
:1049E0000024FFF759F9484600F006F9039919B178
:1049F000FFF7AEF954E000BF0546A6B1AC4212D8AD
:104A0000FFF7A6F9D8F80000C068C668371D384619
:104A1000FEF75EF996F82400410707D400F0FA008B
:104A200086F8240039E0B6B100221AE0019706E0CA
:104A3000291B81422AD3316A304688473C46B069F7
:104A4000366107197760AF42F2D9A54220D2A7425A
:104A50004046F0D21DE0DAF80000006800285FEA66
:104A60001F92DBF80000611BFEF7BEFEFFF770F936
:104A700002ACB0B94EF604504FF08051CEF20000B7
:104A80000160BFF34F8FBFF36F8F0AE0504600E025
:104A9000404600680199FEF7FBF8316A30468847C6
:104AA00002AC00200590CDE9030005E04246106805
:104AB0002946FEF7EDF802ACDBF80000002249467B
:104AC000FEF7B2FC08B92FF07DC803980028F3D494
:104AD000059E706910B1301DFEF7FAF8204600F00F
:104AE0008BF8039901390829E6D80746DFE801F079
:104AF00005053B255D05053B2500049AB06996F840
:104B0000241083183546BB4241F0010486F8244046
:104B100045F8043F366105D99742C7D293424246D1
:104B200004D2C4E7BA1A82425246C0D34A0721D4FB
:104B300001F0FA0086F8240047E096F82410049863
:104B40000028B06141F0010186F8241042D03844B9
:104B50003146B84258EA8A8241F8040F366110683B
:104B6000FEF796F8A8E796F8240000F0FE0086F815
:104B70002400A1E704995446014409E000BF00BFA6
:104B8000791A814219D3316A30468847B069514653
:104B900001EB000AC6F804A0BA453661F0D98F428D
:104BA0000DD28A454046EED20AE096F824008107ED
:104BB000DBD43046FEF700F87EE7204600E04046B2
:104BC00000682946FEF764F8A246316A30468847F5
:104BD00002AC71E745F2120045F6386246F227034F
:104BE000C0F20020C0F20022C0F200234FF4826124
:104BF000FDF7EAFCD4D4D4D42DE9F04F81B082463D
:104C0000FFF7CAFC42F29019C2F20029D9F800104D
:104C1000884243D242F288170090C2F2002742F243
:104C20008C1BC2F2002B38680168A1B9DBF80010B8
:104C30003960CBF800000121009830E000BF00BFD0
:104C400000F0FA0085F82400296A28468847386869
:104C500001680029EAD0C068C568D0F800802E1D20
:104C60003046FEF735F895F824004107E8D5A869E5
:104C700000EB080410EB08006C602D6108D2296A73
:104C800028468847A86921180444F5E700BF00BFFB
:104C9000DBF800003146FDF7FBFFD5E70021CAF83D
:104CA0000010C9F8000001B0BDE8F08F10B540F267
:104CB000500140F20002C0F20021C0F2000204469E
:104CC00000F01CF840F2000040F20001C0F20000C9
:104CD000C0F20001204400F00CF810BD40F20801C1
:104CE000C0F20001401A42F27C21C2F200210860A9
:104CF00070470A46002100F077B8D4D4844641EAD0
:104D0000000313F0030349D1403A23D30B68036037
:104D10004B6843608B688360CB68C3600B69036139
:104D20004B6943618B698361CB69C3610B6A036221
:104D30004B6A43628B6A8362CB6AC3620B6B036309
:104D40004B6B43638B6B8363CB6BC36340304031EE
:104D5000403ADBD230320BD30B6803604B684360C0
:104D60008B688360CB68C36010301031103AF3D287
:104D70000C3205D351F8043B40F8043B043AF9D215
:104D8000043208D0D2071CBF11F8013B00F8013BE8
:104D900001D30B8803806046704700BF082A13D3F5
:104DA0008B07B1D010F00303AED0C3F10403D21AC5
:104DB000DB071CBF11F8013B00F8013BA4D331F81D
:104DC000023B20F8023B9FE7043AD9D3013A11F89D
:104DD000013B00F8013BF9D20B7803704B7843702C
:104DE0008B7883706046704770B4840746D0541E39
:104DF000002A41D0CDB2034602E0621EE4B314465D
:104E000003F8015B9A07F8D1032C2ED9CDB245EAFD
:104E100005250F2C45EA054519D9264603F1100250
:104E2000103E0F2E42F8105C42F80C5C42F8085C11
:104E300042F8045C02F11002F2D8A4F1100222F050
:104E40000F0204F00F041032032C13440DD91E4638
:104E50002246121F032A46F8045BFAD8221F22F0CA
:104E60000302121D134404F003042CB1C9B21C4404
:104E700003F8011BA342FBD170BC704714460346E4
:104E8000C2E700000000000054545220524547473A
:104E90004553000D0A53656E6465725F5461736B10
:104EA0003A204D657373616765205175657565209E
:104EB00072657365740D0A0075784372697469636D
:104EC000616C4E657374696E6700765175657565C2
:104ED000416464546F526567697374727900282065
:104EE0007854696D65496E6372656D656E74203EB8
:104EF00020305520290053656E6465725F546173DC
:104F00006B002E2E2F72612F6673702F7372632FBA
:104F1000726D5F6672656572746F735F706F7274C5
:104F20002F706F72742E630076506F7274456E74BA
:104F30006572437269746963616C002820282028B7
:104F4000202820707844656C617965645461736BC6
:104F50004C69737420292D3E75784E756D626572AB
:104F60004F664974656D73203D3D20282055426190
:104F70007365547970655F74202920302029203FA3
:104F8000202820282042617365547970655F742061
:104F90002920312029203A202820282042617365C9
:104FA000547970655F742029203020292029202918
:104FB00000765461736B537769746368436F6E74E2
:104FC000657874000D0A52656365697665722054D0
:104FD00061736B3A204D6573736167652072656319
:104FE0006569766564205375636365737366756C74
:104FF0006C790D0A00707578537461636B42756645
:1050000066657220213D202828766F69642A293040
:1050100029002E2E2F72612F6177732F46726565DE
:1050200052544F532F4672656552544F532F536F4E
:10503000757263652F74696D6572732E6300312E0E
:10504000300075635356434E756D626572203C3D6A
:10505000203300546D7251006770745F74696D6520
:10506000725F696E69740078517565756547656E24
:105070006572696353656E64002128202820785486
:1050800061736B4765745363686564756C657253CF
:10509000746174652829203D3D2028202820426124
:1050A0007365547970655F74202920302029202988
:1050B000202626202820785469636B73546F57612B
:1050C000697420213D203020292029007851756500
:1050D000756547656E6572696353656E6446726F88
:1050E0006D49535200785175657565476976654617
:1050F000726F6D495352000D0A53656D6170686F90
:105100007265205461736B3A20525F4750545F437D
:105110006C6F736520415049206661696C65640D50
:105120000A005F5F4E5649435F4765745072696F6E
:105130007269747947726F7570696E672829203CAF
:105140003D202838202D203429202D20310075784D
:105150005363686564756C657253757370656E64CE
:105160006564203D3D2030002820707851756575BC
:10517000652029007078556E626C6F636B656454AE
:105180004342007078537461746963517565756545
:10519000007848616E646C650021282028207843DF
:1051A0006F7079506F736974696F6E203D3D202870
:1051B00020282042617365547970655F742029202E
:1051C0003220292029202626202820707851756534
:1051D00075652D3E75784C656E67746820213D209D
:1051E000312029202900707854696D654F7574004D
:1051F0000D0A525F4750545F436C6F7365204150F6
:1052000049206661696C65640D0A000D0A53656E7C
:105210006465725F5461736B203A205265636569FF
:10522000766572205461736B2053757370656E647C
:1052300065640D0A0075785072696F72697479201F
:105240003C20283529000D0A53656E6465725F5451
:1052500061736B3A2041667465722064656C617994
:10526000206F66203530306D730D0A007072764401
:10527000656C657465544342000D0A2A2A2A2A2A5D
:105280002A2A2A2A2A2A2A2A2A2A2A2A2A2A2A2A7E
:105290002A2A2A2A2A2A2A2A2A2A2A2A2A2A2A2A6E
:1052A0002A2A2A2A2A2A2A2A2A2A2A2A2A2A2A2A5E
:1052B0002A2A2A2A2A2A2A2A2A2A2A2A2A2A2A2A4E
:1052C0002A2A2A2A2A2A2A2A2A2A0D0A2A20202099
:1052D00052656E6573617320465350204578616D49
:1052E000706C652050726F6A65637420666F7220FF
:1052F0004672656552544F53204D657373616765FF
:1053000020517565756520262053656D6170686F45
:105310007265204D6F64756C65202A0D0A2A202065
:10532000204578616D706C652050726F6A6563749A
:105330002056657273696F6E20257320202020200F
:10534000202020202020202020202020202020205D
:10535000202020202020202020202020202020204D
:10536000202020202020202020202A0D0A2A202052
:1053700020466C657820536F6674776172652050A3
:1053800061636B2056657273696F6E202025642EF1
:1053900025642E256420202020202020202020206D
:1053A00020202020202020202020202020202020FD
:1053B00020202020202020202020202020202A0DF6
:1053C0000A2A2A2A2A2A2A2A2A2A2A2A2A2A2A2A5D
:1053D0002A2A2A2A2A2A2A2A2A2A2A2A2A2A2A2A2D
:1053E0002A2A2A2A2A2A2A2A2A2A2A2A2A2A2A2A1D
:1053F0002A2A2A2A2A2A2A2A2A2A2A2A2A2A2A2A0D
:105400002A2A2A2A2A2A2A2A2A2A2A2A2A2A2A2AFC
:105410000D0A526566657220746F20726561646D55
:10542000652E7478742066696C6520666F72206DD5
:105430006F72652064657461696C73206F6E2045BE
:1054400078616D706C652050726F6A65637420615D
:105450006E640D0A46535020557365722773204DB4
:10546000616E75616C20666F72206D6F7265206968
:105470006E666F726D6174696F6E2061626F7574B4
:10548000204672656552544F53204D6573736167B2
:105490006520517565756520262053656D617068BE
:1054A0006F7265206472697665720D0A00785461C6
:1054B000736B526573756D65416C6C0076546173E6
:1054C0006B506C6163654F6E4576656E744C6973A5
:1054D000745265737472696374656400785461739F
:1054E0006B52656D6F766546726F6D4576656E744D
:1054F0004C6973740070785461736B4275666665AD
:105500007220213D202828766F69642A29302900DD
:10551000707276496E697469616C6973654E6577FE
:105520005461736B00284E554C4C29000D0A53658D
:105530006D6170686F7265205461736B3A205761BA
:105540006974696E6720666F722047505420495312
:105550005220746F2072656C656173652073656D90
:105560006170686F72650D0A0070785469636B73BF
:10557000546F57616974007852657475726E000DCE
:105580000A4D657373616765732061726520736886
:1055900061726564206265747765656E2053656E1F
:1055A0006465725F5461736B2C2049535220616EA5
:1055B000642052656365697665725F5461736B2020
:1055C000666F722074686520666972737420666500
:1055D00077207365636F6E64732E0D0A4C6174657A
:1055E000722C2053656E64657220616E6420526572
:1055F000636569766572205461736B732077696C9B
:105600006C2062652073757370656E6465642074C8
:10561000696D65722077696C6C2062652073746FA8
:10562000707065642E2053656D6170686F726520BF
:1056300069730D0A616371756972656420616E64D6
:105640002072656C65617365642062657477656559
:105650006E2053656D6170686F7265205461736B65
:1056600020616E642049535220666F722074686511
:10567000206E65787420666577207365636F6E644D
:105680007320616E642053656D6170686F72650D83
:105690000A5461736B2069732073757370656E644F
:1056A00065642E20546F2072657374617274207467
:1056B0006865206170706C69636174696F6E2C201D
:1056C000706F776572206379636C652074686520FC
:1056D000626F6172642E0D0A002828285343425FCE
:1056E00054797065202A29202828307845303030B8
:1056F00045303030554C29202B2030783044303024
:10570000554C2920292D3E4943535220262028302C
:1057100078314646554C202929203D3D20300078DF
:1057200053697A65203D3D2073697A656F6628204C
:1057300051756575655F74202900785175657565CB
:1057400053656D6170686F726554616B65000D0A19
:1057500020202020446174612020203A20256420EC
:10576000200D0A2020202053656E646572203A20A7
:1057700025730078517565756547656E6572696357
:10578000437265617465537461746963000D0A52F4
:105790005F4750545F5374617274204150492066D2
:1057A00061696C65640D0A000D0A53656E6465726B
:1057B0005F5461736B3A2053757370656E64696EE4
:1057C000672053656E646572205461736B0D0A0027
:1057D00053656D6170686F7265205461736B0076FC
:1057E000506F727453564348616E646C65725F43C8
:1057F0000075785363686564756C65725375737072
:10580000656E646564203D3D2031550065546173CB
:105810006B476574537461746500785461736B549D
:105820006F526573756D650070784576656E744C62
:10583000697374000D0A53656D6170686F7265203D
:105840005461736B3A20525F4750545F53746F70CA
:1058500020415049206661696C65640D0A000D0A9B
:1058600053656E6465725F5461736B3A2053746163
:105870007274696E6720675F706572696F646963CF
:105880005F74696D65725F6D7367712074696D65B2
:1058900072007852657475726E20213D2028202D8B
:1058A000312029000D0A52657475726E65642045B9
:1058B00072726F7220436F64653A203078257820C9
:1058C000200D0A000D0A53656E6465725F546173A2
:1058D0006B3A20476F696E67206F6E2064656C615C
:1058E0007920666F72203530306D73002E2E2F7246
:1058F000612F6177732F4672656552544F532F465F
:1059000072656552544F532F536F757263652F70D4
:105910006F727461626C652F4D656D4D616E672F9E
:10592000686561705F322E6300282028202820706F
:10593000784C696E6B2D3E78426C6F636B53697A5D
:1059400065202920262028202820282073697A65B0
:105950005F74202920312029203C3C202820282049
:1059600073697A656F66282073697A655F74202988
:10597000202A202820282073697A655F7420292036
:105980003820292029202D203120292029202920B4
:10599000213D2030202920213D203000785175659F
:1059A0007565437265617465436F756E74696E6782
:1059B00053656D6170686F726553746174696300DB
:1059C00078517565756552656365697665007078AF
:1059D00050726576696F757357616B6554696D6553
:1059E00000785461736B496E6372656D656E7454B3
:1059F00069636B000D0A53656D6170686F72652095
:105A00005461736B3A204750542074696D6572205D
:105A100073746F707065640D0A002E2E2F72612FE3
:105A20006177732F4672656552544F532F467265E6
:105A30006552544F532F536F757263652F7175659F
:105A400075652E63005B4552525D20496E20467598
:105A50006E6374696F6E3A20257328292C20257394
:105A6000000D0A53656D6170686F72652054617333
:105A70006B3A2041637175697265642073656D616D
:105A800070686F7265207375636365737366756C98
:105A90006C790D0A0053656E646572205461736BF6
:105AA0000076506F727446726565002820635478E2
:105AB0004C6F636B202920213D2028202820696E0F
:105AC00074385F74202920313237202900707276B3
