:020000040200F8
:10000000800800223D0C0002790200027302000207
:100010007302000273020002730200027302000204
:100020000000000000000000000000007302000259
:10003000730200020000000073020002730200025B
:10004000212300029D240002C32300024322000258
:10005000212300029D240002C32300024322000248
:100060000000000000000000000000000000000090
:100070000000081000000000000000000000000068
:100080000000101800000000000000000000000048
:100090000000081000000000000000000000000048
:1000A0000000101800000000000000000000000028
:0400B000FFFFFF004F
:020000040200F8
:1000B40040EA01039B0703D009E008C9121F08C0E6
:1000C400042AFAD203E011F8013B00F8013B521E66
:1000D400F9D27047D2B201E000F8012B491EFBD2DD
:1000E40070470022F6E710B513460A46044619463F
:1000F400FFF7F0FF204610BD421C10F8011B002939
:10010400FBD1801A704730B504460020034600E056
:100114005B1C934203D2E05CCD5C401BF8D030BD45
:1001240070B5064602F09EFE046805460A220021C8
:10013400304600F002F82C6070BD2DE9F04791467E
:100144000F4680460446002614F8015B2DB100F0EA
:100154002DF80068405DC007F6D12B2D02D02D2D5F
:1001640018D0641E4A463946204600F023F827B1C9
:100174003968A14201D1C7F8008071054FF002042B
:100184000BD54042002803DD02F06CFE0460A0079A
:10019400BDE8F08746F48066E4E70028F8DA02F068
:1001A40061FE04606FF00040F2E700000048704711
:1001B400F42E00022DE9F05F8246007800271546F0
:1001C4008B460AF10104B946302801D09DB113E0F1
:1001D40014F8010B0127782803D0582801D045B121
:1001E4000AE00DB1102D07D10027102514F8010BDA
:1001F40002E0082500E00A250026B0460EE005FBD3
:10020400080005FB06F1012701EB10461FFA80F8F0
:10021400B6F5803F00D3B94614F8010B294600F027
:1002240018F80028EBDABBF1000F05D00FB1641EFB
:1002340000E05446CBF80040B9F1000F06D002F0BC
:1002440011FE02210160C81EBDE8F09F48EA064085
:10025400FAE73A2800D2303820F02002412A01D3AC
:10026400A2F13700884201D34FF0FF30704700BE3F
:1002740070470000F0B581B04CF2001541F29817B8
:10028400C4F200050024C2F200272868296A01EAA2
:10029400000600BF26FA04F0C00703D0396809B18C
:1002A4002046884701340437152CF3D12E6100BF52
:1002B400286A3042FCD101B0F0BD0000B0B542F272
:1002C4002404C820C4F2200401210025257100F073
:1002D40036F92570207808B12FF005C0207840F059
:1002E4000200207020788007FCD4002004F8020C5F
:1002F40014F8020C08B12FF005C84FF0030E0020CB
:1003040004F11C0111F8102002F07F0201F8102002
:1003140011F91020002AFBD401300FF00DC8012080
:1003240000F0C0F84EF64C410120C4F20101002255
:100334000A70BDE8B04000F0DBB800002DE9F04FD2
:1003440081B04EF2FA3143F20406C4F2010182464E
:10035400C4F220064AF20350B1F8009008804FF02E
:10036400010B00254FF480340127002004FA00F12A
:1003740032680A4210D1EFF310888BF31088326888
:100384000BFA00F011433160316805431E2001214E
:1003940000F0D5F888F31088F8074FF001004FF00B
:1003A4000007E3D14EF2750740F68001C4F201075D
:1003B400C2F20021387800F00F0051F8200017F83D
:1003C400081C01F00F01022901D8012208E0CA1E0D
:1003D400052A03D22EA151F8221003E00839102275
:1003E40002FA01F1B0FBF1F04DF68361C4F21B3166
:1003F400A0FB01016FF0010000EA5140012100F06F
:100404009EF8387840F04000387000BF97F900003B
:10041400B0F1FF3FFADCDAF8040007F8080C9AF8A8
:10042400000040F040003870DAF80000387000BF77
:1004340097F900000028FBD400204FF0010A4FF484
:100444008038012425FA00F1C90710D0EFF3108792
:100454008AF3108808FA00F0316821EA000030605D
:1004640030681E20012100F06AF887F31088E00745
:100474004FF001004FF00004E4D14EF2FA3149F498
:100484002540C4F20101088001B0BDE8F08F00BF2F
:100494000600000008000000030000000500000042
:1004A4000A00000010B5EFF31081012282F31088D6
:1004B40041F2F822C2F2002232F8103083B94EF22F
:1004C400FA3E43F2201CC4F2010EC0F2002CBEF826
:1004D40000403CF81030234343F42543AEF8003089
:1004E40032F81030013322F8103081F3108810BD37
:1004F400EFF31081012282F3108841F2F822C2F254
:10050400002232F8103023B132F81030013B22F8C7
:10051400103032F810207AB94EF2FA3243F2201C2D
:10052400C4F20102C0F2002C13883CF8100043F41A
:10053400254323EA0000108081F31088704740F6B9
:10054400AC0241F20023C2F20022C0F27A03484313
:1005540012689A420FD344F23F21C0F20F011144B2
:100564004DF68362C4F21B32A1FB0212910CA0FB74
:100574000101C9B11BE04CF60021C3F69A31B1FB6D
:10058400F2F148F63812C0F24102904205D24FF41B
:100594007A725043B0FBF1F006E0B0FBF1F0904208
:1005A40005D24FF47A71484328B101F003BB4FF0F0
:1005B400FF3001F0FFBA70477047022818BF704738
:1005C40041F2EC1043F28C01C2F20020C0F200218F
:1005D40000F017B906207047014642684CF200301B
:1005E40040F2000CC4F20000C2F2002C50F8223099
:1005F40023F0807340F82230002000234CF822308E
:100604000B60704741684CF20032C4F200020020D3
:1006140052F8213023F0807342F82130704741684A
:100624004CF20032C4F20002002052F8213043F0B0
:10063400807342F821307047406840F20002C2F2F1
:10064400002252F820000022C1E90022C278402A88
:1006540005D24FF480328A60C089C8600FE04FF43D
:1006640080728A60C289D2B2CA60C27802F0C002C3
:10067400802A04D14FF480320A60808948600020C7
:1006840070472DE9F04141F2AC4240F20006C2F25B
:1006940000220D460446C2F2002613780BBB43F237
:1006A40000004FF00108C4F2200082F80080EFF34C
:1006B400108788F31088016821F4800101600068C4
:1006C4001E200121FFF73BFF87F3108820213046CD
:1006D400FFF707FD4AF60C40C4F20000866080F87C
:1006E400008068680068002805D456F8201029B1F5
:1006F4000820BDE8F0810B20BDE8F0812968606026
:1007040011B1204601F02CFC44F20030C4F25440F4
:1007140020600020BDE8F081B0B5044640684CF28A
:100724000035C4F2000555F8202022F0807245F807
:10073400202060684AF60E4240F40040C4F20002F1
:1007440013889842FCD0204601F00AFC616800201E
:1007540055F8212042F0807245F82120B0BD0620D2
:100764007047000010B582B00191009241684CF2CC
:10077400003C40F20002C4F2000CC2F2002252F823
:1007840021E05CF8212022F080724CF8212042689C
:100794004AF60E41C4F2000142F400420C88A2421F
:1007A400FCD008228A70019A12B1019ACEF8042072
:1007B400009A12B1009ACEF808209EF8032002F0A5
:1007C400C004802C02D1AEF80C3003E03F2A98BF5D
:1007D400AEF80E3018228A70416800205CF821209F
:1007E40042F080724CF8212002B010BD0620704700
:1007F40006207047014600220020C0F204620A600D
:10080400704780B545F25422C5F24F020260084693
:1008140001F0C8FB002080BD10B5044640680022EA
:10082400016B226021B18A680868116A8847606890
:10083400C06A18B181680068096A8847A06881683D
:1008440021F44C11816061684EF28010CEF20000F8
:100854008A68002A0CD4510902F01F02012303FA0A
:1008640002F240F82120BFF34F8FBFF36F8F61680E
:100874004A68002A0CD4510902F01F02012303FA2A
:1008840002F240F82120BFF34F8FBFF36F8F6168EE
:10089400C96801234A0901F01F0103FA01F140F874
:1008A4002210BFF34F8FBFF36F8F616809694A0944
:1008B40001F01F0103FA01F140F82210BFF34F8F3A
:1008C400BFF36F8FA068816821F001018160A06887
:1008D4000021CFF680518166A068C3666068816993
:1008E40041B9C06B006B012804D1A068416C21F4AC
:1008F40040714164002010BD2DE9F04F83B00D46D6
:1009040009784CF200098346EF6AC4F2350909EB11
:1009140001247FB178684FF0006100680160D7E975
:10092400011238680B689C601268904706460028DC
:1009340040F06381286BB0B141684FF4002209682C
:100944000A60D0E9011200680B685C601268904785
:1009540006462FB126B1B9683868096A88474CE160
:10096400002E40F04A81686BCBF824002878EE6BA7
:100974002A6ACBF80450A96BCBF82C100021CBF8D1
:10098400281009EB002CD5E90610AD6A4FF4441782
:1009940040EA4200F269002940EA053508BFA9F59A
:1009A400962747EAC272D6E9007425F0E060CBF8D6
:1009B40008C0D6F80CE0002F18BF42F0807205463C
:1009C400002C08BF42F40032002908BF45F080051E
:1009D40096F82130002F55EA008042EA047796F811
:1009E4002020746901924FF4807203F00303D6F857
:1009F400088040EA0E60012C08BF4FF44072002CBE
:100A0400356918BF1743002940EA830AB169029186
:100A140001D0002013E0306B012807D147F40057C0
:100A2400DCF8440040F44070CCF84400D6E90910E6
:100A34004AF4604AF26A41EA002040EA0240009027
:100A44000122EFF3108982F31088DBF804004FF4DD
:100A54000011022D4CF200360078C4F2000608BFE3
:100A64004FF44011C0F11300002D02FA00F043F2DC
:100A74000402C4F2200251EA15844EF200151168F2
:100A8400CEF2000521EA000010601168019A08FA0C
:100A94000EF040EA02281E200121FFF750FD89F3E1
:100AA40010880021DBF80800CFF6805141F28C4C0D
:100AB4008166C2F2002CDBF80800C0F81080DBF875
:100AC400080000994160DBF80800C460DBF8080006
:100AD400C0F814A0DBF808000299016427F08041F3
:100AE400DBF808008160DBF8080081688760DBF8C8
:100AF40004108A68002A1ED4497DAB18012009011C
:100B040083F800134CF822B056F8221021F48031F7
:100B140046F8221056F82210510902F01F02BFF3C2
:100B24005F8F05EB810300FA02F2C3F8802145F8D8
:100B34002120DBF804104A68002A1ED4097DAB1872
:100B44000127090183F800134CF822B056F822104B
:100B540021F4803146F8221056F82210510902F08F
:100B64001F02BFF35F8F05EB810307FA02F2C3F89C
:100B7400802145F82120DBF804100B69CF7D03F0B8
:100B84000F0105F540720C1F4EF61851CEF200010C
:100B9400D018002B4FEA071748BF601807704CF8AD
:100BA40023B056F8230020F4803046F8230056F88A
:100BB4002300580903F01F03012605EB800706FAFA
:100BC40003F3BFF35F8FC7F88031002645F8203068
:100BD400DBF80400C368807D03F00F071A44043F68
:100BE400002B48BF7A180001107045F249004CF8F8
:100BF40023B0C5F25320CBF80000304603B0BDE863
:100C0400F08F80B582B094460A4600210093634673
:100C140001F079FA02B080BD80B582B0944600221A
:100C24000093634601F06FFA02B080BDDDF800C0A6
:100C3400CDF800C001F067BA00F0E4FA01F08AF9D7
:100C4400FEE710B540F6B004C2F200242078532821
:100C540001D000F0E7FBE06E216F81425FEA0F9064
:100C640010BD10B50B46EFF311844FF0200181F352
:100C74001188194600F003F884F3118810BD2DE99A
:100C8400F04381B040F6B0051646C2F2002589460D
:100C940004462B78532B01D000F0C4FB04EB440032
:100CA40005EBC00000F16008C56E076FAF4213D9B1
:100CB400D8E90101C91BB14251EA3684C119484639
:100CC4002246FFF7F5F9E019D8F80810411AA144B3
:100CD40050EA1187361B00E00024E81BB04250EABA
:100CE400368646B1D8F804003246C1194846FFF7A3
:100CF400DFF9344437440CB1C8F81070204601B011
:100D0400BDE8F083F0B581B040F6B0031446C2F2FA
:100D140000230D4606461B78532B01D000F082FBBE
:100D2400EFF311874FF0200181F3118830462946F3
:100D3400224600F004F887F3118801B0F0BD2DE9D4
:100D4400F04381B000EB400040F6B003C2F2002350
:100D5400144603EBC003894603F11805D86A022838
:100D640012D0012808D000283ED1EE682869F1434A
:100D7400B04234D9084435E0EE682969B1420BD950
:100D8400F0430144A8680BE028464946224601B0D6
:100D9400BDE8F04300F01EBCF243A86811440144CE
:100DA400A14251EA3484871B68683044BC4207D2AC
:100DB40049462246FFF77CF9BFF35F8F26440CE0D7
:100DC40049463A46FFF774F9E61B686809EB0701E0
:100DD4003246FFF76DF9BFF35F8FEE6025E0AA6836
:100DE40008441044A04201D200241EE0D5E90101C8
:100DF4008F1B3044BC4208D249462246FFF758F9BB
:100E0400BFF35F8F06EB04080DE049463A46FFF74F
:100E14004FF9A4EB0708686809EB07014246FFF79E
:100E240047F9BFF35F8FC5F80C80204601B0BDE8D9
:100E3400F08382B080B582B0CDE9042304AA019284
:100E440001AA00F005F802B0BDE8804002B0704786
:100E54002DE9F04F9BB091460F46002406A9169148
:100E640040211791002105901A90CDE9181100BF77
:100E740017F8011B252907D0002900F0578116A86F
:100E840000F088FBD4E000BF4FF0000839782C292B
:100E940006DC23290AD02B2910D1042009E000BF45
:100EA4002D2905D0302909D1022002E0082000E0D4
:100EB400012048EA00080137E8E700BFA1F13A0041
:100EC40010F10A0F02D2002010E000BF00200A46F1
:100ED40017F8011F00EB8000A1F13A0302EB400078
:100EE40013F10B0FA0F130000A46F1D82E290DD1D1
:100EF4003A4612F8011F2A290BD1D9F800100237FB
:100F04000A1DC9F800200E6801211BE000210026FB
:100F140018E0A1F13A0313F10A0F02D200210026CE
:100F24000FE0002612F8013F06EB8607A3F13A060C
:100F340001EB470116F10B0FA1F130061946F1D868
:100F44000121174617F8012B02F0FB03682BF9D097
:100F5400632A0DDC252A2CD0582A22D0632A67D193
:100F6400D9F80000011DC9F80010017887E700BF17
:100F7400A2F17003082B1ED8DFE803F0055A5A606B
:100F84005A4D5A5A1300D9F800001022011DC9F80D
:100F940000100168082300200826CDE9006016A887
:100FA40044E0D9F800100A1DC9F80020096810228D
:100FB40038E0252163E7642A3AD1D9F800104CF6C9
:100FC400CD4C0A1DC9F80020D1F800E0CCF6CC4C79
:100FD400CEF100017246BEF1000F48BF0A460A2A4C
:100FE40003914FF0010107DBA2FB0C35632A01F1E9
:100FF40001014FEAD502F7D88E4256EA818BD8B365
:10100400BEF1000F5FEA5F9108F0040241EA920129
:10101400A0EB010A32E0D9F800100A1DC9F800203B
:1010240009680A22CDE9000816A8334600F036FA0A
:10103400199CB4F1FF3F3FF71BAF82E0D9F80000E1
:10104400021DC9F80020006840A2002850EA128559
:101054005FEA01882978002E5FEA18800029E7D02A
:101064000028E5D116A8013500F094FA199C013E38
:10107400B4F1FF3FEEDC64E04FF0000A5FEA8875EC
:101084000CD55EB9002CD3D4BEF1000F27D45FEA8F
:101094004870CDF810E02BD52B2123E05FEAC8700F
:1010A400F0D1BAF1000FEDD0D345EBD20295CDF8D3
:1010B40010E0AAF1010500BF202116A800F06AFA89
:1010C400199C002C3DD4681EA84202D2AB450546AB
:1010D400F2D300F1010ADDF810E0029DD2E72D21E0
:1010E4000398049016A800F055FA199C002C28D4F3
:1010F400002D05D40A22CDE900A816A8049994E786
:1011040008F001003043F5D1BAF1000FF2D0AAF192
:101114000105554538BFD345ECD2302116A800F05F
:1011240039FA199CAA46002CF1D50AE044B1189D5D
:1011340025B106A905982A46FFF7E4FD2C4400E0F2
:10114400002420461BB0BDE8F08F00BF284E554C4C
:101154004C2900004EF22401C4F201018878098868
:1011640001F00F02A2F1080103293BD8DFE801F0E6
:10117400022C101E40F68001C2F2002151F820001A
:101184004AF6AB21CAF6AA21A0FB0101480830E0C7
:1011940040F68001C2F2002151F820004AF6AB214A
:1011A400CAF6AA21A0FB0101C80822E040F680018A
:1011B400C2F2002151F820004AF6AB21CAF6AA2156
:1011C400A0FB0101080914E040F68001C2F20021ED
:1011D40051F820004AF6AB21CAF6AA21A0FB01016E
:1011E400880806E040F68001C2F2002151F8200090
:1011F400D04040F6AC01C2F2002108607047000004
:101204000000000070B54EF6005440F20120CEF20A
:101214000004C0F20E004EF200066061CEF2010638
:10122400BFF34F8FBFF36F8F2068C0F3035110F0EB
:101234000F0F5FEA0F9001295FEA1081306810D820
:1012440079B940F0040030604EF20800BFF34F8FCC
:10125400CEF20000BFF36F8F016841F4803101606A
:1012640002E020F004003060BFF34F8FBFF36F8FB4
:101274004FF4700040F20001C4F888000020C0F26E
:101284000021A1600025FFF798F900F0DFF94EF284
:10129400FA304EF6B022C4F20100C4F201024AF25E
:1012A4000251018015704FF4254101800120FFF7A0
:1012B40084F940F28040C2F2002080F30A8830684A
:1012C400800723D5A068B0F1007F1FD130694FF4A7
:1012D4000071C0F3C300726901FA00F3C2F3C300E2
:1012E40081400020DA08CB080146064642F007C0D8
:1012F40000BF00BFE6E802010FF005C04FF0005246
:1013040043F005C0E2E802010FF005C0002000F040
:101314005BF8FFF71FFFFEF7D1FF0320FFF7C2F8CA
:101324004FF00E0E40F63050C4F2400020F8045B3B
:101334000FF005C04EF210150320C4F20105FFF7AB
:10134400D7F80320FFF7AEF844F204000021C4F2FA
:101354002000016041608160C1600320FFF7C8F88C
:10136400D5F8C802800714D42878A0B10120FFF76B
:1013740099F800BF287800F0C0008028FAD1002036
:10138400287000BF28783F28FCD80120FFF7B0F868
:1013940001E0D5F8C8020220FFF70FF9012000F0A0
:1013A40013F8BFF34F8FBFF36F8F0020C4F85002C0
:1013B400BFF34F8FBFF36F8F00F0E6FB0020BDE853
:1013C400704000F0DFBB0000F0B581B043F2E805E7
:1013D4000446C0F200252E6876B16868071D00BF78
:1013E4007879844204D157E90101091AFEF779FE9C
:1013F400013E07F10C07F3D1AE6886B1E86800F14D
:10140400080500BF6879844205D155E902022968BC
:10141400121AFEF74DFE013E05F11005F2D101B09E
:10142400F0BD000010B540F6B004A821C2F20024BB
:101434002046FEF756FE03202061606143F60B0050
:1014440040F69811C0F20020C2F20021A061E161CF
:101454004FF4006121620021A1626162E1622066B1
:1014640040F658104FF0100EC2F200206066402083
:10147400A06642F6F8602167E1666167BFF35F8F9B
:10148400C0F200200F3000BF10F8011904F8011B4E
:101494000FF007C0BFF35F8F10BD00002DE9F04FC0
:1014A40081B015460E4691421F468146DDF828B0AC
:1014B4004FF0010005D33146B1FBF5F10130A942EB
:1014C400FAD2874257EA808ABBF1000F0B991BD0EE
:1014D40011F0010018D188074FF0200048BF3020D8
:1014E4002021002F50EA0188BBF1000F0CD0DA450F
:1014F4000AD248464146ABF1010B00F04BF8D9F84B
:101504000C00B0F1FF3FEFDCD9F80C00002836D412
:10151400012400BF022F01D3013F03E0B6FBF4F026
:10152400A84201D36C43F5E70FF25808B6FBF4F771
:10153400484618F8071000F02DF8D9F80C000028D8
:1015440006D4B4FBF5F007FB1466A5420446EDD9B6
:101554000B98C00718BFBBF1000F10D009E0202181
:10156400484600F017F8D9F80C00A346B0F1FF3F45
:1015740005DDABF101045C4538BFDA45EFD301B0BA
:10158400BDE8F08F303132333435363738394142A3
:101594004344454610B50446D0E90120431C934218
:1015A40007D822681154A360E06862680130E060E3
:1015B4001846904218BF10BD21682069FFF7A2FBAE
:1015C400A168884202D10020A06010BD4FF0FF3016
:1015D400E06010BD2DE9F04381B014460D4680460D
:1015E400C7684FF0000900BFD8F81000FA43B842AA
:1015F40004D91044D8F8081004E000BFD8F8081043
:1016040010440844C91B884250EA31802946A0424C
:1016140050EA3486D8F8040038443246FEF748FDD0
:10162400F019D8F80810411AA4EB060450EA1187FF
:10163400B1443544BFF35F8FC8F80C700CB12FF080
:101644002DC8484601B0BDE8F08300002DE9F04103
:1016540082B00FF210504EF2FA38C4F201084AF286
:101664000151CFF6FF7190ED001F40F6800002316A
:10167400A8F80010C2F200200FF2F8414EF601461D
:1016840080ED001F4EF600474EF2140591ED001F49
:1016940048F2004140F6000280ED041F2030C1F200
:1016A400D77143F60003C4F20106C4F20107C4F281
:1016B4000105C2F6AF72C1F69C430EC0FFF74AFDA6
:1016C4004FF650600A21CFF6FF703954092085F88F
:1016D4008E00387818B93078800700F03E82387868
:1016E40048B901203870C8200121FEF728FF00BF47
:1016F40038780128FCD10020307038704AF2015645
:10170400002085F82200A87795F828000007FBD56B
:1017140042F602314EF61450C0F20101C5F8B4107D
:1017240040F223416987002285F836204FF60211E2
:10173400C5F8981040F251412987CEF200004EF2CC
:101744000001BFF34F8FBFF36F8F0368CEF2010127
:1017540023F400330360C0F83C22BFF34F8FBFF380
:101764006F8F0A6822F440520A60BFF34F8FBFF3B1
:101774006F8F2A7802F0F80201322A702A78D20692
:10178400FCD40A6842F440520A60BFF34F8FBFF39F
:101794006F8F0168890312D4BFF34F8FBFF36F8F2C
:1017A4000021C0F83C12BFF34F8FBFF36F8F016865
:1017B40041F400310160BFF34F8FBFF36F8F0020FE
:1017C400A87500BF95F828008006FBD54CF20007E9
:1017D4000020C4F21307387038783878387878687D
:1017E400FA2807D0FA20C1F6006000BF7860796853
:1017F400FA29FBD1B8687D2806D07D20CEF20010EE
:10180400B860B9687D29FBD143F23240C3F223208A
:10181400E86042F2202028820520A874FFF79AFC91
:101824001E2001210124FEF78AFE78686FF39F20B1
:10183400652828BF3C70FFF78DFC42F200004FF48E
:101844002541C4F200000680BFF35F8F0472BFF32A
:101854005F8F018095F8C60040F0400085F8C6000F
:1018640095F9C600B0F1FF3FFADC032085F8C0000B
:10187400C92085F8C60095F8C60000F0BF0085F8B9
:10188400C60000BF95F9C6000028FBD401202877C4
:1018940085F83E0085F83F00002085F82A00802066
:1018A40085F82A0095F8600040F0400085F8600053
:1018B40095F96000B0F1FF3FFADC072085F8580085
:1018C4004A2085F860000A2085F8600095F96000D8
:1018D4000028FBD400200190072000906846FEF702
:1018E4002DFD95F8620040F0400085F8620000BFCD
:1018F40095F96200B0F1FF3FFADC032085F85A0045
:10190400CA2085F8620095F8620000F0BF0085F8EF
:10191400620000BF95F962000028FBD495F84100ED
:1019240040F0400085F8410095F94100B0F1FF3FD7
:10193400FADC022085F84000CA2085F8410095F8B9
:10194400410000F0BF0085F8410000BF95F9410057
:101954000028FBD495F8430040F0400085F843008C
:1019640095F94300B0F1FF3FFADC002085F842000E
:10197400C72085F8430095F8430000F0BF0085F8C0
:10198400430000BF95F943000028FBD495F84900B3
:1019940040F0400085F8490095F94900B0F1FF3F57
:1019A400FADC012085F84800C62085F8490095F83E
:1019B400490000F0BF0085F8490000BF95F94900CF
:1019C4000028FBD495F8640040F0400085F86400DA
:1019D40095F96400B0F1FF3FFADC022085F85C0061
:1019E400C92085F8640095F8640000F0BF0085F80C
:1019F400640000BF95F964000028FBD495F84B00FF
:101A040040F0400085F84B0095F94B00B0F1FF3FE2
:101A1400FADC012085F84A00CA2085F84B0095F8C5
:101A24004B0000F0BF0085F84B0000BF95F94B0058
:101A34000028FBD495F8630040F0400085F863006B
:101A440095F96300B0F1FF3FFADC042085F85B00F0
:101A5400CA2085F8630095F8630000F0BF0085F89C
:101A6400630000BF95F963000028FBD495F8470094
:101A740040F0400085F8470095F94700B0F1FF3F7A
:101A8400FADC022085F84600CA2085F8470095F85C
:101A9400470000F0BF0085F8470000BF95F94700F4
:101AA4000028FBD495F8C70040F0400085F8C70033
:101AB40095F9C700B0F1FF3FFADC022085F8C100B8
:101AC400C52085F8C70095F8C70000F0BF0085F869
:101AD400C70000BF95F9C7000028FBD495F8C800DB
:101AE40040F0400085F8C80095F9C800B0F1FF3F08
:101AF400FADC012085F8C200C52085F8C80095F8F5
:101B0400C80000F0BF0085F8C80000BF95F9C80000
:101B14000028FBD495F8CA0040F0400085F8CA00BC
:101B240095F9CA00B0F1FF3FFADC092085F8C4003A
:101B3400C92085F8CA0095F8CA0000F0BF0085F8EE
:101B4400CA0000BF95F9CA000028FBD44FF4254011
:101B5400A8F8000002B0BDE8F0814FF47A70FEF7F7
:101B64002BFDCBE5006CDC0200127A000080000043
:101B740000366E010080000000CA9A3B0046C32371
:101B84005543DE137047000080B54FF0080E4CF249
:101B9400003043F20011C4F20000C0F2002100BF83
:101BA40051F8042B02B1026004300FF007C880BD65
:101BB4000000000001380028FCD170472DE9F04FE7
:101BC40081B00446008800285BD04EF64C4B0025BB
:101BD400C4F2010B4FF0010A42F2400800272AA682
:101BE400C4F22008606856F8041B00EBC500426884
:101BF4008A423DD100689BF8001000F0B8500AFA00
:101C040007F9B0F1807F09EA010015D158B9012024
:101C1400FEF748FC9BF8000040EA09008BF800003E
:101C24000120FEF765FC98F90000002820D498F8FC
:101C3400000040F0800015E058B10120FEF732FCAE
:101C44009BF8000020EA09008BF800000120FEF751
:101C54004FFC98F90000B0F1FF3F09DC98F8000050
:101C640000F07F0088F80000C8200121FEF767FC1F
:101C7400013708F10208032FB4D1208801358542C9
:101C8400AAD301B0BDE8F08F0204000003040000F1
:101C94000404000080B543F678110020C0F200214E
:101CA400FFF7C7F843F642010020C0F20021BDE867
:101CB4008040FFF7BEB800002DE9F04F93B000203C
:101CC400129002A84021FEF70CFA12A8FEF792FD2A
:101CD40043F2A2740020C0F200242146FFF7A9F8C1
:101CE40043F25D710020C0F20021FFF7A2F843F235
:101CF400D16177A2C0F200210020FFF79AF89DF885
:101D04004A3043F215719DF84B20C0F200219DF832
:101D1400497000200097FFF78CF800202146FFF758
:101D240088F843F298510020C0F20021FFF781F8AF
:101D340043F27C410020C0F20021FFF77AF800F062
:101D44009BFC70B1044663A10020FFF772F843F2D4
:101D5400E8310020C0F200212246FFF76AF800BEF5
:101D640003E063A10020FFF764F843F21A61002046
:101D7400C0F200214FF0000BFFF75BF843F29661CD
:101D84000020C0F20021FFF754F843F2B7680020A6
:101D9400C0F200284146FFF74CF843F241670020A7
:101DA400C0F200273946FFF744F843F2E83543F21E
:101DB400556902ACC0F20025C0F20029FEF741FFCC
:101DC400002877D0002040222146FEF74AFF204613
:101DD400FEF7A6F95FFA80FBBBF1030F2ED0BBF12F
:101DE400020F17D0BBF1010F37D100F0CDFC002852
:101DF40051D043F2084182460020C0F20021FFF78F
:101E040018F800F09BFB002029465246FFF711F812
:101E140000BE47E000F070FEA0B343F22F41064637
:101E24000020C0F20021FFF704F800F087FB002037
:101E340029463246FEF7FDFF00BE33E000F0D4FB36
:101E440030B30646002032A1FEF7F3FF00202946F6
:101E54003246FEF7EEFF00BE24E043F21A61002092
:101E6400C0F20021FEF7E5FF43F296610020C0F2C4
:101E74000021FEF7DEFF00204146FEF7DAFF0020D6
:101E840039460DE043F251410020C0F2002107E041
:101E9400002027A104E043F24F410020C0F20021BA
:101EA400FEF7C7FFABF10100012803D80020494623
:101EB400FEF7BFFFBBF1030F7FF480AF43F2E7717E
:101EC4000020C0F20021FEF7B4FF13B0BDE8F08F8C
:101ED400312E30000D0A2A2A2053504920494E49F8
:101EE40054204641494C4544202A2A0D0A0000004A
:101EF4000D0A2A2A2053504920494E49542053554B
:101F0400434345535346554C202A2A0D0A000000EA
:101F14002A2A2053504920455849542044656D6F5E
:101F2400206661696C6564202A2A0D0A000000009D
:101F34002A2A2053504920455849542044656D6F3E
:101F4400207375636365737366756C202A2A0D0AA2
:101F54000000000080B5FFF7AFFE002080BD000048
:101F640001F10E0212F80B3C402B06D3B2F800C06C
:101F74005FFA8CF343EA0C23138012F80C3C103202
:101F84003F2BEFD84AF610420823C4F20002137024
:101F940040F200034068C2F2002343F820101820E6
:101FA4001070704770B50446FFF708FE41F2043C18
:101FB400EFF31081C2F2002C012080F31088DCF8CA
:101FC400000038B940F614500022C4F240000270F8
:101FD40040220270DCF800000130CCF8000081F3EC
:101FE4001088208818B340F6000E0021C4F2400E79
:101FF400606800EBC10250F831305268D8034FEAF0
:102004001220D2B20BD50EEB801555F8226026F4BF
:10201400803645F8226023F4803645F822600EEBC2
:102024008010013140F8223020888142E0D3012021
:10203400EFF3108180F31088DCF8000020B1DCF8A5
:1020440000000138CCF80000DCF8000038B940F694
:1020540014500022C4F2400002708022027081F306
:10206400108870BD10B584B00446806A30B1D0E9E0
:1020740000C382680392CDE901C300E001A862684D
:10208400E36AD4F824C083601278C0E90021E047F1
:10209400A06A10B101AB0ECB0EC004B010BD4268F3
:1020A40091690029416910D1D26B72B1126B012A76
:1020B4000BD18268136D9B0024D5C369013B9942FF
:1020C40003D1536923F080035361C269914208BF6D
:1020D4007047C36833B1026A102A06D3826853F882
:1020E400213009E08268002306E0082A826802D3CE
:1020F40033F8113000E05B5C13604FF000539366DB
:102104000131416170472DE9F04104468068006E59
:1021140010B10820BDE8F08106981E4688460021CB
:10212400C4E9051107285FEA9F93616820620F28BC
:102134004FEA0317086BC4F80C8088BF202722617C
:10214400E661F8B14168A6610968CB788D7803F03F
:10215400CF0343EA0703CB7025F00C03CE8103F1D0
:1021640008058D708A602AB941F2B0428B70C2F2C0
:1021740000228A60826800685268904708B1BDE80E
:10218400F0816168C86A88B3416866610968CA7881
:1021940022F030023A43CA7063689F693FB9DB6B2F
:1021A4002BB11B6B012B02D1E369012B42D1CE81F0
:1021B40002F0F302B8F1000F02F10803CB70C1F88A
:1021C400048005D141F2B443CA70C2F200234B60CB
:1021D400A268936823F4801393608268006852684D
:1021E4009047002818BFBDE8F0816168A068426983
:1021F400236A8F6922F4F81242EA034267B9C96B71
:1022040051B1096B012907D1E169012902D122F0F9
:10221400800201E042F0800242610121A068C166AF
:10222400A068816841F4801141F0010181600020BF
:10223400BDE8F081721E6261CA81CA78B8E7F0B560
:1022440081B0EFF303806FF35F20A0F1100541F23A
:102254008C40C2F200204CF20036C4F2000650F862
:1022640025406068816800292ED44A094EF2001086
:10227400CEF2000001F01F0100EB8202012303FAF9
:1022840001F1C2F88010BFF34F8FBFF36F8FA168C5
:102294008A6822F001028A606168896856F8212000
:1022A40022F4803246F8212056F821204A0901F010
:1022B4001F01BFF35F8F00EB820703FA01F1C7F838
:1022C400801140F8221004E0A068816821F0010127
:1022D4008160A0680021CFF68051076D81663A01C4
:1022E40003D505212046FFF7BDFEF80103D50421DF
:1022F4002046FFF7B7FE07F0A050B0F1A05F03D16E
:1023040008212046FFF7AEFE56F8250020F4803061
:1023140046F8250056F8250001B0F0BD80B540F21E
:10232400FC714CF2C022EFF3038001EA800041F219
:102334008C41C4F20002C2F200210144835823F408
:1023440080338350805851F8400CD0E906129142F2
:1023540026D0D0F810E0BEF1000F09D0D0F820C08C
:10236400BCF1100F07D3826813684EF821300EE0D9
:10237400826813680BE08268BCF1080FD2F800C0D1
:1023840002D32EF811C002E00EF801C082684FF0AB
:1023940000439366C26901318161914218BF80BDD7
:1023A40040680122C06800F01F01400902FA01F1EF
:1023B4004EF20012CEF2000242F8201080BDEFF37C
:1023C40003806FF35F204CF20031A0F11003C4F2DC
:1023D400000141F28C42C2F2002251F8230020F4A1
:1023E400803041F8230051F8230052F8230082681A
:1023F400126D920104D542689269012A18BF704790
:1024040080B55A094EF2001ECEF2000E03F01F03EF
:102414000EEB82024FF0010C0CFA03F3C2F8803089
:10242400BFF34F8FBFF36F8F42689368002B29D49B
:102434005A0903F01F030CFA03F30EEB8202C2F8ED
:102444008030BFF34F8FBFF36F8F8268936823F0A0
:10245400010393604268926851F8223023F4803378
:1024640041F8223051F82210510902F01F02BFF343
:102474005F8F0EEB81030CFA02F2C3F880214EF851
:10248400212004E081688A6822F001028A60012127
:10249400BDE88040FFF7E6BDEFF303806FF35F20F4
:1024A4006FF03F0141F28C4301EB80004CF20031AC
:1024B400C4F20001C2F20023425822F48032425096
:1024C400425818584268D36B5B68012B34D1C369F6
:1024D400A3F1010C436963451FD180B5D2684EF264
:1024E400001CCEF2000C51F8223023F4803341F862
:1024F400223051F82210510902F01F0201230CEB83
:10250400810E03FA02F2BFF35F8FCEF880214CF8FC
:102514002120BDE88040FFF7C2BDD16A61B1D16816
:10252400012301F01F02490903FA02F24EF20013DB
:10253400CEF2000343F82120FFF7B1BD80B541F28C
:102544000C40C2F20020FEF767F958B143F68D3112
:1025540043F68032C0F20021C0F200220CA3002016
:10256400FEF767FC41F20C40C2F20020FEF754F97A
:1025740068B143F68D3143F68032C0F20021C0F2D7
:1025840000220EA30020BDE88040FEF752BC80BDAF
:102594002A2A20525F5350495F425F436C6F736530
:1025A4002041504920666F72206D617374657220FA
:1025B4006661696C6564202A2A0D0A002A2A205261
:1025C4005F5350495F425F436C6F736520415049CC
:1025D40020666F7220736C617665206661696C6534
:1025E40064202A2A0D0A000010B541F20C40C2F200
:1025F4000020FEF711F910B104460BA308E041F2E4
:102604003C40C2F20020FEF707F958B104460EA37D
:1026140043F68D3114A2C0F200210020FEF709FC1C
:10262400204610BD0024FBE70D0A4D6173746572EA
:1026340020525F5350495F425F436C6F7365282992
:10264400206661696C6564000D0A536C61766520CF
:10265400525F5350495F425F436C6F736528292072
:102664006661696C656400007370695F657869749C
:102674005F64656D6F00000010B541F20C4043F2D9
:102684002C11C2F20020C0F20021FEF735F970B11E
:1026940004461AA343F68D3143F6A932C0F2002151
:1026A400C0F200220020FEF7C4FB204610BD41F218
:1026B4003C4043F2A011C2F20020C0F20021FEF718
:1026C4001BF9C8B143F68D3143F6A93243F614031E
:1026D4000446C0F20021C0F20022C0F20023002010
:1026E400FEF7A7FB41F20C40C2F20020FEF794F87B
:1026F4000028DAD00DA3CDE70024D6E72A2A2052F9
:102704005F5350495F425F4F70656E2041504920CE
:10271400666F7220535049204D6173746572206650
:1027240061696C6564202A2A0D0A00002A2A205255
:102734005F5350495F425F436C6F7365204150495A
:1027440020666F7220535049204D61737465722066
:102754006661696C6564202A2A0D0A0040680121BB
:10276400012851EA019041F2F411C2F200210860FB
:10277400704740680121012851EA019041F2083173
:10278400C2F20021086070472DE9F04381B041F2A4
:1027940078248021C2F200242046FDF7A2FC41F2F5
:1027A400F8108021C2F20020FDF79BFC41F20C30AE
:1027B4008021C2F20020FDF794FC43F6F11143F6A8
:1027C4009B25C0F20021C0F2002500BF0020FEF7C7
:1027D40030FB00BFFEF735FA08B92FF005C800201A
:1027E40080222146FEF73DFA204600F025FB2946CB
:1027F40008B92FF015C8C41C41F23C40A50841F2A9
:102804000C31C2F20020C2F200211F232A46FEF737
:10281400F8F950B143F68D3143F6A8220646C0F2CA
:102824000021C0F2002298A316E041F20C4041F2CC
:102834007821C2F20020C2F200211F232A46FEF7AB
:10284400EBF980B143F68D3143F6A8220646C0F277
:102854000021C0F2002294A30020FEF7EAFA3046D9
:1028640001B0BDE8F08324F0030841F2F41741F20B
:10287400083940F27004C2F20027C2F20029C2F201
:10288400002400BF3868012803D1D9F800000128CA
:102894004AD0206801382060206830B338680228A4
:1028A4001CBFD9F800000228ECD143F68D3143F661
:1028B400A82243F61913C0F20021C0F20022C0F28C
:1028C40000230020FEF7B5FA43F678110020C0F289
:1028D4000021FEF7AEFA43F642010020C0F20021C7
:1028E400FEF7A7FA4FF49676B9E743F68D3143F62F
:1028F400A82243F61913C0F20021C0F20022C0F24C
:1029040000230020FEF795FA43F678110020C0F268
:102914000021FEF78EFA43F642010020C0F20021A6
:10292400FEF787FA14269AE76FF07F4020600020B4
:1029340065A13860C9F80000FEF77BFA41F23C401B
:1029440041F20C31C2F20020C2F200211F232A46B8
:10295400FEF762F968B143F68D3143F6A82243F6D7
:10296400E9230646C0F20021C0F20022C0F200238F
:1029740072E741F20C4041F2F811C2F20020C2F2B7
:1029840000211F232A46FEF73CF968B143F68D3136
:1029940043F6A82243F6CA230646C0F20021C0F239
:1029A4000022C0F2002357E73868012803D1D9F880
:1029B400000001282FD02068013820602068C0B1B1
:1029C400386802281CBFD9F800000228ECD143F66D
:1029D4008D3143F6A82243F61913C0F20021C0F248
:1029E4000022C0F200230020FEF723FAFFF752F979
:1029F40078E743F68D3143F6A82243F61913C0F263
:102A04000021C0F20022C0F200230020FEF711FAD8
:102A1400FFF740F986E743F66D216FF07F402060B1
:102A24000020C0F200213860C9F80000FEF701FA66
:102A340041F2782041F2F811C2F20020C2F20021E2
:102A44004246FDF760FB58B143F69C010020C0F2FA
:102A54000021FEF7EEF9FFF71DF940F22F16FEE60E
:102A640043F6083141F2F812C0F20021C2F200220A
:102A740000200026FEF7DDF944F240210120C0F2D7
:102A84000F01FDF75CFDEAE60D0A536C61766520E3
:102A9400525F5350495F425F526561642829206642
:102AA40061696C65640000000D0A4D6173746572A0
:102AB40020525F5350495F425F57726974652829F9
:102AC400206661696C6564000D0A4D6173746572FA
:102AD400207472616E736D697474656420757365B6
:102AE4007220696E707574206461746120746F2043
:102AF400536C6176650D0A00F0B581B041F278241B
:102B04008021C2F200242046FDF7EBFA41F2F810CE
:102B14008021C2F20020FDF7E4FA41F28C308021DA
:102B2400C2F20020FDF7DDFA41F20C308021C2F23E
:102B34000020FDF7D6FA43F6F11143F69B25C0F2C7
:102B44000021C0F2002500BF0020FEF772F900BF8B
:102B5400FEF777F808B92FF005C800208022214637
:102B6400FEF77FF8204600F067F9294608B92FF0F0
:102B740015C8C61C43F6A21141F28C3543F69B27B7
:102B840026F00304C0F20021C2F20025C0F200279F
:102B94000020FEF74EF900BFFEF753F808B92FF0F6
:102BA40005C8002080222946FEF75BF8284600F07D
:102BB40043F9394608B92FF015C8B60841F23C402C
:102BC40041F28C3141F20C32C2F20020C2F20021F7
:102BD400C2F2002233461F270097FEF727F850B1B0
:102BE40043F68D3143F6BB220546C0F20021C0F204
:102BF400002274A31AE041F20C4041F2782141F220
:102C0400F812C2F20020C2F20021C2F200223346BE
:102C14000097FEF70BF878B143F68D3143F6BB22EB
:102C24000546C0F20021C0F200226FA30020FEF787
:102C340000F9284601B0F0BD41F2F41041F2083128
:102C440040F27002C2F20020C2F20021C2F200225D
:102C54000368012B02D10B68012B49D01368013B97
:102C6400136013682BB30368022B1CBF0B68022B81
:102C7400EED143F68D3143F6BB2243F64913C0F23D
:102C84000021C0F20022C0F200230020FEF7D1F898
:102C940043F678110020C0F20021FEF7CAF843F68B
:102CA40042010020C0F20021FEF7C3F84FF49675EC
:102CB400BFE743F68D3143F6BB2243F64913C0F216
:102CC4000021C0F20022C0F200230020FEF7B1F878
:102CD40043F678110020C0F20021FEF7AAF843F66B
:102CE40042010020C0F20021FEF7A3F81425A0E75A
:102CF4006FF07F431360002202600A6043F64121B3
:102D0400C0F200210020FEF794F840A10020FEF755
:102D140090F841F28C3041F2F811C2F20020C2F274
:102D240000212246FDF7EFF960B143F68D3143F6F9
:102D3400BB2243F65703C0F20021C0F20022C0F2C6
:102D4400002322E043F6583141F2F812C0F2002188
:102D5400C2F200220020FEF76CF841F2782041F222
:102D64000C31C2F20020C2F200212246FDF7CBF959
:102D740098B143F68D3143F6BB2243F6D403C0F237
:102D84000021C0F20022C0F200230020FEF751F817
:102D9400FEF780FF40F22F154BE743F6313141F245
:102DA4000C32C0F20021C2F2002200200025FEF7FE
:102DB40040F844F240210120C0F20F01FDF7BFFBAF
:102DC40037E700BF0D0A536C61766520525F53509C
:102DD400495F425F577269746552656164282920AE
:102DE4006661696C656400000D0A4D6173746572F7
:102DF40020525F5350495F425F5772697465526550
:102E040061642829206661696C6564000D0A536C4D
:102E140061766520627566666572206461746120FE
:102E24007472616E736D697474656420746F204D7F
:102E340061737465720D0A0010B50446FDF75CF900
:102E440068B10119013900BF0A780D2A01D00A2A94
:102E540006D101384FF0000201F80129F4D1002015
:102E640010BD000000487047200000220040404090
:102E74004040404040404141414141404040404049
:102E840040404040404040404040404040050202F5
:102E940002020202020202020202020202202020B4
:102EA4002020202020202002020202020202909010
:102EB400909090901010101010101010101010100E
:102EC4001010101010101010020202020202888862
:102ED400888888880808080808080808080808086E
:102EE4000808080808080808020202024000000056
:102EF400712E00020000000000005454522052457C
:102F040047474553000000000000006800000068C7
:102F1400000000900001090D000000680000006836
:102F24000000007800010B0D00000068000000683C
:102F3400000000270001020D000000680000006886
:102F4400600000020001010D00000080000000800C
:102F540000000090000109080000008000000080CB
:102F64000000007800010B080000008000000080D1
:102F7400000000270001020800000080000000801B
:102F840060000002000101080000007000000070F1
:102F9400000000900001090A0000007000000070A9
:102FA4000000007800010B0A0000007000000070AF
:102FB400000000270001020A0000007000000070F9
:102FC400600000020001010A00000000000000008F
:102FD400000000900101090500000000000000004D
:102FE4000000007801010B05000000000000000053
:102FF400000000270100020500000000000000009E
:103004006000000201000105000000200000002013
:1030140000000090010109040000002000000020CD
:103024000000007801010B040000002000000020D3
:10303400000000270100020400000020000000201E
:103044006000000201000104200000222000002290
:10305400000000900001090320000022200000224B
:103064000000007800010B03200000222000002251
:103074000000002700000203200000227400002248
:1030840060000002000001030A0000009830000202
:103094000000000000040106000100000004010615
:1030A400010100000000010602010000000001000F
:1030B40008020000000001000902000000000100F5
:1030C4000A020000000001000B02000000040106D7
:1030D40000070000000401060107000000000106CB
:1030E400020700000A000000B43B000218000000C0
:1030F4000C2F000204000000C83300021803000073
:10310400190300001C0300001B0300001D03000042
:103114001E03000021030000200300000100020040
:103124000800100020000000000000000000000063
:10313400010000000200000003000000020202027D
:10314400000000000000000000000000010000007A
:10315400000000002C320002143200026127000239
:10316400000000006C3100020100000000000000BB
:10317400000000000000000000000000000000004B
:1031840000000000010000003E00000000000000FC
:10319400000000000000000000000000010000002A
:1031A4000400000005000000060000000700000005
:1031B4000202020201000000000000000000000002
:1031C40001000000000000005C32000244320002F2
:1031D4007727000200000000E03100020100000037
:1031E40000000000000000000000000000000000DB
:1031F4000000000000000000010000003E0000008C
:1032040000000000000000000000000000000000BA
:103214006C140022203200027432000230000022BA
:103224002832000200000000741400223832000228
:10323400743200024000002240320002010000000B
:103244007C1400225032000274320002500000222A
:103254005832000204000000841400226832000284
:103264007432000260000022703200020500000087
:10327400870600021D0700026907000223060002F8
:1032840009060002F1070002F50700023D060002EC
:10329400DD05000263070002D905000200000027D3
:1032A400000000270000002000000020003E000273
:1032B400003E0002000000020000000000000000C8
:1032C40000F6C91200F2C90200F2C90200F6C912DE
:1032D40044F0C90240F0C902C0F4C912C4F0C902E2
:1032E400C0F0C90224F1C90220F1C902C0F4C91214
:1032F40048F0C90244F0C902C4F4C912C8F0C902B2
:10330400C4F0C90228F1C90224F1C902C4F4C912E3
:103314000076E0020076E0020476E0020476E00241
:103324000876E0020876E0028077E1120077E10295
:103334000077E1028077E1122076E0022076E00255
:103344004076E0024076E0026076E0026076E002D9
:103354008076E0028076E0023076E0023076E002A9
:103364005076E0025076E0027076E0027076E00279
:103374009076E0029076E0021476E0021476E002A1
:103384002079E1022079E10274F0C90274F0C902E3
:103394000000008000000080000000900000009009
:1033A4000000007000000070000000780000007849
:1033B400001600220016002200000022000000680F
:1033C4000000006800000068000000680000008041
:1033D40000000080000000700000007080000022E7
:1033E400800000220D0A52657475726E6564204572
:1033F40072726F7220436F64653A203078257820AA
:10340400200D0A002A2A2053504920575249544576
:1034140020414E4420524541442044656D6F20664E
:1034240061696C6564202A2A0D0A000D0A2A2A2083
:103434005350492057524954452044656D6F2066C6
:1034440061696C6564202A2A0D0A000D0A2A2A2063
:1034540053504920575249544520414E4420524527
:1034640041442044656D6F205375636365737366CF
:10347400756C202A2A0D0A000D0A546865207072A2
:103484006F6A65637420696E697469616C697A65D1
:1034940073205350492064726976657220616E64AA
:1034A40020636F6E66696775726573205350492097
:1034B4006368616E6E656C7320696E204D61737410
:1034C400657220616E6420536C617665206D6F6453
:1034D400652E0D0A416674657220696E69746961AE
:1034E4006C697A6174696F6E2C204D6173746572B6
:1034F40020616E6420536C6176652063616E207474
:1035040072616E736D697420616E642072656365A7
:103514006976652064617461206261736564206FFB
:103524006E2074686520636F6D6D616E64732066D0
:10353400726F6D2074686520757365722E0D0A5262
:103544006566657220746F20746865204D4355204C
:1035540055736572204D616E75616C20666F7220C3
:1035640076616C6964206269742072617465732089
:10357400616E6420636F72726573706F6E64696EDE
:103584006720636C6F636B2073657474696E677313
:103594002E0D0A000D0A526566657220746F207242
:1035A4006561646D652E7478742066696C65206647
:1035B4006F72206D6F72652064657461696C73202D
:1035C4006F6E204578616D706C652050726F6A650E
:1035D400637420616E640D0A4653502055736572FE
:1035E4002773204D616E75616C20666F72206D6F5C
:1035F400726520696E666F726D6174696F6E2061A9
:10360400626F757420725F7370695F62206472699F
:103614007665720D0A000D0A53656C656374206645
:10362400726F6D207468652062656C6F77204D65DC
:103634006E75206F7074696F6E730D0A000D0A50F9
:1036440072657373203320746F20457869740D0A92
:10365400000D0A456E74657220616E79206B657980
:1036640020286F74686572207468616E20312C3272
:103674002C332920746F20676F206261636B207480
:103684006F20746865206D61696E206D656E750DBF
:103694000A000D0A5072657373203120666F722020
:1036A4005772697465282920616E642052656164CB
:1036B4002829000D0A5072657373203220666F72D8
:1036C400205772697465526561642829000D0A2ABD
:1036D4002020204578616D706C652050726F6A659A
:1036E40063742056657273696F6E202573202020E1
:1036F40020202020202020202020202020202020C6
:103704002020202020202020202020202020202AAB
:10371400000D0A2A202020466C657820536F6674B9
:1037240077617265205061636B2056657273696FAF
:103734006E2025642E25642E256420202020202040
:103744002020202020202020202020202020202075
:10375400202020202020202A000D0A2A2020205268
:10376400656E6573617320465350204578616D70B2
:103774006C652050726F6A65637420666F72207284
:103784005F7370695F62204D6F64756C65202020E3
:103794002020202020202020202020202A000D0A64
:1037A4002A2A2A2A2A2A2A2A2A2A2A2A2A2A2A2A75
:1037B4002A2A2A2A2A2A2A2A2A2A2A2A2A2A2A2A65
:1037C4002A2A2A2A2A2A2A2A2A2A2A2A2A2A2A2A55
:1037D4002A2A2A2A2A2A2A2A2A2A2A2A2A2A2A2A45
:1037E4002A2A001B5B313B33366D0D0A4578697418
:1037F400696E67205350492064656D6F2E2E2E2EFE
:103804000D0A1B5B306D005465726D696E616C004E
:103814002A2A20525F5350495F425F4F70656E20E1
:1038240041504920666F722053504920536C617691
:1038340065206661696C6564202A2A0D0A000D0AF8
:10384400526573657420746865204D43552E2E2E81
:103854000D0A000D0A4D617374657220726563650B
:1038640069766564206461746120646F6573206E99
:103874006F74206D61746368207769746820536C79
:10388400617665207472616E736D69747465642009
:10389400446174612E0D0A000D0A526563656976F0
:1038A4006564206461746120646F6573206E6F7455
:1038B400206D617463682077697468207472616E26
:1038C400736D697474656420446174612E0D0A001B
:1038D4000D0A536C6176652072656365697665646B
:1038E400206461746120646F6573206E6F74206D51
:1038F400617463682077697468204D6173746572BC
:10390400207472616E736D697474656420446174AB
:10391400612E0D0A000D0A535049206D6F64756CB9
:103924006520626C6F636B656420696E20577269F1
:1039340074652F52656164206F7065726174696F7C
:103944006E2E0D0A000D0A535049206D6F64756C7C
:1039540065206661696C656420696E2057726974BC
:10396400652F52656164206F7065726174696F6E52
:103974002E0D0A000D0A4572726F7220696E206363
:103984006F6E66696775726174696F6E206F7220FD
:10399400636F6E6E656374696F6E2E0D0A000D0A97
:1039A400456E746572207465787420696E707574E0
:1039B40020666F7220536C61766520627566666559
:1039C400722E20446174612073697A652073686F74
:1039D400756C64206265206C657373207468616E15
:1039E4002036342062797465732E0D0A000D0A4561
:1039F4006E746572207465787420696E70757420B5
:103A0400666F72204D6173746572206275666665B7
:103A1400722E20446174612073697A652073686F23
:103A2400756C64206265206C657373207468616EC4
:103A34002036342062797465732E0D0A000D0A4D08
:103A44006173746572206275666665722064617460
:103A540061207472616E736D697474656420746F2F
:103A640020536C6176650D0A000D0A536C6176650E
:103A7400207472616E736D69747465642074686512
:103A84002064617461206261636B20746F204D61F6
:103A9400737465720D0A000D0A4E6F20496E7075BD
:103AA400740D0A007370695F77726974655F616E83
:103AB400645F72656164007370695F7772697465CD
:103AC4005F72656164000D0A4D6173746572205202
:103AD4005F5350495F425F526561642829206661E3
:103AE400696C6564000D0A536C61766520525F53FE
:103AF40050495F425F57726974652829206661697D
:103B04006C6564000D0A4D6173746572207265639F
:103B1400656976656420646174613A1B5B313B338B
:103B2400326D202573200D0A1B5B306D000D0A5386
:103B34006C6176652072656365697665642064618D
:103B440074613A1B5B313B33326D2025730D0A1BC4
:103B54005B306D000D0A4D6173746572207265638C
:103B6400656976656420646174613A1B5B313B333B
:103B7400326D2025730D0A1B5B306D007370695F15
:103B8400636C65616E5F7570005B4552525D2049E0
:103B94006E2046756E6374696F6E3A20257328290A
:103BA4002C202573007370695F696E6974000000CE
:103BB40000000068000000680001000D00000068BB
:103BC400000000680001000D00000080000000807B
:103BD40000010008000000800000008000010008CF
:103BE40000000070000000700001000A0000007076
:103BF400000000700001000A000000000000000046
:103C04000100000500000020000000200100000465
:103C1400800000228000002200000003AC08002283
:103C2400B81400220000000300000406362E342ECF
:103C340030004275696C7420776974682052656E2F
:103C44006573617320416476616E63656420466CBC
:103C5400657869626C6520536F667477617265205C
:103C64005061636B6167652076657273696F6E205E
:083C7400362E342E3000000052
:0200000402C92F
:04F04000FFFFFFFFD0
:0200000402C92F
:04F04400EFFFFFFFDC
:0200000402C92F
:04F0C000FFFFFFFD52
:0200000402C92F
:04F0C400FFFFFFFF4C
:0200000402C92F
:04F1200000000000EB
:0200000402C92F
:04F1240000000000E7
:0400000502000C3DAC
:00000001FF
