:020000040200F8
:100000002004002221280002F126000231280002EB
:100010003128000231280002312800023128000274
:100020000000000000000000000000003128000275
:1000300031280002000000003128000231280002AF
:10004000F111000221110002D11200025913000225
:08005000690B0002691A0002AD
:040058001040000054
:1000600000F022B8D4D4D4D4022818BF704710B5F9
:100070004EF64024C4F2010494F90000B0F1FF3FB1
:1000800005DC00F0F1FA207800F07F00207040F2EB
:10009000604045F64C51C2F20020C0F20021BDE89C
:1000A000104001F031BBD4D446F23808C0F2002829
:1000B000B8F80000B8B1D8F804000022018840F276
:1000C0006040C2F2002001F033FBB8F800000328C2
:1000D00009D3D8F804000022818840F26040C2F2BF
:1000E000002001F025FB00F0FFFA28B145F6D121F0
:1000F0000446C0F2002162E040F24C45C2F2002505
:100100002878012810D145F2CB50C0F2002000F031
:1001100007FB00F075FA00F093FA45F20E30C0F2DA
:10012000002000F0FDFA01E000F026FB00F0C4F929
:1001300000B30446B8F80000032809D3D8F8040037
:100140000122818840F26040C2F2002001F0F0FA02
:1001500045F2067045F21571C0F20020C0F2002190
:1001600000F082FB204600F0BBFB00F0D1F900F06C
:10017000C7FA00BE45F6F900C0F2002000F0D0FA40
:1001800000F00AFA28B145F232310446C0F20021EB
:100190000BE000F055FA00F0DBF9002800F0408198
:1001A00045F6E4210446C0F2002145F23570C0F264
:1001B000002000F059FB45F2C211C0F2002145F2C7
:1001C0000670C0F2002000F04FFBB8F800000328D2
:1001D00009D3D8F804000122818840F26040C2F2BD
:1001E000002001F0A5FA45F22D2045F66B11C0F272
:1001F0000020C0F2002100F037FB204600F070FB29
:1002000000F086F900F07CFA00BE45F6F04045F2B9
:10021000F416C0F2002040F2604545F6401745F65E
:100220000634C0F20026C2F20025C0F20027C0F258
:100230000024D0E900B911E045F22D2045F27831D3
:10024000C0F20020C0F2002100F00EFB504600F08A
:1002500047FB00F05DF900F053FA00BE304600F0B5
:100260005FFA4FF4FA704FF47A7102F0FDF95846D4
:10027000494601F0CDF838B145F244718246C0F2EA
:100280000021B6E000BF00BF344645F6F046002727
:10029000C0F200261AE000BF45F29530C0F20020FF
:1002A00000F03EFA00274FF4FA704FF47A7102F032
:1002B000DBF945F64830C0F2002050F82760D6E957
:1002C000000101F0A5F8002840F0848045F6583080
:1002D000C0F2002050F8270000F022FAB8F8000021
:1002E00030B1D8F8040000220188284601F020FA35
:1002F00000F0A6F900F02CF9A0BB022F01D100F00C
:10030000FFF945F680512846C0F2002101F008FAB5
:1003100070BB306801F098F8D0BB45F64C512846C8
:10032000C0F2002101F0FCF9C0BB022F01D100F0A6
:10033000DBF900F031F9B8BB00F062F900F080F9A8
:10034000B8F8000030B1D8F804000122018828462E
:1003500001F0EEF9306801F06BF8A8BB032F9BD2D7
:100360000137A0E745F6E4218246C0F2002104E00F
:1003700045F683118246C0F2002145F6A110C0F275
:10038000002000F071FA45F64E11C0F2002127E07E
:1003900045F2C4618246C0F2002121E045F6831196
:1003A0008246C0F2002104E045F232318246C0F2BA
:1003B000002145F66B20C0F2002000F055FA45F20E
:1003C0001121C0F200210BE045F695218246C0F2D2
:1003D000002105E045F244718246C0F2002100BFD1
:1003E000264645F6401745F60634C0F20027C0F20F
:1003F0000024384600F038FA45F67E212046C0F247
:10040000002100F031FAB8F800000328FFF414AF1F
:10041000D8F8040001228188284601F089F90BE709
:10042000287808B92FF005C000F0B6F800287FF44E
:10043000AAAE00F005F9B8F8000000283FF4E5AED8
:10044000D8F804000122018840F26040C2F2002086
:1004500001F06EF9D9E6D4D470B140F24C40C2F24A
:1004600000200178002918BF704740F24D42012159
:10047000C2F20022017011707047D4D4D4D4D4D405
:10048000B0B145F66C314068C0F20021097888426D
:100490000ED140F24C40C2F200200178002918BF72
:1004A000704740F24E420121C2F2002201701170E9
:1004B0007047D4D4D4D4D4D410B540F2504045F6CB
:1004C0006C31C2F20020C0F2002101F029FA28B1FB
:1004D00045F648210446C0F200210FE040F2684092
:1004E00045F68831C2F20020C0F2002100F040FA47
:1004F00060B145F23A210446C0F2002145F26C2079
:10050000C0F2002000F0B0F9204610BD002010BD60
:1005100040F26840C2F20020006840B180B540F26D
:100520006840C2F2002000F0EBFABDE8804040F2E3
:100530005040C2F200200068002808BF704740F217
:100540005040C2F2002001F06BBAD4D4D4D4D4D439
:1005500010B540F25040C2F2002001F029FA28B153
:1005600045F61A310446C0F200210BE040F2684023
:10057000C2F2002000F094FA60B145F2DA110446AC
:10058000C0F2002145F25320C0F2002000F06CF9C7
:10059000204610BD002010BD10B540F25040C2F200
:1005A000002001F029FA28B145F283210446C0F267
:1005B000002118E040F26840C2F2002000F080FA0A
:1005C00028B145F2ED610446C0F200210BE040F293
:1005D0006840C2F2002000F083FA60B145F6F511E0
:1005E0000446C0F2002145F2C230C0F2002000F003
:1005F0003BF9204610BD002010BDD4D4D4D4D4D4AF
:1006000040F24D40C2F20020007828B145F2DC30C3
:10061000C0F2002000F084B840F24E4045F2DF21E5
:10062000C2F2002045F2A922C0F20021C0F200224D
:100630000078002851EA128000F072B8D4D4D4D4E3
:1006400040F24E400021C2F2002040F24C42C2F281
:100650000022017040F24D40C2F200200170117082
:100660007047D4D4D4D4D4D410B54EF6182045F65F
:100670006C33C4F20100C0F2002301240179027836
:100680001B7842EA0121D940C90702D0002001218C
:1006900003E0007B0021C0F3800040F24D4240F2B5
:1006A0004E43C2F20022C2F20023107000201970E3
:1006B00000F05AFF40F24C40C2F20020047010BD1E
:1006C00070B145F6BC310268C0F2002109788A4257
:1006D00018BF704740F24F410079C2F20021087004
:1006E0007047D4D4D4D4D4D440F2844045F6BC313D
:1006F000C2F20020C0F2002100F07EBAD4D4D4D4DB
:1007000040F28440C2F200204068002808BF7047D1
:1007100040F28440C2F2002000F08ABCD4D4D4D489
:1007200070B5054604F01FFD40F24F460446C2F284
:100730000026002029462246307040F28440C2F252
:10074000002000F04DFC002818BF70BD3078022852
:100750000CD0013400BF00BF013C09D001204FF490
:100760007A7101F081FF30780228F5D1002070BD48
:10077000142070BDD4D4D4D4F0B5ADF5057D05A852
:100780004FF4007104F028FC04A80027049701F03E
:1007900063FF002845D19DF811009DF812609DF877
:1007A000131045F25C7245F2743305AD0091C0F24E
:1007B0000022C0F200234FF40071CDE90160284609
:1007C00002F029FB284604F0CEFC40F24F460446D6
:1007D000C2F2002640F28440C2F20020294622469E
:1007E000377000F0FDFBE0B9307802280AD0013400
:1007F000013C32D001204FF47A7101F035FF30789E
:100800000228F5D10020307040F2844045F20041CA
:10081000C2F20020C0F200214FF4E57200F0E0FBCC
:1008200010B10DF5057DF0BD3078022803D1002010
:100830000DF5057DF0BD6FF4E57400BF00BF00BF8E
:1008400001340AD201204FF47A7101F00DFF3078A3
:1008500002284FF00000F3D1E3E714200DF5057DE9
:10086000F0BDD4D4D4D4D4D470B5A2B002AC0D466B
:1008700006468021204604F0AFFB45F6B5128021E4
:10088000C0F2002220463346009502F0C4FA20460A
:1008900004F069FC40F24F460546C2F200260020F3
:1008A00021462A46307040F28440C2F2002000F017
:1008B00097FB08B122B070BD307802280AD06C1CBA
:1008C000013C0AD001204FF47A7101F0CDFE30785E
:1008D0000228F5D1002022B070BD142022B070BDD6
:1008E000F0B589B045F60F2201AD0346C0F20022F3
:1008F000202128460027CDE90777CDE90577CDE906
:100900000377CDE9017702F086FA284604F02BFC44
:1009100040F24F460446C2F2002640F28440C2F242
:10092000002029462246377000F05AFB08B109B072
:10093000F0BD307802280DD0013400BF00BF00BFE9
:10094000013C0AD001204FF47A7101F08DFE30781D
:100950000228F5D1002009B0F0BD142009B0F0BD87
:1009600080B5FFF77DFB002080BDD4D4D4D4D4D48F
:1009700070B50D46097C00220446C4F2220242EA08
:100980000120C4E901500120EFF3108680F31088A4
:10099000297CC1F10901884043F21001C4F2200111
:1009A0000A6822EA0000086008689620012101F028
:1009B0005BFE86F310880021A0680173A06800BF69
:1009C000017B8907FCD44FF0000C80F80EC0EA6967
:1009D00095F800E01078022802D10220002304E0FC
:1009E0002B7A00F0200003F00703A6689178D278F4
:1009F000BEF1010F70735FEA1F96A06802F0C0029B
:100A0000837301F03000A16830441044C873A068BB
:100A100080F810C0A06880F811C0A06880F812C0EB
:100A2000A0686968E1600139016095F91200002849
:100A300028D44EF20012697CCEF2000201268318FF
:100A4000090183F8001340F23451C2F2002141F849
:100A500020404CF20031C4F2000151F8203023F460
:100A6000803341F8203051F82010410900F01F0078
:100A7000BFF35F8F02EB810306FA00F0C3F8800139
:100A800042F82100D5E905010022C4E9040245F23B
:100A900054020020C5F24C52A161226070BDD4D432
:100AA0008168087B00BF00BF0A7B80EA5202D20740
:100AB000FAD10020E1220A737047D4D4D4D4D4D41C
:100AC0008168087B00BF00BF0A7B80EA5202D20720
:100AD000FAD10020E0220A737047D4D4D4D4D4D4FD
:100AE00081680A7B00BF00BF0B7B82EA5303DB07F0
:100AF000FAD1C2680020013A0A607047D4D4D4D435
:100B000080B501468068027B037B82EA5303DB07E2
:100B1000FAD1E4220273886800220274486890F9CE
:100B2000120010F121031BD0002812D44EF2801EB7
:100B300000F01F034009CEF2000E4FF0010C0CFA3A
:100B400003F34EF82030BFF34F8FBFF36F8F486829
:100B5000807C40F2345340B2C2F2002343F82010AC
:100B600000200A6080BDD4D4B0B584B04FF070418D
:100B7000EFF3038001EB00604CF200318015C4F20A
:100B80000001425822F48032425040F2345241581F
:100B9000C2F200221458A068037B21695AB209B33B
:100BA000606970B1D0E900CE85680395CDE901CECA
:100BB0009D0609D45B0609D4B2F1FF3F08DC02228E
:100BC00005E001A89D06F5D5002200E00122027192
:100BD000A26902608847606910B101AB0ECB0EC0FC
:100BE000A068027BC17B01F0010181F01F0111406F
:100BF000017304B0B0BDD4D42DE9F0470446807829
:100C00000D46097820F003002562D5E90523471C2D
:100C1000D5F81C80A77048F200072363C4F235079B
:100C200007EB01216F78C4E9091200212170E1620C
:100C300017B940F00200A07095F90B204EF2001990
:100C4000CEF200090126500902F01F034CF2003ACF
:100C5000A97A09EB800006FA03F3C4F2000A4EF603
:100C6000185CC0F88030CEF2000CBFF34F8FBFF39A
:100C70006F8F5AF82230002A23F480334AF822304A
:100C80004FEA01115AF8223004D409EB020383F829
:100C9000001304E002F00F03634403F8041C95F909
:100CA000053040F2345EC2F2002E01215E0903F0ED
:100CB0001F004EF8224001FA00F009EB8606297960
:100CC000002BC6F880004FEA0112BFF34F8FBFF32D
:100CD0006F8F5AF8230020F480304AF823005AF826
:100CE000230004D409EB030080F8002304E003F0A0
:100CF0000F00604400F8042C95F9072001264EF8F7
:100D00002340AB79500902F01F0106FA01F1002AD5
:100D100009EB80004FEA0313C0F88010BFF34F8F38
:100D2000BFF36F8F5AF8220020F480304AF8220077
:100D30005AF8220004D409EB020080F8003304E0E2
:100D400002F00F00604400F8043C95F909304EF8B9
:100D500022402A7A580903F01F0106FA01F1002BFC
:100D600009EB80004FEA0212C0F88010BFF34F8FEA
:100D7000BFF36F8F5AF8230020F480304AF8230025
:100D80005AF8230004D409EB030080F8002304E0A0
:100D900003F00F00604400F8042C4EF823400120BB
:100DA000EFF3108680F3108828784FF0004121FA85
:100DB00000F043F20401C4F220010A6822EA0000B4
:100DC000086008689620012101F04EFC86F3108827
:100DD0004FF48061606A4FF480428160E869E9788D
:100DE0006E78437802EA8131077866F30921DA03E5
:100DF000437B92B207F0030703F00103114441EA79
:100E00004352636A42EA0762416802F580525A61BE
:100E1000027802F0FE03022B07D14FF60471022A7A
:100E2000CFF6007108BF203100E00968626A1161E5
:100E30000C22017BAB78877862F39F014FF44072FC
:100E4000022B08BF4FF48072002B07F00103676A82
:100E500018BF114341EA0371F960626A0021916190
:100E60002A78092A04D8626A0023C1F61F735362E4
:100E7000B0F80F20807B636A40EA022041F60172DD
:100E8000C0F21F0210401863206AC4E90411A16077
:100E9000C4E90611C569687C50B34EF25400C4F22F
:100EA0000100017801F00F01022901D801220BE0B5
:100EB000CA1E052A06D245F69851C0F2002151F803
:100EC000226003E00839102202FA01F6407800F0AF
:100ED0000F0001F071FB40F25852697CC2F200220F
:100EE000B0FBF6F012685143B1FBF0F00130A060A6
:100EF000606AB8F80A101022A181C9F6075282660A
:100F0000206A90F905104A0901F01F035AF82100E0
:100F100020F480304AF821005AF8210009F5C07009
:100F20000121BFF35F8F01FA03F340F8223049F843
:100F30002230226A92F90B205AF8223023F48033AF
:100F40004AF822305AF82230530902F01F02BFF348
:100F50005F8F01FA02F240F8232049F82320226A29
:100F600092F907205AF8223023F480334AF82230CD
:100F70005AF82230530902F01F02BFF35F8F01FAC3
:100F800002F240F8232049F82320226A92F909202E
:100F90005AF8223023F480334AF822305AF82230AB
:100FA000530902F01F02BFF35F8F914040F82310F6
:100FB00049F8231040F21141606AC0F201018160DA
:100FC000606A00BF00BF00BF017FC907FCD044F6C4
:100FD00042110020C5F243316160BDE8F087D4D4EE
:100FE000D0F824C0DCF8083023F44013CCF80830E3
:100FF000D0F824C000BF00BFDCF848305B00FBD550
:10100000DCF8083023F01003CCF80830D0F824C006
:101010009CF81C30DB06FBD4C0E904120020DCF88D
:10102000081041F01011CCF808107047D4D4D4D473
:1010300044F642124168C5F2433291426DD1B0B5D7
:10104000416A8A6822F440128A60416A8A6822F002
:1010500010028A60416A00BF0A7FD206FCD4016A8E
:101060004EF2801CCEF2000C054691F907104A0999
:1010700001F01F03012101FA03F34CF82230BFF302
:101080004F8FBFF36F8F026A92F90920530902F064
:101090001F0201FA02F24CF82320BFF34F8FBFF377
:1010A0006F8F426A936823F480339360026A92F9E7
:1010B0000520530902F01F0201FA02F24CF8232026
:1010C000BFF34F8FBFF36F8F026A92F90B20530962
:1010D00002F01F0201FA02F24CF8232043F204024C
:1010E000BFF34F8FBFF36F8FEFF3108481F310883E
:1010F000016AC4F220024FF0004C96200978136870
:101100002CFA01F1194311601168012101F0ACFAC8
:1011100084F3108800206860B0BD07207047D4D4E5
:10112000B0B584B04FF07041EFF3038001EB006085
:101130004CF200318015C4F20001425822F4803292
:10114000425040F234524158C2F200221458206AF0
:1011500000690028606902D0E0B104B0B0BDC8B138
:10116000A07800F003000228206905D10088616A98
:1011700020F4DC40486002E0616A00780871A078E1
:10118000226900F003016069401A60611144216125
:101190000028E2D1616A02228D68A06862F31555C9
:1011A00010B101F0A1FA616A8D600020A16A20618E
:1011B0000029D2D0E06A40B1D0E900C3D0E90252A0
:1011C000CDE90252CDE900C300E06846226A236BF4
:1011D00012780260802202710022C0E9022388474F
:1011E000E06A00281CBF9DE82E002EC004B0B0BDF0
:1011F000B0B586B04FF07041EFF3038001EB0060B3
:101200004CF200318015C4F20001425822F48032C1
:10121000425040F234524158C2F200221458A07891
:1012200000F00302606A022A03D101686FF35F21B4
:1012300000E00178E0690191D0B1A06901A903F053
:10124000CFFEA078D4E9061200F003000144101A82
:10125000C4E9061037D1A16AA9B3E06A00B3D0E9A6
:1012600000C3D0E90252CDE90452CDE902C318E02F
:10127000A26A42B3E06A40B1D0E900CED0E90235BB
:10128000CDE90435CDE902CE00E002A8236A256B42
:101290001B78C0E9021503600423037190470AE03C
:1012A00002A8226A236B12780260012202710022D6
:1012B000C0E902238847E06A28B102AD2ECD016063
:1012C00042608360C56006B0B0BDD4D4D4D4D4D459
:1012D000B0B584B04FF07041EFF3038001EB0060D4
:1012E00040F234528115C2F200224FF6EF73041619
:1012F0005558CFF6CF73696A8A681A408A60A96A1E
:10130000D9B1E86A40B1D0E900CED0E90223CDE9F5
:101310000223CDE900CE00E068462A6A2B6B1278E2
:101320000260022202710022C0E902238847E86AB3
:1013300000281CBF9DE82E002EC04CF20030C4F2E5
:10134000000050F8241021F4803140F8241050F8A7
:10135000240004B0B0BDD4D4F0B585B04FF07041D6
:10136000EFF3038001EB006040F234528115C2F2CA
:1013700000225458A178636A01F00301022904D1C4
:10138000D3F800C06FF35F2C01E093F800C09A6CB3
:101390002025082105EAD2454FF0100E01EA12611E
:1013A0001EEA126229440A4403D0996C090458BF0A
:1013B0004032996E051641F0C8519966A36AC3B1CF
:1013C000E06A40B1D0E900E1D0E90267CDE9036706
:1013D000CDE901E100E001A8216A0271097801600C
:1013E000216BC0E902C19847E06A10B101AF8ECF0E
:1013F0008EC04CF20030C4F2000050F8251021F4E9
:10140000803140F8251050F8250005B0F0BDD4D447
:1014100010B504464160084600F0BAF8002818BF2D
:1014200010BD45F24D01C5F24C21216010BDD4D450
:101430000146002000220A607047D4D4D4D4D4D40A
:101440004160084600F0A4B82DE9F04704460120A9
:1014500001F0BEF960680178042903D0022905D1A2
:10146000052004E0C07C40F0080000E000204EF6BB
:1014700090254EF2400AC4F20105C4F2010A287018
:101480002878052833D39AF860002E78002700F0DA
:101490000308002001F09CF9082E1DD315F8580C04
:1014A00000F0FE0005F8580C15F8780C05F8787C6B
:1014B00015F8740C05F8747C15F8700C05F8707C40
:1014C00015F86C0C05F86C7C95F8B80085F8B870C8
:1014D00095F8BC0085F8BC709AF800009AF80010E6
:1014E0004FEAD01901F07F008AF8000003E04FF0C6
:1014F00000094FF0000860684EF61057CEF2000762
:10150000007818B1386840F004003860002001F01D
:101510005FF900F045FBBFF34F8F30BF00F0C4FB15
:10152000002001F029F96068007818B1396821F0CD
:1015300004013960297805290CD38AF860809AF86B
:10154000000040EA09008AF80000002001F014F9C8
:1015500060680078022801D300202870012001F083
:101560000BF90020BDE8F08780B5012001F030F9CB
:101570004EF60020C4F20100017801F0BF010170B5
:10158000012001F0F9F8002080BDD4D4D4D4D4D403
:10159000F0B581B04EF604360446C4F201064EF2B0
:1015A0000C07C4F20107307894F82E10C0F3400005
:1015B00088420DD1307994F82F10C0F34000884252
:1015C00006D1307A94F83010C0F34000884205D03C
:1015D00097F89400800701D005258FE0012001F0E5
:1015E000F7F820780025E0B304284FF000012ED151
:1015F000207E617E06F8FC0C06F8F81CA07E4023D5
:1016000006F8F40CE07E06F8F00C207F86F83C002B
:10161000607F86F8400094F8200094F8211006F8C6
:10162000DC0C06F8D81C94F8220006F8D40C94F8C8
:10163000230006F8D00C94F8240086F84C00A17C16
:1016400094F82820207803EA811141EA82010138C8
:10165000020608D0627CC0B201284FEA821003D98A
:1016600039E001463FE0002094F82C2087F836212D
:101670002278022A2FD1628DA7F83421337894F88A
:101680002E20C3F34003934207D0337802F00102C7
:1016900003F0FD0343EA42023270337994F82F20BD
:1016A000C3F34003934207D0337902F0010203F001
:1016B000FD0343EA42023271337A94F83020C3F3D7
:1016C0004003934207D0337A02F0010203F0FD0396
:1016D00043EA420232724CF2A012A368C4F2000242
:1016E0001360E368536038704FF6FC60CFF6FF700C
:1016F00006F8745C3154012001F03EF8284601B030
:10170000F0BDD4D4D4D4D4D480B545F25422C5F29B
:101710004F020260084600F027F8002080BDD4D4B4
:1017200080B5084600F020F8002080BDD4D4D4D481
:1017300010B5CBB2012098406FF0010E84B20EEAD2
:10174000D110002A40F208024FF4803C4FEA001109
:10175000C4F240024FF0000008BF0CFA03F45450EA
:1017600010BDD4D4D4D4D4D470B5044600F064F8F9
:1017700040F2305CEFF31081C2F2002C012080F3C4
:101780001088DCF8000038B940F614500022C4F28A
:101790004000027040220270DCF800000130CCF8FA
:1017A000000081F31088208830B340F6000E00213D
:1017B000C4F2400E08E000BF0EEB8010013140F88B
:1017C00022302088814217D2606800EBC10250F8B5
:1017D00031309288D8034FEA1220D2B2ECD50EEB0A
:1017E000801555F8226026F4803645F8226023F4EF
:1017F000803645F82260DFE70120EFF3108180F3A7
:101800001088DCF8000020B1DCF800000138CCF8CA
:101810000000DCF8000010B181F3108870BD40F6C4
:1018200014500022C4F2400002708022027081F342
:10183000108870BDD4D4D4D42DE9F04F81B00446C3
:101840000088002867D04EF64C4B0025C4F2010BEF
:101850004FF0010A04E000BF2088013585425AD2CA
:1018600045F6C05642F240080027C0F20026C4F2F6
:1018700020080CE000BF00BF88F80000C82001214C
:1018800000F0F2FE013708F10208032FE4D060688F
:1018900036F8021B00EBC50082888A42F2D100684C
:1018A0009BF8001000F0B8500AFA07F9B0F1807FF9
:1018B00009EA010018D158B9012000F089FF9BF80E
:1018C000000040EA09008BF80000012000F054FFFE
:1018D00098F900000028D5D498F8000040F0800066
:1018E000CAE700BF00BF00BF58B1012000F070FF81
:1018F0009BF8000020EA09008BF80000012000F0AE
:101900003BFF98F90000B0F1FF3FBBDC98F8000006
:1019100000F07F00B0E701B0BDE8F08FD4D4D4D49C
:10192000F0B591F902304CF2003CC4F2000C0371A6
:101930004FF0000E3C255CF823704CF823E00B7848
:101940008C688460CE6805EA9304C3251C44C0F209
:10195000400565F31F2449F60055CFF6FF75C660B4
:101960004371024604F805E00B794E79C878F60118
:1019700046EA03131843605592F904004CF82070AE
:1019800092F9040000280CD44EF2004340F2345780
:101990004978CEF20003C2F200270901C15447F88A
:1019A000202044F255310020C0F249011160F0BD01
:1019B00090F904004CF20031C4F200014EF2001C18
:1019C000CEF2000C51F8202022F4803241F8202081
:1019D00051F82010410900F01F0001220CEB810397
:1019E00002FA00F0BFF35F8FC3F880014CF82100CA
:1019F00000207047D4D4D4D490F904004EF2801360
:101A0000CEF20003012200F01F01400902FA01F1A9
:101A100043F820100020BFF34F8FBFF36F8F704744
:101A2000014690F90400002818D44EF2801C00F002
:101A30001F024009CEF2000C012303FA02F24CF817
:101A40002020BFF34F8FBFF36F8F91F9040040F256
:101A50003452C2F20022002342F82030002000223B
:101A60000A607047D4D4D4D470B582B04FF07041BE
:101A7000EFF3038001EB006140F234528815C2F2AB
:101A800000223C234CF200341058C4F200040D161E
:101A9000427903EA92031A44C323C0F2400363F37A
:101AA0001F2249F60053CFF6FF73D25C02F0030603
:101AB000032E07D054F8251021F4803144F8251066
:101AC00054F82510816829B14279C06800906846B1
:101AD00001928847032E07D154F8250020F4803066
:101AE00044F8250054F8250002B070BDD4D4D4D4F5
:101AF0004EF22401C4F201018878098801F00F0236
:101B0000A2F1080103293BD8DFE801F0022C101EE6
:101B100040F22041C2F2002151F820004AF6AB21E8
:101B2000CAF6AA21A0FB0101480830E040F220419A
:101B3000C2F2002151F820004AF6AB21CAF6AA21D0
:101B4000A0FB0101C80822E040F22041C2F20021BE
:101B500051F820004AF6AB21CAF6AA21A0FB0101E8
:101B6000080914E040F22041C2F2002151F820009F
:101B70004AF6AB21CAF6AA21A0FB0101880806E0BB
:101B800040F22041C2F2002151F82000D04040F242
:101B90005851C2F2002108607047D4D4D4D4D4D4B0
:101BA00010B59620012100F05FFD40F2585C46F22E
:101BB0000151C2F2002CC1F6CD51DCF800408C423C
:101BC00067D34EF2240240F2D843C4F20102C2F2BB
:101BD00000231188198052F8041CC1F30363090E15
:101BE00043EA0310000140EA013018441080917864
:101BF000108800F00F03A3F10802032A3BD8DFE8A6
:101C000002F0022C101E40F22040C2F2002050F8D8
:101C100021004AF6AB21CAF6AA21A0FB010149081E
:101C200031E040F22040C2F2002050F821004AF694
:101C3000AB21CAF6AA21A0FB0101C90823E040F2AA
:101C40002040C2F2002050F821004AF6AB21CAF62B
:101C5000AA21A0FB0101090915E040F22040C2F2CF
:101C6000002050F821004AF6AB21CAF6AA21A0FBB9
:101C70000101890807E040F22040C2F2002050F83C
:101C8000210020FA03F1CCF800109620012100F089
:101C9000EBFC46F20050C1F6CD5084425FEA9F90C3
:101CA00010BDD4D4D4D4D4D410B504469620012188
:101CB00000F0DAFC002C08BF10BD40F2D8404EF214
:101CC0002401C2F20020C4F2010100880880887853
:101CD000098801F00F02A2F1080103293BD8DFE8CF
:101CE00001F0022C101E40F22041C2F2002151F8F6
:101CF00020004AF6AB21CAF6AA21A0FB01014A083E
:101D000031E040F22041C2F2002151F820004AF6B1
:101D1000AB21CAF6AA21A0FB0101CA0823E040F2C8
:101D20002041C2F2002151F820004AF6AB21CAF648
:101D3000AA21A0FB01010A0915E040F22041C2F2EC
:101D4000002151F820004AF6AB21CAF6AA21A0FBD7
:101D500001018A0807E040F22041C2F2002151F857
:101D6000200020FA02F240F258539620C2F20023DB
:101D700001211A60BDE8104000F076BCD4D4D4D460
:101D80002DE9F04782B00FF298604EF2FA3840F237
:101D90002046C4F201084AF2015190ED001FC2F240
:101DA00000260FF28C60CFF6FF714EF2550502311E
:101DB000A8F8001086ED001F06F12003C4F201050B
:101DC00090ED001F48F2004040F60001C1F2D770CC
:101DD00043F6000286ED041FC2F6AF71C1F69C42C5
:101DE00007C315F82F0C35F8311C01F00F02A2F1D2
:101DF000080103292BD8DFE801F002200C164AF66F
:101E0000AB2156F82000CAF6AA21A0FB0101480820
:101E100020E04AF6AB2156F82000CAF6AA21A0FB22
:101E20000101C80816E04AF6AB2156F82000CAF6B0
:101E3000AA21A0FB010108090CE04AF6AB2156F8E3
:101E40002000CAF6AA21A0FB0101880802E056F88A
:101E50002000D04040F2585A4EF60044C2F2002A08
:101E6000C4F201040A214EF60147CAF800004FF6F9
:101E70005060CFF6FF70C4F201072154092085F8A5
:101E80004D00207818B93878800700F0C08220789B
:101E900048B901202070C820012100F0E5FB00BFF7
:101EA00020780128FCD10020387020704AF20159B6
:101EB000002005F81F0C05F8230C00BF00BF00BF71
:101EC00015F8190C0007FBD542F602314EF61450F6
:101ED000C0F20101C5F8731040F2234125F8071C38
:101EE000002205F80B2C4FF60211C5F8571040F2EE
:101EF000514125F8091CCEF200004EF20001BFF35B
:101F00004F8FBFF36F8F0368CEF2010123F40033CC
:101F10000360C0F83C22BFF34F8FBFF36F8F0A6896
:101F200022F440520A60BFF34F8FBFF36F8F15F852
:101F3000412C02F0F802013205F8412C00BF00BF2D
:101F400015F8412CD206FBD40A6842F440520A60CC
:101F5000BFF34F8FBFF36F8F0168890312D4BFF3B4
:101F60004F8FBFF36F8F0021C0F83C12BFF34F8F2C
:101F7000BFF36F8F016841F400310160BFF34F8FF1
:101F8000BFF36F8F002005F82B0C00BF00BF00BF10
:101F900015F8190C8006FBD54CF200040020C4F2A1
:101FA000130420702078207820786068FA2807D001
:101FB000FA20C1F6006000BF60606168FA29FBD1B9
:101FC000A0687D2808D07D20CEF2001000BF00BFA1
:101FD000A060A1687D29FBD143F23240C3F22320E7
:101FE00045F8350C42F2201025F8310C052005F893
:101FF0002F0C15F82F0C35F8311C01F00F02A2F14F
:10200000080103292BD8DFE801F002200C164AF65C
:10201000AB2156F82000CAF6AA21A0FB010148080E
:1020200020E04AF6AB2156F82000CAF6AA21A0FB10
:102030000101C80816E04AF6AB2156F82000CAF69E
:10204000AA21A0FB010108090CE04AF6AB2156F8D1
:102050002000CAF6AA21A0FB0101880802E056F878
:102060002000D040CAF8000096200121012700F08E
:10207000FBFA60686FF39F20652828BF277015F86A
:102080002F0C35F8311C01F00F02A2F108010329D1
:102090002BD8DFE801F002200C164AF6AB2156F8E7
:1020A0002000CAF6AA21A0FB0101480820E04AF658
:1020B000AB2156F82000CAF6AA21A0FB0101C808EE
:1020C00016E04AF6AB2156F82000CAF6AA21A0FB7A
:1020D000010108090CE04AF6AB2156F82000CAF6C7
:1020E000AA21A0FB0101880802E056F82000D04098
:1020F00042F20001CAF80000C4F200010120A1F878
:102100000090BFF35F8F08724FF42540BFF35F8FDD
:10211000088095F8850040F0400085F8850000BFF4
:1021200095F98500B0F1FF3FFADC032085F87F00C8
:10213000C92085F8850095F8850000F0BF0085F876
:10214000850000BF00BF00BF95F985000028FBD4C3
:10215000012005F8250C05F8030C05F8020C0020F9
:1021600005F8170C802005F8170CE87F40F04000B8
:10217000E87700BF00BF00BF95F91F00B0F1FF3F37
:10218000FADC0720E8754A20E8770A20E87700BFE4
:1021900095F91F000028FBD40720ADF806000DF1CB
:1021A000060000F04DF995F8210040F0400085F858
:1021B000210000BF00BF00BF95F92100B0F1FF3F33
:1021C000FADC03206876CA2085F8210095F8210002
:1021D00000F0BF0085F8210095F921000028FBD40C
:1021E000287840F04000287095F90000B0F1FF3FDA
:1021F000FADC022005F8010CCA202870287800F0CB
:10220000BF00287000BF00BF95F900000028FBD474
:10221000A87840F04000A87095F90200B0F1FF3FA7
:10222000FADC00206870C720A870A87800F0BF0012
:10223000A87000BF00BF00BF95F902000028FBD4C2
:10224000287A40F04000287295F90800B0F1FF3F6D
:10225000FADC0120E871C6202872287A00F0BF005D
:10226000287200BF00BF00BF95F908000028FBD40A
:1022700095F8230040F0400085F8230000BF00BF20
:1022800095F92300B0F1FF3FFADC0220E876C9207F
:1022900085F8230095F8230000F0BF0085F823009F
:1022A00095F923000028FBD4A87A40F04000A872DA
:1022B00095F90A00B0F1FF3FFADC01206872CA20EC
:1022C000A872A87A00F0BF00A87200BF00BF00BFCC
:1022D00095F90A000028FBD495F8220040F0400050
:1022E00085F8220000BF00BF95F92200B0F1FF3F42
:1022F000FADC0420A876CA2085F8220095F822008E
:1023000000F0BF0085F8220095F922000028FBD4D8
:10231000A87940F04000A87195F90600B0F1FF3FA0
:10232000FADC02206871CA20A871A87900F0BF0009
:10233000A87100BF00BF00BF95F906000028FBD4BC
:1023400095F8860040F0400085F8860000BF00BF89
:1023500095F98600B0F1FF3FFADC022085F8800095
:10236000C52085F8860095F8860000F0BF0085F846
:10237000860000BF00BF00BF95F986000028FBD48F
:1023800095F8870040F0400085F8870000BF00BF47
:1023900095F98700B0F1FF3FFADC012085F8810054
:1023A000C52085F8870095F8870000F0BF0085F804
:1023B000870000BF00BF00BF95F987000028FBD44D
:1023C00095F8890040F0400085F8890000BF00BF03
:1023D00095F98900B0F1FF3FFADC092085F8830008
:1023E000C92085F8890095F8890000F0BF0085F8BC
:1023F000890000BF00BF00BF95F989000028FBD409
:102400004FF42540A8F8000002B0BDE8F0874FF473
:102410007A7000F0CDF849E500BF00BF00BF00BFF3
:10242000006CDC0200127A000080000000366E01B1
:102430000080000000CA9A3B0046C3235543DE13C8
:102440002DE9F04F81B04EF2FA3143F20406C4F2A6
:1024500001018246C4F220064AF20350B1F800900E
:1024600008804FF0010B00254FF480340127002035
:1024700008E000BF00BF00BFF8074FF001004FF0B9
:10248000000716D004FA00F132680A42F4D1EFF3E3
:1024900010888BF3108832680BFA00F0114331601A
:1024A000316805439620012100F0DEF888F310889A
:1024B000E2E74EF2750740F22041C4F20107C2F292
:1024C0000021387800F00F0051F8200017F8081CA0
:1024D00001F00F01022901D801220BE0CA1E052AD2
:1024E00006D246F21401C0F2002151F8221003E096
:1024F0000839102202FA01F1B0FBF1F04DF68361C8
:10250000C4F21B31A0FB01016FF0010000EA514051
:10251000012100F0A9F8387840F04000387000BF81
:1025200097F90000B0F1FF3FFADC9AF8010007F8D4
:10253000080C9AF8000040F0400038709AF800004B
:10254000387000BF00BF00BF97F900000028FBD41F
:1025500000204FF0010A4FF48038012406E000BF4C
:10256000E0074FF001004FF0000415D025FA00F10C
:10257000C907F5D0EFF310878AF3108808FA00F046
:10258000316821EA0000306030689620012100F0B7
:102590006BF887F31088E3E74EF2FA3149F42540EF
:1025A000C4F20101088001B0BDE8F08FD4D4D4D4C6
:1025B0007047D4D4D4D4D4D440F22041C2F2002104
:1025C00051F820007047D4D4B0B542F22404C8209A
:1025D000C4F2200401210025257100F045F8257082
:1025E000207808B12FF005C0207840F0020020705C
:1025F00020788007FCD4002004F8020C00BF00BF44
:1026000014F8020C08B12FF005C84FF0030E00209B
:1026100004F11C0100BF00BF11F8102002F07F027E
:1026200001F8102000BF00BF11F91020002AFBD4D0
:1026300001300FF00FC8012000F0CAF84EF64C41EF
:102640000120C4F2010100220A70BDE8B04000F090
:1026500093B8D4D4D4D4D4D4014600220020C0F2FC
:1026600004620A607047D4D440F2585241F2002309
:10267000C2F20022C0F27A03484312689A420FD392
:1026800044F23F21C0F20F0111444DF68362C4F2BF
:102690001B32A1FB0212910CA0FB0101C9B11DE08C
:1026A0004CF60021C3F69A31B1FBF2F148F638122C
:1026B000C0F24102904205D24FF47A725043B0FB0F
:1026C000F1F006E0B0FBF1F0904207D24FF47A71DE
:1026D0004843002808BF704700F006B84FF0FF30AD
:1026E00000F002B8D4D4D4D401380028FCD170470B
:1026F000F0B581B04CF2201540F2DC47C4F2000581
:102700000024C2F2002755F8200C296801EA0006CF
:1027100006E000BF00BF00BF01340437152C09D00C
:1027200026FA04F0C007F7D039680029F4D0204613
:102730008847F1E745F8106C28683042FCD101B0B9
:10274000F0BDD4D4D4D4D4D480B54FF0060E4CF21E
:10275000003045F68C51C4F20000C0F2002100BFE9
:1027600031F8022B002A18BF026004300FF009C0B4
:1027700080BDD4D4D4D4D4D4EFF31081012282F319
:10278000108840F24C52C2F2002232F8103023B1CD
:1027900032F81030013B22F8103032F8102012B11C
:1027A00081F3108870474EF2FA3246F2280CC4F2D8
:1027B0000102C0F2002C13883CF8100043F42543BA
:1027C00023EA0000108081F310887047D4D4D4D459
:1027D00010B5EFF31081012282F3108840F24C52C1
:1027E000C2F2002232F8103083B94EF2FA3E46F2BD
:1027F000280CC4F2010EC0F2002CBEF800403CF8D8
:102800001030234343F42543AEF8003032F8103043
:10281000013322F8103081F3108810BDD4D4D4D401
:1028200000F00AF8FEF79CF8FEE7D4D4D4D4D4D450
:1028300000BE7047D4D4D4D42DE9F04381B04EF615
:10284000085840F20120CEF20008C0F20E004EF20D
:102850000004C8F80C00CEF20104BFF34F8FBFF3A1
:102860006F8F58F8081CC1F3035001285FEA1F92CC
:1028700011F00F0F5FEA0F911142216811D1022868
:102880000FD241F0040020604EF20800BFF34F8FDA
:10289000CEF20000BFF36F8F016841F48031016018
:1028A00002E021F004002060BFF34F8FBFF36F8F71
:1028B0004FF4700040F20001C8F880000020C0F220
:1028C0000021C8F800100025FDF7CEFBFFF758FAED
:1028D0004EF2FA304EF6B022C4F20100C4F2010208
:1028E0004AF20251018015704FF425410180012008
:1028F000FDF7BAFB40F22000C2F2002080F30A8804
:102900002068800724D5D8F80000B0F1007F1FD1DF
:1029100020694FF40071C0F3C300626901FA00F34B
:10292000C2F3C30081400020DA08CB080146074605
:1029300042F007C000BF00BFE7E802010FF005C08A
:102940004FF0005243F005C0E2E802010FF005C06D
:1029500045F6E854C0F20024276897B160683E4607
:10296000051D05E000BF00BF013E05F10C0508D0C4
:1029700068790028F8D155E90101091A02F02CFB09
:10298000F2E7D4F80890B9F1000F13D0E0684E4692
:1029900000F1080504E000BF013E05F1100509D073
:1029A00068790028F8D155E902022968121A02F064
:1029B00017FBF1E7FFF79CF8FFF706FE0320FFF790
:1029C00007FF4FF00E0E40F63050C4F240000021D9
:1029D00020F8041B0FF005C04EF210150320C4F2BE
:1029E0000105FFF7C9FE0320FFF7F2FE44F20400E1
:1029F0000021C4F22000016041608160C1600320B9
:102A0000FFF7BAFED5F8C802800714D42878A0B121
:102A10000120FFF7DDFE00BF95F9000010F1410F26
:102A2000FADC0020287000BF28783F28FCD801205D
:102A3000FFF7A2FE01E0D5F8C802D5F8C8024007AA
:102A400015D42879A8B10120FFF7C2FE00BF00BF4E
:102A500095F9040010F1410FFADC0020287100BF45
:102A600028793F28FCD80120FFF786FE01E0D5F841
:102A7000C8020220FDF7F8FAA7B160684FF480762B
:102A8000051D05E000BF00BF013F05F10C0509D0A1
:102A90006879B6EB002FF7D155E90101091A02F068
:102AA0009BFAF1E7B9F1000F16D0E0684FF480759A
:102AB00000F1080405E000BFB9F1010904F11004B8
:102AC0000AD06079B5EB002FF6D154E902022168F3
:102AD000121A02F085FAEFE740F26054C2F20024C5
:102AE000204600F075F9204600F08AF9BFF34F8FB9
:102AF000BFF36F8F0020C8F8480246F2CE3046F28E
:102B0000CE31C0F20020C0F20021BFF34F8F081A6F
:102B1000BFF36F8F8410012C0BDB46F2CE35C0F271
:102B2000002500BF00BF00BF55F8040B8047013CE3
:102B3000FAD1FFF709FE002001B0BDE8F04300F034
:102B400003B8D4D4D4D4D4D470472DE9F04F099D20
:102B5000844681B1C2B14BB3B1FA81F7B3FA83F6BF
:102B6000F71B202F4FD3002D18BFC5E900C100204F
:102B70000021BDE8F08FCBB30021002D64D00020F0
:102B8000C5E900C1BDE8F08F002B60D0002861D0FE
:102B90005F1E3B4200F08580B1FA81F7B3FA83F6FD
:102BA000F71B1F2FDFD207F1010C3CE0571E3A4202
:102BB0005DD0B1FA81F7B2FA82F6F71B07F1210C6A
:102BC000BCF1200F24D0BCF11F0F79D8CCF1200626
:102BD00020FA0CF721FA0CF901FA06F5B0403D4352
:102BE0004FF0000ABCF1010F2CD07CE0B0FBF2FCEE
:102BF000002D1EBF0CFB12000021C5E900010021C1
:102C00006046BDE8F08F07F1010CBCF1200F0AD13E
:102C10004FF000094FF0200C0D464FF0000ABCF1B8
:102C2000010F0FD05FE0C7F11F0720FA0CF621FA61
:102C30000CF901FA07F5B84035434FF0000ABCF132
:102C4000010F50D100248FE00020BDE8F08F6046D6
:102C5000BDE8F08FB1FBF3FC002D1EBF0CFB131081
:102C60000021C5E9001000216046BDE8F08F002D6D
:102C70001EBF00230740C5E90073012A0ED092FA57
:102C8000A2F24F00B2FA82F202F01F03D140D84004
:102C90001F23934307FA03F343EA000C6046BDE8A1
:102CA000F08F002D1CBF07EA0100C5E900C093FAB0
:102CB000A3F0B0FA80F021FA00F00021BDE8F08F17
:102CC000ACF12007CCF140044FF0000920FA07F6E0
:102CD00001FA04F52E4300FA04FA21FA07F530460A
:102CE000BCF1010FAED02CF001070126023F4FF0DE
:102CF000000B06EB570E4FEA490444EAD5746D0009
:102D000045EAD0754000E743E943891843EB0708DB
:102D1000AF1A64EB0306B8F1000F56EA448457EA91
:102D20004585640044EAD5746D0045EAD07540EAF3
:102D3000DA70AE1A6FEA050164EB030789184FEAEF
:102D400040006FEA0401594157EA448956EA458533
:102D5000CC0F4BEA4A010027A34640EAD170490054
:102D600041EAD87A0FF039C85FEACC711ED06F0003
:102D70004FEA490147EAD07741EAD571B7EB020C37
:102D80004FEA400061EB030EFD4352196FEA010662
:102D900053EB060240EADA705EEA41895CEA478555
:102DA000D10F44EA4A0200270C4692464FEADA71F4
:102DB00041EA400009994FEA4A02002918BFC1E9D7
:102DC000005940EA070122F001002043BDE8F08FDE
:102DD00010B540F25C0140F20002C0F20021C0F2E6
:102DE0000002044602F0FCF840F2000040F200014C
:102DF000C0F20000C0F20001204402F0EDF810BD66
:102E000040F20801C0F20001401A40F25C51C2F2E7
:102E100000210860704781B0B0B589B00C4642F619
:102E20006B61C0F20021002501914FF400319446FE
:102E30000DAA009101190D93002C0892CDE90655B9
:102E40000490CDE9025518BF481E48BF00200590E8
:102E50006846614600F012F8002C1CBF04990D7002
:102E600009B0BDE8B04001B07047D1E904239A42EF
:102E70001EBF531C0B6110707047D4D42DE9F04F66
:102E800099B0814680781892800740F1B5851898EE
:102E90000027D9F804808A46179011A8821D0C9249
:102EA000421E053010920E900D91514611F8010B03
:102EB000252803D08A4638B900F0A0BD9AF8015001
:102EC0000AF1020A252D06D14946C04701370028DC
:102ED000EBD500F08BBD002200244FF0000C4FF02A
:102EE000000B04E01AF8015B002D00F02D811FFAA1
:102EF0008BF61F2E20D8A5F1200010281ED8DFE861
:102F000010F015001D001D0018001D001D001D0003
:102F100014001D001D001D0011001D00CC001D002F
:102F20001D00C9004BF0020B00E0DBE74BF0040B87
:102F3000D8E74BF0100BD5E77F2E0DD8A5F1300068
:102F4000092840D8402E80F0A0800CEB8C014BF07B
:102F5000200B00EB410CC5E7A5F14C002E2800F238
:102F6000F480DFE810F08F00F200F200F200F200CF
:102F7000F200F200F200F200F200F200F200F200C1
:102F8000F200F200F200F200F200F200F200F200B1
:102F9000F200F200F200F200F200F200F200A400EF
:102FA000F2008F00F2009D00F200F200F200F20049
:102FB000F200F200F2002F00F200F200F200F20044
:102FC000F2002F008EE7A5F12400562800F2BD8004
:102FD000DFE810F08600BB00BB00BB00BB00BB00FD
:102FE0007400BB00BB00BB00A400BB00BB00BB0067
:102FF000BB00BB00BB00BB00BB00BB00BB00BB00F9
:10300000BB00BB00BB00BB00BB00BB00BB00BB00E8
:10301000BB00BB00BB00BB00BB00BB00BB00BB00D8
:10302000BB00BB005800BB00BB00BB00BB00BB002B
:10303000BB00BB00BB00BB00BB00BB00BB00BB00B8
:10304000BB00BB00BB00BB00BB00BB00BB00BB00A8
:10305000BB00BB00BB00BB00BB00BB006D00BB00E6
:103060005800BB006600BB00BB00BB00BB00BB0040
:10307000BB00BB005700BB00BB00BB00BB00BB00DC
:1030800057002FE74BF4207B2CE704EB840100EB87
:10309000410427E74BF0010B24E74BF0080B21E735
:1030A0000BF080004BEA800040F0800B1AE70BF435
:1030B00080704BEA400040F4807B13E7002A7FF4E5
:1030C00011AF17983F2E00F104011791006832D814
:1030D000B0F1FF3F32DD4BF0200B0022844601E7C8
:1030E00012B31898402E179017A90D986546CDF881
:1030F0003C90C14690465CEA348200F083FC17980D
:10310000402E4246C84600F1040117910068DDF8E0
:103110003C9050EA358C54EA3084E3E63F2E00F2CE
:103120006D844BF0400BDDE6624600244FF0000C4E
:103130004FF0000BD6E600220446D3E64BF0280BF6
:10314000C0F1000C0022CDE60025CDF83CC03AB11C
:10315000189817A917900D9800F054FCDDF83CC0A2
:10316000002C24EAE47E45F0200048BF2BF0400B01
:1031700061281CBFA0F16501022925D81799612893
:1031800001F1070121F0070101F108021792A0EBFC
:10319000050291ED000B0A9244D15FEA4B6058BFE3
:1031A0004FF0FF3E11A8D2B27146764600F0C8FD3E
:1031B000451C4BF4C05B4FF0700C4FF0010EE8B2B1
:1031C0008642D8BF461E5CE0A5F16301122900F2D9
:1031D0000A8108230026DFE811F0350113000601FB
:1031E000060106010601130006010601060106019B
:1031F000060161015D01060106010D0106012E01B6
:103200001FFA8BF15FEA0B6000F10C811798021D29
:1032100017920068CA0540F10C81890554BF00B2BD
:1032200040B206E15FEA4B6158BF4FF0060E6628D8
:1032300009D065280FD14BF4805B76460EF1010171
:103240000023652411E04BF4005B01226624112168
:10325000764673460AE05FEA0E61A0F10204714609
:1032600076464FF0000308BF0121002211A8C9B221
:10327000112928BF112100F073FF05464FF0020EFF
:10328000A446119B9DF84800A3F10A0111F1130F08
:1032900038BF4FF0020EA3F16401089111F1C70F7E
:1032A00038BF4FF0030E0F9CC1074FD15FEA8B71FF
:1032B0006FD41FFA8BF1202202EAC10211F0040F31
:1032C0005FEA1F9110F00C0F45D11BF4405F04938F
:1032D000CDE9062140F02B82012E4FF0010056EA85
:1032E00080801FFA8BF12A0600F06D810E9BEAB2F6
:1032F000134413F8013C302B40F006826B1E1A0673
:1033000021D02E460E9DDAB2154415F8015C302D01
:1033100040F0F981B31E1A0615D00E9DDAB215449D
:1033200015F8015C302D40F0EE81F31E1A060AD02C
:103330000E9DDAB2154415F8015C302D40F0E381A2
:10334000351F2A06D2D100250022DDE12D220021E1
:1033500010F00C0FB9D000294FF0030050EA109084
:10336000844212DD0A9E0D465FEA0B7117D4041BDE
:10337000934620204946C047002800F13783013793
:103380000134F6D300245A460AE000240A9E49B1CB
:103390000FE02B22002110F00C0FDCD195E7241A4E
:1033A000294631B910464946C047002800F11E831E
:1033B00001379DF8480045F6CD21C0F200210007F5
:1033C00045F2E960C0F2002050EA518528780028D3
:1033D00000F0F982801B4946C0B2C0470137013571
:1033E0000028F3D502E3782840F09880C5F18803DF
:1033F0002E4653E01798011D1791006845F63F319E
:10340000C0F20021002851EA00855FEA4B6058BFF6
:103410004FF0FF3E2846714600F06AFEDDF83CC0E2
:10342000064617E01798890500F18680011D17915F
:103430000068C11788E04FF6EF700BEA000B0A2313
:1034400075262BE01798012611AD011D1791006814
:103450008DF844005FEA0B700ED4B4450CD92020DF
:1034600049466446C047002800F1C082A4F1010C1F
:103470000137B445F3D8B4463744ACEB0604002E0C
:1034800000F0A18215F8010B4946C047013E002813
:10349000F5D5ABE24BF0100B102378264FF6F97000
:1034A0000BEA00025FEA0B600B960AD41798011D25
:1034B00017910668D1050AD5900554BFB6B2F6B289
:1034C00005E0179891050AD4011D1791066800219F
:1034D00056EA010008BF2BF0160278D10FE0073042
:1034E000154620F007000246416852F8086B179213
:1034F0002A4656EA010008BF2BF0160267D10026C3
:103500005FEA4B6062D50021012C60DA4FF6E9706A
:103510000BEA00010B9D480637D467E02520494699
:10352000C047002800F1628228464946C04702375A
:1035300000287FF5BAAC59E2073020F007010A46AF
:10354000496852F8080B179200295A46CDF82CE02A
:1035500048BF42F4806250EA010322D080EAE17061
:1035600081EAE173B0EBE17063EBE17111AC22F041
:1035700010060A23224600F06DFB3146061BDDF8DB
:103580003CC0DDF82CE0480630D54FF6FE7076459D
:1035900000EA01002BDA002D08BF21F0110071466E
:1035A00026E05FEA4B604FF0000040F19E81002171
:1035B000012CDBDA4FF6EE70DDF83CC000EA0B00C0
:1035C000DDF82CE014E0002500229EE0002111AC83
:1035D000304616467546224600F03CFB3146AE4664
:1035E000DDF83CC0061B0B9D4806CED4084631468C
:1035F0001FFA80FBC0060AD440F206401BEA000F07
:103600005FEA0F9044185FEA0B7009D526E0002DA1
:103610004FF0010050EA009044185FEA0B701DD48F
:103620005FEACB7008D0B646644505DA06EB0C00BD
:10363000A0EB040E644611E064450FDACDF82CE0EF
:1036400020204946C047002800F1D0810F9801345E
:103650000137A042F4D1DDF82CE004465FEACB60EC
:103660001BD440F206401BEA000F26D05FEA8B70A5
:1036700075464FF02B0058BF20205FEA4B5149465A
:1036800048BF2D20C047002800F1B0810137AE4669
:10369000F3467546B64514DC1CE030204946F34637
:1036A000C047002800F1A28135B328464946C047EB
:1036B000002800F19B810237DE46F3467546B64589
:1036C00008DD30204946C047002800F18F81013DC8
:1036D000B542F6DC0F985E45A0EB040456EACB80B9
:1036E0000744002E00F06F8110984946805DC04766
:1036F000013E0028F5D579E10137DE46F3467546EF
:10370000B645DEDCE6E71D46049BC90652EA508159
:1037100013F1040F08DB834206DA4BF4005B8B42A3
:1037200004DAD8430E1802E04E1E00E00026A3F58E
:103730007A711FFA8BF4099424055FEA8B40039594
:10374000CDE9011C05940CD411F5FA6F70464FF0C9
:10375000050198BF0420002C58BF032101EB000C89
:1037600003E023EAE37000F1010CDDF824B0002E41
:10377000079A4FF000050B96CBF3001182F001027F
:1037800051EA06900F9983186344CB1A53EAC58413
:103790001BF0090F11D10A9E84B160447546104494
:1037A000441A20204946C047002800F11F810137F4
:1037B0000134F6D30024AE4600E00A9E0798CDF807
:1037C00000E00028069805D14946C047002800F1CE
:1037D0000D810137059800280ED530204946C04795
:1037E000002800F10381C6F178004946C0B2C04705
:1037F000002800F1FB800237099800070AD44CB179
:10380000274430204946C047002800F1EF80013CA2
:10381000F7D100240998800427D49DF8490049462F
:10382000C047002800F1E2800B98012857DB2E20CA
:103830004946C047002800F1D9800B98384400F170
:10384000020B0398C5B20020471CAF4202D20C996C
:10385000085C00E030204946C047002800F1C680DF
:103860000B98B8423846EFD148E0049820EAE07659
:10387000851B0B98C0F1000B0398C0B20F90701C11
:1038800006D12E204946C047002800F1AF800137FD
:103890003020002D04D40F998D42BCBF0E98405D9E
:1038A00049465E4506DDC04701350137013E002827
:1038B000E5D59BE0C047002800F198800999781C65
:1038C000C90640F19180002E40F08C802E204946A0
:1038D000C047B0F1FF3F40F38980023773E0099899
:1038E000C00604D407F1010B08E000213EE62E20BB
:1038F0004946C047002879D407F1020B029849468F
:10390000801BC0B2C047002870D4049E2B204946BB
:10391000002E48BF2D20C047002E48BF7642002809
:1039200064D4019810F5FA6F15D844F6D35049467F
:10393000C1F26200A6FB0005302000EB9510C0B27A
:10394000C047002852D4A8094FF47A7100FB1162D5
:103950000BF1030506E008980BF10205324610F161
:10396000C80F3BD848F21F504946C5F2EB10174626
:10397000A2FB0006302000EB5610C0B2C047002862
:1039800034D47009642100FB117201354CF6CD402E
:103990004946CCF6CC401746A2FB0006302000EB8F
:1039A000D600C0B2C047002820D4F008013500EB93
:1039B0008000A7EB400202F130004946C0B2C04788
:1039C000002813D46F1C012CFFF66FAA2020494653
:1039D000C0470137013C0028F5D507E000980228D0
:1039E000D4D2E8E70746EEE70746ECE799F802008D
:1039F00040F0040089F802004FF0FF37384619B054
:103A0000BDE8F08F022AB8BF70472DE9F04F42F6AB
:103A100089084FF0010CC0F2010804464FF0010E76
:103A200003E05F789C1C252F29D1234613F8015B06
:103A3000252D01D025B90AE16778A31C252F1DD1BA
:103A40001C4614F8015B252D01D025B9FFE05F78F5
:103A50009C1C252F13D1234613F8015B252D01D083
:103A600025B9F4E06778A31C252F07D11C4614F86C
:103A7000015B252DD5D0002DD7D1E8E01C464FF0B5
:103A8000000A4FF00009002604E014F8017B002F23
:103A900000F0A980B346BAF11F0F0AD8A7F120059C
:103AA000102D09D80CFA05F515EA080F40F07C80B6
:103AB00002E0BAF17F0F0AD8A7F13005092D3ED8F0
:103AC0000BEB8B034AF0200A05EB4306DDE7A7F179
:103AD0004C052E2D00F288805E46DFE815F0670069
:103AE00085008500850085008500850085008500AE
:103AF000850085008500850085008500850085009E
:103B0000850085008500850085008500850085008D
:103B100085008500850077008500670085007000BE
:103B200085008500850085008500850085002F00C3
:103B3000850085008500850085002F00A5E7A7F199
:103B40002405562D00F250800026DFE805F0334DA5
:103B50004D4D4D4D324D4D4D324D4D4D4D4D4D4DCB
:103B60004D4D4D4D4D4D4D4D4D4D4D4D4D4D4D4D85
:103B70004D4D4D4D4D4D2F4D4D4D4D4D4D4D4D4D93
:103B80004D4D4D4D4D4D4D4D4D4D4D4D4D4D4D4D65
:103B90004D4D3F4D2F4D384D4D4D4D4D4D4D2C4DB7
:103BA0004D4D4D4D2C00FFE75E466EE74AF4207AFE
:103BB000FAE76AE7B9F1000F0FD1D94665E70AF0D5
:103BC00080034AEA830343F0800AEDE70AF4807336
:103BD0004AEA430343F4807AE6E7F3457FF455AFBE
:103BE0006327F14600E00027B9F1000F2FD0F1451F
:103BF00024D147F02003612B1CBF653B022B05D865
:103C00000B68073323F00703083313E0A7F16303BE
:103C1000102B0AD8DFE803F00C0909090909090982
:103C200009090909090909090C005FEA0A6309D4AD
:103C30000B6804330EF1010E04460B609645FFF647
:103C4000F4AE04E00B685FEA8A54DAD4F1E7BDE829
:103C5000F04F70472DE9F04703F01F069846914654
:103C60008A460546284651463246002300F06EFA41
:103C7000044600FB16500F46A0EB0801092888BF38
:103C800001F13700303089F80000A81B7AF10000FC
:103C900049D3204639463246002300F057FA0546FC
:103CA00000FB16408A46A0EB0801092888BF01F1F5
:103CB0003700303089F80100A01B77F1000036D3BF
:103CC000284651463246002300F040FA044600FBE5
:103CD00016500F46A0EB0801092888BF01F13700F4
:103CE000303089F80200A81B7AF1000023D3204667
:103CF00039463246002300F029FA054600FB1640FB
:103D00008A46A0EB0801092888BF01F1370030304E
:103D100089F8030009F10409A01B77F10000A1D282
:103D20004846BDE8F08709F10100BDE8F08709F1D8
:103D30000200BDE8F08709F103094846BDE8F087B5
:103D40002DE9F04F85B05AEC103B4FEADA77CAF311
:103D50000A566FF31F5A077153EA0A0408BF002E70
:103D60000ED040F2FF75AE423CD10421002C18BFAA
:103D70000821394401710021084605B0BDE8F08FE3
:103D8000002700234FF0000A0029076037D40D29CF
:103D900037D3190F00F1050B41EA0A110491190EEE
:103DA0004FEA1A5441EA0A210391190D4FEA1A46C3
:103DB00041EA0A310291190C4FEA1A3841EA0A41E4
:103DC0000191190B41EA0A5C190A41EA0A6E1909C4
:103DD00041EA0A794FEA1A1103F00F034FEA1A2752
:103DE000009180E04FF60247002ECFF6FF771CBF10
:103DF000A6F2FF370AF5801A00290760C7D500210F
:103E000046E03326A6EB8105C5F1200613274FF0C7
:103E1000020CA7EB81072CFA06F401264FF0000EE6
:103E2000002F58BF0CFA07F458BF06FA07FE06FA2F
:103E300005F60CFA05F558BF002658BF0025D5F148
:103E400000094FF0000868EB040C013D64F1000428
:103E50001D4004EA0A04751B7EEB040411D38C0098
:103E6000C4F13405D4F1140423FA05F7C5F1200593
:103E70000AFA05F545EA070558BF2AFA04F5EC07E2
:103E800002D09B194AEB0E0A03EA09030AEA0C0A5C
:103E90001F0947EA0A791F0F1D0B47EA0A17049703
:103EA0001F0E45EA0A5C47EA0A2703971F0D1D0A01
:103EB00047EA0A3702971F0C45EA0A6E47EA0A47A3
:103EC00000F1050B13F00F0301974FEA1A174FEAA1
:103ED0001A544FEA1A464FEA1A384FEA1A25009741
:103EE00000F0B4802F46991A092B88BF01F12703EF
:103EF00003F13001817409F00F030D219D1A092B84
:103F000088BF05F127030C2903F13003437498BFE0
:103F10000C210EF00F039D1A092B88BF05F1270312
:103F20000B2903F13003037498BF0B210CF00F032E
:103F30009D1A092B88BF05F127030A2903F13003D5
:103F4000C37398BF0A21019B3D4603F00F039F1ADC
:103F5000092B88BF07F12703092903F13003837375
:103F600098BF0921029B03F00F039F1A092B88BFFA
:103F700007F12703082903F13003437398BF082191
:103F8000039B03F00F039F1A092B88BF07F1270338
:103F9000072903F13003037398BF0721049B03F043
:103FA0000F039F1A092B88BF07F12703062903F186
:103FB0003003C37298BF06210AF00F039F1A092B22
:103FC00088BF07F12703052903F13003837298BFE7
:103FD0000521009B03F00F039F1A092B88BF07F1EF
:103FE0002703042903F13003437298BF042105F02D
:103FF0000F039F1A092B88BF07F12703032903F139
:104000003003037298BF032108F00F039F1A092B96
:1040100088BF07F12703022903F13003C37106F0BB
:104020000F0398BF02219A1A092B88BF02F12703B8
:1040300003F130028271012998BF012104F130009F
:104040008BF80000084605B0BDE8F08F19F00F03AB
:1040500048D10C2946D21EF00F0345D10B2943D27B
:104060001CF00F0342D10A2940D2019B13F00F0329
:104070007FF46DAF0929BFF46AAF029B13F00F0301
:104080007FF473AF0829BFF470AF039B13F00F03E5
:104090007FF479AF0729BFF476AF049B13F00F03C9
:1040A0007FF47FAF0629BFF47CAF1AF00F037FF4D3
:1040B00085AF0529BFF482AF17F00F038CD1042917
:1040C0008AD215F00F0394D1032992D218F00F036E
:1040D0009CD102299AD206F00F0353EA0107A2D11C
:1040E0000021ABE72F4609E72F4614E72F461FE7CD
:1040F000844639B370B500EB010C4B1EA1F1020EE2
:10410000CC1E0022855C85B1934219D085186E784B
:1041100076B1964514D0AE786EB1944210D0EE7858
:1041200066B104329142EDD10AE000EB020C07E0E7
:1041300005F1010C04E005F1020C01E005F1030CAE
:10414000BDE87040ACEB00007047D4D440B584B0FB
:1041500002AE0096FEF7F9FC029A039B04B040BD44
:104160002DE9F04FA1B056EC108BB246C6F30A54BD
:104170006FF31F5AF50F58EA0A0708BF002C0ED03C
:1041800040F2FF76B44215D10821002F08BF042168
:10419000002429440171204621B0BDE8F08FA91CFC
:1041A000017130210124417100210160204621B0BC
:1041B000BDE8F08FA4F23549002CCDE9062308F0C4
:1041C00001060495CDE9081006BF4FF6CC39CFF6AD
:1041D000FF790AF5801A4FEA8A0242EA9870002FA6
:1041E00015905FEA0F90022C5FEA2F91B9F1000F52
:1041F00040EA01074FEA880014900596139749D4C6
:10420000484600F021FD0546B9F1030F88BF013D86
:10421000284600F027FD0DF1580B04462846594664
:1042200000F00BFE1AA81CA95A460297CDE900100F
:10423000A5EB09002044514600F17C034046AB4603
:1042400000F031FC8246152D5FD8149F4CF6CD4608
:10425000159D1EA8CCF6CC460C4600903846294643
:1042600032464FF0CC3300F072FEDDE91E018208C9
:1042700042EA817120F0030008444042F8426AD1CA
:104280003846294600F0F7FC58455FEA3F90129007
:10429000002087E0C9F1000B584600F0DCFC044622
:1042A00019F1010018BF013CABEB040B584600F0BC
:1042B000D9FC16A9054658468B4600F03BFD1AA8C6
:1042C0001CA95A460297CDE90010601B00F17D033E
:1042D0004046514600F0E7FB04EB090B8246012CF7
:1042E0001BD8089B002E069D4CF6CD46CCF6CC463E
:1042F00008D0DDE91C0201381C9062F100001D901D
:10430000002013900120129050E04CF6CD46002082
:10431000CDE91200CCF6CC4646E0089B4CF6CD46E3
:10432000069DCCF6CC463E2C25D84FF0FF30B4F19C
:10433000200200FA04F758BF0027149C58BF904091
:10434000159A24EA070722EA000038435FEA1F9023
:104350001290002011E0059888B91398C043C01945
:1043600065F1000100F087FC58455FEA3F9013902B
:104370000020129017E000201290139016E047F0F2
:104380000200294600F077FCDDE91C124B1E62F1A9
:104390000005584553EA21801C9055EA22801D9063
:1043A0000020129013902146089B069D002D0C932F
:1043B0004AD0BAF10A0071F1000001D2012037E0C1
:1043C00000274FF00A0C02204FF064094FF47A786E
:1043D00042F2107E0A22A2FB0C4507EB870305EB95
:1043E0004303BAEB040471EB030320D3A2FB0934AB
:1043F00007FB0944BAEB030371EB040314D3A2FBDC
:10440000083407FB0844BAEB030371EB04030DD334
:10441000A2FB0E23043007FB0E37BAEB020371EB4D
:104420000703D8D2013802E0013000E00230089BD7
:10443000079A0BEB02073844B0EBD27FB8BFD00F1E
:10444000834253EAB0800C90CDF80CB00DF1680BAC
:104450001D9C16AD9BE8000B002015911490119047
:104460000B902FE01599504632464FF0CC3316ADE5
:104470004FEADB04009500F06AFD1498BB461299E0
:1044800010F0FF0FDDE916235FEA1F90014008EBF3
:1044900088001291404210994942B1EB400F1399A4
:1044A0005FEA1F9001401391D00840EA437101EB8D
:1044B0008000AAEB4000149011988A4601301190B8
:1044C000D80815905846214632464FF0CC33009517
:1044D000CDF834B00E9400F03AFD404649463246DD
:1044E0004FF0CC33DDE9164B0095CDE90F9800F085
:1044F0002EFDDDE91601E20842EA4B774FEAD109C9
:10450000C00840EA4178B8EB070079EBDB00A9D39B
:104510001599BAF10A0071F1000001D201203BE0C7
:104520000A9700250A2202204FF00A0C64274FF454
:104530007A7EA2FB0C3605EB850406EB4406BAEB4B
:10454000030371EB060322D3A2FB073605FB0766C4
:10455000BAEB030371EB060316D3A2FB0E3605FB81
:104560000E66BAEB030371EB06030FD342F210742D
:104570000430A2FB042305FB0435BAEB020371EB04
:104580000503D6D2013802E0013000E002300A9F74
:104590004CF6CD46CCF6CC460C9A4AEA01031343BE
:1045A0005FEA1F93904203DD13B901200B905AE795
:1045B0001398C00771D0DDF8408032460F994FF054
:1045C000CC3316AD0095404600F0C1FCDDE9161075
:1045D000C8F10003DDF848B0CA0842EA407404EBB1
:1045E00082025242B3EB420F5FD1C208DDF8449021
:1045F000DDF850C0DDE90D01904632464FF0CC3376
:10460000CDF850C0009500F0A2FC159932461698DE
:104610004FF0CC3312905046179F009500F097FC56
:104620004CF6CD4216A8009020464146CCF6CC422E
:104630004FF0CC33DDE91665CDF83C8000F087FC07
:10464000F10841EA457E14980EEB8101A046ED0881
:1046500010F0FF0FAAEB410C5FEA1F90DDE9161284
:104660000BEA000B12984CF6CD461595CB0843EAA1
:104670004274C00804EB830340EA47705B4209F1CF
:10468000010916ADF908C8F10007CCF6CC46D208EE
:10469000F246B7EB430FAFD00CE00DF1400BD6461E
:1046A000DDF850C09BE8000B04E0D646DDF84490EE
:1046B000DDF850C0159A8EEA08010F981346424063
:1046C00011430B9A5FEA0F911143CA07059900291C
:1046D0005FEA1F91002A04BF139A11EA02010ED06B
:1046E0005FFA8CF105295FEA0F92042962EA0B0256
:1046F0005FEA9F9142EA0E0202EA010C01E04FF0EC
:10470000010C039809EB00051EEB0C0043F10001BE
:10471000B0F10A0271F1000201D2012338E0AE4685
:1047200000264FF00A0802234FF0640B4FF47A7A08
:1047300042F210790A25A5FB087206EB860402EB0B
:104740004402C41B71EB02021DD3A5FB0B2406FB24
:104750000B44821A71EB040212D3A5FB0A2406FB58
:104760000A44821A71EB04020CD3A5FB09520433EC
:1047700006FB0926421B71EB0602DCD2013B02E07C
:10478000013300E002334CF6CD467546CCF6CC46FC
:104790000C9A93425FEADC82012A079A3AD1069F7B
:1047A0004FB12A441A44012AD8BF0122089F9742D8
:1047B00057EAB2820C920C9A93422BDD05304CF6EC
:1047C000CD4741F10001CCF6CC474008013B40EA1F
:1047D000C170013510EB51024FEA510142F1000264
:1047E000A2FB077626F0030707EB96074FF0CC36BF
:1047F000D21B821A4CF6CD40CCF6CC4061F10001C0
:10480000A2FB000702FB06724CF6CD46CCF6CC4666
:1048100001FB06210C9A934253EAB2822BB214B2E6
:104820002344A3F10108012CC0F2348102F00303F8
:10483000099ACDF84880042C02F1050911931494CB
:1048400002D24FF0000AA9E0E31A2244149C02F1BC
:1048500004084FF0000A13936422002383460F4696
:10486000FFF774FC420800F0010042EAC17212EB4B
:10487000510141F10001A1FB062323F0030202EBE9
:1048800093020023891A4FF47A7240EA41003946B4
:1048900040F0300015905846FFF758FC42084CF69F
:1048A000CD4642EAC172CCF6CC4612EB510100F083
:1048B000010041F100024FEA5B0141EAC77111EBCF
:1048C000570343F10003A3FB066525F0030606EB3F
:1048D00095069B1B6FF00206CB1A4CF6CD41CCF629
:1048E000CC41A3FB011C01EB8105ABEB450545F079
:1048F000300508F804598AEA0605159E254409F88A
:1049000005604CF6CD46CCF6CC46A2FB065626F00A
:10491000030505EB9606A2EB06024CF6CD46CCF657
:10492000CC4640EA42006FF0030282EA0A0240F0FD
:104930003000224409F802004FF0CC304FEA570211
:1049400003FB00C062F1000202FB06004A0801F00E
:10495000010142EAC07212EB500040F10000A0FBDE
:10496000062323F0030202EB93020023801A42F293
:10497000107241EA40006FF0010181EA0A0140F043
:104980003000214409F8010058463946FFF7DEFBA4
:104990000AF1040A139A52457FF45EAFDDF844E051
:1049A000DDF84880149CBEF1000F73D042084CF62D
:1049B000CD4742EAC172CCF6CC4712EB51036FEA05
:1049C0000A0543F100032544A3FB077626F00307FD
:1049D00007EB96074E08DB1BD31A4CF6CD42CCF6FC
:1049E000CC4266F1000CA3FB0227BEF1010F02EBE3
:1049F0008206A0EB460646F0300609F8056049D06D
:104A00004FF0CC364CF6CD4503FB06734CF6CD4744
:104A1000CCF6CC47CCF6CC450CFB0733570802F05C
:104A2000010247EAC37717EB53034CF6CD4743F136
:104A30000003CCF6CC47BEF1020FA3FB077626F0AD
:104A4000030707EB9607A3EB070342EA4302A4EB35
:104A50000A0303EB090642F0300206F8022C19D0D3
:104A600064220023FFF772FB420800F0010042EAD3
:104A7000C17212EB510141F10001A1FB052323F0AA
:104A8000030202EB9302891A40EA410040F0300031
:104A900006F8030C099804990171C0F800802046BB
:104AA00021B0BDE8F08F2DE9F04F8BB0490041EA0D
:104AB000D07405931646D2E90023450028462146C6
:104AC00008AF009700F043FAD6E90223834606A810
:104AD0008946009028462146DDE9087A00F037FA39
:104AE00010EB0708DDE906234AEB010ADDE90801BE
:104AF000571C059C43F10005B8EB00007AEB010060
:104B0000A4F1410455EA338357EA328296E88300E0
:104B100017EB0807F568049445EB0A0510EB0B004A
:104B200059EB0100009457F10000CDE9062345F14F
:104B30000001571C43F10005B0EB080471EB0A04B7
:104B4000CDF80CB055EA338357EA3282CDF808909D
:104B500000F01BFADDE91429169BC2E9000143B3FA
:104B6000D6E900C1D6E902560398B8EB0505DDE9A0
:104B700006236AEB06066C1E66F10007B0EB0C001C
:104B80000298DDF810B08841CDF800B054EA3580C5
:104B900057EA3681571E63F10006B8EB00057AEB41
:104BA000010557EA328256EA338300F0EEF95F4698
:104BB0003EE0DDE906204FEA4804D6E900EC01902A
:104BC0000598D6E90276A0F14005029800954FEAD3
:104BD0004A05039945EAD87544EAD0744300E71BB7
:104BE00065EB0606B7F1010B43EAD17366F10000ED
:104BF000DEEB410173EB0C0150EA36815BEA378052
:104C0000B4EB0803019F75EB0A035FEA2F937F0063
:104C100043EA420347EAD2775A1E67F10006241A94
:104C20008D4152EA338256EA378300F0AEF9049F91
:104C3000DDE90623C9E9000140465146009700F02E
:104C4000A4F90BB0BDE8F08F43F24141C0F201017D
:104C50004843800C704742F6FB61C0F20B014843A9
:104C6000000D704749F24F31C0F212014843012153
:104C700001EBD04070472DE9F04F4CF6CD4E45F694
:104C8000294442F6F50A47F6D50847F6916943F2FA
:104C9000343B02460020CCF6CC4E4FF03333CCF2FE
:104CA0008F24C8F65C7AC2F2E968C3F6FB29C3F226
:104CB000333BA2FB0E5C4FF0CC3702FB07C7D5F1AC
:104CC000333501FB0E7773EB07072ED3A2FB047578
:104CD00002FB0A55D7F1333701FB045573EB050787
:104CE00022D3A2FB087540F63106C1F6AC4602FBA2
:104CF0000655D7F1333701FB085573EB050716D37B
:104D0000A2FB09754CF67066CDF28826043002FBD2
:104D1000065201FB0921B7EB0B0271F133323A461F
:104D2000C7D30138BDE8F08F0130BDE8F08F023005
:104D3000BDE8F08F2DE9F04F87B005464EF64F40A5
:104D4000C4F6C4608B46A5FB0001C8081A2100FB0D
:104D500001F646F24001C0F2002101EB0010B5421D
:104D600009D190E80E00C0688BE80E00CBF80C006B
:104D700007B0BDE8F08FD0E9009246F21011C0F202
:104D800000210192D0E90223A81B51F8307001EBF9
:104D9000C000446804A800903846214600F0D7F8C7
:104DA000019B824602A888460090384621464A4622
:104DB00000F0CDF881460191DDE90201002210EBFF
:104DC0000A0758EB010842F10000012806D1DDE98D
:104DD00004010130049041F1000005902846FFF7DE
:104DE00041FF04463046FFF73DFF0199241A48462B
:104DF0003A464346009400F0C8F86FF0030246F2CA
:104E0000E01302EA9502C0F200239A581E2303EA37
:104E10004503DA4002F003068019DDE9042341F17D
:104E20000001CBE9000138464146009400F0ADF89E
:104E3000CBE9020107B0BDE8F08F2DE9F04F87B054
:104E40008B464EF64F4105461930C4F6C461A0FBAF
:104E50000101C8081A2100FB01F646F23821C0F210
:104E6000002101EB0010AE4209D190E80E00C068AD
:104E70008BE80E00CBF80C0007B0BDE8F08FD0E94E
:104E800000A246F21011C0F200210192D0E90223E3
:104E9000701B51F8307001EBC000446804A800900A
:104EA0003846214600F053F8804602A80090BAF137
:104EB000010201988946214660F10003384600F05E
:104EC00046F804468A46DDE90201002210EB080795
:104ED00051EB090842F10000012806D1DDE9040187
:104EE0000130049041F1000005903046FFF7BAFE12
:104EF00006462846FFF7B6FE361A204651463A4681
:104F00004346009600F041F86FF0030246F2283362
:104F100002EA9502C0F200239A581E2303EA4503D1
:104F2000DA4002F003054019DDE9042341F10001F4
:104F3000013041F10001CBE90001384641460096BD
:104F400000F023F8CBE9020107B0BDE8F08FF0B51F
:104F5000A2FB01CEA2FB0075A3FB011415EB0C050F
:104F6000DDF814C051EB0E06294644F10004324628
:104F7000E3FB0012A3FB0003401956EB030044F1CE
:104F80000000CCE900203846F0BD10B5DDF808C0BF
:104F9000CCF1400ECEF1200420FA0CF003FA0EF30F
:104FA00022FA04F42343DCF1200458BF02FA04F38C
:104FB00002FA0EF201FA04F440EA040058BF00229B
:104FC000BCF1200458BF21FA04F021FA0CF158BFBB
:104FD00000211043194310BD0A46002100F076B8A5
:104FE000844641EA000313F0030349D1403A23D336
:104FF0000B6803604B6843608B688360CB68C36059
:105000000B6903614B6943618B698361CB69C36140
:105010000B6A03624B6A43628B6A8362CB6AC36228
:105020000B6B03634B6B43638B6B8363CB6BC36310
:1050300040304031403ADBD230320BD30B68036052
:105040004B6843608B688360CB68C360103010315D
:10505000103AF3D20C3205D351F8043B40F8043B2C
:10506000043AF9D2043208D0D2071CBF11F8013B30
:1050700000F8013B01D30B8803806046704700BFF6
:10508000082A13D38B07B1D010F00303AED0C3F1BD
:105090000403D21ADB071CBF11F8013B00F8013BE7
:1050A000A4D331F8023B20F8023B9FE7043AD9D35E
:1050B000013A11F8013B00F8013BF9D20B7803707B
:1050C0004B7843708B7883706046704770B4840768
:1050D00046D0541E002A41D0CDB2034602E0621EE3
:1050E000E4B3144603F8015B9A07F8D1032C2ED9D8
:1050F000CDB245EA05250F2C45EA054519D92646C6
:1051000003F11002103E0F2E42F8105C42F80C5CC6
:1051100042F8085C42F8045C02F11002F2D8A4F1F3
:10512000100222F00F0204F00F041032032C13447B
:105130000DD91E462246121F032A46F8045BFAD8F0
:10514000221F22F00302121D134404F003042CB1A9
:10515000C9B21C4403F8011BA342FBD170BC7047C9
:1051600014460346C2E720F0030110F00300C0F12B
:10517000000051F8043B00F1040C4FEACC0C6FF036
:1051800000021CBF22FA0CF213434FF0010C4CEA50
:105190000C2C4CEA0C4CA3EB0C0222EA030212EAA0
:1051A000CC1204BF51F8043B001DF4D0C2F1000141
:1051B00002EA0102B2FA82F2C2F11F0200EBD2004F
:1051C00070476C706D5F776169745F73746172743E
:1051D000204661696C65640D0A00525F554C50545D
:1051E0005F537461727420415049204661696C6557
:1051F000640D0A000D0A4C504D206F706572617489
:10520000696E6720697320737461727465640D0A36
:10521000006C706D5F657869745F70726F63656450
:10522000757265204661696C65640D0A006C706D6D
:105230005F65705F656E74727900525F554C5054B3
:105240005F4F70656E20415049204661696C65640E
:105250000D0A00736F757263655F63616E63656CE1
:105260005F6C706D5F656E61626C6500736F757207
:1052700063655F63616E63656C5F6C706D5F696EC3
:10528000697400525F4943555F45787465726E6179
:105290006C49727144697361626C652041504920A8
:1052A0004661696C65640D0A000D0A4C504D206919
:1052B000732063616E63656C65642C206275742075
:1052C000736F7572636520686173206E6F742062FE
:1052D00065656E2064657465637465640D0A000D10
:1052E0000A4C504D2069732063616E63656C656480
:1052F000206279204943552045787465726E616C4F
:1053000020495251206D6F64756C650D0A000D0ABD
:1053100053746172742061206E6577204C504D206B
:105320006F7065726174696E67206379636C650D77
:105330000A00736F757263655F63616E63656C5FAE
:105340006C706D5F64697361626C65204661696C45
:1053500065640D0A000D0A4D435520656E74657233
:1053600073205357205374616E646279206D6F64AB
:10537000650D0A00312E31006C706D5F65705F6DD8
:1053800061696E5F70726F63657373204661696CEB
:1053900065640D0A000D0A53746172742061206EF9
:1053A0006577204C504D206F7065726174696E672F
:1053B0002073657175656E6365206379636C650D37
:1053C0000A00736F757263655F63616E63656C5F1E
:1053D0006C706D5F64697361626C65000D0A4C509E
:1053E0004D2069732063616E63656C65642062792A
:1053F00020554C505430206D6F64756C650D0A005B
:105400000D0A526566657220746F20726561646D65
:10541000652E7478742066696C6520666F72206DE5
:105420006F72652064657461696C73206F6E2045CE
:1054300078616D706C652050726F6A65637420616D
:105440006E640D0A46535020557365722773204DC4
:10545000616E75616C20666F72206D6F7265206978
:105460006E666F726D6174696F6E2061626F7574C4
:1054700020725F6C706D206472697665722E0D0A01
:105480000D0A546865204578616D706C6520507216
:105490006F6A6563742064656D6F6E737472617496
:1054A0006573207468652062617369632066756E38
:1054B0006374696F6E616C697479206F66204C50FB
:1054C0004D20647269766572206F6E2052656E653C
:1054D0007361730D0A5241204D435573206261730D
:1054E0006564206F6E204653502E204F6E207375DA
:1054F000636365737366756C20696E697469616C4A
:10550000697A6174696F6E206F66206E656365737A
:1055100073617279206861726477617265206D6F62
:1055200064756C65732C0D0A746865204D435520B5
:1055300077696C6C206175746F6D61746963616CFF
:105540006C7920656E7465722065616368204C50CB
:105550004D206D6F646520616E64207468656E20F7
:105560007761697420666F7220612077616B652DA9
:10557000757020736F757263650D0A747269676761
:1055800065722C20656974686572206D616E756145
:105590006C6C7920627920616E2065787465726E1A
:1055A000616C20696E74657272757074206F722000
:1055B0006175746F6D61746963616C6C7920627977
:1055C0002074696D65722E0D0A0A000D0A2A2A2AB6
:1055D0002A2A2A2A2A2A2A2A2A2A2A2A2A2A2A2A2B
:1055E0002A2A2A2A2A2A2A2A2A2A2A2A2A2A2A2A1B
:1055F0002A2A2A2A2A2A2A2A2A2A2A2A2A2A2A2A0B
:105600002A2A2A2A2A2A2A2A2A2A2A2A2A2A2A2AFA
:105610002A2A2A2A2A2A2A2A2A2A2A2A2A0D0A2A27
:105620002020204D435520686173206265656E20FF
:1056300072657365742066726F6D204465657020B5
:105640005357205374616E646279206D6F646520D6
:10565000627920696E7465726E616C207265736523
:1056600074202020202020202020202020202A0DEF
:105670000A2A2A2A2A2A2A2A2A2A2A2A2A2A2A2AAA
:105680002A2A2A2A2A2A2A2A2A2A2A2A2A2A2A2A7A
:105690002A2A2A2A2A2A2A2A2A2A2A2A2A2A2A2A6A
:1056A0002A2A2A2A2A2A2A2A2A2A2A2A2A2A2A2A5A
:1056B0002A2A2A2A2A2A2A2A2A2A2A2A2A2A2A2A4A
:1056C0002A0D0A00525F4C504D5F4C6F77506F7738
:1056D00065724D6F6465456E746572204150492056
:1056E0004661696C65640D0A00696E6600525F551B
:1056F0004C50545F53746F7020415049204661698B
:105700006C65640D0A006C706D5F65705F73746129
:105710007274757000736F757263655F63616E6339
:10572000656C5F6C706D5F696E6974204661696C51
:1057300065640D0A006C706D5F776169745F7374E6
:1057400061727400525F4C504D5F4F70656E204126
:105750005049204661696C65640D0A000D0A2A2AC9
:105760002A2A2A2A2A2A2A2A2A2A2A2A2A2A2A2A99
:105770002A2A2A2A2A2A2A2A2A2A2A2A2A2A2A2A89
:105780002A2A2A2A2A2A2A2A2A2A2A2A2A2A2A2A79
:105790002A2A2A2A2A2A2A2A2A2A2A2A2A2A2A2A69
:1057A0002A2A2A2A2A2A2A2A2A2A2A2A2A2A0D0A96
:1057B0002A20202052656E65736173204653502065
:1057C0004578616D706C652050726F6A65637420F6
:1057D000666F7220725F6C706D204D6F64756C65C2
:1057E00020202020202020202020202020202020B9
:1057F0002020202020202020202020202020202A9F
:105800000D0A2A2020204578616D706C6520507249
:105810006F6A6563742056657273696F6E202573B5
:105820002020202020202020202020202020202078
:105830002020202020202020202020202020202068
:105840002020202020202020202020202020202058
:105850002A0D0A2A202020466C657820536F667432
:1058600077617265205061636B2056657273696F52
:105870006E202025642E25642E25642020202020E3
:105880002020202020202020202020202020202018
:105890002020202020202020202020202020202008
:1058A00020202020202A0D0A2A2A2A2A2A2A2A2AC7
:1058B0002A2A2A2A2A2A2A2A2A2A2A2A2A2A2A2A48
:1058C0002A2A2A2A2A2A2A2A2A2A2A2A2A2A2A2A38
:1058D0002A2A2A2A2A2A2A2A2A2A2A2A2A2A2A2A28
:1058E0002A2A2A2A2A2A2A2A2A2A2A2A2A2A2A2A18
:1058F0002A2A2A2A2A2A2A2A000D0A507265737334
:1059000020533120627574746F6E206F722077613E
:105910006974203130207365636F6E647320746F17
:10592000207374617274204C504D206F70657261E9
:1059300074696E672073657175656E63650D0A0025
:105940006C706D5F6F7065726174696F6E006C7002
:105950006D5F656E7465725F70726F63656475729A
:1059600065204661696C65640D0A006C706D5F6549
:10597000705F73746172747570204661696C6564E0
:105980000D0A00525F494F504F52545F50696E7379
:1059900043666720415049204661696C65640D0A81
:1059A000006C706D5F656E7465725F70726F6365B9
:1059B00064757265005B4552525D20496E204675E4
:1059C0006E6374696F6E3A20257328292C20257325
:1059D000000D0A4D435520656E7465727320446551
:1059E0006570205357205374616E646279206D6F27
:1059F00064650D0A00525F554C50545F52657365E3
:105A00007420415049204661696C65640D0A000D9F
:105A10000A52657475726E6564204572726F7220E9
:105A2000436F64653A2030782578200D0A000D0A0E
:105A30004D435520656E7465727320536C656570B7
:105A4000206D6F64650D0A00525F4943555F4578CC
:105A50007465726E616C4972714F70656E20415051
:105A600049204661696C65640D0A006C706D5F6564
:105A70007869745F70726F636564757265006C70CD
:105A80006D5F6F7065726174696F6E204661696CDD
:105A900065640D0A00525F4C504D5F436C6F736537
:105AA00020415049204661696C65640D0A000D0A69
:105AB0004D435520656E7465727320446565702092
:105AC000536C656570206D6F64650D0A006E616EC4
:105AD00000756172745F696E6974204661696C65F6
