:10000000E809FE1FE929000065080000F529000045
:10001000F5290000F5290000F5290000F529000068
:10002000000000000000000000000000F5290000B2
:10003000F529000000000000F5290000F529000066
:10004000B12200002D230000B52300004924000048
:10005000B12200002D230000B52300004924000038
:10006000000AFE1F6114FE1F000000032000FE1F97
:100070002000FE1F00001040000002032000FE1FB1
:10008000E801FE1F40040000000001030100000021
:0C00900060000000020000006C00000096
:08040000FFFFFFFFFFFDFFFFFE
:100440000000081000000000000000000000000094
:100450000000101800000000000000000000000074
:100460000000081000000000000000000000000074
:100470000000101800000000000000000000000054
:1004800000000000FFFFFF0000000000000000006F
:10049000000000000000000000000000000000005C
:1004A000000000000000000000000000000000004C
:1004B000000000000000000000000000000000003C
:1004C000000000000000000000000000000000002C
:1004D000000000000000000000000000000000001C
:1004E000000000000000000000000000000000000C
:1004F00000000000000000000000000000000000FC
:1005000000000000000000000000000000000000EB
:1005100000000000000000000000000000000000DB
:1005200000000000000000000000000000000000CB
:1005300000000000000000000000000000000000BB
:1005400000000000000000000000000000000000AB
:10055000000000000000000000000000000000009B
:10056000000000000000000000000000000000008B
:10057000000000000000000000000000000000007B
:10058000000000000000000000000000000000006B
:10059000000000000000000000000000000000005B
:1005A000000000000000000000000000000000004B
:1005B000000000000000000000000000000000003B
:1005C000000000000000000000000000000000002B
:1005D000000000000000000000000000000000001B
:1005E000000000000000000000000000000000000B
:1005F00000000000000000000000000000000000FB
:1006000000000000000000003C493B4A887909686E
:1006100052F82000090E01F00701C840384908606F
:1006200070470000F0B43748374A384C384E4AF229
:1006300003530380002111804FF400422E49354BB3
:100640000B608A600022344BCB600A614C60334BF4
:100650002A4A4B6109279479156851F82440284BA0
:100660002D0E05F00705EC401C6020252C4C45752F
:100670002770012535704FF0060C84F803C0002464
:100680009474147FC4F3C004002CFAD04FF43C548B
:10069000148100259572147FC4F34014002CFAD005
:1006A0000225194C1F4E25771660052797719579FD
:1006B000126851F82510120E02F00702D14019609D
:1006C0004FF4254202800120A080A0880028FCD1A0
:1006D00001212180F0BC704780B5134A00211170C0
:1006E000012000F045F81148002101700120BDE80B
:1006F000024000F01DB80000E809FE1F20E00140A4
:100700005C14FE1FFEE3014000C1014000127A00AC
:1007100080E40140002D310180969800001C4E0EAF
:10072000A2E001402112022128400440BBE4014024
:10073000EFF31082012181F310881C4B33F8101065
:1007400029B133F81010A1F1010C23F810C033F8CF
:10075000101049B916490FF25C0C0B883CF81000D8
:1007600043F4254383430B8082F3108870470000D5
:1007700070B4EFF31082012181F310880B4B33F832
:10078000101049B9DFF828400AA6258836F810105D
:100790000D4345F42545258033F81010491C23F8F6
:1007A000101082F3108870BC70470000580AFE1FBA
:1007B000FEE30140010002000800100020000000DC
:1007C00020B103490A680260002070470120704789
:1007D000DC350000B8B448431A491B4B0A689A42FA
:1007E0000FD31A491A4D8A18A2FB0554640DA4FBB5
:1007F00000010123994221D208B1B2BC2CE0B1BC66
:100800007047144BB3FBF2FC4FF47A740021A4FB45
:10081000002314FB01330127BB4203D2B2FBFCF0DF
:100820008008E9E74FEA8C03B0FBF3F20023A4FB56
:10083000020114FB0311B94200D8DDD34FF0FF30A1
:10084000DBE700005C14FE1F00127A00FF083D0089
:1008500006BD378600CA9A3B01380028FCD1704794
:1008600070470000F8B50C4C0A4F2588208C0540D5
:10087000002625FA06F0C00703D5396809B1F0B2A1
:100880008847761C3F1DF0B20D28F2DB2582F1BDB2
:1008900000000000000AFE1F206100401449B1F969
:1008A000000008B1134A1060B1F9020008B1114A02
:1008B0005060B1F9040008B10E4A9060B1F9060029
:1008C00008B10C4AD060B1F9080008B1094A1061BA
:1008D000B1F90A0008B1074A5061B1F90C0008B13A
:1008E000044A9061B1F90E0008B10249C86170472D
:1008F00078350000006300402DE9F04799A16B4E68
:10090000086892B04021019002A800F02DF901A8DA
:10091000FFF756FF3146002000F032FB06F1480198
:10092000002000F02DFB60A206F19001002000F0F5
:1009300027FB9DF805009DF806309DF807200090E4
:1009400006F1D401002000F01BFB3146002000F02E
:1009500017FB06F59071002000F012FB06F5D07130
:10096000002000F00DFB00F021FB04000CD000BFC4
:1009700051A1002000F004FB54B1224655A10020F3
:1009800000F0FEFA00BE03E05AA1002000F0F8FAE1
:1009900006F52E773946002000F0F2FA06F5387891
:1009A0004146002000F0ECFA0FF268194946002099
:1009B00000F0E6FA0FF2781A51460AE006F54171A6
:1009C000002000F0DDFA00F081FD002C3BD106F59F
:1009D0007571002000F0D4FA00F089FF0028FBD0E8
:1009E000402202A9002000F032FF02A801F045F8E1
:1009F000C5B2012D04D03FD3032D1BD00AD33BE059
:100A000000F01EFB0400D9D106F54C71002000F067
:100A1000B7FADCE700F028FC040008D006F55871AE
:100A2000002000F0ADFA00F051FD64B9CFE706F503
:100A30006171EBE700F018FD040010D041A1002027
:100A400000F09EFA84B1224622A1002000F098FA1C
:100A500000BE002DC0D0032DB9DBBDD104E006F5EA
:100A60006C71002000F08CFA06F58161002000F026
:100A700087FA12B0BDE8F0873946002000F080FA0E
:100A80004146002000F07CFA4946002000F078FA48
:100A90005146002000F074FADBE7022803D1044934
:100AA000044801F01DB87047312E3000FC2B0000C7
:100AB00058300000640AFE1F0D0A202A2A205350D5
:100AC0004920494E4954204641494C4544202A2A50
:100AD000200D0A000D0A52657475726E656420451A
:100AE00072726F7220436F64653A203078257820E7
:100AF000200D0A000D0A202A2A2053504920494E71
:100B00004954205355434345535346554C202A2AB4
:100B1000200D0A000D0A5072657373203220666F33
:100B2000722057726974655265616428290000005B
:100B30000D0A5072657373203320746F20457869F5
:100B4000740D0A002A2A2053504920455849542040
:100B500044656D6F206661696C6564202A2A200DEA
:100B60000A00000000000000002201F05BB8000055
:100B700038B50446A0686368421C934205D32568D3
:100B80002954A260E068401CE060A268606882426C
:100B90000CD12168206900F092FEA168884203D040
:100BA0004FF0FF30E06031BD0021A16031BD2DE983
:100BB000F84F0746884691469A460125012002E0F3
:100BC000B1FBF9F1401C4945FAD20B9E824528BF82
:100BD00050460090F0070A9C17D4B4B1B00702D574
:100BE000BAF1000F02D04FF0200B0BE04FF0300BAA
:100BF00008E059463846FFF7BBFFF868641E002836
:100C000003D454B10098A042F3D3F96800292FD43B
:100C100003E0AAF1010A09FB05F5BAF1010FF8D8C2
:100C2000B8FBF5F0484528BF09FB05F5F8D20FF2EF
:100C30006C31B8FBF5F005FB1088095C3846FFF70E
:100C400097FFF868002803D4B5FBF9F5002DEED125
:100C5000F0070DD564B1009DA54209D22021384688
:100C6000FFF786FFF868641E002801D4002CF3D13A
:100C7000BDE8F18F2DE9F04F97B083460E4607A8E7
:100C800040210023029003910493CDF818B00593FE
:100C9000174616F8010B002800F05F81252840F068
:100CA0005481002502E045F00105761C30782328A8
:100CB0000CD02B2807D02D28F5D0302808BF45F0C0
:100CC0000205F2D005E045F00405EEE745F0080521
:100CD000EBE7002406E004EB840100EB4100761C06
:100CE000A0F1300431780846A0F130020A2AF2D38C
:100CF00000202E29804617D116F8011F2A290ED16F
:100D0000396851F8048B3960761C01200CE008EB3F
:100D1000880201EB42010120761CA1F130083178F4
:100D2000A1F130020A2AF2D3317801E016F8011F4E
:100D30006C2918BF6829F9D0252900F001815829AC
:100D400000F0B98063290ED0642912D0702900F018
:100D5000EA80732900F0B780752900F0A380782914
:100D600000F0A980EFE038680168021D3A60C9B25E
:100D7000E6E0386850F8049B38604846002848BFD1
:100D80004042012106E07D4A80FB0232901000EBD8
:100D9000D070491C0A28F6DAC246884538BF8A4610
:100DA0002CB1B9F1000F01D4680700D5641EA80763
:100DB00002D5B8F1000F27D0E80725D424B3A24507
:100DC00022D20499039A641E481C824207D2049AD4
:100DD000039882420BD00598002813D514E0029B9B
:100DE00020225A5404900598401C0590EFE7029980
:100DF000069800F064FD0499884204BF0020049026
:100E0000E9D040E024B1DAE70598002800F19B80A2
:100E1000B9F1000F03D5C9F100092D2102E06807DF
:100E200007D52B2102A8FFF7A3FE0598002800F1A3
:100E30008A8005F00301022908BFB8F1000F2BD109
:100E400054B3A24525D20499039A641E481C8242D9
:100E500007D2049A039882420BD00598002816D531
:100E600017E0029B30225A5404900598401C0590CC
:100E7000EFE70299069800F022FD0499884204BF2A
:100E800000200490E9D04FF0FF30059072E01CB1D3
:100E9000D7E70598002856D40195009443460A22C6
:100EA000494649E0386850F8041B386001950094C1
:100EB00043460A2240E0386850F8041B3860019528
:100EC0000094434637E0396851F8044B39600CB957
:100ED00030A40020054614F8010BA0B315B1B8F1F9
:100EE000000F30D0049A039B511C8B4209D2049A04
:100EF000039882420CD005980028A8F10108EAD591
:100F000021E0029B985404910598401C0590EEE75F
:100F10000299069800F0D3FC0499884204BF00208F
:100F20000490E8D0AFE7386850F8041B386000221E
:100F3000082301920093102202A8FFF738FE02E076
:100F400002A8FFF715FE761C03E0014602A8FFF792
:100F50000FFE059800287FF59CAE0598002809DD56
:100F6000049A1AB107A9584600F0A9FC05990498FB
:100F700041180591059817B0BDE8F08F6766666661
:100F80000CB480B502AB00936A46FFF773FE02BC57
:100F90005DF80CFB284E554C4C29000030313233A3
:100FA0003435363738394142434445462DE9F84314
:100FB000DFF85055DFF85015284600F071FE0400A8
:100FC0000DD0DFF848350FF270520FF27851002043
:100FD000FFF7D6FF284600F0D4FF28BB2DE0DFF84E
:100FE0003065DFF83015304600F05AFE040024D09A
:100FF0000FF250570FF24058DFF8109509F16403D3
:10100000424639460020FFF7BBFF304600F0B9FFEB
:1010100030B109F19403424639460020FFF7B0FF92
:10102000284600F0AEFF40B1DFF8EC340FF2085272
:101030000FF210510020FFF7A3FF2046BDE8F28316
:101040002DE9F84FDFF8D45420212846FFF78CFD16
:10105000DFF8CC6406F1880B20215846FFF784FDA9
:1010600006F5847820214046FFF77EFDDFF8B414B2
:10107000002001E00FF2FC41FFF782FF00F037FC97
:101080000028FBD080222946002000F0E0FB002849
:10109000F0D0401E10F0030F10D18408002045F856
:1010A00024001F23DFF8689422464146484600F09A
:1010B0004EFF070005D00FF2CC430EE08008441C21
:1010C000EFE7DFF840A41F2322462946504600F0F0
:1010D00044FF07000BD00FF2C8430FF284420FF217
:1010E00064410020FFF74CFF3846BDE8F28F3078AE
:1010F00001280CD07068401E7060706800284ED0C7
:10110000317802291CBF70780228F0D162E0707833
:101110000128EFD16FF07F47776000203070002109
:101120007170DFF80414FFF72BFF1F23224641469E
:10113000484600F012FF5FEA00080BD00FF2804330
:101140000FF21C420FF2FC310020FFF719FF40465E
:10115000BDE8F28F1F2322465946504600F0F7FEA5
:101160005FEA000B0BD00FF278430FF2F4320FF26C
:10117000D4310020FFF704FF5846BDE8F28F3078E5
:10118000012808D07068401E7060706838B13178EE
:1011900002291CD11EE070780128F3D133E0DFF87A
:1011A00084630FF2BC320FF29C3106F15003002031
:1011B000FFF7E6FE06F568710020FFF7E1FE0FF28B
:1011C000A0410020FFF7DCFE1420BDE8F28F70780C
:1011D0000228D4D1DFF84C630FF284320FF264316D
:1011E00006F150030020FFF7CBFE06F568710020E2
:1011F000FFF7C6FE0FF268410020FFF7C1FE4FF473
:101200009670BDE8F28F7760002030700021717019
:101210008836C44F07F1B401FFF7B2FE22463146CB
:10122000284601F06FF958B9324607F1E401FFF79B
:10123000A7FEBE490120FFF7CDFA0020BDE8F28FDE
:1012400007F588710020FFF79BFE07F56871002005
:10125000FFF796FE0FF208410020FFF791FE40F2E3
:101260002F10BDE8F28F00002DE9FC47AB4E202186
:101270003046FFF779FCAA4FDFF8A89207F1880AF9
:1012800020215046FFF770FC202107F10800FFF7EE
:101290006BFC07F5847820214046FFF765FC09F5D3
:1012A000A471002001E00FF2CC21FFF769FE00F0ED
:1012B0001EFB0028FBD080223146002000F0C7FA38
:1012C0000028F0D0401E10F0030F2ED1840800201B
:1012D00046F8240009F5CC71002000E0A5A1FFF735
:1012E0004FFE00F004FB0028FBD0802207F108012C
:1012F000002000F0ACFA0028F0D0401E10F0030FE0
:1013000005D107F108018008002241F820201F20A4
:1013100000902346424607F108017D4800F024FE74
:10132000050005D009F5F4730EE08008441CD1E7F0
:101330001F200090234652463146724800F014FEAA
:1013400005000AD009F503730FF2B4227DA1002035
:10135000FFF716FE2846BDE8F6873878012808D042
:101360007868401E7860786838B13978022918D1D9
:101370001AE078780128F3D12CE009F50C7300BF4E
:101380000FF27C226FA1FFF7FBFD09F568710020C9
:10139000FFF7F6FDB2A10020FFF7F2FD1420BDE833
:1013A000F68778780228D8D109F50C730FF250220D
:1013B00064A10020FFF7E4FD09F568710020FFF744
:1013C000DFFD00BFA6A10020FFF7DAFD4FF4967005
:1013D000BDE8F6876FF07F40786000213970002209
:1013E0007A7009F518710020FFF7CAFD09F524711C
:1013F0000020FFF7C5FD07F188052246294607F1C1
:10140000080001F07FF8B0B92A4609F53071FFF7FE
:10141000B7FD22464146304601F074F870B94246A5
:1014200009F54C71FFF7ACFD40490120FFF7D2F9F7
:101430000020BDE8F68709F53A7301E009F5567317
:101440000FF2BC123FA10020FFF79AFD09F5687169
:101450000020FFF795FD00BF81A10020FFF790FD60
:1014600040F22F10BDE8F68710B5264800F089FD40
:10147000040008D00FF2A8130FF2941231A100203B
:10148000FFF77EFD0CE0224800F07BFD040007D052
:101490000FF2AC130FF278122AA10020FFF770FDB3
:1014A000204610BD0179012903D11D490120087092
:1014B00070471B48022202707047017901290CBF56
:1014C00001200220164948707047000080B50D4881
:1014D00000F057FD30B1164B0FF29C1219A10020FD
:1014E000FFF74EFD0A4800F04CFD48B1BDE8005042
:1014F000DFF840300FF2801212A10020FFF740BD4C
:1015000001BD0000BC0AFE1FD82B00009030000077
:101510007C0AFE1F7C2B0000C0300000DC13FE1F85
:101520006000FE1F54310000D431000040420F0023
:10153000203500004C3500007370695F696E697476
:10154000000000005B4552525D20496E2046756EDA
:101550006374696F6E3A20257328292C2025730047
:101560007370695F77726974655F616E645F7265DD
:10157000616400000D0A4E6F20496E7075740D0A8B
:10158000000000000D0A536C61766520525F5350D5
:10159000495F526561642829206661696C65640051
:1015A0000D0A4D617374657220525F5350495F5745
:1015B000726974652829206661696C6564000000A1
:1015C0000D0A536C61766520525F5350495F577224
:1015D0006974652829206661696C656400000000F3
:1015E0000D0A4D617374657220525F5350495F520A
:1015F0006561642829206661696C656400000000EB
:101600007370695F77726974655F72656164000009
:101610007370695F657869745F64656D6F00000061
:101620000D0A4D617374657220525F5350495F43D8
:101630006C6F73652829206661696C656400000021
:101640000D0A536C61766520525F5350495F436CBD
:101650006F73652829206661696C6564000000006D
:101660000D0A526573657420746865204D43552ECC
:101670002E2E0D0A000000007370695F636C6561B7
:101680006E5F757000000000F8B5DFF88C42A8218D
:10169000204600F069FF032222610320606104F10B
:1016A000A8010FF28420A061E1614FF40062226280
:1016B0000021A16200226262E1622066402104F6FC
:1016C000A8006066A166002020670021E16600286E
:1016D0006067BFF35F8F0FF25C2101F10F0201F130
:1016E0000F0312F8046904F8016B401C4542401CCA
:1016F00013F805C001F10F06474204F801CB401C66
:1017000016F807E004F801EB4542401C5E5D04F862
:10171000016B1028E5D3BFF35F8FF1BD2DE9F843CE
:1017200005468846EE6814464FF000092F69BE4210
:1017300031BFBF1BA868801B3F18A8687F1E801B95
:10174000874215D2A74288BF274668683A46414675
:10175000801900F00DFFA968E41BBE198E42B94440
:10176000B84407D0BFF35F8F002CEE60DED103E0FA
:101770000746E7E70026F5E74846BDE8F2830000A4
:101780002DE9F0410446E768A5681646ED1BAE4218
:10179000884607D26068C01900F0EAFEBFF35F8F89
:1017A000F6190DE063682A46D81900F0E1FE761BB1
:1017B0006068324608EB050100F0DAFEBFF35F8F88
:1017C000E660BDE8F08101460869CA68824201D33B
:1017D00000F0A4B89DE02DE9F843DFF83C51044641
:1017E000287888469146532818BFFFF74DFF04EB31
:1017F000440005EBC00000F1600600253769F4687D
:10180000BC4212D2B568ED1B4D4588BF4D4670688D
:10181000C1192A46404600F0ABFEB168EF19A84452
:10182000A9EB05098F4208BF0027E41B4C4588BF80
:101830004C463CB17068C1192246404600F098FE03
:101840006519E71905B137612846BDE8F28310B57F
:10185000EFF31184202383F31188FFF7BCFF84F397
:10186000118810BD70B50C461546DFF8AC1000EBC2
:10187000400201EBC20000F11806716919B102299A
:1018800013D006D318E03046FFF79DFFA84206D2DA
:1018900012E03046FFF797FFA84298BF05462A4658
:1018A00021463046FFF76CFF07E02A4621463046C6
:1018B000FFF734FF054600E00025284670BDF8B567
:1018C0000546DFF854000E4601781746532918BF25
:1018D000FFF7DAFEEFF31184202080F311883A46F7
:1018E00031462846FFF7BEFF84F31188F2BD10B5DC
:1018F000DFF824402078532818BFFFF7C5FE04F115
:1019000060000169C068814201D0012010BD002043
:1019100010BD801A401E7047F40AFE1F8968491ED8
:101920008A1A8018704700005465726D696E616C88
:1019300000000000000000000000545452205245F6
:1019400047474553000000002DE9F84F84B00BB124
:1019500000241C600446274600E07F1C3878A0F174
:101960000903052BF9D32028F7D02D2816BF2B28E3
:1019700017F8018B4FF02B08002A019103D4012A9C
:1019800001D0252A03DB002950D00C604EE0002A4C
:101990000ADD102A04BF3878302802BF787840F07A
:1019A000200078280ED10AE03878302818BF0A22A3
:1019B00008D1787840F02000782802D11022BF1C8E
:1019C00000E00822039700E07F1C38783028FBD025
:1019D000DFF81CB0FB440BF1180B4FF000090BF1C2
:1019E00028000297CA468DF8000015460BE000BF9C
:1019F000981B000006469DF80000361ACA46F6B24B
:101A000005FB09697F1C3978A1F141001A2838BF0C
:101A100020312A460BF1280000F0E6FD0028E9D12C
:101A20000399B94204D1019800B10460002020E07C
:101A300002991BF80500791A091A002910D406DC4E
:101A4000B9EB060603D3B6FBF5F0504508D0AFF36B
:101A50000080049808B1012101604FF0FF3904E0D3
:101A6000B8F12D0F08BFC9F10009019800B1076056
:101A7000484605B0BDE8F08F03E0FFE70A220021E9
:101A8000FAE7002360E70000EFF31081012282F300
:101A90001088DFF87421106838B9DFF8700100236E
:101AA00003704FF0400C80F800C01068401C1060BC
:101AB00013E0EFF31081012282F31088DFF8482150
:101AC000106810B113685B1E1360106828B9DFF846
:101AD0003C01002202708023037081F3108870475C
:101AE00080B5002818BF00290AD04A680AB90B88B7
:101AF00033B90368DFF81821934203D10E2002BDE9
:101B0000012002BD0260084600F002F8002002BD7C
:101B100038B5044600F031F8FFF7B6FF002509E0BC
:101B2000606850F83510001D30F8350000F008F8F6
:101B30006D1CADB220888542F2DBBDE83140B8E7CC
:101B400030B4CA030FD5334B040A03EB841300F0FF
:101B5000FF0203EB8204256825F48035256021F41B
:101B6000803443F82240030A2A4A02EB831400F02F
:101B7000FF0044F8201030BC70472DE9F0474FF0CB
:101B8000000A002519E0244F3A780126A640F1B258
:101B90000A4009DD0120FEF7EBFD397821EA06064F
:101BA0003E700120FEF7C4FD641C032C09F10209FC
:101BB0000AD340460AF1010A083501888A4520D235
:101BC00000240FF258098046D8F80400B9F8002024
:101BD000031D595B9142E7D1405900F0F850B0F134
:101BE000807F18BFB0F1106FCDD10B4F397801262F
:101BF000A6403142D8D10120FEF7BAFD387806431D
:101C0000CEE7BDE8F0870000340AFE1F030D044054
:101C100054524F5000080440BBE401400204030446
:101C20000404000000B500BF130096469446103926
:101C300028BFA0E80C50FAD85FEA417C28BF0CC04E
:101C400048BF40F8042BC90728BF20F8022B48BF23
:101C500000F8012B00BD0000012200F01F01DFF899
:101C600078388A40400943F82020704718B401466C
:101C7000DFF8682802EB81031C6824F480341C60C0
:101C800052F82110BFF35F8FDFF85438012200F0C3
:101C90001F018A40440943F8242012BCDCE70000FD
:101CA0002DE9F04F040083B00D4623D02068DFF803
:101CB0003488404519D0002D1CBFA869002819D0D0
:101CC000286AB8B12878012811D895F9031000299D
:101CD0005CBF95F9041000290CD4697A01290BD155
:101CE000A97A012908D006202EE10E202CE140F22D
:101CF0007A5029E1012027E1DFF8EC672F6906EB34
:101D000000204FF0000900F1040A77B179680A68F1
:101D10004FF0006010600B68C3F808A0BB6838681B
:101D20001A6890475FEA000916D16A69A2B1516842
:101D30000B684FF400201860D1F80090C9F804A097
:101D4000936810681A6890475FEA000908D01FB1CD
:101D5000BA683868116A8847B9F1000F40F0F2801C
:101D600065600022A86960620020E969E162A06202
:101D700000236168087806EB0026A6600021D4F8ED
:101D800004E09EF809008946002807BFB8251027FF
:101D9000B02500279EF80A609EF80B0046EA400036
:101DA0009EF80D60DEF820E040EA063C9EF8000058
:101DB00080B9666870564FF0010A0AFA00F010F018
:101DC000030F09D0707A00280CBF8020002040EA61
:101DD0000C0C01E045F001059EF80100460125EAE2
:101DE000C01546EA4006354302952CF070069EF871
:101DF00003009EF80250854046EA001C9EF804004D
:101E000018B12021022808BF30219EF8050028B112
:101E100047F00107012808BF47F002079EF8066057
:101E200001969EF80800666800F003004CEA800CFA
:101E3000707A38B99EF80B909EF80A309EF8092007
:101E40004CF4604CEFF31086012080F31088DFF82B
:101E50009CA6DAF800B0CDF800B0D4F804B09BF836
:101E600000B0CBF1130B00FA0BFB009820EA0B0B30
:101E7000CAF800B0DAF8000086F31088A068C678C7
:101E80004FF0000A80F803A0A66802983070A0689E
:101E90004570A568A970A1689EF807008872A068BF
:101EA0000273A1684B73A06880F80E90A168CF738D
:101EB000A068A0F810C0A068019980F8201062689E
:101EC00092F9020001000CD49279DFF82436DFF891
:101ED00024768146120103F8092047F82140FFF7D4
:101EE000C5FE626892F9010001000CD45279DFF856
:101EF0000036DFF800768146120103F8092047F822
:101F00002140FFF7B3FE6168DFF8E49591F9040022
:101F1000097ADFF8E0750246090109F80210034664
:101F200047F82340FFF7A2FE616891F90300C979E1
:101F30000246090109F8021047F82040C4F8008061
:101F4000002001E0484600BF03B0BDE8F08F80B537
:101F5000009313460A46002103E080B50093134620
:101F6000002200F077F802BD1CB5002918BF002A36
:101F700005D09DF81040009400F06CF816BD0120CB
:101F800016BD10B5040061D02068DFF858158842EE
:101F90005ED1002222606068416919B18A680868D0
:101FA000116A88476068016919B18A680868116A0E
:101FB0008847626892F9021008000CD4012201F0EF
:101FC0001F00DFF834358240490943F82120BFF370
:101FD0004F8FBFF36F8F616891F9011008000CD427
:101FE000012201F01F00DFF810358240490943F853
:101FF0002120BFF34F8FBFF36F8F01216068DFF89F
:10200000F82490F9030000F01F0301FA03F34009DC
:1020100042F82030BFF34F8FBFF36F8F636893F99F
:10202000043003F01F0081405B0942F82310BFF326
:102030004F8FBFF36F8F0022A068017801F0BF01BE
:102040000170A068C178C270002010BD012010BDD1
:10205000072010BDF8B5060084B00C4615461F4693
:1020600054D03068DFF87C1488424CD1002C0CBF6F
:10207000002D002F4AD07068426952B193681068F1
:10208000DA6969469047002840F0F2800298B84229
:102090003CD371680A6952B193681068DA6969467D
:1020A0009047002840F0E4800298B8422ED30A9866
:1020B000C1B207292ADB102903DB491C11F0030FE9
:1020C00024D1C1B21B2921D0B1680A78530620D48B
:1020D00000217161B16186F82000F4603561F7611B
:1020E00071684869002851D096F82000B76110281F
:1020F00012DB7068416948680068C17801F0CF015F
:1021000041F0200113E0072005B0F0BD012005B02B
:10211000F0BD082005B0F0BD082870684169486826
:102120000068C17801F0CF01A8BF41F01001C17073
:102130007068416948680068817801F0F30141F0F6
:10214000080181707068416948680268D7817068C9
:10215000416948680268956075B970684169486866
:102160000068817801F0F3018170DFF890037168F5
:102170004A6951680B6898607068426950680168E4
:10218000936810685A689047002871D1716808698F
:10219000002849D096F820007761102808DB0969EB
:1021A00048680068C17801F0CF0141F0200109E0E2
:1021B0000969082848680068C17801F0CF01A8BF04
:1021C00041F01001C1707068016948680068C17809
:1021D00001F0F30141F00801C170706801694868BD
:1021E0000268D781706801694868026854606CB9F8
:1021F0007068016948680068C17801F0F301C17036
:10220000BF4871680A6951680B685860B068017806
:1022100001F0DF010170706802695068016893681D
:1022200010685A68904718BBB068C37A018A96F85C
:102230002020102A03DB012464F3461305E0082A5A
:10224000B4BF43F0400323F06003102A02D3521CB2
:102250009208521FC3724FF2FF00014041EA02216F
:10226000B2681182B068017841F06001017000200D
:1022700005B0F0BDF0B5044683B0A06A00280FBFDA
:1022800068466A4690E8680082E8680067683A78BD
:1022900002600171E36A8360616A8847A06A20B1C5
:1022A000694691E81C0080E81C0003B0F0BD000006
:1022B00010B4EFF30380103840B2884901EB80027C
:1022C000136823F48033136051F82010894951F8C2
:1022D00020108A69C869824217D0086910B98868D5
:1022E000436810E091F82030102B04DB8B685C68A9
:1022F00040F8224007E0082B8B68B9BF1C79845452
:102300009C8820F81240521C8A618869CA699042F0
:102310000AD1486890F903106F4B012201F01F00A9
:102320008240490943F8212010BC704710B5EFF3F3
:102330000380103840B2694901EB8002136823F42E
:102340008033136051F820106A4951F820406168C9
:10235000086A90B1407801280FD16069E269401C99
:10236000904204D191F90300FFF780FC05E0086971
:1023700018B191F90300FFF76FFC6169E0698142D0
:1023800016D0E06828B194F82020102A04DB50F819
:102390002100A268506009E0082A03DAA268405CC4
:1023A000107103E0A26830F811009080491C61614F
:1023B00010BD000038B5EFF30380103840B201467D
:1023C000464A02EB81031C6824F480341C6052F8F6
:1023D0002110484951F82040A168CA78C2F3400151
:1023E00000291EBF61684A7A012A2CD14249012284
:1023F00000F01F0302FA03F3400941F82030BFF355
:102400004F8FBFF36F8F606890F902301D0009D4C1
:1024100003F01F0082405B0941F82320BFF34F8F78
:10242000BFF36F8FA068017801F0BF010170606891
:1024300090F90200010058BFFFF718FC2046BDE8E4
:102440003440012116E731BD70B5EFF30380A0F1F0
:102450001004284864B250F82450696891F90210B9
:1024600008000BD4012201F01F00234B82404909D0
:1024700043F82120BFF34F8FBFF36F8FA868017817
:1024800001F0BF010170686890F90200010058BFB7
:10249000FFF7ECFBA868C67800213207C17003D5AE
:1024A00005212846FFF7E6FEF00703D5042128465C
:1024B000FFF7E0FE06F01406142E03D1082128468B
:1024C000FFF7D8FE054800EB84010A6822F4803249
:1024D0000A6050F8240070BD00E100E00063004095
:1024E00080E200E049505352002007400070044051
:1024F00000E400E0380AFE1F80E100E0EC0AFE1F65
:10250000F00AFE1F0300002013F0030F09D0521E33
:1025100022BF13F8010B11F801CBB0EB0C00F3D084
:102520007047121F22BF53F8040B51F804CB6045CB
:10253000F7D0121D0AD200BA9CFA8CFCB0EB0C004A
:1025400038BF6FF0000088BF01207047521E22BFC5
:1025500013F8010B11F801CBB0EB0C00F6D0521CB4
:1025600008BF104670470000002200F069B8000064
:1025700062B38B0708D0521E11F8013B00F8013BF3
:1025800000F024808B07F6D1830740F0208000BF45
:10259000103A07D330B4B1E83810103AA0E8381038
:1025A000F9D230BC530724BFB1E80810A0E80810E6
:1025B00044BF51F8043B40F8043BD20724BF31F834
:1025C000022B20F8022B44BF0B7803707047083AA7
:1025D00007D3B1E80810083A40F8043B40F804CBB0
:1025E000F7D25307E4E70000C9B2830706D0521EB2
:1025F00022D310F8013B9942F7D11FE0083A13D3D8
:1026000002F1040241EA012141EA014150F8043B90
:10261000121F21BF4B40A3F1013C2CEA030C1CF01C
:10262000803FF3D0C9B2001F0832521E24BF10F8F9
:10263000013B91EA030FF8D818BF0120401E7047F4
:10264000401810F0030308D0C91A1FD3DB0748BF96
:1026500000F8012D28BF20F8022D130030B41446D5
:102660001546103928BF20E93C00FAD8490728BF91
:1026700020E90C0048BF40F8042D890028BF20F84D
:10268000022D48BF00F8012D30BC7047C91818BF93
:1026900000F8012DCB0728BF00F8012D704700007E
:1026A000F8B504000D463AD02068B94EB04234D097
:1026B000002D1CBF6868002831D0B6490878B0B931
:1026C00001220A70EFF3108082F31088B2490A6881
:1026D00022F480020A60096880F31088AF4F20213D
:1026E0003846FEF741FAAE48076001220272686878
:1026F00090F90010002914D4A84A52F8210090B98A
:102700002171286830B100F053F928B929682046B2
:1027100000F021F926600020F2BD0E20F2BD01205C
:10272000F2BD0B20F2BD0820F2BD38B504000D4605
:1027300011D02068964988420BD165B1284600F037
:1027400037F940B9E878C0F30110032805D1062015
:1027500032BD072032BD012032BD94F904109148EA
:1027600000EB81009049026822F08072026094F9C7
:10277000040040F400400A888242FCD029462046EA
:1027800000F0E9F8204600F0A6F800B1132032BDB1
:1027900076B538B301687E4A914225D190F904108C
:1027A0007E4A804C52F8212004EB81017F4C0D6859
:1027B00025F080750D6090F9041041F40041E58921
:1027C0008D42FCD008262670009909B1009951600D
:1027D000019909B101999160D1788909022905D13E
:1027E000938105E0012076BD072076BD01B9D38134
:1027F0001821217000F06FF800B1132076BD06207B
:1028000070470620704720B10168614A914202D1A9
:1028100061E0012070470720704770B101685C4A91
:1028200091420CD190F904005E4B03EB80000168EB
:1028300021F080710160002070470120704707205F
:10284000704770B4D8B10268514B9A4214D1B1B1FB
:10285000524A90F9040052F82020D0780023002436
:1028600080090FD1D6894FF480350B604C608D60A4
:10287000CE60002070BC704770BC0720704770BCF1
:1028800001207047D68902284FF4807506F0FF06B4
:10289000EBD194894FF48033E7E706207047062098
:1028A0007047A0B101683A4A914212D190F90410E0
:1028B0003C4ADFF8E8C002EB8102136823F0807322
:1028C000136000224CF82120026000207047012094
:1028D00070470720704710B490F904102F4850F843
:1028E0002120121D12F8010CC0F3810001281EBF27
:1028F00012F8020CC0F38100012829D0106820B31F
:10290000506810B3506812F8013C0124C3F301135E
:1029100004FA03F35B1E184217D1106812F8013C49
:10292000C3F301139C40641E20420ED1103212F8F2
:10293000120C8009D6D11B4800EB8100016841F0E0
:1029400080710160002010BC704710BC01207047EE
:1029500010BC0620704701F10E0313F80B2C9209EE
:1029600004D01A88D2B242EA02221A80103313F835
:102970001C2C9209F1D10D4ADFF820C008231370F6
:1029800090F904004CF820101821117070470000D5
:10299000004354446014FE1F1CE001400000FE1F71
:1029A00004540040006300400E54004000540040B6
:1029B000821C5078C0F3810101291EBF1178C1F338
:1029C0008103012B0BD0800904D0908940F20113C0
:1029D000984206DA10328909EBD1002070470620B0
:1029E000704701207047000080B500F02EF800F01D
:1029F00083F8FEE700BE7047F8B5334E34680546ED
:102A00007CB17768B868C0F30720854203D00C37E3
:102A1000641EF7D105E038687968091AFEF7A4F852
:102A2000F5E7B46884B1F668F068C0F30720854222
:102A300003D01036641EF7D1F1BD30687268B168FA
:102A4000121AFFF7A5FDF4E7F1BD80B51F49204B31
:102A5000204A4FF4700008601A600020FEF71DF84D
:102A6000FDF7E0FD0120FEF718F81B4800218180EA
:102A70004FF4254202801949194A816001F58063AB
:102A8000C3604FF480511180012383800020FFF741
:102A9000B3FFFDF7B9FDFDF71FFE0220FDF7FDFFB7
:102AA0000120FFF7A9FF0F4A0F491048FFF760FD0B
:102AB0000F49104800F026F8FDF7F0FEBDE802408F
:102AC000002000F02BB800008C00000088ED00E032
:102AD00008ED00E000000000000D0040E805FE1FCA
:102AE0002061004000000000000000000000000025
:102AF000000000000000000080B5FDF7FDFE002092
:102B000002BD000038B504460D46AC4205D0206831
:102B100020188047241DAC42F9D131BD7047000018
:102B20004EF68851CEF20001086840F4700008604B
:102B3000BFF34F8FBFF36F8F4FF00170E1EE100ABC
:102B4000704700002000FE1FD83500006C0AFE1FF1
:102B5000442B0000643000003000FE1FD935000017
:102B6000740AFE1F582B00006430000001000000B2
:102B70000000003B0000000000000000010405060A
:102B8000070202020201010001000000602B0000A8
:102B90004C2B0000BB140000000000006C2B000058
:102BA0004000FE1FDA350000AC0AFE1FA02B00001B
:102BB000643000005000FE1FDB350000B40AFE1F29
:102BC000B42B000064300000010000000000003B56
:102BD00000000000000000000000010203020202E9
:102BE0000200010001000000BC2B0000A82B000027
:102BF000A514000000000000C82B00000D0A2A2ABE
:102C00002A2A2A2A2A2A2A2A2A2A2A2A2A2A2A2A24
:102C10002A2A2A2A2A2A2A2A2A2A2A2A2A2A2A2A14
:102C20002A2A2A2A2A2A2A2A2A2A2A2A2A2A2A2A04
:102C30002A2A2A2A2A2A2A2A2A2A2A2A2A2A2A2AF4
:102C4000000000000D0A2A20202052656E65736185
:102C50007320465350204578616D706C652050722A
:102C60006F6A65637420666F7220725F737069208B
:102C70004D6F64756C6520202020202020202020AE
:102C8000202020202020202A000000000D0A2A20D9
:102C900020204578616D706C652050726F6A6563A5
:102CA000742056657273696F6E2025732020202072
:102CB0002020202020202020202020202020202014
:102CC0002020202020202020202020202020000044
:102CD0002A0D0A2A202020466C657820536F6674DE
:102CE00077617265205061636B2056657273696FFE
:102CF0006E202025642E25642E256420202020208F
:102D000020202020202020202020202020202020C3
:102D1000202020202020202A000000000D0A5265DB
:102D200066657220746F20726561646D652E7478BB
:102D3000742066696C6520666F72206D6F72652005
:102D400064657461696C73206F6E204578616D7085
:102D50006C652050726F6A65637420616E640D0A41
:102D600046535020557365722773204D616E75610F
:102D70006C20666F72206D6F726520696E666F726F
:102D80006D6174696F6E2061626F757420725F731C
:102D90007069206472697665720D0A000D0A5468C4
:102DA000652070726F6A65637420696E6974696109
:102DB0006C697A6573205350492064726976657234
:102DC00020616E6420636F6E66696775726573203B
:102DD000535049206368616E6E656C7320696E2084
:102DE0004D617374657220616E6420536C61766509
:102DF000206D6F64652E0D0A416674657220696EE0
:102E0000697469616C697A6174696F6E2C206D6197
:102E10007374657220616E6420736C6176652063E3
:102E2000616E207472616E736D697420616E6420CE
:102E3000726563656976652064617461206261739F
:102E40006564206F6E2074686520636F6D6D616EC0
:102E500064732066726F6D20757365722E0D0A5251
:102E60006566657220746F20746865204D43552037
:102E700055736572204D616E75616C20666F7220AE
:102E800076616C6964206269742072617465732074
:102E9000616E6420636F72726573706F6E64696EC9
:102EA0006720636C6F636B2073657474696E6773FE
:102EB0002E0D0A000D0A53656C6563742066726FEF
:102EC0006D207468652062656C6F77204D656E7546
:102ED000206F7074696F6E730D0A00000D0A5072D6
:102EE000657373203120666F72205772697465288C
:102EF0002920616E64205265616428290000000069
:102F00002A2A2053504920575249544520414E44C3
:102F100020524541442044656D6F206661696C65AF
:102F200064202A2A20200D0A000000000D0A2A2A07
:102F30002053504920575249544520414E44205275
:102F40004541442044656D6F205375636365737319
:102F500066756C2A2A20200D0A0000000D0A2A2A14
:102F6000205350492057524954452044656D6F20E5
:102F70006661696C6564202A2A20200D0A00000021
:102F80002A2A2053504920575249544520414E4443
:102F900020524541442044656D6F2053756363653D
:102FA000737366756C2A2A20200D0A002A2A205382
:102FB000504920455849542044656D6F207375630E
:102FC0006365737366756C202A2A200D0A00000061
:102FD0000D0A456E74657220616E79206F746865A4
:102FE00072206B657920746F20676F206261636B5C
:102FF00020746F20746865206D61696E206D656E48
:10300000750D0A001B5B313B33366D0D0A4578693F
:1030100074696E67205350492064656D6F2E2E2EA3
:103020002E0D0A1B5B306D00000001060001000040
:10303000000001060101000000000106020100007D
:103040000000010609010000000001060A0100005D
:10305000000001060B0100000600000028300000FF
:1030600000000000A12600002B270000912700008F
:10307000072800001B280000FF270000032800008D
:1030800043280000A32800009B2800009F28000080
:103090002A2A20525F5350495F4F70656E2041507D
:1030A0004920666F7220535049204D6173746572D8
:1030B000206661696C6564202A2A205C725C6E005F
:1030C0002A2A20525F5350495F436C6F7365204139
:1030D000504920666F7220535049204D61737465CA
:1030E00072206661696C6564202A2A205C725C6EBD
:1030F000000000002A2A20525F5350495F4F70653C
:103100006E2041504920666F722053504920536C05
:10311000617665206661696C6564202A2A205C728C
:103120005C6E00002A2A20525F5350495F436C6F47
:1031300073652041504920666F72205350492053D7
:103140006C617665206661696C6564202A2A205C62
:10315000725C6E000D0A456E746572207465787439
:1031600020696E70757420666F72204D617374658E
:1031700072206275666665722E20446174612073E8
:10318000697A652073686F756C64206E6F74206552
:1031900078636565642036342062797465732E2007
:1031A0000D0A00000D0A535049206D6F64756C655F
:1031B00020626C6F636B656420696E20577269745E
:1031C000652F52656164206F7065726174696F6EFE
:1031D0002E0D0A000D0A4D617374657220747261C0
:1031E0006E736D6974746564207573657220696EA1
:1031F000707574206461746120746F20536C617603
:1032000065200D0A000000000D0A536C61766520F0
:103210007472616E736D697474656420746865207E
:1032200064617461206261636B20746F204D61730F
:10323000746572200D0A00000D0A4D617374657289
:1032400020726563656976656420646174613A1B08
:103250005B313B33326D202573200D0A1B5B306DD3
:10326000000000000D0A526563656976656420649C
:1032700061746120646F6573206E6F74206D61747A
:1032800063682077697468207472616E736D697405
:1032900074656420446174612E0D0A000D0A456E48
:1032A000746572207465787420696E707574206618
:1032B0006F72204D61737465722062756666657207
:1032C0002E20446174612073697A652073686F757C
:1032D0006C64206E6F742065786365656420363495
:1032E0002062797465732E0D0A0000000D0A456E88
:1032F000746572207465787420696E7075742066C8
:103300006F7220536C617665206275666665722EF9
:1033100020446174612073697A652073686F756CED
:1033200064206E6F74206578636565642036342090
:1033300062797465732E0D0A000000000D0A536C4B
:1033400061766520525F5350495F577269746552C8
:103350006561642829206661696C6564000000006D
:103360000D0A4D617374657220525F5350495F5767
:1033700072697465526561642829206661696C65AB
:10338000640000000D0A535049206D6F64756C6530
:10339000206661696C656420696E20577269746586
:1033A0002F52656164206F7065726174696F6E2E53
:1033B0000D0A00000D0A4D61737465722062756616
:1033C0006665722064617461207472616E736D69E8
:1033D0007474656420746F20536C617665200D0AE7
:1033E000000000000D0A536C617665206275666608
:1033F00065722064617461207472616E736D6974AA
:1034000074656420746F204D6173746572200D0AB9
:10341000000000000D0A4D617374657220726563CF
:10342000656976656420646174613A1B5B313B3386
:10343000326D2025730D0A1B5B306D000D0A4D6146
:103440007374657220726563656976656420646172
:10345000746120646F6573206E6F74206D61746396
:1034600068207769746820536C6176652074726196
:103470006E736D697474656420446174612E0D0A05
:10348000000000000D0A536C61766520726563656B
:103490006976656420646174613A1B5B313B333249
:1034A0006D2025730D0A1B5B306D00000D0A536CF7
:1034B0006176652072656365697665642064617410
:1034C0006120646F6573206E6F74206D6174636832
:1034D0002077697468204D6173746572207472611D
:1034E0006E736D697474656420446174612E0D0A95
:1034F000000000000D0A4572726F7220696E206331
:103500006F6E66696775726174696F6E206F722085
:10351000636F6E6E656374696F6E2E0D0A00000036
:103520002A2A20525F5350495F436C6F73652041D4
:10353000504920666F72206D6173746572206661F8
:10354000696C6564202A2A20200D0A002A2A20524C
:103550005F5350495F436C6F73652041504920664B
:103560006F7220736C617665206661696C6564209A
:103570002A2A20200D0A0000BC01BD01C001BF01A4
:10358000C101C201C501C40100002115110E0D0CBD
:103590000B0B0A0A0909090909080808080808089C
:1035A00007070707070707070707070707000000C0
:1035B00030313233343536373839616263646566A9
:1035C0006768696A6B6C6D6E6F7071727374757613
:1035D0007778797A000000000405000100000406F5
:1035E000362E342E300000004275696C74207769E5
:1035F00074682052656E6573617320416476616EF4
:1036000063656420466C657869626C6520536F66FB
:103610007477617265205061636B616765207665C0
:103620007273696F6E20362E342E30000000000059
:10363000000000000000000000000000000000008A
:10364000000000000000000000000000000000007A
:10365000000000000000000000000000000000006A
:10366000000000000000000000000000000000005A
:10367000000000000000000000000000000000004A
:10368000000000000000000000000000000000003A
:10369000000000000000000000000000000000002A
:1036A000000000000000000000000000000000001A
:1036B000000000000000000000000000000000000A
:1036C00000000000000000000000000000000000FA
:1036D00000000000000000000000000000000000EA
:1036E00000000000000000000000000000000000DA
:1036F00000000000000000000000000000000000CA
:1037000000000000000000000000000000000000B9
:1037100000000000000000000000000000000000A9
:103720000000000000000000000000000000000099
:103730000000000000000000000000000000000089
:103740000000000000000000000000000000000079
:103750000000000000000000000000000000000069
:103760000000000000000000000000000000000059
:103770000000000000000000000000000000000049
:103780000000000000000000000000000000000039
:103790000000000000000000000000000000000029
:1037A0000000000000000000000000000000000019
:1037B0000000000000000000000000000000000009
:1037C00000000000000000000000000000000000F9
:1037D00000000000000000000000000000000000E9
:1037E00000000000000000000000000000000000D9
:1037F00000000000000000000000000000000000C9
:04000005000029E9E5
:00000001FF
