:020000040200F8
:1000000040040022612A000231290002712A000204
:10001000712A0002712A0002712A0002712A00026C
:10002000000000000000000000000000712A000233
:10003000712A000200000000712A0002712A0002E9
:0C00400099110002A1120002A913000295
:10005000010100000000000000000000000000009E
:10006000000008A0000000000000000000000000E8
:10007000000010A8000000000000000000000000C8
:100080002DE9F04381B000EB400040F26C43C2F236
:100090000023154603EBC003894603F11808D86A0C
:1000A000022819D001280CD048B9D8F80C40D8F84B
:1000B0001000E143A04267D90844A8426AD2002652
:1000C00089E0D8F80C40D8F81010A14233D9E043A9
:1000D0000144D8F8080033E0D8F80C40002621E0AD
:1000E000D8F8081010440844091B884250EA3180AF
:1000F0004946A84250EA3587D8F8040020443A46D9
:1001000003F038FF3819D8F80810411AA5EB070595
:1001100050EA11843E44B944002DBFF35F8FC8F804
:100120000C4058D0D8F81000E243A042D8D910446F
:10013000D8F80810D8E7E243D8F808001144014481
:10014000A94251EA3586051BD8F804002044AE4286
:1001500009D24946324603F00DFFBFF35F8F3019D5
:10016000C8F80C0037E049462A4603F003FF771B26
:10017000D8F8040009EB05013A4603F0FBFEBFF393
:100180005F8FC8F80C7026E0D8F8082008441044A7
:10019000A84294D3D8E901010E1B2044B54209D2EC
:1001A00049462A4603F0E6FEBFF35F8F6019C8F8A0
:1001B0000C000FE04946324603F0DCFEAF1BD8F8D6
:1001C000040009EB06013A4603F0D4FEBFF35F8F4B
:1001D000C8F80C702E46304601B0BDE8F083D4D488
:1001E000F0B581B040F26C450C46C2F200252B7888
:1001F000532B37D00646A8212846174603F0B6FEF3
:1002000003202861686144F2466040F21451C0F254
:100210000020A861C2F20021E9614FF40061296267
:100220000021A9626962E96240F6145228664FF023
:10023000100E44F2FA00C2F200226A66C5F868E0C5
:100240002967E9666967BFF35F8FC0F200200F304E
:1002500010F8011905F8011B0FF007C03A463046A7
:10026000BFF35F8FEFF311854FF0200181F3118809
:100270002146FFF705FF85F3118801B0F0BDD4D406
:100280002DE9F04F9BB092460F464FF000090490C5
:100290001A900DF1580B002006A9169140211791D4
:1002A000CDE918990EE0011DCAF800100168CDE9EA
:1002B00000385846234600F01BFA1998B0F1FF3F6A
:1002C00040F3128217F8011B25291DD0002900F0E8
:1002D000FB81DDE91720431C934207D8169A11547D
:1002E00018931998179A0130199018469042E4D142
:1002F00016991A98FFF774FF1899884240F0DF8129
:10030000CDF86090D9E700BF4FF000083978A1F12F
:1003100023030D2B18D80222DFE803F00E16161661
:100320001616161610161216160748EA0208013796
:10033000ECE700BF00BF00BF0822F6E70422F4E7A5
:100340000122F2E700BF00BFA1F13A02002312F13F
:100350000A0F0FD30A4600BF17F8011F03EB8303F0
:10036000A1F13A0602EB430216F10B0FA2F13003A2
:100370000A46F1D82E290FD13A4612F8016F2A2EDB
:100380000DD1DAF8001002370A1DCAF800200C68F7
:1003900001211DE000BF00BF0021002418E0A6F1EC
:1003A0003A0717F10A0F02D2002100240FE00024BF
:1003B00012F8011F04EB8407A1F13A0506EB470789
:1003C00015F10B0FA7F130040E46F1D801211746A5
:1003D00017F8012B02F0FB06682EF9D0A2F158069F
:1003E000202E26D8DFE806F012111111111111117B
:1003F000111111163C1111111111111111111111BD
:100400006C11117911381111120056E7DAF8000059
:10041000102248E7DDE91720411CDAF8003091424C
:1004200003F10406CAF800603FF660AF169A1B6835
:100430000AE0252A7FF441AFDDE91720411C9142F3
:100440003FF654AF169A2523135418911998179A0A
:1004500001301990084649E7DAF800000A2222E73D
:10046000DAF800104CF6CD4C0A1DCAF800200A68D4
:1004700005925142002A48BF0A460A2ACCF6CC4CC3
:1004800003914FF0010107DBA2FB0C56632A01F137
:1004900001014FEAD602F7D88C4254EA81895E46C0
:1004A000002B58D0059908F0040200295FEA5F91FB
:1004B00041EA9201A3EB010B5FEA887550D473E027
:1004C000DAF800001022011DCAF8001001680823A4
:1004D0000820CDE900095846EDE6DAF80020131DA2
:1004E000CAF80030126844F25E33002AC0F20023DA
:1004F00052EA13865FEA01880BE000BF00BF00BF2D
:100500001998CDF86090B0F1FF3FA4F101047FF796
:10051000D4AE16F8011B002C5FEA188200293FF4C4
:10052000CCAE002A7FF4C9AEDDE917235D1C9542ED
:1005300007D81698C1542B461998179A0130189568
:1005400019909342DFD116991A98FFF749FE18992E
:100550008842D5D0B3E04FF0000B5FEA887523D511
:1005600014BB002800F1A7800598B0F1FF3F47DDDC
:100570005FEA487064D5DDE91720411C914208D834
:10058000169A2B23135418911998179A0130199021
:100590000846904254D116991A98FFF721FE1899EF
:1005A0008842059944D08AE05FEAC871D9D1BBF18D
:1005B000000FD6D0029502E00028AB467BD4ABF109
:1005C00001055D4538BFD94536D2DDE917214B1C01
:1005D000934208D816982022425419461998179A1F
:1005E0000130189319909142E6D116991A98FFF7A5
:1005F000F7FD1899884262D1002018901998DBE71E
:10060000DDE91720411C914208D8169A2D23135476
:1006100018911998179A01301990084690420DD1F7
:1006200016991A98FFF7DCFD18998842039946D16C
:1006300000201890059103E0029D92E70398059031
:100640001998002850D4002D0BD40A223046059961
:100650002346CDE900B8B34600F04AF84FF0000950
:100660002BE608F001012143EFD1BBF1000FECD0E4
:10067000ABF101055D4538BFD945E6D2DDE917216B
:100680004B1C934208D816983022425419461998A8
:10069000179A013018931990914209D116991A9816
:1006A000FFF79EFD1899884209D1002018901998EB
:1006B0000028AB46DCD54FF00009B346FDE54FF00E
:1006C000FF301BB0BDE8F08F40B1189A52B106A9B7
:1006D0000498FFF785FDDDE9181004E000201BB049
:1006E000BDE8F08F002108441BB0BDE8F08FD4D4E2
:1006F0002DE9F04F81B015468B4691421F460446C6
:10070000DDF828904FF0010007D3594600BF00BF25
:10071000B1FBF5F10130A942FAD2874257EA80884D
:10072000B9F1000F0B9938D011F0010035D18807CD
:100730004FF0200048BF30202021002F50EA0186D2
:100740004FF0000A06E000BFE068A9F10109B0F12E
:10075000FF3F22DDB9F1000F1FD0C8451DD2D4E9FB
:100760000120411C914207D822681654A160E0681C
:1007700062680130E06008469042E5D12168206956
:10078000FFF72EFDA168884202D1C4F808A0DBE77C
:100790004FF0FF30E060A9F10109E068002842D481
:1007A000012603E000BF00BF013F6E43022FFBD2D2
:1007B000BBFBF6F1A942F8D244F23477A268C0F24A
:1007C000002700BF00BF00BF6168531CBBFBF6FAE7
:1007D0008B4209D8206817F80A1081541A46E0683D
:1007E00061680130A360E0608A4209D12168206914
:1007F000FFF7F6FCA26890420CD10022E068A260EC
:1008000000280AD4B6FBF5F10AFB16BBB5420E462A
:10081000DAD902E04FF0FF30E0600B99C90718BF4A
:10082000B9F1000F02D101B0BDE8F08F2025A9F188
:1008300001064E4538BFC845F5D26168531C8B424E
:1008400007D8206885541A46E06861680130A360C3
:10085000E0608A4209D121682069FFF7C1FCA168E4
:10086000884207D10022E068A260B0F1FF3FB146A4
:10087000DDDCD8E74FF0FF30E06001B0BDE8F08F7D
:1008800082B080B582B0CDE9042304AA019201AA06
:10089000FFF7F6FC02B0BDE8804002B07047D4D448
:1008A00000F012B8D4D4D4D4022818BF704742F252
:1008B0002C5044F6B821C2F20020C0F2002100F012
:1008C000DFBDD4D4D4D4D4D484B0002003904FF668
:1008D000FF70029003A801F0DFFF9DF80F3044F293
:1008E000741144F297329DF80D709DF80E60C0F2BD
:1008F0000021C0F200220020CDE90067FFF7C0FF11
:1009000044F2D7310020C0F20021FFF7B9FF42F2D4
:10091000645044F60401C2F20020C0F2002100F04D
:100920004FFAC0B144F2BB3144F2A16244F24A33FF
:100930000446C0F20021C0F20022C0F200230020D1
:10094000FFF79EFF44F29B310020C0F200212246B7
:10095000FFF796FF00BE42F2345044F2B071C2F28B
:100960000020C0F2002100F073FE70B344F2BB31EE
:1009700044F2A16244F24F630446C0F20021C0F287
:100980000022C0F200230020FFF77AFF42F26450F9
:10099000C2F2002000F09CFB70B144F2BB3144F283
:1009A0007B6244F28663C0F20021C0F20022C0F2F2
:1009B00000230020FFF764FF44F29B310020C0F2C7
:1009C00000212246FFF75CFF00BE42F23450C2F223
:1009D000002001F0A5F8002844D044F2BB3144F2D5
:1009E000A16244F20B130446C0F20021C0F20022BF
:1009F000C0F200230020FFF743FF42F26450C2F22E
:100A0000002000F065FB70B144F2BB3144F27B6220
:100A100044F28663C0F20021C0F20022C0F200233B
:100A20000020FFF72DFF42F23450C2F2002001F007
:100A30007FF870B144F2BB3144F2706244F22B6330
:100A4000C0F20021C0F20022C0F200230020FFF714
:100A500017FF44F29B310020C0F200212246FFF72D
:100A60000FFF00BE40F6255BC2F2002B9BF8000092
:100A700000F096F89BF8000000285FEA1F9000F055
:100A80008FF840F2110940F2100541F2285740F664
:100A9000285A44F2DF6444F23518C2F20029C2F247
:100AA00000254FF6FF76C2F20027C2F2002AC0F2FC
:100AB0000024C0F2002813E0029888B39BF80000DD
:100AC0004FF48062514600285FEA1F9007EBC02078
:100AD00002F01FF9002854EA08810020FFF7D0FE39
:100AE00099F80000012808D1002089F8000000F0E2
:100AF000EBF802E000BF00BF00BF28780228FBD15E
:100B0000029600BF00BF00BF28780028D4D002980A
:100B100001380290D0D000BFF6E700BF00BF00BF91
:100B200044F265310020C0F20021FFF7A9FE42F235
:100B30006450C2F2002000F0CBFA70B144F2BB3135
:100B400044F27B6244F286630020C0F20021C0F2CE
:100B50000022C0F20023FFF793FE42F23450C2F2AB
:100B6000002000F0E5FF70B144F2BB3144F2706246
:100B700044F22B630020C0F20021C0F20022C0F238
:100B80000023FFF77DFE44F29B3100201422C0F2C7
:100B90000021FFF775FE00BE90E7D4D4D4D4D4D49E
:100BA00070B52DED068B4EF25C010446C4F20101D6
:100BB0000A7802F00F02022A03D8012000FA02F597
:100BC0000EE0D01E052806D244F24472C0F2002284
:100BD00012F8205004E0A2F10800102202FA00F5F9
:100BE000487800F00F0001F007FEE9B242F2285603
:100BF0004FF400759FED209BB0FBF1F044F2B07113
:100C0000C2F20026C0F200219FED1DAA4968B0FB88
:100C1000F1F0800900EE100A41F22850B8EE408B46
:100C2000C2F2002000EBC420841C00BF00BF00BF44
:100C3000306800EE100AB8EE400B0130306020EE54
:100C4000090B80EE080BB7EEC00B02F009F920EE9D
:100C50000A0A013DBDEEC00A10EE100A24F8020C8B
:100C600024F8040BE4D140F624500121C2F2002004
:100C70000170BDEC068B70BD3B43D5598CA2B340CF
:100C800000FEFF46D4D4D4D430B140F21001007934
:100C9000C2F20021087001E004200078012888BF1A
:100CA000704740F62450C2F200200078012801D19C
:100CB00000F00AB840F211000121C2F200200170D8
:100CC0007047D4D4D4D4D4D4B0B540F628544FF41B
:100CD0000061C2F20024204603F048F940F6255591
:100CE00041F22851C2F20025C2F200214FF4006304
:100CF0002246287801EBC02142F26450C2F2002063
:100D000000F076F9002845D044F2BB3144F222725B
:100D100044F2AB630446C0F20021C0F20022C0F2EC
:100D200000230020FFF7ACFD42F26450C2F2002025
:100D300000F0CEF970B144F2BB3144F27B6244F270
:100D40008663C0F20021C0F20022C0F2002300201E
:100D5000FFF796FD42F23450C2F2002000F0E8FEA8
:100D600070B144F2BB3144F2706244F22B63C0F2C2
:100D70000021C0F20022C0F200230020FFF780FD16
:100D800044F29B310020C0F200212246FFF778FD9B
:100D900000BEB0BD2878002100285FEA1F902870AF
:100DA00040F62450C2F200200170B0BDD4D4D4D497
:100DB00080B5FFF775FD002080BDD4D4D4D4D4D441
:100DC0002DE9F04381B00D460979044608462A68AA
:100DD000002918BF0220012950EA11884DF20001B4
:100DE000A868C4F2250101EB02274FEA087980B117
:100DF000406807F1180102260068816049F0084147
:100E00000160AA685168106892680B68DE811268F8
:100E10009047E86890B1406807F11C01022600681D
:100E2000416049F0004141F4C0110160EA68516835
:100E3000106892680B68DE811268904795F921303E
:100E4000A97F4EF20010C4E90157CEF20000002B3A
:100E50004FEA011184F81C8003D4C21882F80013F1
:100E600006E04EF6145703F00F02CEF20007D155FC
:100E700042F2EC5C4CF20031C2F2002CC4F20001F0
:100E800003F01F024CF8234051F8237027F48037F9
:100E900041F8237051F823705F090123BFF35F8F7E
:100EA00000EB870603FA02F2C6F8802140F82720FB
:100EB00095F92070002F1AD42A7FC619120186F8DE
:100EC00000234CF8274051F8272022F4803241F8C3
:100ED000272051F827207A0907F01F07BFF35F8FFB
:100EE00000EB8206BB40C6F8803140F8223095F90D
:100EF0001F30002B1CD46A7FC718120187F800230B
:100F00004CF82340012751F8232022F4803241F885
:100F1000232051F82310590903F01F03BFF35F8FFB
:100F200000EB810207FA03F3C2F8803140F8213068
:100F30006879E9792A790004CE0740EA8130931E66
:100F400040EAC247042B38BF07F5007701294FF06C
:100F5000000010D1A969AB794FF000080A784978F0
:100F6000002B4FEA011141EA827147EA010708BFED
:100F70004FF4807801E04FF00008D5E90412C4E98D
:100F80000810A2620120EFF3108580F310886168D9
:100F90000968C1F10801884043F20801C4F2200148
:100FA0000A6822EA0000086008681E20012101F09A
:100FB0007BFC85F3108846F48031A0680760A06848
:100FC0000161A0680661A0680169B142FCD140F6E8
:100FD00001714162A16845F24932C0F2530200201A
:100FE000C1F82080226001B0BDE8F083D4D4D4D40D
:100FF0002DE9F04145680446007F1E46AF689046E3
:1010000023FA00F24FB1BB6838689F68C2F34F0300
:101010000022B84718B1BDE8F081134605E0207FF3
:1010200065680023002126FA00F2ED68C4E9031385
:10103000CDB14FF0FF3101EB520159B1AA682868D8
:101040008BB2002197684246B847002818BFBDE818
:10105000F081207F6FF00101022201FA00F006EB1F
:10106000080101EB0008A168C4E905824868820014
:101070000DD440010ED4086800F00302032A0CD0FE
:1010800012B94A6892010BD40820BDE8F0810D2006
:10109000BDE8F0810C20BDE8F0810020BDE8F081C2
:1010A0000A6942F003030B61A1680A61A16800BFED
:1010B0000B699342FCD142F00C020A61A16840F036
:1010C000105040F0030008600020BDE8F081D4D447
:1010D000B0B5044680680021012221600160A0684B
:1010E0000161606890F921104EF28010CEF200008C
:1010F0004B0901F01F0102FA01F140F82310BFF380
:101100004F8FBFF36F8F616891F92030002B0AD4A5
:10111000590903F01F039A4040F82120BFF34F8F75
:10112000BFF36F8F616891F91F20002A0CD4510919
:1011300002F01F02012303FA02F240F82120BFF35C
:101140004F8FBFF36F8F6168C86820B181680068F6
:10115000096A88476168886818B181680068096A07
:1011600088470120EFF3108580F3108843F20802CE
:101170006168C4F2200209681368C1F1080188405F
:1011800001211843106010681E2001F08DFB85F3CB
:1011900010880020B0BDD4D410B582B04FF070419B
:1011A000EFF3038001EB006042F2EC514CF20032AD
:1011B0008015C2F20021C4F200020C58815821F4BB
:1011C000803181508058D4E90302002844D0A168BE
:1011D0004969C1F30561C1F12003217F9A4252EAB6
:1011E000338202290CD1022142F027C000BF00BF88
:1011F000A16850F8043B8B610FF007C0217FE068C5
:1012000001290DD1012142F017C800BF00BF00BF66
:10121000A16830F8023B0B830FF007C0217FE06824
:1012200052B149B942F001E0A16810F8013B0B76D8
:101230000FF007C0217FE06802FA01F32169891AE3
:101240001844C4E9030122B1A06841690121416148
:10125000216921B102B010BD002AFBD101E00020BC
:10126000E060A068406900F07C50B0F1805FF1D987
:10127000606A20B1D0E90012CDE9001200E06846B2
:1012800001210171216AA26A02608847606A002810
:101290001CBFDDE90012C0E9001202B010BDD4D4B9
:1012A00010B582B04FF07041EFF3038001EB0060A6
:1012B00042F2EC514CF200328015C2F20021C4F22D
:1012C00000020C58815821F48031815080586069A7
:1012D00030B1204600F01CF8A06908B102B010BD82
:1012E000606A20B1D0E90012CDE9001200E0684642
:1012F00002210171216AA26A02608847606A00289F
:101300001CBFDDE90012C0E9001202B010BDD4D448
:1013100080B582685169037FC1F3052C81696145FD
:1013200051EA3C8CDBB1012B0DD0022B23D10223DF
:101330004CF021C8416900BFD36941F8043B022346
:101340000FF007C017E001234CF015C8416900BF3A
:10135000938B21F8023B01230FF007C00BE0002321
:101360004CF009C8416900BF8268127F01F8012B67
:101370000FF007C0037F0CFA03F2D0E90531A1EBAF
:101380000C01BCF1000F1A44C0E9052105D08168A9
:101390004A694FF480324A618169002918BF80BDD3
:1013A0000021416180BDD4D4B0B582B04FF070410E
:1013B000EFF3038001EB006042F2EC528115C2F2C0
:1013C000002205165458A1684A6890014FF00000A9
:1013D00048602CD4606910B12046FFF799FFA068DF
:1013E0004FF6FC72CCF2FF120168114001F100715E
:1013F0000160A068016921F00C0101616068C168A9
:1014000021B18A680868116988476068816821B1DC
:101410008A680868116988476068C079A168C00750
:1014200008610020C4E90300C4E9050018E0A068D1
:10143000016821F000710160606A20B1D0E90012FA
:10144000CDE9001200E0684600210171216AA26A1C
:1014500002608847606A18B1DDE90012C0E9001235
:101460004CF20030C4F2000050F8251021F4803115
:1014700040F8251050F8250002B0B0BDD4D4D4D423
:1014800080B545F25422C5F24F020260084600F0D2
:1014900003F8002080BDD4D470B5044600F064F891
:1014A00042F2E85CEFF31081C2F2002C012080F3DD
:1014B0001088DCF8000038B940F614500022C4F25D
:1014C0004000027040220270DCF800000130CCF8CD
:1014D000000081F31088208830B340F6000E002110
:1014E000C4F2400E08E000BF0EEB8010013140F85E
:1014F00022302088814217D2606800EBC10250F888
:1015000031309288D8034FEA1220D2B2ECD50EEBDC
:10151000801555F8226026F4803645F8226023F4C1
:10152000803645F82260DFE70120EFF3108180F379
:101530001088DCF8000020B1DCF800000138CCF89D
:101540000000DCF8000010B181F3108870BD40F697
:1015500014500022C4F2400002708022027081F315
:10156000108870BDD4D4D4D42DE9F04F81B0044696
:101570000088002867D04EF64C4B0025C4F2010BC2
:101580004FF0010A04E000BF2088013585425AD29D
:1015900044F6CA2642F240080027C0F20026C4F2F0
:1015A00020080CE000BF00BF88F80000C82001211F
:1015B00001F07AF9013708F10208032FE4D06068DE
:1015C00036F8021B00EBC50082888A42F2D100681F
:1015D0009BF8001000F0B8500AFA07F9B0F1807FCC
:1015E00009EA010018D158B9012001F011FA9BF85D
:1015F000000040EA09008BF80000012001F0DCF94E
:1016000098F900000028D5D498F8000040F0800038
:10161000CAE700BF00BF00BF58B1012001F0F8F9D0
:101620009BF8000020EA09008BF80000012001F07F
:10163000C3F998F90000B0F1FF3FBBDC98F8000057
:1016400000F07F00B0E701B0BDE8F08FD4D4D4D46F
:101650002DE9F04381B00D46097C04464FF00008A7
:101660000D295FEA9F92027401202A7C00FA01F1A1
:10167000E16042F20001C4F23201656001EB022137
:10168000A16069696161A969E161C4F81880EE69C6
:10169000EFF3108780F31088287C4FF00049011F7A
:1016A00029FA00F006296FF0006151EA30A043F2F8
:1016B0001001C4F220010A681040086008681E206A
:1016C000012101F0F1F887F31088207B00070FD08B
:1016D00044F202020120EFF3108180F31088C4F27B
:1016E0003202A089138823EA0000108081F3108859
:1016F000A0684FF425410160A068C0F82C80A06864
:10170000C0F83C80A068C0F84880287A2978A26890
:10171000C0050329696808BF00F58030D06201392F
:10172000A068C0F81090A068C0F81490A068C0F835
:101730001890A068C0F82480A068C0F82880A0682D
:10174000B269C261A068F2690262A0688166A0689D
:1017500041662978D6F85090012906D041B96968C8
:101760004FF0FF3202EB51010BE04FF0FF312FE061
:10177000A268E968936E03F1010329B1994203D28B
:1017800001394FF0000823E0526B676899425FEA25
:101790003F9C00295FEA1F913F7812F0100F02F082
:1017A0000C025FEA1F93042A5FEA1F92032F53EA99
:1017B000828240F20008002A5CEA1181C0F20338FC
:1017C00000294FF0FF311CBF40F20008C0F2022890
:1017D000A2685165A26891652A78042A03D3A26899
:1017E000D165A2681166316DA9BB3178012915D187
:1017F0002A787178022A03D0032A03D1032205E054
:10180000092203E00922002908BF06220B0143EA4E
:101810008111114441EA090040F48079B17801292D
:1018200019D12A78F178022A04D0032A05D14FF47D
:10183000403208E04FF4102205E04FF41022002956
:1018400008BF4FF4C0220B0543EA8151114441EA1D
:10185000090040F0807961684FF0060E0023C969E5
:10186000F64601F1300205E001330432BEF1010E0B
:1018700000D112E091F84870DF40FF07F4D01F4616
:10188000042B08BF0327032B08BF0427A06800EB25
:1018900087001768013FC764E6E7287C0D2802D857
:1018A000A06800214164A06800218163A068C0F89D
:1018B0008810306D40B996F8200096F8211040034A
:1018C00040EA417049EA000996F84800A1680028FA
:1018D0004FF4A00008BF4FF4AA000864287801283C
:1018E00004D1A0680021C164A0680165A06842F22B
:1018F000EC5CC2F2002CC0F8349096F8540096F8D4
:101900005510A2684901D36A41EA001048F003016A
:101910001843D062A068016348F00101A068016328
:10192000D4E90201C1604EF2001095F912304CF278
:101930000031CEF20000C4F20001002B1BD46F7CFA
:10194000C51801223F0185F800734CF8234051F877
:10195000237027F4803741F8237051F823705F0912
:1019600003F01F03BFF35F8F00EB87059A40C5F8B4
:10197000802140F8272096F92830002B1DD496F8B6
:101980002220C7180125120187F800234CF82340B4
:1019900051F8232022F4803241F8232051F82320EB
:1019A0005A0903F01F03BFF35F8F00EB820705FAAC
:1019B00003F3C7F8803140F8223096F92930002B24
:1019C0001DD496F82320C7180125120187F800239B
:1019D0004CF8234051F8232022F4803241F8232090
:1019E00051F823205A0903F01F03BFF35F8F00EB68
:1019F000820705FA03F3C7F8803140F8223096F9E0
:101A00002A30002B1DD496F82420C7180125120176
:101A100087F800234CF8234051F8232022F4803229
:101A200041F8232051F823205A0903F01F03BFF384
:101A30005F8F00EB820705FA03F3C7F8803140F8A7
:101A4000223096F92B30002B1DD496F82520C7188C
:101A50000125120187F800234CF8234051F8232078
:101A600022F4803241F8232051F823205A0903F050
:101A70001F03BFF35F8F00EB820705FA03F3C7F87C
:101A8000803140F8223096F92C30002B1DD496F886
:101A90002620C7180125120187F800234CF823409F
:101AA00051F8232022F4803241F8232051F82320DA
:101AB0005A0903F01F03BFF35F8F00EB820705FA9B
:101AC00003F3C7F8803140F8223096F92D30002B0F
:101AD0001DD496F82720C718120187F800234CF868
:101AE0002340012751F8232022F4803241F823209B
:101AF00051F82310590903F01F03BFF35F8F00EB68
:101B0000810207FA03F3C2F8803140F8213045F230
:101B100054010020C0F24701216001B0BDE8F0830C
:101B2000D0E9021200204A607047D4D4D4D4D4D46F
:101B3000B0B543684EF2801E42F2EC5CCEF2000E6D
:101B400093F91210DB69C2F2002C00290ED44A0965
:101B500001F01F04012505FA04F44EF82240BFF3FA
:101B60004F8FBFF36F8F00224CF8212093F928107C
:101B700000290ED44A0901F01F04012505FA04F4D6
:101B80004EF82240BFF34F8FBFF36F8F00224CF807
:101B9000212093F9291000290ED44A0901F01F04CD
:101BA000012505FA04F44EF82240BFF34F8FBFF32E
:101BB0006F8F00224CF8212093F92A1000290ED4AF
:101BC0004A0901F01F04012505FA04F44EF82240E9
:101BD000BFF34F8FBFF36F8F00224CF8212093F992
:101BE0002B1000290ED44A0901F01F04012505FA23
:101BF00004F44EF82240BFF34F8FBFF36F8F0022E3
:101C00004CF8212093F92C1000290ED44A0901F038
:101C10001F04012505FA04F44EF82240BFF34F8F4C
:101C2000BFF36F8F00224CF8212093F92D1000296B
:101C30000ED44A0901F01F03012404FA03F34EF8FD
:101C40002230BFF34F8FBFF36F8F00224CF821205B
:101C5000D0E90212002303608A60816800204B6390
:101C6000B0BDD4D4D4D4D4D42DE9F04142F29052B2
:101C700040F20006C2F200220D468046C2F2002663
:101C80001378FBB943F200000127C4F2200017705B
:101C9000EFF3108487F31088016821F4800101605C
:101CA00000681E20012100F0FFFD84F31088002051
:101CB000C6E90000B0604AF61040C4F20000466079
:101CC00000F8047C686890F90010002935D456F8B3
:101CD000210000281CBF0820BDE8F081286888F892
:101CE000041008B300F10E0107E000BF00BF00BF01
:101CF00012F4400F01F110010AD051F80E2CB2F18C
:101D0000804FF5D30B88DFB247EA03230B80EFE760
:101D10004AF610410822C4F200010A7098F9042022
:101D200046F822001820087044F20030C4F25440F3
:101D3000C8F800000020BDE8F0810B20BDE8F0816C
:101D4000B0B590F904204CF2003CC4F2000C4AF605
:101D5000104EC4F2000E5CF8223023F080734CF871
:101D6000223090F9042042F4004200BF00BF00BFBF
:101D70003EF8023C9A42FBD001F10E0205E000BFA2
:101D800013F4400F02F110020AD052F80E3CB3F1E6
:101D9000804FF5D31488E5B245EA04241480EFE7B8
:101DA00008228EF8002090F9042040F20003C2F2CD
:101DB000002343F8221018218EF8001090F9041027
:101DC00000205CF8212042F080724CF82120B0BD48
:101DD00010B582B00191009290F904104CF2003CD1
:101DE00040F20002C4F2000CC2F2002252F821E0DC
:101DF0005CF8212022F080724CF8212090F9042018
:101E00004AF61041C4F2000142F4004200BF00BF94
:101E100031F8024CA242FBD008220A70019A002A33
:101E20001CBF019ACEF80420009A002A1CBF009A19
:101E3000CEF80820DEF80020B2F1404F02DAAEF80A
:101E40000C3005E00024B4EB927F08BFAEF80E30F2
:101E500018220A7090F9041000205CF8212042F04A
:101E600080724CF8212002B010BDD4D4D4D4D4D484
:101E700090F904104CF20032C4F20002002052F833
:101E8000213043F0807342F821307047D4D4D4D449
:101E900090F904104CF20032C4F20002002052F813
:101EA000213023F0807342F821307047D4D4D4D449
:101EB00006207047D4D4D4D406207047D4D4D4D4C8
:101EC00090F9040040F20002C2F2002252F8200011
:101ED0000022C1E900220268B2F1804F06D24FF41D
:101EE00080328A60C089C860002070474FF48072D9
:101EF0008A60C289D2B2CA600268B2F1404FF3DA96
:101F00004FF480320A608089486000207047D4D442
:101F1000014690F904204CF2003040F2000CC4F26B
:101F20000000C2F2002C50F8223023F0807340F8F9
:101F30002230002000234CF822300B607047D4D4AC
:101F400006207047D4D4D4D406207047D4D4D4D437
:101F50004EF22401C4F201018878098801F00F02D1
:101F6000A2F1080103293BD8DFE801F0022C101E82
:101F700040F24041C2F2002151F820004AF6AB2164
:101F8000CAF6AA21A0FB0101480830E040F2404116
:101F9000C2F2002151F820004AF6AB21CAF6AA216C
:101FA000A0FB0101C80822E040F24041C2F200213A
:101FB00051F820004AF6AB21CAF6AA21A0FB010184
:101FC000080914E040F24041C2F2002151F820001B
:101FD0004AF6AB21CAF6AA21A0FB0101880806E057
:101FE00040F24041C2F2002151F82000D04042F2BC
:101FF0000461C2F2002108607047D4D4D4D4D4D490
:102000002DE9F04782B00FF258604EF2FA3840F2F4
:102010004046C4F201084AF2015190ED001FC2F29D
:1020200000260FF24C60CFF6FF714EF255050231DB
:10203000A8F8001086ED001F06F12003C4F2010588
:1020400090ED001F48F2004040F60001C1F2D77049
:1020500043F6000286ED041FC2F6AF71C1F69C4242
:1020600007C315F82F0C35F8311C01F00F02A2F14F
:10207000080103292BD8DFE801F002200C164AF6EC
:10208000AB2156F82000CAF6AA21A0FB010148089E
:1020900020E04AF6AB2156F82000CAF6AA21A0FBA0
:1020A0000101C80816E04AF6AB2156F82000CAF62E
:1020B000AA21A0FB010108090CE04AF6AB2156F861
:1020C0002000CAF6AA21A0FB0101880802E056F808
:1020D0002000D04042F2046A4EF60044C2F2002AC8
:1020E000C4F201040A214EF60147CAF800004FF677
:1020F0005060CFF6FF70C4F201072154092085F823
:102100004D00207818B93878800700F0A482207834
:1021100048B901202070C820012100F0C5FB00BF94
:1021200020780128FCD10020387020704AF2015933
:10213000002005F81F0C05F8230C00BF00BF00BFEE
:1021400015F8190C0007FBD542F602314EF6145073
:10215000C0F20101C5F8731040F2234125F8071CB5
:10216000002205F80B2C4FF60211C5F8571040F26B
:10217000514125F8091CCEF200004EF20001BFF3D8
:102180004F8FBFF36F8F0368CEF2010123F400334A
:102190000360C0F83C22BFF34F8FBFF36F8F0A6814
:1021A00022F440520A60BFF34F8FBFF36F8F15F8D0
:1021B000412C02F0F802013205F8412C00BF00BFAB
:1021C00015F8412CD206FBD40A6842F440520A604A
:1021D000BFF34F8FBFF36F8F0168890312D4BFF332
:1021E0004F8FBFF36F8F0021C0F83C12BFF34F8FAA
:1021F000BFF36F8F016841F400310160BFF34F8F6F
:10220000BFF36F8F002005F82B0C00BF00BF00BF8D
:1022100015F8190C8006FBD54CF200040020C4F21E
:10222000130420702078207820786068FA2807D07E
:10223000FA20C1F6006000BF60606168FA29FBD136
:10224000A0687D2808D07D20CEF2001000BF00BF1E
:10225000A060A1687D29FBD143F23240C3F2232064
:1022600045F8350C42F2202025F8310C052005F800
:102270002F0C15F82F0C35F8311C01F00F02A2F1CC
:10228000080103292BD8DFE801F002200C164AF6DA
:10229000AB2156F82000CAF6AA21A0FB010148088C
:1022A00020E04AF6AB2156F82000CAF6AA21A0FB8E
:1022B0000101C80816E04AF6AB2156F82000CAF61C
:1022C000AA21A0FB010108090CE04AF6AB2156F84F
:1022D0002000CAF6AA21A0FB0101880802E056F8F6
:1022E0002000D040CAF800001E200121012700F084
:1022F000DBFA60686FF39F20652828BF277015F808
:102300002F0C35F8311C01F00F02A2F1080103294E
:102310002BD8DFE801F002200C164AF6AB2156F864
:102320002000CAF6AA21A0FB0101480820E04AF6D5
:10233000AB2156F82000CAF6AA21A0FB0101C8086B
:1023400016E04AF6AB2156F82000CAF6AA21A0FBF7
:10235000010108090CE04AF6AB2156F82000CAF644
:10236000AA21A0FB0101880802E056F82000D04015
:1023700042F20001CAF80000C4F200010120A1F8F5
:102380000090BFF35F8F08724FF42540BFF35F8F5B
:10239000088095F8850040F0400085F8850000BF72
:1023A00095F98500B0F1FF3FFADC032085F87F0046
:1023B000C92085F8850095F8850000F0BF0085F8F4
:1023C000850000BF00BF00BF95F985000028FBD441
:1023D000012005F8020C002005F8170C802005F8F4
:1023E000170CE87F40F04000E87700BF00BF00BF57
:1023F00095F91F00B0F1FF3FFADC0720E8754A208D
:10240000E8770A20E87700BF95F91F000028FBD481
:102410000720ADF806000DF1060000F031F995F83F
:10242000210040F0400085F8210000BF00BF00BF40
:1024300095F92100B0F1FF3FFADC03206876CA204D
:1024400085F8210095F8210000F0BF0085F82100F3
:1024500095F921000028FBD4287840F0400028702E
:1024600095F90000B0F1FF3FFADC022005F8010CFD
:10247000CA202870287800F0BF00287000BF00BF75
:1024800095F900000028FBD4A87840F04000A8701F
:1024900095F90200B0F1FF3FFADC00206870C72018
:1024A000A870A87800F0BF00A87000BF00BF00BFF0
:1024B00095F902000028FBD4287A40F040002872E9
:1024C00095F90800B0F1FF3FFADC0120E871C62061
:1024D0002872287A00F0BF00287200BF00BF00BF3A
:1024E00095F908000028FBD495F8230040F040003F
:1024F00085F8230000BF00BF95F92300B0F1FF3F2E
:10250000FADC0220E876C92085F8230095F823003C
:1025100000F0BF0085F8230095F923000028FBD4C4
:1025200095F8220040F0400085F8220000BF00BF6F
:1025300095F92200B0F1FF3FFADC0420A876CA200A
:1025400085F8220095F8220000F0BF0085F82200EF
:1025500095F922000028FBD4A87940F04000A8712A
:1025600095F90600B0F1FF3FFADC02206871CA203D
:10257000A871A87900F0BF00A87100BF00BF00BF1C
:1025800095F906000028FBD495F8860040F040003D
:1025900085F8860000BF00BF95F98600B0F1FF3FC7
:1025A000FADC022085F88000C52085F8860095F8C1
:1025B000860000F0BF0085F8860000BF00BF00BFA6
:1025C00095F986000028FBD495F8870040F040007C
:1025D00085F8870000BF00BF95F98700B0F1FF3F85
:1025E000FADC012085F88100C52085F8870095F880
:1025F000870000F0BF0085F8870000BF00BF00BF64
:1026000095F987000028FBD495F8890040F0400038
:1026100085F8890000BF00BF95F98900B0F1FF3F40
:10262000FADC092085F88300C92085F8890095F82F
:10263000890000F0BF0085F8890000BF00BF00BF1F
:1026400095F989000028FBD44FF42540A8F8000034
:1026500002B0BDE8F0874FF47A7000F0C9F865E584
:10266000006CDC0200127A000080000000366E016F
:102670000080000000CA9A3B0046C3235543DE1386
:102680002DE9F04F81B04EF2FA3143F20406C4F264
:1026900001018246C4F220064AF20350B1F80090CC
:1026A00008804FF0010B00254FF4803401270020F3
:1026B00008E000BF00BF00BFF8074FF001004FF077
:1026C000000716D004FA00F132680A42F4D1EFF3A1
:1026D00010888BF3108832680BFA00F011433160D8
:1026E000316805431E20012100F0DEF888F31088D0
:1026F000E2E74EF2750740F24041C4F20107C2F230
:102700000021387800F00F0051F8200017F8081C5D
:1027100001F00F01022901D801220BE0CA1E052A8F
:1027200006D244F64851C0F2002151F8221003E0CD
:102730000839102202FA01F1B0FBF1F04DF6836185
:10274000C4F21B31A0FB01016FF0010000EA51400F
:10275000012100F0A9F8387840F04000387000BF3F
:1027600097F90000B0F1FF3FFADC9AF8010007F892
:10277000080C9AF8000040F0400038709AF8000009
:10278000387000BF00BF00BF97F900000028FBD4DD
:1027900000204FF0010A4FF48038012406E000BF0A
:1027A000E0074FF001004FF0000415D025FA00F1CA
:1027B000C907F5D0EFF310878AF3108808FA00F004
:1027C000316821EA0000306030681E20012100F0ED
:1027D0006BF887F31088E3E74EF2FA3149F42540AD
:1027E000C4F20101088001B0BDE8F08FD4D4D4D484
:1027F0007047D4D4D4D4D4D440F24041C2F20021A2
:1028000051F820007047D4D4B0B542F22404C82057
:10281000C4F2200401210025257100F045F825703F
:10282000207808B12FF005C0207840F00200207019
:1028300020788007FCD4002004F8020C00BF00BF01
:1028400014F8020C08B12FF005C84FF0030E002059
:1028500004F11C0100BF00BF11F8102002F07F023C
:1028600001F8102000BF00BF11F91020002AFBD48E
:1028700001300FF00FC8012000F0CAF84EF64C41AD
:102880000120C4F2010100220A70BDE8B04000F04E
:1028900093B8D4D4D4D4D4D4014600220020C0F2BA
:1028A00004620A607047D4D442F2046241F2002309
:1028B000C2F20022C0F27A03484312689A420FD350
:1028C00044F23F21C0F20F0111444DF68362C4F27D
:1028D0001B32A1FB0212910CA0FB0101C9B11DE04A
:1028E0004CF60021C3F69A31B1FBF2F148F63812EA
:1028F000C0F24102904205D24FF47A725043B0FBCD
:10290000F1F006E0B0FBF1F0904207D24FF47A719B
:102910004843002808BF704700F006B84FF0FF306A
:1029200000F002B8D4D4D4D401380028FCD17047C8
:10293000F0B581B04CF2201542F29457C4F2000574
:102940000024C2F2002755F8200C296801EA00068D
:1029500006E000BF00BF00BF01340437152C09D0CA
:1029600026FA04F0C007F7D039680029F4D02046D1
:102970008847F1E745F8106C28683042FCD101B077
:10298000F0BDD4D4D4D4D4D480B54FF0030E4CF2DF
:10299000003044F6C421C4F20000C0F2002100BFA0
:1029A00031F8022B002A18BF026004300FF009C072
:1029B00080BDD4D4D4D4D4D4EFF31081012282F3D7
:1029C000108842F2F852C2F2002232F8103023B1DD
:1029D00032F81030013B22F8103032F8102012B1DA
:1029E00081F3108870474EF2FA3244F65C5CC4F210
:1029F0000102C0F2002C13883CF8100043F4254378
:102A000023EA0000108081F310887047D4D4D4D416
:102A100010B5EFF31081012282F3108842F2F852D0
:102A2000C2F2002232F8103083B94EF2FA3E44F678
:102A30005C5CC4F2010EC0F2002CBEF800403CF811
:102A40001030234343F42543AEF8003032F8103001
:102A5000013322F8103081F3108810BDD4D4D4D4BF
:102A600000F00AF8FEF7A4F9FEE7D4D4D4D4D4D405
:102A700000BE7047D4D4D4D42DE9F04381B04EF6D3
:102A8000085840F20120CEF20008C0F20E004EF2CB
:102A90000004C8F80C00CEF20104BFF34F8FBFF35F
:102AA0006F8F58F8081CC1F3035001285FEA1F928A
:102AB00011F00F0F5FEA0F911142216811D1022826
:102AC0000FD241F0040020604EF20800BFF34F8F98
:102AD000CEF20000BFF36F8F016841F480310160D6
:102AE00002E021F004002060BFF34F8FBFF36F8F2F
:102AF0004FF4700040F20001C8F880000020C0F2DE
:102B00000021C8F800100025FDF7CEFEFFF778FA87
:102B10004EF2FA304EF6B022C4F20100C4F20102C5
:102B20004AF20251018015704FF4254101800120C5
:102B3000FDF7BAFE40F24000C2F2002080F30A889E
:102B40002068800724D5D8F80000B0F1007F1FD19D
:102B500020694FF40071C0F3C300626901FA00F309
:102B6000C2F3C30081400020DA08CB0801460746C3
:102B700042F007C000BF00BFE7E802010FF005C048
:102B80004FF0005243F005C0E2E802010FF005C02B
:102B900044F61C34C0F20024276897B160683E46B2
:102BA000051D05E000BF00BF013E05F10C0508D082
:102BB00068790028F8D155E90101091A01F0D6F920
:102BC000F2E7D4F80890B9F1000F13D0E0684E4650
:102BD00000F1080504E000BF013E05F1100509D031
:102BE00068790028F8D155E902022968121A01F023
:102BF000C1F9F1E7FFF7ACF9FFF706FE0320FFF795
:102C000007FF4FF00E0E40F63050C4F24000002196
:102C100020F8041B0FF005C00320FFF7CDFE0320B2
:102C2000FFF7F6FE44F204000021C4F22000016028
:102C300041608160C1600320FFF7BEFE0220FDF706
:102C400033FE9FB160684FF48076051D04E000BF3D
:102C5000013F05F10C0509D06879B6EB002FF7D1DB
:102C600055E90101091A01F081F9F1E7B9F1000F05
:102C700016D0E0684FF4807500F1080405E000BF4D
:102C8000B9F1010904F110040AD06079B5EB002F05
:102C9000F6D154E902022168121A01F06BF9EFE74C
:102CA00042F20C64C2F20024204600F0B5F820463F
:102CB00000F0CAF8BFF34F8FBFF36F8F0020C8F842
:102CC000480245F2961045F29611C0F20020C0F27B
:102CD0000021BFF34F8F081ABFF36F8F8410012CB0
:102CE0000BDB45F29615C0F2002500BF00BF00BF08
:102CF00055F8040B8047013CFAD1FFF745FE002050
:102D000001B0BDE8F04300F003B8D4D4D4D4D4D497
:102D100070472DE9F041042A03D21346844633B9A3
:102D200028E041EA00039B072AD013468446581E38
:102D3000A3F10208A3F1030E00240D5D1CF804604A
:102D4000AE421AD1A04215D00CEB04070A195578EF
:102D50007E78AE4211D1A0450CD09578BE78AE42B7
:102D60000BD1A64506D0D578FE78AE4205D1043405
:102D7000A342E2D10020BDE8F081701BBDE8F081E4
:102D80004FF0000E044651F80E3050F80E709F427E
:102D90002DD1131F01EB0E0504F1040C042B2BD3D2
:102DA00000EB0E06D5F804807768474526D1A2F1DE
:102DB000080304F1080C042B22D3D5F80880B76867
:102DC000474520D1A2F10C0304F10C0C042B1DD3B8
:102DD000EF68F668BE421CD1103A0EF1100E1034A6
:102DE000032AD0D800EB0E0C7144134697E700EB92
:102DF0000E0C714413469AE7291D90E7291D96E7AA
:102E000005F108018BE705F1080190E705F10C01D8
:102E100085E705F10C018AE710B540F2800140F228
:102E20000002C0F20021C0F20002044601F0A2F844
:102E300040F2000040F20001C0F20000C0F20001C8
:102E4000204401F093F810BD40F20801C0F20001E7
:102E5000401A42F20861C2F2002108607047D4D4DF
:102E600010EE100A40F6D871C3F6497120F0004008
:102E7000884204D8DFED160A002000F02BB8B0F12C
:102E8000FF4F28BF01F04EB880B582B0684600F011
:102E900065F800F003009DEC020ADFE800F0021480
:102EA000070E012000F016F802B080BD012000F0EE
:102EB00011F8B1EE400A02B080BD00F055FFB1EE4E
:102EC000400A02B080BD00F04FFF02B080BD00BFDD
:102ED0000000000010EE101AC1F34561182998BFD8
:102EE00000F0A4BF20EE001A9FED152A9FED153AC1
:102EF0009FED164AA1EE023A9FED132AA1EE032A96
:102F00009FED133AA1EE024A20EE012AA1EE043A07
:102F100070B1B6EE004A23EE423AA0EE843AD1EE0A
:102F2000030A9FED0C1AE2EE010A30EE600A7047C8
:102F30009FED094AA1EE034AA2EE040A704700BFC2
:102F4000D3C92E2F342FD7B21BEF3836010D50B90D
:102F50008988083CABAA2A3EABAA2ABEB0B586B087
:102F600010EE105A40F6D871C3F6497125F00043AF
:102F70008B4206D8002180ED000A4160084606B069
:102F8000B0BD4CF6E331C4F216018B421CD84FF6AB
:102F90000071012DC7F6FF7101F1F00101EA050191
:102FA000C0F2C3809FED9A1A40F6D072C3F6C97280
:102FB000914230EE010A40F0C9809FED9D1A30EE3B
:102FC000010A9FED9C1AC3E040F68071C4F24931BA
:102FD0008B4261D8B6EE001A9FED8C2AB0EEC00A83
:102FE000A0EE021A9FED8B2ABDEEC11A11EE101A47
:102FF000B8EEC13A9FED861AA3EE010A23EE021A3B
:103000001F290EDC44F668524FF60074C0F200220D
:10301000C7F6FF7402EB81022C4052F8042C944254
:1030200035D130EE412A12EE102A80ED002AC2F38B
:10303000C752C2EBD352092AC0F2AB809FED761A79
:10304000DA0D23EE011A30EE414A30EE440A30EE3A
:10305000411A9FED720A93EE001A34EE412A12EEE5
:10306000103A80ED002AC3F3C753D21A1A2AC0F2CD
:103070008E809FED6B0A23EE001A34EE410A34EE87
:10308000402A32EE411A9FED672A93EE021A30EE83
:10309000412A80ED002A7CE0B3F1FF4F5CD26FF053
:1030A000850101EBD3529FED582A8446A3EBC25110
:1030B00003A8042300EE101A00F10801BDEEC01AA7
:1030C000B8EEC11A30EE410A8DED031A20EE020A65
:1030D000BDEEC03AB8EEC33A30EE430A8DED043A85
:1030E00020EE020A8DED050A91ED000AB5EE400AC8
:1030F000F1EE10FA63D111ED010AB5EE400AF1EEDE
:1031000010FA5ED111ED020AB5EE400AF1EE10FAA6
:1031100059D111ED030AA1F11004043BB5EE400AA8
:103120002146F1EE10FADFD04EE09FED3F1A40F657
:10313000D072C3F6C972914230EE010A16D19FEDEA
:10314000361A30EE010A9FED351A11E09FED371A5D
:1031500030EE012A01210FE030EE400A002180ED1F
:10316000000A80ED010A084606B0B0BD9FED291A9D
:1031700030EE012A4FF0FF3130EE420A80ED002A96
:1031800030EE010A80ED010A084606B0B0BDB0EE8F
:10319000440A30EE420AB5F1FF3F30EE410A80EDBD
:1031A000010A3FF7EBAEB1EE400AB1EE421A80EDF4
:1031B000010A80ED001A4942084606B0B0BD013B45
:1031C00002E0023B00E0033B44F6E8510224C0F277
:1031D0000021CDE900416146644600F02DF801462A
:1031E000B5F1FF3F3FF7CAAE94ED000A94ED011A26
:1031F000B1EE400AB1EE411A84ED000A84ED011AE5
:103200004942084606B0B0BD0000804384F9223F21
:10321000800FC9BF434435370044353708A3852E96
:1032200000A3852E32318D24800FC93F434435B72A
:10323000004435B708A385AE2DE9F04F81B02DEDE0
:10324000108BDAB09846DDE9743C029145F200112A
:103250008346D01EC0F20021019251F82330C117DD
:1032600000EB5170C11021EAE071A2EBC109A8F195
:1032700001029818CDE9072300F19380089B0328E9
:10328000079A03EB0807A1EB020207F0030303D23E
:103290000026002B49D184E027F0030001270438E1
:1032A0009FEDDF0A002607EB900E8800A0EB880058
:1032B00032AF604407F10804B0EE401A97195EBFC0
:1032C00000EB860595ED011AB8EEC11A04ED021A5D
:1032D000B0EE401AB7F1FF3FA2BF00EB860595EDB7
:1032E000021AB8EEC11A04ED011AB0EE401A17F135
:1032F000020FA2BF00EB860595ED031AB8EEC11AC6
:1033000084ED001AB0EE401A17F1030FA2BF00EBD4
:10331000860797ED041AB8EEC11A84ED011A10342D
:1033200004360FF037C83244DBB3002A06D40CEB66
:10333000820090ED000AB8EEC00A01E09FEDB80AE5
:1033400032A8012B00EB860787ED000A29D0771CF5
:10335000B2F1FF3F08DA9FEDB20A00EB8707022BBC
:1033600087ED000A0CD11CE00CEB820595ED010AFB
:10337000B8EEC00A00EB8707022B87ED000A10D0D9
:10338000B31C12F1020F02DA9FEDA50A05E00CEB67
:10339000820292ED020AB8EEC00A00EB830080EDD3
:1033A000000AA9F1080009900898B8F1010F0591E9
:1033B00020EAE071C0F283804FF6FC700122C7F66C
:1033C000FF70ABF1100A00EA080008F003050438AA
:1033D0009FED930A002302EB900032AA069002EBC5
:1033E0008800A0F1080C0AA809E000EB87030CF1A3
:1033F000040C8F4283ED001A07F1010365D01F46CC
:10340000B8F1040F04D2B0EE401A4FF0000926E0E4
:10341000B0EE401A069B4FF00009544643F001E01D
:10342000634693ED015A09F1040994ED046A93EDA2
:10343000004AA6EE051A94ED057A13ED013AD4ED93
:10344000060A13ED022A103BD4ED071A1034A7EE3A
:10345000041AA0EE831AA1EE821A0FF01FC0002DED
:10346000C3D0079B0BEB8906012D3B4496ED002A48
:10347000A3EB090402EB840696ED003AA2EE031AD0
:10348000B3D009F10106022DA3EB06040BEB86066F
:1034900096ED002A02EB840696ED003AA2EE031A9E
:1034A000A3D009F102069B1B0BEB860602EB8303FC
:1034B00096ED002A93ED003AA2EE031A95E7042058
:1034C00000EB81010AA800F051FD0599B4EE00CA95
:1034D000089CBAEE00DAB7EE008A0AAFC800B6EE72
:1034E00000FA0090ABF1040B75980DF1C8099FED3F
:1034F0004DAA00EB810A46A901EB84000D1F083894
:10350000079060420390381F069009989FED46BAD5
:103510009FED43EAC0F10701C0F108000591049056
:1035200000E0044607EB8400012C90ED001A1DDB3F
:10353000069844F001E0294600EB840021EE0A0AD7
:1035400090ED002A0438BDEEC00AB8EEC00AA0EE25
:103550000B1A32EE000ABDEEC11A11EE102AB0EEBF
:10356000401A41F8042F0FF017C801E0B0EE410AED
:10357000099E304600F06CFC20EE0C1A012EBBFEBA
:10358000411AA1EE0D0ABDEEC01A11EE107AB8EE86
:10359000C11A30EE419A2DDB46A8049B00EB840053
:1035A00050F8041C41FA03F2D61902FA03F3C91ABF
:1035B00040F8041C059841FA00FCBCF1010F5FDBE8
:1035C000012C3ADBA64646A9002209E0FF22101A88
:1035D0000860012200200431BEF1010E00D12DE06F
:1035E0000868002AF2D110B14FF48072EFE7002290
:1035F0000120F0E746B1B4EE4F9AF1EE10FA17DA77
:103600004FF0000C3E463BE046A83E4600EB8400EF
:1036100050F8040C4FEAE01CBCF1010FD0DA2FE0A7
:10362000000000000000803B000080C300008043D9
:103630004FF0020C3E46012CC4DA01200999012901
:103640000EDB04D0099902290AD13F2100E07F2135
:1036500046AA02EB840252F8043C194042F8041CCA
:103660000136BCF1020F0BD138EE499A30B9B0EEF9
:10367000480A099800F0ECFB39EE409A4FF0020C32
:10368000B5EE409AF1EE10FA57D1089884420CDD5D
:103690000398214600EB040E002055F82120013943
:1036A00010430FF007C0002878D107990AAF002017
:1036B0004A685AB90A685AB951F8042C52B951F8F3
:1036C000082C0430103932B92FF00FC0013002E05D
:1036D000023000E0033008EB0401204409EB8106CE
:1036E00008E007EB820104361446824281ED000AAD
:1036F000BFF617AF621CB8F1010F0AEB820191ED22
:10370000000A04EB0801B8EEC00A09EB810181ED63
:10371000000AB0EE4E0AE4DBB0EE4E0A48F001E0DB
:103720005B46314691ED001A043993ED012A0433CA
:10373000A2EE010A0FF00BC0D3E7B0EE490A099FD1
:103740006546784200F084FB1FED481AB246DDF86A
:103750000880B4EE410ADDF8D0B1F1EE10FA07DAD4
:10376000BDEEC00A46AA10EE100A42F8240042E05C
:1037700020EE0A1A46AA0837BDEEC11A11EE100A49
:10378000B8EEC11AA1EE0B0ABDEEC00A10EE101A77
:1037900042F82410013442F824002CE0DDE9002135
:1037A00046A800EB8400DDF80880891ADDF8D0B166
:1037B0000838A1F11007416891B90168B24699B97A
:1037C00050F8041CA1B9A0F1100150F8080C203FDA
:1037D000043C002808465646EDD0654608370AE006
:1037E000013C6546B24606E06546083F023C02E001
:1037F0006546103F033CB7EE000A384600F028FB50
:10380000AC46002C00F1A380E04346AB8007204685
:1038100035D003EB84000AAAA10790ED001A02EB51
:103820008400B8EEC11A20EE011A20EE0A0A80EDDB
:10383000001AA4F1010022D003EB800102EB80000A
:1038400091ED001A04F003010129B8EEC11A20EE2F
:10385000011A20EE0A0A80ED001AA4F102000ED02F
:1038600003EB800102EB800091ED001AB8EEC11A63
:1038700020EE011A20EE0A0A80ED001AE01E032C49
:1038800034D3C11E012202EB910E0AAA03EB800180
:1038900002EB800020EE0A1A11ED033A11ED024A04
:1038A00011ED015AB8EEC33A91ED006AB8EEC44A80
:1038B000B8EEC55A1039B8EEC66A21EE0A2A21EED2
:1038C000051A20EE066A22EE0A7A22EE042A00ED9C
:1038D000011A80ED006A27EE033A27EE0A0A00ED8E
:1038E000022A00ED033A10380FF02DC00AA845F265
:1038F0000C1200EB84001FEDB60A051F1EA9C0F2D2
:103900000022234609E001EB8700043D002B80EDF7
:10391000001AA3F10100034619DDB0EE401A089821
:10392000E71AB84250EAB7800028ECD4B0EE401A4B
:1039300000F1010E161F284690ED012A043096ED85
:10394000013A0436A3EE021A0FF00BC0DBE7ABF12D
:10395000010002282DD35646BBF1000F33D0BBF136
:10396000030F40F08F811FEDD20A012CC0F26F814E
:103970001EA9621E01EB840014F0030790ED001AEB
:1039800000F00381E646B44601EB8206012F96ED76
:10399000003A33EE012A33EE423A86ED002A31EE48
:1039A000031A80ED001A40F0F480B0EE421A13467C
:1039B00012E15646002C11D4E043800711D19FED4F
:1039C000B51A20462DE0002C00F199809FEDE50A04
:1039D000E043800740F096802046B1E09FEDE11A79
:1039E0003BE01EA99FEDDF0A01EB8400A20790EDEA
:1039F000001AA4F1010031EE001A12D001EB800090
:103A000004F00302012A90ED000AA4F1020031EE55
:103A1000001A1FBF01EB800090ED000A31EE001A82
:103A2000E01E032C19D3C11E012202EB910E1EA928
:103A300001EB800090ED004A10ED013A31EE041ADE
:103A400010ED022A10ED030A103831EE031A31EEA0
:103A5000021A31EE001A0FF013C89DED1E0AB1EEE6
:103A6000412ABCF1000F30EE410A01FE021A012C7E
:103A700088ED001A3ADB04F00300621E0121032ADC
:103A800020D34FF6FC72C7F6FF722240043A01EBD6
:103A9000920E1EA9A1F11002002192ED051A043127
:103AA00092ED062A30EE010A92ED073A92ED084AAD
:103AB000103230EE020A30EE030A30EE040A0FF044
:103AC00015C0013190B11EAA012802EB810191EDD0
:103AD000001A30EE010A09D091ED011A022830EEE9
:103AE000010A1CBF91ED021A30EE010AB1EE401A34
:103AF000BCF1000F00FE010A88ED010AC2E09FED53
:103B0000990A39E01EA9A20701EB840090ED001A82
:103B1000A4F1010031EE000A12D001EB800004F0A4
:103B20000302012A90ED001AA4F1020030EE010A0E
:103B30001FBF01EB800090ED001A30EE010AE01E7D
:103B4000032C19D3C11E012202EB910E1EA901EB19
:103B5000800090ED004A10ED013A30EE040A10EDBD
:103B6000022A10ED031A103830EE030A30EE020A72
:103B700030EE010A0FF013C8B1EE401ABCF1000F8D
:103B800000FE010A88ED000A7CE02346032A27D2C2
:103B90005BE0A31E022F01EB830595ED001A31EEC9
:103BA000023A31EE431A85ED003A32EE011A86ED03
:103BB000001A02D1B0EE431A0EE0E31E01EB8307B8
:103BC00097ED002A32EE031A32EE412A87ED001AF1
:103BD00033EE022A85ED002A6646F446032A34D3E2
:103BE00001EB83015A1C083991ED015A043A91ED19
:103BF000004A012A35EE016A11ED013A11ED022A5F
:103C000034EE067A35EE465A73EE070A34EE474A2A
:103C100031EE051A72EE201A33EE603A36EE044A9F
:103C200081ED021A32EE612A41ED021A37EE033AB3
:103C3000B0EE611A81ED014A30EE822A81ED003A40
:103C400001ED012AA1F11001CED8012C24D19DED66
:103C50001E1ABCF1000F0ED09DED1F2AB1EE411AC5
:103C6000B1EE400AB1EE422A88ED001A88ED020A50
:103C700088ED012A06E01F9888ED001A88ED020AF7
:103C8000C8F8040006F007005AB0BDEC108B01B074
:103C9000BDE8F08F0000000090ED000AA0F10801DF
:103CA000224691ED012A032A32EE001A32EE412A11
:103CB00081ED011A30EE020A81ED020A30D391ED56
:103CC000002A013A032A32EE010A32EE402A81ED3F
:103CD000000A31EE021A81ED011A21BF11ED012A0D
:103CE00032EE001A32EE412A30EE020A21BF01ED17
:103CF000011A81ED000A531E032B11D311ED022A84
:103D00009A1E013B32EE010A022B32EE402A01EDEF
:103D1000020A31EE021A01ED011AA1F11001C0D818
:103D20009FED100A043890ED011A032C30EE010AC1
:103D30008DD390ED001A611E032930EE010A21BFD8
:103D400010ED011A30EE010A01390329FFF47FAFAB
:103D500010ED021A8C1E1038013930EE010A0229CA
:103D6000E1D874E70000000010EE100A20F00040D7
:103D7000B0F1485F3CBFB7EE000A704720EE001A72
:103D80009FED242A9FED243A49F69911C3F69961D3
:103D90008842A1EE023A9FED212AA1EE032A9FED6F
:103DA000203AA1EE023A9FED1F2AA1EE032A9FEDD1
:103DB0001E3AA1EE023A21EE032A0CD820EEC00AE8
:103DC000B6EE003AA1EE020AB7EE002A91EE030A1F
:103DD00032EE400A704700F17F420021B5EE024A00
:103DE000C3F6487105EE102A884288BFB0EE445AE7
:103DF000B6EE003AB7EE004A20EEC00AA1EE020A83
:103E000034EE452A91EE035A30EE450A32EE000AAE
:103E1000704700BF4ED747ADF6740F317CF293B4B4
:103E2000010DD037610BB6BAABAA2A3D81B0B7EE0F
:103E3000001A45F23810C0F2002090ED002A32EE50
:103E4000011A8DED001A9DED001A01B07047D4D40F
:103E500010EE101A21F00043DA0D05D0FF2A04BF3E
:103E600030EE000A704714E0002B08BF70479FED4A
:103E70001B1A43F6AF42CFF6FF72904220EE010AC2
:103E800010EE101ADCBFC80F00F02CB8C1F3C752F7
:103E9000193A4CF251339842BCBF1044FF2802DB60
:103EA000C80F00F02FB80128A1BF21F0FF4141EA5F
:103EB000C05000EE100A704710F1190FDCBFC80F98
:103EC00000F010B8193021F0FF419FED050A41EADA
:103ED000C05001EE100A21EE000A70470000004CAD
:103EE0000000003345F23C110028C0F2002191EDA2
:103EF000000A91ED001AB1EE402A00FE020A20EEFF
:103F0000010A704745F240110028C0F2002191EDEE
:103F1000000A91ED001AB1EE402A00FE020A20EEDE
:103F2000010A704780B52DED028BB0EE408A00F09B
:103F300014F800281EBF38EE080ABDEC028B80BDC5
:103F400045F24410C0F2002090ED000A90ED001AF6
:103F500080EE010ABDEC028B80BD10EE100A20F04D
:103F60000040B0F1FF4F5FEA9F9070470A46002182
:103F700000F076B8844641EA000313F0030349D108
:103F8000403A23D30B6803604B6843608B688360BF
:103F9000CB68C3600B6903614B6943618B698361C3
:103FA000CB69C3610B6A03624B6A43628B6A8362AB
:103FB000CB6AC3620B6B03634B6B43638B6B836393
:103FC000CB6BC36340304031403ADBD230320BD34D
:103FD0000B6803604B6843608B688360CB68C36089
:103FE00010301031103AF3D20C3205D351F8043BA3
:103FF00040F8043B043AF9D2043208D0D2071CBF7F
:1040000011F8013B00F8013B01D30B8803806046A7
:10401000704700BF082A13D38B07B1D010F00303F9
:10402000AED0C3F10403D21ADB071CBF11F8013B69
:1040300000F8013BA4D331F8023B20F8023B9FE794
:10404000043AD9D3013A11F8013B00F8013BF9D207
:104050000B7803704B7843708B78837060467047A1
:1040600070B4840746D0541E002A41D0CDB2034616
:1040700002E0621EE4B3144603F8015B9A07F8D12C
:10408000032C2ED9CDB245EA05250F2C45EA05456E
:1040900019D9264603F11002103E0F2E42F8105C8B
:1040A00042F80C5C42F8085C42F8045C02F1100231
:1040B000F2D8A4F1100222F00F0204F00F04103223
:1040C000032C13440DD91E462246121F032A46F81C
:1040D000045BFAD8221F22F00302121D134404F0DD
:1040E00003042CB1C9B21C4403F8011BA342FBD149
:1040F00070BC704714460346C2E700000000000091
:1041000054545220524547474553000D0A475054D6
:10411000207374617274206661696C65642C20433D
:104120006C6F73696E672053534920616E6420473A
:1041300050540D0A000D0A5472616E736D697474E7
:10414000656420616E6420726563656976656420CC
:1041500073616D706C6520617564696F2064617452
:104160006120636F6D70617269736F6E2066616943
:104170006C6564000D0A2A2A2A2A2A2A2A2A2A2A4F
:104180002A2A2A2A2A2A2A2A2A2A2A2A2A2A2A2A8F
:104190002A2A2A2A2A2A2A2A2A2A2A2A2A2A2A2A7F
:1041A0002A2A2A2A2A2A2A2A2A2A2A2A2A2A2A2A6F
:1041B0002A2A2A2A2A2A2A2A0D0A2A202020526557
:1041C0006E6573617320465350204578616D706C45
:1041D000652050726F6A65637420666F7220725F2B
:1041E000737369204D6F64756C652020202020203A
:1041F00020202020202020202020202A0D0A2A20D4
:1042000020204578616D706C652050726F6A65631F
:10421000742056657273696F6E20257320202020EC
:10422000202020202020202020202020202020208E
:1042300020202020202020202020202020202A0D87
:104240000A2A202020466C657820536F66747761B7
:104250007265205061636B2056657273696F6E20C2
:1042600025642E25642E2564202020202020202057
:10427000202020202020202020202020202020203E
:1042800020202020202A0D0A2A2A2A2A2A2A2A2AFD
:104290002A2A2A2A2A2A2A2A2A2A2A2A2A2A2A2A7E
:1042A0002A2A2A2A2A2A2A2A2A2A2A2A2A2A2A2A6E
:1042B0002A2A2A2A2A2A2A2A2A2A2A2A2A2A2A2A5E
:1042C0002A2A2A2A2A2A2A2A2A2A0D0A52656665B1
:1042D0007220746F20726561646D652E747874202D
:1042E00066696C6520666F72206D6F72652064650B
:1042F0007461696C73206F6E204578616D706C65B8
:104300002050726F6A65637420616E640D0A4653B3
:104310005020557365722773204D616E75616C2056
:10432000666F72206D6F726520696E666F726D6167
:1043300074696F6E2061626F757420725F73736948
:10434000206472697665720D0A000D0A5353492084
:104350006F70656E206661696C65640D0A00284E99
:10436000554C4C29000D0A57726974655265616499
:10437000206F7065726174696F6E206E6F74206358
:104380006F6D706C6574652064756520746F207442
:10439000696D656F757400312E32000D0A526574B7
:1043A00075726E6564204572726F7220436F64652A
:1043B0003A203078257820200D0A005B4552525D66
:1043C00020496E2046756E6374696F6E3A202573BE
:1043D00028292C202573000D0A54686973206578FC
:1043E000616D706C652070726F6A656374206465BE
:1043F0006D6F6E7374726174657320617564696F3B
:104400002073747265616D696E67207573696E677C
:104410002074686520535349206D6F64756C650D79
:104420000A77697468206120646F75626C652D621B
:104430007566666572206D656368616E69736D2E61
:1044400020412073696E652077617665206973204D
:1044500067656E65726174656420616E6420636F68
:104460006E74696E756F75736C790D0A737472650D
:10447000616D6564207669612061206C6F6F706288
:1044800061636B20636F6E6E656374696F6E20622B
:1044900065747765656E2074686520535349545878
:1044A00020616E642053534952582070696E732EF8
:1044B0000D0A5468652073696E6520776176652002
:1044C000646174612069732073746F72656420691C
:1044D0006E2074776F20627566666572732C20613A
:1044E0006C7465726E6174696E672062657477655D
:1044F000656E207468656D0D0A746F20656E737546
:10450000726520636F6E74696E756F757320616E6E
:104510006420756E696E746572727570746564205E
:1045200073747265616D696E672E205468652074BE
:1045300072616E736D697474656420616E640D0AD6
:10454000726563656976656420617564696F20646E
:104550006174612061726520636F6D706172656462
:1045600020746F207665726966792074686520739F
:1045700075636365737366756C20636F6D706C65CE
:1045800074696F6E206F660D0A7468652053534915
:10459000207472616E736665722E20546865207295
:1045A0006573756C74732077696C6C206265206428
:1045B0006973706C61796564206F6E207468652022
:1045C000525454205669657765722E0D0A546865F9
:1045D0002073616D706C6520646174612063616E2D
:1045E000206265206F6273657276656420757369F9
:1045F0006E672077617665666F726D2072656E6496
:104600006572696E6720696E20746865206D656DDE
:104610006F72790D0A766965776572206F6620651D
:104620003273747564696F2E0D0A000D0A525F476C
:1046300050545F436C6F7365204150492046616957
:104640006C65640D0A005465726D696E616C000DD5
:104650000A475054206F70656E206661696C65640E
:104660002C20436C6F73696E67205353490D0A0009
:104670006465696E69745F677074006465696E690A
:10468000745F737369000D0A525F5353495F436C43
:104690006F736520415049204661696C65640D0A5D
:1046A000007373695F656E747279000D0A525F530F
:1046B00053495F577269746552656164204150497E
:1046C000206661696C65642C20436C6F73696E674A
:1046D0002053534920616E64204750540D0A000D49
:1046E0000A5472616E736D697474656420616E64DE
:1046F0002072656365697665642073616D706C65B1
:1047000020617564696F206461746120636F6D70EE
:10471000617269736F6E2073756363657373667519
:104720006C007373695F6578616D706C655F77723B
:1047300069746500303132333435363738394142A7
:104740004344454606000000080000000300000046
:10475000050000000A000000010000000000000049
:104760000000000000000000000000000000000049
:1047700000000000000000000000FFFFFFFFFFFF3F
:10478000DFDFDFDFDFDF00000000000000000000EF
:104790000000000000000000000000000000000019
:1047A0000000000000000000000000000000000009
:1047B00000000000D4000000000000006A000000BB
:1047C00002FFDF0000000000000000005847000268
:1047D00001D4D4D420000022D04700025425002266
:1047E000D4470002D04A000200D4D4D430000022C2
:1047F000E84700025C250022EC470002D04A000294
:104800000101D4D40000000001010101F4470002BD
:10481000DC470002890C0002000000000048000292
:1048200002020200010200000080000001000000FE
:104830000080000002000000008000000300000073
:10484000008000000400000000800000050000005F
:104850000080000007000000004000000800000089
:104860000040000009000000008000000E00000071
:10487000008000000F0000000000011C000100008B
:104880000000011C010100000000011C02010000E9
:104890000000011C030100000000011C04010000D5
:1048A0000000011C050100000000011C06010000C1
:1048B000000001120C010000000001120D010000B7
:1048C000000001120E010000000001120F010000A3
:1048D00000000100080200000000010009020000C1
:1048E000000001000A020000000001000B020000AD
:1048F000000001000C020000000001000D02000099
:10490000000001000E020000000001000F02000084
:10491000040000000303000000000118020400006E
:104920000000011805040000000001180604000042
:104930000000011307040000000001140804000037
:104940000400000000050000000401070B05000042
:10495000000401070C050000040000000006000030
:10496000000001040106000000000104020600002E
:10497000000001040306000000000104040600001A
:1049800000000104050600000000011800070000F7
:1049900000000118010700000000011802070000D4
:1049A00000000118030700000000011805070000BF
:1049B00000000118060700000000011C00080000AC
:1049C0000000011C010800000000011C020800009A
:1049D0000000011C030800000000011C0408000086
:1049E0000000011C08080000000001130E08000070
:1049F000000001130F080000040000000709000078
:104A00000000011008090000000001100909000061
:104A1000000C0104020A0000000C0104030A00005B
:104A2000000C0104040A0000000C0104050A000047
:104A300000000104060A000004000000070A00004C
:104A400000000105080A000000000105090A000035
:104A50000000010E0A0A000000000118000B00000F
:104A600000000118020B000000000118030B0000F9
:104A700000000118040B0000000001180B0C0000DE
:104A8000000001180C0C0000000001180D0C0000C3
:104A900000000104020D000000000104030D0000ED
:104AA00000000104040D000000000104050D0000D9
:104AB00004000000070D000052000000284800021A
:104AC00000000000B300B400B600020403040404B4
:104AD000691C0002411D0002D11D0002711E00026E
:104AE000911E0002B11E0002B91E0002C11E00028A
:104AF000111F0002411F0002491F00020000006850
:104B000000000068000000800000008000000070CD
:104B10000000007040000022400000220B00000056
:104B2000344B000219000000B84B000204000000E2
:104B3000FC4A000200000068000000680001000D4F
:104B400000000068000000680001000D0000008007
:104B500000000080000100080000008000000080CC
:104B60000001000800000070000000700001000A51
:104B700000000070000000700001000A000000004A
:104B800000000000010000050000002000000020DF
:104B90000100000440000022400000220000000349
:104BA0006C0400220C260022000000030C260022C8
:104BB0000C260022000000030000006800000068CE
:104BC000000000900001090D00000068000000686E
:104BD0000000007800010B0D000000680000006874
:104BE000000000270001020D0000006800000068BE
:104BF0004C0000020001010D000000800000008058
:104C00000000009000010908000000800000008002
:104C10000000007800010B08000000800000008008
:104C20000000002700010208000000800000008052
:104C30004C0000020001010800000070000000703C
:104C4000000000900001090A0000007000000070E0
:104C50000000007800010B0A0000007000000070E6
:104C6000000000270001020A000000700000007030
:104C70004C0000020001010A0000000000000000DA
:104C80000000009001010905000000000000000084
:104C90000000007801010B0500000000000000008A
:104CA00000000027010002050000000000000000D5
:104CB0004C0000020100010500000020000000205F
:104CC0000000009001010904000000200000002005
:104CD0000000007801010B0400000020000000200B
:104CE0000000002701000204000000200000002056
:104CF0004C000002010001040C0000220C00002204
:104D000000000090000109030C0000220C000022AA
:104D10000000007800010B030C0000220C000022B0
:104D200000000027000002031000002240000022C3
:104D300050000002000001030C2600220C26002275
:104D400080000002000001030600000008000000CF
:104D500003000000050000000A000000010002003E
:104D6000080010002000D4D4000FC93F000F4940B4
:104D700000CB9640000FC9400053FB4000CB1641CA
:104D800000ED2F41000F49410031624100537B414A
:104D9000003A8A4100CB9641005CA34100EDAF414F
:104DA000007EBC41000FC94100A0D5410031E24165
:104DB00000C2EE410053FB4100F20342003A0A42B6
:104DC0000083104200CB164200141D42005C2342B7
:104DD00000A5294200ED2F4200363642007E3C42BB
:104DE00000C74242000F4942A2000000F900000043
:104DF000830000006E0000004E0000004400000030
:104E00001500000029000000FC0000002700000041
:104E100057000000D1000000F50000003400000041
:104E2000DD000000C0000000DB00000062000000A8
:104E300095000000990000003C00000043000000C5
:104E40009000000041000000FE0000005100000042
:104E500063000000AB000000DE000000BB000000AB
:104E6000C500000061000000B70000002400000041
:104E70006E0000003A000000420000004D000000FB
:104E8000D2000000E0000000060000004900000021
:104E90002E000000EA00000009000000D100000020
:104EA000920000001C000000FE0000001D00000039
:104EB000EB0000001C000000B10000002900000011
:104EC000A70000003E000000E80000008200000093
:104ED00035000000F50000002E000000BB000000BF
:104EE0004400000084000000E90000009C00000075
:104EF0007000000026000000B40000005F00000009
:104F00007E00000041000000390000009100000018
:104F1000D6000000390000008300000053000000AC
:104F200039000000F40000009C0000008400000034
:104F30005F0000008B000000BD000000F9000000D1
:104F4000280000003B0000001F000000F8000000E7
:104F500097000000FF000000DE00000005000000D8
:104F6000980000000F000000EF0000002F0000007C
:104F7000110000008B0000005A0000000A00000031
:104F80006D0000001F0000006D00000036000000F2
:104F90007E000000CF00000027000000CB000000D2
:104FA00009000000B70000004F00000046000000AC
:104FB0003F000000660000009E0000005F0000004F
:104FC000EA0000002D00000075000000270000002E
:104FD000BA000000C7000000EB000000E500000080
:104FE000F10000007B0000003D0000000700000011
:104FF00039000000F70000008A00000052000000A5
:1050000092000000EA0000006B000000FB000000BE
:105010005F000000B10000001F0000008D000000D4
:105020005D000000080000005600000003000000C2
:105030003000000046000000FC0000007B00000083
:105040006B000000AB000000F0000000CF0000008B
:10505000BC000000200000009A000000F4000000E6
:10506000360000001D000000A9000000E300000061
:1050700091000000610000005E000000E6000000FA
:105080001B000000080000006500000099000000FF
:10509000850000005F00000014000000A000000078
:1050A00068000000400000008D000000FF000000CC
:1050B000D8000000800000004D00000073000000D8
:1050C000270000003100000006000000060000007C
:1050D0001500000056000000CA0000007300000028
:1050E000A8000000C900000060000000E20000000D
:1050F0007B000000C00000008C0000006B0000007E
:105100000400000007000000090000000000C93F83
:105110000000F0390000DA370000A2330000842ECE
:105120000000502B0000C2270000D0220000C41F46
:105130000000C61B00004417000080000000800033
:10514000FFFF7F7F0000000000000406362E342E93
:1051500030004275696C7420776974682052656EFE
:105160006573617320416476616E63656420466C8B
:10517000657869626C6520536F667477617265202B
:105180005061636B6167652076657273696F6E202D
:06519000362E342E300023
:0200000402C92F
:04F04000FFFFFFFFD0
:04F04400EFFFFFFFDC
:04F0C000FFFFFFFD52
:04F0C400FFFFFFFF4C
:04F1200000000000EB
:04F1240000000000E7
:0400000502002A616A
:00000001FF
