:10000000B80400209D000000B9260000452900002A
:100010004529000045290000452900004529000028
:100020000000000000000000000000004529000062
:100030004529000000000000452900004529000076
:10004000ED1C0000551D0000D91D0000491E0000D8
:10005000ED1C0000551D0000D91D0000491E0000C8
:10006000010000009000000002000000700000008D
:1000700020000020200000200000104000000203AB
:1000800020000020B4000020400400000000010314
:10009000CC040020081200200000000310B500F07E
:1000A00037F801F073FBFEE7F8B540F26007C0F2E5
:1000B00000073B680500A3B15E007C68F618B60037
:1000C000361902E00C34B4420BD0637AAB42F9D15A
:1000D000206862680021121A0C3402F089FCB442D4
:1000E000F3D1BE6896B1FC683601361902E01034CF
:1000F000A6420BD0637BAB42F9D120686268A1684D
:10010000121A103402F050FCA642F3D1F8BDC046DA
:1001100040F200034EF6005270B5CEF20002C0F27B
:10012000000382B09360002000F03EFF02F098F9D7
:100130006B460026DC1D26700120237802F0DCFBD4
:10014000EFF31081012585F3108846F6FC73C4F2A5
:1001500004039A68334802409A609A6881F31088D1
:1001600040F60001C4F204010A68D207D20F2270DF
:100170000A68D207D20F22700A68D207D20F227003
:10018000EFF3108185F310888022986852050243AE
:100190009A609B6881F31088012002F083FB0120A4
:1001A00000F002FF40F600531F4AC4F200039E8095
:1001B0001A8040F2B80240F2004CC2F200029A608B
:1001C0006244DA6046F2000240F2201141F200007F
:1001D000C4F2000250529D800020FFF765FF02F03C
:1001E00027F902F001FA022000F0DEFE0120FFF7FD
:1001F0005BFF43F6BC1543F6C013C0F20005C0F226
:1002000000035B1B9E10002B05DD002408CD01348C
:100210009847A642FADC02F031FB002002F094FB82
:0C02200002B070BDFFFFFFEF00A5FFFF64
:04040000FFFFFFFFFC
:04040400DFCFFFFF48
:10044000FFFFFF0000001008000000000000000097
:100450000000000000000800000000000000000094
:100460000000000000001008000000000000000074
:100470000000000000000800000000000000000074
:10048000000000006800002000000000D0100020E4
:1004900038110020A0110020000000000000000022
:1004A000000000000000000000000000000000004C
:1004B000000000000000000000000000000000003C
:1004C000000000000000000000000000000000002C
:0404D0000000000028
:1004D40040F2B40040F2B403C2F20000C2F20003DE
:1004E40010B5834205D040F20003C0F2000303B10B
:1004F400984710BD40F2B40040F2B403C2F20000C9
:10050400C2F200031B1A9A10D90F8918491010B5AA
:1005140029B140F20003C0F2000303B1984710BDB3
:1005240010B540F2CC44C2F20004237873B9FFF74B
:10053400CFFF40F20003C0F200032BB140F20840A9
:10054400C0F2000000E000BF0123237010BDC046CC
:1005540040F20003C0F2000310B54BB140F2D041A9
:1005640040F20840C2F20001C0F2000000E000BF07
:10057400FFF7C0FF10BDC046C368F0B5C646984635
:100584008768040040680D0000B5FE1AC018904446
:10059400964208D902F006FABFF35F8F4346E36040
:1005A40080BCB846F0BD320002F0FCF94346DB1BC8
:1005B4001A006068A919984602F0F4F9BFF35F8F36
:1005C400ECE7C046F8B54746CE46884680B51600E7
:1005D400070040F20009C56884681CE0013B5B1B0E
:1005E400641BB44200D934009C4200D91C007868D2
:1005F40022004146401902F0D5F92D19A144A04426
:10060400361BBC68631B5A1E93415B421D40BFF3FB
:100614005F8FFD6036B13B699D42DFD3013B1B19FF
:100624005B1BDDE74846C0BCB946B046F8BDC046D2
:1006340010B540F62854C2F20004A822002120007C
:1006440002F0D4F9032342F640322361636140F29D
:100654002853C0F20002C2F20003A261E36140F633
:10066400000323620023A3626362E362226640F212
:10067400E842C2F2000262664022A2662367E36691
:100684006367BFF35F8F054A00215156013AE15475
:100694000133102BF8D1BFF35F8F10BD2736000054
:1006A400F8B540F628534546DE4657464E46C2F254
:1006B40000031B78E0B5884605001400532B01D0D5
:1006C400FFF7B6FF40F62852C2F2000294466E00CD
:1006D4007319DB006344DA6E1F6F914697422AD880
:1006E400D31B9C4207D84CB92000F0BCBB46B24691
:1006F400A946A046F8BD1C00002CF5D0A24640F641
:100704002852C2F2000294467319DB006344596E06
:100714002200C919404602F045F93F19534643B136
:1007240040F62853C2F200039C467619F60066444C
:1007340037675446D8E79B6EA246DB1B9C4223D8FE
:1007440040F62852C2F2000293467319DB009B4420
:100754005B46596E5246C919404602F023F9534686
:10076400E41A5B469B6E5744BB420FD04B46DB1BDF
:1007740099464C4504D8002CD0D0D044A244BEE7BE
:100784004C46002CCAD0F8E79A46D9E70027F0E790
:1007940010B50B00EFF31084012181F310881900C8
:1007A400FFF77EFF84F3108810BDC046431C70B56C
:1007B40004005800C01840F62853C2F200039C46B7
:1007C40063001B19DB006344DC6AC000150060444D
:1007D400012C14D0022C0DD0FCB99A6A5E6AB24284
:1007E40022D9013A961BB54207D82A00FFF7C4FE66
:1007F4002C0002E0FFF7E6FE0400200070BD9A6AB8
:100804005C6AA2420BD9013A121B2C00954200D912
:1008140014002200FFF7B0FEEFE70024EDE71B6AA7
:10082400D218013A121BF0E71B6AD218013A961B40
:10083400D9E7C046F8B540F62853C2F200031B7846
:1008440004000D001600532B01D0FFF7F1FEEFF367
:100854001087012181F31088320029002000FFF75E
:10086400A5FF87F31088F8BD10B540F62854C2F2EE
:1008740000042378532B01D0FFF7DAFEE36E206FD8
:10088400C01A431E984110BD10B504008268636805
:10089400501C984207D8236899540200E368A0606A
:1008A4000133E36063689A4200D010BD2168206977
:1008B400FFF7C0FFA368984203D001235B42E360C3
:1008C400F3E70023A360F0E7F8B54E4645465746E4
:1008D400DE46E0B51E000A9B0F00804615009946CF
:1008E4000B99974200D271E03B000122B3FBF5F370
:1008F40001329D42FAD9B246964200D29246012371
:100904001A000A4093460B4202D14B46002B42D1B7
:100914004346DB680124002B02DA27E06C43013EE6
:10092400012EFBD8B7FBF4F39D4204D86C43B7FB0C
:10093400F4F39D42FAD943F2B066C0F2000606E031
:10094400B4FBF5F3AC420DD31C00B7FBF3F3220068
:100954005A43F1564046BF1AFFF796FF4346DB68F9
:10096400002BEDDA5B460BB14B468BB9F0BCBB46B2
:10097400B246A946A046F8BD01235B429C4620210D
:100984004046E144FFF780FF4346DB68002BEDDB84
:10099400D145F1D8EAE72024890714D5744274417B
:1009A40024012034D145B3D901235B429C46210064
:1009B4004046E144FFF768FF4346DB68002BD5DB84
:1009C4004A46002AA6D0D145EED8A1E7012292E7F3
:1009D400F0B5DE4657464E464546E0B59BB00AABF9
:1009E40005934023069300230C00914640F2010B2B
:1009F400824607930893B94B0990029300216156EC
:100A04000134002900D17AE0252907D005A8FFF791
:100A14003BFF089B002BF1DA1F0079E00023E3562B
:100A24000027022508200422611C2D2B0CD02D2B1D
:100A34000EDC232B11D02B2B3FD10C0017430023AA
:100A4400E356611C2D2BF2D15B460C001F43F6E7E5
:100A5400302B05D10C002F43F1E70C000743EEE7E0
:100A64001A00303AD2B20026092A01D90DE0013128
:100A7400B20096197600F6180023CB560C001A0023
:100A8400303AD2B2303E092AF1D9611C2E2B26D03D
:100A94000023002540F20008E3560C00042219004C
:100AA400914368290BD0252B13D0583BDBB2202B64
:100AB400AFD8029A9B00D3589F460026E8E704214A
:100AC4000023E35601341A008A43682AF8D0252B00
:100AD400EBD1252105A8FFF7D7FE089B9AE7012350
:100AE400E3562A2B1CD14B461B6849461A1D1D6828
:100AF40002230A6040F20108E356E11CCDE7089F97
:100B04005546002F04DD079C002C00D0AEE03F19B1
:100B140038001BB0F0BCBB46B246A946A046F0BDA7
:100B24001A00303AD2B20C000025092A00D9EFE0AD
:100B34002A009500AD186D00EA1800230134E3562D
:100B4400303A19003039C9B20929F2D9150040F2F6
:100B54000108611CA1E74B4649461B6805A81A1DFC
:100B64000A60196810222B0001970096FFF7ACFE6B
:100B7400089B4FE74B4649461B6805A81A1D0A60A7
:100B8400196800230193083300931022FFF79CFE99
:100B9400089B3FE74B4649461B681A1D1B680A60C1
:100BA400DA1703939B1853400122092B06DD0A2010
:100BB4001900013293FBF0F36329F9DCA84695424E
:100BC4007AD3002E58D10026089B002B00DA23E7A5
:100BD400039B002B00DA8AE07B0700D593E0032314
:100BE4003B40022B00D197E02B000A220399019786
:100BF400009605A8FFF768FE089B0BE74B4649469D
:100C04001B6805A81A1D0A6000215956FFF73CFE0F
:100C1400089BFFE64B4649461B6805A81A1D0A6057
:100C240019680A222B0001970096FFF74DFE089BD6
:100C3400F0E64B4649461B681A1D0A601E68002EE2
:100C44004ED00135474675190AE017B1AE4200D1BE
:100C5400DFE605A8FFF718FE089B002B00DADBE6A9
:100C64000021715601360029EFD1D2E62200280076
:100C74000AA9FFF7DFFD4AE70223039A3B40002A53
:100C84001EDB7A071CD4002B5ED025B3FB0722D4CD
:100C9400230044469846A6421AD9202105A8FFF706
:100CA400F3FD089B013E002B00DAB5E6002EF2D1DD
:100CB4004246A046140088E79046002EDCD182E725
:100CC400013E03B13DB1FB0705D4002EE0D17AE724
:100CD4004346A0461C00089B77E7C0462C3600001C
:100CE40042F64C3640F20008C0F20006A9E75B4227
:100CF4002D2105A80393FFF7C7FD089B002B00DBFC
:100D04006DE71F0004E72B2105A8FFF7BDFDF4E7FD
:100D140040F200080131C0E6002D00D064E7002E47
:100D240000D161E7464517D9302105A8FFF7ACFD8E
:100D3400089B013E002B00DA6EE6002EF2D1002B58
:100D440000DB51E71F00E3E6FB07A1D5089B002B5E
:100D540000DB49E71F00DBE6089BF0E70EB400B5B3
:100D640082B003AB02CB01AA0193FFF731FE02B0BC
:100D740008BC03B01847C046002330B595B04022E4
:100D840003AC002104A8039301F030FE200001F01D
:100D940055FC42F654310020C0F20001FFF7DEFF9B
:100DA40042F69C310020C0F20001FFF7D7FF42F663
:100DB400E43242F6E831C0F20002C0F20001002041
:100DC400FFF7CCFF6178A378E278009142F62C41DA
:100DD4000020C0F20001FFF7C1FF42F654310020A9
:100DE400C0F20001FFF7BAFF42F678410020C0F2DA
:100DF4000001FFF7B3FF42F6F8410020C0F2000102
:100E0400FFF7ACFF00F0DEF80400002800D16EE02C
:100E140042F610610020C0F20001FFF79FFF42F686
:100E24002C612200C0F200010020FFF797FF00BEF2
:100E340042F66C610020C0F20001FFF78FFF42F61A
:100E440094610020C0F20001FFF788FF42F6B86108
:100E54000020C0F20001FFF781FF42F6D4610020B8
:100E6400C0F20001FFF77AFF0024032C20D0FFF723
:100E7400FBFC0028FBD0402204A90020FFF788FCDB
:100E840004A801F098FD0300C4B2FF201840022812
:100E940035D0032815D0012848D100F0FBF805000F
:100EA400002800D176E042F6E861C0F200012EE0AD
:100EB40042F6D8710020C0F20001FFF74FFF15B0D1
:100EC40030BD00F0E1FB050000285BD042F69471D0
:100ED4000020C0F20001FFF741FF42F62C612A0016
:100EE400C0F200010020FFF739FF00BEBDE742F663
:100EF4004C610020C0F20001FFF730FF98E700F0DA
:100F040039FA050078B342F64471C0F200010020BA
:100F1400FFF724FF00F000FC42F62C612A00C0F227
:100F240000010020FFF71AFF00BE23E042F66C61C7
:100F34000020C0F20001FFF711FF42F69461002087
:100F4400C0F20001FFF70AFF42F6B8610020C0F2C8
:100F54000001FFF703FF42F6D4610020C0F2000154
:100F6400FFF7FCFE81E742F668710020C0F2000141
:100F7400FFF7F4FE42F6FC710020C0F20001FFF717
:100F8400EDFE72E742F6B4710020C0F20001FFF7F3
:100F9400E5FE6AE742F614710020C0F20001FFF793
:100FA400DDFEE7E710B5022800D010BD43F2D8718A
:100FB40040F6D470C0F20001C2F2000000F0FEFF5F
:100FC400F3E7C04643F2107140F6DC7010B5C0F28E
:100FD4000001C2F2000000F041FC040000283BD1F3
:100FE40043F2747141F21C00C0F20001C2F200002D
:100FF40000F034FC040008B9200010BD43F2B00333
:1010040043F2047243F260010020C0F20003C0F214
:101014000002C0F20001FFF7A1FE41F21C00C2F27F
:10102400000000F0D3FB78BB40F6DC70C2F2000095
:1010340000F0CCFB0028DFD043F27C0343F20472BF
:1010440043F26001C0F20003C0F20002C0F20001EA
:101054000020FFF783FECFE743F23003C0F2000322
:1010640043F2047243F260010020C0F20002C0F2B5
:101074000001FFF773FE40F6DC70C2F2000000F0DE
:10108400A5FB0028B8D0D7E743F2E003C0F2000381
:10109400E6E7C046F0B540F65070C646202200B5DB
:1010A4000021C2F2000001F0A1FC40F6D060202231
:1010B4000021C2F2000001F099FC40F6D050202239
:1010C4000021C2F2000001F091FC43F21011002053
:1010D40040F65074C0F20001FFF740FEC2F2000473
:1010E400FFF7C2FB0028FBD040F65071802200209D
:1010F400C2F20001FFF74CFB38B943F26011002043
:10110400C0F20001FFF72AFEEAE703231A000138C0
:1011140086080240034200D1ACE0013640F6D051CB
:1011240041F21C001F233200C2F20001C2F200008F
:1011340000F0B8FD8046002800D09EE040F65071D3
:1011440040F6DC701F233200C2F20001C2F200003C
:1011540000F0B2FD8046002800D0E1E040F2200417
:1011640040F6D17540F6D077C2F20004C2F2000511
:10117400C2F200070EE02368013B23602368002BC2
:1011840000D1ADE02B78022B00D189E03B78022B13
:1011940000D185E02B78012BEDD13B78012BEAD1EE
:1011A400734B43F2202123600023C0F2000100208E
:1011B4002B703B70FFF7D2FD40F6D05141F21C007A
:1011C4001F233200C2F20001C2F2000000F074FDDD
:1011D4008046002800D0A8E040F6D06140F6DC70DC
:1011E4001F233200C2F20001C2F2000000F05AFDD7
:1011F400804668B19EE02368013B23602368002B8E
:1012040000D16DE02B78022B4AD03B78022B47D0DB
:101214002B78012BEFD13B78012BECD1544B43F2CB
:10122400942123600023C0F2000100202B703B7046
:10123400FFF794FD40F6D06140F650703200C2F2E0
:101244000001C2F2000001F0C3FB002800D076E0E8
:1012540040F6D06243F2C421C2F20002C0F200019F
:10126400FFF77CFD44F240210120C0F20F0101F0A0
:10127400F3F911E0B300E25050E743F27013C0F207
:10128400000343F2F06243F260010020C0F2000266
:10129400C0F20001FFF762FD404680BCB846F0BDD5
:1012A40043F2AC1343F2F06243F26001C0F2000374
:1012B400C0F20002C0F200010020FFF74FFD43F22C
:1012C400DC110020C0F20001FFF748FD43F20821C1
:1012D4000020C0F20001FFF741FD40F22C18DBE7CB
:1012E40043F2AC1343F2F06243F26001C0F2000334
:1012F400C0F20002C0F200010020FFF72FFD43F20C
:10130400DC110020C0F20001FFF728FD43F20821A0
:101314000020C0F20001FFF721FD40F21408BBE7F2
:1013240043F28C13C0F20003ABE743F25423C0F240
:101334000003A6E743F27423C0F20003A1E743F2DB
:10134400F0210020C0F20001FFF708FD43F2DC1198
:101354000020C0F20001FFF701FD43F20821002044
:10136400C0F20001FFF7FAFC40F22F1894E7C046E0
:10137400FFFFFF0040F6507070B5202282B00021BC
:10138400C2F2000001F032FB40F6D06020220021BE
:10139400C2F2000001F02AFB40F650602022002136
:1013A400C2F2000001F022FB40F6D05020220021BE
:1013B400C2F2000001F01AFB43F22831002040F68B
:1013C4005075C0F20001FFF7C9FCC2F20005FFF737
:1013D4004BFA0028FBD040F6507180220020C2F264
:1013E4000001FFF7D5F938B943F260110020C0F2CB
:1013F4000001FFF7B3FCEAE703231A00013884086D
:101404000240034200D1BEE0013443F278310020AF
:1014140040F65065C0F20001FFF7A0FCC2F20005DF
:10142400FFF722FA0028FBD040F65061802200200A
:10143400C2F20001FFF7ACF938B943F260110020A1
:10144400C0F20001FFF78AFCEAE703231A0001381F
:101454000240034202D1800880002A501F2640F631
:10146400D05240F6506141F21C0023000096C2F2B3
:101474000002C2F20001C2F2000000F027FC0500E5
:10148400002800D082E040F6D06240F6507140F669
:10149400DC7023000096C2F20002C2F20001C2F224
:1014A400000000F013FC0500002800D0BFE040F26B
:1014B400200240F6D17140F6D070C2F20002C2F2AE
:1014C4000001C2F200000CE01368013B13601368D2
:1014D400002B00D18CE00B78022B69D00378022B0F
:1014E40066D00B78012BEFD10378012BECD1654B3F
:1014F400136000230B7043F240410370C0F20001FB
:101504000020FFF72BFC43F270410020C0F20001E1
:10151400FFF724FC40F6D06140F650602200C2F28E
:101524000001C2F2000001F053FA002800D083E069
:1015340040F6D06243F2A041C2F20002C0F20001C0
:10154400FFF70CFC40F6D05140F650702200C2F276
:101554000001C2F2000001F03BFA002800D08BE049
:1015640040F6D05243F21051C2F20002C0F2000120
:101574000020FFF7F3FB44F240210120C0F20F01E9
:1015840001F06AF811E0A300EA503EE743F2C833E1
:10159400C0F2000343F2E06243F260010020C0F2B3
:1015A4000002C0F20001FFF7D9FB280002B070BDB1
:1015B40043F2104343F2E06243F26001C0F20003DD
:1015C400C0F20002C0F200010020FFF7C7FB43F2A3
:1015D400DC110020C0F20001FFF7C0FB43F2082138
:1015E4000020C0F20001FFF7B9FB40F22C15DCE744
:1015F40043F2104343F2E06243F26001C0F200039D
:10160400C0F20002C0F200010020FFF7A7FB43F282
:10161400DC110020C0F20001FFF7A0FB43F2082117
:101624000020C0F20001FFF799FB1425BDE743F247
:10163400EC33C0F20003ADE743F2C843C0F2000349
:1016440043F2E06243F26001C0F20002C0F2000122
:101654000020FFF783FB43F2DC110020C0F20001FD
:10166400FFF77CFB43F208210020C0F20001FFF7E2
:1016740075FB40F22F1598E743F23853C0F200038C
:10168400DEE7C046FFFFFF0040F6DC7010B5C2F293
:10169400000000F09BF80400C8B941F21C00C2F23B
:1016A400000000F093F8040008B9200010BD43F2D4
:1016B400A053C0F2000343F2D06243F26001C0F2CF
:1016C4000002C0F200010020FFF748FBEDE743F2FF
:1016D4008053C0F20003EEE70379012B06D040F6F5
:1016E400D1730222C2F200031A70704740F6D1721D
:1016F400C2F200021370F8E70379012B06D040F61A
:10170400D0730222C2F200031A70704740F6D072FE
:10171400C2F200021370F8E740F6DC7010B5C2F2B2
:10172400000000F053F838B941F21C00C2F2000086
:1017340000F04CF8B8B910BD43F2C05343F2C06294
:1017440043F260010020C0F20003C0F20002C0F2C4
:101754000001FFF703FB41F21C00C2F2000000F09D
:1017640035F80028E7D043F2EC5343F2C06243F269
:101774006001C0F20003C0F20002C0F200010020C8
:10178400FFF7ECFAD7E7C04610B5FFF7F5FA0020EB
:1017940010BDC046F0B50400806A85B08C4601AD2A
:1017A40090B12B000200C2CAC2C363681B780360F5
:1017B40063460371E36A8360636A9847A36A0BB163
:1017C40013CD13C305B0F0BD2800EEE710B5040037
:1017D400002840D045F249030268C5F253239A42D7
:1017E40037D10023036043685A6922B193681068B3
:1017F4001B6A984763681A6922B1936810681B6A68
:10180400984763680220185600281ADA01201856EF
:10181400002812DA0320185600F0D6FF042063686B
:10182400185600F0D1FF4021A36800201A788A439B
:101834001A70DA780022DA7010BD00F0C5FF636810
:10184400E8E700F0C1FF0120636818560028E1DBD7
:10185400F3E70720F0E70120EEE7C046F0B5454680
:10186400DE4657464E46E0B504000D0085B000281C
:101874004BD045F249030268C5F253239A4200D182
:1018840001E1002941D08B69FBB30A6AEAB30B7802
:10189400012B00D9F4E0C9787F2936D829797F292A
:1018A40033D8697A012900D1EFE019B91278002AF6
:1018B40000D1EEE042F20402C4F2070290462F691E
:1018C4001B02984467B18022796812050B68386856
:1018D4001A6042469A60BB681B6898470600A8B91C
:1018E4006B69DBB18020596800030A6810604046C8
:1018F400506018689B681B689847060070B12FB148
:10190400BB6838681B6A984700E00126300005B0C0
:10191400F0BCBB46B246A946A046F0BD40F22072D8
:10192400AB69C0F240026362EB699446E362002350
:10193400A3622B78656063441B02A3606E7A002E59
:1019440000D1A8E0B021002740F2000CE87A6B7BBC
:1019540040001B0318432A6AAB7A184313780BB16F
:10196400B121394353787027DD01A9430D00590093
:101974005B01194329430091D378B8439578070054
:1019840010799D401B01984620B1023843425841CA
:1019940000012030537933B1012B00D187E0614637
:1019A400012319438C46414693790193137A9B078B
:1019B4001B0F0B433B43002E72D1517A4EF20006AB
:1019C4000291917A33438B46D17A8846EFF3108A99
:1019D400012181F3108846F6FC7640F21309C4F223
:1019E40004067768616803974F460978791A123FAD
:1019F4008F400399B943716076688AF31088A668AA
:101A04006946F77800270978EDB2F7703170757080
:101A1400B070D2799BB2B272029A022032735A46E3
:101A240072734246B2736246D2B2F2733382202397
:101A3400019AF25463681856002804DB997922004D
:101A440000F0D4FE636801201856002804DB59799D
:101A5400220000F0CBFE63680420197A1856220095
:101A640000F0C4FE032063682200D979185600F000
:101A740057FE45F24903C5F253230026236045E788
:101A840040F27A5642E70E2640E7AA7A012A00D1AC
:101A940010E706263AE7B821082740F2100C55E76C
:101AA400002140F2000840F2000B02918EE76146EB
:101AB400032319438C4676E7F0B5C64600B584B0D7
:101AC4001D000AAB1B7804000E001700984600287E
:101AD40000D1BEE045F249030268C5F253239A429D
:101AE40000D0BBE0002900D1B0E0002D00D1B0E06F
:101AF4006268536963B118689B686946DB699847F3
:101B0400002800D0A6E0029BAB4200D2A1E06268AC
:101B1400136963B118689B686946DB6998470028B4
:101B240000D097E0029B0130AB4200D292E04346E2
:101B3400062B00D88DE00F2B07D901339B0700D06B
:101B440087E043461B2B00D183E040210800A268B4
:101B540013781840194200D082E020234146E66001
:101B640027616061A061E561E1546368596931B33B
:101B740040464B68A5611A6802230F2804D84346DF
:101B8400073B581E8341DBB208201B0303439846DE
:101B94005088424B1840434603435380ABB2D38131
:101BA4009760002F63D08B6808685B6811009847C2
:101BB40000284FD12022A25C63689046A2681F6966
:101BC4004FB340467B686561196802230F2803D828
:101BD400053343459B415B42082040F23C0C1B010A
:101BE40003436046034098466346C878ADB29843C1
:101BF40043460343CD81CB704E60002E41D0202557
:101C040013783868AB431370BB685B68984708BBAC
:101C1400635DA26898464346D17A108AC9B280B2FD
:101C24000F2B1FD940240133A1439B08203C053BC3
:101C34002143D17260211A4C1B02204003439BB202
:101C44001382137800200B43137003E0002F00D09D
:101C54004BE7012004B080BCB846F0BD0720F9E78B
:101C64000820F7E7072B16D840242143E1E70C208E
:101C740093788343937041F26003C2F2000393604C
:101C840091E70C20DBB28343CB7041F25C03C2F2D8
:101C940000034B60B3E76024A143CAE7F3CFFFFF1F
:101CA400FFF0FFFF00B583B0009313000A0000218A
:101CB400FFF702FF03B000BD00B583B0009313002B
:101CC4000022FFF7F9FE03B000BDC04610B582B094
:101CD40004AC247829B122B10094FFF7EDFE02B0E0
:101CE40010BD0120FBE7C04670B5EFF30384103C40
:101CF40064B2200000F006FD41F2A003A400C2F289
:101D04000003E3589A69D9698A4217D018699C6814
:101D140090B120255D5D0F2D08D9646891000C50A9
:101D2400D96901329A618A4208D070BD072D0BD857
:101D340021798154D969F4E76068F2E703205B688C
:101D4400185600F013FDF0E7A58854000553E8E7A2
:101D540010B5EFF30384103C64B2200000F0D2FC11
:101D640041F2A003A400C2F20003E458606863696E
:101D7400026AE16912B15278012A13D08B420BD066
:101D8400E268A1682AB12020205C0F2805D99800B8
:101D940082584A600133636110BD07280FD8D25CB2
:101DA4000A71F7E74A1E9A420DD00269002AE5D06B
:101DB400C07840B200F0DAFC6369E169DEE75800FC
:101DC400825A8A80E6E7C07840B200F0DBFC63699F
:101DD400E169D3E770B5EFF30384103C64B22000EB
:101DE40000F090FC41F2A003A200C2F20003D55817
:101DF400AB68DB789B0704D56B685B7A012B00D05A
:101E040070BD200000F0E0FC02206B68185600282A
:101E140009DA4021AA6813788B4313700121280042
:101E2400FFF7B8FCECE700F0CFFC022040216B6820
:101E3400AA68185613788B4313700028EEDB00F061
:101E4400A1FCEBE770B5EFF3038441F2A003022099
:101E5400103C64B2C2F20003A200D5586B68185655
:101E6400002814DA4021AB681A788A431A700021DA
:101E7400DA78D970D6B212071ED4F30722D4142309
:101E84003340142B26D0200000F03CFC70BD00F041
:101E94009BFC022040216B681856AB681A788A4371
:101EA4001A700028E3DB00F06DFC0021AB68DA78DF
:101EB400D970D6B21207E0D528000531FFF76AFCC5
:101EC400F307DCD504212800FFF764FC1423334016
:101ED400142BD8D108212800FFF75CFCD3E7C046B7
:101EE400F0B5DE4657464E464546E0B583B0EFF3BF
:101EF4001082012383F3108841F29C03C2F2000391
:101F040001931B6833B940F60051C4F20401CB704D
:101F14004033CB7001990B6801330B6082F3108856
:101F2400038800934BB380235B029846224B40F610
:101F34000005002140F2FF099C464068C4F20405F4
:101F44004F4682880468130A3A4047461B013C42C4
:101F54000AD09F18BF00BA4666467F593740564696
:101F640077516746274077519B189B005C5101319C
:101F7400009B89B208308B42E2D1EFF31082012337
:101F840083F31088019B1B681BB101990B68013B0B
:101F94000B60019B1B6833B940F60051C4F2040185
:101FA400CB708033CB7082F3108803B0F0BCBB4697
:101FB400B246A946A046F0BDFFFFFEFF10B590B1A2
:101FC40089B14B6863B145F254230268C5F24F03EB
:101FD4009A420AD003600800FFF782FF002010BD78
:101FE4000B88002BEFD00120F9E70E20F7E7C0465D
:101FF4000620704706207047B0B144F200330268EF
:10200400C4F254439A420DD1042346F20002C3564B
:10201400C4F20002C0339B009958044801400020D8
:10202400995070470720FCE70120FAE7FFFFFFFE05
:10203400062070470620704730B50C2140F2001589
:102044000CE00C0082781440042C0CD03F2B02D9F5
:10205400C389AB420BD810303F2A06D90A00C37893
:102064001A40042AEDD1062030BD0020FCE70120EF
:10207400FAE7C04610B510B344F200330268C4F264
:1020840054439A421DD1D1B1042240F20003825636
:10209400C2F200039200D25800230B604B60D37845
:1020A4003F2B10D940F200108860D48901382040B9
:1020B400C8603F208343802B0BD0002010BD01203B
:1020C400FCE70720FAE780235B028B60D389CB60AF
:1020D400F3E780235B020B6093894B60EDE7C04616
:1020E40030B5F8B144F200330268C4F254439A4262
:1020F40016D10423C35646F200011A00C032C4F2BA
:10210400000192005458084D9B002C40545040F25A
:1021140000020021C2F2000299500160002030BD8B
:102124000720FCE70120FAE7FFFFFFFE40F200036F
:10213400F0B50127C2F2000382000C26D3587F4277
:1021440019E031009C782140042919D05968C9B19B
:102154009968B9B13D009206920F95402A0099689A
:10216400ED43914371B929005A6811402A4209D1BB
:1021740010333F2C09D93100DA7811400429E0D119
:10218400062100E001210800F0BD46F20003802290
:10219400C030C4F200038000C45852042243C25029
:1021A400F1E7C046F0B583B001910092002848D011
:1021B40044F200320168C4F2544291423BD10421FA
:1021C40040F200024156C2F200028C00A5580A00F7
:1021D40046F20004C032C4F20004920016591B4FA8
:1021E4003E40165148F2000245F200441143C4F245
:1021F4000004E2899142FCD008222270019A0AB1BB
:10220400019A6A60009A0AB1009AAA60EA783F21AA
:1022140014008C43802C10D03F2A10D945F200437F
:102224001822C4F200031A70007940B2FFF77EFF4F
:1022340048B903B0F0BD0720FBE7AB81EEE7EB81C3
:10224400ECE70120F5E71320F3E7C046FFFFFFFEAC
:10225400030010B568B144F200320168C4F254427C
:102264000720914200D010BD04201856FFF75EFFEE
:10227400F9E70120F7E7C046F8B504000D0000288F
:102284004DD044F200330268C4F254439A4248D118
:10229400002944D00800FFF7CFFE00283FD13023A7
:1022A400EA781340302B40D00420205646F2000236
:1022B4000300C033C4F200029B0099581C4E314005
:1022C400995048F2000245F200410243C4F2000171
:1022D400CB899A42FCD02B00FF27DA7819003F2AD9
:1022E40005D9DA893A401602921992B2DA818A78CB
:1022F40010333F2AF1D845F200430822C4F2000308
:102304001A7040F200028000C2F2000285501822C6
:1023140004201A702056FFF709FF20B9F8BD0120E8
:10232400FCE70720FAE71320F8E70620F6E7C046A3
:10233400FFFFFFFEF0B5C64604000D0000B50028FF
:1023440047D044F200330268C4F254439A4266D040
:1023540000293ED04A68E2B341F26403C2F20003AA
:102364001978002939D00023D356002B59DB40F2C9
:1023740000069F00C2F20006F259082052BB2371E6
:102384002D68FDB12800FFF757FE18BB2B0040F263
:10239400FF08DA7819003F2A07D94046DA89024053
:1023A40010028446624492B2DA818A7810333F2A5A
:1023B400EFD845F200430822C4F200031A70103229
:1023C400F5511A7044F20033C4F2544300202360E0
:1023D40000E0012080BCB846F0BD01271F70EFF378
:1023E400108187F310884EF20003C4F20103DA6906
:1023F4000D480240DA61DB6981F3108840F200067F
:10240400C2F2000620220021300000F0EFFA45F26B
:102414000043C4F200035E606A681F73A3E70E20E2
:10242400D8E70B20D6E7C046FFFFBFFF4EF20003FC
:10243400262240F2B841C4F20103985C1B6A800072
:10244400C2F2000141585B015B0F41F2CC02D9405A
:10245400C2F20002116070477047C0464EF200039A
:1024640040F2FE325D49C4F2010370B599524CF258
:10247400000240F200110020C4F20102505240F266
:10248400B84446F60042C2F20004C0F2DC222260E4
:1024940041F20022C0F27A02626048F2000241F680
:1024A4000031A26022612622C0F2B701E160995C8A
:1024B4001A6A890061585201520F41F2CC05D14089
:1024C400C2F20005296040F2134200219954A2226D
:1024D4000921995440F280429A5C32B940F2814217
:1024E4009B5C9B07002B00D173E04EF2000640F288
:1024F4008043C4F20106F25C002A5ED04EF200036F
:10250400002240F28141C4F201035A5401395A5461
:102514004EF20002A023C4F20102D35CCBB13623F5
:10252400D35C1BB93C21535CDB07FCD54EF20002A3
:10253400A021C4F20102535CDB06D80F002BFADBA6
:1025440050544EF20002A021C4F20102535CDB0697
:10255400FCD44EF2000200213623C4F20102D1540D
:102564003C31535CDB07FCD501213123D154CF33FB
:10257400C1F20003136200202623D054D05C136AF6
:10258400800020585B015B0FD840D1232860D154D0
:1025940040F2FE331248D0524CF2000240F20413CF
:1025A400C4F20102D1520431FF31535A002BFCD141
:1025B40001210133FF33D15270BD0132F2540121A4
:1025C400C82000F049F840F28042B35C012BFCD1F2
:1025D40094E740F2E830FFF73FFF99E703A5FFFFD8
:1025E40000A5FFFF70B544F2000428230025C4F2BF
:1025F4000404E5540121C82000F02EF824232422E9
:10260400E554A35C002BFCD10221A35C24200B43E2
:10261400A35444F20002C4F20402135C9B07D90FD2
:10262400002BFADB2223D15444F200022221C4F20B
:102634000402535C002BFCD170BDC04628B10023BA
:10264400C0F204630360002070470120FCE7C04629
:1026540001380028FCD1704741F2CC024CF600232B
:102664004143C2F2000270B51468C3F69A330D00F8
:10267400B3FBF4F4080040F2E8320023002100F038
:1026840063F931B9B0FBF4F0800808B1FFF7E0FF5B
:1026940070BDA000B5FBF0F040F2E8320023002149
:1026A40000F052F90029F0D001204042FFF7D0FF9A
:1026B400EEE7C04646F2000340F2201270B5002453
:1026C4000126C4F200039D5A20329B5A1D402B0060
:1026D400E3401E420AD041F26802C2F2000294466C
:1026E400A30063441B680BB1E0B2984701340D2C7E
:1026F400EDD146F2000340F23012C4F200039D52C1
:1027040070BDC04646F20003C0308000C4F200032E
:10271400C25802490A40C250C3587047FFFFFEFF27
:10272400F0B5C64690464EF20012FF240325CEF2C1
:1027340000029446220040F200370540ED00890172
:10274400AA400C40AC4083089B006344DE5900B5AA
:1027540096432643DE5141F2A0034246C2F20003EF
:1027640080001A5080BCB846F0BDC0461F2101222B
:1027740001408A404EF200114309CEF200019B0051
:102784005A507047030046F2000210B5C033C4F239
:1027940000029B0099580B4C214099509B58BFF361
:1027A4005F8F1F220123024093404EF20012CEF2AB
:1027B4000002944640F28012400980006044835035
:1027C400036010BDFFFFFEFF1F21012201408A406C
:1027D4004EF2001143092033CEF200019B005A50FF
:1027E400BFF34F8FBFF36F8F7047C046F0B5C64637
:1027F40090464EF20012FF240325CEF200029446C6
:10280400220040F200370540ED008901AA400C4047
:10281400AC4083089B006344DE5900B596432643CD
:10282400DE5141F2A00342468100C2F200035A5035
:10283400030046F20002C033C4F200029B00995820
:102844000C4C214099509B58BFF35F8F1F220123EA
:10285400024093404EF20012CEF20002944640F23F
:1028640080124009800060448350036080BCB846F5
:10287400F0BDC046FFFFFEFF46F200000023C4F295
:10288400000043F62402C0F200029A1812781AB12A
:102894001900C03189000A500133082BF1D1704767
:1028A40030B5EFF31081012383F3108841F2C003A4
:1028B4004000C2F200031A5A1AB11A5A013A92B2EB
:1028C4001A521B5A83B94EF2000243F6580340F2DF
:1028D400FE34C4F20102C0F20003155B185A044B23
:1028E4002B4383439BB2135381F3108830BDC046FE
:1028F40000A5FFFF70B5EFF31081012383F3108867
:1029040041F2C0024000C2F20002135A83B94EF2EF
:10291400000443F6580540F2FE36C4F20104C0F246
:102924000005A35B2D5A2B434AF200552B43A353B6
:10293400135A01339BB2135281F3108870BDC04601
:1029440000BE70477047C046F0B54FF6FF750400EF
:10295400CE462C40474615400E002900994680B5C6
:10296400130C0700000C61434543584363430C0CAC
:102974005B19E4188C46A54203D980235B02984670
:102984004044230C61461B184FF6FF70084049462B
:1029940056437943240489192018C918C0BCB94680
:1029A400B046F0BD002310B59A4200D110BDCC5CF6
:1029B400C4540133F8E710B50A22002100F0B2F83C
:1029C40010BD0000014B18687047C0466400002029
:1029D40030B500240139A24201D1002005E0035D95
:1029E40001340D5DAB42F6D0581B30BD0300821894
:1029F400934200D1704719700133F9E7F0B587B0FD
:102A0400059002910392242B22D8012B20D0434815
:102A1400082584460800664604780131375D3E0087
:102A24002E402F42F6D12D2C19D10C78811C012077
:102A3400019010251800A843E8B9302C15D12026A0
:102A44000878B043582810D14C780231102312E092
:102A5400FFF7B8FF16230360002007B0F0BD01960E
:102A64002B2CE6D10C78811CE3E7002BEED10A3342
:102A7400302C00D1023B0198294D4619B6FBF3F7DF
:102A8400180000257843301A04902800302252425E
:102A94009446A4446246092A12D86446A34224DD1B
:102AA4006A1C0AD001256D42874206D302D1049ADA
:102AB400A24217DB0125584320180C780131E5E7C1
:102AC400412252429446A4446246192A01D8373C12
:102AD400E4E7612252429446A4446246192A04D887
:102AE400573CDBE701256D42E7E76B1C09D1222344
:102AF400059A30001360039B002BAED04B1E02934B
:102B040007E0019B03B14042039B002BA5D0002D9D
:102B1400F4D1029B039A13609FE7C0466338000018
:102B2400FFFFFF7F10B513000A0001000248006890
:102B3400FFF764FF10BDC046640000205465726D49
:102B4400696E616C00000000284E554C4C29000051
:102B54000D0A2A2A2A2A2A2A2A2A2A2A2A2A2A2A0E
:102B64002A2A2A2A2A2A2A2A2A2A2A2A2A2A2A2AC1
:102B74002A2A2A2A2A2A2A2A2A2A2A2A2A2A2A2AB1
:102B84002A2A2A2A2A2A2A2A2A2A2A2A2A2A2A2AA1
:102B94002A2A2A2A000000000D0A2A202020526531
:102BA4006E6573617320465350204578616D706C77
:102BB400652050726F6A65637420666F7220725F5D
:102BC400737069204D6F64756C652020202020206F
:102BD40020202020202020202020202A0000000067
:102BE400312E30000D0A2A2020204578616D706C4A
:102BF400652050726F6A6563742056657273696FDD
:102C04006E2025732020202020202020202020201A
:102C140020202020202020202020202020202020B0
:102C240020202020202000002A0D0A2A20202046CF
:102C34006C657820536F66747761726520506163A8
:102C44006B2056657273696F6E202025642E25648F
:102C54002E25642020202020202020202020202019
:102C64002020202020202020202020202020202A56
:102C7400000000000D0A526566657220746F2072B0
:102C84006561646D652E7478742066696C65206670
:102C94006F72206D6F72652064657461696C732056
:102CA4006F6E204578616D706C652050726F6A6537
:102CB400637420616E640D0A465350205573657227
:102CC4002773204D616E75616C20666F72206D6F85
:102CD400726520696E666F726D6174696F6E2061D2
:102CE400626F757420725F737069206472697665AF
:102CF400720D0A000D0A5468652070726F6A65636C
:102D04007420696E697469616C697A6573205350C3
:102D1400492064726976657220616E6420636F6E07
:102D24006669677572657320535049206368616EE4
:102D34006E656C7320696E204D61737465722061D9
:102D44006E6420536C617665206D6F64652E0D0A88
:102D5400416674657220696E697469616C697A612F
:102D640074696F6E2C206D617374657220616E647A
:102D740020736C6176652063616E207472616E737A
:102D84006D697420616E642072656365697665207F
:102D940064617461206261736564206F6E2074687D
:102DA4006520636F6D6D616E64732066726F6D2054
:102DB400757365722E0D0A526566657220746F20F4
:102DC400746865204D43552055736572204D616EBE
:102DD40075616C20666F722076616C69642062692B
:102DE4007420726174657320616E6420636F727203
:102DF4006573706F6E64696E6720636C6F636B20BC
:102E040073657474696E67732E0D0A000D0A202AA7
:102E14002A2053504920494E4954204641494C45A3
:102E240044202A2A200D0A000D0A52657475726E18
:102E34006564204572726F7220436F64653A203076
:102E440078257820200D0A000D0A202A2A205350C4
:102E54004920494E495420535543434553534655FD
:102E64004C202A2A200D0A000D0A53656C656374F0
:102E74002066726F6D207468652062656C6F7720C0
:102E84004D656E75206F7074696F6E730D0A000066
:102E94000D0A5072657373203120666F7220577269
:102EA400697465282920616E64205265616428294B
:102EB400000000000D0A5072657373203220666FA3
:102EC4007220577269746552656164282900000094
:102ED4000D0A5072657373203320746F204578692E
:102EE400740D0A002A2A2053504920575249544548
:102EF40020414E4420524541442044656D6F206674
:102F040061696C6564202A2A20200D0A00000000F3
:102F14000D0A2A2A2053504920575249544520412A
:102F24004E4420524541442044656D6F20537563DF
:102F34006365737366756C2A2A20200D0A000000ED
:102F44000D0A2A2A205350492057524954452044F7
:102F5400656D6F206661696C6564202A2A20200DE6
:102F64000A0000002A2A2053504920575249544548
:102F740020414E4420524541442044656D6F205306
:102F840075636365737366756C2A2A20200D0A00C5
:102F94002A2A2053504920455849542044656D6FCE
:102FA400206661696C6564202A2A200D0A000000ED
:102FB4002A2A2053504920455849542044656D6FAE
:102FC400207375636365737366756C202A2A200DFC
:102FD4000A0000001B5B313B33366D0D0A457869EE
:102FE40074696E67205350492064656D6F2E2E2ED0
:102FF4002E0D0A1B5B306D000D0A456E7465722040
:10300400616E79206F74686572206B657920746FC6
:1030140020676F206261636B20746F207468652081
:103024006D61696E206D656E750D0A002A2A205245
:103034005F5350495F4F70656E2041504920666F61
:103044007220535049204D61737465722066616922
:103054006C6564202A2A205C725C6E005B455252C7
:103064005D20496E2046756E6374696F6E3A202543
:103074007328292C202573002A2A20525F53504993
:103084005F436C6F73652041504920666F72205313
:103094005049204D6173746572206661696C656482
:1030A400202A2A205C725C6E000000002A2A20522A
:1030B4005F5350495F4F70656E2041504920666FE1
:1030C400722053504920536C617665206661696CA7
:1030D4006564202A2A205C725C6E00002A2A205231
:1030E4005F5350495F436C6F7365204150492066BC
:1030F4006F722053504920536C6176652066616974
:103104006C6564202A2A205C725C6E000D0A456E90
:10311400746572207465787420696E7075742066A5
:103124006F72204D61737465722062756666657294
:103134002E20446174612073697A652073686F7509
:103144006C64206E6F742065786365656420363422
:103154002062797465732E200D0A00000D0A4E6FEB
:1031640020496E7075740D0A000000000D0A536C3E
:1031740061766520525F5350495F52656164282926
:10318400206661696C6564000D0A4D617374657233
:1031940020525F5350495F5772697465282920662D
:1031A40061696C65640000000D0A535049206D6F1D
:1031B40064756C6520626C6F636B656420696E2056
:1031C40057726974652F52656164206F706572610E
:1031D40074696F6E2E0D0A000D0A4572726F7220AB
:1031E400696E20636F6E66696775726174696F6E6C
:1031F400206F7220636F6E6E656374696F6E2E0D3F
:103204000A0000000D0A5265736574207468652015
:103214004D43552E2E2E0D0A000000000D0A4D615F
:1032240073746572207472616E736D69747465640D
:10323400207573657220696E7075742064617461A1
:1032440020746F20536C617665200D0A0000000025
:103254000D0A536C61766520525F5350495F577273
:103264006974652829206661696C65640000000042
:103274000D0A4D617374657220525F5350495F5259
:103284006561642829206661696C6564000000003A
:103294000D0A536C617665207472616E736D697486
:1032A400746564207468652064617461206261637C
:1032B4006B20746F204D6173746572200D0A0000D9
:1032C4000D0A4D6173746572207265636569766574
:1032D4006420646174613A1B5B313B33326D202599
:1032E40073200D0A1B5B306D000000000D0A52654F
:1032F400636569766564206461746120646F6573D5
:10330400206E6F74206D617463682077697468201F
:103314007472616E736D6974746564204461746160
:103324002E0D0A000D0A456E74657220746578745A
:1033340020696E70757420666F72204D61737465B8
:1033440072206275666665722E2044617461207312
:10335400697A652073686F756C64206E6F7420657C
:1033640078636565642036342062797465732E0D44
:103374000A0000000D0A456E746572207465787445
:1033840020696E70757420666F7220536C61766567
:10339400206275666665722E2044617461207369CB
:1033A4007A652073686F756C64206E6F742065781D
:1033B400636565642036342062797465732E0D0A62
:1033C400000000000D0A536C61766520525F535073
:1033D400495F577269746552656164282920666182
:1033E400696C6564000000000D0A4D6173746572B8
:1033F40020525F5350495F57726974655265616426
:103404002829206661696C65640000000D0A535028
:1034140049206D6F64756C65206661696C65642014
:10342400696E2057726974652F52656164206F70EC
:1034340065726174696F6E2E0D0A00000D0A4D618C
:103444007374657220627566666572206461746166
:10345400207472616E736D697474656420746F2076
:10346400536C617665200D0A000000000D0A536C50
:103474006176652062756666657220646174612098
:103484007472616E736D697474656420746F204D19
:103494006173746572200D0A000000000D0A4D610D
:1034A400737465722072656365697665642064610E
:1034B40074613A1B5B313B33326D2025730D0A1B5B
:1034C4005B306D000D0A4D61737465722072656323
:1034D4006569766564206461746120646F65732036
:1034E4006E6F74206D61746368207769746820530B
:1034F4006C617665207472616E736D697474656451
:1035040020446174612E0D0A000000000D0A536C02
:1035140061766520726563656976656420646174AB
:10352400613A1B5B313B33326D2025730D0A1B5B03
:10353400306D00000D0A536C617665207265636519
:1035440069766564206461746120646F6573206EBC
:103554006F74206D617463682077697468204D61AD
:1035640073746572207472616E736D6974746564CA
:1035740020446174612E0D0A000000000D0A4D61A3
:103584007374657220525F5350495F436C6F736567
:103594002829206661696C65640000000D0A536C7B
:1035A40061766520525F5350495F436C6F736528A1
:1035B40029206661696C6564000000002A2A205293
:1035C4005F5350495F436C6F7365204150492066D7
:1035D4006F72206D6173746572206661696C6564D5
:1035E400202A2A20200D0A002A2A20525F535049FB
:1035F4005F436C6F73652041504920666F7220737E
:103604006C617665206661696C6564202A2A2020D5
:103614000D0A0000000000000000545452205245DE
:1036240047474553000000005A0B0000160A0000EB
:10363400160A0000160A0000160A0000160A000006
:10364400160A0000160A0000160A0000160A0000F6
:10365400160A0000000C0000980B0000160A000077
:10366400160A0000160A0000160A0000160A0000D6
:10367400160A0000160A0000160A0000160A0000C6
:10368400160A0000160A0000780B0000160A000053
:10369400160A0000360C0000160A0000180C000080
:1036A400160A0000160A00005A0B000030313233AB
:1036B4003435363738394142434445467370695F7F
:1036C400636C65616E5F7570000000007370695F04
:1036D400657869745F64656D6F0000007370695F7D
:1036E40077726974655F7265616400007370695F05
:1036F40077726974655F616E645F7265616400000E
:103704007370695F696E6974000000000000010253
:10371400030202020200010001000000443700001D
:103724005C370000DD1600000000000034370000A4
:10373400010000000000000B000000000000000079
:103744000C100020503700002C380000240000200A
:1037540058370000010000001410002068370000F2
:103764002C380000340000207037000000000000F6
:103774000104050607020202020101000100000023
:10378400A8370000C0370000FD160000000000004C
:1037940098370000010000000000000B000000004A
:1037A400000000004C100020B43700002C3800004A
:1037B40044000020BC370000050000005410002025
:1037C400CC3700002C38000054000020D43700000F
:1037D4000400000008000000E437000000000000BE
:1037E40000000106030100000000010604010000BE
:1037F40000000106050100000000010008010000AE
:103804000000010609010000000001060A01000091
:103814000000010000030000000001060004000095
:103824008182858486878A89392300007D2200006D
:10383400A921000055220000FD1F0000F51F000013
:10384400F91F000079200000E52000003520000069
:1038540039200000010002000800100020000020B0
:10386400202020202020202028282828282020202C
:1038740020202020202020202020202020202088DC
:103884001010101010101010101010101010100440
:103894000404040404040404041010101010101090
:1038A4004141414141410101010101010101010184
:1038B400010101010101010101011010101010109A
:1038C4004242424242420202020202020202020254
:1038D4000202020202020202020210101010200070
:1038E40000000000000000000000000000000000D4
:1038F40000000000000000000000000000000000C4
:1039040000000000000000000000000000000000B3
:1039140000000000000000000000000000000000A3
:103924000000000000000000000000000000000093
:103934000000000000000000000000000000000083
:103944000000000000000000000000000000000073
:103954000000000000000000000000000000000063
:103964004275696C7420776974682052656E65735A
:10397400617320416476616E63656420466C65788A
:1039840069626C6520536F6674776172652050615B
:10399400636B6167652076657273696F6E20362E7E
:1039A400342E3000362E342E300000000000040681
:0439B400F8B5C0465C
:0439B800F8B5C04658
:0439BC0055050000AD
:0439C00025050000D9
:040000030000009D5C
:00000001FF
