:020000040200F8
:1000000000040022B122000281210002C12200026C
:10001000C1220002C1220002C1220002C12200024C
:10002000000000000000000000000000C1220002EB
:10003000C122000200000000C1220002C122000211
:08004000B91400028916000248
:100050002DE9F04381B000EB400040F23043C2F2A2
:100060000023154603EBC003894603F11808D86A3C
:10007000022819D001280CD048B9D8F80C40D8F87B
:100080001000E143A04267D90844A8426AD2002682
:1000900089E0D8F80C40D8F81010A14233D9E043D9
:1000A0000144D8F8080033E0D8F80C40002621E0DD
:1000B000D8F8081010440844091B884250EA3180DF
:1000C0004946A84250EA3587D8F8040020443A4609
:1000D00004F01AFD3819D8F80810411AA5EB0705E5
:1000E00050EA11843E44B944002DBFF35F8FC8F835
:1000F0000C4058D0D8F81000E243A042D8D91044A0
:10010000D8F80810D8E7E243D8F8080011440144B1
:10011000A94251EA3586051BD8F804002044AE42B6
:1001200009D24946324604F0EFFCBFF35F8F301925
:10013000C8F80C0037E049462A4604F0E5FC771B76
:10014000D8F8040009EB05013A4604F0DDFCBFF3E2
:100150005F8FC8F80C7026E0D8F8082008441044D7
:10016000A84294D3D8E901010E1B2044B54209D21C
:1001700049462A4604F0C8FCBFF35F8F6019C8F8EF
:100180000C000FE04946324604F0BEFCAF1BD8F825
:10019000040009EB06013A4604F0B6FCBFF35F8F9A
:1001A000C8F80C702E46304601B0BDE8F083D4D4B8
:1001B000F0B581B040F230450C46C2F200252B78F4
:1001C000532B37D00646A8212846174604F097FC43
:1001D00003202861686145F28B0040F2D841C0F2EB
:1001E0000020A861C2F20021E9614FF48061296218
:1001F0000021A9626962E96240F6D80228664FF0E0
:10020000100E44F68E40C2F200226A66C5F868E01D
:100210002967E9666967BFF35F8FC0F200200F307E
:1002200010F8011905F8011B0FF007C03A463046D7
:10023000BFF35F8FEFF311854FF0200181F3118839
:100240002146FFF705FF85F3118801B0F0BDD4D436
:100250002DE9F04F9BB092460F464FF000090490F5
:100260001A900DF1580B002006A916914021179104
:10027000CDE918990EE0011DCAF800100168CDE91A
:1002800000385846234600F01BFA1998B0F1FF3F9A
:1002900040F3128217F8011B25291DD0002900F018
:1002A000FB81DDE91720431C934207D8169A1154AD
:1002B00018931998179A0130199018469042E4D172
:1002C00016991A98FFF774FF1899884240F0DF8159
:1002D000CDF86090D9E700BF4FF000083978A1F160
:1002E00023030D2B18D80222DFE803F00E16161692
:1002F0001616161610161216160748EA02080137C7
:10030000ECE700BF00BF00BF0822F6E70422F4E7D5
:100310000122F2E700BF00BFA1F13A02002312F16F
:100320000A0F0FD30A4600BF17F8011F03EB830320
:10033000A1F13A0602EB430216F10B0FA2F13003D2
:100340000A46F1D82E290FD13A4612F8016F2A2E0B
:100350000DD1DAF8001002370A1DCAF800200C6827
:1003600001211DE000BF00BF0021002418E0A6F11C
:100370003A0717F10A0F02D2002100240FE00024EF
:1003800012F8011F04EB8407A1F13A0506EB4707B9
:1003900015F10B0FA7F130040E46F1D801211746D5
:1003A00017F8012B02F0FB06682EF9D0A2F15806CF
:1003B000202E26D8DFE806F01211111111111111AB
:1003C000111111163C1111111111111111111111ED
:1003D0006C11117911381111120056E7DAF800008A
:1003E000102248E7DDE91720411CDAF8003091427D
:1003F00003F10406CAF800603FF660AF169A1B6866
:100400000AE0252A7FF441AFDDE91720411C914223
:100410003FF654AF169A2523135418911998179A3A
:1004200001301990084649E7DAF800000A2222E76D
:10043000DAF800104CF6CD4C0A1DCAF800200A6804
:1004400005925142002A48BF0A460A2ACCF6CC4CF3
:1004500003914FF0010107DBA2FB0C56632A01F167
:1004600001014FEAD602F7D88C4254EA81895E46F0
:10047000002B58D0059908F0040200295FEA5F912B
:1004800041EA9201A3EB010B5FEA887550D473E057
:10049000DAF800001022011DCAF8001001680823D4
:1004A0000820CDE900095846EDE6DAF80020131DD2
:1004B000CAF80030126844F62C63002AC0F2002308
:1004C00052EA13865FEA01880BE000BF00BF00BF5D
:1004D0001998CDF86090B0F1FF3FA4F101047FF7C7
:1004E000D4AE16F8011B002C5FEA188200293FF4F5
:1004F000CCAE002A7FF4C9AEDDE917235D1C95421E
:1005000007D81698C1542B461998179A0130189598
:1005100019909342DFD116991A98FFF749FE18995E
:100520008842D5D0B3E04FF0000B5FEA887523D541
:1005300014BB002800F1A7800598B0F1FF3F47DD0C
:100540005FEA487064D5DDE91720411C914208D864
:10055000169A2B23135418911998179A0130199051
:100560000846904254D116991A98FFF721FE18991F
:100570008842059944D08AE05FEAC871D9D1BBF1BD
:10058000000FD6D0029502E00028AB467BD4ABF139
:1005900001055D4538BFD94536D2DDE917214B1C31
:1005A000934208D816982022425419461998179A4F
:1005B0000130189319909142E6D116991A98FFF7D5
:1005C000F7FD1899884262D1002018901998DBE74E
:1005D000DDE91720411C914208D8169A2D231354A7
:1005E00018911998179A01301990084690420DD128
:1005F00016991A98FFF7DCFD18998842039946D19D
:1006000000201890059103E0029D92E70398059061
:100610001998002850D4002D0BD40A223046059991
:100620002346CDE900B8B34600F04AF84FF0000980
:100630002BE608F001012143EFD1BBF1000FECD014
:10064000ABF101055D4538BFD945E6D2DDE917219B
:100650004B1C934208D816983022425419461998D8
:10066000179A013018931990914209D116991A9846
:10067000FFF79EFD1899884209D10020189019981B
:100680000028AB46DCD54FF00009B346FDE54FF03E
:10069000FF301BB0BDE8F08F40B1189A52B106A9E7
:1006A0000498FFF785FDDDE9181004E000201BB079
:1006B000BDE8F08F002108441BB0BDE8F08FD4D412
:1006C0002DE9F04F81B015468B4691421F460446F6
:1006D000DDF828904FF0010007D3594600BF00BF56
:1006E000B1FBF5F10130A942FAD2874257EA80887E
:1006F000B9F1000F0B9938D011F0010035D18807FE
:100700004FF0200048BF30202021002F50EA018602
:100710004FF0000A06E000BFE068A9F10109B0F15E
:10072000FF3F22DDB9F1000F1FD0C8451DD2D4E92B
:100730000120411C914207D822681654A160E0684C
:1007400062680130E06008469042E5D12168206986
:10075000FFF72EFDA168884202D1C4F808A0DBE7AC
:100760004FF0FF30E060A9F10109E068002842D4B1
:10077000012603E000BF00BF013F6E43022FFBD202
:10078000BBFBF6F1A942F8D245F22817A268C0F2E5
:10079000002700BF00BF00BF6168531CBBFBF6FA17
:1007A0008B4209D8206817F80A1081541A46E0686D
:1007B00061680130A360E0608A4209D12168206944
:1007C000FFF7F6FCA26890420CD10022E068A2601C
:1007D00000280AD4B6FBF5F10AFB16BBB5420E465B
:1007E000DAD902E04FF0FF30E0600B99C90718BF7B
:1007F000B9F1000F02D101B0BDE8F08F2025A9F1B9
:1008000001064E4538BFC845F5D26168531C8B427E
:1008100007D8206885541A46E06861680130A360F3
:10082000E0608A4209D121682069FFF7C1FCA16814
:10083000884207D10022E068A260B0F1FF3FB146D4
:10084000DDDCD8E74FF0FF30E06001B0BDE8F08FAD
:1008500082B080B582B0CDE9042304AA019201AA36
:10086000FFF7F6FC02B0BDE8804002B07047D4D478
:100870008EB000200D90ADF83000CDE90A00CDE932
:100880000800CDE90600CDE90400CDE902000DA87D
:1008900001F02AFC9DF8373044F6786144F6226274
:1008A0009DF835709DF83660C0F20021C0F200223C
:1008B0000020CDE90067FFF7CBFF44F6C2410020DE
:1008C000C0F20021FFF7C4FF40F6241045F20821D2
:1008D000C2F20020C0F2002100F096FAC0B145F249
:1008E0006F0145F29F0245F2A9030446C0F20021C0
:1008F000C0F20022C0F200230020FFF7A9FF44F657
:1009000058610020C0F200212246FFF7A1FF00BE7F
:1009100040F6041045F29011C2F20020C0F200210E
:1009200000F072FA70B3044640F62410C2F20020C0
:1009300000F026FD70B145F26F0145F2940244F6D5
:100940003763C0F20021C0F20022C0F20023002071
:10095000FFF77EFF45F26F0145F29F0245F2A903C2
:10096000C0F20021C0F20022C0F200230020FFF7F5
:100970006FFF44F658610020C0F200212246FFF7C5
:1009800067FF00BE40F60410C2F2002000F0ACFC8D
:10099000002844D0044640F62410C2F2002000F0A3
:1009A000EFFC70B145F26F0145F2940244F63763F3
:1009B000C0F20021C0F20022C0F200230020FFF7A5
:1009C00047FF40F60410C2F2002000F0D9FC70B1DD
:1009D00045F26F0145F2940244F63763C0F20021FC
:1009E000C0F20022C0F200230020FFF731FF45F2E1
:1009F0006F0145F29F0245F2FF03C0F20021C0F2F1
:100A00000022C0F200230020FFF722FF44F65861C5
:100A10000020C0F200212246FFF71AFF00BE40F678
:100A20002410C2F2002000F057FC002844D00446F5
:100A300040F62410C2F2002000F0A2FC70B145F292
:100A40006F0145F2940244F63763C0F20021C0F210
:100A50000022C0F200230020FFF7FAFE40F6041047
:100A6000C2F2002000F08CFC70B145F26F0145F23B
:100A7000940244F63763C0F20021C0F20022C0F2B3
:100A800000230020FFF7E4FE45F26F0145F29F02CC
:100A900045F24E03C0F20021C0F20022C0F2002352
:100AA0000020FFF7D5FE44F658610020C0F2002177
:100AB0002246FFF7CDFE00BE40F6E80B40F60414D8
:100AC00040F6F80A40F6F00545F26F06C2F2002B38
:100AD0004FF00008C2F20024C2F2002AC2F2002540
:100AE00005AFC0F2002640E045F29F0244F69F4366
:100AF00000203146C0F20022C0F20023FFF7A8FE1A
:100B000044F658610020C0F200214A46FFF7A0FEDB
:100B100000BE0498DAF800104843D5E900124018E6
:100B200042F1000101F03EFD9DED030A01EE100AC5
:100B3000B8EE400A44F626613846C0F2002181EE44
:100B4000000AC5F80080C5F80480CAF80080B7EE36
:100B5000C00A53EC102B01F0B6FD45F2C90100208C
:100B6000C0F200213A46FFF773FE9BF8000001280F
:100B7000FBD1204602A98BF8008000F0D1FB0028B1
:100B8000C7D0814640F62410C2F2002000F0F8FBE6
:100B900058B145F2940244F6376300203146C0F262
:100BA0000022C0F20023FFF753FE204600F0E8FBCE
:100BB000002899D045F2940244F63763002031466C
:100BC000C0F20022C0F20023FFF742FE8CE7D4D42B
:100BD000017989B1012918BF704740F6F00180689A
:100BE000C2F200210022C1E9000240F6E800C2F290
:100BF000002001210170704740F6F800C2F2002089
:100C00000168013101607047022818BF704740F643
:100C1000FC0045F25821C2F20020C0F2002100F091
:100C20000BB8D4D4D4D4D4D480B5FFF721FE00209F
:100C300080BDD4D4D4D4D4D480B545F25422C5F2E6
:100C40004F020260084600F003F8002080BDD4D4B3
:100C500070B5044600F064F840F6981CEFF310817C
:100C6000C2F2002C012080F31088DCF8000038B9B3
:100C700040F614500022C4F240000270402202707C
:100C8000DCF800000130CCF8000081F310882088E7
:100C900030B340F6000E0021C4F2400E08E000BF61
:100CA0000EEB8010013140F822302088814217D2AB
:100CB000606800EBC10250F831309288D8034FEAE7
:100CC0001220D2B2ECD50EEB801555F8226026F436
:100CD000803645F8226023F4803645F82260DFE74D
:100CE0000120EFF3108180F31088DCF8000020B1C0
:100CF000DCF800000138CCF80000DCF8000010B18E
:100D000081F3108870BD40F614500022C4F24000F8
:100D100002708022027081F3108870BDD4D4D4D4C4
:100D20002DE9F04F81B004460088002867D04EF6C8
:100D30004C4B0025C4F2010B4FF0010A04E000BF48
:100D40002088013585425AD245F2682642F2400891
:100D50000027C0F20026C4F220080CE000BF00BF4C
:100D600088F80000C820012101F0C6F9013708F118
:100D70000208032FE4D0606836F8021B00EBC500C0
:100D800082888A42F2D100689BF8001000F0B850C7
:100D90000AFA07F9B0F1807F09EA010018D158B9C1
:100DA000012001F05DFA9BF8000040EA09008BF891
:100DB0000000012001F028FA98F900000028D5D49D
:100DC00098F8000040F08000CAE700BF00BF00BFF5
:100DD00058B1012001F044FA9BF8000020EA090014
:100DE0008BF80000012001F00FFA98F90000B0F133
:100DF000FF3FBBDC98F8000000F07F00B0E701B0D7
:100E0000BDE8F08FD4D4D4D42DE9F04381B00D46A1
:100E1000097C04464FF000080D295FEA9F92027496
:100E200001202A7C00FA01F1E16042F20001C4F2E3
:100E30003201656001EB0221A16069696161A96904
:100E4000E161C4F81880EE69EFF3108780F3108831
:100E5000287C4FF00049011F29FA00F006296FF0A5
:100E6000006151EA30A043F21001C4F220010A6887
:100E70001040086008681E20012101F03DF987F349
:100E80001088207B00070FD044F202020120EFF30C
:100E9000108180F31088C4F23202A089138823EAFB
:100EA0000000108081F31088A0684FF42541016094
:100EB000A068C0F82C80A068C0F83C80A068C0F88A
:100EC0004880287A2978A268C0050329696808BF84
:100ED00000F58030D0620139A068C0F81090A06899
:100EE000C0F81490A068C0F81890A068C0F82480DA
:100EF000A068C0F82880A068B269C261A068F269E1
:100F00000262A0688166A06841662978D6F8509090
:100F1000012906D041B969684FF0FF3202EB510157
:100F20000BE04FF0FF312FE0A268E968936E03F108
:100F3000010329B1994203D201394FF0000823E09F
:100F4000526B676899425FEA3F9C00295FEA1F91F4
:100F50003F7812F0100F02F00C025FEA1F93042A90
:100F60005FEA1F92032F53EA828240F20008002AB0
:100F70005CEA1181C0F2033800294FF0FF311CBF39
:100F800040F20008C0F20228A2685165A26891658B
:100F90002A78042A03D3A268D165A2681166316D4C
:100FA000A9BB3178012915D12A787178022A03D09A
:100FB000032A03D1032205E0092203E009220029C4
:100FC00008BF06220B0143EA8111114441EA0900DE
:100FD00040F48079B178012919D12A78F178022A70
:100FE00004D0032A05D14FF4403208E04FF4102218
:100FF00005E04FF41022002908BF4FF4C0220B0572
:1010000043EA8151114441EA090040F08079616866
:101010004FF0060E0023C969F64601F1300205E0E3
:1010200001330432BEF1010E00D112E091F8487094
:10103000DF40FF07F4D01F46042B08BF0327032B14
:1010400008BF0427A06800EB87001768013FC7644A
:10105000E6E7287C0D2802D8A06800214164A0683A
:1010600000218163A068C0F88810306D40B996F8FF
:10107000200096F82110400340EA417049EA000937
:1010800096F84800A16800284FF4A00008BF4FF46C
:10109000AA0008642878012804D1A0680021C1644E
:1010A000A0680165A06840F69C1CC2F2002CC0F844
:1010B000349096F8540096F85510A2684901D36A06
:1010C00041EA001048F003011843D062A0680163B0
:1010D00048F00101A0680163D4E90201C1604EF249
:1010E000001095F912304CF20031CEF20000C4F23B
:1010F0000001002B1BD46F7CC51801223F0185F82D
:1011000000734CF8234051F8237027F4803741F8DE
:10111000237051F823705F0903F01F03BFF35F8F43
:1011200000EB87059A40C5F8802140F8272096F902
:101130002830002B1DD496F82220C7180125120153
:1011400087F800234CF8234051F8232022F4803202
:1011500041F8232051F823205A0903F01F03BFF35D
:101160005F8F00EB820705FA03F3C7F8803140F880
:10117000223096F92930002B1DD496F82320C71869
:101180000125120187F800234CF8234051F8232051
:1011900022F4803241F8232051F823205A0903F029
:1011A0001F03BFF35F8F00EB820705FA03F3C7F855
:1011B000803140F8223096F92A30002B1DD496F861
:1011C0002420C7180125120187F800234CF823407A
:1011D00051F8232022F4803241F8232051F82320B3
:1011E0005A0903F01F03BFF35F8F00EB820705FA74
:1011F00003F3C7F8803140F8223096F92B30002BEA
:101200001DD496F82520C7180125120187F8002360
:101210004CF8234051F8232022F4803241F8232057
:1012200051F823205A0903F01F03BFF35F8F00EB2F
:10123000820705FA03F3C7F8803140F8223096F9A7
:101240002C30002B1DD496F82620C718012512013A
:1012500087F800234CF8234051F8232022F48032F1
:1012600041F8232051F823205A0903F01F03BFF34C
:101270005F8F00EB820705FA03F3C7F8803140F86F
:10128000223096F92D30002B1DD496F82720C71850
:10129000120187F800234CF82340012751F823203E
:1012A00022F4803241F8232051F82310590903F029
:1012B0001F03BFF35F8F00EB810207FA03F3C2F84D
:1012C000803140F8213045F254010020C0F247013E
:1012D000216001B0BDE8F083D0E9021200204A602D
:1012E0007047D4D4D4D4D4D480B5D0E9011EC96910
:1012F000D1E901C3CA6843F00043CEF8143042F08C
:10130000004283689A614CF00043826813618268EE
:101310000B695362826800204969916280BDD4D410
:1013200070B582680C464EF25C00C4F20100516E4A
:101330000131A160D16A027802F00F02022A01D8BD
:1013400001230BE0D31E052B06D245F27022C0F21A
:10135000002212F8235003E0083A102303FA02F5A2
:101360004078C1F3C35600F00F0000F06DFEE9B203
:10137000B0FBF1F001212170F0406060002070BDF1
:10138000B0B543684EF2801E40F69C1CCEF2000EB3
:1013900093F91210DB69C2F2002C00290ED44A091D
:1013A00001F01F04012505FA04F44EF82240BFF3B2
:1013B0004F8FBFF36F8F00224CF8212093F9281034
:1013C00000290ED44A0901F01F04012505FA04F48E
:1013D0004EF82240BFF34F8FBFF36F8F00224CF8BF
:1013E000212093F9291000290ED44A0901F01F0485
:1013F000012505FA04F44EF82240BFF34F8FBFF3E6
:101400006F8F00224CF8212093F92A1000290ED466
:101410004A0901F01F04012505FA04F44EF82240A0
:10142000BFF34F8FBFF36F8F00224CF8212093F949
:101430002B1000290ED44A0901F01F04012505FADA
:1014400004F44EF82240BFF34F8FBFF36F8F00229A
:101450004CF8212093F92C1000290ED44A0901F0F0
:101460001F04012505FA04F44EF82240BFF34F8F04
:10147000BFF36F8F00224CF8212093F92D10002923
:101480000ED44A0901F01F03012404FA03F34EF8B5
:101490002230BFF34F8FBFF36F8F00224CF8212013
:1014A000D0E90212002303608A60816800204B6348
:1014B000B0BDD4D4D4D4D4D410B584B04FF07041DE
:1014C000EFF3038001EB00614CF2003E8A15C4F299
:1014D000000E40F69C1452F80E30C2F2002423F4A1
:1014E000803342F80E3052F80E30A45862681378F8
:1014F000012B40F0AE80D4E902300916D2694EF2D9
:10150000802C98600023A068CEF2000C8364A06851
:10151000C364A068036501235EF8210020F48030D5
:101520004EF821005EF82100480901F01F01BFF3C9
:101530005F8F03FA01F14CF8201092F84830D80779
:1015400017D092F92810002913D45EF82100012346
:1015500020F480304EF821005EF82100480901F0A7
:101560001F01BFF35F8F03FA01F14CF8201092F8CE
:101570004830980715D592F92910002911D45EF842
:101580002100012320F480304EF821005EF8210074
:10159000BFF35F8F480901F01F0103FA01F14CF816
:1015A000201092F92A10002911D45EF8210001239D
:1015B00020F480304EF821005EF82100BFF35F8FE9
:1015C000480901F01F0103FA01F14CF8201092F9CB
:1015D0002B10002911D45EF82100012320F4803063
:1015E0004EF821005EF82100BFF35F8F480901F03B
:1015F0001F0103FA01F14CF8201092F92C10002978
:1016000011D45EF82100012320F480304EF821002F
:101610005EF82100BFF35F8F480901F01F0103FA54
:1016200001F14CF8201092F92D10002911D45EF828
:101630002100012220F480304EF821005EF82100C4
:10164000BFF35F8F480901F01F0102FA01F14CF866
:1016500020106169A1B1A06930B1D0E900C38268EE
:101660000392CDE901C300E001A80022027182606B
:10167000E26902608847A06910B101AB0ECB0EC0D1
:1016800004B010BDD4D4D4D4042000F001B8D4D414
:10169000B0B584B04FF07042EFF3038102EB016309
:1016A0004CF200359A15C4F2000540F69C1105284D
:1016B0005459C2F2002124F48034545154598C58A6
:1016C00005D86268D16991F8481089071BD04FF09E
:1016D000000E6369ABB1A16931B1D1E900C58A6877
:1016E0000392CDE901C500E001A90871E069086035
:1016F0000846C1F808E09847A06910B101AB0ECBCD
:101700000EC004B0B0BDD4F808C00CEB80010338A3
:10171000D1F83CE011780129DBD14FF00041CCF841
:101720001010A2681B165161A26891610022A16885
:101730004A62A1688A625A0955F8231021F480315F
:1017400045F8231055F823104EF28025CEF20005FF
:10175000BFF35F8F03F01F01012303FA01F145F886
:101760002210B6E7D4D4D4D44EF22401C4F201013D
:101770008878098801F00F02A2F1080103293BD8FB
:10178000DFE801F0022C101E40F20041C2F20021FD
:1017900051F820004AF6AB21CAF6AA21A0FB0101AC
:1017A000480830E040F20041C2F2002151F8200028
:1017B0004AF6AB21CAF6AA21A0FB0101C80822E023
:1017C00040F20041C2F2002151F820004AF6AB215C
:1017D000CAF6AA21A0FB0101080914E040F2004169
:1017E000C2F2002151F820004AF6AB21CAF6AA2124
:1017F000A0FB0101880806E040F20041C2F200218E
:1018000051F82000D04040F6B011C2F2002108602B
:101810007047D4D4D4D4D4D4D4D4D4D4D4D4D4D479
:101820002DE9F04782B00FF288604EF2FA3840F2AC
:101830000046C4F201084AF2015190ED001FC2F2C5
:1018400000260FF27C60CFF6FF714EF25505023193
:10185000A8F8001086ED001F06F12003C4F2010570
:1018600090ED001F48F2004040F60001C1F2D77031
:1018700043F6000286ED041FC2F6AF71C1F69C422A
:1018800007C315F82F0C35F8311C01F00F02A2F137
:10189000080103292BD8DFE801F002200C164AF6D4
:1018A000AB2156F82000CAF6AA21A0FB0101480886
:1018B00020E04AF6AB2156F82000CAF6AA21A0FB88
:1018C0000101C80816E04AF6AB2156F82000CAF616
:1018D000AA21A0FB010108090CE04AF6AB2156F849
:1018E0002000CAF6AA21A0FB0101880802E056F8F0
:1018F0002000D04040F6B01A4EF60044C2F2002A52
:10190000C4F201040A214EF60147CAF800004FF65E
:101910005060CFF6FF70C4F201072154092085F80A
:101920004D00207818B93878800700F0BC82207804
:1019300048B901202070C820012100F0DDFB00BF64
:1019400020780128FCD10020387020704AF201591B
:10195000002005F81F0C05F8230C00BF00BF00BFD6
:1019600015F8190C0007FBD542F602314EF614505B
:10197000C0F20101C5F8731040F2234125F8071C9D
:10198000002205F80B2C4FF60211C5F8571040F253
:10199000514125F8091CCEF200004EF20001BFF3C0
:1019A0004F8FBFF36F8F0368CEF2010123F4003332
:1019B0000360C0F83C22BFF34F8FBFF36F8F0A68FC
:1019C00022F440520A60BFF34F8FBFF36F8F15F8B8
:1019D000412C02F0F802013205F8412C00BF00BF93
:1019E00015F8412CD206FBD40A6842F440520A6032
:1019F000BFF34F8FBFF36F8F0168890312D4BFF31A
:101A00004F8FBFF36F8F0021C0F83C12BFF34F8F91
:101A1000BFF36F8F016841F400310160BFF34F8F56
:101A2000BFF36F8F002005F82B0C00BF00BF00BF75
:101A300015F8190C8006FBD54CF200040020C4F206
:101A4000130420702078207820786068FA2807D066
:101A5000FA20C1F6006000BF60606168FA29FBD11E
:101A6000A0687D2808D07D20CEF2001000BF00BF06
:101A7000A060A1687D29FBD143F23240C3F223204C
:101A800045F8350C42F2202025F8310C052005F8E8
:101A90002F0C15F82F0C35F8311C01F00F02A2F1B4
:101AA000080103292BD8DFE801F002200C164AF6C2
:101AB000AB2156F82000CAF6AA21A0FB0101480874
:101AC00020E04AF6AB2156F82000CAF6AA21A0FB76
:101AD0000101C80816E04AF6AB2156F82000CAF604
:101AE000AA21A0FB010108090CE04AF6AB2156F837
:101AF0002000CAF6AA21A0FB0101880802E056F8DE
:101B00002000D040CAF800001E200121012700F06B
:101B1000F3FA60686FF39F20652828BF277015F8D7
:101B20002F0C35F8311C01F00F02A2F10801032936
:101B30002BD8DFE801F002200C164AF6AB2156F84C
:101B40002000CAF6AA21A0FB0101480820E04AF6BD
:101B5000AB2156F82000CAF6AA21A0FB0101C80853
:101B600016E04AF6AB2156F82000CAF6AA21A0FBDF
:101B7000010108090CE04AF6AB2156F82000CAF62C
:101B8000AA21A0FB0101880802E056F82000D040FD
:101B900042F20001CAF80000C4F200010120A1F8DD
:101BA0000090BFF35F8F08724FF42540BFF35F8F43
:101BB000088095F8850040F0400085F8850000BF5A
:101BC00095F98500B0F1FF3FFADC032085F87F002E
:101BD000C92085F8850095F8850000F0BF0085F8DC
:101BE000850000BF00BF00BF95F985000028FBD429
:101BF000012005F8020C002005F8170C802005F8DC
:101C0000170CE87F40F04000E87700BF00BF00BF3E
:101C100095F91F00B0F1FF3FFADC0720E8754A2074
:101C2000E8770A20E87700BF95F91F000028FBD469
:101C30000720ADF806000DF1060000F049F995F80F
:101C4000210040F0400085F8210000BF00BF00BF28
:101C500095F92100B0F1FF3FFADC03206876CA2035
:101C600085F8210095F8210000F0BF0085F82100DB
:101C700095F921000028FBD4287840F04000287016
:101C800095F90000B0F1FF3FFADC022005F8010CE5
:101C9000CA202870287800F0BF00287000BF00BF5D
:101CA00095F900000028FBD4A87840F04000A87007
:101CB00095F90200B0F1FF3FFADC00206870C72000
:101CC000A870A87800F0BF00A87000BF00BF00BFD8
:101CD00095F902000028FBD4287A40F040002872D1
:101CE00095F90800B0F1FF3FFADC0120E871C62049
:101CF0002872287A00F0BF00287200BF00BF00BF22
:101D000095F908000028FBD495F8230040F0400026
:101D100085F8230000BF00BF95F92300B0F1FF3F15
:101D2000FADC0220E876C92085F8230095F8230024
:101D300000F0BF0085F8230095F923000028FBD4AC
:101D4000A87A40F04000A87295F90A00B0F1FF3F70
:101D5000FADC01206872CA20A872A87A00F0BF00DD
:101D6000A87200BF00BF00BF95F90A000028FBD48D
:101D700095F8220040F0400085F8220000BF00BF27
:101D800095F92200B0F1FF3FFADC0420A876CA20C2
:101D900085F8220095F8220000F0BF0085F82200A7
:101DA00095F922000028FBD4A87940F04000A871E2
:101DB00095F90600B0F1FF3FFADC02206871CA20F5
:101DC000A871A87900F0BF00A87100BF00BF00BFD4
:101DD00095F906000028FBD495F8860040F04000F5
:101DE00085F8860000BF00BF95F98600B0F1FF3F7F
:101DF000FADC022085F88000C52085F8860095F879
:101E0000860000F0BF0085F8860000BF00BF00BF5D
:101E100095F986000028FBD495F8870040F0400033
:101E200085F8870000BF00BF95F98700B0F1FF3F3C
:101E3000FADC012085F88100C52085F8870095F837
:101E4000870000F0BF0085F8870000BF00BF00BF1B
:101E500095F987000028FBD495F8890040F04000F0
:101E600085F8890000BF00BF95F98900B0F1FF3FF8
:101E7000FADC092085F88300C92085F8890095F8E7
:101E8000890000F0BF0085F8890000BF00BF00BFD7
:101E900095F989000028FBD44FF42540A8F80000EC
:101EA00002B0BDE8F0874FF47A7000F0C9F84DE554
:101EB000006CDC0200127A000080000000366E0127
:101EC0000080000000CA9A3B0046C3235543DE133E
:101ED0002DE9F04F81B04EF2FA3143F20406C4F21C
:101EE00001018246C4F220064AF20350B1F8009084
:101EF00008804FF0010B00254FF4803401270020AB
:101F000008E000BF00BF00BFF8074FF001004FF02E
:101F1000000716D004FA00F132680A42F4D1EFF358
:101F200010888BF3108832680BFA00F0114331608F
:101F3000316805431E20012100F0DEF888F3108887
:101F4000E2E74EF2750740F20041C4F20107C2F227
:101F50000021387800F00F0051F8200017F8081C15
:101F600001F00F01022901D801220BE0CA1E052A47
:101F700006D245F2D041C0F2002151F8221003E010
:101F80000839102202FA01F1B0FBF1F04DF683613D
:101F9000C4F21B31A0FB01016FF0010000EA5140C7
:101FA000012100F0A9F8387840F04000387000BFF7
:101FB00097F90000B0F1FF3FFADC9AF8010007F84A
:101FC000080C9AF8000040F0400038709AF80000C1
:101FD000387000BF00BF00BF97F900000028FBD495
:101FE00000204FF0010A4FF48038012406E000BFC2
:101FF000E0074FF001004FF0000415D025FA00F182
:10200000C907F5D0EFF310878AF3108808FA00F0BB
:10201000316821EA0000306030681E20012100F0A4
:102020006BF887F31088E3E74EF2FA3149F4254064
:10203000C4F20101088001B0BDE8F08FD4D4D4D43B
:102040007047D4D4D4D4D4D440F20041C2F2002199
:1020500051F820007047D4D4B0B542F22404C8200F
:10206000C4F2200401210025257100F045F82570F7
:10207000207808B12FF005C0207840F002002070D1
:1020800020788007FCD4002004F8020C00BF00BFB9
:1020900014F8020C08B12FF005C84FF0030E002011
:1020A00004F11C0100BF00BF11F8102002F07F02F4
:1020B00001F8102000BF00BF11F91020002AFBD446
:1020C00001300FF00FC8012000F0CAF84EF64C4165
:1020D0000120C4F2010100220A70BDE8B04000F006
:1020E00093B8D4D4D4D4D4D4014600220020C0F272
:1020F00004620A607047D4D440F6B01241F2002363
:10210000C2F20022C0F27A03484312689A420FD307
:1021100044F23F21C0F20F0111444DF68362C4F234
:102120001B32A1FB0212910CA0FB0101C9B11DE001
:102130004CF60021C3F69A31B1FBF2F148F63812A1
:10214000C0F24102904205D24FF47A725043B0FB84
:10215000F1F006E0B0FBF1F0904207D24FF47A7153
:102160004843002808BF704700F006B84FF0FF3022
:1021700000F002B8D4D4D4D401380028FCD1704780
:10218000F0B581B04CF2201540F64417C4F20005BA
:102190000024C2F2002755F8200C296801EA000645
:1021A00006E000BF00BF00BF01340437152C09D082
:1021B00026FA04F0C007F7D039680029F4D0204689
:1021C0008847F1E745F8106C28683042FCD101B02F
:1021D000F0BDD4D4D4D4D4D480B54FF0020E45F29F
:1021E00064204CF200320021C0F20020C4F2000250
:1021F00030F81130002B18BF42F8213001210FF0C8
:1022000009C880BDD4D4D4D4EFF31081012282F365
:10221000108840F6A412C2F2002232F8103023B126
:1022200032F81030013B22F8103032F8102012B191
:1022300081F3108870474EF2FA3245F2E44CC4F252
:102240000102C0F2002C13883CF8100043F425432F
:1022500023EA0000108081F310887047D4D4D4D4CE
:1022600010B5EFF31081012282F3108840F6A4121A
:10227000C2F2002232F8103083B94EF2FA3E45F233
:10228000E44CC4F2010EC0F2002CBEF800403CF851
:102290001030234343F42543AEF8003032F81030B9
:1022A000013322F8103081F3108810BDD4D4D4D477
:1022B00000F00AF8FEF7B8FCFEE7D4D4D4D4D4D4A6
:1022C00000BE7047D4D4D4D42DE9F04381B04EF68B
:1022D000085840F20120CEF20008C0F20E004EF283
:1022E0000004C8F80C00CEF20104BFF34F8FBFF317
:1022F0006F8F58F8081CC1F3035001285FEA1F9242
:1023000011F00F0F5FEA0F911142216811D10228DD
:102310000FD241F0040020604EF20800BFF34F8F4F
:10232000CEF20000BFF36F8F016841F4803101608D
:1023300002E021F004002060BFF34F8FBFF36F8FE6
:102340004FF4700040F20001C8F880000020C0F295
:102350000021C8F800100025FEF756FCFFF760FAD0
:102360004EF2FA304EF6B022C4F20100C4F201027D
:102370004AF20251018015704FF42541018001207D
:10238000FEF742FC40F20000C2F2002080F30A880F
:102390002068800724D5D8F80000B0F1007F1FD155
:1023A00020694FF40071C0F3C300626901FA00F3C1
:1023B000C2F3C30081400020DA08CB08014607467B
:1023C00042F007C000BF00BFE7E802010FF005C000
:1023D0004FF0005243F005C0E2E802010FF005C0E3
:1023E00045F2A424C0F20024276897B160683E46F5
:1023F000051D05E000BF00BF013E05F10C0508D03A
:1024000068790028F8D155E90101091A02F077FB33
:10241000F2E7D4F80890B9F1000F13D0E0684E4607
:1024200000F1080504E000BF013E05F1100509D0E8
:1024300068790028F8D155E902022968121A02F0D9
:1024400063FBF1E7FFF790F9FFF706FE0320FFF7C4
:1024500007FF4FF00E0E40F63050C4F2400000214E
:1024600020F8041B0FF005C04EF210150320C4F233
:102470000105FFF7C9FE0320FFF7F2FE44F2040056
:102480000021C4F22000016041608160C16003202E
:10249000FFF7BAFED5F8C802800714D42878A0B197
:1024A0000120FFF7DDFE00BF95F9000010F1410F9C
:1024B000FADC0020287000BF28783F28FCD80120D3
:1024C000FFF7A2FE01E0D5F8C8020220FEF79CFB50
:1024D000A7B160684FF48076051D05E000BF00BF1E
:1024E000013F05F10C0509D06879B6EB002FF7D153
:1024F00055E90101091A02F002FBF1E7B9F1000FF9
:1025000016D0E0684FF4807500F1080405E000BFC4
:10251000B9F1010904F110040AD06079B5EB002F7C
:10252000F6D154E902022168121A02F0EDFAEFE73F
:1025300040F6B814C2F20024204600F0A1F820466C
:1025400000F0B6F8BFF34F8FBFF36F8F0020C8F8CD
:10255000480245F67E0045F67E01C0F20020C0F23A
:102560000021BFF34F8F081ABFF36F8F8410012C27
:102570000BDB45F67E05C0F2002500BF00BF00BFA3
:1025800055F8040B8047013CFAD1FFF725FE0020E7
:1025900001B0BDE8F04300F003B8D4D4D4D4D4D40F
:1025A0007047D4D450EA010202BF9FED340A10EE06
:1025B000100A7047B0FA80F2002902F1200318BF18
:1025C000B1FA81F383F03F0C272B08D8262B39D0A2
:1025D000272B0CD1490041EAD071400032E0A3F131
:1025E00028018840B3F1480158BF00203BE070B596
:1025F000C3F1060403F11A069A1F20FA04F501FA42
:1026000006FE45EA0E0558BF00FA02F500FA06F28A
:1026100058BF0022C3F126062A43C6F1200520FA3E
:1026200006F05FEA0F9201FA05F52843002C58BF27
:1026300021FA04F040EA020021FA06F158BF002115
:10264000BDE87040C0F380021043421C41F100001D
:10265000510103D4910841EA807004E0D108C3F12C
:10266000400C41EA40706FF3DF5040EACC5000F17B
:102670007E5000EE100A10EE100A704700000000B5
:1026800010B540F2480140F20002C0F20021C0F251
:102690000002044602F038FA40F2000040F2000165
:1026A000C0F20000C0F20001204402F028FA10BD80
:1026B00040F20801C0F20001401A40F6B411C2F223
:1026C00000210860704782B0B0B58AB0002504468A
:1026D000CDE9050542F20B70C0F20020CDE90E23D2
:1026E00002904FF400300EAA019001A80992CDE9A2
:1026F0000355CDE9075500F011F8002858BF2554BF
:102700000AB0BDE8B04002B07047D1E904239A4254
:102710001EBF531C0B6110707047D4D42DE9F04FCD
:1027200099B0814680781892800740F1B585189855
:102730000027D9F804808A46179011A8821D0C92B0
:10274000421E053010920E900D91514611F8010B6A
:10275000252803D08A4638B900F0A0BD9AF8015068
:102760000AF1020A252D06D14946C0470137002843
:10277000EBD500F08BBD002200244FF0000C4FF091
:10278000000B04E01AF8015B002D00F02D811FFA08
:102790008BF61F2E20D8A5F1200010281ED8DFE8C8
:1027A00010F015001D001D0018001D001D001D006B
:1027B00014001D001D001D0011001D00CC001D0097
:1027C0001D00C9004BF0020B00E0DBE74BF0040BEF
:1027D000D8E74BF0100BD5E77F2E0DD8A5F13000D0
:1027E000092840D8402E80F0A0800CEB8C014BF0E3
:1027F000200B00EB410CC5E7A5F14C002E2800F2A0
:10280000F480DFE810F08F00F200F200F200F20036
:10281000F200F200F200F200F200F200F200F20028
:10282000F200F200F200F200F200F200F200F20018
:10283000F200F200F200F200F200F200F200A40056
:10284000F2008F00F2009D00F200F200F200F200B0
:10285000F200F200F2002F00F200F200F200F200AB
:10286000F2002F008EE7A5F12400562800F2BD806B
:10287000DFE810F08600BB00BB00BB00BB00BB0064
:102880007400BB00BB00BB00A400BB00BB00BB00CE
:10289000BB00BB00BB00BB00BB00BB00BB00BB0060
:1028A000BB00BB00BB00BB00BB00BB00BB00BB0050
:1028B000BB00BB00BB00BB00BB00BB00BB00BB0040
:1028C000BB00BB005800BB00BB00BB00BB00BB0093
:1028D000BB00BB00BB00BB00BB00BB00BB00BB0020
:1028E000BB00BB00BB00BB00BB00BB00BB00BB0010
:1028F000BB00BB00BB00BB00BB00BB006D00BB004E
:102900005800BB006600BB00BB00BB00BB00BB00A7
:10291000BB00BB005700BB00BB00BB00BB00BB0043
:1029200057002FE74BF4207B2CE704EB840100EBEE
:10293000410427E74BF0010B24E74BF0080B21E79C
:102940000BF080004BEA800040F0800B1AE70BF49C
:1029500080704BEA400040F4807B13E7002A7FF44C
:1029600011AF17983F2E00F104011791006832D87B
:10297000B0F1FF3F32DD4BF0200B0022844601E72F
:1029800012B31898402E179017A90D986546CDF8E8
:102990003C90C14690465CEA348200F083FC179874
:1029A000402E4246C84600F1040117910068DDF848
:1029B0003C9050EA358C54EA3084E3E63F2E00F236
:1029C0006D844BF0400BDDE6624600244FF0000CB6
:1029D0004FF0000BD6E600220446D3E64BF0280B5E
:1029E000C0F1000C0022CDE60025CDF83CC03AB184
:1029F000189817A917900D9800F054FCDDF83CC00A
:102A0000002C24EAE47E45F0200048BF2BF0400B68
:102A100061281CBFA0F16501022925D817996128FA
:102A200001F1070121F0070101F108021792A0EB63
:102A3000050291ED000B0A9244D15FEA4B6058BF4A
:102A40004FF0FF3E11A8D2B27146764600F0C8FDA5
:102A5000451C4BF4C05B4FF0700C4FF0010EE8B218
:102A60008642D8BF461E5CE0A5F16301122900F240
:102A70000A8108230026DFE811F035011300060162
:102A80000601060106011300060106010601060102
:102A9000060161015D01060106010D0106012E011D
:102AA0001FFA8BF15FEA0B6000F10C811798021D91
:102AB00017920068CA0540F10C81890554BF00B225
:102AC00040B206E15FEA4B6158BF4FF0060E662840
:102AD00009D065280FD14BF4805B76460EF10101D9
:102AE0000023652411E04BF4005B012266241121D0
:102AF000764673460AE05FEA0E61A0F10204714671
:102B000076464FF0000308BF0121002211A8C9B288
:102B1000112928BF112101F0B6F805464FF0020E29
:102B2000A446119B9DF84800A3F10A0111F1130F6F
:102B300038BF4FF0020EA3F16401089111F1C70FE5
:102B400038BF4FF0030E0F9CC1074FD15FEA8B7166
:102B50006FD41FFA8BF1202202EAC10211F0040F98
:102B60005FEA1F9110F00C0F45D11BF4405F0493F6
:102B7000CDE9062140F02B82012E4FF0010056EAEC
:102B800080801FFA8BF12A0600F06D810E9BEAB25D
:102B9000134413F8013C302B40F006826B1E1A06DA
:102BA00021D02E460E9DDAB2154415F8015C302D69
:102BB00040F0F981B31E1A0615D00E9DDAB2154405
:102BC00015F8015C302D40F0EE81F31E1A060AD094
:102BD0000E9DDAB2154415F8015C302D40F0E3810A
:102BE000351F2A06D2D100250022DDE12D22002149
:102BF00010F00C0FB9D000294FF0030050EA1090EC
:102C0000844212DD0A9E0D465FEA0B7117D4041B45
:102C1000934620204946C047002800F137830137FA
:102C20000134F6D300245A460AE000240A9E49B132
:102C30000FE02B22002110F00C0FDCD195E7241AB5
:102C4000294631B910464946C047002800F11E8385
:102C500001379DF8480045F2FB01C0F20021000752
:102C600044F63360C0F2002050EA518528780028ED
:102C700000F0F982801B4946C0B2C04701370135D8
:102C80000028F3D502E3782840F09880C5F1880346
:102C90002E4653E01798011D1791006845F2211147
:102CA000C0F20021002851EA00855FEA4B6058BF5E
:102CB0004FF0FF3E2846714600F06AFEDDF83CC04A
:102CC000064617E01798890500F18680011D1791C7
:102CD0000068C11788E04FF6EF700BEA000B0A237B
:102CE00075262BE01798012611AD011D179100687C
:102CF0008DF844005FEA0B700ED4B4450CD9202047
:102D000049466446C047002800F1C082A4F1010C86
:102D10000137B445F3D8B4463744ACEB0604002E73
:102D200000F0A18215F8010B4946C047013E00287A
:102D3000F5D5ABE24BF0100B102378264FF6F97067
:102D40000BEA00025FEA0B600B960AD41798011D8C
:102D500017910668D1050AD5900554BFB6B2F6B2F0
:102D600005E0179891050AD4011D17910668002106
:102D700056EA010008BF2BF0160278D10FE00730A9
:102D8000154620F007000246416852F8086B17927A
:102D90002A4656EA010008BF2BF0160267D100262A
:102DA0005FEA4B6062D50021012C60DA4FF6E970D2
:102DB0000BEA00010B9D480637D467E02520494601
:102DC000C047002800F1628228464946C0470237C2
:102DD00000287FF5BAAC59E2073020F007010A4617
:102DE000496852F8080B179200295A46CDF82CE092
:102DF00048BF42F4806250EA010322D080EAE170C9
:102E000081EAE173B0EBE17063EBE17111AC22F0A8
:102E100010060A23224600F06DFB3146061BDDF842
:102E20003CC0DDF82CE0480630D54FF6FE70764504
:102E300000EA01002BDA002D08BF21F011007146D5
:102E400026E05FEA4B604FF0000040F19E810021D8
:102E5000012CDBDA4FF6EE70DDF83CC000EA0B0027
:102E6000DDF82CE014E0002500229EE0002111ACEA
:102E7000304616467546224600F03CFB3146AE46CB
:102E8000DDF83CC0061B0B9D4806CED408463146F3
:102E90001FFA80FBC0060AD440F206401BEA000F6E
:102EA0005FEA0F9044185FEA0B7009D526E0002D09
:102EB0004FF0010050EA009044185FEA0B701DD4F7
:102EC0005FEACB7008D0B646644505DA06EB0C0025
:102ED000A0EB040E644611E064450FDACDF82CE057
:102EE00020204946C047002800F1D0810F980134C6
:102EF0000137A042F4D1DDF82CE004465FEACB6054
:102F00001BD440F206401BEA000F26D05FEA8B700C
:102F100075464FF02B0058BF20205FEA4B514946C1
:102F200048BF2D20C047002800F1B0810137AE46D0
:102F3000F3467546B64514DC1CE030204946F3469E
:102F4000C047002800F1A28135B328464946C04752
:102F5000002800F19B810237DE46F3467546B645F0
:102F600008DD30204946C047002800F18F81013D2F
:102F7000B542F6DC0F985E45A0EB040456EACB8020
:102F80000744002E00F06F8110984946805DC047CD
:102F9000013E0028F5D579E10137DE46F346754656
:102FA000B645DEDCE6E71D46049BC90652EA5081C1
:102FB00013F1040F08DB834206DA4BF4005B8B420B
:102FC00004DAD8430E1802E04E1E00E00026A3F5F6
:102FD0007A711FFA8BF4099424055FEA8B400395FC
:102FE000CDE9011C05940CD411F5FA6F70464FF031
:102FF000050198BF0420002C58BF032101EB000CF1
:1030000003E023EAE37000F1010CDDF824B0002EA8
:10301000079A4FF000050B96CBF3001182F00102E6
:1030200051EA06900F9983186344CB1A53EAC5847A
:103030001BF0090F11D10A9E84B1604475461044FB
:10304000441A20204946C047002800F11F8101375B
:103050000134F6D30024AE4600E00A9E0798CDF86E
:1030600000E00028069805D14946C047002800F135
:103070000D810137059800280ED530204946C047FC
:10308000002800F10381C6F178004946C0B2C0476C
:10309000002800F1FB800237099800070AD44CB1E0
:1030A000274430204946C047002800F1EF80013C0A
:1030B000F7D100240998800427D49DF84900494697
:1030C000C047002800F1E2800B98012857DB2E2032
:1030D0004946C047002800F1D9800B98384400F1D8
:1030E000020B0398C5B20020471CAF4202D20C99D4
:1030F000085C00E030204946C047002800F1C68047
:103100000B98B8423846EFD148E0049820EAE076C0
:10311000851B0B98C0F1000B0398C0B20F90701C78
:1031200006D12E204946C047002800F1AF80013764
:103130003020002D04D40F998D42BCBF0E98405D05
:1031400049465E4506DDC04701350137013E00288E
:10315000E5D59BE0C047002800F198800999781CCC
:10316000C90640F19180002E40F08C802E20494607
:10317000C047B0F1FF3F40F38980023773E0099800
:10318000C00604D407F1010B08E000213EE62E2022
:103190004946C047002879D407F1020B02984946F6
:1031A000801BC0B2C047002870D4049E2B20494623
:1031B000002E48BF2D20C047002E48BF7642002871
:1031C00064D4019810F5FA6F15D844F6D3504946E7
:1031D000C1F26200A6FB0005302000EB9510C0B2E2
:1031E000C047002852D4A8094FF47A7100FB11623D
:1031F0000BF1030506E008980BF10205324610F1C9
:10320000C80F3BD848F21F504946C5F2EB1017468D
:10321000A2FB0006302000EB5610C0B2C0470028C9
:1032200034D47009642100FB117201354CF6CD4095
:103230004946CCF6CC401746A2FB0006302000EBF6
:10324000D600C0B2C047002820D4F008013500EBFA
:103250008000A7EB400202F130004946C0B2C047EF
:10326000002813D46F1C012CFFF66FAA20204946BA
:10327000C0470137013C0028F5D507E00098022837
:10328000D4D2E8E70746EEE70746ECE799F80200F4
:1032900040F0040089F802004FF0FF37384619B0BB
:1032A000BDE8F08F022AB8BF70472DE9F04F42F613
:1032B00089084FF0010CC0F2010804464FF0010EDE
:1032C00003E05F789C1C252F29D1234613F8015B6E
:1032D000252D01D025B90AE16778A31C252F1DD122
:1032E0001C4614F8015B252D01D025B9FFE05F785D
:1032F0009C1C252F13D1234613F8015B252D01D0EB
:1033000025B9F4E06778A31C252F07D11C4614F8D3
:10331000015B252DD5D0002DD7D1E8E01C464FF01C
:10332000000A4FF00009002604E014F8017B002F8A
:1033300000F0A980B346BAF11F0F0AD8A7F1200503
:10334000102D09D80CFA05F515EA080F40F07C801D
:1033500002E0BAF17F0F0AD8A7F13005092D3ED857
:103360000BEB8B034AF0200A05EB4306DDE7A7F1E0
:103370004C052E2D00F288805E46DFE815F06700D0
:103380008500850085008500850085008500850015
:103390008500850085008500850085008500850005
:1033A00085008500850085008500850085008500F5
:1033B0008500850085007700850067008500700026
:1033C00085008500850085008500850085002F002B
:1033D000850085008500850085002F00A5E7A7F101
:1033E0002405562D00F250800026DFE805F0334D0D
:1033F0004D4D4D4D324D4D4D324D4D4D4D4D4D4D33
:103400004D4D4D4D4D4D4D4D4D4D4D4D4D4D4D4DEC
:103410004D4D4D4D4D4D2F4D4D4D4D4D4D4D4D4DFA
:103420004D4D4D4D4D4D4D4D4D4D4D4D4D4D4D4DCC
:103430004D4D3F4D2F4D384D4D4D4D4D4D4D2C4D1E
:103440004D4D4D4D2C00FFE75E466EE74AF4207A65
:10345000FAE76AE7B9F1000F0FD1D94665E70AF03C
:1034600080034AEA830343F0800AEDE70AF480739D
:103470004AEA430343F4807AE6E7F3457FF455AF25
:103480006327F14600E00027B9F1000F2FD0F14586
:1034900024D147F02003612B1CBF653B022B05D8CC
:1034A0000B68073323F00703083313E0A7F1630326
:1034B000102B0AD8DFE803F00C09090909090909EA
:1034C00009090909090909090C005FEA0A6309D415
:1034D0000B6804330EF1010E04460B609645FFF6AF
:1034E000F4AE04E00B685FEA8A54DAD4F1E7BDE891
:1034F000F04F70472DE9F04703F01F0698469146BC
:103500008A460546284651463246002300F06EFAA8
:10351000044600FB16500F46A0EB0801092888BF9F
:1035200001F13700303089F80000A81B7AF1000063
:1035300049D3204639463246002300F057FA054663
:1035400000FB16408A46A0EB0801092888BF01F15C
:103550003700303089F80100A01B77F1000036D326
:10356000284651463246002300F040FA044600FB4C
:1035700016500F46A0EB0801092888BF01F137005B
:10358000303089F80200A81B7AF1000023D32046CE
:1035900039463246002300F029FA054600FB164062
:1035A0008A46A0EB0801092888BF01F137003030B6
:1035B00089F8030009F10409A01B77F10000A1D2EA
:1035C0004846BDE8F08709F10100BDE8F08709F140
:1035D0000200BDE8F08709F103094846BDE8F0871D
:1035E0002DE9F04F85B05AEC103B4FEADA77CAF379
:1035F0000A566FF31F5A077153EA0A0408BF002ED8
:103600000ED040F2FF75AE423CD10421002C18BF11
:103610000821394401710021084605B0BDE8F08F4A
:10362000002700234FF0000A0029076037D40D2936
:1036300037D3190F00F1050B41EA0A110491190E55
:103640004FEA1A5441EA0A210391190D4FEA1A462A
:1036500041EA0A310291190C4FEA1A3841EA0A414B
:103660000191190B41EA0A5C190A41EA0A6E19092B
:1036700041EA0A794FEA1A1103F00F034FEA1A27B9
:10368000009180E04FF60247002ECFF6FF771CBF77
:10369000A6F2FF370AF5801A00290760C7D5002176
:1036A00046E03326A6EB8105C5F1200613274FF02F
:1036B000020CA7EB81072CFA06F401264FF0000E4E
:1036C000002F58BF0CFA07F458BF06FA07FE06FA97
:1036D00005F60CFA05F558BF002658BF0025D5F1B0
:1036E00000094FF0000868EB040C013D64F1000490
:1036F0001D4004EA0A04751B7EEB040411D38C0000
:10370000C4F13405D4F1140423FA05F7C5F12005FA
:103710000AFA05F545EA070558BF2AFA04F5EC0749
:1037200002D09B194AEB0E0A03EA09030AEA0C0AC3
:103730001F0947EA0A791F0F1D0B47EA0A1704976A
:103740001F0E45EA0A5C47EA0A2703971F0D1D0A68
:1037500047EA0A3702971F0C45EA0A6E47EA0A470A
:1037600000F1050B13F00F0301974FEA1A174FEA08
:103770001A544FEA1A464FEA1A384FEA1A250097A8
:1037800000F0B4802F46991A092B88BF01F1270356
:1037900003F13001817409F00F030D219D1A092BEB
:1037A00088BF05F127030C2903F13003437498BF48
:1037B0000C210EF00F039D1A092B88BF05F127037A
:1037C0000B2903F13003037498BF0B210CF00F0396
:1037D0009D1A092B88BF05F127030A2903F130033D
:1037E000C37398BF0A21019B3D4603F00F039F1A44
:1037F000092B88BF07F12703092903F130038373DD
:1038000098BF0921029B03F00F039F1A092B88BF61
:1038100007F12703082903F13003437398BF0821F8
:10382000039B03F00F039F1A092B88BF07F127039F
:10383000072903F13003037398BF0721049B03F0AA
:103840000F039F1A092B88BF07F12703062903F1ED
:103850003003C37298BF06210AF00F039F1A092B89
:1038600088BF07F12703052903F13003837298BF4E
:103870000521009B03F00F039F1A092B88BF07F156
:103880002703042903F13003437298BF042105F094
:103890000F039F1A092B88BF07F12703032903F1A0
:1038A0003003037298BF032108F00F039F1A092BFE
:1038B00088BF07F12703022903F13003C37106F023
:1038C0000F0398BF02219A1A092B88BF02F1270320
:1038D00003F130028271012998BF012104F1300007
:1038E0008BF80000084605B0BDE8F08F19F00F0313
:1038F00048D10C2946D21EF00F0345D10B2943D2E3
:103900001CF00F0342D10A2940D2019B13F00F0390
:103910007FF46DAF0929BFF46AAF029B13F00F0368
:103920007FF473AF0829BFF470AF039B13F00F034C
:103930007FF479AF0729BFF476AF049B13F00F0330
:103940007FF47FAF0629BFF47CAF1AF00F037FF43A
:1039500085AF0529BFF482AF17F00F038CD104297E
:103960008AD215F00F0394D1032992D218F00F03D5
:103970009CD102299AD206F00F0353EA0107A2D183
:103980000021ABE72F4609E72F4614E72F461FE734
:10399000844639B370B500EB010C4B1EA1F1020E49
:1039A000CC1E0022855C85B1934219D085186E78B3
:1039B00076B1964514D0AE786EB1944210D0EE78C0
:1039C00066B104329142EDD10AE000EB020C07E04F
:1039D00005F1010C04E005F1020C01E005F1030C16
:1039E000BDE87040ACEB00007047D4D440B584B063
:1039F00002AE009600F004F8029A039B04B040BDAA
:103A00002DE9F04F099D844681B1C2B14BB3B1FAA3
:103A100081F7B3FA83F6F71B202F4FD3002D18BF81
:103A2000C5E900C100200021BDE8F08FCBB3002123
:103A3000002D64D00020C5E900C1BDE8F08F002B47
:103A400060D0002861D05F1E3B4200F08580B1FA53
:103A500081F7B3FA83F6F71B1F2FDFD207F1010CB2
:103A60003CE0571E3A425DD0B1FA81F7B2FA82F6D5
:103A7000F71B07F1210CBCF1200F24D0BCF11F0F64
:103A800079D8CCF1200620FA0CF721FA0CF901FACA
:103A900006F5B0403D434FF0000ABCF1010F2CD0B9
:103AA0007CE0B0FBF2FC002D1EBF0CFB12000021DD
:103AB000C5E9000100216046BDE8F08F07F1010C67
:103AC000BCF1200F0AD14FF000094FF0200C0D4639
:103AD0004FF0000ABCF1010F0FD05FE0C7F11F07E4
:103AE00020FA0CF621FA0CF901FA07F5B840354333
:103AF0004FF0000ABCF1010F50D100248FE00020EC
:103B0000BDE8F08F6046BDE8F08FB1FBF3FC002DFF
:103B10001EBF0CFB13100021C5E9001000216046F8
:103B2000BDE8F08F002D1EBF00230740C5E90073DC
:103B3000012A0ED092FAA2F24F00B2FA82F202F0FB
:103B40001F03D140D8401F23934307FA03F343EAEE
:103B5000000C6046BDE8F08F002D1CBF07EA010095
:103B6000C5E900C093FAA3F0B0FA80F021FA00F0A2
:103B70000021BDE8F08FACF12007CCF140044FF0FC
:103B8000000920FA07F601FA04F52E4300FA04FAB8
:103B900021FA07F53046BCF1010FAED02CF0010739
:103BA0000126023F4FF0000B06EB570E4FEA490487
:103BB00044EAD5746D0045EAD0754000E743E94317
:103BC000891843EB0708AF1A64EB0306B8F1000F3E
:103BD00056EA448457EA4585640044EAD5746D008A
:103BE00045EAD07540EADA70AE1A6FEA050164EB77
:103BF000030789184FEA40006FEA0401594157EA68
:103C0000448956EA4585CC0F4BEA4A010027A34672
:103C100040EAD170490041EAD87A0FF039C85FEA2A
:103C2000CC711ED06F004FEA490147EAD07741EAD4
:103C3000D571B7EB020C4FEA400061EB030EFD4378
:103C400052196FEA010653EB060240EADA705EEAA7
:103C500041895CEA4785D10F44EA4A0200270C46B5
:103C600092464FEADA7141EA400009994FEA4A0266
:103C7000002918BFC1E9005940EA070122F00100FC
:103C80002043BDE8F08F2DE9F04FA1B056EC108B2A
:103C9000B246C6F30A546FF31F5AF50F58EA0A07E3
:103CA00008BF002C0ED040F2FF76B44215D1082197
:103CB000002F08BF0421002429440171204621B0AF
:103CC000BDE8F08FA91C0171302101244171002150
:103CD0000160204621B0BDE8F08FA4F23549002CE8
:103CE000CDE9062308F001060495CDE9081006BFCA
:103CF0004FF6CC39CFF6FF790AF5801A4FEA8A02DF
:103D000042EA9870002F15905FEA0F90022C5FEA4C
:103D10002F91B9F1000F40EA01074FEA8800149093
:103D20000596139749D4484600F021FD0546B9F1A0
:103D3000030F88BF013D284600F027FD0DF1580B09
:103D400004462846594600F00BFE1AA81CA95A46FC
:103D50000297CDE90010A5EB09002044514600F17F
:103D60007C034046AB4600F031FC8246152D5FD8FF
:103D7000149F4CF6CD46159D1EA8CCF6CC460C469D
:103D800000903846294632464FF0CC3300F072FEA0
:103D9000DDE91E01820842EA817120F00300084437
:103DA0004042F8426AD13846294600F0F7FC5845AF
:103DB0005FEA3F901290002087E0C9F1000B58465F
:103DC00000F0DCFC044619F1010018BF013CABEB2C
:103DD000040B584600F0D9FC16A9054658468B46F8
:103DE00000F03BFD1AA81CA95A460297CDE9001025
:103DF000601B00F17D034046514600F0E7FB04EBF9
:103E0000090B8246012C1BD8089B002E069D4CF600
:103E1000CD46CCF6CC4608D0DDE91C0201381C901A
:103E200062F100001D90002013900120129050E0DC
:103E30004CF6CD460020CDE91200CCF6CC4646E04B
:103E4000089B4CF6CD46069DCCF6CC463E2C25D89C
:103E50004FF0FF30B4F1200200FA04F758BF0027FA
:103E6000149C58BF9040159A24EA070722EA0000E4
:103E700038435FEA1F901290002011E0059888B93E
:103E80001398C043C01965F1000100F087FC584544
:103E90005FEA3F9013900020129017E000201290EC
:103EA000139016E047F00200294600F077FCDDE9A8
:103EB0001C124B1E62F10005584553EA21801C90EC
:103EC00055EA22801D900020129013902146089BF5
:103ED000069D002D0C934AD0BAF10A0071F1000042
:103EE00001D2012037E000274FF00A0C02204FF0EA
:103EF00064094FF47A7842F2107E0A22A2FB0C4544
:103F000007EB870305EB4303BAEB040471EB0303F0
:103F100020D3A2FB093407FB0944BAEB030371EB7E
:103F2000040314D3A2FB083407FB0844BAEB0303D1
:103F300071EB04030DD3A2FB0E23043007FB0E37F5
:103F4000BAEB020371EB0703D8D2013802E001306B
:103F500000E00230089B079A0BEB02073844B0EBF5
:103F6000D27FB8BFD00F834253EAB0800C90CDF817
:103F70000CB00DF1680B1D9C16AD9BE8000B0020EA
:103F80001591149011900B902FE0159950463246E0
:103F90004FF0CC3316AD4FEADB04009500F06AFD1C
:103FA0001498BB46129910F0FF0FDDE916235FEA63
:103FB0001F90014008EB880012914042109949423D
:103FC000B1EB400F13995FEA1F9001401391D008A5
:103FD00040EA437101EB8000AAEB40001490119875
:103FE0008A4601301190D80815905846214632462D
:103FF0004FF0CC330095CDF834B00E9400F03AFD7C
:104000004046494632464FF0CC33DDE9164B009529
:10401000CDE90F9800F02EFDDDE91601E20842EA35
:104020004B774FEAD109C00840EA4178B8EB070066
:1040300079EBDB00A9D31599BAF10A0071F1000000
:1040400001D201203BE00A9700250A2202204FF00E
:104050000A0C64274FF47A7EA2FB0C3605EB85042C
:1040600006EB4406BAEB030371EB060322D3A2FB73
:10407000073605FB0766BAEB030371EB060316D39D
:10408000A2FB0E3605FB0E66BAEB030371EB0603CB
:104090000FD342F210740430A2FB042305FB043555
:1040A000BAEB020371EB0503D6D2013802E001300E
:1040B00000E002300A9F4CF6CD46CCF6CC460C9A76
:1040C0004AEA010313435FEA1F93904203DD13B9E9
:1040D00001200B905AE71398C00771D0DDF840809B
:1040E00032460F994FF0CC3316AD0095404600F0A4
:1040F000C1FCDDE91610C8F10003DDF848B0CA08BC
:1041000042EA407404EB82025242B3EB420F5FD1A9
:10411000C208DDF84490DDF850C0DDE90D0190469D
:1041200032464FF0CC33CDF850C0009500F0A2FCE1
:104130001599324616984FF0CC3312905046179F7F
:10414000009500F097FC4CF6CD4216A80090204652
:104150004146CCF6CC424FF0CC33DDE91665CDF8C4
:104160003C8000F087FCF10841EA457E14980EEB94
:104170008101A046ED0810F0FF0FAAEB410C5FEAA9
:104180001F90DDE916120BEA000B12984CF6CD4693
:104190001595CB0843EA4274C00804EB830340EA58
:1041A00047705B4209F1010916ADF908C8F1000733
:1041B000CCF6CC46D208F246B7EB430FAFD00CE0BA
:1041C0000DF1400BD646DDF850C09BE8000B04E033
:1041D000D646DDF84490DDF850C0159A8EEA080105
:1041E0000F981346424011430B9A5FEA0F91114317
:1041F000CA07059900295FEA1F91002A04BF139A94
:1042000011EA02010ED05FFA8CF105295FEA0F92E4
:10421000042962EA0B025FEA9F9142EA0E0202EA77
:10422000010C01E04FF0010C039809EB00051EEBB7
:104230000C0043F10001B0F10A0271F1000201D259
:10424000012338E0AE4600264FF00A0802234FF063
:10425000640B4FF47A7A42F210790A25A5FB0872B2
:1042600006EB860402EB4402C41B71EB02021DD371
:10427000A5FB0B2406FB0B44821A71EB040212D33C
:10428000A5FB0A2406FB0A44821A71EB04020CD334
:10429000A5FB0952043306FB0926421B71EB0602FB
:1042A000DCD2013B02E0013300E002334CF6CD46A4
:1042B0007546CCF6CC460C9A93425FEADC82012A22
:1042C000079A3AD1069F4FB12A441A44012AD8BF0F
:1042D0000122089F974257EAB2820C920C9A9342AD
:1042E0002BDD05304CF6CD4741F10001CCF6CC4733
:1042F0004008013B40EAC170013510EB51024FEA22
:10430000510142F10002A2FB077626F0030707EBFA
:1043100096074FF0CC36D21B821A4CF6CD40CCF625
:10432000CC4061F10001A2FB000702FB06724CF6D3
:10433000CD46CCF6CC4601FB06210C9A934253EABB
:10434000B2822BB214B22344A3F10108012CC0F2B3
:10435000348102F00303099ACDF84880042C02F15D
:1043600005091193149402D24FF0000AA9E0E31A50
:104370002244149C02F104084FF0000A13936422B3
:10438000002383460F46FFF731FB420800F001008F
:1043900042EAC17212EB510141F10001A1FB062377
:1043A00023F0030202EB93020023891A4FF47A727E
:1043B00040EA4100394640F0300015905846FFF77A
:1043C00015FB42084CF6CD4642EAC172CCF6CC460B
:1043D00012EB510100F0010041F100024FEA5B01D4
:1043E00041EAC77111EB570343F10003A3FB0665D4
:1043F00025F0030606EB95069B1B6FF00206CB1A11
:104400004CF6CD41CCF6CC41A3FB011C01EB810560
:10441000ABEB450545F0300508F804598AEA060576
:10442000159E254409F805604CF6CD46CCF6CC46E1
:10443000A2FB065626F0030505EB9606A2EB060244
:104440004CF6CD46CCF6CC4640EA42006FF0030273
:1044500082EA0A0240F03000224409F802004FF0DC
:10446000CC304FEA570203FB00C062F1000202FBAE
:1044700006004A0801F0010142EAC07212EB500046
:1044800040F10000A0FB062323F0030202EB93029D
:104490000023801A42F2107241EA40006FF00101DD
:1044A00081EA0A0140F03000214409F80100584631
:1044B0003946FFF79BFA0AF1040A139A52457FF432
:1044C0005EAFDDF844E0DDF84880149CBEF1000FDB
:1044D00073D042084CF6CD4742EAC172CCF6CC47C5
:1044E00012EB51036FEA0A0543F100032544A3FBD5
:1044F000077626F0030707EB96074E08DB1BD31A57
:104500004CF6CD42CCF6CC4266F1000CA3FB022760
:10451000BEF1010F02EB8206A0EB460646F0300624
:1045200009F8056049D04FF0CC364CF6CD4503FB79
:1045300006734CF6CD47CCF6CC47CCF6CC450CFBFD
:104540000733570802F0010247EAC37717EB53031A
:104550004CF6CD4743F10003CCF6CC47BEF1020F39
:10456000A3FB077626F0030707EB9607A3EB0703E9
:1045700042EA4302A4EB0A0303EB090642F03002CD
:1045800006F8022C19D064220023FFF72FFA420804
:1045900000F0010042EAC17212EB510141F1000149
:1045A000A1FB052323F0030202EB9302891A40EAE0
:1045B000410040F0300006F8030C0998049901719D
:1045C000C0F80080204621B0BDE8F08F2DE9F04F03
:1045D0008BB0490041EAD07405931646D2E9002316
:1045E00045002846214608AF009700F043FAD6E977
:1045F0000223834606A88946009028462146DDE925
:10460000087A00F037FA10EB0708DDE906234AEBD9
:10461000010ADDE90801571C059C43F10005B8EBD0
:1046200000007AEB0100A4F1410455EA338357EA14
:10463000328296E8830017EB0807F568049445EB8F
:104640000A0510EB0B0059EB0100009457F1000034
:10465000CDE9062345F10001571C43F10005B0EBFD
:10466000080471EB0A04CDF80CB055EA338357EA1D
:104670003282CDF8089000F01BFADDE91429169B70
:10468000C2E9000143B3D6E900C1D6E90256039856
:10469000B8EB0505DDE906236AEB06066C1E66F13C
:1046A0000007B0EB0C000298DDF810B08841CDF89F
:1046B00000B054EA358057EA3681571E63F1000690
:1046C000B8EB00057AEB010557EA328256EA3383EC
:1046D00000F0EEF95F463EE0DDE906204FEA4804CF
:1046E000D6E900EC01900598D6E90276A0F14005E4
:1046F000029800954FEA4A05039945EAD87544EABD
:10470000D0744300E71B65EB0606B7F1010B43EAE3
:10471000D17366F10000DEEB410173EB0C0150EA4E
:1047200036815BEA3780B4EB0803019F75EB0A031F
:104730005FEA2F937F0043EA420347EAD2775A1E8B
:1047400067F10006241A8D4152EA338256EA378314
:1047500000F0AEF9049FDDE90623C9E900014046F7
:104760005146009700F0A4F90BB0BDE8F08F43F27A
:104770004141C0F201014843800C704742F6FB61A1
:10478000C0F20B014843000D704749F24F31C0F2AF
:1047900012014843012101EBD04070472DE9F04F51
:1047A0004CF6CD4E45F6294442F6F50A47F6D508B3
:1047B00047F6916943F2343B02460020CCF6CC4EDA
:1047C0004FF03333CCF28F24C8F65C7AC2F2E9683A
:1047D000C3F6FB29C3F2333BA2FB0E5C4FF0CC3790
:1047E00002FB07C7D5F1333501FB0E7773EB0707E3
:1047F0002ED3A2FB047502FB0A55D7F1333701FB18
:10480000045573EB050722D3A2FB087540F6310669
:10481000C1F6AC4602FB0655D7F1333701FB08550C
:1048200073EB050716D3A2FB09754CF67066CDF243
:104830008826043002FB065201FB0921B7EB0B026C
:1048400071F133323A46C7D30138BDE8F08F0130F9
:10485000BDE8F08F0230BDE8F08F2DE9F04F87B052
:1048600005464EF64F40C4F6C4608B46A5FB0001DA
:10487000C8081A2100FB01F645F2F041C0F2002100
:1048800001EB0010B54209D190E80E00C0688BE83A
:104890000E00CBF80C0007B0BDE8F08FD0E9009215
:1048A00045F2C051C0F200210192D0E90223A81BB9
:1048B00051F8307001EBC000446804A800903846FD
:1048C000214600F0D7F8019B824602A88846009056
:1048D000384621464A4600F0CDF881460191DDE98F
:1048E0000201002210EB0A0758EB010842F1000018
:1048F000012806D1DDE904010130049041F10000F6
:1049000005902846FFF741FF04463046FFF73DFF7C
:104910000199241A48463A464346009400F0C8F8E4
:104920006FF0030245F2906302EA9502C0F20023A1
:104930009A581E2303EA4503DA4002F00306801961
:10494000DDE9042341F10001CBE90001384641468D
:10495000009400F0ADF8CBE9020107B0BDE8F08F9C
:104960002DE9F04F87B08B464EF64F410546193082
:10497000C4F6C461A0FB0101C8081A2100FB01F6BE
:1049800045F2E861C0F2002101EB0010AE4209D10E
:1049900090E80E00C0688BE80E00CBF80C0007B062
:1049A000BDE8F08FD0E900A245F2C051C0F200216D
:1049B0000192D0E90223701B51F8307001EBC00066
:1049C000446804A800903846214600F053F8804619
:1049D00002A80090BAF1010201988946214660F1CF
:1049E0000003384600F046F804468A46DDE9020135
:1049F000002210EB080751EB090842F100000128E2
:104A000006D1DDE904010130049041F10000059078
:104A10003046FFF7BAFE06462846FFF7B6FE361ABE
:104A2000204651463A464346009600F041F86FF062
:104A3000030245F2D87302EA9502C0F200239A58A5
:104A40001E2303EA4503DA4002F003054019DDE9BD
:104A5000042341F10001013041F10001CBE90001E3
:104A600038464146009600F023F8CBE9020107B032
:104A7000BDE8F08FF0B5A2FB01CEA2FB0075A3FB51
:104A8000011415EB0C05DDF814C051EB0E06294698
:104A900044F100043246E3FB0012A3FB000340197B
:104AA00056EB030044F10000CCE900203846F0BD8D
:104AB00010B5DDF808C0CCF1400ECEF1200420FA8C
:104AC0000CF003FA0EF322FA04F42343DCF1200481
:104AD00058BF02FA04F302FA0EF201FA04F440EAB3
:104AE000040058BF0022BCF1200458BF21FA04F092
:104AF00021FA0CF158BF00211043194310BD0A469A
:104B0000002100F077B8D4D4844641EA000313F0C2
:104B1000030349D1403A23D30B6803604B684360D9
:104B20008B688360CB68C3600B6903614B69436129
:104B30008B698361CB69C3610B6A03624B6A436211
:104B40008B6A8362CB6AC3620B6B03634B6B4363F9
:104B50008B6B8363CB6BC36340304031403ADBD215
:104B600030320BD30B6803604B6843608B68836003
:104B7000CB68C36010301031103AF3D20C3205D339
:104B800051F8043B40F8043B043AF9D2043208D00F
:104B9000D2071CBF11F8013B00F8013B01D30B8881
:104BA00003806046704700BF082A13D38B07B1D03B
:104BB00010F00303AED0C3F10403D21ADB071CBF0D
:104BC00011F8013B00F8013BA4D331F8023B20F877
:104BD000023B9FE7043AD9D3013A11F8013B00F8B0
:104BE000013BF9D20B7803704B7843708B7883705C
:104BF0006046704770B4840746D0541E002A41D0E6
:104C0000CDB2034602E0621EE4B3144603F8015B32
:104C10009A07F8D1032C2ED9CDB245EA05250F2CE1
:104C200045EA054519D9264603F11002103E0F2E1C
:104C300042F8105C42F80C5C42F8085C42F8045CF4
:104C400002F11002F2D8A4F1100222F00F0204F0D7
:104C50000F041032032C13440DD91E462246121F96
:104C6000032A46F8045BFAD8221F22F00302121D21
:104C7000134404F003042CB1C9B21C4403F8011B13
:104C8000A342FBD170BC704714460346C2E7000044
:104C90000000000054545220524547474553000D30
:104CA0000A2A2A20525F4750545F496E666F476553
:104CB0007420415049206661696C6564202A2A0D80
:104CC0000A000D0A5468652045502064656D6F6EBA
:104CD00073747261746573207468652066756E63A1
:104CE00074696F6E616C697479206F6620475054E7
:104CF00020496E7075742063617074757265206DE3
:104D00006F64756C652E0D0A47505433206973200B
:104D10007573656420746F2067656E657261746574
:104D200020706572696F6469632070756C73657358
:104D3000206F66203530306D736563206475726155
:104D400074696F6E20616E640D0A70726F766964AB
:104D5000656420617320696E70757420746F2047DC
:104D6000505420496E70757420636170747572655B
:104D7000202847505435292E204750543520636F42
:104D8000756E747320746865206576656E740D0A9F
:104D900070756C7365207265636569766564206102
:104DA000742069747320696E7075742E204261736B
:104DB0006564206F6E2074686520706572696F6429
:104DC00020616E642063617074757265206576651C
:104DD0006E742C0D0A7468652074696D65207065A9
:104DE00072696F64206F662070756C7365206973DB
:104DF0002063616C63756C6174656420616E64200E
:104E0000646973706C61796564206F6E204A2D4C03
:104E1000696E6B20525454205669657765722E0D69
:104E20000A00312E3000252E30356600284E554CB4
:104E30004C2900696E66000D0A2A2A20525F4750ED
:104E4000545F436C6F736520415049206661696C03
:104E50006564202A2A0D0A000D0A52657475726E67
:104E60006564204572726F7220436F64653A20302A
:104E700078257820200D0A000D0A2A2A2A2A2A2AB3
:104E80002A2A2A2A2A2A2A2A2A2A2A2A2A2A2A2A82
:104E90002A2A2A2A2A2A2A2A2A2A2A2A2A2A2A2A72
:104EA0002A2A2A2A2A2A2A2A2A2A2A2A2A2A2A2A62
:104EB0002A2A2A2A2A2A2A2A2A2A2A2A0D0A2A2099
:104EC000202052656E6573617320465350204578EB
:104ED000616D706C652050726F6A65637420666FD7
:104EE0007220725F677074204D6F64756C6520204E
:104EF0002020202020202020202020202020202AA8
:104F00000D0A2A2020204578616D706C6520507252
:104F10006F6A6563742056657273696F6E202573BE
:104F20002020202020202020202020202020202081
:104F30002020202020202020202020202020202071
:104F400020202A0D0A2A202020466C657820536FE5
:104F5000667477617265205061636B205665727369
:104F6000696F6E2025642E25642E25642020202064
:104F70002020202020202020202020202020202031
:104F80002020202020202020202A0D0A2A2A2A2A18
:104F90002A2A2A2A2A2A2A2A2A2A2A2A2A2A2A2A71
:104FA0002A2A2A2A2A2A2A2A2A2A2A2A2A2A2A2A61
:104FB0002A2A2A2A2A2A2A2A2A2A2A2A2A2A2A2A51
:104FC0002A2A2A2A2A2A2A2A2A2A2A2A2A2A0D0A7E
:104FD000526566657220746F20726561646D652E1E
:104FE0007478742066696C6520666F72206D6F72CC
:104FF000652064657461696C73206F6E204578610B
:105000006D706C652050726F6A65637420616E64A8
:105010000D0A46535020557365722773204D616EFB
:1050200075616C20666F72206D6F726520696E66A7
:105030006F726D6174696F6E2061626F757420723A
:105040005F677074206472697665720D0A000D0ADC
:105050002A2A20525F4750545F5374617274204172
:105060005049206661696C6564202A2A0D0A005B3C
:105070004552525D20496E2046756E6374696F6EAD
:105080003A20257328292C202573005465726D69F8
:105090006E616C006770745F6465696E6974006846
:1050A000616C5F656E747279000D0A2A2A20525F66
:1050B0004750545F4F70656E2041504920666169CA
:1050C0006C6564202A2A0D0A000D0A50756C736500
:1050D000207769647468206D6561737572656D65AC
:1050E0006E742076616C756528696E207365636FD8
:1050F0006E6429202D2025730D0A006E616E000D4F
:105100000A2A2A20525F4750545F456E61626C65DF
:1051100020415049206661696C6564202A2A0D0A85
:1051200000286E756C6C29003031323334353637D7
:105130003839414243444546000000000001000068
:105140000004000000010000000400000000000056
:105150000000000000000000000000FFFFFFFFFF54
:1051600001DFDFDFDFDF00000000000000000000E3
:10517000000000000000000000000000000000002F
:10518000000000000000000000000000000000001F
:10519000000000000000000000000000000000808F
:1051A00005000000D10B0002000000003851000291
:1051B00001000000000000000000000000000000EE
:1051C00000000000000000000000000000000000DF
:1051D0000000FFFFFFFFFFFFDFDFDFDFDFDF00009B
:1051E00000000000000000000000000000000000BF
:1051F00000000000000000000000000000000000AF
:1052000000000000000000000000000080D1F00855
:1052100000000000C068780403FFDF000000000009
:1052200000000000B0510002000001000802000070
:105230000000010009020000000001000A02000055
:10524000000001000B020000000001030304000045
:1052500000000103000700000600000028520002C1
:1052600000000000B401AE01020403040404D4D41D
:105270000600000008000000030000000500000018
:105280000A000000000000680000006800000080C4
:10529000000000800000007000000070000000228C
:1052A000000000220B000000BC52000219000000A8
:1052B0004053000204000000845200020000006815
:1052C000000000680001000D000000680000006898
:1052D0000001000D000000800000008000010008B7
:1052E0000000008000000080000100080000007045
:1052F000000000700001000A000000700000007053
:105300000001000A0000000000000000010000058C
:105310000000002000000020010000040000002226
:10532000000000220000000330040022B80900221F
:1053300000000003B8090022B809002200000003A1
:105340000000006800000068000000900001090DE6
:1053500000000068000000680000007800010B0DEC
:105360000000006800000068000000270001020D36
:105370000000006800000068480000020001010D04
:10538000000000800000008000000090000109087B
:1053900000000080000000800000007800010B0881
:1053A00000000080000000800000002700010208CB
:1053B0000000008000000080480000020001010899
:1053C0000000007000000070000000900001090A59
:1053D00000000070000000700000007800010B0A5F
:1053E0000000007000000070000000270001020AA9
:1053F0000000007000000070480000020001010A77
:1054000000000000000000000000009001010905FC
:1054100000000000000000000000007801010B0502
:10542000000000000000000000000027010002054D
:10543000000000000000000048000002010001051B
:10544000000000200000002000000090010109047D
:1054500000000020000000200000007801010B0483
:1054600000000020000000200000002701000204CE
:10547000000000200000002048000002010001049C
:10548000000000220000002200000090000109033B
:1054900000000022000000220000007800010B0341
:1054A000000000220000002200000027000002038C
:1054B000000000220000002248000002000001035A
:1054C000B8090022B80900224800000200000103C8
:1054D00006000000080000000300000005000000B6
:1054E0000A00000001000200080010002000D4D4CF
:1054F000000000000000000000000000000000109C
:105500000000000000000000B9340332B7F4AD140D
:1055100010DB1AB30892540E0D307D951447BA1A59
:1055200066088F4D26ADC66DF598BF85E2B745116B
:10553000CA96853D92BD1DEBFCA11860DCEF5216AA
:105540003C92AE220BB8C1B4839D2D5B0562DA1C80
:10555000304C7E8F4E8BB25B16F4529F8B56A51249
:10556000FBD4827643ED8AF08FE7F931156519187F
:1055700050F19BD94A13EEB4284CF0A686C1251FE2
:10558000035FC270CB9E4916E642889C44EB201410
:10559000B0650836AD6EA58585F0CA14E2FD031A24
:1055A0000B899979D5B13D09D8DA973A35EBCF1007
:1055B000AC363F5E73BB38CF3E6752FA44AFBA1584
:1055C00001000000000000000500000000000000D5
:1055D00019000000000000007D0000000000000035
:1055E0007102000000000000350C00000000000007
:1055F000093D0000000000002D3101000000000006
:10560000E1F505000000000065CD1D000000000070
:10561000F902950000000000DD0EE9020000000024
:10562000514A8D0E000000009573C2480000000032
:10563000E941CC6B010000008D49FD1A0700000014
:10564000C16FF28623000000C52EBCA2B10000008D
:10565000D9E9AC2D780300003D9160E458110000B9
:1056600031D6E275BC560000F52E6E4DAEB101008C
:10567000C9EA268367780800ED95C28F055A2A008B
:10568000A1EDCCCE1BC2D30025A4000A8BCA2204F4
:10569000000000000000000000000000000000000A
:1056A00000000040955969595555545515555556A2
:1056B000040515411054554045515544404550444A
:1056C0005055554500400040400444966555565598
:1056D00045404554514115405591555555554051FA
:1056E00005010000D4D4D4D4010000000000000063
:1056F0000000000000000020345065C05FC9A652C1
:10570000BB13CBAEC440C21806C8DF7100D5A87C5D
:10571000F56F0FDA58FC27136E4756357D24206548
:1057200002C7E768E48CA41DE9E60268D7CD3961B9
:105730007977FCC2405BEF16798CDE43FFA751F905
:1057400091F3B278F5BDBE11E857E9D6E8BEE87B23
:10575000B054AC8F848D751BEA23A499E9F9D38BDF
:10576000B7A3714061DA3E15CEE33ECB73F948082A
:105770008C97B427D51B7010A2BFEFB9EB853215FB
:105780004DB44DB49BBB6F1996B6076CF8E7EEAD00
:1057900036D9B4F59135AE13222218AF4E6A684D52
:1057A00091DAAA3D4F40741E9FBD9EE006A1C098AD
:1057B00057C2A7FDA40E90170E7D497173E3208F89
:1057C000B220D87605143B12853D7434811343B062
:1057D000AD297A5F27F4351C5445545445550504CA
:1057E00000100410140440000000014055551541FC
:1057F0005404000044000100000000404100004447
:105800005044455054005555545565510040004092
:105810000100000100050100115451515455550576
:105820000015415000000440100104050000000074
:1058300000000406362E342E30004275696C742048
:10584000776974682052656E657361732041647670
:10585000616E63656420466C657869626C6520538F
:105860006F667477617265205061636B6167652054
:0E58700076657273696F6E20362E342E30000E
:0200000402C92F
:04F04000FFFFFFFFD0
:04F04400EFFFFFFFDC
:04F0C000FFFFFFFD52
:04F0C400FFFFFFFF4C
:04F1200000000000EB
:04F1240000000000E7
:04000005020022B122
:00000001FF
