:020000040200F8
:100000002005002211430002E141000221430002C9
:100010002143000221430002214300022143000248
:10002000000000000000000000000000214300026A
:10003000214300020000000021430002214300028E
:10004000912C0002612D0002112E0002C12E00022F
:10005000892F000251290002F12A000251300002CA
:1000600001310002B131000261320002113300029D
:10007000C13300029134000239350002E13500023B
:0C0080008936000231370002611E0002C8
:100090000000881004A033400A0E00220000000176
:1000A0000000081008A033400A12002200000001DE
:1000B0000000881018A033400A1E00220000000132
:1000C000000008101CA033400A220022000000019A
:1000D0000000881010A033400A1600220000000122
:1000E0000000081014A033400A1A0022000000018A
:1000F0000000881028A033400A26002200000001DA
:100100000000081034A033400A2A00220000000139
:100110000000085000000000000000000000400047
:100120000000085000000000000000000000400037
:100130000000085000000000000000000000400027
:100140000000085000000000000000000000400017
:100150002DE9F04381B000EB400040F24C53C2F275
:100160000023154603EBC003894603F11808D86A3B
:10017000022819D001280CD048B9D8F80C40D8F87A
:100180001000E143A04267D90844A8426AD2002681
:1001900089E0D8F80C40D8F81010A14233D9E043D8
:1001A0000144D8F8080033E0D8F80C40002621E0DC
:1001B000D8F8081010440844091B884250EA3180DE
:1001C0004946A84250EA3587D8F8040020443A4608
:1001D00004F038FA3819D8F80810411AA5EB0705C9
:1001E00050EA11843E44B944002DBFF35F8FC8F834
:1001F0000C4058D0D8F81000E243A042D8D910449F
:10020000D8F80810D8E7E243D8F8080011440144B0
:10021000A94251EA3586051BD8F804002044AE42B5
:1002200009D24946324604F00DFABFF35F8F301908
:10023000C8F80C0037E049462A4604F003FA771B59
:10024000D8F8040009EB05013A4604F0FBF9BFF3C6
:100250005F8FC8F80C7026E0D8F8082008441044D6
:10026000A84294D3D8E901010E1B2044B54209D21B
:1002700049462A4604F0E6F9BFF35F8F6019C8F8D3
:100280000C000FE04946324604F0DCF9AF1BD8F809
:10029000040009EB06013A4604F0D4F9BFF35F8F7E
:1002A000C8F80C702E46304601B0BDE8F083D4D4B7
:1002B000F0B581B040F24C550C46C2F200252B78C7
:1002C000532B37D00646A8212846174604F0B5F927
:1002D00003202861686145F2601040F2F451C0F2D9
:1002E0000020A861C2F20021E9614FF40061296297
:1002F0000021A9626962E96240F6F45228664FF073
:10030000100E44F61000C2F200226A66C5F868E0DA
:100310002967E9666967BFF35F8FC0F200200F307D
:1003200010F8011905F8011B0FF007C03A463046D6
:10033000BFF35F8FEFF311854FF0200181F3118838
:100340002146FFF705FF85F3118801B0F0BDD4D435
:100350002DE9F04F9BB092460F464FF000090490F4
:100360001A900DF1580B002006A916914021179103
:10037000CDE918990EE0011DCAF800100168CDE919
:1003800000385846234600F01BFA1998B0F1FF3F99
:1003900040F3128217F8011B25291DD0002900F017
:1003A000FB81DDE91720431C934207D8169A1154AC
:1003B00018931998179A0130199018469042E4D171
:1003C00016991A98FFF774FF1899884240F0DF8158
:1003D000CDF86090D9E700BF4FF000083978A1F15F
:1003E00023030D2B18D80222DFE803F00E16161691
:1003F0001616161610161216160748EA02080137C6
:10040000ECE700BF00BF00BF0822F6E70422F4E7D4
:100410000122F2E700BF00BFA1F13A02002312F16E
:100420000A0F0FD30A4600BF17F8011F03EB83031F
:10043000A1F13A0602EB430216F10B0FA2F13003D1
:100440000A46F1D82E290FD13A4612F8016F2A2E0A
:100450000DD1DAF8001002370A1DCAF800200C6826
:1004600001211DE000BF00BF0021002418E0A6F11B
:100470003A0717F10A0F02D2002100240FE00024EE
:1004800012F8011F04EB8407A1F13A0506EB4707B8
:1004900015F10B0FA7F130040E46F1D801211746D4
:1004A00017F8012B02F0FB06682EF9D0A2F15806CE
:1004B000202E26D8DFE806F01211111111111111AA
:1004C000111111163C1111111111111111111111EC
:1004D0006C11117911381111120056E7DAF8000089
:1004E000102248E7DDE91720411CDAF8003091427C
:1004F00003F10406CAF800603FF660AF169A1B6865
:100500000AE0252A7FF441AFDDE91720411C914222
:100510003FF654AF169A2523135418911998179A39
:1005200001301990084649E7DAF800000A2222E76C
:10053000DAF800104CF6CD4C0A1DCAF800200A6803
:1005400005925142002A48BF0A460A2ACCF6CC4CF2
:1005500003914FF0010107DBA2FB0C56632A01F166
:1005600001014FEAD602F7D88C4254EA81895E46EF
:10057000002B58D0059908F0040200295FEA5F912A
:1005800041EA9201A3EB010B5FEA887550D473E056
:10059000DAF800001022011DCAF8001001680823D3
:1005A0000820CDE900095846EDE6DAF80020131DD1
:1005B000CAF80030126844F6DB43002AC0F2002378
:1005C00052EA13865FEA01880BE000BF00BF00BF5C
:1005D0001998CDF86090B0F1FF3FA4F101047FF7C6
:1005E000D4AE16F8011B002C5FEA188200293FF4F4
:1005F000CCAE002A7FF4C9AEDDE917235D1C95421D
:1006000007D81698C1542B461998179A0130189597
:1006100019909342DFD116991A98FFF749FE18995D
:100620008842D5D0B3E04FF0000B5FEA887523D540
:1006300014BB002800F1A7800598B0F1FF3F47DD0B
:100640005FEA487064D5DDE91720411C914208D863
:10065000169A2B23135418911998179A0130199050
:100660000846904254D116991A98FFF721FE18991E
:100670008842059944D08AE05FEAC871D9D1BBF1BC
:10068000000FD6D0029502E00028AB467BD4ABF138
:1006900001055D4538BFD94536D2DDE917214B1C30
:1006A000934208D816982022425419461998179A4E
:1006B0000130189319909142E6D116991A98FFF7D4
:1006C000F7FD1899884262D1002018901998DBE74D
:1006D000DDE91720411C914208D8169A2D231354A6
:1006E00018911998179A01301990084690420DD127
:1006F00016991A98FFF7DCFD18998842039946D19C
:1007000000201890059103E0029D92E70398059060
:100710001998002850D4002D0BD40A223046059990
:100720002346CDE900B8B34600F04AF84FF000097F
:100730002BE608F001012143EFD1BBF1000FECD013
:10074000ABF101055D4538BFD945E6D2DDE917219A
:100750004B1C934208D816983022425419461998D7
:10076000179A013018931990914209D116991A9845
:10077000FFF79EFD1899884209D10020189019981A
:100780000028AB46DCD54FF00009B346FDE54FF03D
:10079000FF301BB0BDE8F08F40B1189A52B106A9E6
:1007A0000498FFF785FDDDE9181004E000201BB078
:1007B000BDE8F08F002108441BB0BDE8F08FD4D411
:1007C0002DE9F04F81B015468B4691421F460446F5
:1007D000DDF828904FF0010007D3594600BF00BF55
:1007E000B1FBF5F10130A942FAD2874257EA80887D
:1007F000B9F1000F0B9938D011F0010035D18807FD
:100800004FF0200048BF30202021002F50EA018601
:100810004FF0000A06E000BFE068A9F10109B0F15D
:10082000FF3F22DDB9F1000F1FD0C8451DD2D4E92A
:100830000120411C914207D822681654A160E0684B
:1008400062680130E06008469042E5D12168206985
:10085000FFF72EFDA168884202D1C4F808A0DBE7AB
:100860004FF0FF30E060A9F10109E068002842D4B0
:10087000012603E000BF00BF013F6E43022FFBD201
:10088000BBFBF6F1A942F8D245F26B47A268C0F271
:10089000002700BF00BF00BF6168531CBBFBF6FA16
:1008A0008B4209D8206817F80A1081541A46E0686C
:1008B00061680130A360E0608A4209D12168206943
:1008C000FFF7F6FCA26890420CD10022E068A2601B
:1008D00000280AD4B6FBF5F10AFB16BBB5420E465A
:1008E000DAD902E04FF0FF30E0600B99C90718BF7A
:1008F000B9F1000F02D101B0BDE8F08F2025A9F1B8
:1009000001064E4538BFC845F5D26168531C8B427D
:1009100007D8206885541A46E06861680130A360F2
:10092000E0608A4209D121682069FFF7C1FCA16813
:10093000884207D10022E068A260B0F1FF3FB146D3
:10094000DDDCD8E74FF0FF30E06001B0BDE8F08FAC
:1009500082B080B582B0CDE9042304AA019201AA35
:10096000FFF7F6FC02B0BDE8804002B07047D4D477
:1009700010B501F019FC002808BF10BD45F21201A6
:1009800044F6091245F26103C0F20021C0F20022D0
:10099000C0F2002304460020FFF7DAFF204610BD16
:1009A000B0B582B001F01CFD70B145F2120144F601
:1009B000735244F62103C0F20021C0F20022C0F2BB
:1009C00000230020FFF7C4FF42F660600021C2F25E
:1009D000002001F0D5FE68B145F2120145F2123255
:1009E00044F65B130446C0F20021C0F20022C0F2BC
:1009F00000231FE042F660640DF10705C2F20024F7
:100A00002046294601F0A8FE38B99DF8070008B134
:100A10002FF00BC0002002B0B0BD45F2120145F22C
:100A2000123244F616130446C0F20021C0F200222E
:100A3000C0F200230020FFF78BFF45F2120144F6BD
:100A4000735244F68653C0F20021C0F20022C0F275
:100A500000230020FFF77CFF204602B0B0BDD4D4B5
:100A600080B501F0F5FE002808BF80BD45F21201F7
:100A700045F2033245F2F113C0F20021C0F2002228
:100A8000C0F200230020BDE88040FFF761BFD4D44E
:100A900010B501F055FE002808BF10BD45F2120147
:100AA00045F2EF3244F69B03C0F20021C0F200226F
:100AB000C0F2002304460020FFF74AFF204610BD85
:100AC0008178072918BF032900D17047002940F613
:100AD0000861C2F200211CD1008BC2070BD1820732
:100AE0000ED4420711D4000740F60760C2F200207E
:100AF00051EA50810DE040F60461C2F2002108E0A5
:100B000040F60561C2F2002103E040F60661C2F240
:100B1000002101200870704710B501F069FA002823
:100B200008BF10BD45F2120144F6420244F63B13E1
:100B3000C0F20021C0F20022C0F2002304460020CF
:100B4000FFF706FF204610BD10B501F0BDFA0028E2
:100B500008BF10BD45F2120145F25A2245F2283372
:100B6000C0F20021C0F20022C0F20023044600209F
:100B7000FFF7EEFE204610BD10B501F0EDFA00289B
:100B800008BF10BD45F2120144F6952245F2BA2382
:100B9000C0F20021C0F20022C0F20023044600206F
:100BA000FFF7D6FE204610BD80B501F0E5FA00281B
:100BB00008BF80BD45F2120144F6DE1244F64F0331
:100BC000C0F20021C0F20022C0F200230020BDE8E4
:100BD0008040FFF7BDBED4D410B501F0B1F90028B4
:100BE00008BF10BD45F2120145F2D82245F23E235E
:100BF000C0F20021C0F20022C0F20023044600200F
:100C0000FFF7A6FE204610BD10B501F0E9F9002857
:100C100008BF10BD45F2120145F27F0245F2E523FF
:100C2000C0F20021C0F20022C0F2002304460020DE
:100C3000FFF78EFE204610BD80B501F0C5F90028F3
:100C400008BF80BD45F2120145F2102245F28A0329
:100C5000C0F20021C0F20022C0F200230020BDE853
:100C60008040FFF775BED4D410B500F059FD0028C0
:100C700008BF10BD45F2120144F6ED1244F60253CE
:100C8000C0F20021C0F20022C0F20023044600207E
:100C9000FFF75EFE204610BD80B501F031F8002858
:100CA00008BF80BD45F2120145F2A70245F2691363
:100CB000C0F20021C0F20022C0F200230020BDE8F3
:100CC0008040FFF745BED4D410B501F011F80028DC
:100CD00008BF10BD45F2120145F2B63245F2FE33AF
:100CE000C0F20021C0F20022C0F20023044600201E
:100CF000FFF72EFE204610BD84B00020039003A80D
:100D000003F022FA9DF80F3044F6A02144F6571262
:100D10009DF80D709DF80E60C0F20021C0F2002217
:100D20000020CDE90067FFF713FE44F6296100209B
:100D3000C0F20021FFF70CFE42F6106045F27C4144
:100D4000C2F20020C0F20021FFF746FFC0B145F219
:100D5000120144F6E24245F21B430446C0F2002170
:100D6000C0F20022C0F200230020FFF7F1FD45F29F
:100D70001F210020C0F200212246FFF7E9FD00BE3E
:100D800042F6386045F2EC41C2F20020C0F2002188
:100D9000FFF7C2FEB0B1044642F61060C2F2002076
:100DA000FFF74AFF44F6F7510020C0F20021FFF799
:100DB000CFFD45F21F210020C0F200212246FFF79F
:100DC000C7FD00BE40F2500442F63860C2F2002473
:100DD000C2F200202146FFF7B7FEE0B1054642F619
:100DE0001060C2F20020FFF727FF42F63860C2F21F
:100DF0000020FFF7D9FE44F61E510020C0F200216A
:100E0000FFF7A6FD45F21F210020C0F200212A466F
:100E1000FFF79EFD00BE42F6306045F2E041C2F2AF
:100E20000020C0F20021FFF777FEE0B1054642F650
:100E30001060C2F20020FFF7FFFE42F63860C2F2F7
:100E40000020FFF7B1FE45F24B310020C0F2002137
:100E5000FFF77EFD45F21F210020C0F200212A4647
:100E6000FFF776FD00BE42F6306040F29001C2F21C
:100E70000020C2F20021FFF767FE10B3064642F6DB
:100E80001060C2F20020FFF7D7FE42F63860C2F2CF
:100E90000020FFF789FE42F63060C2F20020FFF723
:100EA00083FE45F286110020C0F20021FFF750FDBD
:100EB00045F21F210020C0F200213246FFF748FD15
:100EC00000BE42F6286045F2D441C2F20020C0F2D2
:100ED0000021FFF721FE10B3064642F61060C2F271
:100EE0000020FFF7A9FE42F63860C2F20020FFF7AB
:100EF0005BFE42F63060C2F20020FFF755FE45F27D
:100F0000BF110020C0F20021FFF722FD45F21F2192
:100F10000020C0F200213246FFF71AFD00BE42F663
:100F2000286004F12001C2F20020FFF70DFE40B35B
:100F3000064642F61060C2F20020FFF77DFE42F640
:100F40003860C2F20020FFF72FFE42F63060C2F296
:100F50000020FFF729FE42F62860C2F20020FFF7CA
:100F600023FE44F629210020C0F20021FFF7F0FC07
:100F700045F21F210020C0F200213246FFF7E8FCB5
:100F800000BE42F6206045F2C841C2F20020C0F225
:100F90000021FFF7C1FD40B3064642F61060C2F2E1
:100FA0000020FFF749FE42F63860C2F20020FFF74A
:100FB000FBFD42F63060C2F20020FFF7F5FD42F67D
:100FC0002860C2F20020FFF7EFFD45F23941002012
:100FD000C0F20021FFF7BCFC45F21F210020C0F247
:100FE00000213246FFF7B4FC00BE40F2900042F60A
:100FF0002065C2F20020C2F2002500F1200128463F
:10100000FFF7A2FD45F27D310422C0F2002100F07D
:10101000A7F942F6606645F61001C2F20026C0F25A
:1010200000213046FFF7A4FC45F2C6310422C0F28D
:10103000002100F095F945F2CC613046C0F2002164
:10104000FFF7AEFC44F680110522C0F2002100F04B
:1010500087F942F6406745F26C51C2F20027C0F2B0
:1010600000213846FFF700FE44F6DF010622C0F2F9
:10107000002100F075F942F61060C2F20020FFF77F
:10108000C3FD44F657510922C0F2002100F068F96F
:1010900042F63860C2F20020FFF76EFD45F22D11D6
:1010A0000922C0F2002100F05BF942F63060C2F282
:1010B0000020FFF761FD44F662210922C0F2002101
:1010C00000F04EF942F62860C2F20020FFF754FD0E
:1010D00044F6A8410922C0F2002100F041F9284657
:1010E000FFF74AFD45F22E010922C0F2002100F06F
:1010F00037F944F6BE010020C0F20021FFF728FCBA
:101100003046FFF7C5FC44F6AB510922C0F200217E
:1011100000F026F93846FFF7D7FD44F6D6510922EC
:10112000C0F2002100F01CF945F2B6010020C0F227
:101130000021FFF70DFC40F6056340F6066140F61E
:10114000076240F6046B42F60A6640F60A6AC2F28B
:101150000023C2F20021C2F20022C2F2002BC2F22E
:101160000026C2F2002A4FF4807789461546984639
:1011700022E000BF00BF00BF307800285FEA1F9068
:1011800030700AEB4020A06000F58060A06142F65C
:101190003860E781C2F20020E783FFF7EDFC44F6F8
:1011A000E3710922C0F2002100F0DAF843462A4632
:1011B000494600208BF800009BF800000128DBD096
:1011C000187801282CD142F60B6140F29002C2F24D
:1011D0000021C2F20022087800285FEA1F90087000
:1011E0000AEB402000F50061916000F540609061DD
:1011F00042F63060D781C2F20020D783FFF7BCFCF3
:1012000044F66C010922C0F2002100F0A9F843461F
:101210002A464946002088F80000CDE700BF00BFFD
:101220000878012826D142F60C61C2F20021087824
:1012300000285FEA1F9008700AEB402000F58051FB
:10124000A16200F5A050A06342F62860E785C2F2D3
:101250000020E787FFF790FC44F6FA110922C0F25C
:10126000002100F07DF843462A464946002089F8CF
:101270000000A1E71078012829D142F60D6140F263
:101280009002C2F20021C2F20022087800285FEA30
:101290001F9008700AEB402000F5C051916200F5E4
:1012A000E050906342F62060D785C2F20020D787D5
:1012B000FFF762FC44F6AF110922C0F2002100F0F2
:1012C0004FF843462A4649460020287074E740F606
:1012D0000860C2F20020007801287FF46DAF42F66A
:1012E0001060C2F20020FFF7A7FC42F66060C2F275
:1012F0000020FFF7B5FB42F64060C2F20020FFF786
:10130000CBFC42F63860C2F20020FFF74DFC42F6FB
:101310003060C2F20020FFF747FC42F62860C2F2BC
:101320000020FFF741FC42F62060C2F20020FFF7E8
:101330003BFC45F26E210020C0F20021FFF708FBC4
:1013400045F21F2100201222C0F20021FFF700FB0E
:1013500043462A46494600BE2EE7D4D4D4D4D4D43A
:10136000002808BF7047B0B50446092A00F2CB80B8
:10137000DFE802F03D452B7D95050551C99D42F6FC
:1013800010600D46C2F20020FFF756FC42F63860AE
:10139000C2F20020FFF708FC42F63060C2F20020E3
:1013A000FFF702FC42F62860C2F20020FFF7FCFBC8
:1013B00042F62060C2F20020FFF7F6FB42F66060C2
:1013C000C2F20020FFF74CFB9CE042F610600D4695
:1013D000C2F20020FFF730FC42F63860C2F2002073
:1013E000FFF7E2FB42F63060C2F2002088E042F6EE
:1013F00010600D46C2F20020FFF71EFC82E042F6AC
:1014000010600D46C2F20020FFF716FC42F638606D
:10141000C2F2002074E042F610600D46C2F20020D5
:10142000FFF70AFC42F63860C2F20020FFF7BCFB6F
:1014300042F63060C2F20020FFF7B6FB42F62860A9
:10144000C2F20020FFF7B0FB42F62060C2F200209B
:10145000FFF7AAFB42F66060C2F20020FFF700FB34
:1014600042F64060C2F20020FFF716FC4AE042F666
:1014700010600D46C2F20020FFF7DEFB42F6386036
:10148000C2F20020FFF790FB42F63060C2F200206B
:10149000FFF78AFB42F62860C2F2002030E042F6F5
:1014A00010600D46C2F20020FFF7C6FB12E042F6C4
:1014B00010600D46C2F20020FFF7BEFB42F66060EE
:1014C000C2F20020FFF7CCFA42F64060C2F20020E0
:1014D000FFF7E2FB42F63860C2F20020FFF764FB40
:1014E00042F63060C2F20020FFF75EFB42F6286051
:1014F000C2F20020FFF758FB42F62060C2F2002043
:10150000FFF752FB29460020FFF722FA45F21F2180
:101510000020C0F200212246FFF71AFA00BEB0BD3B
:10152000022818BF704742F6186045F63851C2F2DB
:101530000020C0F2002100F00BB8D4D4D4D4D4D40D
:1015400080B5FFF7D9FB002080BDD4D4D4D4D4D447
:1015500080B545F25422C5F24F020260084600F001
:1015600003F8002080BDD4D470B5044600F064F8C0
:1015700042F6E06CEFF31081C2F2002C012080F300
:101580001088DCF8000038B940F614500022C4F28C
:101590004000027040220270DCF800000130CCF8FC
:1015A000000081F31088208830B340F6000E00213F
:1015B000C4F2400E08E000BF0EEB8010013140F88D
:1015C00022302088814217D2606800EBC10250F8B7
:1015D00031309288D8034FEA1220D2B2ECD50EEB0C
:1015E000801555F8226026F4803645F8226023F4F1
:1015F000803645F82260DFE70120EFF3108180F3A9
:101600001088DCF8000020B1DCF800000138CCF8CC
:101610000000DCF8000010B181F3108870BD40F6C6
:1016200014500022C4F2400002708022027081F344
:10163000108870BDD4D4D4D42DE9F04F81B00446C5
:101640000088002867D04EF64C4B0025C4F2010BF1
:101650004FF0010A04E000BF2088013585425AD2CC
:1016600045F66A5642F240080027C0F20026C4F24E
:1016700020080CE000BF00BF88F80000C82001214E
:1016800002F06AFD013708F10208032FE4D0606818
:1016900036F8021B00EBC50082888A42F2D100684E
:1016A0009BF8001000F0B8500AFA07F9B0F1807FFB
:1016B00009EA010018D158B9012002F001FE9BF897
:1016C000000040EA09008BF80000012002F0CCFD88
:1016D00098F900000028D5D498F8000040F0800068
:1016E000CAE700BF00BF00BF58B1012002F0E8FD0B
:1016F0009BF8000020EA09008BF80000012002F0AE
:10170000B3FD98F90000B0F1FF3FBBDC98F8000092
:1017100000F07F00B0E701B0BDE8F08FD4D4D4D49E
:101720002DE9F04381B00D46097C04464FF00008D6
:101730000D295FEA9F92027401202A7C00FA01F1D0
:10174000E16042F20001C4F23201656001EB022166
:10175000A16069696161A969E161C4F81880EE69F5
:10176000EFF3108780F31088287C4FF00049011FA9
:1017700029FA00F006296FF0006151EA30A043F227
:101780001001C4F220010A681040086008681E2099
:10179000012102F0E1FC87F31088207B00070FD0C5
:1017A00044F202020120EFF3108180F31088C4F2AA
:1017B0003202A089138823EA0000108081F3108888
:1017C000A0684FF425410160A068C0F82C80A06893
:1017D000C0F83C80A068C0F84880297A2A786868F8
:1017E000CB05032A08BF03F58033A768042A4FEA14
:1017F000024228BF42EAC153FB62A168C1F81090BF
:10180000A168C1F81490A168C1F81890A168C1F846
:101810002480A168C1F82880A168B269CA61A16862
:10182000F2690A62A16838BF01388866A168486613
:101830002878D6F85090012806D040B968684FF053
:10184000FF3202EB500010E04FF0FF3032E0D4E9FD
:101850000123E8689F6E1278042A57EA279738B167
:10186000B84205D2042A38BF01384FF0000821E001
:10187000B8425FEA3F9C0028586B5FEA1F9310F064
:10188000100F00F00C005FEA1F9704285FEA1F901A
:10189000032A57EA808040F2000800285CEA13809F
:1018A000C0F2033800284FF0FF301CBF40F20008A0
:1018B000C0F20228A2685065A26890652A78042ABE
:1018C00003D3A268D065A2681066306D98BB3078EB
:1018D000012814D12A787078022A01D1092206E061
:1018E00001D9032203E00922002808BF06220301D0
:1018F00043EA8010104440EA090040F48079B0784F
:10190000012818D12A78F078022A02D14FF4102247
:1019100009E002D94FF4403205E04FF410220028CC
:1019200008BF4FF4C022030543EA8050104440EA48
:10193000090040F0807960684FF0060E0023C0690E
:10194000F64600F1300205E001330432BEF1010E2B
:1019500000D112E090F84870DF40FF07F4D01F4636
:10196000042B08BF0327032B08BF0427A16801EB42
:1019700087011768013FCF64E6E7287C0D2802D86D
:10198000A06800214164D6F84CE0BEF1000F0ED0F3
:101990009EF802109EF803202B7C09060D2B41EACD
:1019A00002723CD8DEF8081059B101230EE0A1689C
:1019B00000228A63A168C1F88820316D002943D1D3
:1019C0003AE0DEF80C1000295FEA0F93A168C1F835
:1019D0008830A168DEF80830C1F88C30297C0D29E8
:1019E0001DD8A168DEF80C30C1F890309EF818C000
:1019F0009EF819309EF81A70A1681B0243EA8C13F6
:101A000043EA07334B64A1689EF80430DEF8107097
:101A10000F67A16842EA0342DEF81430CB67A16881
:101A20008A63316D81B99EF81B109EF81C20490213
:101A300041EA426149EA010996F8201096F821200E
:101A400049EA413141EA427996F84810A2680029F2
:101A50004FF4A00108BF4FF4AA01116429780129AD
:101A600004D1A1680022CA64A1680A65A16842F68F
:101A7000E46CC2F2002CC1F8349096F8541096F839
:101A80005520A3685201DF6A42EA011148F00302BF
:101A90003943D962A1680A6348F00102A1680A6368
:101AA000D4E90212CA604EF2001195F912704CF29C
:101AB0000032CEF20001C4F20002002F1BD46D7C74
:101AC000CB1901202D0183F800534CF8274052F820
:101AD000273023F4803342F8273052F827307B092F
:101AE00007F01F07BFF35F8F01EB8305B840C5F810
:101AF000800141F8230096F92870002F1DD496F834
:101B00002200CB1907F01F05000183F800034CF8F1
:101B1000274052F8270020F4803042F8270052F87E
:101B2000270078090127BFF35F8F01EB800307FAD5
:101B300005F5C3F8805141F8205096F92970002F1F
:101B40001DD496F82300CB1907F01F05000183F878
:101B500000034CF8274052F8270020F4803042F868
:101B6000270052F8270078090127BFF35F8F01EBA8
:101B7000800307FA05F5C3F8805141F8205096F923
:101B80002A70002F1DD496F82400CB1907F01F05EA
:101B9000000183F800034CF8274052F8270020F496
:101BA000803042F8270052F8270078090127BFF358
:101BB0005F8F01EB800307FA05F5C3F8805141F808
:101BC000205096F92B70002F1DD496F82500CB19C4
:101BD00007F01F05000183F800034CF8274052F876
:101BE000270020F4803042F8270052F827007809B7
:101BF0000127BFF35F8F01EB800307FA05F5C3F8F8
:101C0000805141F8205096F92C70002F1DD496F881
:101C10002600CB1907F01F05000183F800034CF8DC
:101C2000274052F8270020F4803042F8270052F86D
:101C3000270078090127BFF35F8F01EB800307FAC4
:101C400005F5C3F8805141F8205096F92D70002F0A
:101C50001DD496F82700CB1907F01F0501260001B7
:101C600083F800034CF8274006FA05F552F82700E0
:101C700020F4803042F8270052F827007809BFF39B
:101C80005F8F01EB8003C3F8805141F82050BEF113
:101C9000000F21D09EF90170002F1DD49EF8000086
:101CA000CB19000183F800034CF8274007F01F030D
:101CB00052F8270020F4803042F8270052F827001D
:101CC00078090127BFF35F8F01EB800207FA03F366
:101CD000C2F8803141F8203045F254010020C0F2B2
:101CE0004701216001B0BDE8F083D4D4D4D4D4D46A
:101CF000D0E9021200204A607047D4D4D4D4D4D49E
:101D0000B0B543684EF2801E42F6E46CCEF2000E8F
:101D100093F91210DB69C2F2002C00290ED44A0993
:101D200001F01F04012505FA04F44EF82240BFF328
:101D30004F8FBFF36F8F00224CF8212093F92810AA
:101D400000290ED44A0901F01F04012505FA04F404
:101D50004EF82240BFF34F8FBFF36F8F00224CF835
:101D6000212093F9291000290ED44A0901F01F04FB
:101D7000012505FA04F44EF82240BFF34F8FBFF35C
:101D80006F8F00224CF8212093F92A1000290ED4DD
:101D90004A0901F01F04012505FA04F44EF8224017
:101DA000BFF34F8FBFF36F8F00224CF8212093F9C0
:101DB0002B1000290ED44A0901F01F04012505FA51
:101DC00004F44EF82240BFF34F8FBFF36F8F002211
:101DD0004CF8212093F92C1000290ED44A0901F067
:101DE0001F04012505FA04F44EF82240BFF34F8F7B
:101DF000BFF36F8F00224CF8212093F92D1000299A
:101E00000ED44A0901F01F04012505FA04F44EF826
:101E10002240BFF34F8FBFF36F8F00224CF8212079
:101E2000D96C91B191F9011000290ED44A0901F041
:101E30001F03012404FA03F34EF82230BFF34F8F3F
:101E4000BFF36F8F00224CF82120D0E9021200234B
:101E500003608A60816800204B63B0BDD4D4D4D4C1
:101E6000042000F001B8D4D4B0B584B04FF0704273
:101E7000EFF3038102EB01634CF200359A15C4F2D3
:101E8000000542F6E46105285459C2F2002124F409
:101E90008034545154598C5805D86268D16991F8EE
:101EA000481089071BD04FF0000E6369ABB1A169E0
:101EB00031B1D1E900C58A680392CDE901C500E0DE
:101EC00001A90871E06908600846C1F808E0984770
:101ED000A06910B101AB0ECB0EC004B0B0BDD4F8F8
:101EE00008C00CEB80010338D1F83CE011780129DF
:101EF000DBD14FF00041CCF81010A2681B165161E5
:101F0000A26891610022A1684A62A1688A625A09A6
:101F100055F8231021F4803145F8231055F823108B
:101F20004EF28025CEF20005BFF35F8F03F01F0154
:101F3000012303FA01F145F82210B6E7D4D4D4D432
:101F4000F0B581B043F20802EFF31087C4F220022B
:101F5000012686F31088044613680D4623F4804357
:101F600013601E200121126802F0F6F887F3108832
:101F70004FF0210EF64641F220004FF2FF02002101
:101F8000C4F22000CCF6FB720AE000BF00BF00BF25
:101F900056EA4F0104300235BEF1010E00D108E0CF
:101FA00001F0010306EA02073B43F1D02B880380CE
:101FB000EEE744F643410020C0F24501216001B044
:101FC000F0BDD4D4D4D4D4D441F200030146C4F239
:101FD0002003002000220A601A707047D4D4D4D4A1
:101FE00041F200010020C4F2200180220A707047F3
:101FF0002DE9F04142F6886240F20008C2F2002268
:102000000E460446C2F20028137803BB43F20000D8
:102010000127C4F220001770EFF3108587F31088B2
:10202000016821F48001016000681E20012102F096
:1020300093F885F310884C21404602F0FEFA4AF6E8
:102040001040C4F20000C0F8048000F8047C7068FE
:1020500090F90010002933D458F8210000281CBF43
:102060000820BDE8F0813068217108B300F10E014D
:1020700007E000BF00BF00BF12F4400F01F11001E4
:102080000AD051F80E2CB2F1804FF5D30B88DFB295
:1020900047EA03230B80EFE74AF610410822C4F217
:1020A00000010A7094F9042048F8220018200870F2
:1020B00044F20030C4F2544020600020BDE8F081BA
:1020C0000B20BDE8F081D4D4B0B590F904204CF2D7
:1020D000003CC4F2000C4AF6104EC4F2000E5CF84C
:1020E000223023F080734CF8223090F9042042F41F
:1020F000004200BF00BF00BF3EF8023C9A42FBD046
:1021000001F10E0205E000BF13F4400F02F11002CE
:102110000AD052F80E3CB3F1804FF5D31488E5B2E3
:1021200045EA04241480EFE708228EF8002090F995
:10213000042040F20003C2F2002343F822101821C9
:102140008EF8001090F9041000205CF8212042F075
:1021500080724CF82120B0BD90F904104CF200328E
:10216000C4F20002002052F8213043F0807342F89C
:1021700021307047D4D4D4D4014690F904204CF2D5
:10218000003040F2000CC4F20000C2F2002C50F803
:10219000223023F0807340F82230002000234CF8D6
:1021A00022300B607047D4D42DE9F041804643F2D1
:1021B0000C0401F10C05C4F220040161002625CDB8
:1021C000C8F81400C8F81C20C8F8186088F8006027
:1021D0000120EFF3108780F310880121206820F49C
:1021E0000010206020681E2001F0B6FF87F31088E1
:1021F000E86900F0030001280FD10120EFF31087F8
:1022000080F310880121606820F000406060606801
:102210001E2001F0A1FF87F3108848F20001286A10
:10222000C4F23301C8600E60486808B12FF005C0E1
:10223000E86988600120086048680128FCD12846C8
:102240004FF0020E00240F2350F8242F0A64F646A4
:102250000722002607E003FA07F73E430124BEF1F8
:10226000010E00D10CE0075D17F00C0FF6D107F05E
:102270000307012F4FEAC407EDD002FA07F7ECE796
:102280004E644FF0080ED5F89C00C1F8600295F836
:10229000900001F5587201F5607301F5697600F060
:1022A0000700C1F8800295F89000C0F30210C1F851
:1022B0008C02D5F89400C1F88802D5F89800C1F8CE
:1022C00094026869C1F84003A869C1F84403686EC4
:1022D000C1F86402A86EC1F8B00205F1E40000BFC5
:1022E00050F8447C42F8047B50F8247C43F8047B8B
:1022F00050F8047B46F8047B0FF00FC048F204420C
:10230000D5F8E000C4F23302C1F8A0030020C1F800
:10231000000410605060906042F6E46C288F1C232B
:10232000C2F8BC00C2F2002C688F4FF0010EC2F858
:10233000C000E86BC2F8C400286CC2F8C800686C22
:10234000C2F8CC00A86CC2F8D000E86CC2F8D40087
:1023500048F6F04040F2FF12C4F233004CF2003570
:10236000C4F200050260D8F8100042694EF2001075
:10237000CEF20000D26E03E0013B02F1010220D058
:1023800092F91C70002FF7D41678C419360184F81E
:1023900000634CF8278055F8274024F4803445F832
:1023A000274055F827407C0907F01F07BFF35F8FD0
:1023B00000EB84060EFA07F7C6F8807140F8247027
:1023C000DAE74FF44030886244F2483300200322B9
:1023D0000A62C4F244134A62C8F82430BDE8F081AE
:1023E0002DE9F04F89B08446D1A08B460021DCF85E
:1023F00010208CF8001090ED001F2121506980EF13
:10240000502021F001E000BFA0FD103E1FF005C0EC
:1024100048F240274FF60C61C4F23307CFF6FF7144
:10242000C26A7A504FF61062CFF6FF72016BB95054
:102430004FF61461CFF6FF71426B7A5047F63F6258
:10244000016D47F8801C416D47F87C1C816D47F891
:10245000781CCBF6CC72C16D47F8741C8118026EE3
:10246000102900F1700047F8702C0CD24FF0080EC4
:10247000394600BF00BF00BF50F8042B41F8042BC1
:102480000FF007C00AE04FF0020E394600BF00BF50
:10249000B0EC041FA1EC101E0FF007C09BF80090D9
:1024A0000025CCE90155B9F1000F00F0ED8048F2AC
:1024B000046445F20008C4F23304C4F22308002285
:1024C0004FF0010E0026CDE900BC18E000BF00BFB0
:1024D000DDF800B04FF0010EDDF804C09BF800906D
:1024E000059E0798049A069D0643DDE90210013215
:1024F00001FA00F04A4545EA000580F0C880DBF8A3
:1025000004100492CDE9056551F822A09AF806203E
:102510009AF805109AF800509AF80400029041EADF
:1025200002030EFA05F01B0680B207900CD1DAF810
:10253000080043F20C060028C4F2200600F09C803C
:10254000002206E000BF00BF43F20C06D2B2C4F284
:102550002006079BDCF804001843CCF804004FF673
:10256000806307EB0510CFF6FF730395C1504FF65C
:102570008461CFF6FF7107EB85034FF68865425003
:102580009AF80310CFF6FF75DAF8082000294251B7
:10259000DAF8100043F8400CA2D04FF0000B07E02F
:1025A000C7F8E0E09AF803000BF1010B83458FD2E6
:1025B000DAF8180050F82B00017843680D0107EB9A
:1025C000011204EB0111C2F8C03382686251C26883
:1025D0004A6002698A604068C0F306206528DFD03F
:1025E0006428DFD198F900000028DBD4EFF31085D0
:1025F0008EF310883068012120F48000306030684C
:102600001E20F14601F0A8FD4EF6E02085F310886B
:10261000C4F2010010F8040C00071BD44EF2FA318A
:102620004EF6E022C4F20101C4F201024AF2205047
:102630000880107800F0FE00107012F8040C40F0D2
:10264000080002F8040C107840F0010010704FF4FC
:102650002540088098F80000012140F0800088F8AB
:1026600000001E2001F078FD98F80000CE4640F0F2
:10267000100088F8000095E7079ADCF8080010437E
:102680000022CCF808006AE700264FF00009DCF8C9
:1026900010104A694946D2F8209019F4803F5FEA49
:1026A0001F9319F4003F5FEA1F908DF822308DF8D8
:1026B000230011B3DCF80430FBB10C46DBF8041046
:1026C00044F001E0503240F6FE7A00200DF122087D
:1026D00051F8044B32F8023B647818F80440002C9F
:1026E0004FF0040418BF0AEA49042344984250EA10
:1026F00083800FF013C8013000E00120CCF80C00FB
:102700004FF608604FF61C61CFF6FF70CFF6FF71F1
:1027100044F248323E50C4F2441200207D50CCF8BE
:10272000202009B0BDE8F08F00BF00BF00BF00BF90
:10273000C0853340D0853340E0853340F085334059
:1027400048F608420146C4F2330240681060002097
:10275000896891607047D4D448F680420078C4F20A
:10276000330201381268002A5FEA0F9204284FF002
:10277000000038BF02220A707047D4D4D4D4D4D415
:1027800048F680410022C4F23301027041F8782CEF
:10279000C26822B100BF00BF013A0B68FCD10A68D1
:1027A00052B140F2011241F8202C00BF00BF00BF1F
:1027B0000A680AB12FF005C00322CA604A634FF6C7
:1027C000FF7240F27333C0F27F02C0F277038A6374
:1027D0004B6448F280210278C4F2330105E000BF67
:1027E00004220270CB685B072AD1D2B2052A1CD81A
:1027F000DFE802F01D0403210D0DF1E70322027052
:102800000B685B07F1D00720086004221CE0026916
:10281000526992F8903003F007030B6092F8902011
:10282000C2F30212CA600522027000220CE00122EB
:102830000270032208E0022202704FF4407203E0AB
:102840000720C8604FF480620020C1F880297047DB
:10285000B0B548F680410022C4F2330141F8782C2B
:10286000C26822B100BF00BF013A0B68FCD10A6800
:1028700052B140F2011241F8202C00BF00BF00BF4E
:102880000A680AB12FF005C048F220320021C4F2D4
:102890003302C0E908114160816011604FF01C0EE5
:1028A00000694EF280120121CEF200024069C06E32
:1028B000F6461C3004E000BFBEF1010E00D10FE06F
:1028C00010F9013B002BF7D45C0903F01F0301FA58
:1028D00003F342F82430BFF34F8FBFF36F8FEBE762
:1028E00045F2000043F20C04C4F22300C4F22004B9
:1028F00090F90010B1F1FF3F17DC017801F0EF0112
:102900000170017801F07F0101700120EFF3108563
:1029100080F310880121206840F480002060206846
:102920001E2001F019FC85F310880120EFF31085BB
:1029300080F310880121206840F400102060206896
:102940001E2001F009FC85F310880020B0BDD4D40E
:102950002DE9F04F91B048F68848C4F23308D8F812
:102960000000D8F81810C0074FF0070008BF032078
:10297000C90703D14FF0000C002204E0D8F81CC0B6
:10298000D8F8282007204FF07043EFF3038103EBC2
:10299000016642F6E463B115C2F2002348F28025D5
:1029A0004FEA266A5958C4F233050F7805E000BF94
:1029B00004270F70EC68640738D1FFB2052F1FD8C9
:1029C000DFE807F02304032A1010F1E703270F7054
:1029D0002C686407F1D007272F604FF00409032803
:1029E00020D029E00F697F6997F8904004F0070430
:1029F0002C6097F89070C7F30217EF6005270F70EF
:102A00004FF0000903280DD016E001270F704FF09A
:102A10000309032806D00FE002270F704FF4407916
:102A2000032809D1097805290AD243E00727EF6076
:102A30004FF480690328F5D006270F704FF0000986
:102A40004FF07044EFF3038104EB0161891553F8F3
:102A500001B0DBF8141069B38DF802000020CDE955
:102A600004C2EC46ADF81800DBE906024FF0FF03A4
:102A70008DF808300192ADF8003080B1034608A906
:102A8000D4CBD4C193E8D400D4C10146BCE8CC0077
:102A9000CCC19CE8CC00CCC1DBF8141000E060464F
:102AA0008847DBF8180028B108A9CCC9CCC091E848
:102AB000CC00CCC00120C8F814004CF20030C4F2A5
:102AC000000050F82A1021F4803140F82A1050F804
:102AD0002A0000BF00BF00BFD5F8000A08B12FF0E0
:102AE00005C8C5F8809911B0BDE8F08FD4D4D4D40E
:102AF0002DE9F04F91B048F68848C4F23308D8F871
:102B00000000D8F8181080074FF0070058BF0320C6
:102B1000890703D44FF0000C002204E0D8F81CC051
:102B2000D8F8282007204FF07043EFF3038103EB20
:102B3000016642F6E463B115C2F2002348F2802533
:102B40004FEA266A5958C4F233050F7805E000BFF2
:102B500004270F70EC68640738D1FFB2052F1FD827
:102B6000DFE807F02304032A1010F1E703270F70B2
:102B70002C686407F1D007272F604FF00409032861
:102B800020D029E00F697F6997F8904004F007048E
:102B90002C6097F89070C7F30217EF6005270F704D
:102BA0004FF0000903280DD016E001270F704FF0F9
:102BB0000309032806D00FE002270F704FF4407975
:102BC000032809D1097805290AD243E00727EF60D5
:102BD0004FF480690328F5D006270F704FF00009E5
:102BE0004FF07044EFF3038104EB0161891553F852
:102BF00001B0DBF8141069B38DF802000020CDE9B4
:102C000004C2EC46ADF81800DBE906024FF0FF0302
:102C10008DF808300192ADF8003080B1034608A964
:102C2000D4CBD4C193E8D400D4C10146BCE8CC00D5
:102C3000CCC19CE8CC00CCC1DBF8141000E06046AD
:102C40008847DBF8180028B108A9CCC9CCC091E8A6
:102C5000CC00CCC00220C8F814004CF20030C4F202
:102C6000000050F82A1021F4803140F82A1050F862
:102C70002A0000BF00BF00BFD5F8000A08B12FF03E
:102C800005C8C5F8809911B0BDE8F08FD4D4D4D46C
:102C90002DE9F04F93B048F6285B4FF07041C4F235
:102CA000330B42F6E462C2F20022DBF800A0DBF84C
:102CB0000430DBF81070EFF3038001EB0060811546
:102CC0004FEA206852F80190D9F8141079B308201F
:102CD0008DF80A000193FF22CDE90637D9E90603F2
:102CE0008DF81020ADF8082002AAADF820A00393BB
:102CF000009778B103460AA9F0CBF0C193E8F00041
:102D0000F0C10146E8CAE8C192E8E800E8C1D9F894
:102D1000141000E010468847D9F8180028B10AA915
:102D2000CCC9CCC091E8CC00CCC0DDE900731FFA5F
:102D30008AF0CBF814004CF20030CBF81830C4F213
:102D40000000CBF8247050F8281021F4803140F8AE
:102D5000281050F8280013B0BDE8F08FD4D4D4D494
:102D60002DE9F04391B04FF07041EFF3038001EB98
:102D7000006042F6E4628115C2F200224FEA206848
:102D800052F80190D9F8141069B306208DF80200AA
:102D9000FF208DF808000020CDE90400ADF81800F0
:102DA000D9E9060201920122ADF800206A4678B105
:102DB000034608A9F0CBF0C193E8F000F0C101464A
:102DC000E8CAE8C192E8E800E8C1D9F8141000E0C8
:102DD00010468847D9F8180028B108A9CCC9CCC03A
:102DE00091E8CC00CCC048F68C400121C4F23300FD
:102DF00001604CF20030C4F2000050F8281021F4B9
:102E0000803140F8281050F8280011B0BDE8F08358
:102E10002DE9F04391B04FF07041EFF3038001EBE7
:102E2000006042F6E4628115C2F200224FEA206897
:102E300052F80190D9F8141069B306208DF80200F9
:102E4000FF208DF808000020CDE90400ADF818003F
:102E5000D9E9060201920222ADF800206A4678B153
:102E6000034608A9F0CBF0C193E8F000F0C1014699
:102E7000E8CAE8C192E8E800E8C1D9F8141000E017
:102E800010468847D9F8180028B108A9CCC9CCC089
:102E900091E8CC00CCC048F68C400221C4F233004B
:102EA00001604CF20030C4F2000050F8281021F408
:102EB000803140F8281050F8280011B0BDE8F083A8
:102EC0002DE9F04F93B048F6A44A4FF07041C4F298
:102ED000330A42F6E462C2F20022DAF80030DAF88D
:102EE0000C90EFF3038001EB006081154FEA206B3B
:102EF00052F80180D8F8141079B307208DF80A0031
:102F0000FF208DF810000020ADF82000D8E906025F
:102F100003920122ADF8082002AA0193CDE90639F7
:102F200078B103460AA9F0CBF0C193E8F000F0C1F4
:102F30000146E8CAE8C192E8E800E8C1D8F81410F0
:102F400000E010468847D8F8180028B10AA9CCC973
:102F5000CCC091E8CC00CCC0019BCAF81430CAF8B0
:102F600020900120CAF810004CF20030C4F200009A
:102F700050F82B1021F4803140F82B1050F82B0022
:102F800013B0BDE8F08FD4D42DE9F04F93B048F6DC
:102F9000A44A4FF07041C4F2330A42F6E462C2F22E
:102FA0000022DAF80030DAF80C90EFF3038001EB3E
:102FB000006081154FEA206B52F80180D8F8141098
:102FC00079B307208DF80A00FF208DF8100000204B
:102FD000ADF82000D8E9060203920222ADF80820DD
:102FE00002AA0193CDE9063978B103460AA9F0CBCC
:102FF000F0C193E8F000F0C10146E8CAE8C192E8E8
:10300000E800E8C1D8F8141000E010468847D8F866
:10301000180028B10AA9CCC9CCC091E8CC00CCC01A
:10302000019BCAF81430CAF820900220CAF8100098
:103030004CF20030C4F2000050F82B1021F4803123
:1030400040F82B1050F82B0013B0BDE8F08FD4D40B
:103050002DE9F04391B04FF07041EFF3038001EBA5
:10306000006042F6E4628115C2F200224FEA206855
:1030700052F80190D9F8141061B300208DF80200C5
:10308000CDE904000120ADF81800D9E90603FF22BC
:103090008DF80820ADF800206A46019378B1034608
:1030A00008A9F0CBF0C193E8F000F0C10146E8CAEE
:1030B000E8C192E8E800E8C1D9F8141000E0104631
:1030C0008847D9F8180028B108A9CCC9CCC091E824
:1030D000CC00CCC048F654500121C4F2330001604A
:1030E0004CF20030C4F2000050F8281021F4803176
:1030F00040F8281050F8280011B0BDE8F083D4D46F
:103100002DE9F04391B04FF07041EFF3038001EBF4
:10311000006042F6E4628115C2F200224FEA2068A4
:1031200052F80190D9F8141061B300208DF8020014
:10313000CDE904000220ADF81800D9E90603FF220A
:103140008DF80820ADF800206A46019378B1034657
:1031500008A9F0CBF0C193E8F000F0C10146E8CA3D
:10316000E8C192E8E800E8C1D9F8141000E0104680
:103170008847D9F8180028B108A9CCC9CCC091E873
:10318000CC00CCC048F654500221C4F23300016098
:103190004CF20030C4F2000050F8281021F48031C5
:1031A00040F8281050F8280011B0BDE8F083D4D4BE
:1031B0002DE9F04391B04FF07041EFF3038001EB44
:1031C000006042F6E4628115C2F200224FEA2068F4
:1031D00052F80190D9F8141061B300208DF8020064
:1031E000CDE904000420ADF81800D9E90603FF2258
:1031F0008DF80820ADF800206A46019378B10346A7
:1032000008A9F0CBF0C193E8F000F0C10146E8CA8C
:10321000E8C192E8E800E8C1D9F8141000E01046CF
:103220008847D9F8180028B108A9CCC9CCC091E8C2
:10323000CC00CCC048F654500421C4F233000160E5
:103240004CF20030C4F2000050F8281021F4803114
:1032500040F8281050F8280011B0BDE8F083D4D40D
:103260002DE9F04391B04FF07041EFF3038001EB93
:10327000006042F6E4628115C2F200224FEA206843
:1032800052F80190D9F8141061B300208DF80200B3
:10329000CDE904000820ADF81800D9E90603FF22A3
:1032A0008DF80820ADF800206A46019378B10346F6
:1032B00008A9F0CBF0C193E8F000F0C10146E8CADC
:1032C000E8C192E8E800E8C1D9F8141000E010461F
:1032D0008847D9F8180028B108A9CCC9CCC091E812
:1032E000CC00CCC048F654500821C4F23300016031
:1032F0004CF20030C4F2000050F8281021F4803164
:1033000040F8281050F8280011B0BDE8F083D4D45C
:103310002DE9F04391B04FF07041EFF3038001EBE2
:10332000006042F6E4628115C2F200224FEA206892
:1033300052F80190D9F8141061B300208DF8020002
:10334000CDE904001020ADF81800D9E90603FF22EA
:103350008DF80820ADF800206A46019378B1034645
:1033600008A9F0CBF0C193E8F000F0C10146E8CA2B
:10337000E8C192E8E800E8C1D9F8141000E010466E
:103380008847D9F8180028B108A9CCC9CCC091E861
:10339000CC00CCC048F654501021C4F23300016078
:1033A0004CF20030C4F2000050F8281021F48031B3
:1033B00040F8281050F8280011B0BDE8F083D4D4AC
:1033C0002DE9F04F91B048F6F8484FF07041C4F243
:1033D000330842F6E462C2F2002258F8049CEFF38C
:1033E000038001EB006081154FEA206A52F801B0BA
:1033F000DBF8141079B3484600236FF35F20CDE962
:103400000433ADF81800DBE906030A228DF8022028
:10341000FF228DF80820ADF800206A46019378B1AC
:10342000034608A9F0CBF0C193E8F000F0C10146D3
:10343000E8CAE8C192E8E800E8C1DBF8141000E04F
:1034400010468847DBF8180028B108A9CCC9CCC0C1
:1034500091E8CC00CCC048466FF35F2048F8080CD8
:10346000D8F8000069F30800C8F800004CF20030FA
:10347000C4F2000050F82A1021F4803140F82A10DC
:1034800050F82A0011B0BDE8F08FD4D4D4D4D4D4ED
:103490002DE9F04391B04FF07041EFF3038001EB61
:1034A000006042F6E4628115C2F200224FEA206811
:1034B00052F80190D9F8141069B309208DF8020070
:1034C0000020CDE904000120ADF81800D9E9060379
:1034D000FF228DF80820ADF800206A46019378B1EC
:1034E000034608A9F0CBF0C193E8F000F0C1014613
:1034F000E8CAE8C192E8E800E8C1D9F8141000E091
:1035000010468847D9F8180028B108A9CCC9CCC002
:1035100091E8CC00CCC04CF20030C4F2000050F86E
:10352000281021F4803140F8281050F8280011B0FC
:10353000BDE8F083D4D4D4D42DE9F04391B04FF05A
:103540007041EFF3038001EB006042F6E462811505
:10355000C2F200224FEA206852F80190D9F8141004
:1035600069B309208DF802000020CDE90400022093
:10357000ADF81800D9E90603FF228DF80820ADF850
:1035800000206A46019378B1034608A9F0CBF0C148
:1035900093E8F000F0C10146E8CAE8C192E8E8000B
:1035A000E8C1D9F8141000E010468847D9F818008F
:1035B00028B108A9CCC9CCC091E8CC00CCC04CF251
:1035C0000030C4F2000050F8281021F4803140F897
:1035D000281050F8280011B0BDE8F083D4D4D4D41A
:1035E0002DE9F04391B04FF07041EFF3038001EB10
:1035F000006042F6E4628115C2F200224FEA2068C0
:1036000052F80190D9F8141069B309208DF802001E
:103610000020CDE904000420ADF81800D9E9060324
:10362000FF228DF80820ADF800206A46019378B19A
:10363000034608A9F0CBF0C193E8F000F0C10146C1
:10364000E8CAE8C192E8E800E8C1D9F8141000E03F
:1036500010468847D9F8180028B108A9CCC9CCC0B1
:1036600091E8CC00CCC04CF20030C4F2000050F81D
:10367000281021F4803140F8281050F8280011B0AB
:10368000BDE8F083D4D4D4D42DE9F04391B04FF009
:103690007041EFF3038001EB006042F6E4628115B4
:1036A000C2F200224FEA206852F80190D9F81410B3
:1036B00069B309208DF802000020CDE9040008203C
:1036C000ADF81800D9E90603FF228DF80820ADF8FF
:1036D00000206A46019378B1034608A9F0CBF0C1F7
:1036E00093E8F000F0C10146E8CAE8C192E8E800BA
:1036F000E8C1D9F8141000E010468847D9F818003E
:1037000028B108A9CCC9CCC091E8CC00CCC04CF2FF
:103710000030C4F2000050F8281021F4803140F845
:10372000281050F8280011B0BDE8F083D4D4D4D4C8
:103730002DE9F04391B04FF07041EFF3038001EBBE
:10374000006042F6E4628115C2F200224FEA20686E
:1037500052F80190D9F8141069B309208DF80200CD
:103760000020CDE904001020ADF81800D9E90603C7
:10377000FF228DF80820ADF800206A46019378B149
:10378000034608A9F0CBF0C193E8F000F0C1014670
:10379000E8CAE8C192E8E800E8C1D9F8141000E0EE
:1037A00010468847D9F8180028B108A9CCC9CCC060
:1037B00091E8CC00CCC04CF20030C4F2000050F8CC
:1037C000281021F4803140F8281050F8280011B05A
:1037D000BDE8F083D4D4D4D44EF22401C4F2010164
:1037E0008878098801F00F02A2F1080103293BD86B
:1037F000DFE801F0022C101E40F22051C2F200213D
:1038000051F820004AF6AB21CAF6AA21A0FB01011B
:10381000480830E040F22051C2F2002151F8200067
:103820004AF6AB21CAF6AA21A0FB0101C80822E092
:1038300040F22051C2F2002151F820004AF6AB219B
:10384000CAF6AA21A0FB0101080914E040F22051A8
:10385000C2F2002151F820004AF6AB21CAF6AA2193
:10386000A0FB0101880806E040F22051C2F20021CD
:1038700051F82000D04042F63C71C2F200210860AD
:103880007047D4D4D4D4D4D4D4D4D4D4D4D4D4D4E9
:103890002DE9F04782B00FF288604EF2FA3840F21C
:1038A0002056C4F201084AF2015190ED001FC2F205
:1038B00000260FF27C60CFF6FF714EF25505023103
:1038C000A8F8001086ED001F06F12003C4F20105E0
:1038D00090ED001F48F2004040F60001C1F2D770A1
:1038E00043F6000286ED041FC2F6AF71C1F69C429A
:1038F00007C315F82F0C35F8311C01F00F02A2F1A7
:10390000080103292BD8DFE801F002200C164AF643
:10391000AB2156F82000CAF6AA21A0FB01014808F5
:1039200020E04AF6AB2156F82000CAF6AA21A0FBF7
:103930000101C80816E04AF6AB2156F82000CAF685
:10394000AA21A0FB010108090CE04AF6AB2156F8B8
:103950002000CAF6AA21A0FB0101880802E056F85F
:103960002000D04042F63C7A4EF60044C2F2002AD3
:10397000C4F201040A214EF60147CAF800004FF6CE
:103980005060CFF6FF70C4F201072154092085F87A
:103990004D00207818B93878800700F0BC82207874
:1039A00048B901202070C820012100F0D5FB00BFDC
:1039B00020780128FCD10020387020704AF201598B
:1039C000002005F81F0C05F8230C00BF00BF00BF46
:1039D00015F8190C0007FBD542F602314EF61450CB
:1039E000C0F20101C5F8731040F2234125F8071C0D
:1039F000002205F80B2C4FF60211C5F8571040F2C3
:103A0000514125F8091CCEF200004EF20001BFF32F
:103A10004F8FBFF36F8F0368CEF2010123F40033A1
:103A20000360C0F83C22BFF34F8FBFF36F8F0A686B
:103A300022F440520A60BFF34F8FBFF36F8F15F827
:103A4000412C02F0F802013205F8412C00BF00BF02
:103A500015F8412CD206FBD40A6842F440520A60A1
:103A6000BFF34F8FBFF36F8F0168890312D4BFF389
:103A70004F8FBFF36F8F0021C0F83C12BFF34F8F01
:103A8000BFF36F8F016841F400310160BFF34F8FC6
:103A9000BFF36F8F002005F82B0C00BF00BF00BFE5
:103AA00015F8190C8006FBD54CF200040020C4F276
:103AB000130420702078207820786068FA2807D0D6
:103AC000FA20C1F6006000BF60606168FA29FBD18E
:103AD000A0687D2808D07D20CEF2001000BF00BF76
:103AE000A060A1687D29FBD143F23240C3F22320BC
:103AF00045F8350C42F2201025F8310C052005F868
:103B00002F0C15F82F0C35F8311C01F00F02A2F123
:103B1000080103292BD8DFE801F002200C164AF631
:103B2000AB2156F82000CAF6AA21A0FB01014808E3
:103B300020E04AF6AB2156F82000CAF6AA21A0FBE5
:103B40000101C80816E04AF6AB2156F82000CAF673
:103B5000AA21A0FB010108090CE04AF6AB2156F8A6
:103B60002000CAF6AA21A0FB0101880802E056F84D
:103B70002000D040CAF800001E200121012700F0DB
:103B8000EBFA60686FF39F20652828BF277015F84F
:103B90002F0C35F8311C01F00F02A2F108010329A6
:103BA0002BD8DFE801F002200C164AF6AB2156F8BC
:103BB0002000CAF6AA21A0FB0101480820E04AF62D
:103BC000AB2156F82000CAF6AA21A0FB0101C808C3
:103BD00016E04AF6AB2156F82000CAF6AA21A0FB4F
:103BE000010108090CE04AF6AB2156F82000CAF69C
:103BF000AA21A0FB0101880802E056F82000D0406D
:103C000042F20001CAF80000C4F200010120A1F84C
:103C10000090BFF35F8F08724FF42540BFF35F8FB2
:103C2000088095F8850040F0400085F8850000BFC9
:103C300095F98500B0F1FF3FFADC032085F87F009D
:103C4000C92085F8850095F8850000F0BF0085F84B
:103C5000850000BF00BF00BF95F985000028FBD498
:103C6000012005F8020C002005F8170C802005F84B
:103C7000170CE87F40F04000E87700BF00BF00BFAE
:103C800095F91F00B0F1FF3FFADC0720E8754A20E4
:103C9000E8770A20E87700BF95F91F000028FBD4D9
:103CA0000720ADF806000DF1060000F049F995F87F
:103CB000210040F0400085F8210000BF00BF00BF98
:103CC00095F92100B0F1FF3FFADC03206876CA20A5
:103CD00085F8210095F8210000F0BF0085F821004B
:103CE00095F921000028FBD4287840F04000287086
:103CF00095F90000B0F1FF3FFADC022005F8010C55
:103D0000CA202870287800F0BF00287000BF00BFCC
:103D100095F900000028FBD4A87840F04000A87076
:103D200095F90200B0F1FF3FFADC00206870C7206F
:103D3000A870A87800F0BF00A87000BF00BF00BF47
:103D400095F902000028FBD4287A40F04000287240
:103D500095F90800B0F1FF3FFADC0120E871C620B8
:103D60002872287A00F0BF00287200BF00BF00BF91
:103D700095F908000028FBD495F8230040F0400096
:103D800085F8230000BF00BF95F92300B0F1FF3F85
:103D9000FADC0220E876C92085F8230095F8230094
:103DA00000F0BF0085F8230095F923000028FBD41C
:103DB000A87A40F04000A87295F90A00B0F1FF3FE0
:103DC000FADC01206872CA20A872A87A00F0BF004D
:103DD000A87200BF00BF00BF95F90A000028FBD4FD
:103DE00095F8220040F0400085F8220000BF00BF97
:103DF00095F92200B0F1FF3FFADC0420A876CA2032
:103E000085F8220095F8220000F0BF0085F8220016
:103E100095F922000028FBD4A87940F04000A87151
:103E200095F90600B0F1FF3FFADC02206871CA2064
:103E3000A871A87900F0BF00A87100BF00BF00BF43
:103E400095F906000028FBD495F8860040F0400064
:103E500085F8860000BF00BF95F98600B0F1FF3FEE
:103E6000FADC022085F88000C52085F8860095F8E8
:103E7000860000F0BF0085F8860000BF00BF00BFCD
:103E800095F986000028FBD495F8870040F04000A3
:103E900085F8870000BF00BF95F98700B0F1FF3FAC
:103EA000FADC012085F88100C52085F8870095F8A7
:103EB000870000F0BF0085F8870000BF00BF00BF8B
:103EC00095F987000028FBD495F8890040F0400060
:103ED00085F8890000BF00BF95F98900B0F1FF3F68
:103EE000FADC092085F88300C92085F8890095F857
:103EF000890000F0BF0085F8890000BF00BF00BF47
:103F000095F989000028FBD44FF42540A8F800005B
:103F100002B0BDE8F0874FF47A7000F0C9F84DE5C3
:103F2000006CDC0200127A000080000000366E0196
:103F30000080000000CA9A3B0046C3235543DE13AD
:103F40002DE9F04F81B04EF2FA3143F20406C4F28B
:103F500001018246C4F220064AF20350B1F80090F3
:103F600008804FF0010B00254FF48034012700201A
:103F700008E000BF00BF00BFF8074FF001004FF09E
:103F8000000716D004FA00F132680A42F4D1EFF3C8
:103F900010888BF3108832680BFA00F011433160FF
:103FA000316805431E20012100F0D6F888F31088FF
:103FB000E2E74EF2750740F22051C4F20107C2F267
:103FC0000021387800F00F0051F8200017F8081C85
:103FD00001F00F01022901D801220BE0CA1E052AB7
:103FE00006D245F6BC71C0F2002151F8221003E060
:103FF0000839102202FA01F1B0FBF1F04DF68361AD
:10400000C4F21B31A0FB01016FF0010000EA514036
:10401000012100F0A1F8387840F04000387000BF6E
:1040200097F90000B0F1FF3FFADC9AF8010007F8B9
:10403000080C9AF8000040F0400038709AF8000030
:10404000387000BF00BF00BF97F900000028FBD404
:1040500000204FF0010A4FF48038012406E000BF31
:10406000E0074FF001004FF0000415D025FA00F1F1
:10407000C907F5D0EFF310878AF3108808FA00F02B
:10408000316821EA0000306030681E20012100F014
:1040900063F887F31088E3E74EF2FA3149F42540DC
:1040A000C4F20101088001B0BDE8F08FD4D4D4D4AB
:1040B0007047D4D4D4D4D4D4B0B542F22404C820A8
:1040C000C4F2200401210025257100F045F8257077
:1040D000207808B12FF005C0207840F00200207051
:1040E00020788007FCD4002004F8020C00BF00BF39
:1040F00014F8020C08B12FF005C84FF0030E002091
:1041000004F11C0100BF00BF11F8102002F07F0273
:1041100001F8102000BF00BF11F91020002AFBD4C5
:1041200001300FF00FC8012000F0CAF84EF64C41E4
:104130000120C4F2010100220A70BDE8B04000F085
:1041400093B8D4D4D4D4D4D4014600220020C0F2F1
:1041500004620A607047D4D442F63C7241F20023F4
:10416000C2F20022C0F27A03484312689A420FD387
:1041700044F23F21C0F20F0111444DF68362C4F2B4
:104180001B32A1FB0212910CA0FB0101C9B11DE081
:104190004CF60021C3F69A31B1FBF2F148F6381221
:1041A000C0F24102904205D24FF47A725043B0FB04
:1041B000F1F006E0B0FBF1F0904207D24FF47A71D3
:1041C0004843002808BF704700F006B84FF0FF30A2
:1041D00000F002B8D4D4D4D401380028FCD1704700
:1041E000F0B581B04CF2201542F68C67C4F20005A0
:1041F0000024C2F2002755F8200C296801EA0006C5
:1042000006E000BF00BF00BF01340437152C09D001
:1042100026FA04F0C007F7D039680029F4D0204608
:104220008847F1E745F8106C28683042FCD101B0AE
:10423000F0BDD4D4D4D4D4D480B54FF0130E4CF206
:10424000003045F64451C4F20000C0F2002100BF26
:1042500031F8022B002A18BF026004300FF009C0A9
:1042600080BDD4D4D4D4D4D4EFF31081012282F30E
:10427000108842F63072C2F2002232F8103023B1B8
:1042800032F81030013B22F8103032F8102012B111
:1042900081F3108870474EF2FA3245F6D07CC4F2B2
:1042A0000102C0F2002C13883CF8100043F42543AF
:1042B00023EA0000108081F310887047D4D4D4D44E
:1042C00010B5EFF31081012282F3108842F63072AC
:1042D000C2F2002232F8103083B94EF2FA3E45F6AF
:1042E000D07CC4F2010EC0F2002CBEF800403CF8B5
:1042F0001030234343F42543AEF8003032F8103039
:10430000013322F8103081F3108810BDD4D4D4D4F6
:1043100000F00AF8FDF714F9FEE7D4D4D4D4D4D4CD
:1043200000BE7047D4D4D4D42DE9F04381B04EF60A
:10433000085840F20120CEF20008C0F20E004EF202
:104340000004C8F80C00CEF20104BFF34F8FBFF396
:104350006F8F58F8081CC1F3035001285FEA1F92C1
:1043600011F00F0F5FEA0F911142216811D102285D
:104370000FD241F0040020604EF20800BFF34F8FCF
:10438000CEF20000BFF36F8F016841F4803101600D
:1043900002E021F004002060BFF34F8FBFF36F8F66
:1043A0004FF4700040F20001C8F880000020C0F215
:1043B0000021C8F800100025FDF7B2F8FFF768FAF1
:1043C0004EF2FA304EF6B022C4F20100C4F20102FD
:1043D0004AF20251018015704FF4254101800120FD
:1043E000FDF79EF840F22010C2F2002080F30A8808
:1043F0002068800724D5D8F80000B0F1007F1FD1D5
:1044000020694FF40071C0F3C300626901FA00F340
:10441000C2F3C30081400020DA08CB0801460746FA
:1044200042F007C000BF00BFE7E802010FF005C07F
:104430004FF0005243F005C0E2E802010FF005C062
:1044400045F69054C0F20024276897B160683E4654
:10445000051D05E000BF00BF013E05F10C0508D0B9
:1044600068790028F8D155E90101091A00F0E5F84A
:10447000F2E7D4F80890B9F1000F13D0E0684E4687
:1044800000F1080504E000BF013E05F1100509D068
:1044900068790028F8D155E902022968121A00F05B
:1044A000D1F8F1E7FFF798F9FFF706FE0320FFF7D1
:1044B00007FF4FF00E0E40F63050C4F240000021CE
:1044C00020F8041B0FF005C04EF210150320C4F2B3
:1044D0000105FFF7C9FE0320FFF7F2FE44F20400D6
:1044E0000021C4F22000016041608160C1600320AE
:1044F000FFF7BAFED5F8C802800714D42878A0B117
:104500000120FFF7DDFE00BF95F9000010F1410F1B
:10451000FADC0020287000BF28783F28FCD8012052
:10452000FFF7A2FE01E0D5F8C802D5F8C80240079F
:1045300015D42879A8B10120FFF7C2FE00BF00BF43
:1045400095F9040010F1410FFADC0020287100BF3A
:1045500028793F28FCD80120FFF786FE01E0D5F836
:10456000C8020220FCF7DCFFA7B160684FF4807638
:10457000051D05E000BF00BF013F05F10C0509D096
:104580006879B6EB002FF7D155E90101091A00F05F
:1045900054F8F1E7B9F1000F16D0E0684FF48075D8
:1045A00000F1080405E000BFB9F1010904F11004AD
:1045B0000AD06079B5EB002FF6D154E902022168E8
:1045C000121A00F03FF8EFE742F64474C2F20024FA
:1045D000204600F0FAF8204600F00FF9BFF34F8FA5
:1045E000BFF36F8F0020C8F8480246F22A0046F257
:1045F0002A01C0F20020C0F20021BFF34F8F081A39
:10460000BFF36F8F8410012C0BDB46F22A05C0F23A
:10461000002500BF00BF00BF55F8040B8047013CD8
:10462000FAD1FFF709FE002001B0BDE8F04300F029
:1046300003B8D4D4D4D4D4D470470A46002100F0AF
:1046400077B8D4D4844641EA000313F0030349D178
:10465000403A23D30B6803604B6843608B688360E8
:10466000CB68C3600B6903614B6943618B698361EC
:10467000CB69C3610B6A03624B6A43628B6A8362D4
:10468000CB6AC3620B6B03634B6B43638B6B8363BC
:10469000CB6BC36340304031403ADBD230320BD376
:1046A0000B6803604B6843608B688360CB68C360B2
:1046B00010301031103AF3D20C3205D351F8043BCC
:1046C00040F8043B043AF9D2043208D0D2071CBFA8
:1046D00011F8013B00F8013B01D30B8803806046D1
:1046E000704700BF082A13D38B07B1D010F0030323
:1046F000AED0C3F10403D21ADB071CBF11F8013B93
:1047000000F8013BA4D331F8023B20F8023B9FE7BD
:10471000043AD9D3013A11F8013B00F8013BF9D230
:104720000B7803704B7843708B78837060467047CA
:1047300070B4840746D0541E002A41D0CDB203463F
:1047400002E0621EE4B3144603F8015B9A07F8D155
:10475000032C2ED9CDB245EA05250F2C45EA054597
:1047600019D9264603F11002103E0F2E42F8105CB4
:1047700042F80C5C42F8085C42F8045C02F110025A
:10478000F2D8A4F1100222F00F0204F00F0410324C
:10479000032C13440DD91E462246121F032A46F845
:1047A000045BFAD8221F22F00302121D134404F006
:1047B00003042CB1C9B21C4403F8011BA342FBD172
:1047C00070BC704714460346C2E710B540F2501162
:1047D00040F20002C0F20021C0F200020446FFF7DE
:1047E00031FF40F2000040F20001C0F20000C0F2D0
:1047F00000012044FFF721FF10BD40F20801C0F284
:104800000001401A42F64071C2F200210860704770
:1048100000000000000054545220524547474553C1
:10482000000D0A2A2A20525F4144435F425F5363CE
:10483000616E436667204641494C4544202A2A0D53
:104840000A00696E69745F68616C5F647463000D6F
:104850000A2A2A20525F4454435F436C6F736520D9
:104860004641494C4544202A2A0D0A000D0A2A2AAD
:10487000206474635F656E61626C6520666F722090
:10488000756E697420302067726F757020422066E3
:1048900061696C6564202A2A0D0A000D0A2A2A2003
:1048A000525F4144435F425F5363616E5374617270
:1048B00074204641494C4544202A2A0D0A000D0A1D
:1048C00041444320706572696F646963207363615A
:1048D0006E20737461727465642E2E2E0D0A000DA5
:1048E0000A2A2A20696E69745F68616C5F67707458
:1048F00020666F722074696D657220302066616970
:104900006C6564202A2A0D0A00696E69745F68610B
:104910006C5F616463002A2A20525F4144435F4216
:104920005F53746174757347657420415049204624
:1049300041494C4544202A2A0D0A000D0A2A2A2002
:10494000525F4454435F4F70656E204641494C4569
:1049500044202A2A0D0A00312E30002A2A20525FD4
:104960004144435F425F43616C69627261746520D8
:10497000415049204641494C4544202A2A0D0A000D
:104980000D0A2A2A206164635F6368616E6E656C3C
:104990005F636F6E66696720666F7220756E6974FB
:1049A0002030206661696C6564202A2A0D0A000D9A
:1049B0000A2A2A206474635F656E61626C652066F2
:1049C0006F7220756E697420312067726F75702068
:1049D00042206661696C6564202A2A0D0A006465BC
:1049E000696E69745F68616C5F64746300696E69A5
:1049F000745F68616C5F677074000D0A2A2A206416
:104A000074635F656E61626C6520666F7220756E9F
:104A1000697420312067726F75702041206661696A
:104A20006C6564202A2A0D0A000D0A2A2A20647463
:104A3000635F68616C5F7265636F6E6669677572EC
:104A40006520666F7220756E697420312C20677244
:104A50006F75702041206661696C6564202A2A0D9B
:104A60000A000D0A2A2A206474635F656E61626C15
:104A70006520666F722041444320756E6974203052
:104A80002067726F75702042206661696C656420D2
:104A90002A2A0D0A006474635F656E61626C6500AA
:104AA0000D0A2A2A2A2A2A2A2A2A2A2A2A2A2A2AA3
:104AB0002A2A2A2A2A2A2A2A2A2A2A2A2A2A2A2A56
:104AC0002A2A2A2A2A2A2A2A2A2A2A2A2A2A2A2A46
:104AD0002A2A2A2A2A2A2A2A2A2A2A2A2A2A2A2A36
:104AE0002A2A2A2A2A2A2A2A2A2A0D0A2A20202081
:104AF00052656E6573617320465350204578616D31
:104B0000706C652050726F6A65637420666F7220E6
:104B10006164635F6770745F706572696F64696315
:104B20005F73616D706C696E67204D6F64756C6545
:104B30002020202A0D0A2A2020204578616D706CE3
:104B4000652050726F6A6563742056657273696F71
:104B50006E202573202020202020202020202020AF
:104B60002020202020202020202020202020202045
:104B70002020202020202020202020202A0D0A2A4A
:104B8000202020466C657820536F667477617265CB
:104B9000205061636B2056657273696F6E202564C7
:104BA0002E25642E25642020202020202020202057
:104BB00020202020202020202020202020202020F5
:104BC0002020202020202020202A0D0A2A2A2A2ADC
:104BD0002A2A2A2A2A2A2A2A2A2A2A2A2A2A2A2A35
:104BE0002A2A2A2A2A2A2A2A2A2A2A2A2A2A2A2A25
:104BF0002A2A2A2A2A2A2A2A2A2A2A2A2A2A2A2A15
:104C00002A2A2A2A2A2A2A2A2A2A2A2A2A2A2A2A04
:104C10002A2A2A2A0D0A526566657220746F20724C
:104C20006561646D652E7478742066696C652066B4
:104C30006F72206D6F72652064657461696C73209A
:104C40006F6E204578616D706C652050726F6A657B
:104C5000637420616E640D0A46535020557365726B
:104C60002773204D616E75616C20666F72206D6FC9
:104C7000726520696E666F726D6174696F6E206116
:104C8000626F7574206164635F6770745F706572D2
:104C9000696F6469635F73616D706C696E672064CE
:104CA00072697665720D0A000D0A2A2A20647463FF
:104CB0005F656E61626C6520666F722041444320BF
:104CC000756E697420312067726F7570204120669F
:104CD00061696C6564202A2A0D0A00284E554C4CE7
:104CE000290067656E6572616C5F7369676E616CE0
:104CF0005F6163717569736974696F6E5F696E690D
:104D000074000D0A2A2A20525F4750545F4F706585
:104D10006E204641494C4544202A2A0D0A000D0ABE
:104D20002A2A206474635F68616C5F7265636F6ECA
:104D300066696775726520666F7220756E6974208A
:104D4000302C2067726F75702041206661696C6538
:104D500064202A2A0D0A000D0A2A2A20656C635F46
:104D6000656E61626C65206661696C6564202A2AE3
:104D70000D0A006164635F6368616E6E656C5F63FA
:104D80006F6E666967002A2A206164635F737461CD
:104D900072745F63616C6962726174696F6E2046E0
:104DA00041494C4544202A2A0D0A000D0A2A2A208E
:104DB0007363616E5F73746172745F6164632066B4
:104DC0006F7220756E69742030206661696C65644D
:104DD000202A2A0D0A000D0A2A2A206770745F749F
:104DE000696D65725F7374617274206661696C6568
:104DF00064202A2A0D0A000D0A2A2A20696E697485
:104E00005F68616C5F64746320666F7220756E69A1
:104E10007420302C2067726F7570204120666169A4
:104E20006C6564202A2A0D0A000D0A5468697320F3
:104E30006578616D706C652070726F6A656374204F
:104E400064656D6F6E7374726174657320746865E8
:104E50002062617369632066756E6374696F6E6149
:104E60006C697479206F6620414443204750542078
:104E7000506572696F6469632053616D706C696E0F
:104E8000670D0A6F6E2052656E6573617320524123
:104E9000204D435573206261736564206F6E204618
:104EA00053502E204F6E2073756363657373667560
:104EB0006C20696E697469616C697A6174696F6E7E
:104EC000206F66204144432C204750542C20454CF1
:104ED0004320616E64204454430D0A6D6F64756C09
:104EE00065732C204750542074726967676572732C
:104EF00020616E204144432067726F757020736398
:104F0000616E20617420706572696F6469632069E5
:104F10006E74657276616C732E205768656E2065BD
:104F20006163682067726F7570207363616E0D0A2C
:104F3000636F6D706C657465732C204454432074EA
:104F4000726967676572732064617461207472614D
:104F50006E7366657220616E6420636F706965733D
:104F6000206461746120746F2075736572206275AE
:104F7000666665722E205468652073616D706C657D
:104F8000204144430D0A646174612063616E2062B4
:104F90006520766965776564207468726F756768E7
:104FA0002077617665666F726D2072656E646572DA
:104FB000696E67206F66206D656D6F7279207573FD
:104FC000696E67206D656D6F7279207669657765AA
:104FD0007220696E20653273747564696F2E0D0AD4
:104FE0000D0A000D0A2A2A206474635F656E6162EF
:104FF0006C6520666F7220756E6974203020677250
:105000006F75702041206661696C6564202A2A0DE5
:105010000A005B4552525D20496E2046756E6374EE
:10502000696F6E3A20257328292C202573000D0AFC
:105030002A2A206474635F656E61626C6520666F06
:10504000722041444320756E697420312067726F6D
:1050500075702042206661696C6564202A2A0D0AF9
:10506000000D0A2A2A20525F4144435F425F4F707D
:10507000656E204641494C4544202A2A0D0A0065A8
:105080006C635F656E61626C65000D0A2A2A2052AE
:105090005F454C435F436C6F7365204641494C4507
:1050A00044202A2A0D0A006465696E69745F68618C
:1050B0006C5F677074000D0A5468652075736572C3
:1050C0002063616E206E6F77206F70656E20776150
:1050D0007665666F726D2072656E646572696E6763
:1050E000206F66206D656D6F727920696E20653264
:1050F00073747564696F20746F206F627365727664
:105100006520746865206F7574707574206F6620F3
:105110004144432047505420706572696F6469634D
:105120002073616D706C696E672E0A0A000D0A2A81
:105130002A206474635F656E61626C6520666F72BD
:105140002041444320756E697420302067726F756A
:10515000702041206661696C6564202A2A0D0A006E
:105160005465726D696E616C000D0A2A2A20525FC7
:105170004750545F436C6F7365204641494C45442A
:10518000202A2A0D0A000D0A2A2A206474635F6807
:10519000616C5F7265636F6E6669677572652066C4
:1051A0006F7220756E697420302C2067726F757075
:1051B0002042206661696C6564202A2A0D0A000D70
:1051C0000A2A2A20696E69745F68616C5F6474637F
:1051D00020666F7220756E697420312C2067726FA3
:1051E00075702041206661696C6564202A2A0D0A69
:1051F000000D0A2A2A20525F4144435F425F436CFC
:105200006F7365204641494C4544202A2A0D0A0007
:105210006465696E69745F68616C5F656C63000DDD
:105220000A52657475726E6564204572726F7220E1
:10523000436F64653A2030782578200D0A000D0A06
:105240002A2A20525F454C435F4F70656E204641CD
:10525000494C4544202A2A0D0A006474635F686142
:105260006C5F7265636F6E666967757265000D0AC3
:105270002A2A20414443207363616E20636F6D705E
:105280006C657465206576656E7420666F72206744
:10529000726F757073206F6E20756E697420312087
:1052A0006F722030206973206E6F742072656365A1
:1052B00069766564202A2A0D0A000D0A2A2A2052DE
:1052C0005F4454435F456E61626C65204641494CC2
:1052D0004544202A2A0D0A00696E69745F68616C72
:1052E0005F656C63000D0A2A2A20525F454C435FBC
:1052F000456E61626C65204641494C4544202A2A2E
:105300000D0A006465696E69745F68616C5F616451
:1053100063006164635F73746172745F63616C697D
:1053200062726174696F6E000D0A2A2A20525F440E
:1053300054435F5265636F6E666967757265204698
:1053400041494C4544202A2A0D0A000D0A2A2A20E8
:10535000696E69745F68616C5F64746320666F7204
:1053600020756E697420302C2067726F7570204232
:10537000206661696C6564202A2A0D0A000D0A2ADC
:105380002A206474635F68616C5F7265636F6E6628
:10539000696775726520666F7220756E6974203159
:1053A0002C2067726F75702042206661696C65649D
:1053B000202A2A0D0A006770745F74696D65725F38
:1053C0007374617274000D0A2A2A20696E69745F11
:1053D00068616C5F61646320666F7220756E6974CA
:1053E0002030206661696C6564202A2A0D0A0073EA
:1053F00063616E5F73746172745F616463000D0A50
:105400002A2A20525F4750545F53746172742046B9
:1054100041494C4544202A2A0D0A000D0A2A2A2017
:10542000696E69745F68616C5F656C632066616951
:105430006C6564202A2A0D0A000D0A2A2A20696E4A
:1054400069745F68616C5F64746320666F72207555
:105450006E697420312C2067726F7570204220664F
:1054600061696C6564202A2A0D0A003031323334B8
:105470003536373839414243444546D400000000B0
:10548000000000000000000000000000000000001C
:10549000000000000000000000000000000000000C
:1054A00000000000000000000000000000000000FC
:1054B00000000000000000000000000000000000EC
:1054C000000000000AD4D4D4D0000022C45400024A
:1054D00009D4D4D4E0000022D054000208D4D4D49B
:1054E000F0000022DC54000207D4D4D400010022D2
:1054F000E8540002FFDF000005000000000000008B
:10550000000000004E0C00005D18000000000000CC
:10551000000000000000000000000000000000008B
:10552000000000000000000000000000000000007B
:1055300000000000000002FFFFFFFFFF12DFDFDFBF
:10554000DFDF00000000000000000000000000009D
:10555000000000000000000000000000000000004B
:10556000F4540002000000000000000000000000F1
:105570009C180000000000004E0C000000FFDF003F
:1055800000000000000000001455000200000000B0
:1055900001010000000000000000000000001200F7
:1055A00001000000010200000000000000000000F7
:1055B00000001200020000000204000000000000D1
:1055C00000000000000012000300000002050000BF
:1055D00000000000000000000000120004000000B5
:1055E00003060000000000000000000000001200A0
:1055F000050000000307000000000000000000009C
:105600000000120006000000040A00000000000074
:10561000000000000000120007000000040D000060
:105620000000000000000000000012008C55000285
:10563000A0550002B4550002C8550002DC55000216
:10564000F055000204560002185600020000010244
:105650000100000001000000000000000000000048
:10566000000000002C5600020100010201000000B1
:105670000000010000000000000000000000000029
:105680003456000202010102010000000100000086
:105690000000000000000000000000003C56000276
:1056A00003010102010000000000010000000000F1
:1056B0000000000000000000445600024C560002AA
:1056C0006856000284560002A05600020400000042
:1056D000BC5600020C0C0C0C0C0C0C0C0C0CFFFF40
:1056E000FFFFFF0C0C0C0202020202FFFFFFFFFF94
:1056F000050601020C0D0E0F1011DFDFDFDFDF00EA
:1057000003040708090A0BDFDFDFDFDF0000010009
:105710000000010000000100000001000000000086
:105720000101010101010101000001006400030009
:105730000000000000000000000001010000000067
:105740000000000000000000000000000000000059
:105750000000000000000000000000000000000049
:105760000000000000000000000000000000000039
:105770005F0005005F000500D45600025F005F0077
:105780005F005F005F005F005F005F005F005F0021
:105790005F005F005F005F005F005F0000000000CF
:1057A0005F0005005F000500050500000000000027
:1057B00000000000000000000000000000000000E9
:1057C00000000000000000000000000000000000D9
:1057D00000000000000000000000000000000000C9
:1057E00000000000000000000000000000000000B9
:1057F00000000000000000000000000000000000A9
:105800000000000000000000000000000000000098
:10581000FCFF00000000DFDF00FFFF00C10A000204
:10582000000000000C5700020040000000000000D3
:105830000080000001000000008000000200000065
:10584000008000000400000000800000050000004F
:10585000008000000600000000800000070000003B
:1058600000400000080000000040000009000000A7
:10587000008000000A000000004000000C00000052
:10588000008000000D000000000C011C0001000061
:10589000000C011C01010000000C011C02010000B1
:1058A000000C011C03010000000C011C040100009D
:1058B000000C011C05010000000C011C0601000089
:1058C000004000000701000045040000090100003D
:1058D000104000000B010000000C010B0C01000047
:1058E000000C010B0D010000000C010B0E0100006B
:1058F000000C010B0F01000000400000000200003E
:10590000000C011806020000000C0119070200003B
:10591000000C010008020000000C01000902000058
:10592000000C01000A020000000C01000B02000044
:10593000000C010B00030000000C010B0103000030
:10594000000C010B02030000040C00000303000024
:10595000000C011804030000000C011805030000EE
:10596000000C011806030000000C011807030000DA
:10597000000C011809030000000C01180A030000C4
:10598000400C010700040000400C01070104000066
:1059900000000112020400000000011203040000D4
:1059A00000000112040400000004011205040000BC
:1059B00000040112060400000004011307040000A3
:1059C00000040114080400000004011F0B0400007F
:1059D000000401180E040000000401180F04000068
:1059E0000000011300050000000C01030105000088
:1059F0000004011B02050000000C010B0305000060
:105A0000000C010B04050000000C010B0505000053
:105A1000000C010B06050000000C010B070500003F
:105A2000000C010B08050000000C010B090500002B
:105A3000000C010B0A050000400401070B050000E3
:105A4000400401070C050000000C01190D050000C1
:105A5000040400000E050000000C01190F050000F1
:105A6000040C00000006000004040000060600000C
:105A7000000C010B07060000000C010B08060000DB
:105A8000000C010B09060000000C010B0A060000C7
:105A9000000C010B0B060000000C010B0C060000B3
:105AA000000C010B0D060000000C010B0E0600009F
:105AB000000C010B0F060000000C01190707000085
:105AC00004040000080700000404000009070000A7
:105AD000000C01190A070000000C01190B07000057
