:020000040000FA
:1000000040080020950D00000506000001060000D4
:1000100001060000010600000106000001060000C4
:1000200000000000000000000000000001060000C9
:1000300001060000000000000106000001060000AB
:10004000F9200000B121000071210000C11F000053
:100050000000100800000000000000000000000088
:100060000000080000000000000000000000000088
:08007000FFFFFF7F010000000B
:020000040000FA
:1000780040EA01039B0703D009E008C9121F08C022
:10008800042AFAD203E011F8013B00F8013B521EA2
:10009800F9D27047D2B201E000F8012B491EFBD219
:1000A80070470022F6E710B513460A46044619467B
:1000B800FFF7F0FF204610BD00F0004230F000408E
:1000C8000AD0C10D01F56071C0F3160042EA015172
:1000D800C20840071143704700200146704730B5F9
:1000E8000B46014600202022012409E021FA02F5EE
:1000F8009D4205D303FA02F5491B04FA02F5284488
:10010800151EA2F10102F1DC30BD2DE9F05F0546B4
:10011800002092469B4688460646814640241BE0BE
:10012800284641464746224600F0E7F953465A46D4
:10013800C01A914110D311461846224600F0CEF954
:100148002D1A67EB01084F4622460120002100F0D6
:10015800C5F917EB00094E41201EA4F10104DFDCAC
:10016800484631462A464346BDE8F09F2DE9FE4FF2
:10017800804681EA0300C00F0C46009021F0004140
:1001880023F00045B8EB0200A94105D240462146BC
:1001980090461C460B46024623F00040104347D0C9
:1001A800270DC7F30A00C3F30A510290401A0190C1
:1001B80040286BDAC3F3130040F4801B0098924682
:1001C80020B10023D2EB030A63EB0B0B01985946CD
:1001D800C0F14002504600F081F906460D465046EF
:1001E8005946019A00F099F910EB08006141002482
:1001F80087EA115284EAE7731A4340D0009A62B33F
:10020800019A012A4FEA075215DC001B61EB020133
:100218004FF0004202EA0752CDE90042001C41F5C6
:10022800801132462B4600F099F903B0BDE8F08FF3
:1002380040462146F9E7001B61EB0201001C41F52D
:10024800801300185B412018A2F5001747EB030143
:1002580040EAD570B6196D4111E06D084FEA3606CF
:1002680045EAC0754FEA0752001B61EB0201001C0A
:1002780041F5801149084FEA3000001951413246D2
:100288002B4603B0BDE8F04F00F059B900980122A1
:1002980040000023D0EB020263EBE0730098214694
:1002A8004FEAE074B8EB000061EB0401E9E783F082
:1002B80000435BE781F0004158E72DE9FE4F81EAF2
:1002C800030404F0004421F0004100944FF0000BB7
:1002D80023F0004350EA01045ED052EA03045BD0E5
:1002E800C3F30A54C1F30A552C44A4F2F33401941D
:1002F800A0FB0254C1F3130141F48011C3F31303AB
:1003080043F4801301FB024400FB034E840A970A5E
:1003180044EA815447EA8357A4FB076802958D0A8B
:1003280005FB07854FEA932C04FB0C542705029D17
:100338004FEA065847EA1637B5EB08056EEB070C87
:10034800870E920E47EA811742EA8312A7FB020141
:10035800B6EB0B0164EB00042B0D43EA0C335E187B
:1003680044EB1C50DA465146E7FB0201C5F313047F
:100378004FEA0B3343EA14534FEA0432019C43EA31
:100388000603A4F10C040294009CCDE900B400F02B
:10039800E5F803B0BDE8F08F00200146F9E72DE944
:1003A800F04D81EA030404F0004B21F000451446A7
:1003B8004FF0000A23F0004150EA050220D054EA29
:1003C80001021DD0C5F30A570246C5F31303C1F352
:1003D8001300C1F30A5640F4801543F48013A7EBC9
:1003E8000608101BD64608F2FD3873EB050002D349
:1003F80008F1010801E092185B41B8F1000F03DA37
:1004080000200146BDE8F08D00204FF4801106461B
:1004180084460EE0171B73EB050705D3121B63EB2D
:10042800050306434CEA010C49084FEA30009218CC
:100438005B4150EA0107EDD152EA030012D082EA8B
:10044800040083EA0501084305D0101BAB4106D21E
:100458000122002306E000224FF0004302E06FF083
:10046800010253101AEB06004CEB085110EB0A007E
:1004780041EB0B01BDE8F04D00F061B8C1F30A5241
:10048800C1F3130140F2FF3341F480119A4202DABA
:1004980000200146704740F233439A42A2F23342A9
:1004A80002DC524200F029B800F018B830B5041E3A
:1004B80071F1000404DB4FF00044404264EB010199
:1004C800141E73F1000405DB1C464FF00043524232
:1004D80063EB0403994208BF904230BD202A04DB35
:1004E800203A00FA02F1002070479140C2F120033F
:1004F80020FA03F3194390407047202A04DB203A7E
:1005080021FA02F00021704721FA02F3D040C2F12B
:1005180020029140084319467047202A06DBCB1772
:10052800203A41FA02F043EAE07306E041FA02F3A6
:10053800D040C2F12002914008431946704710B5D7
:10054800141E73F1000408DA401C41F100019218EE
:100558005B411A4301D120F0010010BD2DE9F04D97
:1005680092469B4611B1B1FA81F202E0B0FA80F2EC
:1005780020329046FFF7B2FF04460F4640EA0A00D1
:1005880041EA0B0153465A46084313D0114653EA31
:10059800010019D0C8F140025046FFF7AEFF0546EA
:1005A8000E46504659464246FFF798FF084305D085
:1005B800012004E020463946BDE8F08D00200543BF
:1005C80046EAE0762C4337430A986305E40AA0EB31
:1005D80008000022FD0A44EA47540A3002D50020E8
:1005E8000146E9E7010510196941DDE908450019E7
:1005F8006941BDE8F04DA2E700BE70472DE9F04122
:1006080046F22018C4F20008B8F80000B8F8201024
:1006180040F6385501EA0006B7B20024C2F20005D8
:1006280027FA04F0C00704D055F8241009B1204671
:1006380088470134102CF3D1A8F81060BDE8F08188
:10064800B0B543F22404C4F208040025C8200121EF
:10065800257100F0A3F8257020780028FCD12078B7
:1006680040F00200207000BF20788007FCD40020F2
:1006780004F8020C14F8020C0028FBD10020012118
:1006880004F11C0212F8103003F07F0302F8103056
:1006980012F91030002BFBD4C9074FF001004FF0BE
:1006A800000108BFB0BDEDE74EF2001CCEF2000C11
:1006B800090100EB0C0383F8001340F6D051C2F295
:1006C800000141F8202046F20031C4F2000151F83F
:1006D8002020012322F4803241F8202051F82010F4
:1006E80000F01F02400903FA02F20CEB8003BFF38B
:1006F8005F8FC3F880214CF82020704780B5012215
:10070800EFF3108182F3108840F68452C2F200029F
:1007180032F810308BB94EF2FE3C42F64443C4F234
:10072800010CC0F20003BCF800E033F8103043EAD3
:100738000E0343F42543ACF8003032F8103001338F
:1007480022F8103081F3108880BD0122EFF3108168
:1007580082F3108840F68452C2F2000232F8103058
:1007680023B132F81030013B22F8103032F8102053
:100778008AB94EF2FE3CC4F2010C42F64442BCF87F
:100788000030C0F2000232F8100043F4254222EA99
:100798000000ACF8000081F31088704740F658025A
:1007A800C2F20002126801FB00F041F20021C0F21F
:1007B8007A018A420FD340F6FF01C0F23D0111448D
:1007C8004DF68362C4F21B32A1FB0212110DA0FB8D
:1007D8000101E9B11FE04CF60021C3F69A3148F651
:1007E8003813C0F24103B1FBF2F1984207D24FF43B
:1007F8007A7200FB02F0B0FBF1F0800808E0890093
:10080800B0FBF1F0984206D24FF47A7100FB01F088
:1008180028B100F072BF4FF0FF3000F06EBF704794
:100828007047022818BF704740F6785042F64031AA
:10083800C2F20000C0F2000100F072B90620704751
:10084800D0B1016844F20032C4F25442914215D149
:10085800426846F20031C4F2000151F8223023F018
:10086800807341F8223040F20003C2F200030021F5
:1008780043F82210016002E0012100E00721084648
:100888007047A8B1016844F20032C4F25442914260
:100898001CBF07207047406846F20031C4F20001CF
:1008A80051F8202022F0807241F820200020704763
:1008B8000120704750B1016844F20032C4F254423A
:1008C80091421CBF0720704701F0F8B8012070471B
:1008D800E0B1026844F20033C4F254439A421CBFA8
:1008E8000720704791B1406840F20002C2F200024E
:1008F80052F820000022C1E90022C278402A07D21B
:100908004FF480328A60C089C86011E001207047C6
:100918004FF480728A60C289D2B2CA60C27802F08B
:10092800C002802A04D14FF480320A60808948606E
:100938000020704750B170B50446006844F2003694
:10094800C4F25446B04203D10E2070BD0120704756
:100958000D46A1B3696891B340F6E052C2F20002B5
:100968001078002840F20000C2F200001FD14FF0BA
:10097800010C44F2000382F800C0EFF310828CF3FC
:100988001088C4F20803196821F4800119601968F5
:10099800002182F31088C0E90011C0E9021145F274
:1009A8000C41C4F20001886081F800C069680968D8
:1009B800002906D450F8210028B1082070BD012074
:1009C80070BD0B2070BD2868616038B101F056F821
:1009D8000028BAD12968204601F0ACF8002026602A
:1009E80070BD000080B1B0B504460D46006844F201
:1009F8000031C4F25441884208D11DB1284601F0A3
:100A08003DF828B10120B0BD012070470720B0BDD6
:100A1800E87800F03000302801D10620B0BD6068C9
:100A280046F20031C4F2000151F8202022F0807211
:100A380041F82020606845F20E4140F40040C4F2BD
:100A4800000100BF0A889042FCD02046294601F0E8
:100A580071F8204601F032F8002818BF1320B0BD05
:100A68000620704780B582B001910092C0B301683A
:100A780044F20032C4F25442914233D1416840F208
:100A8800000246F2003EC2F20002C4F2000E52F822
:100A980021C05EF8212022F080724EF821204168A2
:100AA80045F20E4EC4F2000E41F40041BEF800209B
:100AB8009142FBD008218EF80210019911B10199D9
:100AC800CCF80410009911B10099CCF808109CF8E2
:100AD800031001F0C002802A06D1ACF80C3007E000
:100AE80001200DE007200BE03F2998BFACF80E303D
:100AF80018218EF8021000F0E1FF002818BF13201B
:100B080002B080BD062070470620704700280FBF3E
:100B180001200021C0F20461016018BF0020704765
:100B28004FF00102C0B1B9B14A688AB1036845F211
:100B38005422C5F24F02934201D10E220CE080B537
:100B48000260084601F018F80022BDE8804003E082
:100B58000A88002AEAD001221046704700B30068CC
:100B680045F25423C5F24F0398421CBF0720704733
:100B7800012A84BF03207047C8B2012383409BB277
:100B8800002A4FF4FF524FF4803C08BF0CFA00F3E0
:100B980002EAD1010820C4F208000B500020704777
:100BA80001207047002869D010B50446006844F653
:100BB8005311C5F24331884262D1A0680021817087
:100BC80060684EF280138168012001F01F0200FA6C
:100BD80002F24909CEF2000343F82120BFF34F8FF8
:100BE800BFF36F8F61684FF0004C496801F01F0236
:100BF80000FA02F2490943F82120BFF34F8FBFF3EF
:100C08006F8F6168096901F01F0200FA02F2490951
:100C180043F82120BFF34F8FBFF36F8F6168C96816
:100C280001F01F0200FA02F2490943F82120BFF33C
:100C38004F8FBFF36F8FEFF3108180F3108844F26A
:100C480004036068C4F2080300781A682CFA00F0FC
:100C580010431860186881F310886068016B21B12F
:100C68008A680868116A88476068C06A18B181682C
:100C78000068096A88470020206010BD012070477D
:100C8800072010BD50B170B50446006844F65316ED
:100C9800C5F24336B04203D10E2070BD0120704723
:100CA8000D46002944D0E86B002841D0696B01202B
:100CB8000029F2D02A7840F201239040184239D016
:100CC8006868002834D4A868002831D4E868002867
:100CD8002ED4286900282BD448F20000C4F2110051
:100CE80000EB02202162C4E90150A86BA062002039
:100CF8006062204601F093F80028CED1204600F02B
:100D0800B8FF6868297D2246FFF7CEFCA868697D90
:100D18002246FFF7C9FCE868A97D2246FFF7C4FC14
:100D28002869E97D2246FFF7BFFC0020266070BDD8
:100D3800012070BD40F27A5070BD072B1CBF062001
:100D4800704794460A4619B10021634601F098B8E5
:100D580001207047072B1CBF0620704721B194461D
:100D68000022634601F08CB801207047DDF800C00E
:100D7800BCF1070F07D184464FF0010021B11AB129
:100D8800604601F07DB806207047000000F042FA86
:100D980000F06EFEFEE7F0B581B0144640F65C0246
:100DA800C2F2000212780D46532A064618BF00F018
:100DB800B1FAEFF311874FF0200181F31188304623
:100DC8002946224600F004F887F3118801B0F0BDE7
:100DD8002DE9F04381B000EB400040F65C03C2F21D
:100DE800000303EBC0031446D86A8946022803F1BE
:100DF800180517D001280DD050B9EE682869B042FF
:100E08008FBFF143A968F24310440844A04234D28A
:100E1800002451E0EE682969B1420BD9F243A86871
:100E280011440BE028464946224601B0BDE8F0438C
:100E380000F050BBA868F24311440144A14238BFF6
:100E48000C46871B6868BC42304407D24946224694
:100E5800FFF70EF9BFF35F8F26440CE049463A4688
:100E6800FFF706F9E61B686809EB07013246FFF74A
:100E7800FFF8BFF35F8FEE601EE0D5E90101304453
:100E88008F1BBC4208D249462246FFF7F1F8BFF350
:100E98005F8F06EB04080DE049463A46FFF7E8F88D
:100EA800A4EB0708686809EB07014246FFF7E0F87A
:100EB800BFF35F8FC5F80C80204601B0BDE8F08312
:100EC80082B080B582B0CDE9042304AA019201AAB8
:100ED80000F006F802B0BDE8804002B0704700009C
:100EE8002DE9F04F9BB0934606AA1692402217921E
:100EF800002200278A4605901A90CDE9182200BFE3
:100F08001AF8012B252A07D0002A00F0598116A8C3
:100F1800114600F0BFFA38E1881C4FF0000800BF06
:100F28009AF800102C2905DC232909D02B2911D186
:100F3800042108E02D2905D030290BD1022102E037
:100F4800082100E0012148EA01080AF1010A0130FC
:100F5800E6E700BFA1F13A02002612F10A0F0ED30C
:100F680006EB860201EB420210F8011BA2F13006E3
:100F7800A1F13A0313F10B0FF2D8A0F1010A2E29BF
:100F88000ED1514611F8010F2A280CD1DBF80000C8
:100F98000AF1020A011DCBF8001004681FE000BF27
:100FA800002000241CE0A0F13A0212F10A0F03D23B
:100FB800002000248A4613E00AF10201002400BF41
:100FC80004EB840200EB420211F8010BA2F1300499
:100FD800A0F13A0313F10B0FF2D8A1F1010A012095
:100FE8001AF8011B01F0FB02682AF9D063290FDC0B
:100FF80025292FD0582924D0632940F0C680DBF852
:101008000000011DCBF80010017816A881E700BF89
:10101800A1F17002082A20D8DFE802F005B7B7531B
:10102800B74CB7B71300DBF800001022011DCBF84E
:101038000010016816A8082300270826CDE90067D4
:10104800A1E0DBF800001022011DCBF800100168B8
:1010580016A895E016A825215BE7642940F095803D
:10106800DBF80000011DCBF800100568C5F1000C85
:10107800002D284600D560464CF6CD430A28CCF60C
:10108800CC434FF0010907DBA0FB031263284FEAAA
:10109800D20009F10109F7D84C4588BFA1468EB3A3
:1010A8000020002D48BF012008F0040140EA91000B
:1010B800361A28E0DBF80000011DCBF800100168A3
:1010C8005CE0DBF800100A1DCBF800200E6844A293
:1010D8003146002E18BF012100EA010508BF164657
:1010E8003178002951D0B4FA84F0400928404CD115
:1010F80016A8013600F0CEF9199F013CB7F1FF3F61
:10110800EEDC68E000265FEA88710BD554B9002F41
:101118003BD4002D24D45FEA487004952BD5039165
:101128002B2121E05FEAC870F1D1002EEFD0B14544
:10113800EDD2CDE902C10495751E00BF16A8202185
:1011480000F0A8F9199F002F45D4681EA84202D2C2
:10115800A9450546F2D3DDE902C1049D461CD6E740
:1011680003912D21CDF810C016A800F093F9199F0E
:101178000399002F2FD400290ED4049916A80A2207
:101188002346CDE9006800F005F9199F5146B7F1EB
:10119800FF3F3FF7B5AE1EE008F001002043ECD159
:1011A800002EEAD0751EB54238BFB145E5D216A863
:1011B800302100F06FF9199F2E46002FF2D50AE072
:1011C80047B1189C24B1059806A92246FFF7E3FD0C
:1011D800274400E0002738461BB0BDE8F08F00BF69
:1011E800284E554C4C2900004EF22000C4F2010054
:1011F8008179006840F64002C2F20002C0F3026042
:1012080052F8211021FA00F040F65801C2F200010C
:101218000860704710B54EF60850CEF200004FF443
:101228007001C0F8801040F20001C0F200010160B6
:1012380000200024FFF7F5FA00F082F90120FFF7FB
:10124800F0FA40F24040C2F2000080F30A88002021
:1012580000F032F8FFF7C8FFFFF7F2F90320FFF7B5
:101268004DFA40F61050C4F208004FF6FF7100BF67
:1012780020F814100134092CFAD10320FFF765FA7D
:101288000320FFF73BFA0420C4F20E00002101609E
:1012980041608160C1600320FFF757FA0220FFF721
:1012A800C0FA012000F008F800F0E2F90020BDE8DB
:1012B800104000F0DCB90000F0B581B042F61C45E2
:1012C800C0F200052E68044676B16868071D00BFA5
:1012D8007879844204D157E90101091AFEF7E1FE41
:1012E800013E07F10C07F3D1AE6886B1E86800F15A
:1012F800080500BF6879844205D155E902022968CA
:10130800121AFEF7B5FE013E05F11005F2D101B043
:10131800F0BD000010B540F65C04C2F2000420469F
:10132800A821FEF7BEFE03202061606143F2990008
:1013380040F61411C0F20000C2F20001A061E161A0
:101348004FF4806121620021A1626162E16220663E
:1013580040F60410C2F2000060661020A066216703
:10136800E1666167BFF35F8F0F2005A10A5C013852
:1013780004F8012B421CF9D1BFF35F8F10BD00BFE9
:10138800000000000000545452205245474745537E
:10139800000000002DE9F04F81B0DDF828A01F46BD
:1013A80015468B46914281464FF0010405D35846B5
:1013B800B0FBF5F00134A842FAD20B99A74288BFD6
:1013C8003C46BAF1000F1DD011F001001AD14FF0C0
:1013D8002008880748BF4FF030082020002F18BF8A
:1013E800804600BFBAF1000F0CD054450AD24846D7
:1013F8004146AAF1010A00F04DF8D9F80C00B0F105
:10140800FF3FEFDCD9F80C00002838D4012600BFD4
:10141800022F01D3013F03E0BBFBF6F0A84202D341
:1014280006FB05F6F4E70FF25C0800BFBBFBF6F716
:10143800484618F8071000F02DF8D9F80C000028D5
:1014480006D4B6FBF5F007FB16BBB5420646EDD948
:101458000B98C00718BFBAF1000F10D009E0484632
:10146800202100F017F8D9F80C00AA46B0F1FF3F88
:1014780005DDAAF10105554538BF5445EFD301B044
:10148800BDE8F08F303132333435363738394142A0
:101498004344454610B50446D0E90120431C934215
:1014A80007D822681154E06862680130E060184685
:1014B800A360904218BF10BD21682069FFF76BFC3C
:1014C800A168884202D10020A06010BD4FF0FF3013
:1014D800E06010BD2DE9F04381B0C76814460D46A1
:1014E80080464FF0000900BFD8F81010D8F808005F
:1014F800FA43B9421144A0EB070698BF0144B14230
:1015080038BF0E46D8F80400A64228BF26463844FD
:1015180029463246FEF7ACFDD8F80800F119A41B9D
:101528000F1AB14418BF0F463544BFF35F8F002C24
:10153800C8F80C70D8D1484601B0BDE8F083000067
:101548002DE9F0414EF2FE34C4F201044AF2035090
:101558004CF200152080C4F201050120A88000BFCC
:10156800A8880028FCD147F200010120C4F200013C
:1015780028808860086040F6400642F6005041F234
:101588000022C2F20006C0F231104FF40041C0F24E
:101598007A02C6E90002C6E902104CF20020C0F641
:1015A800EB304EF220073161C4F201077061B8795F
:1015B800396856F82000C1F3026140F65808C8405F
:1015C800C2F20008C8F8000000206075092087F8FA
:1015D800820094F8820018B994F88300800741D0FB
:1015E80094F8820050B9012084F88200C8200121B3
:1015F800FFF7D4F894F882000128FBD1002084F882
:10160800830084F882000020B87400BF387F000788
:10161800FCD54FF4985038810020B872387F800686
:10162800FCD50320287741F22120C2F2000038605F
:101638000520B871B879396856F82000C1F30261FD
:10164800C840C8F8000042F20800C4F20000F121C6
:10165800017101210170F02101714FF425402080B2
:10166800BDE8F0814FF47A70FFF7DAF8CBE77047FE
:1016780070B584B048F248060320C4F20006FFF7AC
:101688003DF86FF0FF0042F6344430604FF0FF3011
:101698000021C0F200040122CDE9020054F82130F3
:1016A80002FA01F5002B18BFA84301310429F5D12E
:1016B8004EF280320190002001A9CEF2000200BF54
:1016C80051F8203006EB8005AB6242F8203001303B
:1016D8000328F5D10320FFF738F846F2003100203F
:1016E800C4F2000154F820200AB141F8202001304A
:1016F800042804BF04B070BDF4E701380028FCD109
:10170800704700002DE9F04104460088A0B343F279
:10171800400700250FF26408C4F20807002600BF3E
:10172800606858F8262000EBC500416891421CD13A
:10173800006800F0B85117F91600B1F1807F07D1A1
:10174800002812D417F8160060F07F0007E000BFE9
:10175800B0F1FF3F09DC17F8160000F07F0007F82A
:101768001600C8200121FFF719F80136032ED7D13A
:10177800208801358542D1D3BDE8F08102040000FC
:10178800030400000404000084B0002003908DF8D6
:101798000A004FF4D060ADF8080003A8FFF7B6F9C7
:1017A8009DF80D709DF80E609DF80F3042F685612A
:1017B80099A2C0F200010020CDE90067FFF780FB85
:1017C80042F66851C0F200010020FFF779FB40F6AD
:1017D800945042F65041C2F20000C0F20001FFF7F7
:1017E80051FAA8B143F2730143F28F0204468BA366
:1017F800C0F200010020C0F20002FFF761FB42F6D0
:101808004851C0F2000100202246FFF759FB00BEF4
:1018180040F67850C2F2000040F201310122FFF791
:101828009DF940F69450C2F2000002A90322072352
:10183800FFF790FAD0B1044600F08AFB43F2730137
:1018480043F28F0242F67063C0F200010020C0F23A
:101858000002C0F20003FFF733FB42F64851C0F222
:10186800000100202246FFF72BFB00BE00F0C8FB5A
:1018780040F67854C2F20004204640F201310022BA
:101888000025FFF76BF940F68050C2F200000560B2
:10189800204640F201310122FFF760F940F6145466
:1018A80040F69450C2F20004C2F20000214602221F
:1018B8000723FFF742FAD0B1054600F049FB43F28F
:1018C800730143F28F0242F67063C0F200010020F8
:1018D800C0F20002C0F20003FFF7F2FA42F64851E4
:1018E800C0F2000100202A46FFF7EAFA00BE00F025
:1018F80087FB40F67850C2F2000040F20131002226
:10190800FFF72CF99DF809006178884208D042F663
:101918004851C0F2000100201B22FFF7D1FA00BE97
:10192800C8204FF47A71FEF739FF40F6185440F694
:1019380078559FED478A40F6E25644F24029C2F2B4
:101948000004C2F20005C2F200060FF2081A0FF2F4
:10195800081BC0F20F09072740F68050C2F20000AA
:101968000021016020461E21FEF79BFB284640F21D
:1019780001310122FFF7F2F840F6945040F23401A9
:10198800C2F20000C2F20001324603230097FFF7BB
:10199800EDF9B8B1804600F0DBFA43F2730143F287
:1019A8008F020020C0F20001C0F2000221A3FFF75D
:1019B80087FA42F648510020C0F200014246FFF77C
:1019C8007FFA00BE00F01CFB284640F201310022DD
:1019D800FFF7C4F8B0787178000140EA111000EE02
:1019E800100AB8EE400A20EE080A10EE100AFEF7B8
:1019F80063FB41EC100B20461E218DED000B524677
:101A080000F004FC002059462246FFF759FA02204C
:101A18004946FEF7C3FE9FE7312E30000D0A2053DA
:101A280043495F535049206F70656E206661696C49
:101A3800656400000D0A535049205265616457726D
:101A4800697465206661696C65640D0A00000000B0
:101A58000000803D256600000D0A54656D706572B2
:101A680061747572653A20202573202A43000000AE
:101A780080B5FFF789FE002080BD00000E3000BF52
:101A880010F80B2C02F00C01042914D010F80C1CCF
:101A980001F00C03042B0ED0402A05D30288B2F5BE
:101AA800807F84BF012070473F2900F110009CBF50
:101AB80000207047E4E706207047000080B5D0F8A2
:101AC80004C040F20000C2F2000050F82C004FF0B1
:101AD800FF3E011D11F8010C00F00C03042B26D069
:101AE80011F8023C03F00C02042A20D00A68E2B183
:101AF8004A68D2B1C0F301104A680EFA00F0C04338
:101B0800024212D10A6802420FD13F2B01F11001A3
:101B1800E0D846F20030C4F2000050F82C1041F032
:101B2800807140F82C10002080BD012080BD062067
:101B380080BD000001F10E0212F80B3C402B06D3C9
:101B4800B2F800C05FFA8CF343EA0C23138012F852
:101B58000C3C10323F2BEFD845F21042C4F2000281
:101B680008231370406840F20003C2F2000343F8F0
:101B7800201018201070704770B50446FFF7C2FD9A
:101B880040F6905CEFF31080012181F31088C2F2D7
:101B9800000CDCF8001039B940F60351C4F2080112
:101BA80000220A7040220A70DCF800100131CCF8DB
:101BB800001080F31088208818B340F6000E00212A
:101BC800C4F2080E606800EBC10250F83130526868
:101BD800DD034FEA1220D2B20BD50EEB801555F873
:101BE800226026F4803645F8226023F4803645F8D2
:101BF80022600EEB8010013140F8223020888142AB
:101C0800E0D30120EFF3108180F31088DCF80000A6
:101C180020B1DCF800000138CCF80000DCF8000046
:101C280038B940F60350C4F208000022027080223E
:101C3800027081F3108870BD10B584B00446406A04
:101C480030B1D0E900C283680393CDE901C200E056
:101C580001A86268D4F820C01278A36AC0E90021FC
:101C68008360E047606A10B101AB0ECB0EC004B0D0
:101C780010BD2DE9F04344680021D4E90636D4F8B4
:101C88003CE0256A9EF801209EF802C0012B08BF9F
:101C98000521012E03D1002D08BF403104E0802624
:101CA800012D08BFC0263144D4F82890EFF31085E1
:101CB800012787F3108824784FF0004727FA04F4A7
:101CC80044F20407013BC4F20807B3FA83F33E6801
:101CD8005B094FEA43084FFA8CF326EA04043C6098
:101CE800B3F1FF3F3C68A8BF4FF0FF3385F310887E
:101CF80085680024AC7085686FF01D062F798427ED
:101D08002F7185684FF47847AF822025876865F37F
:101D18009F023A708268B9F1000F82F802808268E7
:101D280008BF6FF0150696719EF800208768042694
:101D38007A70826806EA5C1793748268D771826841
:101D48005173816840220C7281684C7281688C7270
:101D58008168CC7281684C838168CA74806802216A
:101D68000177BDE8F083016929B14268D36A13B9E4
:101D7800126B002A51D0A02283680029997818BFD5
:101D880042F05002114399704168CA6A02B1704723
:101D98000A6B002AFBD10269002AF8D049684EF282
:101DA800001C01F01F02CEF2000C490901230CEBC4
:101DB800810103FA02F2C1F88020BFF34F8FBFF30D
:101DC8006F8F4269C1698A4209D2C368002B14BF68
:101DD8009A5C00228168CA7041694A1C4261436862
:101DE800996901290FD1C16902290CD38A420AD203
:101DF800C368002B14BF9A5C00228168CA704169CD
:101E08004368013141615868012200F01F0102FA5C
:101E180001F140094CF8201070472022ACE770B55A
:101E280046680446316B79B148684FF4002200686F
:101E380002600868D1E90112A3680D6805336B6078
:101E4800126890470546C8B9F16AB1B148684FF0C1
:101E58000062006802600868D1E90112A3680D6891
:101E68000333AB601268904738B10546306B28B130
:101E780081680068096A884700E00025284670BD27
:101E880098B170B515460446006844F65312C5F279
:101E9800433290420BD11E4683B16268D06A40B18A
:101EA8000023B3EB164F09D10AE001207047072041
:101EB80070BDB6F5803F03D3136B0BB1012070BD25
:101EC800A3689B7813F0300F01D0082070BD002361
:101ED800C4E90315C4E90533E661D8B1426866610F
:101EE80012680029D681D37823F00C0318BF083371
:101EF800D37040F6E152D0E9013CC2F2000218BFAB
:101F08000A46196800684A60DCF8042090470028EF
:101F1800CED162686DB1106B58B181680068D1F894
:101F280008C0B3B200212A46A661E047002818BFBE
:101F380070BD2046FFF717FF002070BD406840F6CF
:101F48008051C2F20001012818BF022008607047C2
:101F580080B540F69450C2F20000FEF723FE50B15F
:101F680043F2730104A208A3C0F200010020BDE8F7
:101F78008040FEF7A5BF80BD7363695F7370695FBA
:101F88006465696E697400002A2A20525F534349C8
:101F98005F5350495F436C6F736520415049206619
:101FA8006F72206D6173746572206661696C656417
:101FB800202A2A20200D0A0010B5EFF3038040F2F2
:101FC800FC7101EA800440F6D050C2F200002044BF
:101FD80050F8400C81688A7802F003028A708168A0
:101FE8000A7984220A710421FFF726FE46F2C020EE
:101FF800C4F20000215821F480312150205810BD2E
:102008002DE9F04740F68056C2F2000630680128F4
:1020180008BFBDE8F08740F2300443F2730A43F288
:102028005F0542F64857C2F20004C0F2000AC0F247
:1020380000050FF28C09C0F200070FF2600800BF1C
:102048002068013820602068002813DD30680228E5
:102058001ED1FFF77DFF002051462A464346FEF772
:102068002FFF002039464FF49672FEF729FF00BE75
:102078000EE000BFFFF76CFF002051462A464B4692
:10208800FEF71EFF002039461422FEF719FF00BE96
:1020980030680128D4D1BDE8F08700BF0D0A53503D
:1020A80049206D6F64756C65207472616E73666526
:1020B800722061626F727465642E0D0A0000000060
:1020C8000D0A535049206D6F64756C6520626C6F02
:1020D800636B656420696E2057726974652F526559
:1020E8006164206F7065726174696F6E2E0D0A00ED
:1020F800EFF3038040F2FC7101EA800046F2C02150
:10210800C4F20001425822F48032425040F6D052C4
:10211800C2F200024158104450F8400C4269C169AB
:102128008A420AD2C168002914BF895C00218268EA
:10213800D1704269C1690132426182698A4209D219
:10214800816891F805C00369511C816103F802C0D8
:10215800D0E906218A4218BF70478068817801F06B
:102168003B0104318170704710B5EFF3038040F2F2
:10217800FC7101EA800440F6D050C2F2000020440D
:1021880050F8400C81688A7802F003028A700121B5
:10219800FFF752FD46F2C020C4F20000215821F496
:1021A80080312150205810BDEFF3038040F2FC71BC
:1021B80001EA800046F2C021C4F20001425822F42C
:1021C8008032425040F6D052C2F2000241581044C8
:1021D80050F8400C4169C26991420AD2C268002A8B
:1021E80014BF515C00218268D1704169C269013114
:1021F8004161914209D10169002918BF704780687F
:10220800817801F07B010431817070470FB47CB58F
:102218000C0009AD01D0611E00E00021CDE90001EC
:10222800064B6A462946089800F0CCF8002C02D0E4
:10223800009A002111707CBC5DF814FBFB2A000099
:102248002DE9FF5F82B00021DDE90430020DDDF8E1
:1022580040B0034318D044F61050A2F2FF32424374
:102268001514119801281FD0A5EB0B00401C5FEA3C
:10227800000A4FF000064E4FDFF83891B04650463E
:1022880015D5CAF1000413E0119801244AA30128C6
:1022980001D16FEA0B010298119AC0E90031C0E937
:1022A800024206B0BDE8F09FCBF10000DFE704462C
:1022B8000021404A491842EB0450CDE9001012E0D1
:1022C800E00707D032463B4640464946FDF7F5FF52
:1022D8008046894632463B4610461946FDF7EDFFD3
:1022E80006460F466410002CEAD1DDE90401DDE959
:1022F8000023BAF1000F06DAFDF7DFFF42464B462E
:10230800FDF7DBFF05E0FEF74AF842464B46FEF7CD
:1023180046F804460E460022284BFEF7C7F803D8B5
:102328004FF0FF30014607E00022254B204631469A
:10233800FDF71CFFFEF7A2F8102409E0002C0ADBC9
:102348000A220023FDF7E1FE039B30321A55641E72
:1023580050EA0102F2D1641C039AC4F11103144437
:10236800119A012A03D0012208430DD10AE008433B
:1023780004D000204FF0110B119072E7A3EB0B056E
:102388006D1E0DE05B4504DD4FF0000205F101050F
:1023980004E003DA4FF00002A5F10105002AECD0B1
:1023A80002981199C0E90231C0E9004579E70000B7
:1023B800000014400000F03F300000000000F0432F
:1023C8000000E03F2DE9FF4F95B09B468946064641
:1023D80000250FE2252877D100242746F84A012155
:1023E800059400E0044316F8013F203B01FA03F08E
:1023F8001042F7D130782A2811D06FF02F033078A7
:10240800A0F13002092A16D8059A44F0020402EB1A
:10241800820203EB42021044761C0590EFE759F85C
:10242800042B0592002A03DA504244F40054059024
:1024380044F00204761C30782E2816D116F8010FC5
:1024480044F004042A280DD06FF02F023078A0F150
:102458003003092B09D807EB870302EB4303C7189E
:10246800761CF3E759F8047B761C30786C280FD07B
:1024780006DC4C2817D068280DD06A2814D104E04F
:10248800742810D07A280FD10DE044F400140AE023
:1024980044F4801401E044F440147278824202D17A
:1024A80004F58014761C761C307866280BD013DC73
:1024B800582877D009DC002875D04528F6D046285A
:1024C800F4D047281AD19DE118E0632835D0642854
:1024D80079D0652812D195E1702873D008DC672877
:1024E800F1D069286FD06E280DD06F2806D1B5E0DD
:1024F80073282CD0752875D0782874D05A46179927
:1025080090476D1C75E1C4F30250022809D00328D6
:102518000DD0D9F8001004280DD00D6009F1040978
:1025280067E1D9F80010EA17C1E90052F6E7D9F8CF
:1025380000100D80F2E70D70F0E719F8041B8DF814
:10254800001000208DF80100EA46012003E059F848
:1025580004AB4FF0FF3061074FF0000102D40DE0EB
:1025680008F101018846B9420FDA8045F8DB1AF80C
:1025780008100029F4D108E008F1010188468142D9
:10258800FADB1AF808100029F6D105985B46A0EB8B
:10259800080721463846179A00F094FA284400EBB9
:1025A800080507E04DE029E10DE01AF8010B5A464D
:1025B80017999047B8F10108F7D25B46214638468B
:1025C800179A13E142E00A220092C4F302524FF034
:1025D800000A022A08D059F804CB032A4FEAEC7102
:1025E8000AD00DE029E02AE009F1070121F00702ED
:1025F800F2E802C1914609E00FFA8CFC4FEAEC714F
:10260800042A03D14FFA8CFC4FEAEC71002907DA4F
:102618000A460021DCF1000C61EB02012D2202E0E8
:10262800220504D52B228DF80420012203E0E207BD
:1026380001D02022F7E7904659E00A2102E0102253
:102648000DE010214FF0000A00910BE010224FF02E
:10265800000A44F004040827009203E008224FF01F
:10266800000A0092C4F30252022A05D059F804CB9A
:102678000021032A08D009E009F1070121F0070227
:10268800F2E802C1914605E01FFA8CFC042A01D148
:102698000CF0FF0C4FF00008220728D5702806D050
:1026A800009B83F0100353EA0A0305D00EE0402292
:1026B8008DF80420012208E05CEA010206D03022ED
:1026C8008DF804208DF8050002229046009B83F0C7
:1026D800080353EA0A030AD15CEA010201D162073E
:1026E80005D530228DF804204FF001087F1E5828A8
:1026F80004D034A003900EA802900DE036A0F9E7AC
:1027080053466046009AFDF700FD84460398825CB4
:102718000298401E029002705CEA0100F0D1029813
:1027280006A9081A00F1200A600702D524F48034AB
:1027380000E00127574502DDA7EB0A0000E0002072
:1027480000EB0A01009005984144401A0590E00307
:1027580006D45B462146179A059800F0B3F905445C
:10276800002706E001A85A46C05D179990476D1CDE
:102778007F1C4745F6DBE0030CD55B462146179ADC
:10278800059800F09FF9054404E030205A4617994F
:1027980090476D1C0099481E00900029F5DC08E060
:1027A800029802995A460078491C02911799904755
:1027B8006D1CBAF10001AAF1010AF1DC65E1000023
:1027C80009280100303132333435363738396162FF
:1027D80063646566000000003031323334353637C3
:1027E80038394142434445460000000000F058F99A
:1027F8000544761C307800287FF4ECAD19B02846E3
:10280800BDE8F08F620700D4062709F1070222F01D
:10281800070CFCE80223E14603F000485FEA080CD5
:1028280002D00FF2702C0DE05FEA045C02D50FF2C3
:10283800682C07E05FEAC47C02D00FF2602C01E04C
:10284800AFF2700C4FF0FF3823F00043CDF850C0C2
:1028580065280CD006DC452809D046281DD0472815
:102868003DD13DE0662818D067287ED138E00021A8
:10287800112F01DB112000E0781CCDE9000106A929
:102888000EA8FFF7DDFCDDE90F010E9A0391002188
:10289800009207F1010A04914DE04FF000400097C3
:1028A800CDE9011006A90EA8FFF7CAFCDDE90F0261
:1028B80003920E9B11990022DDF80CA0009304925C
:1028C80011B9791C00EB010AB7EB0A0004D4C0F176
:1028D800FF3007F1010A0490AAEB0700019044E0D9
:1028E800012F00DA01270021112F01DD112000E05E
:1028F8003846CDE9000106A90EA8FFF7A1FCDDE9DD
:102908000F010E9A0391002104910092BA46210703
:102918000CD40399514500DA8A46BAF1010F05DD56
:10292800009AAAF10101515C302908D0B84202DAB4
:1029380010F1040F06DA0121CDE9011015E0AAF122
:102948000101E9E7002805DC049901440491AAEB98
:10295800000102E0411C514500DD8A460499401AF5
:10296800401C01904FF000400290200704D40198C9
:10297800504501DBCDF8048000208DF84F00029807
:102988000DF14F07B0F1004F25D02B200E90029883
:102998004FF0020800280CDA404202902D200E90D9
:1029A80007E00A210298FDF79AFB3031029007F8F8
:1029B800011DB8F10001A8F10108F2DC0298002815
:1029C800EFD1791E0E980870307800F0200040F0A2
:1029D800450007F8020D12A8C01B00F1070814985B
:1029E800007800B1012000EB0A01019801EBE071C9
:1029F80005984144401A401E0590E00306D45B4602
:102A08002146179A059800F05DF805441498007857
:102A180018B15A46179990476D1CE00324D55B46B8
:102A28002146179A059800F04DF805441CE00498D3
:102A3800002807DBDDE90301884203DD0098405CDC
:102A4800179901E0179930205A469047049805F1E4
:102A58000105401C04900198401E019004D12E20CD
:102A68005A46179990476D1CBAF10001AAF1010A5C
:102A7800DDDC05E017F8010B5A46179990476D1CE5
:102A8800B8F10001A8F10108F4DC5B462146179A69
:102A98000598ABE62D0000002B0000002000000088
:102AA8002DE9F041044600251E461746880404D443
:102AB80005E039462020B0476D1C641EF9D528462C
:102AC800BDE8F0812DE9F041044600251E469046F8
:102AD800C80301D5302700E02027880404D505E085
:102AE80041463846B0476D1C641EF9D52846BDE8F6
:102AF800F0814A68002A06D00A68531C0B601070DF
:102B08004868401E486070471000002010000020F0
:102B18000000006000010C031000002010000020DD
:102B28000000000800000203100000203800002008
:102B380050000000000001031A0000004C2B0000A8
:102B4800000000000080000000000000008000007D
:102B580001000000008000000200000000000000EA
:102B68000300000000800000040000000080000056
:102B78000500000000000000060000000000000042
:102B880008000000008000000D00000000000000A8
:102B98000E000000000000000F0000000000000010
:102BA8000501000000000100080100000000010507
:102BB80009010000000001050A01000000000105EC
:102BC8000B010000040C00000D010000040C0100C2
:102BD80007020000000001000003000004000000DC
:102BE80001030000000000000203000000000000D4
:102BF80004030000040C00000004000000000000B2
:102C080003040000000000000804000000000000A9
:102C18000904000002000000A430000003000000C6
:102C2800102B000001000000402D0000B60100003C
:102C3800B7010000B8010000B9010000010002005E
:102C4800080010002000000009000000000000003B
:102C5800010000000200000003000000020202025E
:102C6800000000000100000000000000010000005A
:102C780000000000942C0000AC2C0000451F000050
:102C880000000000902C00007C010000C00D002016
:102C9800A02C0000C42C000010000020A82C00006C
:102CA80001000000C80D0020B82C0000C42C000052
:102CB80020000020C02C0000000000003D0900009A
:102CC800ED0900006D0A0000BD0800008B08000037
:102CD8000D0B0000110B0000D90800004908000086
:102CE800690A00004508000000000008000000080C
:102CF80000340000003400000000000040A2000181
:102D080040A2000104A1000100A1000104A20001E9
:102D180000A2000120A1000120A1000160A2000181
:102D280060A20001000000600000006000100020A8
:102D3800001000200000002040000020400000207B
:102D48000D0A52657475726E6564204572726F72F1
:102D580020436F64653A203078257820200D0A00DA
:102D68000D0A54686973204578616D706C65205050
:102D7800726F6A6563742064656D6F6E73747261D7
:102D88007465732074686520626173696320757364
:102D9800616765206F66205343495F53504920643B
:102DA80072697665722E0D0A5468652070726F6AB2
:102DB8006563742077726974657320636F6D6D61E4
:102DC8006E647320746F2074686520736C61766517
:102DD8002073656E736F7220616E64207265616422
:102DE80073207468652074656D706572617475729E
:102DF800650D0A76616C7565207573696E67205379
:102E080043495F5350492062757320636F6E66694A
:102E18006775726564206173206D61737465722EC5
:102E28005468652074656D7065726174757265208B
:102E380076616C756573206172650D0A636F6E74D7
:102E4800696E756F75736C79207072696E746564DC
:102E5800206F6E204A4C696E6B205254542056697C
:102E6800657765722E0D0A000D0A53504920577276
:102E7800697465206661696C65640D0A000D0A2A2B
:102E88002A2A2A2A2A2A2A2A2A2A2A2A2A2A2A2A9A
:102E98002A2A2A2A2A2A2A2A2A2A2A2A2A2A2A2A8A
:102EA8002A2A2A2A2A2A2A2A2A2A2A2A2A2A2A2A7A
:102EB8002A2A2A2A2A2A2A2A2A2A2A2A2A2A2A2A6A
:102EC8002A0D0A2A20202052656E657361732046F8
:102ED8005350204578616D706C652050726F6A653B
:102EE800637420666F7220725F7363695F737069C1
:102EF800204D6F64756C6520202020202020202024
:102F0800202020202A0D0A2A2020204578616D7073
:102F18006C652050726F6A656374205665727369B8
:102F28006F6E2025732020202020202020202020A4
:102F38002020202020202020202020202020202089
:102F4800202020202020202A0D0A2A202020466C1C
:102F5800657820536F667477617265205061636B82
:102F68002056657273696F6E202025642E25642EA5
:102F78002564202020202020202020202020202000
:102F880020202020202020202020202020202A0D42
:102F98000A2A2A2A2A2A2A2A2A2A2A2A2A2A2A2AA9
:102FA8002A2A2A2A2A2A2A2A2A2A2A2A2A2A2A2A79
:102FB8002A2A2A2A2A2A2A2A2A2A2A2A2A2A2A2A69
:102FC8002A2A2A2A2A2A2A2A2A2A2A2A2A2A2A2A59
:102FD8002A2A2A0D0A526566657220746F20726566
:102FE80061646D652E7478742066696C6520666FFF
:102FF80072206D6F72652064657461696C73206FEF
:103008006E204578616D706C652050726F6A6563DB
:103018007420616E640D0A465350205573657227FB
:1030280073204D616E75616C20666F72206D6F72D2
:103038006520696E666F726D6174696F6E2061627A
:103048006F757420725F7363695F7370692064724F
:10305800697665720D0A007363695F7370695F65ED
:1030680076656E745F636865636B005B4552525D9D
:1030780020496E2046756E6374696F6E3A20257319
:1030880028292C2025730068616C5F656E7472793D
:10309800005465726D696E616C000000400000208C
:1030A800400000200000000358080020E80D002020
:1030B8000000000300000406362E342E300042754E
:1030C800696C7420776974682052656E65736173E2
:1030D80020416476616E63656420466C6578696238
:1030E8006C6520536F667477617265205061636BFD
:1030F8006167652076657273696F6E20362E342E8F
:043108003000000093
:020000040100F9
:04A10000FFFFFFFF5F
:020000040100F9
:04A20000FFFDFFFF60
:0400000500000D9555
:00000001FF
