:100000006804FE1FB5270000A9260000B1270000E4
:10001000B1270000B1270000B1270000B127000080
:10002000000000000000000000000000B1270000F8
:10003000B127000000000000B1270000B127000038
:040040002D2300006C
:1000440001000000840000000300000054000000D0
:100054000400FE1F0400FE1F0000006000010C03EA
:100064000400FE1F0400FE1F0000104000000203F5
:100074000400FE1F6400FE1F400400000000010392
:0C0084008004FE1F0C79FE1F000000032A
:04040000FFFFFFFFFC
:04040400FFFDFFFFFA
:100440000000102800000000000000000000000074
:100450001800FE1F00000000D477FE1F3C78FE1F2E
:10046000A478FE1F00000000000000000000000053
:10047000000000000000000000000000000000007C
:10048000000000000000000000000000000000006C
:10049000000000000000000000000000000000005C
:1004A0000348044B834202D0034B03B11847704703
:1004B0006400FE1F6400FE1F000000000548064B9C
:1004C0001B1AD90F01EBA301491002D0034B03B152
:1004D000184770476400FE1F6400FE1F0000000004
:1004E00010B5064C237843B9FFF7DAFF044B13B17C
:1004F0000448AFF300800123237010BD8004FE1F69
:10050000000000000804000008B5054B1BB10549B8
:100510000548AFF30080BDE80840FFF7CFBF00BF3C
:10052000000000008404FE1F080400002DE9F041D3
:10053000D0E902850446A8EB0507406897422844A5
:10054000154408D83A460E46A5EB080502F0BCF95A
:1005500060682A46F11902F0B7F9BFF35F8FE560D2
:10056000BDE8F0812DE9F8430646D0E9020489464A
:1005700017464FF0000833699C4203F1FF3228BF51
:1005800003F1FF33A0EB04052ABF1B18131B1B1B31
:10059000BD4228BF3D469D42706828BF1D46494662
:1005A0002A46204402F090F9B0682C44A844A9449B
:1005B0007F1BA04208BF0024BFF35F8FF460002FB1
:1005C000D9D14046BDE8F88310B5154CA8220021CA
:1005D000204602F091F903212161124A616112481B
:1005E000A2614FF48C61E061002321620F48A36295
:1005F00010216362E36222666066A1662367E36698
:100600006367BFF35F8F0A4BA3F1100C1846C21A41
:1006100013F9011DA1546345F9D1BFF35F8F10BDDC
:100620000C09FE1F102A0000AC04FE1F9C04FE1FD4
:10063000AC3000002DE9F04FDFF8A89099F80030B9
:10064000532B83B005460F46144601D0FFF7BCFF7D
:1006500005EB450309EBC3034FEA4508D3F86CB03B
:100660001E6F5E451FD8ABEB060B5C4528BF5C4692
:100670001CB9204603B0BDE8F08FA24608EB050385
:1006800009EBC3033846596E2246314402F01CF987
:100690002644BAF1000F04D0A84409EBC808C8F8F2
:1006A00070605446E5E79A6E596E0193A2EB060A14
:1006B000A24528BFA24631445246384602F004F90A
:1006C000019B9B6E5644B342A4EB0A0414BFABEBF0
:1006D000060B00265C4528BF5C46002CD9D0574449
:1006E000A244CBE70C09FE1F10B50B46EFF31184B3
:1006F0004FF0200181F311881946FFF79BFF84F327
:10070000118810BD38B5214B00EB400403EBC40E3B
:100710000130DEF82C4000EB4000012C8C461546E1
:1007200003EBC00015D0022C0FD034BBDEF828300C
:10073000DEF8242093429CBFDEF820105B18013BBA
:100740009A1A95421CD9204638BDBDE83840FFF7BB
:1007500009BFDEF82830DEF82440A3429CBFDEF853
:1007600020105B18013B1C1B944228BF14462246F4
:100770006146FFF7DBFE204638BD0024204638BD29
:100780002A466146FFF7D2FE2C46DCE70C09FE1F25
:10079000F8B50B4B1B78532B04460D46164601D07B
:1007A000FFF712FFEFF311874FF0200181F311885B
:1007B000324629462046FFF7A5FF87F31188F8BD8A
:1007C0000C09FE1F10B5064C2378532B01D0FFF700
:1007D000FBFEE36E206FC01A18BF012010BD00BFE2
:1007E0000C09FE1FD0E9013210B50446501C984296
:1007F00007D823689954E2686368A0600132E26018
:1008000002469A4200D010BD21682069FFF7C0FF60
:10081000A368984215BF4FF0FF330023E360A36045
:1008200010BD00BF2DE9F84F1546A942DDF828900C
:100830000B9A0F4683461E4669D30B464FF00108BC
:10084000B3FBF5F39D4208F10108F9D9B04538BF73
:10085000B04612F0010A02D1B9F1000F3ED1DBF827
:100860000C30002B29DB012402E0013E05FB04F4DF
:10087000012EFAD8B7FBF4F39D4205D805FB04F42A
:10088000B7FBF4F39D42F9D9224E06E0AC42B4FB2B
:10089000F5F30CD31C46B7FBF3F3F156584604FBB3
:1008A0001377FFF79FFFDBF80C30002BEEDABAF17D
:1008B000000F02D0B9F1000F07D1BDE8F88FFFF7A4
:1008C00091FFDBF80C30002BF7DBC1454FF0200126
:1008D000584609F1FF39F2D8BDE8F88F930711D4D3
:1008E00020240AE0FFF77EFFDBF80C30002B09F133
:1008F000FF39E2DBB9F1000FB3D0C14521465846BC
:10090000F0D8ACE7002E0CBF30242024F5E74FF0E0
:1009100001089BE7B03000002DE9F04F9BB0402369
:100920000DF12809CDE904930023CDE90730804675
:100930000C461746069306E004A8FFF753FF079BF3
:10094000002BC0F2AE8014F9011B002900F0A18039
:100950002529F1D10026234613F9011BA1F1230219
:100960000D2A08D8DFE802F0800707070707070706
:100970007C0784070778A1F13002D2B2092A4FF030
:10098000000501D90EE0013305EB850501EB4505B6
:1009900093F90010A1F13002D2B2092A1C46A5F148
:1009A0003005F0D92E2900F08080002294F9001043
:1009B000924621F00403682B04F101045CD0252940
:1009C000BAD05839CBB2202BB9D82029B7D801A337
:1009D00053F821F0FB0A00003F0900003F09000026
:1009E0003F0900003F0900003F0900003F090000E7
:1009F0003F0900003F0900003F0900003F090000D7
:100A0000170B00009F0B00003F0900003F0900008A
:100A10003F0900003F0900003F0900003F090000B6
:100A20003F0900003F0900003F0900003F090000A6
:100A30003F090000810B00003F0900003F09000052
:100A4000450B00003F0900002B0B00003F09000090
:100A50003F090000FB0A000046F002061C467AE748
:100A600046F004061C4676E746F008061C4672E788
:100A700046F001061C466EE714F9011B21F0040341
:100A8000682B9CD114F9011B21F00403682B96D12B
:100A9000F2E7079B002B04DD069C002C40F0B3809E
:100AA000234418461BB0BDE8F08F94F901102A29A1
:100AB00009D13B6802341A1D3A6094F900101A6893
:100AC0004FF0010A75E7A1F13003DBB2092B04F105
:100AD00001044FF0000200F2E38002EB820201EB1E
:100AE000420214F9011FA1F13003DBB2092BA2F17C
:100AF0003002F2D94FF0010A5BE73868134601680B
:100B000010220430CDE9005638600DEB0200FFF7EB
:100B100089FE079B14E73B681A1D93F900103A60A1
:100B200004A8FFF75FFE079B0AE7386801680430F6
:100B30001346CDE900560A22386004A8FFF772FE7A
:100B4000079BFDE63B68191D39601D68002D00F00C
:100B50008E800132AE1815F9011B04A800293FF45C
:100B6000EEAEBAF1000F02D0B5423FF4E8AEFFF7A7
:100B700039FE079B002BEEDA18461BB0BDE8F08F5C
:100B80003A68116804323A60002208230192102268
:100B900000930DEB0200FFF745FE079BD0E63B6894
:100BA000D3F800B004333B608BEAEB73A3EBEB7339
:100BB000092B77DD4E484FF0010A19466329A0FB47
:100BC00003C30AF1010A4FEAD303F6DC924538BFAA
:100BD00092460DBB0798002503460028FFF661AF3B
:100BE000BBF1000F47DB730753D406F00303022B5E
:100BF0005BD01346CDE9005659460A2204A8FFF7F8
:100C000011FE079B9CE62246494640460393FFF7A8
:100C1000BFFD039B234444E7BBF1000F06F0020332
:100C20001CDB71071AD4002B59D0A2B1F3070ED5E3
:100C300011E004A80392FFF7D5FD0798039A002856
:100C400005F1FF350346FFF62CAF002DC5D0AA45B0
:100C50004FF02001EDD307980346BEE7013D0BB1ED
:100C6000002AF8D0F107F6D4002DF0D1B2E7214DDB
:100C70004FF0000A6DE72D2104A80392FFF7B2FDA3
:100C8000039ACBF1000B079800280346FFF609AF43
:100C9000ABE72B2104A80392FFF7A4FD039AF2E728
:100CA000924686E64FF0010A90E7002AA1D1002D76
:100CB0009FD055454FF0300117D904A80392FFF794
:100CC00091FD0798002805F1FF350346FFF6E9AED0
:100CD000039A002DEDD10028FFF6E3AE89E7F00777
:100CE000B5D5079B002B84DADBE60346F3E700BFAC
:100CF000CDCCCCCC1C2A00000EB400B582B003AB26
:100D000001AA53F8041B0193FFF706FE02B05DF839
:100D100004EB03B0704700BF0149024800F0FCBA81
:100D20002C3F00007477FE1F10B5074800F076FADC
:100D3000044608B9204610BD044B054A0549002069
:100D4000FFF7DAFF204610BD7477FE1F242A00004B
:100D5000C0300000542A0000034A0449044840F609
:100D6000AC5300F06BBA00BF6840FE1F00310000BA
:100D70007477FE1F0149024800F0A0B9C43E00008C
:100D80003077FE1F10B5074800F0DCF9044608B9BB
:100D9000204610BD044B054A05490020FFF7ACFF73
:100DA000204610BD3077FE1F702A0000E43000009E
:100DB000542A0000012810B518D0022806D0214975
:100DC0000020FFF799FF0024204610BD1E4800F0C8
:100DD000E5F91E4B01221A70044650B31C4B1D4A04
:100DE0001D490020FFF788FF204610BD164800F07F
:100DF000C5F90446A8B9154B184913481C7041F6AB
:100E0000583200F0DBF9164A04461378002BFCD068
:100E1000002010708CB1134B0E4A0F49FFF76CFF86
:100E2000D2E7114B0B4A0C490020FFF765FF204623
:100E300010BD0E49FFF760FFC5E70D492046FFF7DB
:100E40005BFFC0E7482B00003077FE1FB409FE1F90
:100E50000C2B0000D0300000542A0000B809FE1FFF
:100E6000B609FE1FD02A0000A02A0000302B000087
:100E7000F42A000008B5094B09490A484FF0000C54
:100E800041F6583283F800C000F098F9064A13780A
:100E9000002BFCD00023137008BD00BFB409FE1F57
:100EA000B809FE1F3077FE1FB609FE1F0379012B1C
:100EB00003D10249024A0B7013707047B609FE1F36
:100EC000B509FE1F10B4084A0849094C47F6FF70DF
:100ED00032F9023F03441B0AA24221F8023FF7D134
:100EE0005DF8044B704700BF6640FE1FB609FE1F49
:100EF0001677FE1F2DE9F04784B0002403A8039461
:100F000001F07CFB9DF80D009DF80E30514A5249CE
:100F1000CDE900309DF80F302046FFF7EDFE4F4938
:100F20002046FFF7E9FEFFF7F7FE002863D1FFF741
:100F300021FF044600287DD149490020FFF7DCFE4F
:100F4000FFF70AFF0446002863D1FFF7BBFF4549BE
:100F5000454C464E464DDFF83C81464F0020FFF79A
:100F6000CBFEFFF72FFC38BB2378002BF9D033786A
:100F700003F0FF09002BF4D184F80090FFF77AFF0B
:100F800082463D4B3D493A464846BAF1000F0BD0E8
:100F9000FFF7B2FEFFF7C8FEFFF7F4FE38495246EE
:100FA0004846FFF7A9FE00BE36490020FFF7A4FE21
:100FB000FFF708FC0028D7D0102229460020FFF7B1
:100FC00093FB284601F08EFCC0B2FFF7F3FE81468A
:100FD0000028C9D043463A4628490020FFF78CFE36
:100FE000FFF7A2FEFFF7CEFE25494A460020FFF795
:100FF00083FE00BEB8E7244B1E4A20490546204622
:10100000FFF77AFE1E492A462046FFF775FE00BE0E
:101010008DE71E4B174A19490020FFF76DFEFFF7B9
:1010200083FEFFF7AFFE164922460020FFF764FE5D
:1010300000BE8AE7164B0F4A10490020FFF75CFEFE
:10104000FFF772FE0E4922460020FFF755FE00BE54
:1010500072E700BF602B0000642B0000482D0000E9
:10106000A82F0000FC2F0000B509FE1FB409FE1FC9
:101070001877FE1FAC3E0000D02A0000542A000062
:10108000542F000080300000302F0000D42F0000CB
:10109000742F000054300000022800D07047024B2B
:1010A0000248596800F0C2BBB83E00002877FE1F16
:1010B00008B5FFF71FFF002008BD00BF00283AD089
:1010C0002DE9F0470C46002932D04B6883B30E68F7
:1010D00076B3B76867B3F36853B3DFF86480036926
:1010E0004345054629D0BB68C16000221B68826069
:1010F000D7E900019847E0B9D6F80C903268D9E9F1
:101100000113D3F800A00B689A603079DA7860F3A5
:101110000512DA70D9F80000D04750B9D4E901239C
:10112000C5E90579C5E90023C5F81080BDE8F08759
:101130000120BDE8F087012070470E20F9E700BFCD
:101140004D575041A8B10C4B02699A4210B5044664
:101150000DD143699A681868136B984730B9A36931
:101160009A681868136A984700B9206110BD072073
:1011700010BD0120704700BF4D57504150B1064B84
:1011800002699A4204D143699A68186853681847FB
:1011900007207047012070474D57504150B1064B12
:1011A00002699A4204D143699A681868936818479B
:1011B00007207047012070474D575041D0B1C9B149
:1011C00002F1FF3C4FF6FE739C4513D803F18243B6
:1011D00010B403F14F13046903F5AE439C420BD1E5
:1011E000806993B28268006894680022A4465DF822
:1011F000044B60470120704707205DF8044B70479F
:1012000000B5036883B001215A688DF804101B688B
:1012100000926846984703B05DF804FB48B1064B5E
:1012200042689A4203D10023436018467047072062
:1012300070470120704700BF4344415200285BD0F3
:10124000002959D0002A57D0002B55D02DE9F0475E
:101250002D4C4568A54254D15D004FD090F9004017
:10126000DFF8B080294F2A4E4FF0000E47F2323996
:1012700014E04B45A8BF4B4617F80CC043806444AC
:1012800064B2572CA8BF5724022C0EF1010EB8BF30
:101290000224754522F8023B04702FD091F800C05B
:1012A00038F814A01EF0010F14BF0CF00F0C4FEA19
:1012B0001C1C4FEADA0318BF01311CF0040F1CBFDD
:1012C00053449BB21CF0020F1CBF03EB5A039BB2AA
:1012D0001CF0010F1CBF03EB9A039BB21CF0080F1C
:1012E00018BF5B42B0F802A018BF9BB253441BB2B8
:1012F000B342BEDA064BBFE7012070470020BDE8CD
:10130000F0870720BDE8F08743444152D83F0000F2
:10131000CD8CFFFFE83F000058B151B1074A436848
:10132000934208D000230221438001704260184696
:101330007047012070470E20704700BF4344415260
:1013400048B1064B02689A4203D100230360184655
:101350007047072070470120704700BF54524F501C
:101360002DE9F84F0388DBB1DFF8D88082464FF0D3
:10137000000B4FF00109314D4FEACB070024DAF89A
:10138000043035F8022BD919898891420AD00134EA
:10139000032CF4D1BAF800300BF1010B5B45EAD80D
:1013A000BDE8F88FDB5903F0B85309FA04F6B3F13E
:1013B000807FF6B298F8BB3413D0334231D1204A43
:1013C00004F1200112F81130DB09E0D012F81130DD
:1013D00023F0800302F81130C820012101F01EF92A
:1013E000D5E7334211D0164A04F1200112F811302A
:1013F000DB09CCD112F8113043F0800302F8113030
:10140000C820012101F00AF9C1E7012001F0A6F985
:1014100098F8BB343343012088F8BB3401F06EF9EF
:10142000E1E7012001F09AF998F8BB3423EA0603BA
:10143000012088F8BB3401F061F9C0E79840000052
:101440000040044000E0014098B10C4B0068984215
:1014500011D172B10B0A1B0110B453FA81F1084C7F
:1014600054F821305DF8044BC3F34003002013709F
:101470007047012070470720704700BF54524F50FB
:101480000008044070B1094B006898420CD14AB181
:10149000090A490101F1804101F5802100204B68D2
:1014A00013807047012070470720704754524F50F7
:1014B000E8B110B400680F4CA04210D19BB1090AEA
:1014C000490101F1804123EA020001F58021134026
:1014D00043EA00435DF8044B8B600020704707200F
:1014E0005DF8044B704703205DF8044B7047012002
:1014F000704700BF54524F50C0B10D4B0068984226
:1015000010D1012A10D8C8B2012383409BB202B97E
:101510001B04090A490101F1804101F580210020E5
:101520008B60704707207047032070470120704789
:1015300054524F5000B310B40068104CA04213D165
:10154000B3B1090A490101F1804101F5802103EAA3
:1015500002000C6862EA030240EA04031A40002019
:101560005DF8044B0A60704707205DF8044B704734
:1015700003205DF8044B70470120704754524F50D0
:10158000A8B10E4B0068984213D182B1090A012319
:101590008B4013F01E0F0ED0490101F1804101F57F
:1015A000802100204B68C3F30F4313807047012054
:1015B0007047072070470320704700BF54524F50B8
:1015C00000B3164B006898421ED1DAB10B0A012015
:1015D00000FA03FC1CF01E0F1DD010B45B0103F1D8
:1015E000804303F58023C9B25C6800FA01F18BB235
:1015F00001EA14418B4209D0002300205DF8044B1E
:1016000013707047012070470720704710705DF815
:10161000044B002070470320704700BF54524F50C6
:1016200010B310B40068114CA04219D1A3B1090A3B
:101630000120884010F01E0F0ED0490101F18041B9
:1016400023EA020001F58021134043EA00435DF8DC
:10165000044BCB600020704703205DF8044B7047BB
:1016600007205DF8044B70470120704754524F50DB
:1016700030B3164B006898421ED1012A1ED80B0ABF
:10168000012010B400FA03F414F01E0F1AD05B010D
:1016900003F1804303F58023C9B2DC688840012A46
:1016A0004FEA004113BF84438C4304430C43DC6086
:1016B00000205DF8044B70470720704703207047F7
:1016C0000120704703205DF8044B704754524F507F
:1016D000002853D070B52A4B154602689A4286B04E
:1016E00002D0072006B070BD01AB012603A80C464E
:1016F000ADF808100195ADF80C600493FFF730FECB
:10170000EFF3108186F310881E4B1A681AB91E4831
:10171000C2704022C2701A6801321A6081F31088C8
:10172000EA034FEA1421E4B219D40901174A21440B
:1017300042F82150EFF31082012181F310881968DB
:1017400011B11968013919601B681BB90E49802055
:10175000CB70C87082F31088002006B070BD04EB17
:1017600001100A4A52F8206026F4803642F82060C0
:1017700025F4803642F820600901D7E70120704740
:1017800054524F50BC77FE1F000D04400008044027
:10179000F8B50446FFF7E4FDEFF31082012383F36D
:1017A00010881F4F3B681BB91E49CB704023CB707C
:1017B0003B6801333B6082F310882388E3B16168A2
:1017C000194C01EBC30E8A880868130AC503D2B20C
:1017D00002EB031C09D554F82C6020F4803526F464
:1017E000803644F82C6044F82C501B011344083117
:1017F0008E4544F82300E6D1EFF31082012383F3F2
:1018000010883B6813B13B68013B3B603B681BB9E8
:1018100004498020CB70C87082F31088F8BD00BFE7
:10182000BC77FE1F000D04400008044090B189B150
:1018300008B54B684BB1094B02689A420CD0036063
:101840000846FFF7A5FF002008BD0B88002BF2D04B
:10185000012008BD012070470E2008BD54524F5092
:1018600080B108B5084A0368934209D131B14B6889
:1018700023B10846FFF78CFF002008BD012008BDFA
:10188000072008BD0120704754524F500620704772
:101890000620704788B10A4B02689A420BD190F932
:1018A00004300849C033002051F8232022F0807210
:1018B00041F823207047072070470120704700BF80
:1018C00000435444006000400620704706207047E3
:1018D000C37803F00C02042A11D0827802F00C01C4
:1018E00004290CD03F2B04D9C3899BB2B3F5807F68
:1018F00007D83F2A00F11000EAD8002070470620E0
:1019000070470120704700BFF0B1194B02689A423E
:101910001CD1C9B190F90400164A002352F82020C6
:10192000C1E90033D3783F2B12D9D08903F0C0032B
:1019300010B4C0B24FF48074802BC1E902400FD0C4
:1019400000205DF8044B7047012070470720704766
:10195000D3894FF480329BB2C1E902230020704743
:1019600093894FF480329BB2C1E90023E8E700BFBE
:10197000004354440000FE1F0346B8B10C4A0168FE
:10198000914211D190F904100A4801F1C00C50F8AD
:101990002C2022F0807240F82C200748002240F8CA
:1019A000212010461A6070470720704701207047B9
:1019B00000435444006000400000FE1F1A4B30B545
:1019C00053F8203005464FF0FF3415E093F802C07D
:1019D0000CF00C02042A1AD05A68D2B19A68C2B12B
:1019E0009A688A4315D1586810EA0E0003F1100373
:1019F0000FD1BCF13F0F0ED9DA78C2F3011102F01A
:101A00000C0204FA01F1042A6FEA010EDED106206D
:101A100030BD012030BD054AC03552F8253043F0B5
:101A2000807342F8253030BD0000FE1F006000408A
:101A300030B583B00191009200283CD01F4A016864
:101A4000914233D190F904101D4C1E4A01F1C00C93
:101A500052F8215054F82C2022F0807244F82C20A7
:101A600041F40041A4F54064E28992B29142FBD076
:101A700008222270019A0AB1019A6A60009A0AB19A
:101A8000009AAA60EA7802F0C001802911D03F2AAA
:101A900098BFEB810C4B18221A7090F90400FFF7E5
:101AA0008DFF002818BF132003B030BD072003B0FE
:101AB00030BDAB81EEE7012003B030BD004354449C
:101AC000006000400000FE1F0054004048B1064B7B
:101AD00002689A4201D00720704790F90400FFF78E
:101AE0006DBF0120704700BF00435444002848D018
:101AF000264B02689A4270B5044640D10D46002933
:101B00003BD00846FFF7E4FE002836D1EB7803F01F
:101B10003003302B37D094F904C01D4B1D490CF114
:101B2000C00253F8226060F3186643F822604CF458
:101B30000042CB899BB29A42FBD02B46DA783F2AEF
:101B4000194605D9DA89D2B202EB022292B2DA81C1
:101B50008A783F2A03F11003F0D80E4B08221A703E
:101B60000D4A42F82C5018221A7094F90400FFF71D
:101B700025FF002818BF132070BD012070BD07206D
:101B800070BD01207047062070BD00BF0043544463
:101B900000600040005400400000FE1F002857D0A5
:101BA000F8B502682C4B9A42044653D0002940D025
:101BB0004B68002B3DD029480278002A3BD10123F5
:101BC0000370EFF3108683F310882548C56925F468
:101BD0008005C561C06986F31088224E3260224AB2
:101BE000566013734B6893F90050002D2EDB25715E
:101BF0000F68D7B13846FFF76BFEC8B93B46DA78B5
:101C00003F2A194605D9DA89D2B202EB022292B2F2
:101C1000DA818A783F2A03F11003F0D8124B0822A8
:101C20001A70182246F825701A700B4B236000209A
:101C3000F8BD0120F8BD93F90050002D06DB094ED8
:101C400056F82530002BD2D00820F8BD0B20F8BD67
:101C5000012070470E20F8BD004354447C77FE1FDE
:101C600000E001400000FE1F0054004006207047C5
:101C700070B169B130B4074C0568A54205D1C0E91F
:101C80000632416130BC00207047072030BC7047ED
:101C9000012070475447410010B443680161134A62
:101CA00093F810C01C7842F82C108368007B4A1E01
:101CB0004CB9490880B989B25980998092B25DF8CF
:101CC000044B1A807047012C0CD0022C18BF002145
:101CD000F0D10028F2D001E0596099605DF8044B22
:101CE0001A60704711460028E5D0F5E78077FE1F9F
:101CF000B8B10D4B02689A4211D10269017B836829
:101D0000013A31B992B223F8082BF1221A7000205F
:101D1000704743F80C2BF1221A70002070470720FF
:101D200070470120704700BF5447410090B10A4BF3
:101D300002689A420CD1027B836822B90833F022F0
:101D40001A70002070470C33F0221A700020704780
:101D5000072070470120704754474100002800F0D9
:101D6000D3802DE9F04F0D4683B0002900F0C180EB
:101D7000C969002900F0BD80854B02689A4204467B
:101D800000F0BB806B69002B00F0B98095F9123030
:101D9000002BC0F2BB806B686560013B0022B3F58D
:101DA000803F227380F0A5802A7C0123934098070E
:101DB00000F0AE800B78502B00F0E280297A002BE7
:101DC00040F09480032900F29480022900F0918071
:101DD000120202F1402202F50022A260EFF3108607
:101DE000012383F31088287C6A49C0F103008340F3
:101DF000D1F8080120EA0303C1F80831D1F808310D
:101E000086F3108800231372137AC3F340019B07F3
:101E1000FAD494F80C8091722E7AEB69D4F808E029
:101E2000B8F1000F7ED00EF10C00DA781F78197926
:101E300002F00702002F6ED12EB186F0020642EAB0
:101E40000616F2B23E46676893F801C097F800A004
:101E5000BAF1020F0CF0770967D09B7813F00703F3
:101E600005D041F00401032B08BF41F001010171CD
:101E700080F806906968427086702046FFF70CFF74
:101E800095F91230002B26DB6A7C03F1604101F5E5
:101E900061411201D2B281F800233F493F4A41F823
:101EA000234003F1C00152F8210020F4803042F8B1
:101EB000210052F82120BFF35F8F5A09920002F1EE
:101EC0006042012102F5614203F01F0301FA03F3AE
:101ED000C2F880311360D5E905122D4B61610020F5
:101EE000C4E90602236003B0BDE8F08F07297FF63E
:101EF0006FAF012003B0BDE8F08F0E20FAE72B781A
:101F0000012B7FF448AF41E7012070470B20F1E738
:101F100040F27A50EEE7502F06BF42F05002002602
:101F20003A4390E70EF108007FE7D7F804B0D7F8FE
:101F30000CA00BF1FF37A7EB0A070CF0070B00977B
:101F4000BBF1070F18BF57460197BB46009F0CF027
:101F5000700CBCF1700F18BF57460097B8F1000F16
:101F600005D0009FCEF804B0CEF8087075E7BDF834
:101F700000701FFA8BFBAEF802B0AEF804706CE78D
:101F8000D107B6D52B7A002B3FF422AFB1E700BFC3
:101F900054474100006F0440C077FE1F00600040BE
:101FA00029B320B3374B02689A4222D130B4057B63
:101FB000846805BB04F1080C9CF8003003F00102B2
:101FC000C3F340039A42F7D1436802698A60DA6931
:101FD0001278502A12D11B7C2B4A013BDBB252F8FB
:101FE00023306BBB002030BC4B6008707047012071
:101FF00070470720704704F10C0CDDE79CF80120C6
:10200000C2F30212032A0FD82048214B006A1B6832
:10201000C0F30264A340C0F30220C340002AE1D011
:1020200082F00202D340DDE79CF802204FF4004327
:1020300002F007020020D34030BC4B6008707047AC
:10204000B5B9F83C6078C0F30210032812D80F4CE1
:102050000F4A246A1268C4F30265AA40C4F302243A
:10206000E24010B180F00200C240B2FBF3F3B9E7E6
:10207000F43CE7E7A0784FF4004200F00700C240CC
:10208000F3E700BF544741008077FE1F00E00140A6
:10209000D077FE1FB0B10C4B02689A4210D1037B7F
:1020A00081685BB908310B7803F00102C3F3400388
:1020B0009A42F8D1F0230B70002070470C31F2E700
:1020C00007207047012070475447410008B3124B66
:1020D00002689A421BD130B4057B84687DB904F153
:1020E00008010B7803F00102C3F340039A42F8D1D0
:1020F0000369013B35B12360002030BC704704F117
:102100000C01EEE79BB22380002030BC7047072013
:1021100070470120704700BF54474100F8B1124B8F
:1021200002689A4219D110B5047B836894B903F10F
:10213000080C9CF8003003F00102C3F340039A42FC
:10214000F7D11CB94B1EB3F5803F0AD2FFF7A4FDAF
:10215000002010BD03F10C0CEBE7072070470120B5
:102160007047012010BD00BF5447410000283BD0FC
:102170001E4B02689A4210B4044631D1037B816839
:1021800063BB08310B7803F00102C3F340039A42AA
:10219000F8D16368F420002208700A7193F91230B4
:1021A00013F1210F15D0934210DB5A091048012179
:1021B000203203F01F0301FA03F340F82230BFF38B
:1021C0004F8FBFF36F8F636893F91230094A42F85B
:1021D0002340002020605DF8044B70470C31D1E7AC
:1021E00007205DF8044B70470120704754474100B9
:1021F00000E100E0C077FE1FE8B1F8B502681A4BB5
:102200009A4216D1077B856887B905F108042378BF
:1022100003F00102C3F340039A42F8D146683378D1
:10222000012B0AD0F12323700020F8BD05F10C0426
:10223000EDE70720F8BD012070470169FFF72CFD8D
:102240003378F122012B2270EED123789B07FCD545
:1022500027B14FF0FF336B60AB60E5E74FF6FF73DC
:102260006B80AB80E0E700BF54474100D9B1D0B1EB
:10227000154B02689A4218D130B4057B8468B5B911
:1022800004F10800037803F00102C3F340039A420B
:10229000F8D17DB1237B22680A60C3F3400300209C
:1022A00030BC0B717047012070470720704704F164
:1022B0000C00E7E7237A2288C3F3400392B20020A0
:1022C00030BC0B710A60704754474100012A01D9A4
:1022D000012070470028FBD030B5134B04689C42A6
:1022E0001ED1057B84689DB904F1080E9EF800306C
:1022F00003F0010CC3F340039C45F7D103690BB114
:102300008B420FD93DB1043444F82210002030BD77
:1023100004F10C0EEAE7023489B224F81210F5E752
:10232000072030BD032030BD544741002DE9F04166
:1023300084B0EFF30383103B5BB203F1C001224A88
:1023400052F8210020F4803042F8210052F8212078
:102350001E4A52F82340237BA568002B30D00C3551
:1023600062682B781278012ADBB207D1AA79F421AE
:10237000D2B203F0F00329702B70AA71D4F8148044
:10238000B8F1000F15D0A66901AFDEB196E80700DD
:1023900087E807009B0644BF00233371E36933607D
:1023A0003046C047A3691BB197E8070083E80700E0
:1023B0002B78DBB203F00F032B7004B0BDE8F08183
:1023C0000835CDE73E46E5E700600040C077FE1FD8
:1023D000064B074993F826001A6A51F82030054940
:1023E000C2F30262D3400B60704700BF00E00140BF
:1023F0006804FE1FD077FE1F704700BF494B4A4953
:102400004A4A4AF2035070B5A3F8FE03484C494EBD
:102410000020A1F80001484993F82600616047496F
:1024200022604FF40042C4E902214549C4E9042175
:10243000196A54F82020C1F30261CA403260202199
:10244000092283F8131483F8A22093F880241AB980
:1024500093F8813498075FD0324D95F88034002B83
:102460004FD0304B002283F8812483F880242D4AFA
:102470000621002382F8A51082F8323092F83C3011
:102480001907FBD54FF41C510023118582F82A301F
:10249000244A92F83C309B06FBD523492948022365
:1024A00081F81C31284B1362052382F8263092F8FC
:1024B000263054F82330146AC4F30264E3403360D6
:1024C000F1230371BFF35F8F0E230372BFF35F8F9E
:1024D000F0240471012340244FF4254082F8303069
:1024E00082F8523082F82440A2F8FE03A1F80431A9
:1024F000B1F804319BB2002BFAD10123A1F80031CD
:1025000070BD012185F88014C82000F087F895F887
:102510008034012BFBD1A4E74FF47A70FFF76CFFF6
:10252000A5E700BF00E0014000C00140002D3101DF
:102530006804FE1FD077FE1F00127A00001BB70050
:10254000001C4E0E002000402112012138B5294CFC
:10255000002584F828500121C82000F05FF884F895
:10256000245094F82430002BFBD194F824302149D6
:1025700043F0020384F8243091F82430C3F3400080
:102580009B07F9D41B4A81F8220092F8223003F00D
:10259000FF00002BF9D192F84030164960F3C713C1
:1025A00082F8403091F84030DB09FBD191F84200CD
:1025B000104A63F3C71081F8420092F84230DB09F9
:1025C000FBD192F844000B4963F3C71082F8440032
:1025D00091F84430C3F3C014DB09F9D1012000F0B5
:1025E000BDF8054B012083F8BB44BDE8384000F03E
:1025F00085B800BF0040044000E0014018B1034B23
:102600000360002070470120704700BF00000406EF
:10261000A0F101000028FBD1704700BF1F4B204AEA
:102620001B68934200FB01F113D302F1854202F5CE
:10263000071203F5741302F6834203F6FF03A2FBAD
:1026400003231B0DA3FB01314FF0FF30F9B1FFF75E
:10265000DFBF4FF47A7210B4A1FB02C41148B0FB83
:10266000F3F34FF0FF3044B9BCFBF3FC4FEA9C009E
:1026700088B15DF8044BFFF7CBBF9B00B1FBF3F1D2
:10268000A1FB0212002AF4D1084620B1F1E7184656
:10269000002BDCD170475DF8044B7047D077FE1FEC
:1026A00000127A0000CA9A3B0C4B70B5B3F8202197
:1026B000B3F840510A4EADB20024154025FA04F398
:1026C000DB0704D556F82430E0B203B19847013453
:1026D0000D2CF3D1014BA3F8305170BD00600040C8
:1026E0008877FE1F034B1A8812B1034BC3F80023EF
:1026F000704700BFD43F000000600040EFF310813E
:10270000012383F31088124B33F8102092B22AB1C0
:1027100033F81020013A92B223F8102033F8103029
:102720009BB293B90B4A10B4B2F8FE330A4C9BB279
:1027300034F8100043F4254323EA0003A2F8FE33E3
:1027400081F310885DF8044B704781F3108870475F
:10275000C477FE1F00E001403441000030B4EFF3C5
:102760001081012383F310880E4A32F810309BB297
:102770006BB90D4C0D4DB4F8FE3335F810C09BB25B
:1027800043EA0C0343F425439BB2A4F8FE3332F82A
:10279000103001339BB222F8103081F3108830BC26
:1027A000704700BFC477FE1F00E0014034410000C5
:1027B00000BE704708B500F035F8FEF779FCFEE77B
:1027C000F8B5174F3E680546A6B17C6806EB46068D
:1027D00004EB860602E00C34B4420BD0637AAB42C1
:1027E000F9D1D4E900020021121A0C3400F084F867
:1027F000B442F3D1BE6896B1FC6804EB061602E061
:102800001034A6420BD0637BAB42F9D1D4E900026D
:10281000A168121A103400F057F8A642F3D1F8BD9F
:1028200044000000204B214A4FF4700170B5002095
:10283000C3F888109A60FEF72FFCFFF7DFFD012038
:10284000FEF72AFC1A4B1B4A1B4900244FF4254073
:102850009C80012518809A6002F580604FF48052B8
:10286000D860A1F8202120469D80FFF7A9FFFFF73F
:10287000AFFDFFF76BFE0220FEF70EFC2846FFF7C8
:102880009FFF0E4D0E4B5B1BA34206DD9E1055F8BD
:10289000043B01349847A642F9DCFFF723FFBDE86B
:1028A0007040002000F00EB800ED00E000000000D5
:1028B000000D00406800FE1F0060004098420000CC
:1028C0009C420000704700BF0A44914200F1FF3370
:1028D00000D1704710B511F8014B03F8014F914238
:1028E000F9D110BD0A22002100F088B8014B186808
:1028F000704700BF1400FE1F02440346934200D1FC
:10290000704703F8011BF9E7242B2DE9F0478646B1
:10291000904601D8012B06D1FFF7E8FF162303608C
:102920000020BDE8F08734480D462A4615F8014BD3
:10293000065D16F00806F8D12D2C10D12C78012652
:10294000951C33F0100215D1302C0DD12A7802F0ED
:10295000DF02582A08D16C78023510230AE02B2CAC
:1029600004BF2C78951CECE7002BF6D1302C14BF5B
:102970000A23082306F1004C0CF1FF3C0022BCFBAB
:10298000F3F9104603FB19CAA4F13007092F0FD839
:102990003C46A3421BDD571C07D0814514D301D10F
:1029A000A24511DB00FB0340012215F8014BEBE7C8
:1029B000A4F14107192F01D8373CEAE7A4F16107D8
:1029C000192F04D8573CE4E74FF0FF32EDE7531CD2
:1029D00008D12223CEF800306046B8F1000FA0D015
:1029E000691E06E006B14042B8F1000F99D0002AF6
:1029F000F6D1C8F8001094E73F41000013460A469C
:102A0000014602480068FFF77FBF00BF1400FE1FA9
:102A10005465726D696E616C00000000284E554C63
:102A20004C2900002A2A20524D5F414450434D5FFB
:102A30004445434F4445525F436C6F73652041509A
:102A400049206661696C6564202A2A200D0A00000D
:102A5000000000005B4552525D20496E2046756EB5
:102A60006374696F6E3A20257328292C2025730022
:102A70002A2A20524D5F415544494F5F504C4159DD
:102A80004241434B5F50574D5F436C6F736520412C
:102A90005049206661696C6564202A2A200D0A006D
:102AA0002A2A20524D5F415544494F5F504C4159AD
:102AB0004241434B5F50574D5F53746172742041E4
:102AC0005049206661696C6564202A2A200D0A003D
:102AD0002A2A20706C61795F617564696F20667560
:102AE0006E6374696F6E206661696C6564202A2A62
:102AF000200D0A005374617274656420706C6179F2
:102B0000696E6720617564696F0A00002A2A207364
:102B1000746F705F617564696F2066756E63746948
:102B20006F6E206661696C6564202A2A200D0A0098
:102B30000A53746F7070656420706C6179696E6798
:102B400020617564696F0A000A496E76616C696478
:102B500020496E70757420656E74657265640A0034
:102B6000312E30000D0A2A2A2A2A2A2A2A2A2A2A1B
:102B70002A2A2A2A2A2A2A2A2A2A2A2A2A2A2A2AB5
:102B80002A2A2A2A2A2A2A2A2A2A2A2A2A2A2A2AA5
:102B90002A2A2A2A2A2A2A2A2A2A2A2A2A2A2A2A95
:102BA0002A2A2A2A2A2A2A2A0D0A2A20202052657D
:102BB0006E6573617320465350204578616D706C6B
:102BC000652050726F6A65637420666F722041756C
:102BD00064696F20506C61796261636B2050574D5E
:102BE000204D6F64756C65202020202A0D0A2A2054
:102BF00020204578616D706C652050726F6A656346
:102C0000742056657273696F6E2025732020202012
:102C100020202020202020202020202020202020B4
:102C200020202020202020202020202020202A0DAD
:102C30000A2A202020466C657820536F66747761DD
:102C40007265205061636B2056657273696F6E20E8
:102C50002025642E25642E2564202020202020207D
:102C60002020202020202020202020202020202064
:102C700020202020202A0D0A2A2A2A2A2A2A2A2A23
:102C80002A2A2A2A2A2A2A2A2A2A2A2A2A2A2A2AA4
:102C90002A2A2A2A2A2A2A2A2A2A2A2A2A2A2A2A94
:102CA0002A2A2A2A2A2A2A2A2A2A2A2A2A2A2A2A84
:102CB0002A2A2A2A2A2A2A2A2A2A0D0A52656665D7
:102CC0007220746F20726561646D652E7478742053
:102CD00066696C6520666F72206D6F726520646531
:102CE0007461696C73206F6E204578616D706C65DE
:102CF0002050726F6A65637420616E640D0A4653DA
:102D00005020557365722773204D616E75616C207C
:102D1000666F72206D6F726520696E666F726D618D
:102D200074696F6E2061626F757420417564696F9C
:102D300020506C61796261636B2050574D206D6F3C
:102D400064756C650D0A00000D0A5468697320658E
:102D500078616D706C652070726F6A656374206451
:102D6000656D6F6E7374726174657320417564690B
:102D70006F20506C61796261636B207769746820A1
:102D800050574D206D6F64756C652773200D0A6672
:102D9000756E6374696F6E616C6974792E20497405
:102DA000207573657320414450434D206D6F6475E9
:102DB0006C6520746F206465636F6465207468655A
:102DC0002050434D20646174612E20546865204476
:102DD00065636F6465640D0A50434D2064617461DE
:102DE00020697320696E207369676E6564203136CF
:102DF0002062697420666F726D61742E204170705C
:102E00006C69636174696F6E2068617320746F20F0
:102E1000636F6E766572742074686973200D0A732F
:102E200069676E65642050434D2064617461206958
:102E30006E746F20756E7369676E65642050434DC4
:102E4000206461746120616E642070726F766964C1
:102E5000652074686520636F6E76657274656420A2
:102E6000756E7369676E6564200D0A646174612014
:102E7000746F2074686520617564696F20706C617F
:102E8000796261636B20776974682050574D206DBB
:102E90006F64756C652E2054686520636F6E76656F
:102EA0007274656420756E7369676E656420646111
:102EB00074612069730D0A70726F766964656420AD
:102EC000617320696E70757420616E64206F757413
:102ED0007075742069732067656E657261746564CE
:102EE0002061732050574D207369676E616C2E0D01
:102EF0000A4572726F7220616E6420696E666F207F
:102F00006D657373616765732077696C6C206265AA
:102F1000207072696E746564206F6E204A6C696EF1
:102F20006B5254545669657765720D0A0A000000A9
:102F30002A2A20696E69745F616470636D2066750A
:102F40006E6374696F6E206661696C6564202A2AFD
:102F5000200D0A000D0A52657475726E6564204575
:102F600072726F7220436F64653A20307825782042
:102F7000200D0A002A2A20696E69745F61756469F0
:102F80006F5F706C61796261636B5F70776D2066F3
:102F9000756E6374696F6E206661696C6564202A62
:102FA0002A200D0A00000000496E6974206F7065C8
:102FB000726174696F6E20697320636F6D706C65E8
:102FC000746564207375636365737366756C6C797F
:102FD0000D0A00002A2A206465636F64655F6164DE
:102FE00070636D2066756E6374696F6E20666169CB
:102FF0006C6564202A2A200D0A0000000D0A4D6528
:103000006E753A0D0A5072657373203120746F200B
:10301000737461727420706C6179696E6720617578
:1030200064696F0D0A5072657373203220746F20CB
:1030300073746F7020706C6179696E67206175645C
:10304000696F0D0A5573657220496E7075743A2068
:103050000D0A00002A2A2070726F636573735F7512
:103060007365725F696E7075742066756E637469DE
:103070006F6E206661696C6564202A2A200D0A0043
:103080000A506C6179696E6720636F6E74696E7542
:103090006F757320617564696F00000000000000A7
:1030A0000000545452205245474745530000000049
:1030B000303132333435363738394142434445466E
:1030C0006465696E69745F616470636D000000001F
:1030D00070726F636573735F757365725F696E702D
:1030E000757400006465696E69745F617564696F09
:1030F0005F706C61796261636B5F70776D00000077
:103100000000000000000000000000000000000FB0
:10311000F58080F380080808080FF4080808008884
:1031200008080808008087B080808080808077D081
:1031300080808008087B08080F38080808774F80CF
:103140008080E3080D84848BB0438C08080508CC8C
:103150000384BB8044080D038080EB04808C3085A1
:10316000808C0840C0808080807808C084B80D8042
:1031700043B8040D330CF08280880B843B8080635D
:10318000B8CC084B808580840CB080479AC08222DE
:10319000AB370C90828AB34B0803580C0308CF82DC
:1031A0001AA03608A023BCBB0430353FB9840AA25C
:1031B000020843BC033F880AE03802532CC90C9034
:1031C000308A2639C914913CBF92419BA2441AA867
:1031D0008BB822230C333FC082AA2352AF8812300F
:1031E000AC9A8023808430CF1080852AA0BDA401B2
:1031F000028A8B72C9148D9322CA82AA208B0C3743
:103200005019DA129CA148191280850EA10B841B5B
:1032100014114DD921119A1410BFB93221198945C1
:103220008AFA122AB823808222BAC038FD12209866
:1032300004A9ABA8768889801898AD9638A98232FF
:10324000ADD00352A98BF923809986189A98529A87
:10325000A49BC151A8318B8FA24439AC908A828241
:1032600041C91412AAA0B08FB378CA24108931BE04
:10327000881149D8029021210FB868BA1400009132
:1032800019EA239A048B80808348B030FD13ABCABF
:103290004649BA08271898810199168CB90843192C
:1032A0009ABB17209DBA218B0A8A0BE2308ABA8713
:1032B0007728AC9812441089991388ADFCA8234252
:1032C0001189BBA990AEBA818441300BA8CB86315D
:1032D00023B9BDA567409880A9BAA0ADB1433442D7
:1032E00089ABD89ACA18A82236408908BA84289986
:1032F0009A9D856768880AAAA9811A8240144200AB
:10330000BDDA99812219B8233210829FE021890AFF
:10331000B96663288ACCBB902200330144218BFD1F
:103320009A880121889011421880BE8031ABCB076A
:10333000762109ADBBA912411010023218BFCCA9E9
:1033400000121100980530118CAC8A8998477422BC
:1033500009BDCBAA03131220113332AFDCAB90119D
:1033600034088900232521CCAC998126742289ADAB
:10337000BBC9012213000123408BDCEB98013221F1
:103380008990224340BDBCAA8237463389BCCBCA50
:103390008222221008132309CECD9A90233110885F
:1033A0008134519BCCCB90247631099CBCBA00323D
:1033B0002320991332200BFFCA98822322208802EF
:1033C000108ACFBBA8147732089BCCBB9022352043
:1033D0009801811020BEFA9AA023342200A8000987
:1033E000BDBCC9857620009BDBAA802234208800E2
:1033F000802129DDCBAB982434331089089BBDCBC9
:10340000B907761100ABCBAA80125318880080113F
:1034100028BFBBEA98023344219909AB9BDA98672D
:10342000521119CCBBA981243100188012022BBF84
:10343000DCAAA91152323201BAB9DC989177221173
:1034400009DBBCA9803322011811132508CCDCBB91
:10345000BB014434411899BAABA9377411119CBB14
:10346000BBCA8241102188112252889EDACBA91151
:103470002443208A88CBA1265522210ABCCCABA9A3
:1034800002113419021003320DEACBCB88024352E9
:103490000089CC800847611110AABCABBB82200216
:1034A00048A022026289BBBCFBA800825528008A82
:1034B000D9A9074334429AABCDAA90110238889912
:1034C000984315810CCDBA0A016410110CACA98483
:1034D00061343309ABDBDA9810012008999010169B
:1034E0003089CED909004341109BDBDA04423434E1
:1034F000899BBCBC881011000889901812219EAFCE
:10350000B899827422219DADAB0434345109AABD0F
:10351000AA80101209989A92313430CCCE99801238
:10352000442301ADCAC90631363288B9DBBA80807E
:10353000228AA9AC92612408ABDBB99015523219EA
:10354000CBDBA0543434308BBBBEB9108010AAAC96
:10355000B9802451121DD999A814621201BDBAA3D1
:10356000722443099ABCBA9080010BD99BB92315E8
:103570001129CFAA89A237321389CAC94721252028
:103580009AAABDA8188010AB9A9B93312822AFFA53
:10359000A8A914531221BC9AA56711321BBABCC842
:1035A0008019000BEA0880340010ACAAEA00193731
:1035B0001002AADAA266223338BABDCA9090110965
:1035C0009DA99A94411099B9EC8080144223ABBE16
:1035D000D9046214418999ACA90800910BBAB9C801
:1035E000410239DCB0AC8124435009AEA993751176
:1035F000430B89CB989803088DAABD80321339AC50
:10360000CBBB82005730121FA8AA4631433A9ACB4F
:10361000BAB8310820DBCB0AB4520902AF9A01993B
:103620002630813ADCAA2652242099ABCAA8810808
:10363000109CCBB9005200938EABA338A2768801C0
:10364000ACBAA57132439A9AAD9A9020A02ACC8840
:10365000902411188ADBB91B05443829ABEDA86406
:1036600013531999CAAAA8309018DC98B8430821B6
:10367000AAADBB902137510199CEB9373244209978
:10368000BBBDA8118811BF988883610090BDA98037
:103690002241220ABCFAB8267411309BCBBBA90286
:1036A000309930A1525328CBBCDC98012411212938
:1036B000BBBDAA37771018AABBBA88024091200672
:1036C00031190BEBABCB81815311241990ADAA5763
:1036D00061010ACBACA0102340B02082521A8CDCCE
:1036E000AAA8032233202319ABDCB97741109BCB66
:1036F000DA9211251A811915189AAEBA9902311168
:10370000201541089CDA996730009BCCAA823123AE
:103710000981013528DBBEC980132100199252812D
:103720000DDA886721888BDBA91231221AB0125377
:103730002AEABFA8001330900A843000AFB882771D
:103740003098BCABA924311209A014319EC9ACA990
:1037500012422881898238AABD9A17771889BBCA74
:1037600082322138C802350BBACFB0100431980A22
:10377000B0409039EB13771088ADA9991420011B44
:10378000923320DBCBEA8113320019C83299889C2E
:10379000D077318AABCABA15308128903420CCBB9F
:1037A000DB8022420812AA01A91AC33977739A9BB7
:1037B000DB8813318121A84528CCAACC833102199A
:1037C0009808033AFA01A87760999AC9800241895A
:1037D00010892618AAAEB9013331AA008A0328DB62
:1037E000983777088AABB9813420000991731BCAD6
:1037F000BDB92411309A1099128CB910677289AA38
:10380000BCA001340902299560ABABCA8231241BEC
:10381000C031A8229EB904771099ABD90111208834
:103820001281550BD9AAC8332128CB0208250BB920
:1038300080774089ACBA9023329811906619CAAA51
:10384000B9024428AB01892419A90977418AAADB66
:10385000A012340903090638EA9AC91121329BA340
:103860000B8528A99837770999BBB81334098328A1
:103870001428CEABBA123431ABB11880319C967794
:103880003889ABEA981321000282440CBBBEB822EF
:103890003230D90188011CA026670889ABDA0033D1
:1038A0000081388361BCAADB9232341CA0108018DE
:1038B000BC83674189ABCBB00142881410251ADB69
:1038C000BBBA432340AC81188119F91474188ACB10
:1038D000BA80241002208640ACBABC8223338CA864
:1038E000209012AEA2772189BCBB981341823191FE
:1038F000549CBBCBA122532AA801B8808BC077600F
:10390000889AAC988231883419351AEA9CB91233F6
:103910004199199A000AD837730A8ABCAB804219B8
:1039200014402219CCCBC9011351889000A888AB50
:1039300087770899A9B890338904222538ADBEB994
:1039400000133119B02089880A967739A9ACAA9852
:10395000340905320241BDDA9B901324199132BA21
:10396000991B97770998AAA8A8360A023102419DA7
:10397000CAC998113410A0228BC0199675889AABC9
:10398000A898360A83421220BDDBB99022241990F0
:10399000338989DA4770888ACA9880438A842113D8
:1039A00031CCCCBB81122529B130A819BA77408916
:1039B0009BBCA001338A05322448BDCBBA81322298
:1039C0001AA0530A90BB4775898ABC980023299393
:1039D000410252AEABCB80222328B91420989A170B
:1039E00076889ABBA800252090311370ACACBB91AF
:1039F00022241889112108CC877319AACCB88124F4
:103A000038A03381548BDBBD981123319A8110008B
:103A10008A97760899BCB9001430983308658ABB38
:103A2000EBA0132420A989011008A07758999BCAFC
:103A3000808342892519141ACBDCA811133189001F
:103A40000209C900775099ABBB9011530A03411387
:103A50002ACDDCB901223220888028CA0137758935
:103A60009BCB9801342982311431BDCEBB882333DE
:103A700021980801AA0187770899CAB800134090D5
:103A8000241033AEBBDBA914122200811AB809B18D
:103A9000777199ABC9900252981320033BFBBCBBD2
:103AA000823433098121AB90AE1773899BCBA981F6
:103AB000442982311122CEBCCA902333289812287F
:103AC000AB9DB6760099BCAA882440801100240BD7
:103AD000CCCBBB034341800008B910B07760999B01
:103AE000BA9902628812200529CCBDA90113438925
:103AF00090108B901A96761889CAAAA81531903121
:103B000001240CDBDBA0122362998099991098762E
:103B10003208ADBCA980351802101240BDCDB98164
:103B20003334189AB9088008947740889CCA9881E1
:103B300041012208142BDACDA98134339998989940
:103B4000020805771809ABCBA98352023209130E7C
:103B5000CBDBA81344229AA899802080576108994A
:103B6000BDBB80233114318151CDACBB923354198C
:103B7000A98889121991773009ADBBC90333013285
:103B8000091729CBCACA8232438AA010A031ACA639
:103B90007510999BEB991340022208238DCCCAA87B
:103BA000123440A981099009B027761989ABD990C0
:103BB0001340913098438DB9CD90113338DA110804
:103BC0008028CC03761088BBCB981430813298259E
:103BD0001DCAABA8134331BD0109A041AE916621B6
:103BE00089AABCAA02420924198141BEABBA80232A
:103BF000342AB1319A900EA827771889AACA90134F
:103C00004081208A161ACA9BCAA2433289808A98A8
:103C1000228CCA57728089BDA9903418110BB172D9
:103C2000999ABDBA143320A998AB2719BB92763163
:103C3000088BDCA982330820AB07329ACCBBA923BE
:103C400063089AA88054199AA80674019ACBAA808E
:103C50001429818123640ABACBBC811230B934386B
:103C60009460AAA990475218ACABAA90232098550B
:103C700021238DCBBCB8000340802212338AACFCD8
:103C8000927620089BBDA98230A0338A376089AB29
:103C9000ABDA8123182431AB140C9AA800774209BF
:103CA0009BCBBAA272880189834110CEA89BA13414
:103CB0002118980913519CCA9A93774088AAAA9A06
:103CC0000340A018A1642189CDAAAA9233102280B2
:103CD000322341CFCA9A84743200ACCAA9812189A7
:103CE00001985621009CCAABA81111422222222D14
:103CF000DC9BB8212377501889BCAABA0301241889
:103D00008472008ACBCBBA04223322891208BBEC1E
:103D1000BB9A92365752189ABDAAA91200341124A0
:103D20003328BFDAABB8124322021198019DBBBC05
:103D3000C983211277720899ABCBA81201322134C2
:103D40003128CECABD98121322201211889ACEAB08
:103D5000A98023213167770088ABBCBA12024329BE
:103D60001320909CA8EEC98001432200110AABA940
:103D70009FD9000023118927770089AABCB91211A5
:103D800043190222018DA0BFE980081222210121DE
:103D90000A9AAFC98008802011BB3557730099BDBE
:103DA000BBC9122142280011089DB9AFBA81004455
:103DB00022229818ACC810CA9990253310AD989A51
:103DC000947751109ABCCBA80223400811420800F6
:103DD000ADEB9BA9802532134310088BFD99898197
:103DE000124218009ACB98047742119ACBCCB901B1
:103DF00022321010412109ACEBCBAA8802243544B1
:103E000020899BBC98888891210273528ABDBAA9E7
:103E100037543320ACCBDBA98034220128010108C0
:103E2000BCCBBADDA801236423218ABBDBA80A9995
:103E300081115631210BCCBA9010012474433338D0
:103E4000DCCBDBB90142342228A888AC998BADCAFF
:103E50009AA8464233218BEA99998A819AA25424DE
:103E600042028DB9A9999A276223531BBBBECCA9E4
:103E700001122333088258B900CDC9B89AA1532240
:103E800054321AACABCAB011112529842181010C1E
:103E9000DBAB88BA993577433410ABCEBAC98022F0
:103EA000225108080899088ABDCAB8C968616C5FC0
:103EB000656E7472790000002877FE1F303F0000A5
:103EC000A0400000D03E0000AD0E00000000000049
:103ED0000240084001000000F83E0000E03E000003
:103EE0004C77FE1FEC3E0000D44000000400FE1F93
:103EF000F43E0000000000005477FE1F043F000065
:103F00000041000002000000A60E000000000000BA
:103F100053070000000C0000011200003077FE1F64
:103F2000243F000000070001000000010000000025
:103F3000130000003C3F0000000000000080000073
:103F4000040000000000010600010000000001065E
:103F5000010100000000010602010000000001064E
:103F6000030100000000010404010000000001043E
:103F7000050100000400000006010000040000002C
:103F8000070100000000010008010000000001001E
:103F900009010000000001000A0100000400000007
:103FA0000C01000000000000010200000000010CF4
:103FB000050200000000010C0702000000000100E3
:103FC00000030000000001130704000000000101CD
:103FD0000005000040000000FFFFFFFF020406088C
:103FE000FFFFFFFF020406080500060007000800A7
:103FF00009000A000B000C000E000F001100120057
:104000001400160019001B001E00210025002800C6
:104010002C00310036003B00410048004F005700A3
:104020005F00690074007F008C009A00AA00BB004A
:10403000CD00E200F80011012D014B016C0190014F
:10404000B801E50115024A028502C6020D035B03B1
:10405000B1030F047704EA046805F2058A06320703
:10406000EA07B4089309890A960BBF0C050E6C0F7A
:10407000F710A91287149516D718531B0E1E10217E
:104080005E240228022C68304035933A6E40E046A8
:10409000F64DC255565EC5670204030404040000D1
:1040A0002D1800004113000061180000D116000017
:1040B000C11500007116000049140000F914000039
:1040C0003515000081150000211600008514000040
:1040D000B11400009D1B0000ED1A0000311A000011
:1040E000CD1A0000951800008D18000091180000EE
:1040F0000919000079190000C9180000CD18000046
:104100005D1D0000F921000095200000CD20000079
:10411000F11C00002D1D00001D210000CD2200001B
:104120006D1C0000A11F00006D220000711C00002A
:104130006D21000001000200080010002000002096
:104140002020202020202020282828282820202047
:1041500020202020202020202020202020202088F7
:10416000101010101010101010101010101010045B
:1041700004040404040404040410101010101010AB
:10418000414141414141010101010101010101019F
:1041900001010101010101010101101010101010B5
:1041A000424242424242020202020202020202026F
:1041B000020202020202020202021010101020008B
:1041C00000000000000000000000000000000000EF
:1041D00000000000000000000000000000000000DF
:1041E00000000000000000000000000000000000CF
:1041F00000000000000000000000000000000000BF
:1042000000000000000000000000000000000000AE
:10421000000000000000000000000000000000009E
:10422000000000000000000000000000000000008E
:10423000000000000000000000000000000000007E
:104240004275696C7420776974682052656E657375
:10425000617320416476616E63656420466C6578A5
:1042600069626C6520536F66747761726520506176
:10427000636B6167652076657273696F6E20362E99
:10428000342E3000362E342E30000000000004069C
:04429000F8B500BFBE
:04429400F8B500BFBA
:044298000905000014
:04429C00E104000039
:04000003000027B51D
:00000001FF
