:020000040200F8
:10000000C0050022B17F0002817E0002C17F000294
:10001000C17F0002C17F0002C17F0002C17F0002D8
:10002000000000000000000000000000A925000200
:10003000C17F000200000000C1250002312600023D
:10004000E16C0002796F0002796F00028109000201
:0C005000B9080002610A0002E90A00027F
:10005C00102B01AD001122334455FFFFFF80849E0D
:10006C007C01000000001888000000000000000067
:10007C0001004000E8160022B4EC010290F50102E8
:10008C00200000000010000000200000F8160022E4
:10009C000000000000112233445500112233445556
:1000AC00440000220100000018370022000000006C
:1000BC0000000000000000004A00002201000000C7
:1000CC0028370022000000000000000000000000A3
:1000DC000011223344550000020100000000000012
:1000EC008C3F00220000000008000000010000000E
:1000FC0000000000010100000C4000220000000084
:10010C0000000000050000000100000000000000DD
:10011C00010100005C400022000000000000000013
:10012C0005000000010000000000000001000000BC
:10013C00AC400022000000000000000005000000A0
:10014C00010000000000000001000000FC40002243
:10015C00000000000000000005000000010000008D
:10016C00000000006C4200226C4800226C4E002201
:10017C006C5400226C5A00226C6000226C660022C7
:10018C006C6C00226C7200226C7800226C7E002257
:10019C006C8400226C8A00226C9000226C960022E7
:1001AC006C9C00226CA200226CA800226CAE002277
:1001BC006CB400226CBA00226CC000226CC6002207
:1001CC006CCC0022F4D200228001002274010022A7
:1001DC003CEE01020400000080000000040000005E
:1001EC0080000000E8030000010000000000000097
:0701FC0010270000060601B8
:080208000100000000000000ED
:100210002DE9F047044680780D46097820F0030068
:10022000E561D5E90523471CD5F81C80A77048F285
:100230000007E362C4F2350707EB01216F78C4E9D8
:10024000081200212170A16217B940F00200A070CD
:1002500095F90B204EF20019CEF200090126500943
:1002600002F01F034CF2003AA97A09EB800006FA6B
:1002700003F3C4F2000A4EF6185CC0F88030CEF2E8
:10028000000CBFF34F8FBFF36F8F5AF82230002A54
:1002900023F480334AF822304FEA01115AF8223011
:1002A00004D409EB020383F8001304E002F00F0307
:1002B000634403F8041C95F905304DF6641EC2F240
:1002C000002E01215E0903F01F004EF8224001FAC2
:1002D00000F009EB86062979002BC6F880004FEA6A
:1002E0000112BFF34F8FBFF36F8F5AF8230020F432
:1002F00080304AF823005AF8230004D409EB0300A5
:1003000080F8002304E003F00F00604400F8042CA0
:1003100095F9072001264EF82340AB79500902F0E9
:100320001F0106FA01F1002A09EB80004FEA0313CE
:10033000C0F88010BFF34F8FBFF36F8F5AF82200C1
:1003400020F480304AF822005AF8220004D409EB45
:10035000020080F8003304E002F00F00604400F86F
:10036000043C95F909304EF822402A7A580903F0E6
:100370001F0106FA01F1002B09EB80004FEA02127F
:10038000C0F88010BFF34F8FBFF36F8F5AF8230070
:1003900020F480304AF823005AF8230004D409EBF3
:1003A000030080F8002304E003F00F00604400F82D
:1003B000042C4EF823400120EFF3108680F31088C0
:1003C00028784FF0004121FA00F043F20401C4F212
:1003D00020010A6822EA0000086008681E20012146
:1003E00007F00AFD86F310884FF48061206A4FF40D
:1003F00080428160E869E9786E78437802EA813169
:10040000077866F30921DA03437B92B207F003070A
:1004100003F00103114441EA4352236A42EA0762AE
:10042000416802F580525A61027802F0FE03022B05
:1004300007D14FF60471022ACFF6007108BF2031B0
:1004400000E00968226A11610C22017BAB78877891
:1004500062F39F014FF44072022B08BF4FF4807289
:10046000002B07F00103276A18BF114341EA03710B
:10047000F960226A002191612A78092A04D8226A47
:100480000023C1F61F735362B0F80F20807B236AEC
:1004900040EA022041F60172C0F21F0210401863C8
:1004A000C4E90311206A1022C4E90511C9F60752F4
:1004B000B8F80A1021818266E06990F905104A09AE
:1004C00001F01F035AF8210020F480304AF821007F
:1004D0005AF8210009F5C0700121BFF35F8F01FABE
:1004E00003F340F8223049F82230E26992F90B20F8
:1004F0005AF8223023F480334AF822305AF8223056
:10050000530902F01F02BFF35F8F01FA02F240F8B5
:10051000232049F82320E26992F907205AF8223073
:1005200023F480334AF822305AF82230530902F07B
:100530001F02BFF35F8F01FA02F240F8232049F84F
:100540002320E26992F909205AF8223023F48033FB
:100550004AF822305AF82230530902F01F02BFF342
:100560005F8F914040F8231049F8231040F2114169
:10057000206AC0F201018160206A00BF00BF00BF95
:10058000017FC907FCD044F642110020C5F2433177
:100590006160BDE8F087D4D4D0F820C0DCF8083022
:1005A00023F44013CCF80830D0F820C000BF00BFBF
:1005B000DCF848305B00FBD5DCF8083023F0100392
:1005C000CCF80830D0F820C09CF81C30DB06FBD4F7
:1005D000C0E903120020DCF8081041F01011CCF83B
:1005E00008107047D4D4D4D4026A4FF6EE73CFF615
:1005F000CE73D2F808C003EA0C039360026A0023AA
:10060000C36009681161016A00202CF440128A60FD
:100610007047D4D4D4D4D4D444F642124168C5F23D
:10062000433291426DD1B0B5016A8A6822F440121A
:100630008A60016A8A6822F010028A60016A00BF3B
:100640000A7FD206FCD4C1694EF2801CCEF2000CA7
:10065000054691F907104A0901F01F03012101FA2B
:1006600003F34CF82230BFF34F8FBFF36F8FC26993
:1006700092F90920530902F01F0201FA02F24CF824
:100680002320BFF34F8FBFF36F8F026A936823F469
:1006900080339360C26992F90520530902F01F026A
:1006A00001FA02F24CF82320BFF34F8FBFF36F8F94
:1006B000C26992F90B20530902F01F0201FA02F2FB
:1006C0004CF8232043F20402BFF34F8FBFF36F8F28
:1006D000EFF3108481F31088C169C4F220024FF057
:1006E000004C1E20097813682CFA01F1194311609F
:1006F0001168012107F080FB84F3108800206860F6
:10070000B0BD07207047D4D42DE9F04F8BB0FF2542
:100710001C46C0F2FE051B6803EA05074EF25403AF
:10072000C4F2010347F0004747F47F4727601F7872
:100730000E460192049007F00F07022F03D8012004
:1007400000FA07F70EE0F81E052806D24BF27821D2
:10075000C0F2012151F8207004E0A7F10800102137
:1007600001FA00F7587848F2A069C0F2010900F0D8
:100770000F0007F0E1FA0199494580F29180B0FB42
:10078000F7F003904FF00008010A0691A0FB090161
:10079000CDE9091001210020059005F57F40089062
:1007A0000FE000BF00BF00BF019801210591029931
:1007B00081455FEADF9001424FF000004FF00001F9
:1007C00072D00027029102E001370D2FECD04BF2DE
:1007D0004E20059AC0F20120C05D10F0060F5FEABE
:1007E0000F918A42F0D14BF25C21049AC0F20121B0
:1007F00031F8171002FB01FA0399B1FBFAFBBBF5C4
:10080000807F98BF8A45DFD8C0F3C101702202EA19
:10081000001040EA015007900BFB0AF5DDE90910D2
:10082000EB172A4616F076F876B10699B5FBF1F18A
:10083000C9B28029C8D34843C21700EB1260001226
:1008400003E000BF00BF00BF002147F6601248F27E
:10085000A063CFF6FE72C0F201031218ABF1010BD8
:1008600048BF1A1A4A450DDA4FEA0B208F25236834
:1008700080B2CFF6CF7588462B40079D284391461E
:1008800018432060002E9FD0206808990840BBF1D3
:10089000000F40EA086040F480302060BCD193E74C
:1008A00000200BB0BDE8F08F01998945C8BF032037
:1008B0000BB0BDE8F08FD4D410B584B04FF07041C8
:1008C000EFF3038001EB00604CF200318015C4F2BD
:1008D0000001425822F4803242504DF664124158D1
:1008E000C2F200221458E06900690028206902D091
:1008F000E0B104B010BDC8B1A07800F00300022838
:10090000E06805D10088216A20F4DC40486002E0FC
:10091000216A00780871A078E26800F0030120697C
:10092000401A20611144E1600028E2D1206A0222CD
:10093000816862F315518160616A00200029E060DE
:10094000D7D0A06A40B1D0E900CED0E90223CDE9EA
:100950000223CDE900CE00E06846E269E36A12783E
:100960000260802202710022C0E902238847A06A47
:1009700000281CBF9DE81E001EC004B010BDD4D4CA
:10098000B0B586B04FF07041EFF3038001EB00602B
:100990004CF200318015C4F20001425822F480323A
:1009A00042504DF664124158C2F200221458A07809
:1009B00000F00302206A022A03D101686FF35F216D
:1009C00000E00178A0690191D0B1606901A916F039
:1009D0000DFBA078D4E9051200F003000144101AC1
:1009E000C4E9051037D1616AA9B3A06A00B3D0E9A0
:1009F00000C3D0E90252CDE90452CDE902C318E0A8
:100A0000626A42B3A06A40B1D0E900CED0E90235B3
:100A1000CDE90435CDE902CE00E002A8E369E56A3C
:100A20001B78C0E9021503600423037190470AE0B4
:100A300002A8E269E36A12780260012202710022D0
:100A4000C0E902238847A06A28B102AD2ECD01601B
:100A500042608360C56006B0B0BDD4D4D4D4D4D4D1
:100A6000B0B584B04FF07041EFF3038001EB00604C
:100A70004DF664128115C2F200224FF6EF73041690
:100A80005558CFF6CF73296A8A681A408A60696A16
:100A9000D9B1A86A40B1D0E900CED0E90223CDE9AE
:100AA0000223CDE900CE00E06846EA69EB6A1278DD
:100AB0000260022202710022C0E902238847A86A6C
:100AC00000281CBF9DE82E002EC04CF20030C4F25E
:100AD000000050F8241021F4803140F8241050F820
:100AE000240004B0B0BDD4D4F0B585B04FF070414F
:100AF000EFF3038001EB00604DF664128115C2F242
:100B000000225458A178236A01F00301022904D17C
:100B1000D3F800C06FF35F2C01E093F800C09A6C2B
:100B20002025082105EAD2454FF0100E01EA126196
:100B30001EEA126229440A4403D0996C090458BF82
:100B40004032996E051641F0C8519966636AC3B187
:100B5000A06A40B1D0E900E1D0E90267CDE90367BE
:100B6000CDE901E100E001A8E169027109780160C5
:100B7000E16AC0E902C19847A06A10B101AF8ECF07
:100B80008EC04CF20030C4F2000050F8251021F461
:100B9000803140F8251050F8250005B0F0BDD4D4C0
:100BA0004BF2A0210268C0F2012109788A4244D1A7
:100BB000017904290AD002293FD140F21C60C2F217
:100BC0000020017841F002010170704740F21D6180
:100BD000C2F20021097881B340F22061C2F2002103
:100BE0000A6880683F2A0FD80A68531C0B6040F2DD
:100BF0002463C2F20023985440F21C62C2F2002225
:100C0000137843F004031370C0B208280ED00D28E7
:100C100018BF0A2811D1086878B140F21C60C2F2EE
:100C20000020017841F00101017070470868022836
:100C300038BF70470868013808607047D4D4D4D4EE
:100C40004DF66011EFF31082C2F20021012080F313
:100C500010880868002840F61450C4F2400003D100
:100C600000230370402303700B6801330B6082F391
:100C700010884FF60452CFF6FF7240F60043C0F2E0
:100C8000014383504FF60052CFF6FF728350012389
:100C9000EFF3108283F310880B6813B10B68013BEC
:100CA0000B60096819B9002101708021017010B52D
:100CB00040F2EC504BF2A02182F31088C2F20020E7
:100CC000C0F20121FFF7A4FA00B110BD4BF28C2055
:100CD0000021C0F201204FF47A6244684FF4E13001
:100CE0002346FFF711FD0028EFD140F2EC502146DA
:100CF000C2F20020FFF778FC002818BF10BD40F2B8
:100D00001D600121C2F200200170002010BDD4D46A
:100D100040F2EC50C2F200204068002808BF704743
:100D200040F2EC50C2F20020FFF776BCD4D4D4D409
:100D300083B0B0B581B0044605A80EC040F264602F
:100D400005AAC2F200202146009219F0DFF800281F
:100D500029D440F26460C2F2002016F088FB20B370
:100D600040F21C650446C2F2002540F26461C2F202
:100D700000212246287800F0FD00287040F2EC5057
:100D8000C2F20020FFF708FC90B90020A0EB041489
:100D9000287880070BD45620012107F02DF8013464
:100DA000F6D3142004E0032002E0172000E0002026
:100DB00001B0BDE8B04003B07047D4D4D4D4D4D48B
:100DC00070B540F21D650C46C2F2002540F2206667
:100DD000012CC2F200264FF0000129700DD13168BC
:100DE00059B1316840F22462013931603168C2F290
:100DF0000022515C0170012070BD3168A14240F2B7
:100E0000246138BF3468C2F20021224616F0EEF8A1
:100E100040F21C60C2F20020017801F0FA0101707A
:100E20000020306001202870204670BDD4D4D4D476
:100E300040F21C60C2F20020007800F00100704710
:100E400040F21C60C2F200200078C0F380007047BE
:100E50002DE9F04F8DB00C46804612F0C5FA0028FF
:100E6000059000F09D8004EB440041F25C0101EB31
:100E7000800630460BF0ECFE002800F08E803146F4
:100E80004FF00009CDF81890054616F00BF841F226
:100E90005400012C01952C500598286079DB41F213
:100EA0005C0001994FF0000B084403900494CDF8C6
:100EB000088005E000BF00BF0BF1010BA34568D01F
:100EC00008EB0B167568012DF6DB022001210622C6
:100ED00012F09EF907460130EED011F0C5F8290254
:100EE000099041EA1520ADF81E0002208DF81D0082
:100EF0001822384607A912F0CBFCB168384613F027
:100F0000AFFB06AC0021002238462346042500959D
:100F100012F0A2FE0021012238462346009512F06D
:100F20009BFE05223846059912F086FA0BEB4B0022
:100F3000039A3178F66802EB800A02F820103046F6
:100F4000CAF8087016F093FA00F1010840460BF059
:100F50007FFE074620B138463146424616F046F835
:100F60003846CAF8047016F082FA0128DDF80880C5
:100F7000049CA1DB39180130013900BF00BF00BF5C
:100F80000A782F2A98D1013801F801990128F7DC55
:100F900092E701980DB0BDE8F08F059812F03CFA89
:100FA00000200DB0BDE8F08F2DE9F04F8FB041F279
:100FB000540201908618006812F0B6FA00284ED04C
:100FC000306801284BDB06F108044FF000084FF0B1
:100FD00018090DF10C0A0DF1080B07E000BF00BF66
:100FE000306808F101080C34804538DAA068002820
:100FF000F6D051465A46CDF8089013F0A9F8411C96
:101000000229EDD3054620784FF01809012844D174
:10101000B4200BF01DFE00283FD0B421074615F088
:1010200041FF019A7168B96141F269112078C0F2FB
:101030000021396141F2311138706068F860C0F206
:101040000021C7E9012528467961116805227760EA
:1010500012F0F2F9B86809A913F08AFCC0E756F853
:10106000044F2CB916E000BF04F1180634688CB1A7
:10107000216920468847B0F1FF3FF5DCD4E905102F
:1010800030602046884720460BF00EFF34680CB1D4
:101090002FF013C00FB0BDE8F08F284612F058FDB6
:1010A000B0F5C87F13DBA0F5C8710C291DD80FF26D
:1010B0000600DFE801F0072D151528151515151583
:1010C000231532004CF22050C0F201207047C8288E
:1010D00028D0CC2802BF4EF2CF10C0F201207047BA
:1010E0004EF62E00C0F201207047B0F5FA7F02BF25
:1010F0004CF22F40C0F201207047F1E74EF2DA10B7
:10110000C0F2012070474CF26700C0F20120704726
:101110004BF67240C0F2012070474DF61500C0F248
:10112000012070474CF22C40C0F201207047D4D40B
:1011300010B50446806848B161680F22096812F052
:10114000C3F9A06812F004FD0020A060D4F8AC0040
:10115000002808BF10BD0BF0B3FB0020C4F8AC00A2
:1011600010BDD4D4D4D4D4D42DE9F04784B0804673
:10117000D0F8AC0010B1404600F0D2F8D8E9011028
:101180004FF4006204310023002413F061F8054697
:101190000128C0F2C080D8F80400B4EBD52F00F1CC
:1011A000040A02D100210AF805102844033005E0A2
:1011B000013D4FF0000100F8011905D001780D291B
:1011C000F6D00A29F4D000E000254EF68C300AEB68
:1011D0000509C0F20120C8E907A04EF6143000242A
:1011E000C0F20120061D05E0013C0C3614F1090097
:1011F00000F0918056F8047CBD42F5DB3068514622
:101200003A4616F089F90028EED10AEB0700461C91
:10121000C8F81C604E4513D24CF22C55C0F2012583
:10122000317841B10522284615F040FE18B9013643
:101230004E45F5D304E0002006F8010BC8F8206005
:10124000002C4FF0000566D1D8F81C00C8F8B0504B
:1012500001782F2903D02F2500218DF80F108DF84C
:101260000E5008F124054DF65772D8F80C30C0F234
:10127000012281210DF10E07CDE90070284616F0FC
:101280005DFC4CF668412846C0F201210BF0DCFA07
:10129000C8F8AC0038B14068C8F8A800404600F073
:1012A0003FF8054637E0D8F8044041F204094FF40E
:1012B000CA7004EB090704F6040AFFF7F1FE14F8FC
:1012C00009104EF63602C0F201220090002952EABF
:1012D00007864DF638524FF40061C0F201224FF4F8
:1012E000CA73504607F12805CDE9016516F026FCC2
:1012F000002104F8091087F828100246D8F80800E1
:101300000023514613F0A0F898F8B010054641F0BC
:10131000010088F8B000284604B0BDE8F087D4D4B6
:101320002DE9F04F83B0044690F8B000C10737D1E3
:1013300040F0010084F8B000606804F1240300214B
:10134000002206E000BF00BF1A462F2F53EA01819A
:1013500001331F782E2FF7D0002FF6D14EF6360826
:1013600041F20409C0F201288A4200EB090A414611
:1013700019D94EF690304EF6360BC0F20120561CAD
:10138000071D0D25C0F2012B57F8041C304606F04E
:101390009FFF38B1013D07F10807F5D1594602E03A
:1013A000002541E03968504615F01AFD606841F2A9
:1013B0002C014BF21B52D4F8A8300844C0F2012291
:1013C000282116F0BBFB6668C82006EB090706F665
:1013D000040AFFF765FE16F809104DF63852009022
:1013E000C0F20122002958EA078C4FF40061C8239B
:1013F000504607F12805CDE901C516F09FFB0021F5
:1014000006F8091087F828100246A0680023514604
:1014100013F01AF894F8B0100546002841F00100C6
:1014200084F8B00029D400BFA06813F0B9FAD4F84A
:10143000A810814251EA3086FEB1B6F5006F4FF038
:10144000010128BF4FF400666068D4F8AC3000F6A4
:10145000040032460BF048FAD4F8A8100023D4E96F
:101460000120891BC4F8A81002F60401324612F0CC
:10147000EBFF0546B0F1FF3FD6DCD4E90110D4F80C
:10148000A820002A09684FF0020202D011F0D4FF10
:1014900009E012F019F8D4F8AC0020B10BF010FA02
:1014A0000020C4F8AC00284603B0BDE8F08FD4D4C7
:1014B000022818BF70474DF204304FF27451C2F247
:1014C0000020C0F2012105F0CBBDD4D4D4D4D4D4B3
:1014D00010440844D84201D10020704710B515F0DF
:1014E000F4FF04466FF3DF3415F0EFFF48F200011C
:1014F000C3F6FF7101EAC030044415F0E6FF54EA78
:1015000080705FEA0F9010BD80B582B00021ADF809
:10151000061012F035FD20214FF4FA6210F024FC81
:1015200078B14DF258300DF10601C2F200204FF4AF
:10153000FA6200680CF0D0FB01285FEA0F9002B05D
:1015400080BD022002B080BD80B582B00028ADF819
:1015500006104FF00000009008D040F68A60C2F2FA
:10156000002001780131017002B080BD4DF2583089
:101570000DF10601C2F200206A46002300680CF05B
:10158000E7FA009850B14EF604504FF08051CEF279
:1015900000000160BFF34F8FBFF36F8F02B080BDBB
:1015A000A6B04FF0000ACDF80CA0FFF749FB03A846
:1015B00006F012FC9DF80E309DF80F204BF24050C3
:1015C0004BF638219DF80D70C0F20120C0F20121C8
:1015D0000097FFF7ADFB4BF6B150C0F20120FFF7CB
:1015E000A7FB00F08DF940F6646040F20A0140F27A
:1015F0000E0240F6686340F20407C2F20020C2F215
:101600000021C2F20022C2F20023C2F2002700979A
:1016100010F02EF968B94DF6F2104BF63C214CF65D
:10162000DE62C0F20120C0F20121C0F20122FFF708
:101630007FFB4CF66B40C0F20120FFF779FB4EF6C2
:101640003C6040F68C65C0F2012040F6886940F6A7
:101650008A68C2F2002504680CAEC2F20029C2F208
:1016600000284FF0000B02940DE000BF00BF00BF48
:101670004EF2D340C0F20120FFF75AFB4BF0020BB1
:1016800064200CF071FF287801284DD1204602F02B
:10169000B7FF074610F028FD01285FEA1F90002FD2
:1016A00008BF043005283FD15FEACB7007D14BF665
:1016B0004D20C0F20120FFF73BFB4BF0010B5FEA2E
:1016C0004B7013D4287801280CD110F0F1FC40F6AF
:1016D0006C67C2F20027786010F0D2FCB86010F09E
:1016E000DBFCF86000F00CF94BF0040B41213046B4
:1016F0008DF876A0ADF874A015F0D4FB4DF26A50C9
:10170000CDE90AAAC0F20120CDE908AACDE906AACE
:10171000CDE904AAFFF70CFBFFF78AFB80B90A208A
:101720000CF022FFF8E700BF5FEA8B70A0D54CF207
:101730007500C0F20120FFF7FBFAA1E700BF00BF70
:1017400004AF20213846FFF73BFB4EF2F21138463A
:10175000C0F201211DAA334616F022FA9DF874004A
:101760003138042800F2BF80DFE800F0039975806B
:101770005C0040F689603146C2F2002089F800A082
:1017800088F800A080F800A04EF2C900C0F2012045
:10179000FFF7CEFA0A2410E098F80000013088F82C
:1017A00000004CF27500C0F20120FFF7C1FA64207E
:1017B0000CF0DAFE013C00F07D803046ADF878A0F8
:1017C00012F0DEFB20214FF4FA6210F0CDFA00286F
:1017D000E2D04DF258304FF4FA62C2F200201EA956
:1017E00000680CF079FA07464CF23A50C0F201203A
:1017F000FFF79EFA99F80000012F00F1010089F827
:10180000000009D140F68961C2F200210878013058
:101810000870CCE700BF00BF98F80000013088F8DE
:101820000000C4E700F01CF900283FF429AF074688
:1018300000F05AFB4DF63300C0F20120FFF778FAB2
:101840004CF6F5603946C0F20120FFF771FAFFF758
:101850005FFA00BE14E7304600F07EFC00283FF43B
:101860000FAF4CF66150C0F2012064E73046CDE97D
:1018700024AACDE922AACDE920AACDE91EAA0FF01B
:10188000C7FBA8B31EAF394612F016FB4DF65E70CB
:101890003146C0F201203A46FFF74AFAF0E63046F8
:1018A00000F06AFB00283FF4EBAE4CF24E40C0F271
:1018B000012040E74DF235703146C0F20120FFF7BC
:1018C00037FA40F6896099F90010C2F2002098F9C1
:1018D000003090F900204BF65D20C0F20120FFF7A8
:1018E00027FA029CCCE64CF69B50C0F2012022E77E
:1018F0004DF67D703146C0F20120FFF719FABFE6C0
:101900002DE9F04F83B040F68C6840F20A0BC2F22A
:10191000002840F20E0A40F6686940F6646798F8BD
:101920000000C2F2002BC2F2002AC2F200290128F4
:10193000C2F200270DD140F66C60C2F2002090E8A0
:101940000E00C068CBF80020CAF80030C9F80000CB
:1019500039604DF61020C0F20120FFF7E9F94DF68D
:101960009C70C0F20120FFF7E3F940F20400C2F2DC
:101970000020017842788378C478057946794CF65E
:1019800055200094C0F20120CDE90156FFF7D0F9AF
:1019900098F800004CF64A314CF28842C0F201211E
:1019A000C0F20122002851EA12814CF23C50C0F2F0
:1019B0000120FFF7BDF939787A78BB784EF2DE0066
:1019C000FF78C0F201200097FFF7B2F99BF80010F2
:1019D0009BF801209BF802304BF279309BF80370A2
:1019E000C0F201200097FFF7A3F99AF800109AF8C7
:1019F00001209AF802304CF682009AF80370C0F287
:101A000001200097FFF794F999F8001099F8012048
:101A100099F802304EF27B7099F80370C0F2012001
:101A20000097FFF785F903B0BDE8F08FD4D4D4D484
:101A300001280AD140F66C60C2F20020016040F635
:101A40008C60C2F200200121017000207047D4D4C4
:101A50004EF2E910C0F201207047D4D4D4D4D4D4CB
:101A60002DE9F04FADF25C4D40F690600021C2F2DE
:101A70000020C0E90011C0E90211C0E9041141F2DF
:101A8000D4604EF6C041C2F20020C0F2012101F044
:101A900013FA68B105464DF6F2104EF211114EF2EE
:101AA0001342C0F20120C0F20121C0F2012247E03E
:101AB00041F2D46016A9C2F2002001F01DFA68B10B
:101AC00005464DF6F2104EF211114DF2C832C0F239
:101AD0000120C0F20121C0F2012231E040F6906401
:101AE00041F2D46040F23001C2F20024C2F2002080
:101AF000C2F20021224601F023FA68B105464DF6F4
:101B0000F2104EF211114CF62702C0F20120C0F281
:101B10000121C0F2012213E02068C0F3C711204662
:101B20000AF0BAFB08B305464DF6F2104EF2111159
:101B30004DF2A072C0F20120C0F20121C0F20122D8
:101B4000FFF7F6F84DF6F2104EF2FB114DF255721A
:101B5000C0F20120C0F20121C0F20122FFF7E8F833
:101B6000E8B20DF25C4DBDE8F08F4BF6E86040F650
:101B70009061C0F20120C2F200210AF085FF68B92D
:101B80004DF6F2104EF211114CF28B22C0F20120F0
:101B9000C0F20121C0F20122FFF7CAF840F20406A8
:101BA00040F20A04C2F20026C2F2002440F20E0201
:101BB00030782578159070781490B0781390F0787C
:101BC000129040F66460C2F20020C2F200226378F4
:101BD000A17890F800C090F8019090F802E0C078E9
:101BE000E478CDE908050CA896F804B096F805A0AD
:101BF0001678577892F80280D278CDE90A3110929F
:101C00004DF2E50280E8D00116AC149800901398CC
:101C100001901298CDE9020BC0F201224FF48061CD
:101C20002046159BCDE904ACCDE9069E15F086FF54
:101C30004DF2B6702146C0F2012000F061FBC0B148
:101C400004464DF6F2104BF65F014EF6FD12C0F25F
:101C50000120C0F20121C0F20122FFF769F84CF621
:101C6000F5602146C0F20120FFF762F8FFF750F857
:101C700000BE4EF6F8300121C0F20120FFF7E8F86F
:101C8000002800F0118180464EF68E10C0F201202F
:101C9000FFF74EF841F264000B2208EB00011491AB
:101CA00058F80000002101230427009711F0D4FF09
:101CB00040F66460C2F20020017842788378C778E9
:101CC0004CF6B5000097C0F20120FFF731F84DF255
:101CD0007B00C0F20120FFF72BF84BF6902A4DF263
:101CE00004374DF65B044CF609164EF27C2B08F1D6
:101CF0000405C0F2012AC2F200270DF15809C0F212
:101D00000124C0F20126C0F2012BCDF8548000BF9F
:101D100041F288314046FFF747F9082228465146EC
:101D200015F042FD002867D140F20E7138460DF2E1
:101D30005B4205F0A1F99DF85B044CF266514BF251
:101D4000E124C0F201210128C0F2012451EA048AF1
:101D500038464EF6EF1640F203310DF25B42C0F208
:101D600001265BEA068805F087F99DF85B044FF4CD
:101D700000714346CDF800A001284CF26650C0F235
:101D8000012050EA04805BEA0682CDE901204EF290
:101D900087224846C0F2012215F0D0FE4DF29B701A
:101DA0004946C0F2012000F0ABFAB8B14DF6F2108E
:101DB0004CF62A114EF6FD12C0F20120C0F20121AC
:101DC000C0F20122FEF7B4FF4CF6F5600121C0F22B
:101DD0000120FEF7ADFFFEF79BFF00BE4BF6902AF9
:101DE0004DF65B044CF60916C0F2012ADDF854806A
:101DF000C0F20124C0F201260C222846214615F02B
:101E0000D3FCA8B940F20E7138464A4605F034F9C1
:101E10009DF8580040F20E7100285FEA1F92384684
:101E200005F03EF94CF27800C0F20120FEF780FF89
:101E30000C222846314615F0B7FCA8B940F2033110
:101E400038464A4605F018F99DF8580040F203312B
:101E500000285FEA1F92384605F022F94DF27170B2
:101E6000C0F20120FEF764FF4FF40061284615F030
:101E700019F8FEF7E5FF18B901200CF075FB47E7EC
:101E800000F032F81498006811F062FE01281BD1AE
:101E9000D8F8000011F0C0FA4EF6B310C0F20120DD
:101EA000FEF746FF00255BE64DF6F2104EF2FB1101
:101EB0004BF64B32C0F20120C0F20121C0F20122E8
:101EC000FEF736FF01254BE605464DF6F2104EF2C1
:101ED000FB114DF6DD72C0F20120C0F20121C0F20B
:101EE00001223BE6D4D4D4D410B541F2D46040F6FC
:101EF0009061C2F20020C2F2002101F059F8C0B195
:101F000004464DF6F2104CF616114BF6A662C0F2DE
:101F10000120C0F20121C0F20122FEF709FF4CF6B8
:101F2000F5602146C0F20120FEF702FFFEF7F0FE49
:101F300000BE41F2D460C2F2002001F045F8002852
:101F400008BF10BD04464DF6F2104CF616114CF2C7
:101F50004722C0F20120C0F20121C0F20122FEF7A7
:101F6000E7FE4CF6F5602146C0F20120FEF7E0FEE8
:101F7000FEF7CEFE00BE10BDF0B5B9B0044619A8FC
:101F8000802114F08FFF4EF62C4010A9C0F20120E2
:101F90000DF1140C6CC86CC16CC86CC1008806AA29
:101FA00008804EF66021049141F2883103914DF68C
:101FB0003B21131D02F108000090C0F201212046D0
:101FC0000026CDE9086602F10C050596CDE9066606
:101FD000CDE9015C15F0E4FD4CF615712046C0F228
:101FE000012115F005FD054605980102099A41EA0F
:101FF0001020DDE907310904CDE90A6641EA0261F2
:10200000069A0D960E960F96ADF82A0041EA032027
:10201000012110430C90022006228DF8290011F0B6
:10202000F7F80446013024D04EF20E20C0F2012011
:10203000FEF77EFE04AB0021002220460427009715
:10204000002611F009FE03AB002101222046009773
:1020500011F002FE00BF00BF2846FFF755FAC0B1DD
:10206000082E06F10106F7D94BF60100C0F2012057
:102070001FE04DF6F2104EF6DD114BF2DF72C0F2AA
:102080000120C0F20121C0F20122FEF751FE01251C
:1020900019E04DF67750C0F20120FEF749FE0AA97B
:1020A0001822204611F0ACFF80B14DF66230C0F22C
:1020B0000120FEF73DFE01250221204612F010FB13
:1020C000204611F045FDE8B239B0F0BD07AF4EF241
:1020D0002A20DDE90561C0F201208CCFCDE9007630
:1020E000FEF726FE10A921220023204612F0ACF9AB
:1020F0000546012808DB4EF254202946C0F2012093
:10210000FEF716FE002505E04EF64000C0F2012065
:10211000FEF70EFE19AE8021304614F0C3FE4BF2DE
:10212000C020C0F20120FEF703FE7F2200232046DC
:10213000314612F08DF8012807DB4CF2712019A905
:10214000C0F20120FEF7F4FDB6E74DF2BA00C0F28E
:102150000120AEE7D4D4D4D4F0B5BBB004461BA85C
:10216000802114F09FFE4EF6084012A9C0F2012013
:1021700006ADCCC8CCC1CCC8CCC1008807AA0880A9
:102180004EF66021059141F2883104914DF63B21D4
:1021900018200B90131D02F108000090C0F20121DD
:1021A00020460026CDE9096602F10C070696CDE926
:1021B0000766CDE9017515F0F3FC4CF61571204664
:1021C000C0F2012115F014FC0546069801020A9A96
:1021D00041EA1020DDE908310904CDE90C6641EA45
:1021E0000261079A0F9610961196ADF8320041EAF7
:1021F0000320022110430E90022011228DF831009D
:1022000011F006F80446013023D04BF64300C0F22B
:102210000120FEF78DFD05AB00210022204604279A
:102220000097002611F018FD04AB00210122204682
:10223000009711F011FD00BF2846FFF765F9C0B106
:10224000082E06F10106F7D94BF60100C0F2012075
:102250004DE04DF6F2104BF6D6614BF2DF72C0F254
:102260000120C0F20121C0F20122FEF761FD01252B
:1022700043E0182012A9222200230CAFCDE9007000
:10228000204611F031FA012808DB01464BF68E405A
:10229000C0F20120FEF74CFD002506E04EF640009E
:1022A000C0F20120FEF744FD01251BAE802130461F
:1022B00014F0F8FD4BF2C020C0F20120FEF738FD0B
:1022C000802200230BA8CDE900702046314611F092
:1022D0007FF9012807DB4CF28B401BA9C0F20120DB
:1022E000FEF726FD06E04DF2BA00C0F20120FEF72F
:1022F0001FFD0125204611F02BFC28463BB0F0BD08
:10230000F0B581B00F464EF21141C0F201210446F2
:102310000AF09AFA98B340F6A8660546C2F200267B
:102320004FF40061304614F0BDFD4CF69A224FF494
:102330000061C0F2012230463B4615F0FFFB3046FB
:1023400015F095F80246012130462B460AF0E4FAD2
:102350000746304615F08BF887421FD128460AF011
:10236000AFFA80B34DF6F2104DF6A3314BF6992239
:10237000C0F20120C0F20121C0F201220BE04DF6B3
:10238000F2104DF6A3314EF2E542C0F20120C0F248
:102390000121C0F20122FEF7CBFC06E04DF68330AE
:1023A0002146C0F20120FEF7C3FC002000210CF002
:1023B00083FD01464DF64A20C0F20120FEF7B8FC2D
:1023C000012001B0F0BD002001B0F0BDD4D4D4D4C0
:1023D00080B582B04DF20C324DF21033C2F20022C1
:1023E000C2F20023042001214FF0000CCDF800C000
:1023F0000BF052F84DF258310028C2F2002108606B
:102400001CBF02B080BD0020002102B0BDE88040AA
:1024100000F006B8D4D4D4D4FFF7DABFD4D4D4D4DF
:1024200000BE7047D4D4D4D4B0B54DF25C344FF074
:10243000FF31C2F2002420680BF00EFA012803D00D
:1024400020680021FFF7ECFF4DF26030C2F200205F
:102450000178002918BFB0BD01210170FFF7DCFF32
:102460004DF26435C2F200252868013828600CD08E
:1024700020680021002200230BF0A2F80128F3D0ED
:1024800020680021FFF7CCFFEEE7B0BDD4D4D4D450
:1024900080B54DF260324DF26430C2F20022C2F2D9
:1024A0000020002111704DF268320160C2F200225A
:1024B0004FF4807001210BF0BBFA4DF25C31C2F297
:1024C0000021086018B900200021FFF7A9FF00F0E3
:1024D00027F80CF0FDF8002080BDD4D4D4D4D4D497
:1024E0004DF2B03C4DF21843C2F2002CC2F2002370
:1024F000C0F800C00B60802010607047D4D4D4D4E2
:102500004DF2186C4DF28063C2F2002CC2F200232F
:10251000C0F800C00B60802010607047D4D4D4D4C1
:1025200080B584B04DF264304EF6F863C2F20020FC
:102530004DF6800C4FF6C80EC0F2012301684FF42F
:102540000062013101600120009042F291504CF68E
:102550003D11C0F20020C0F20121C2F2002CC2F2F3
:10256000022ECDE901EC0BF03FFD4DF6E80100280D
:10257000C2F2002108601CBF04B080BD0020002111
:1025800004B0BDE88040FFF74BBFD4D4D4D4D4D43A
:1025900010B50446FFF748FF2046BDE81040FEF79F
:1025A000FFBFD4D4D4D4D4D41EF0040F0CBFEFF3A7
:1025B0000880EFF30980014908470000592600020E
:1025C0000F4B1968EFF309821EF0100F08BF22EDC0
:1025D000108A22E9F04FEFF30B8342F8043D0A60C2
:1025E0004FF0100080F31188BFF34F8FBFF36F8F50
:1025F0000CF01AF84FF0000080F3118800F004B8D6
:1026000060DA0222D4D4D4D4074801680A6802CA26
:1026100081F30B88B2E8F04F1EF0100F08BFB2EC48
:10262000108A82F30988704760DA0222D4D4D4D4A5
:1026300010B51020EFF3118480F311880CF0ECF842
:1026400030B14EF604504FF08051CEF200000160E0
:1026500084F3118810BDD4D4806910F8020C0228CC
:1026600001D1FFF7D1BF042838BF704780B54BF2C6
:10267000AC304CF64E324BF6AE23C0F20120C0F225
:102680000122C0F201234FF47E7105F0ADFBD4D4DA
:10269000283140F8481D42F2B9614FF0807CC0F209
:1026A000002122F00102C1630264C0F844C06FF04F
:1026B0000201C0E90913704700BE00BF00BF00BFA0
:1026C000FEE7D4D4D4D4D4D44EF62250F021CEF2A6
:1026D0000000017000F018F84EF63470CEF20000E1
:1026E000016841F04041016062B6BFF36F8FEFF3C4
:1026F000148C2CF0040C8CF31488BFF36F8F02DF62
:1027000000BEFDE7D4D4D4D44DF68C1044F6D3519A
:10271000C2F20020C1F262010068A0FB01014FF08B
:10272000FF3000EB91110020B0EB116F18BF704724
:102730004EF21002F023CEF2000251604EF6235109
:10274000CEF200010B709060072010607047D4D467
:10275000EFF31180102181F311884DF6EC01C2F2E4
:1027600000210A68002A02F101020A6018BF7047BE
:102770004DF6F001C2F2002108604EF60450CEF290
:1027800000000068C00500D1704780B54BF2AC3046
:102790004BF2D2324CF64813C0F20120C0F20122B3
:1027A000C0F2012340F2A44105F01EFBD4D4D4D4DE
:1027B0004DF6EC00C2F20020016859B10139016008
:1027C00018BF70474DF6F000C2F20020006880F399
:1027D0001188704780B54BF2AC304EF2F9424BF2A3
:1027E000E523C0F20120C0F20122C0F2012340F231
:1027F000AD4105F0F9FAD4D410B572B64EF6902476
:10280000C4F201040BF08CFD2078010720D04EF2B9
:10281000FA314AF2025CC4F20101CFF6FF7C0022D9
:102820000B88A1F800C0227043F425420A80BFF350
:102830004F8F30BFBFF36F8F62B6BFF36F8F72B62B
:102840000A88A1F800C0207042F42540088008E002
:10285000BFF34F8F30BFBFF36F8F62B6BFF36F8F81
:1028600072B662B6BDE810400BF0B6BDD4D4D4D475
:1028700080B5EFF30380103840B2002806D44EF242
:102880000041CEF20001405C0F2817D94EF60C50E3
:10289000CEF200000068400558BF80BD4BF2AC305E
:1028A0004DF650224BF6B643C0F20120C0F2012291
:1028B000C0F2012340F2216105F096FA4BF2AC30F0
:1028C0004DF650224EF23A43C0F20120C0F20122EE
:1028D000C0F2012340F20F6105F086FAD4D4D4D4BB
:1028E00080B582B041690022019219B30279D31EEA
:1028F000022B14D208680068D0B101AA00210CF0A4
:102900009FFC0198A0B14EF604504FF08051CEF2DA
:1029100000000160BFF34F8FBFF36F8F08E0092AFB
:1029200006D10069006802B0BDE880400FF0CCBB62
:1029300002B080BD4CF660304DF2F4324CF6AF532D
:10294000C0F20120C0F20122C0F2012340F20711BF
:1029500005F04AFAD4D4D4D470B582B040F27C11D8
:10296000C2F200210E68002E56D00446D6E90001BE
:102970000D688160002D5ED069684878012800D11B
:10298000FEE7AA68286812689047002818BF0E283A
:102990003BD1A96828688969884733680546196862
:1029A00081B970684CF6FC51C0F20121D0E901C236
:1029B00042F65930C0F20020CDE900C323460BF0A7
:1029C00043FC336853F8040F08B115BB10E070687E
:1029D0004CF61771C0F20121D0E903C242F6214042
:1029E000C0F20020CDE900C323460BF02DFC85B9D1
:1029F0003068016869B1416859B144F25031C0F2A0
:102A00005401C160012002B070BDA96828684968FE
:102A10008847002002B070BD4CF660304EF2AE72B6
:102A20004CF6AF53C0F20120C0F20122C0F20123E4
:102A3000722105F0D9F94CF660304EF2AE724BF6C9
:102A40007933C0F20120C0F20122C0F201237721C4
:102A500005F0CAF9D4D4D4D470B540F27C108B6A96
:102A6000C2F200200C463B2B164600684068006806
:102A700001D83C23A362816800681A464D69616AE7
:102A8000A847012E054602D120460CF069FF002D13
:102A90005FEA1F9070BDD4D480B540F27C10C2F2C2
:102AA000002000684068006881680068896988477C
:102AB00000285FEA1F9080BD70B559B34DF6F4064B
:102AC0000546C2F200264EF20B520C46C0F201221D
:102AD000112130462B4615F031F842F6591104F118
:102AE000080C0020C4E90800C0F2002142F6592277
:102AF00042F69923C4E90500E0612046C0F20022B5
:102B0000C0F20023C4E900658CE80E0010F0B4F9AF
:102B1000204670BD4CF660304CF6DA524EF6162365
:102B2000C0F20120C0F20122C0F201234FF49971DA
:102B300005F05AF9D4D4D4D4B0B5044614F0C5FC89
:102B4000054614F0C2FC01460120C5EA014121609E
:102B5000B0BDD4D4D4D4D4D484B040F27C1A0446CA
:102B60000025C2F2002A0DF104094FF0010B0DF10E
:102B7000080804E000BF00BF38460CF0F1FE00205A
:102B800000214FF0FF320CF003FB40F2EA5000212D
:102B90000CF076FE08B92FF00FC0074600BF00BF4B
:102BA000DAF8000040680168D1E900028968D2695A
:102BB00001928B68796A4A46984768B10646796AF5
:102BC00020460195C7E90A5410F0A2FAB6F57A6FCB
:102BD0003863D1D150B9CFE70198C7E90A04796ABF
:102BE000204610F095FA38630028C5D0786A0FF0B7
:102BF0006FF90128C0D1002140468DF808B0039735
:102C00000EF002FE0128B7D140F2EA5000210CF08C
:102C100037FE07460028C3D1B1E7D4D4D4D4D4D4E6
:102C200082B040F27C118046C2F2002140F6A17AC7
:102C300041F2883BE9460E6840F6A17400207168B5
:102C40000F68CDE9000808E00021054648460EF06F
:102C5000DBFD012855EA0484716848690BF084FCA7
:102C6000B9683868896988478442F5D0584518BFE3
:102C70005045E9D00028EFD1D8F820000EF08CFDA7
:102C800000247168E9E7D4D400281CBF4FF0FF315D
:102C90000AF0BABD80B54EF211504BF2E5324BF658
:102CA0009833C0F20120C0F20122C0F201236C214E
:102CB00005F09AF8D4D4D4D4002818BF0AF058BC30
:102CC00080B54EF211504CF2A1024BF69833C0F28F
:102CD0000120C0F20122C0F20123772105F084F81F
:102CE0000BF042BCD4D4D4D4006E002808BF704787
:102CF0000AF0DEBAD4D4D4D410B504460AF078F978
:102D0000206620B107210AF087F9012010BD0020BC
:102D100010BDD4D4D4D4D4D4B0B582B0044642F2D9
:102D2000107500BF00BF00BF206E022100220023EB
:102D300000950AF0D5F9206E02210AF085FA800785
:102D4000F2D502B0B0BDD4D410B50446006E002157
:102D50000AF07AFA80075FBF206E0221BDE81040BA
:102D60000AF05AB94EF211504CF69D224DF6FF73FF
:102D7000C0F20120C0F20122C0F20123D22105F0ED
:102D800033F8D4D4D4D4D4D4B0B50D4604460CF022
:102D9000A3F8E90701D10020B0BD216F00295FEA47
:102DA0000F9281425FEA1280B0BDD4D4D4D4D4D47F
:102DB000B0B50D4604460CF08FF8E90708BFB0BD6A
:102DC000216F11B1814200D1B0BD4EF211504CF2D1
:102DD00069524BF6EA63C0F20120C0F20122C0F250
:102DE0000123FE2105F000F8B0B582B005460CF0D5
:102DF00073F8296F21B1814216D000BF00BF00BF18
:102E0000286E01210022002342F2107400940AF07F
:102E100067F9286E01210AF017FAC007F0D00CF00C
:102E20005BF8286702B0B0BD4EF211504EF630226A
:102E30004DF66F23C0F20120C0F20122C0F201233F
:102E400040F20F1104F0D0FFB0B50446006E00212F
:102E500000250AF0F9F9C00701BF206E012125679E
:102E6000BDE8B04008BF0AF0D7B84EF211504EF29C
:102E700041524DF6AE33C0F20120C0F20122C0F241
:102E800001234FF4987104F0AFFFD4D4D4D4D4D438
:102E900080B582B08C46006E042104220023CDF858
:102EA00000C00AF01DF9C0F3800002B080BDD4D488
:102EB000006E04210AF0B0B8B0B5044604200D46F7
:102EC0000AF03AFB206168B1296807C91268904787
:102ED00050B12169054608460AF0F6FF2846002150
:102EE0002161B0BD0920B0BD46F28450C7F2700028
:102EF000C4E900050020B0BDB0B584B00546406807
:102F00000C460068826800685168884708B104B0C0
:102F1000B0BD6868006881680068CA6901A9904707
:102F20000028F4D19DF80C10002CA9721CBFDDE91B
:102F30000112C4E9002104B0B0BDD4D4D4D4D4D497
:102F400010B58AB0144600220794C4E90022C4E9EF
:102F50000222C4E904220A7C0B68E360D201C4E9BE
:102F60000020D1E901230492C968CDE9021342F699
:102F7000F171C0F20021059143F2A901C0F20021D4
:102F80000691817A00690991089002A801A908F0C8
:102F900003FC0199A06011B164200AB010BD206843
:102FA00040F00100206000200AB010BDD4D4D4D479
:102FB00010B588680C4608F0AFFC00202168A060BE
:102FC00021F00101216010BDB0B5044640680068E1
:102FD00081680068096A8847002818BFB0BD216968
:102FE000054608460AF070FF284600212160B0BD62
:102FF0002DE9F04381B040F20A0815460E46074617
:10300000C8F20008D3F804900BF066FFC9F80C0072
:103010000020A9F808003246D9F804002B460068C1
:1030200081680068CC683946A047E0B900200121DA
:103030004FF0FF320CF0ACF8012814D1B9F80800B9
:10304000000710D4B9F80800C00602D44FF00008F9
:1030500009E0D9F804000668B16830688A690DF1A2
:103060000101904718B1404601B0BDE8F0830DF171
:10307000010508E000BF00BFB16830688A692946D1
:1030800090470028EFD19DF802000128DED1D9F841
:103090000400C1680029EFD0006988470028EBD000
:1030A000E1E7D4D4D4D4D4D42DE9F04381B040F2B4
:1030B0000A0815460E460746C8F20008D3F80490E1
:1030C0000BF00AFFC9F80C000020A9F808003246EE
:1030D000D9F804002B460068816800688C6839467E
:1030E000A047E0B9002001214FF0FF320CF050F86A
:1030F000012814D1B9F80800000710D4B9F8080065
:10310000C00602D44FF0000809E0D9F804000668B0
:10311000B16830688A690DF10101904718B14046E5
:1031200001B0BDE8F0830DF1010508E000BF00BF6C
:10313000B16830688A69294690470028EFD19DF828
:1031400002000128DED1D9F80400C1680029EFD0BF
:10315000006988470028EBD0E1E7D4D4D4D4D4D494
:10316000B0B584B00446008810F0630F656809D0DC
:103170006A68516831B18DF808009068039002A820
:103180008847208810F01C0F19D02989084328810E
:10319000E868A0B100240194E86801AA00210CF0BD
:1031A0004FF8EC60019850B14EF604504FF080514A
:1031B000CEF200000160BFF34F8FBFF36F8F04B0FA
:1031C000B0BDD4D4D4D4D4D470B50C4689680546E7
:1031D0000E68B268D6E9000112689047002818BF4F
:1031E00070BD45F24901C5E90064C5F25311A960FB
:1031F00070BDD4D4D4D4D4D40146002001220A73A3
:103200007047D4D4D4D4D4D410B582B0D0F804C08C
:1032100003EB020EDCF808C0DCF80840744502D26B
:10322000162002B010BDDCF8044004FB03FEDCF8FD
:103230000C3004FB02320123837304460846114616
:10324000724613F0D3FE62680020A073116831B19A
:10325000042000905068019068468847002002B022
:1032600010BDD4D4D4D4D4D42DE9F04F83B00446C7
:10327000406887689818BE68864203D2162003B05B
:10328000BDE8F08F8B462046904611461A461E46F2
:1032900000F066F810B103B0BDE8F08FD4E900513A
:1032A00088686B6840689B6800FB06F27868FF6876
:1032B0000126E6730026934202D9042200203CE056
:1032C000B2FBF3FA00FB08780DF1030600BF00BF64
:1032D000A9682868424699464F695946B847002868
:1032E000D9D1A9682868CA6931469047B0B99DF814
:1032F00003101027C90711D06068016821B1406828
:10330000029001A801978847A9682868CA693146D0
:10331000904718B99DF80310C907EDD1BAF1010A19
:1033200005D04B46C844CB4408B92FF02FC808221B
:1033300061680026002808BF0422E6730B68002B92
:10334000A9D04968029101A904460846ADF80420B5
:103350000022ADF806209847204603B0BDE8F08F64
:103360002DE9F04F83B04368044693460A449868B9
:103370008768974203D2162003B0BDE8F08FD0E9EA
:1033800000580122C068BBF1000F62734FF00002C9
:1033900036D008FB01070DF103064FF0100A0DF1BE
:1033A000040900BF00BF00BFA968286842468B69B6
:1033B00039469847A8BB00BFA9682868CA69314642
:1033C000904788B99DF80310C9070DD0606801685F
:1033D00009B92FF00FC8406802904846CDF804A004
:1033E0008847E9E700BF00BF18B9BBF1010B4744AC
:1033F000DAD1082163680022002808BF042101E017
:103400000421002062731A685AB1ADF8041000213B
:10341000ADF806105968029101A904460846904784
:10342000204603B0BDE8F08F06207047D4D4D4D432
:10343000B0B582B0044640680D460DF107018068C2
:10344000006882680068D269904708B102B0B0BDD8
:10345000A27B9DF807100123002A4FF0010204D13E
:10346000E37B0BB1012300E0637BAA70227B19434D
:103470002A7001F00101697002B0B0BDD4D4D4D477
:1034800040688068D0E90102C1E900020020002202
:103490000A817047D4D4D4D410B50446006881683A
:1034A0000068096B884700200021A160217310BDCE
:1034B000F0B581B0044602206D4600BF00BF00BFDA
:1034C00007461F210022204600F0B2FA1F212046A5
:1034D0002A4600F08DFA009830B16068791E406885
:1034E000814207F10100EBD36A461721204600F024
:1034F0007FFA6068009AC2F3C123807B01285FEAEB
:103500001F91032808BF02218B4203D17E1E012890
:1035100022D92EE022F4C05040EAC12217212046D1
:10352000009200F085FA6D4600214FF400422046DB
:103530003E4600F07DFA002120462A4600F058FA67
:103540009DF801000006606803D54168771C8E4233
:10355000EAD3807B01280CD86A460921204600F076
:1035600047FA0098092120F440722046009200F0AA
:103570005FFA6D4600BF00BF1F210222204600F007
:1035800057FA1F2120462A4600F032FA00980136E9
:10359000022803D0606840688642EDD36D4614214E
:1035A00020462A4600F024FA0098142140F04000FA
:1035B00020F037022046009200F03AFA1B21204604
:1035C0002A4600F015FA009A012060F307121B2129
:1035D0002046009200F02CFA1F210022204600F025
:1035E00027FA1F2120462A4600F002FA009820B14F
:1035F0006068013640688642EED36A461D21204647
:1036000000F0F6F900981D2120F00F0220460092EC
:1036100000F00EFA19214FF40042204600F008FA9B
:1036200001B0F0BDD4D4D4D401207047D4D4D4D4C4
:103630002DE9F04F85B0D1F814A0044641604AF25C
:103640000005DAE90C02C4E905020878C4F23C0579
:1036500005EB4032526802F00302022A40F00A8170
:1036600040030022284400F58050C4E902029AF881
:103670001C006074887B02210291032806D84FF257
:10368000E451C0F2012151F8200002900AF1240611
:1036900001274FF001084FF000090AF114000390D0
:1036A0000AF1280001900BE0A0680021016100BF31
:1036B0005FEAC8704FF001094FF0000800F0DE80AB
:1036C000039850F829000028F2D005EB4930029900
:1036D00000F5805B204600F0C7FCCBF804009AF8A8
:1036E0001D000128E4D161684FEA4930496804911E
:1036F000415967F301014151049929B104990139F4
:103700000491F9E700BF00BF2844416801F00301BC
:10371000012909D0A1680F61416801F00301012965
:10372000FAD1A16800220A616168496804910168C0
:1037300041F00301016000BF049929B104990139E6
:103740000491F9E700BF00BF4168C94389070AD067
:10375000A1680F6100BF00BF4168C9438907FBD161
:10376000A16800220A614FF48071CBF8801116F92C
:103770000910002941D41C21CBF81412019A16F922
:103780000910AC46354612F8292000294FEA0212EA
:1037900007D44EF20016CEF20006731883F8002309
:1037A0000AE04EF6145601F00F03CEF200069A55C9
:1037B0004EF20016CEF200064DF664124CF20033C3
:1037C000C2F20022C4F2000342F8214053F8212043
:1037D00022F4803243F8212053F821204A0901F0D5
:1037E0001F01BFF35F8F06EB820307FA01F1C3F8F5
:1037F000801146F822102E4665466168496804919A
:10380000016867F301010160049929B10499013944
:103810000491F9E700BF00BF416801F003010129ED
:103820000AD0A1680F6100BF416801F003010129BE
:10383000FAD1A16800220A616168022249680491F4
:10384000016862F301010160049929B10499013909
:103850000491F9E700BF00BF416801F003010229AC
:103860003FF426AFA1680F61416801F0030102290E
:10387000FAD119E7052005B0BDE8F08F44F65900EC
:10388000C5F250202060002005B0BDE8F08FD4D4F0
:1038900041684AF20402C4F23C02097849035158D3
:1038A00001F00301012907D100210174C0E90011D1
:1038B000C0E902110846704705207047D4D4D4D41B
:1038C000B0B542684AF2000CC4F23C0C13780CEB21
:1038D00043335B68DB439B071CD1927B437C40F600
:1038E000005E002A5FEA1F92C4F2400E1C1DA24037
:1038F0008EF8002041F2004E4268C4F23E0E947BE6
:103900000EF10402032C07D0012C12D102244FF433
:10391000807504E00520B0BD41F20104012542F8A4
:10392000234005FA03F2DEF800301A43CEF80020F7
:1039300002E0002542F823504268012505741378FF
:1039400052690CEB43335B68DB439B0718D1437C24
:1039500042F20005C8F2000502EB83028368526957
:10396000127862F3C7051D608268136843F0010393
:103970001360826800BF00BF1368DB07FCD100E062
:1039800082684FF0000C00BF4368457C5B6903EB25
:1039900085034FF480455B691B7863F3C7051560A9
:1039A0008268136843F001031360826800BF00BFA0
:1039B0001368DB07FCD113680CF1010CB3F1FF3F76
:1039C0004B6801DC9C45DFD39C450CD24168427CAE
:1039D000496901EB820149694978062901D1FFF75C
:1039E00067FD0020B0BD1420B0BDD4D4D4D4D4D44D
:1039F00010B5D0E901EC447CDEF8143003EB84030D
:103A00005B691B78DB00DBB261F30C2303F58041BB
:103A1000CCF8001081680B6843F001030B608068EC
:103A20000168C907FCD101680020090C116010BDB4
:103A300080B5D0F804C04AF2040EC4F23C0E9CF8E3
:103A40000030DCF814C05B035EF80330DB439B07F7
:103A50001BD1437C0CEB83035B691B78DB00DBB27F
:103A600061F30C23816843EA024202F500520A60C6
:103A700081680A6842F001020A60806800BF00BFE6
:103A80000168C907FCD1002080BD052080BDD4D4C9
:103A900042684AF2000CC4F23C0C11780CEB413144
:103AA0004B68DB439B076DD180B5537B002B40F601
:103AB000E15308BF40F2E113C360D2F814E0496853
:103AC000C943890718D1417C1A0483680EEB810130
:103AD0004969097861F3C70202F5105119608168DC
:103AE0000A6842F001020A60816800BF00BF00BF9F
:103AF0000A68D207FCD14268917B01F0FE010229DD
:103B00001ED111780CEB413351695B68DB439B0795
:103B100016D1427C42F60013C0F2003301EB820161
:103B200082684969097861F3C703136081680A688C
:103B300042F001020A6081680A68D207FCD142683B
:103B4000117852690CEB41314968C94389071BD18F
:103B5000417C42F20003C1F2002302EB8101826842
:103B60004969097861F3C703136081680A6842F004
:103B700001020A60816800BF0A68D207FCD142686E
:103B8000526902E0052070478168437C02EB8302A2
:103B90004FF488435269127862F3C7030B6081685F
:103BA0000A6842F001020A60806800BF00BF00BFDF
:103BB0000168C907FCD10068002080BDD4D4D4D4EA
:103BC0002DE9F04381B047684AF20009C4F23C098C
:103BD0003E7809EB46367668F643B60737D1467C21
:103BE0007F694FF4824507EB860786687F693F78D7
:103BF00067F3C705356087683E6846F001063E609A
:103C0000876800BF00BF00BF3E68F607FCD13E6872
:103C10004668457C766906EB85064FF482457669F1
:103C2000367866F3C7053D6087683E6846F0010652
:103C30003E60866800BF00BF3768FF07FCD1376869
:103C40007D0308D441F2883001B0BDE8F08305203F
:103C500001B0BDE8F083C5686C0508D42D050DD40E
:103C6000BA0211D441F2893001B0BDE8F083156881
:103C700045F002051560C5682D05F1D5156845F0BC
:103C800001051560BA02EDD54268477C526902EB26
:103C900087024FF48A475269127862F3C707376088
:103CA0008268176847F001071760826800BF00BF8D
:103CB0001768FF07FCD115686A0101D502221A6056
:103CC0002A0103D51A6842F001021A60AA020446CA
:103CD000884603D400266A0228D514E04268437C53
:103CE000526902EB830252695278062A08D10121F7
:103CF0002046FFF799FC024641462046002AE9D0BB
:103D000001266A0212D54268437C526902EB8302A3
:103D100052695278062A21D102212046FFF784FCFD
:103D2000024641462046002A18BF02262A0218D41D
:103D3000EA0131D54268437C526902EB8302526941
:103D40005278062A23D104212046FFF76DFC024653
:103D500041462046002A18BF04261DE002262A02FA
:103D6000E6D54268437C526902EB8302526952787D
:103D7000062A0ED103212046FFF756FC0246414693
:103D80002046002A18BF0326EA01D3D404E0042603
:103D900002E00326EA01CDD44268937B03F0FE03E0
:103DA000022B2FD1437C52694FF4944702EB8302DC
:103DB00083685269127862F3C7071F6082681368CC
:103DC00043F00103136082681368DB07FCD11568B8
:103DD0006A0114D54268437C526902EB830252693E
:103DE0005278062A0AD105212046FFF71DFC02461B
:103DF00041462046002A18BF052600E005262A0174
:103E000000F1C080354616B10D60002702E041F296
:103E1000883700252946064600F026F9737C09EB11
:103E2000433101F580525668B04203D1384601B0A3
:103E3000BDE8F083014660685B030126406800909E
:103E400053F8090066F3010043F8090000984B4459
:103E50000028384607D000BF009F013F0097009F11
:103E60000FB12FF007C85F6807F00307012F0BD0D1
:103E7000A76801263E6100BF5F6807F00307012FB6
:103E8000FAD1A36800271F61637C676802255E037F
:103E90007F68009709EB433359F8067065F3010713
:103EA00049F80670009F37B1009F013F0097009FBF
:103EB0000FB12FF007C85F6807F00307022F0BD080
:103EC000A76801263E6100BF5F6807F00307022F65
:103ED000FAD1A36800271F6151600127617C6268E5
:103EE0004B035268009209EB413159F8032067F304
:103EF000010249F80320009A4AB100BF00BF00BF89
:103F0000009A013A0092009A0AB12FF007C84A6855
:103F100002F00302012A0BD0A2680123136100BF43
:103F20004A6802F00302012AFAD1A16800220A615C
:103F3000617C62684B035268009209EB413159F889
:103F4000032042F0030249F80320009A3AB100BF6F
:103F5000009A013A0092009A0AB12FF007C84A6805
:103F6000D24392070BD0A2680123136100BF00BFA8
:103F70004A68D2439207FBD1A16800220A6101B0CE
:103F8000BDE8F0834268437C526902EB83025269C8
:103F90005278062A0BD1062120460625FFF744FB5E
:103FA000024641462046002A3FF42CAF2CE7062566
:103FB0002AE7D4D4D4D4D4D480B542684AF2000CD1
:103FC000C4F23C0C1378D2F814E00CEB43335B687A
:103FD000DB439B0731D1437C81684FF482420EEB77
:103FE00083035B691B7863F3C7020A6081680A6810
:103FF00042F001020A6083681968C907FCD1196898
:104000004168427C496901EB82014FF4824249696F
:10401000097861F3C7021A6081680A6842F00102F8
:104020000A60836800BF00BF1968C907FCD119681E
:10403000490304D441F2883080BD052080BD9EF83C
:104040001D1001290ED1407CDEF8201001394FF4FB
:104050008C5201F07F010CEB40308358194341F43E
:1040600080318150002080BDF0B581B04EF2D5077F
:1040700004464068C4F201070D464669B87900F06D
:104080000F0003F059FE397801F00F01022901D821
:1040900001220BE0CA1E052A06D24FF2F451C0F2EB
:1040A000012151F8221003E00839102202FA01F12F
:1040B0006268EB1E032BF568927B06D84FF2D4574B
:1040C000C0F2012757F8233000E00023B0FBF1F0E5
:1040D0004FF4FE01377C022AB0FBF5F007F007022F
:1040E00001EBC030717C00F4FE0001F0070128BF35
:1040F00043F00203184340EA017040EA026001B055
:10410000F0BDD4D4D4D4D4D44268526902EB810235
:10411000526912B141740020704703207047D4D413
:10412000844641610020CCE906237047D4D4D4D41E
:104130002DE9F04144F243180446C5F24D280068C9
:10414000404502D10E20BDE8F08108784AF2000314
:104150004A6BC4F23C03616003EB4030126800F527
:104160008053C4E90303636F0020A06723F00103B9
:10417000C4E91C038B6AE367936820642066A4F893
:104180006400C4E91A00096BC4F88410C4F8800004
:10419000D2E900011A6890470E281CBF0028BDE82C
:1041A000F08160688169B1B1417811B1467D26B96D
:1041B00011E0017D427D56186EB1002500BF00BFA1
:1041C0006068D0E90601405912F06CFE013E05F12D
:1041D0000405F5D16068466B706878B1002700254A
:1041E00030683169CA19006802F1180102F03CFB1D
:1041F000D8B9706801351C378542F1D3B06888B1F1
:104200000027002500BF00BF30687169CA19006827
:1042100002F1180102F028FB38B9B06801351C37EB
:104220008542F1D30020C4F80080BDE8F081D4D4E9
:1042300070B586B00446406800250595466B049528
:10424000CDE90255CDE900553268017810686A461B
:1042500002F00AFD2069D0F8381241F00101C0F8DF
:10426000381296F91800002810D44EF2801300F08E
:104270001F014009CEF20003012202FA01F143F8C6
:104280002010BFF34F8FBFF36F8F307E4DF6641158
:1042900040B2C2F2002184F87A5041F82050A4F8CC
:1042A00078500020C4E9005506B070BDD4D4D4D4F1
:1042B00090F87A30012B2AD12DE9F041436801258D
:1042C0005E6BEFF3108785F31088EFF3108385F3AF
:1042D0001088C469F4B1A568C5610DB900250562EF
:1042E0000025A56083F310886568ADB143685B78ED
:1042F000002B236832D00B600123EFF3108183F38E
:104300001088836A0026A660ABB39C6034E040F658
:10431000A170704783F310888169013118D1416918
:10432000726933680446C1EBC10102EB81011A686E
:104330001046896902F0F4FB21460028606908BF35
:1043400088610130B268B0FBF2F303FB12004861F0
:104350004FF47A6087F31088BDE8F081064608467E
:10436000194690462A4612F041FE3046214600F09A
:10437000DFFB424603E04462846281F31088002040
:10438000156087F31088BDE8F081D4D4D4D4D4D498
:1043900090F87A10012914D10121EFF3108281F3F2
:1043A0001088416A81B18B6843620BB90023836234
:1043B00010B500248C6082F3108800F0B9FB204611
:1043C00010BD40F6A170704782F31088242070471A
:1043D0004268537D426B9A4201D20132426301220C
:1043E000EFF3108C82F31088426A4AB193684362FB
:1043F0000BB900238362002393608CF3108811E0D3
:104400008CF310880122EFF3108C82F31088826DF8
:104410007AB1936883650BB90023C3650023936069
:104420008CF3108880B51160114600F081FB0020EC
:1044300080BD8CF3108824207047D4D4D4D4D4D435
:104440002DE9F047044690F87A00012808D1606809
:10445000D4F838904378D0F834802BB100271CE092
:1044600040F6A170BDE8F0870123EFF3108083F3DD
:104470001088E76C002F56D0BB68E3640BB90023AB
:1044800023650023BB6080F310887A603E68154680
:10449000304612F0ABFD2A4631460120EFF310857D
:1044A00080F31088606CB0B185F31088002F5AD16A
:1044B0000123EFF3108083F31088A76DCFB3BB689F
:1044C000A3650BB90023E3650023BB6080F310886C
:1044D000C7E9001247E0E06B013002D3D4F838900E
:1044E00005E0D8F80430B0FBF3F606FB1309C9EB7E
:1044F000C900D8F810308A46164603EB800083695D
:10450000204600F09DFC0C2825D109F10100D8F8C7
:104510000410B0FBF1F202FB1109E06B48450ED12B
:1045200032465146C0E780F3108840F6A370BDE8DC
:10453000F08780F3108840F6A370BDE8F087C9EBE0
:10454000C900D8F81010324601EB8000514683694B
:10455000204600F075FC85F31088002839D03246DB
:104560005146002FA4D00121EFF3108081F3108871
:104570000022A16CBA6009B18F6000E06764A76493
:1045800080F31088E06B01301ED1EFF3108501201D
:1045900080F31088C9EBC900D8F8101001EB800037
:1045A0008169204600F0D4FC09F10101D8F804200B
:1045B0000028B1FBF2F018BF4FF0FF39C4F83C906F
:1045C00000FB121985F310880020C4F83890BDE86C
:1045D000F087606840780028D4D1EFF31080012183
:1045E00081F310883FB1E16D0022BA6009B18F609C
:1045F00000E0A765E76580F31088C3E7D4D4D4D47E
:104600002DE9F04F89B083464068416B09684A68DC
:104610000178D06850F821402068FFF775FDA16847
:104620002068C969884741F2883188420AD19BF8DD
:104630007800012803D14FF48070ABF8780040F681
:10464000A1700EE0A168206802AA01AB8F6903A9DE
:10465000B8479BF8780018B940F20120ABF8780011
:1046600000209BF8791001290FD0022940F0FC812D
:10467000DBF804004FF48071ABF879108169A1B3C5
:104680004178F1B1457D05BB2FE080460020ABF8B5
:104690007900584600F06CFBDBF87CA0BAF1000F03
:1046A00000F0E181DBF88000DBF804C000280DF1A8
:1046B0000C0900F0C78186464C469EE8EE00EEC429
:1046C000C1E1017D427D55187DB1002400BF00BFCE
:1046D000DBF80400D0E90601005912F0E3FB013DCC
:1046E00004F10404F4D1DBF804000021CDE9051144
:1046F000466BCDE90311CBE91611CBE913119DF8F7
:104700000E2042F008028DF80E204FF0FF32CBE968
:104710000512CBE90711CBE90911CBE90B1182692D
:104720008AB1417D9DF80D30042703F0F003053375
:104730008DF80D30EA238DF80C309DF80E3067F3BC
:104740001F138DF80E30CBF834100025B168002906
:104750006BD0706900274FF00009002307E000BF0D
:10476000DDF80090B168C14401378F4258D2026928
:10477000012AF9D009EB4901CDF800904FEA8109EF
:104780004FF0000810E000BFCBF858A0CBF85CA0B9
:10479000631C80F31088706908F1010809F10C09A5
:1047A000016901398845DBD2326A02EB090A42F815
:1047B0000950DBF804108969F1B18DF80F50C7EB8F
:1047C000C70251F823100491316800EB82021C46A5
:1047D0000868916903AA02F033F9EFF31080012110
:1047E00081F31088CAF80850DBF85C100029CBD0A0
:1047F000C1F808A0CAE700BFEFF31080012181F3E0
:104800001088CAF80850DBF8281011B1C1F808A0C8
:1048100001E0CBF824A0CBF828A080F31088BAE7F9
:10482000DBF80400826922B92EE000234FF0000972
:1048300052B3417D894527D209EB49014FF0010C64
:10484000890000220FE000BFCBF82C00CBF830002D
:1048500009F1010987F310880133DBF804000C31FA
:10486000477DB94510D2356A8769681857F82370B3
:104870006F50EFF310878CF310888260DBF83050B4
:10488000002DE1D0A860E1E700204FF0FF31CBE937
:104890000E010C229A46CBE911009DF80E1062F32E
:1048A0001F118DF80E108DF80F0004909DF80D105B
:1048B00001F0F0018DF80D108DF80C009DF80E1030
:1048C00001F0F7018DF80E108DF80C00706830B310
:1048D00000270DF10C080CE0C7EBC701326800EBB4
:1048E00081011068896902F01BF9706801378742FD
:1048F00015D2306901690129EED00024C7EBC70544
:10490000316800EB850208689169424602F098F828
:1049100030690134016901398C42F1D3DCE7706AF6
:10492000814548D209EB4900012180004FF0000C7D
:104930000BE0CBF85830CBF85C3087F31088726A04
:1049400009F101090C30914535D2DBF80470356A64
:104950007B78002B05EB000316D13C7D7A7D224449
:10496000924511D2BA6952F82A202A50EFF31087E3
:1049700081F31088C3F808C0DBF8505095B1AB60E4
:1049800012E000BF00BF00BFEFF3108781F3108873
:10499000002DD2D0C3F808C0DBF85C50002DC8D081
:1049A000AB60C8E7CBF84C30CBF850300AF1010AC5
:1049B00087F31088C3E7DBF81000D0F88C10DBF821
:1049C0000420D378012B04D140F2C731C0F2C731A3
:1049D00008E0937821F00611012B08BF01F10211C4
:1049E00001F10411D26862B1D0F8903041F0501159
:1049F000C3EA0242A2F58032C0F89020DBF8100032
:104A000001E021F01011C0F88C100021584600F090
:104A100017F928B10221ABF8791009B0BDE8F08F81
:104A2000DBF87C90B9F1000F32D0DBF88000DBF8C6
:104A300004C00DF10C08D0B1864644469EE8EE0055
:104A4000EEC415E04846022101719CF80010016097
:104A5000DBF884104161D047DBF8800000281CBFE0
:104A600099E8EE00EEC0404609B0BDE8F08F404640
:104A7000012101719CF800100160DBF88410416194
:104A8000C847DBF8800000281CBF98E8EE00EEC0A5
:104A9000002009B0BDE8F08F70B584B0044690F8EE
:104AA0007A00012817D101212046012500F0C8F81D
:104AB0006068416B09684A680178D06850F82160E5
:104AC0003068FFF721FBB1683068C969884741F257
:104AD0008831884203D140F6A17004B070BDB1683E
:104AE000306802AA01AB8E6903A9B04784F87B50F5
:104AF000002004B070BDD4D40122EFF3108382F300
:104B000010880246006C28B108600020106483F30E
:104B100010887047222083F310887047D4D4D4D4EF
:104B20008446C1670020CCE920327047D4D4D4D465
:104B300070B584B0044640680029466B4FF0000011
:104B4000CDE90200CDE900006FD00D469DF80210BE
:104B5000042201F0F8018DF802109DF8011001F017
:104B6000F00105318DF80110EA218DF800109DF853
:104B7000021062F31F118DF802109DF8021041F02F
:104B800008018DF802108DF8030028680190A069D3
:104B9000013001D3606905E0B168B0FBF1F202FBBE
:104BA00011006061C0EBC0007169326801EB8001E7
:104BB00010686A46896901F043FFEFF31081012212
:104BC00082F310884FF00002AA6018B1226B2AB15C
:104BD000956004E0E06D50B3856029E0E5622563EF
:104BE0000C2881F3108820D1A069013015D16068AC
:104BF000616B407D814210D1606971693268C0EBA0
:104C0000C00001EB80011068896901F089FF00286C
:104C10000CBF60694FF0FF30A0616069B16801307E
:104C2000B0FBF1F202FB1100606104B070BDA5653C
:104C3000E56581F3108804B070BDD4D4D4D4D4D445
:104C4000F0B589B00446002008900D466268CDE9B1
:104C500006000290566BCDE9040012783368CDE966
:104C6000000011465B68DB6853F822703868FFF774
:104C70004BFAB968386801AA6B468F6902A9B84730
:104C800018B140F6A17009B0F0BD606801690391E8
:104C90008DB14EF200152046CEF2000500F068F806
:104CA00096F91800317F00284FEA011119D42A180B
:104CB00082F800131CE03268017800278DF810702C
:104CC000106803AA01F0D0FF60688169D1B3306831
:104CD0007169A7610068896901F022FF0546606873
:104CE00031E04EF6145300F00F02CEF20003D1541F
:104CF0004DF664110123C2F2002141F820404CF22C
:104D00000031C4F2000151F8202022F4803241F831
:104D1000202051F82010410900F01F00BFF35F8FE1
:104D200005EB810203FA00F0C2F8800145F821008A
:104D30002069D0F8341241F00101C0F8341200208B
:104D400009B0F0BD002545F229013268C0F200210A
:104D5000CDE906170178106803AA089401238DF89D
:104D6000103001F081FF284609B0F0BDD4D4D4D46E
:104D70002DE9F0478AB0814640680022CDE908223B
:104D8000466BCDE90622CDE904228DF81420CDE949
:104D90000222CDE9002204AA33680178186801F0E4
:104DA00063FF0120EFF3108880F310880C219DF839
:104DB000020061F31F108DF80200B068A0B34FF03D
:104DC000000A6D460CE000BF316800EB8402086801
:104DD000916901F0A5FEB0680AF1010A824523D26B
:104DE000CAEBCA047069316800EB840208689169F3
:104DF00001F096FE706900EB840109690029E3D097
:104E0000002700BF00BF00BF316800EB84020868C4
:104E100091692A4601F014FE7069013700EB8401A4
:104E200009698F42F0D3CFE74FF0FF30C9F818007F
:104E300088F310880AB0BDE8F087D4D4D4D4D4D491
:104E400070B584B0D0F804E00025CDE90255DEF855
:104E50003460CDE90055D6F800C0DCF80440E468C1
:104E60008DF803500191C2F303259DF8011001F064
:104E7000F00129448DF801108DF8002008229DF8DA
:104E8000021062F31F118DF802109DF8021041F01C
:104E900008018DF8021096F828109DF8082001F0FE
:104EA000010102F0FB0242EA81018DF808109DF831
:104EB00008104907194604D49DF80E2002F080021C
:104EC0000BE09EF8002001239DF80E5003FA02F239
:104ED00002F07F0205F080031A448DF80E20436F24
:104EE0009DF80820DB070DD102F0F7008DF80800CF
:104EF0009DF8080000F0BF008DF8080000208DF834
:104F000009001BE042F008028DF808209EF80020FE
:104F1000224492F880209DF8083002F0010203F04C
:104F2000BF0343EA82128DF80820026F02F07F036C
:104F300001328DF8093002F07F020267DCF80000D0
:104F40006A4601F07DFD04B070BDD4D4D4D4D4D46D
:104F50002DE9F04184B08046002000900390D8F8FD
:104F60000420CDE901000D466E46576B9DF8020006
:104F70000C2262F31F108DF8020000BF00BF00BFBB
:104F8000386829463246006801F05AFD08B92FF00A
:104F900009C838682946006801F0C2FDD8F874E0F5
:104FA0005FEACE713AD0D8F80410002642F2107CA5
:104FB000496BC9680B698A68013B04E000BF00BF08
:104FC0000136664526D0002BFAD00021002503E0EB
:104FD0000135E9B28B42F3D902EB01118F7807F06A
:104FE000F007302FF4D0D8F870700C79013F07F03B
:104FF0007F07A742ECD1CA68C8F868208A680323F3
:1050000022F04042C8F86C208A7863F31F128A703D
:10501000D8F874E02EF00101C8F8741004B0BDE8AF
:10502000F081D4D4D4D4D4D42DE9F0478AB0054645
:10503000007B0328D5F810A000F22381DAF80410D1
:10504000D1F83490DFE800F0027136599AF87A000E
:1050500001284FF000008AF8080040F0CA81A968D2
:10506000504600F0E5F9212803D1A968504600F028
:105070004BFA0C283ED1DAF81800D9F808100130A4
:10508000B0FBF1F202FB1105D9F81410D9F8002099
:10509000C5EBC50001EB80011068896901F040FD96
:1050A000002800F011814FF0FF30CAF818004FF0CF
:1050B000030C7BE19AF87A0001284FF000008AF88F
:1050C000080040F09681DAF81800411C12D0C0EBBD
:1050D000C000D9F8141001EB8000A96880698142F2
:1050E00008D1D9F800006A46006801F0E9FC002800
:1050F00000F0F9804FF0030C58E19AF87A0001288B
:1051000040F077819AF80800012840F0BD80A96836
:10511000504600F08DF9A968504600F0F5F94FF0BF
:10512000FF30CAF818000020BDE0D9F800006E4634
:10513000A9683246006801F0C3FC01274FF000085F
:1051400009E081F3108800BFD9F80000A968324651
:10515000006801F0B5FC002835D1DAF80400407889
:10516000012809D19DF8020000F0F0004028EBD1A1
:105170000198CAF84000E7E7EFF3108187F3108841
:10518000DAF858000028DCD08268CAF85820002AD3
:1051900008BFCAF85C80C0F8088081F310880199C4
:1051A0000160EFF3108187F31088DAF85020C0F81F
:1051B00008800AB1906001E0CAF84C00CAF85000BB
:1051C00081F31088C0E7212840F0EE800121EFF341
:1051D000108081F31088DAF84460002E68D0B1683E
:1051E000CAF8441011B90021CAF848104FF000085D
:1051F000C6F8088080F310885046D6E90012AB68E4
:10520000FFF71EFE68BB0127EFF3108087F31088BD
:10521000DAF85C10C6F8088009B18E6001E0CAF8BF
:105220005860CAF85C6080F31088EFF3108087F351
:105230001088DAF84460002E4BD0B168CAF84410E8
:10524000002908BFCAF84880C6F8088080F3108893
:105250005046D6E90012AB68FFF7F2FD08B92FF00F
:105260002DC8DAF8040001224178EFF3108082F3B0
:105270001088C6F8088009B3DAF85C1061B38E6054
:105280002CE04FF0000C91E0DAF81800411C12D02D
:10529000C0EBC000D9F8141001EB8000A968806948
:1052A000814208D101208AF808004FF0040C7DE00B
:1052B00080F310885DE04FF0040C77E0DAF85010CE
:1052C000002950D08E6050E0CAF818504FF0030CFF
:1052D0006CE080F310884CE0CAF85860CAF85C6053
:1052E00080F3108845E0DAF81800D9F8081001308A
:1052F000B0FBF1F202FB1106D9F81410D9F8002026
:10530000C6EBC60001EB80011068896901F008FC5A
:105310000121EFF3108281F31088DAF85810002988
:105320006AD08B68CAF8583013B90023CAF85C30C9
:1053300000278F6082F31088019A0A609DF801208F
:105340009DF8003002F00F0243EA02224A60012376
:10535000EFF3108283F310888F60DAF82030002B8F
:105360004DD099604DE0CAF84C60CAF8506080F3A7
:105370001088DAF83C00D9F804100130B0FBF1F2E3
:1053800002FB1105D9F81010C5EBC50001EB800038
:1053900081695046FFF7DCFD20B14FF0FF30CAF8BD
:1053A0003C0001E0CAF83C504FF0050CDAF87C9064
:1053B000B9F1000F1DD0DAF880000DF1100830B1FE
:1053C0000746C64697E87E008EE87E0000E040462D
:1053D000DAF8041080F804C0DAF884204261097811
:1053E0000160C847DAF8800000281CBF98E8EE008A
:1053F000EEC00AB0BDE8F08782F3108805E0CAF875
:105400001C10CAF8201082F310880028504618BFDC
:105410004FF0FF36A968CAF8186000F009F8A968CB
:10542000504600F071F84FF0030CBFE7D4D4D4D449
:105430002DE9F04385B00446406801AA0D46476B4C
:105440003868006801F03CFB10B105B0BDE8F0839E
:1054500001260DF104084FF000090BE000BF00BF6A
:1054600081F31088386829464246006801F028FB1D
:105470000028EAD1EFF3108186F31088A06D002890
:10548000EED08268A265002A08BFC4F85C90C0F81C
:10549000089081F31088A1694A1C07D0C1EBC101B3
:1054A0007A6902EB810189698D4214D10299016008
:1054B0009DF805109DF8042001F00F0142EA01213A
:1054C0004160EFF3108186F31088226AC0F80890DB
:1054D0006AB190600CE002990160EFF3108186F3ED
:1054E0001088226BC0F8089032B1906005E0E0614E
:1054F000206281F31088B5E7E062206381F31088B1
:10550000B0E7D4D4D4D4D4D42DE9F04F85B0044638
:1055100040680D464FF0010A476B00260DF1040864
:105520004FF0040912E000BF80F310880C219DF8B1
:105530000600424661F31F108DF8060002962946C8
:105540003868006801F07CFA00284FD1EFF3108032
:105550008AF31088D4F82CB0BBF1000FE4D0DBF84C
:105560000810E1620029294608BF2663CBF80860CD
:10557000424680F310889DF8060000F0F8008DF890
:1055800006009DF8050000F0F00005308DF80500DC
:10559000EA208DF804009DF8060069F31F108DF8CD
:1055A00006009DF8060040F008008DF806008DF812
:1055B0000760DBF8000002903868006801F040FAEC
:1055C000EFF310818AF31088CBF8086088B9E06D9A
:1055D00010B1C0F808B001E0C4F858B0C4F85CB02D
:1055E000002081F3108808B92FF051C005B0BDE844
:1055F000F08F226B12B1C2F808B001E0C4F82CB0F1
:10560000C4F830B081F3108805B0BDE8F08FD4D471
:105610002DE9F04F81B0D1F818A00D46012143F2D9
:1056200004029AF800B0EFF3108981F31088044661
:105630009AF800104FF48030C4F2200248F20007BC
:105640008840C4F2260711684FEA8B2621EA000041
:10565000106010681E20012107EB8B2802F0CCFBA4
:1056600089F310882560DAF814109AF80120288848
:10567000A2728A6820819AF80000C4F81080E07253
:10568000D1E9000112689047A07AD8F8601000288C
:105690006FF0CC0008BF6FF033000840C8F860001E
:1056A00048F250009AF80120C4F22600298800EB45
:1056B0008B2C4FF0F8554CF82210A27A9AF80C3047
:1056C000002A4FF0180208BF082208BF4FF4F8550F
:1056D00003FA02F242A32A40BA51DAF8042093ED09
:1056E000003F43A3167992FD000F22FF400493ED83
:1056F000003F00EF520155EC113B57EC100B2B43D0
:1057000055799279384306F0010718439AF8013029
:1057100065F31B6140EAC750084340EA02704CF849
:105720002300204600F044FA40F68071C0F20101E7
:10573000C8F80810C8F80C10A17A00294FF0CC0165
:1057400008BF3321D8F8602041EA0201C8F8601090
:1057500070B14DF608129AF80010C2F2002249000A
:10576000126822FA01F189071AD001B0BDE8F08F62
:105770009AF8011001279AF8003045F2490207FA19
:1057800001F14DF60817C2F200275B009940C7F6F9
:1057900053023E6862603143396001B0BDE8F08F6A
:1057A00043F204070121EFF3108581F31088C4F25E
:1057B00020079AF800104FF4803204463B6802FA42
:1057C00001F11E20194339603968012102F014FBF0
:1057D000204685F3108801B0BDE8F08F00BF00BF00
:1057E000100000001500000014000000160000006A
:1057F00000000F000000200000001000000040002A
:1058000006207047D4D4D4D406207047D4D4D4D43E
:1058100080B500F025FA002080BDD4D4D4D4D4D4EF
:10582000B0B505890446018100F0C2F9052808BF1A
:105830002581B0BDD4D4D4D42DE9F04784B0054639
:1058400000680F469846847928461646D5F8109089
:10585000214600F069FA20B149F6424004B0BDE8A3
:10586000F08728684AF200014FF42962C4F200016F
:105870008069446960684068007810FB021A012062
:105880008AF830006068006847608660016821F02F
:105890004051016060680068016821F0404101608A
:1058A000D4E9010201682068A1F80E80526890478F
:1058B00010B104B0BDE8F087EA685189B1B3286936
:1058C000AB7A1279082707EAC303036700BF00BF5A
:1058D000036FDB07FCD11023012A04BFC9B21823D0
:1058E00002F003029940114401F50041C0F8801014
:1058F0000021C0F88410C0F88810016F41F0010148
:10590000016700BF00BF00BF016FC907FCD10426BB
:10591000D0F89011C0F894112868C179284600F099
:1059200003FA18B9002EA6F10106F5D1A168206886
:105930004A69012190470028BBD1002003900290C2
:10594000019000906946A068C269206890470028CD
:10595000AFD16D4600BF00BF039838B1A168206881
:10596000CA69294690470028F6D0A2E7B8F13F0F50
:105970004FF000008AF830009BD84FF44070C9F80F
:105980006400002004B0BDE8F087D4D4D4D4D4D4CB
:105990002DE9F04F81B00446C7680068884697F843
:1059A00005B097F81790837920461646194600F0FF
:1059B000BBF920B149F6424001B0BDE8F08F796AE9
:1059C000087940B1096804310A68964207D0013865
:1059D00001F10801F8D100264FF0010A04E0701C23
:1059E00031F8046C5FEA0F9AE2685189C1B320690B
:1059F000A37A1279082505EAC303036700BF00BF35
:105A0000036FDB07FCD11023012A04BFC9B218239E
:105A100002F003029940114401F50041C0F88010E2
:105A20000021C0F88410C0F88810016F41F0010116
:105A3000016700BF00BF00BF016FC907FCD105258A
:105A4000D0F89011C0F894112068C179204600F078
:105A50006BF928B9013DF7D1132001B0BDE8F08FF3
:105A60000BF101006FF00701C0B269F0FF02BAF15B
:105A7000000F01EBC00002FA00F028EA000005D098
:105A800079791C22013102EA810200E000222169B9
:105A9000A57A3B79082707EAC5070F6700BF00BF53
:105AA0000F6FFF07FCD103F00307012B4FF010032A
:105AB00004BFF6B2182306FA03F33A431A4402F578
:105AC0000042C1F88020C1F884000020C1F888009D
:105AD000086F40F001000867086FC007FCD1D1F8DB
