:020000040200F8
:10000000C006002201950002D19300021195000262
:100010001195000211950002119500021195000240
:10002000000000000000000000000000791B00023A
:100030001195000200000000911B0002011C00024B
:10004000E9400002214100025141000279410002D1
:10005000A1410002D941000201420002618900026F
:1000600061890002F980000229800002A182000259
:0400700029830002DE
:100074000100000088130000120100020200004089
:10008400000002000002010206010A06000200004C
:100094000040010009004300020100C005090400FA
:1000A40000010202010005240010010424020205DB
:1000B4002406000105240103010705830310001031
:1000C40009040100020A0000000705810240000043
:1000D400070502024000000009004300020100C0BD
:1000E40005090400000102020100052400100104B6
:1000F40024020205240600010524010301070583E7
:100104000310001009040100020A00000007058121
:1001140002000200070502020002000004030904B1
:100124001003520045004E004500530041005300A7
:100134002C034300440043002000550053004200B8
:100144002000440065006D006F006E0073007400B1
:1001540072006100740069006F006E002E0343009A
:100164006F006D006D0075006E0069006300610032
:10017400740069006F006E00730020004400650085
:10018400760069006300650073001603460075007D
:100194006C006C002D005300700065006500640065
:1001A4001203480069002D005300700065006500CB
:1001B40064001C0330003000300030003000300098
:1001C40030003000300030003000300031000000DA
:1001D400AC000022B0000022C0000022EC0000228B
:1001E4001A010022300100224201002210400000C6
:1001F400000018A000000000000000000000000043
:10020400000000A800000000000000000000000042
:1002140000000000140025401400254000000000E8
:100224001800254018002540000000001C0025404F
:100234001C00254014103540161035401710354069
:10024400181035401A1035401B1035401C1035402D
:100254001E1035401F103540B11E0002191F000248
:1002640000000000191F0002B11E0002191F000245
:1002740000000000191F0002000000000000000040
:10028400000000000000000000000000000000006A
:10029400000000000000000000000000000000005A
:1002A400000000000000000000000000000000004A
:1002B400000000000000000000000000000000003A
:1002C400000000000000000000000000000000002A
:1002D400000000000000000000000000000000001A
:1002E400000000000000000000000000000000000A
:1002F400A120000000000200000000000000000037
:10030400A4350022A8350022AC350022B0350022E5
:10031400B4350022B8350022BC350022C035002295
:0C032400C4350022C8350022CC35002270
:100330002DE9F04381B000EB400040F2F063C2F2DF
:100340000023154603EBC003894603F11808D86A59
:10035000022819D001280CD048B9D8F80C40D8F898
:100360001000E143A04267D90844A8426AD200269F
:1003700089E0D8F80C40D8F81010A14233D9E043F6
:100380000144D8F8080033E0D8F80C40002621E0FA
:10039000D8F8081010440844091B884250EA3180FC
:1003A0004946A84250EA3587D8F8040020443A4626
:1003B0000BF0BCFE3819D8F80810411AA5EB070558
:1003C00050EA11843E44B944002DBFF35F8FC8F852
:1003D0000C4058D0D8F81000E243A042D8D91044BD
:1003E000D8F80810D8E7E243D8F8080011440144CF
:1003F000A94251EA3586051BD8F804002044AE42D4
:1004000009D2494632460BF091FEBFF35F8F301997
:10041000C8F80C0037E049462A460BF087FE771BE8
:10042000D8F8040009EB05013A460BF07FFEBFF354
:100430005F8FC8F80C7026E0D8F8082008441044F4
:10044000A84294D3D8E901010E1B2044B54209D239
:1004500049462A460BF06AFEBFF35F8F6019C8F861
:100460000C000FE0494632460BF060FEAF1BD8F897
:10047000040009EB06013A460BF058FEBFF35F8F0C
:10048000C8F80C702E46304601B0BDE8F083D4D4D5
:10049000F0B581B040F2F0650C46C2F200252B7831
:1004A000532B37D00646A821284617460BF039FEB5
:1004B0000320286168614DF2CA3040F29871C0F2A1
:1004C0000020A861C2F20021E9614FF400612962B5
:1004D0000021A9626962E96240F6987228664FF0CD
:1004E000100E4CF2B220C2F200226A66C5F868E033
:1004F0002967E9666967BFF35F8FC0F200200F309C
:1005000010F8011905F8011B0FF007C03A463046F4
:10051000BFF35F8FEFF311854FF0200181F3118856
:100520002146FFF705FF85F3118801B0F0BDD4D453
:100530002DE9F04F9BB092460F464FF00009049012
:100540001A900DF1580B002006A916914021179121
:10055000CDE918990EE0011DCAF800100168CDE937
:1005600000385846234600F01BFA1998B0F1FF3FB7
:1005700040F3128217F8011B25291DD0002900F035
:10058000FB81DDE91720431C934207D8169A1154CA
:1005900018931998179A0130199018469042E4D18F
:1005A00016991A98FFF774FF1899884240F0DF8176
:1005B000CDF86090D9E700BF4FF000083978A1F17D
:1005C00023030D2B18D80222DFE803F00E161616AF
:1005D0001616161610161216160748EA02080137E4
:1005E000ECE700BF00BF00BF0822F6E70422F4E7F3
:1005F0000122F2E700BF00BFA1F13A02002312F18D
:100600000A0F0FD30A4600BF17F8011F03EB83033D
:10061000A1F13A0602EB430216F10B0FA2F13003EF
:100620000A46F1D82E290FD13A4612F8016F2A2E28
:100630000DD1DAF8001002370A1DCAF800200C6844
:1006400001211DE000BF00BF0021002418E0A6F139
:100650003A0717F10A0F02D2002100240FE000240C
:1006600012F8011F04EB8407A1F13A0506EB4707D6
:1006700015F10B0FA7F130040E46F1D801211746F2
:1006800017F8012B02F0FB06682EF9D0A2F15806EC
:10069000202E26D8DFE806F01211111111111111C8
:1006A000111111163C11111111111111111111110A
:1006B0006C11117911381111120056E7DAF80000A7
:1006C000102248E7DDE91720411CDAF8003091429A
:1006D00003F10406CAF800603FF660AF169A1B6883
:1006E0000AE0252A7FF441AFDDE91720411C914241
:1006F0003FF654AF169A2523135418911998179A58
:1007000001301990084649E7DAF800000A2222E78A
:10071000DAF800104CF6CD4C0A1DCAF800200A6821
:1007200005925142002A48BF0A460A2ACCF6CC4C10
:1007300003914FF0010107DBA2FB0C56632A01F184
:1007400001014FEAD602F7D88C4254EA81895E460D
:10075000002B58D0059908F0040200295FEA5F9148
:1007600041EA9201A3EB010B5FEA887550D473E074
:10077000DAF800001022011DCAF8001001680823F1
:100780000820CDE900095846EDE6DAF80020131DEF
:10079000CAF8003012684CF6D423002AC0F20023B5
:1007A00052EA13865FEA01880BE000BF00BF00BF7A
:1007B0001998CDF86090B0F1FF3FA4F101047FF7E4
:1007C000D4AE16F8011B002C5FEA188200293FF412
:1007D000CCAE002A7FF4C9AEDDE917235D1C95423B
:1007E00007D81698C1542B461998179A01301895B6
:1007F00019909342DFD116991A98FFF749FE18997C
:100800008842D5D0B3E04FF0000B5FEA887523D55E
:1008100014BB002800F1A7800598B0F1FF3F47DD29
:100820005FEA487064D5DDE91720411C914208D881
:10083000169A2B23135418911998179A013019906E
:100840000846904254D116991A98FFF721FE18993C
:100850008842059944D08AE05FEAC871D9D1BBF1DA
:10086000000FD6D0029502E00028AB467BD4ABF156
:1008700001055D4538BFD94536D2DDE917214B1C4E
:10088000934208D816982022425419461998179A6C
:100890000130189319909142E6D116991A98FFF7F2
:1008A000F7FD1899884262D1002018901998DBE76B
:1008B000DDE91720411C914208D8169A2D231354C4
:1008C00018911998179A01301990084690420DD145
:1008D00016991A98FFF7DCFD18998842039946D1BA
:1008E00000201890059103E0029D92E7039805907F
:1008F0001998002850D4002D0BD40A2230460599AF
:100900002346CDE900B8B34600F04AF84FF000099D
:100910002BE608F001012143EFD1BBF1000FECD031
:10092000ABF101055D4538BFD945E6D2DDE91721B8
:100930004B1C934208D816983022425419461998F5
:10094000179A013018931990914209D116991A9863
:10095000FFF79EFD1899884209D100201890199838
:100960000028AB46DCD54FF00009B346FDE54FF05B
:10097000FF301BB0BDE8F08F40B1189A52B106A904
:100980000498FFF785FDDDE9181004E000201BB096
:10099000BDE8F08F002108441BB0BDE8F08FD4D42F
:1009A0002DE9F04F81B015468B4691421F46044613
:1009B000DDF828904FF0010007D3594600BF00BF73
:1009C000B1FBF5F10130A942FAD2874257EA80889B
:1009D000B9F1000F0B9938D011F0010035D188071B
:1009E0004FF0200048BF30202021002F50EA018620
:1009F0004FF0000A06E000BFE068A9F10109B0F17C
:100A0000FF3F22DDB9F1000F1FD0C8451DD2D4E948
:100A10000120411C914207D822681654A160E06869
:100A200062680130E06008469042E5D121682069A3
:100A3000FFF72EFDA168884202D1C4F808A0DBE7C9
:100A40004FF0FF30E060A9F10109E068002842D4CE
:100A5000012603E000BF00BF013F6E43022FFBD21F
:100A6000BBFBF6F1A942F8D24DF62F37A268C0F2CF
:100A7000002700BF00BF00BF6168531CBBFBF6FA34
:100A80008B4209D8206817F80A1081541A46E0688A
:100A900061680130A360E0608A4209D12168206961
:100AA000FFF7F6FCA26890420CD10022E068A26039
:100AB00000280AD4B6FBF5F10AFB16BBB5420E4678
:100AC000DAD902E04FF0FF30E0600B99C90718BF98
:100AD000B9F1000F02D101B0BDE8F08F2025A9F1D6
:100AE00001064E4538BFC845F5D26168531C8B429C
:100AF00007D8206885541A46E06861680130A36011
:100B0000E0608A4209D121682069FFF7C1FCA16831
:100B1000884207D10022E068A260B0F1FF3FB146F1
:100B2000DDDCD8E74FF0FF30E06001B0BDE8F08FCA
:100B300082B080B582B0CDE9042304AA019201AA53
:100B4000FFF7F6FC02B0BDE8804002B07047D4D495
:100B5000022818BF704741F2F4304EF20811C2F279
:100B60000020C0F2002107F03BBCD4D4D4D4D4D4AC
:100B700086B00020059005A808F0D6FB9DF8173038
:100B80004CF2E0714CF20E529DF815709DF8166013
:100B9000C0F20021C0F200220020CDE90067FFF77B
:100BA000C7FF4DF233010020C0F20021FFF7C0FF64
:100BB00043F200104DF6E431C2F20020C0F20021F1
:100BC00006F092FCC0B14CF692614CF22A424DF212
:100BD00079530446C0F20021C0F20022C0F2002383
:100BE0000020FFF7A5FF4CF61D510020C0F20021A8
:100BF0002246FFF79DFF00BE4DF234410020C0F2B7
:100C00000021FFF795FF4DF66C3641F2B014C0F2AB
:100C10000026C2F2002430462146ACC8ACC190E8A0
:100C2000AC00ACC141F2D015F169C2F2002514222A
:100C300028460BF07BFA43F29C002146C2F20020CA
:100C4000C4E9060506F040FEC0B14CF692614CF2D4
:100C50002A424CF6DB230546C0F20021C0F20022F6
:100C6000C0F200230020FFF763FF4CF61D51002067
:100C7000C0F200212A46FFF75BFF00BEF078012892
:100C800004D0A8B941F2E410002102E041F2E410DE
:100C90000221C2F20020017143F29C06C2F200263A
:100CA0006078C0B1022814D003281AD1072013E0BD
:100CB000B078032800F0E98143F29C060228C2F2D2
:100CC000002600F0DB810028EAD141F2E410002187
:100CD000D7E1082000E0092041F2E411C2F200212E
:100CE000887142F290400021C2F2002000220023CD
:100CF000006809F0A9F8012819D04CF692614CF26D
:100D00002A424CF618330446C0F20021C0F20022F9
:100D1000C0F200230020FFF70BFF44B14CF61D5139
:100D20000020C0F200212246FFF702FF00BE42F27F
:100D3000DC400021C2F2002000220023006809F0FC
:100D400083F8012819D04CF692614CF22A424DF6F4
:100D5000D8230446C0F20021C0F20022C0F20023D2
:100D60000020FFF7E5FE44B14CF61D510020C0F213
:100D700000212246FFF7DCFE00BE42F244444CF65E
:100D8000926B4CF22A4841F2EC1AC2F2002403AFF3
:100D9000C0F2002BC0F20028C2F2002A09E04CF693
:100DA0001D510020C0F200212A46FFF7C1FE00BEFF
:100DB0004F4620684FF0FF32394609F035FC0128D4
:100DC00008D04DF21763002059464246C0F2002376
:100DD000FFF7AEFE0398012856D00228E9D1B0787B
:100DE00042F22871C2F20021B94600F00300022845
:100DF00042F67430C2F2002050EA0185286809F0FA
:100E0000EFFCB17801F0030102294FF0010151EA32
:100E1000119100280291CBD0B0F5007F4FF4007102
:100E200050EA318742F2DC40C2F200204FF0FF313D
:100E3000006809F02DF90128BAD100263C4604E0EB
:100E40000298013C064400F08C8028680AEB0601F9
:100E50004FF0FF3209F0E8FB0128F1D04DF2935337
:100E6000002059464246C0F20023FFF761FE4CF6CF
:100E70001D5100200122C0F20021FFF759FE00BEE3
:100E8000DEE700BF00BF00BF41F2EC30C2F200203D
:100E9000007801287FF48DAF0498002800F0A78027
:100EA00042F290404FF0FF31C2F20020006809F09A
:100EB000EFF8012813D04CF228530546002059467C
:100EC0004246C0F20023FFF733FE45B14CF61D51F8
:100ED0000020C0F200212A46FFF72AFE00BE40F69D
:100EE000AC71049A3046C2F2002106F025FF08B921
:100EF0002FF0A1C84CF2C323814600205946424638
:100F0000C0F20023FFF714FE43F20010C2F20020EB
:100F100006F08AFB58B14CF6AE624CF64533002021
:100F20005946C0F20022C0F20023FFF701FE30460E
:100F300006F02AFF58B14CF63D524CF6FB13002048
:100F40005946C0F20022C0F20023FFF7F1FD4CF633
:100F50001D510020C0F200214A46FFF7E9FD00BE06
:100F600027E70298802300FB07F243F20010C2F249
:100F70000020514606F0C4FB43F29C0642F2444472
:100F80000028C2F20026C2F200243FF411AF4CF256
:100F90003C430546002059464246C0F20023FFF775
:100FA000C7FD43F20010C2F2002006F03DFB58B12D
:100FB0004CF6AE624CF6453300205946C0F2002292
:100FC000C0F20023FFF7B4FD304606F0DDFE002836
:100FD0003FF4E5AE4CF63D524CF6FB13002059466B
:100FE000C0F20022C0F20023FFF7A2FDD7E643F2D1
:100FF000001040F6AC714FF400728023C2F2002062
:10100000C2F2002106F040FB08B92FF02FC14CF2CC
:1010100055530546002059464246C0F20023FFF7CB
:1010200087FD43F20010C2F2002006F0FDFA58B12D
:101030004CF6AE624CF6453300205946C0F2002211
:10104000C0F20023FFF774FD304606F09DFE58B154
:101050004CF63D524CF6FB1300205946C0F20022DC
:10106000C0F20023FFF764FD4CF61D510020C0F2D2
:1010700000212A46FFF75CFD00BE9AE641F2E4102B
:101080000221C2F2002041710AE641F2E41001217E
:10109000C2F200204171FFE580B543F20010C2F2B8
:1010A000002006F0C1FA002808BF80BD4CF692610E
:1010B0004CF6AE624CF64533C0F20021C0F200227D
:1010C000C0F200230020BDE88040FFF731BDD4D43A
:1010D00080B543F29C00C2F2002006F055FE0028C5
:1010E00008BF80BD4CF692614CF63D524CF6FB13A6
:1010F000C0F20021C0F20022C0F200230020BDE8AF
:101100008040FFF715BDD4D470B584B08179033920
:10111000072900F299810FF20602DFE811F0EA00D8
:101120000800320108001F0070017D0141014DF2ED
:1011300061610020C0F200210024FFF7F9FC41F2B8
:10114000EC304FF40071C2F20020047040F6AC7035
:10115000C2F200200AF0E5FF04B070BD417B090235
:10116000B1F5085F00F0D081B1F5045F00F0978120
:10117000B1F5005F40F068814CF28C610020C0F254
:101180000021FFF7D5FC41F2E41443F20010C2F253
:101190000024C2F200200722214606F031FB00287D
:1011A00040F05281226823794DF2F9716679A57970
:1011B000C0F200210020CDE90065FFF7B9FC41F243
:1011C000D01041F2B016C2F20020C2F2002641F265
:1011D000F031C2F200214160F06140F6A871206850
:1011E000C2F20021086068B340F2000140F204023C
:1011F000C2F20021C2F2002241F2F03309781268F3
:10120000C2F2002306F038FEE0B14CF692614DF2D6
:10121000D3324DF2E5330546C0F20021C0F2002280
:10122000C0F200230020FFF783FCFFF735FFFFF734
:101230004FFF4CF61D510020C0F200212A46FFF757
:1012400077FC00BE60790146022818BF0021012802
:1012500008BF0321B1700221A079072851EA11913A
:10126000093851EA10807070207902285FEA1F90D7
:10127000F07043F29C00C2F2002006F085FD70B1D0
:101280004CF692614DF2D3324CF6FB13C0F20021C2
:10129000C0F20022C0F200230020FFF749FC43F215
:1012A0009C0041F2B011C2F20020C2F2002106F00F
:1012B0000BFB002800F0C8804CF692614DF2D3324F
:1012C0004CF6DB230446C0F20021C0F20022C0F23B
:1012D00000230020FFF72CFCFFF7DEFE4CF61D512B
:1012E0000020C0F200212246FFF722FC00BE04B01D
:1012F00070BD4CF649510020C0F20021FFF718FCE8
:1013000043F2001040F6AC71C2F20020C2F200219C
:101310004FF40072802306F0B7F9002800F09480A3
:101320004CF692614DF2D3324CF255530446C0F262
:101330000021C0F20022C0F200230020FFF7F8FBDA
:1013400043F20010C2F2002006F06EF970B14CF6C4
:1013500092614CF6AE624CF64533C0F20021C0F209
:101360000022C0F200230020FFF7E2FB4CF61D51E3
:101370000020C0F200212246FFF7DAFB00BE04B0D5
:1013800070BD4CF2F2610020C0F20021FFF7D0FBEB
:1013900041F2EC300121C2F20020017004B070BDB6
:1013A0004CF6C4110020C0F20021FFF7C1FB42F24D
:1013B000DC400021C2F2002000220023006808F077
:1013C00043FD012840D04CF692614DF2D3324DF6E8
:1013D000D8230446C0F20021C0F20022C0F200234C
:1013E0000020FFF7A5FB7CB34CF61D510020C0F296
:1013F00000212246FFF79CFB00BE04B070BD407B7D
:101400000002B0F5045F40D0B0F5005F1CD14CF68F
:10141000B741C0F200213CE04DF250410546C0F218
:1014200000210020FFF784FB42F24441A868C2F289
:101430000021039000220023086802A901240294DD
:1014400008F002FD012801D104B070BD41F2ED3079
:101450004CF69261C2F200204DF2D3324DF60833C1
:10146000C0F200210470C0F20022C0F2002300206C
:10147000FFF75EFB4CF61D510020C0F20021012257
:10148000FFF756FB00BE04B070BD4DF6F011C0F280
:101490000021002004B0BDE87040FFF749BB4DF2C9
:1014A000A2410020C0F20021FFF742FB41F2E41507
:1014B00043F20010C2F20025C2F2002007222946A2
:1014C00006F0C2F9002800F0AB804CF692614DF2B4
:1014D000D3324CF670530446C0F20021C0F2002211
:1014E000C0F200230020FFF723FBFFF7D5FDFFF735
:1014F000EFFD4CF61D510020C0F200212246FFF7FF
:1015000017FB00BE04B070BD4DF2ED410546C0F2C0
:1015100000210020FFF70CFB41F2AC1443F2001055
:10152000C2F20024C2F200200222214606F068F92D
:1015300000284CD143F29C004FF6FF73C2F200200A
:10154000EE892188828966F3010121809A4233D095
:10155000EFF31081012282F3108843F6B072C2F2D9
:10156000002213683BB940F614530026C4F240032E
:101570001E7040261E70136802260133136081F32B
:1015800010886FF03F0180892388C2B201EA900081
:10159000590800EB820040F60002C4F2400266F3F4
:1015A0005F0143F6FA768358CFF6FE76334019434F
:1015B000815000F045F8218801F00102C1F3400399
:1015C0004DF6BF010020C0F20021FFF7B1FA43F24F
:1015D00000100021C2F2002006F05AF900283FF462
:1015E00033AF4CF692614DF2D3324CF232330446B3
:1015F000C0F20021C0F20022C0F200230020FFF759
:1016000097FAFFF749FDFFF763FD4CF61D510020E7
:10161000C0F200212246FFF78BFA00BE04B070BD75
:101620002A682B794CF6B9616E79AD79C0F2002148
:101630000020CDE90065FFF77BFA04B070BDD4D47B
:10164000EFF31080012181F3108843F6B071C2F2EC
:1016500000210A6812B10A68013A0A60096811B1EA
:1016600080F31088704740F614510022C4F2400104
:101670000A7080220A7080F310887047D4D4D4D4C2
:10168000B0B582B00279911E1E2900F27580DFE8A4
:1016900011F01F00F800AC00F800F800F8009A0004
:1016A000F800F800F800F800F800F800F800FA0078
:1016B000F800F800F800F800F800F800F800F8006A
:1016C000F800F800F800F800F800F800F8008800CA
:1016D00042F290400021C2F200200025006808F08C
:1016E00017FF012819D04CF692614DF24E624CF270
:1016F000EB230446C0F20021C0F20022C0F2002316
:101700000020FFF715FA44B14CF61D510020C0F23D
:1017100000212246FFF70CFA00BE42F2444069461F
:10172000C2F20020002200230124006800940195E9
:1017300008F02AFE012800F0A48041F2ED304CF6BA
:101740009261C2F200204DF24E624DF60833C0F2B3
:1017500000210470C0F20022C0F200230020FFF735
:10176000E7F94CF61D510020C0F200210122FFF7DD
:10177000DFF900BE02B0B0BD402A40F082804CF6D6
:101780002F710020C0F20021FFF7D2F94CF61D5155
:101790000020C0F200210122FFF7CAF900BE02B00A
:1017A000B0BD4CF26F510020C0F20021FFF7C0F92C
:1017B0004CF61D510020C0F200210122FFF7B8F9BC
:1017C00000BE02B0B0BD4CF257410020C0F2002173
:1017D000FFF7AEF94CF61D510020C0F200210122A6
:1017E000FFF7A6F900BE02B0B0BD43F29C0142F67D
:1017F0007433C2F2002142F22875C2F20023C2F211
:1018000000258978022201F00301022953EA0581AB
:101810004FF0010555EA1593CDE9002300220C682D
:1018200000F108010023204608F0AEFD01281CD07D
:1018300041F2ED304CF69261C2F200204DF24E6260
:101840004DF60833C0F200210570C0F20022C0F24C
:1018500000230020FFF76CF94CF61D510020C0F268
:1018600000210122FFF764F900BE42F244406946BC
:10187000C2F2002000220023006808F085FD012844
:1018800013D102B0B0BD4CF274410020C0F200216F
:10189000FFF74EF94CF61D510020C0F20021012245
:1018A000FFF746F900BE02B0B0BD41F2ED300121B4
:1018B000C2F200204DF24E624DF60833C0F2002213
:1018C00001704CF69261C0F20021C0F200230020AA
:1018D000FFF72EF94CF61D510020C0F20021012225
:1018E000FFF726F900BE02B0B0BDD4D4D4D4D4D40E
:1018F00010B582B041F2FC3242F2FC33C2F2002257
:10190000C2F200234FF4007008210024009408F074
:1019100017FA42F24441C2F20021086018B90020CF
:10192000002100F065F842F248430120C2F2002392
:10193000002100220324009408F002FA42F29041B0
:10194000C2F20021086018B90020002100F050F810
:1019500042F294430120C2F20023002100220094AD
:10196000002408F0EDF942F2DC41C2F200210860E7
:1019700018B90020002100F03BF842F2E04242F2A8
:10198000E063C2F20022C2F200234FF40070012192
:10199000009408F0D5F942F22871C2F200210860E3
:1019A00018B90020002100F023F842F22C7242F610
:1019B0002C33C2F20022C2F200234FF40070022145
:1019C0000024009408F0BCF942F674310028C2F2F9
:1019D000002108601CBF02B010BD0020002102B031
:1019E000BDE8104000F004B8FFF782BFD4D4D4D4CF
:1019F00000BE7047D4D4D4D4B0B542F678344FF09A
:101A0000FF31C2F20024206808F042FB012803D015
:101A100020680021FFF7ECFF42F67C30C2F2002084
:101A20000178002918BFB0BD01210170FFF7DCFF6C
:101A300042F68035C2F200252868013828600CD0B3
:101A4000206800210022002308F0FEF90128F3D0CD
:101A500020680021FFF7CCFFEEE7B0BDD4D4D4D48A
:101A600080B542F67C3242F68030C2F20022C2F2E9
:101A700000200021117042F684320160C2F200227F
:101A80004FF48070012108F0EFFB42F67831C2F28A
:101A90000021086018B900200021FFF7A9FF00F01D
:101AA00027F809F059FB002080BDD4D4D4D4D4D475
:101AB00042F6CC3C42F63443C2F2002CC2F2002380
:101AC000C0F800C00B60802010607047D4D4D4D41C
:101AD00042F6346C42F69C63C2F2002CC2F2002340
:101AE000C0F800C00B60802010607047D4D4D4D4FC
:101AF00080B584B042F680304DF61443C2F2002027
:101B000043F2241C43F2902EC0F2002301684FF4EC
:101B10008062013101600420009041F661304CF296
:101B20005C31C0F20020C0F20021C2F2002CC2F2EF
:101B3000012ECDE901EC08F0FFFE43F28C110028E4
:101B4000C2F2002108601CBF04B080BD002000214B
:101B500004B0BDE88040FFF74BBFD4D4D4D4D4D474
:101B600010B50446FFF748FF2046BDE81040FEF7D9
:101B7000FFBFD4D4D4D4D4D41EF0040F0CBFEFF3E1
:101B80000880EFF30980014908470000291C000282
:101B90000F4B1968EFF309821EF0100F08BF22EDFA
:101BA000108A22E9F04FEFF30B8342F8043D0A60FC
:101BB0004FF0100080F31188BFF34F8FBFF36F8F8A
:101BC00009F076FA4FF0000080F3118800F004B8B5
:101BD00064300122D4D4D4D4074801680A6802CA08
:101BE00081F30B88B2E8F04F1EF0100F08BFB2EC83
:101BF000108A82F30988704764300122D4D4D4D487
:101C000010B51020EFF3118480F3118809F048FB20
:101C100030B14EF604504FF08051CEF2000001601A
:101C200084F3118810BDD4D4806910F8020C022806
:101C300001D1FFF7D1BF042838BF704780B54CF2FF
:101C400068304CF60D424CF21253C0F20020C0F244
:101C50000022C0F200234FF47E7107F06DFBD4D454
:101C6000283140F8481D41F689414FF0807CC0F290
:101C7000002122F00102C1630264C0F844C06FF089
:101C80000201C0E90913704700BE00BF00BF00BFDA
:101C9000FEE7D4D4D4D4D4D44EF62250F021CEF2E0
:101CA0000000017000F018F84EF63470CEF200001B
:101CB000016841F04041016062B6BFF36F8FEFF3FE
:101CC000148C2CF0040C8CF31488BFF36F8F02DF9C
:101CD00000BEFDE7D4D4D4D443F6F47044F6D35117
:101CE000C2F20020C1F262010068A0FB01014FF0C6
:101CF000FF3000EB91110020B0EB116F18BF70475F
:101D00004EF21002F023CEF2000251604EF6235143
:101D1000CEF200010B709060072010607047D4D4A1
:101D2000EFF31180102181F3118843F29011C2F278
:101D300000210A68002A02F101020A6018BF7047F8
:101D400043F29411C2F2002108604EF60450CEF224
:101D500000000068C00500D1704780B54CF26830C3
:101D60004CF28E324CF66633C0F20020C0F20022F4
:101D7000C0F2002340F2A44107F0DEFAD4D4D4D458
:101D800043F29010C2F20020016859B1013901609C
:101D900018BF704743F29410C2F20020006880F32D
:101DA0001188704780B54CF268304DF60A124CF23B
:101DB0000C33C0F20020C0F20022C0F2002340F237
:101DC000AD4107F0B9FAD4D410B572B64EF69024EE
:101DD000C4F2010408F0E8FF2078010720D04EF299
:101DE000FA314AF2025CC4F20101CFF6FF7C002214
:101DF0000B88A1F800C0227043F425420A80BFF38B
:101E00004F8F30BFBFF36F8F62B6BFF36F8F72B665
:101E10000A88A1F800C0207042F42540088008E03C
:101E2000BFF34F8F30BFBFF36F8F62B6BFF36F8FBB
:101E300072B662B6BDE8104009F012B8D4D4D4D45A
:101E400080B5EFF30380103840B2002806D44EF27C
:101E50000041CEF20001405C0F2817D94EF60C501D
:101E6000CEF200000068400558BF80BD4CF26830DB
:101E70004DF215424CF21E63C0F20020C0F2002267
:101E8000C0F2002340F2216107F056FA4CF26830AC
:101E90004DF215424DF66F03C0F20020C0F2002251
:101EA000C0F2002340F20F6107F046FAD4D4D4D434
:101EB00043F6EE01C2F200210988012918BF7047DC
:101EC00080B58AB0038DD0E90312891A0391D91E17
:101ED00090F8222089B28DF8062002294FF0800266
:101EE0008DF8072006D84EF22E12C0F2002232F8EA
:101EF000111001E040F2DC5190F82420ADF80810F8
:101F0000C069069001A909208DF8042002F0B8FEEE
:101F10000AB0BDE88040704743F6EE01C2F20021EE
:101F20000988012918BF704780B58AB090F824103D
:101F300043F62833C2F2002390F822208DF80620C1
:101F40005B5C9342038D6FF07F0252EA0292013B89
:101F50008DF8072018BF40F2DC538DF80410C069DB
:101F6000069001A90A20ADF8083002F089FE0AB0F7
:101F7000BDE880407047D4D410B5044661B100F08C
:101F8000C7FF204600F0DCFFC0050FD4204601F05B
:101F90002FF86FF3DF2010BD00F04EFFC0050ED408
:101FA000204600F079FF00F07F0010BD204601F0D0
:101FB0000BF86FF03F0101EA1010403010BD4FF4F4
:101FC000807010BDD4D4D4D4F0B581B0044690F85C
:101FD000246043F634300D46C2F2002030F816007B
:101FE000022816D143F28846C2F2002656F8250090
:101FF00008B107F051FD002046F82500204629468B
:1020000003F012FE013894F8246002285FEA2F974B
:1020100000E000272046294600F0B6FD204629466C
:1020200000F0EEFD2046294600F032FE204629460B
:1020300002F006FE2046294600F06AFF43F2B04057
:102040006421C2F2002016FB010005EB850100EBC4
:10205000410232F8021F17B141F48061118005EB93
:10206000850200EB4207204600F082FF012E03D1DB
:10207000B988204600F094FFF988204600F0D0FF90
:102080003989204600F0E4FF0021204600F040FF9F
:102090002046294601F080F82046294602F0B8FD86
:1020A0002046294601F018F82046294600F01CFE7B
:1020B0002046294600F038FE2046294601B0BDE8FA
:1020C000F04000F051BED4D470B5044690F824001E
:1020D00043F634320D46C2F2002232F810000228D4
:1020E0000BD143F28846C2F2002656F8250008B10B
:1020F00007F0D2FC002046F825002046294602F0D1
:102100009FFD2046294600F03FFD2046294600F06D
:1021100077FD2046294600F0BBFD00214FF4004228
:1021200048F22F03204600F0B3FA00BF00BF00BF03
:102130000021204600F070FA10F02F0FF8D1204651
:10214000294600F0E5FE0021204600F011FF0021A5
:10215000204600F025FF0021204600F061FF00210D
:10216000204600F075FF0021204600F0D1FE2046F9
:10217000294601F011F82046294602F049FD204683
:10218000294600F0A9FF2046294601F095F820468F
:10219000294601F0B1F82046294600F0A5FD204669
:1021A000294600F0C1FD20462946BDE8704000F0F8
:1021B000DBBDD4D4D4D4D4D470B51546013A022AA8
:1021C0000E4604460DD220462946324600F0A8FBB2
:1021D0002046294600F020FA00F00F00B042F7D167
:1021E00016E0002D18BF70BD43EA0605002145F436
:1021F000004248F22F03204600F04AFA00BF00BF19
:102200000021204600F008FA00F02F00A842F7D184
:1022100070BDD4D4D4D4D4D4B0B50C46054601F0A6
:102220004BF828462146BDE8B04001F065B8D4D44B
:10223000F0B581B001220C46054600F0FDFF0026F6
:102240004FF6FF7700BF00BF2846214600F018FF79
:10225000800602D50136BE42F6D101B0F0BDD4D41D
:1022600070B51446013A022A0E4605460DD228469C
:102270002146324600F054FB2846214600F0CCF9B6
:1022800000F00F00B042F7D112E08CB91E430021DC
:1022900046F4004248F22F03284600F0F9F900BF47
:1022A0000021284600F0B8F900F02F00B042F7D125
:1022B000002600BF00BF00BF2846214600F098FB63
:1022C00081040DD4284600F023F8284600F0A4F835
:1022D0000A2001F0F9FE632E06F10106ECD3FF207F
:1022E00070BDD4D4D4D4D4D470B514460D460646AB
:1022F00001F002F830462946224601F01DF830462A
:102300002946BDE8704000F0B7BFD4D4D4D4D4D4AB
:1023100090F8240043F63431C2F2002131F8101055
:1023200002290AD1002841F20000C4F2350004BF9E
:102330000020C4F225000088704700207047D4D4E4
:10234000012818BF704741F20000C4F2350001882F
:1023500041F480710180704790F8241043F63430C6
:10236000C2F20020012930F8110008BF022800D075
:10237000704741F20000C4F23500018821F48071F9
:1023800001807047D4D4D4D490F8241043F634306C
:10239000C2F20020012930F8110008BF022800D045
:1023A000704741F20000C4F23500018841F080011D
:1023B00001807047D4D4D4D490F8242043F634302C
:1023C000C2F20020012A30F8120008BF022800D013
:1023D000704741F24010C4F2350002881143018079
:1023E0007047D4D4D4D4D4D490F8242043F63430D5
:1023F000C2F20020012A30F8120008BF022800D0E3
:10240000704741F24010C4F23500028822EA01010F
:1024100001807047D4D4D4D490F8240043F63431EA
:10242000C2F2002131F8101002290AD1002841F22D
:102430000400C4F2350004BF0420C4F22500008863
:10244000704700207047D4D490F8240043F634310C
:10245000C2F2002131F8101002290AD1002841F2FD
:102460000800C4F2350004BF0820C4F2250000882B
:10247000704700207047D4D490F8242043F63430BD
:10248000C2F2002030F8120032B1022802BF41F23D
:102490000C00C4F2350001807047D4D4D4D4D4D415
:1024A00090F8240043F63432C2F20022012832F8B8
:1024B00010204FF0000008BF002900D07047022A0A
:1024C00002BF41F21400C4F2350000687047D4D452
:1024D00090F8243043F63430C2F20020012B30F85B
:1024E000130008BF002900D07047022802BF41F244
:1024F0001400C4F2350002607047D4D4D4D4D4D4CC
:1025000090F8242043F63430C2F20020002930F83D
:1025100012304FF0000008BF022B00D07047012A94
:1025200005D141F21600C4F235000088704714202E
:10253000C4F225000088704790F8243043F6343008
:10254000C2F20020012B30F8130008BF022809D086
:1025500002291FD0012912D029BB1420C4F2250062
:1025600002807047022919D001290DD0002918BF17
:10257000704741F21600C4F2350002807047142003
:10258000C4F225008280704741F21600C4F2350083
:10259000828070471420C4F2250003E041F2160047
:1025A000C4F235000281704790F8243043F634308D
:1025B000C2F20020012B30F8130008BF022809D016
:1025C00002291FD0012912D029BB1420C4F22500F2
:1025D00002707047022919D001290DD0002918BFB7
:1025E000704741F21700C4F23500027070471420A2
:1025F000C4F225000271704741F21700C4F23500A1
:10260000027170471420C4F2250003E041F2170064
:10261000C4F235000272704790F8242043F634303B
:10262000C2F2002030F8120002280FD102291ED079
:1026300001290ED051B92020012AC4F2250004BF7F
:1026400041F22000C4F23500008870470020008865
:102650007047202041F22001C4F22500C4F2350168
:102660000830012A08BF01F10800008870472020C7
:1026700041F22001C4F22500C4F235010C30012AD8
:1026800008BF01F10C0000887047D4D4D4D4D4D44E
:1026900090F824C043F63430C2F2002030F81C0019
:1026A00002280FD1022922D0012912D051B92020AD
:1026B000BCF1010FC4F2250004BF41F22000C4F2B6
:1026C000350000E0002001881A4099431144018040
:1026D0007047202041F22001C4F22500C4F23501E8
:1026E0000830BCF1010F08BF01F10800EBE7202022
:1026F00041F22001C4F22500C4F235010C30BCF1D6
:10270000010F08BF01F10C00DDE7D4D4D4D4D4D438
:1027100090F8242043F63430C2F2002030F8120042
:1027200002280ED102291FD0012910D049B920203A
:10273000012AC4F2250004BF41F22000C4F2350092
:1027400000E00020018821F4005101807047202022
:1027500041F22001C4F22500C4F235010830012AFB
:1027600008BF01F10800EDE7202041F22001C4F28A
:102770002500C4F235010C30012A08BF01F10C001C
:10278000E0E7D4D4D4D4D4D410B590F8242043F6C0
:102790003433C2F2002333F81230022B0ED1022957
:1027A00030D0012920D049B92024012AC4F22504BF
:1027B00004BF41F22004C4F2350400E0002401F01B
:1027C0008BFC218840B14EF6F0700840208000BF9D
:1027D00020880007FCD102E021F48050208020886E
:1027E00040F48050208010BD2021012AC4F2250130
:1027F00001F1080441F22001C4F2350108BF01F1E2
:102800000804DCE72021012AC4F2250101F10C04AF
:1028100041F22001C4F2350108BF01F10C04CEE7FA
:1028200090F8242043F63430C2F2002030F8120031
:1028300002280ED102291FD0012910D049B9202029
:10284000012AC4F2250004BF41F22000C4F2350081
:1028500000E00020018821F4805101807047202091
:1028600041F22001C4F22500C4F235010830012AEA
:1028700008BF01F10800EDE7202041F22001C4F279
:102880002500C4F235010C30012A08BF01F10C000B
:10289000E0E7D4D4D4D4D4D490F8240043F6343C24
:1028A000C2F2002C3CF81030022B0ED1022929D0A4
:1028B00001291AD049B920210128C4F2250104BFF9
:1028C00041F22001C4F2350100E000213CF8100083
:1028D000022809D10888002A20F44060088008BF37
:1028E00070470888104308807047202141F2200378
:1028F000C4F22501C4F235030831012808BF03F1F1
:102900000801E3E7202141F22003C4F22501C4F2CB
:1029100035030C31012808BF03F10C01D6E7D4D4EC
:10292000B0B582B090F8243043F63435C2F20025B9
:10293000144635F81350022D0ED1022922D0012958
:1029400012D0B9BB2025012BC4F2250504BF41F2EA
:102950002005C4F235052EE00025013901292A8819
:10296000ADF806201ED929E02021012BC4F2250153
:1029700001F1080541F22001C4F2350108BF01F15F
:1029800008050CE02021012BC4F2250101F10C0502
:1029900041F22001C4F2350108BF01F10C0529887C
:1029A000ADF8061001F098FB40B9BDF8060020F420
:1029B000805001E000252888ADF80600BDF806002B
:1029C00020F00F00ADF80600BDF80600288000BF1B
:1029D00028880007FCD1BDF806002043ADF80600AA
:1029E000BDF80600288002B0B0BDD4D4D4D4D4D46D
:1029F00090F8242043F63430C2F2002030F8120060
:102A000002280FD102291ED001290ED051B922204F
:102A1000012AC4F2250004BF41F22200C4F23500AD
:102A200000887047002000887047222041F2220170
:102A3000C4F22500C4F235010830012A08BF01F1B3
:102A4000080000887047222041F22201C4F22500CC
:102A5000C4F235010C30012A08BF01F10C000088D6
:102A60007047D4D4D4D4D4D490F8242043F634304E
:102A7000C2F2002030F8120002280ED102291FD025
:102A8000012910D049B92220012AC4F2250004BF2F
:102A900041F22200C4F2350000E00020018841F438
:102AA000004101807047222041F22201C4F225003A
:102AB000C4F235010830012A08BF01F10800EDE732
:102AC000222041F22201C4F22500C4F235010C306B
:102AD000012A08BF01F10C00E0E7D4D4D4D4D4D447
:102AE00090F8242043F63430C2F2002030F812006F
:102AF00002280ED102291ED001290FD049B9222067
:102B0000012AC4F2250004BF41F22200C4F23500BC
:102B100000E000204FF4804101807047222041F204
:102B20002201C4F22500C4F235010830012A08BF91
:102B300001F10800EEE7222041F22201C4F2250053
:102B4000C4F235010C30012A08BF01F10C00E1E7A5
:102B500090F8240043F63432C2F2002232F81020FA
:102B6000022A18BF7047002841F23600C4F235002F
:102B70004FF0010204BF3620C4F2250002FA01F131
:102B8000028811430180704790F8240043F63432E4
:102B9000C2F2002232F81020022A18BF7047002823
:102BA00041F23600C4F235004FF0010204BF362076
:102BB000C4F2250002FA01F1028822EA0101018033
:102BC0007047D4D4D4D4D4D490F8240043F634320B
:102BD000C2F2002232F81020022A18BF70470028E3
:102BE00041F23800C4F235004FF0010204BF382032
:102BF000C4F2250002FA01F10288114301807047F6
:102C000090F8240043F63432C2F2002232F8102049
:102C1000022A18BF7047002841F23800C4F235007C
:102C20004FF0010204BF3820C4F2250002FA01F17E
:102C3000028822EA010101807047D4D4D4D4D4D4CC
:102C400090F8240043F63432C2F2002232F8102009
:102C5000022A18BF704743F278520028C2F20022BD
:102C600041F23A0018BF1432C4F235004FF0010CA3
:102C700004BF3A20C4F22500002322F811300CFAD8
:102C800001F10288114301807047D4D4D4D4D4D444
:102C900090F8240043F63432C2F2002232F81020B9
:102CA000022A18BF7047002841F23A00C4F23500EA
:102CB0004FF0010204BF3A20C4F2250002FA01F1EC
:102CC000028822EA010101807047D4D4D4D4D4D43C
:102CD000002841F24000C4F2350004BF4020C4F295
:102CE000250000887047D4D490F8240043F634328D
:102CF000C2F2002232F81020022A18BF70470122C7
:102D0000002841F2460002FA01F1C4F2350040F217
:102D1000FF3204BF4620C4F2250022EA01010180EF
:102D20007047D4D4D4D4D4D490F8240043F63432A9
:102D3000C2F2002232F81020022A18BF7047012286
:102D4000002841F2480002FA01F1C4F2350040F2D5
:102D5000FF3204BF4820C4F2250022EA01010180AD
:102D60007047D4D4D4D4D4D490F8240043F6343269
:102D7000C2F2002232F81020022A18BF7047012246
:102D8000002841F24A0002FA01F1C4F2350040F293
:102D9000FF3204BF4A20C4F2250022EA010101806B
:102DA0007047D4D4D4D4D4D490F8240043F634312A
:102DB000C2F2002131F8101002290AD1002841F294
:102DC0004C00C4F2350004BF4C20C4F2250000883A
:102DD000704700207047D4D4002841F25400C4F258
:102DE000350004BF5420C4F2250000887047D4D4B5
:102DF000002841F25600C4F2350004BF5620C4F248
:102E0000250000887047D4D4002841F25800C4F24D
:102E1000350004BF5820C4F2250000887047D4D480
:102E2000002841F25A00C4F2350004BF5A20C4F20F
:102E3000250000887047D4D490F8240043F634313C
:102E4000C2F2002131F8101002290AD1002841F203
:102E50005C00C4F2350004BF5C20C4F22500008889
:102E6000704700207047D4D490F8240043F63432E1
:102E7000C2F2002232F81020022A18BF7047002840
:102E800041F25C00C4F2350004BF5C20C4F22500AE
:102E900001807047D4D4D4D490F8240043F6343160
:102EA000C2F2002131F8101002290AD1002841F2A3
:102EB0005E00C4F2350004BF5E20C4F22500008825
:102EC000704700207047D4D490F8240043F6343281
:102ED000C2F2002232F81020022A18BF70470028E0
:102EE00041F25E00C4F2350004BF5E20C4F225004A
:102EF00001807047D4D4D4D4002841F26000C4F2D9
:102F0000350004BF6020C4F2250000887047D4D487
:102F100090F8240043F63432C2F2002232F8102036
:102F2000022A18BF7047002841F26400C4F235003D
:102F300004BF6420C4F2250001807047D4D4D4D4E7
:102F400090F8240043F63431C2F2002131F8101019
:102F500002290AD1002841F26800C4F2350004BFFA
:102F60006820C4F225000088704700207047D4D440
:102F700090F8240043F63432C2F2002232F81020D6
:102F8000022A18BF7047002841F26800C4F23500D9
:102F900004BF6820C4F2250001807047D4D4D4D483
:102FA00090F8242043F63430C2F20020012A30F891
:102FB000120001BF022841F26A00C4F2350001800C
:102FC0007047D4D4D4D4D4D490F8240043F6343108
:102FD000C2F20021002831F810104FF0000006D096
:102FE000022902BF41F26A00C4F23500008870472E
:102FF00090F8240043F63431C2F2002131F8101069
:1030000002290AD1002841F26C00C4F2350004BF45
:103010006C20C4F225000088704700207047D4D48B
:1030200090F8240043F63432C2F2002232F8102025
:10303000022A18BF7047002841F26C00C4F2350024
:1030400004BF6C20C4F2250001807047D4D4D4D4CE
:1030500090F8240043F63432C2F2002232F81020F5
:10306000022A18BF7047002841F26E00C4F23500F2
:1030700004BF6E20C4F2250001807047D4D4D4D49C
:1030800081B00022ADF8022090F8240043F63432DB
:10309000C2F2002232F81020022A18D141F2600355
:1030A00040F2600CC4F23503C4F2250C03F11002A7
:1030B000002802BF0CF110026023C4F2250302EBCA
:1030C0004100002918BF831E1888ADF80200BDF822
:1030D000020001B07047D4D490F8240043F6343293
:1030E000C2F2002232F81020022A18BF70470028CE
:1030F00041F27000C4F2350004BF7020C4F2250014
:1031000000EB410030F8021C41F4005120F8021C91
:103110007047D4D4D4D4D4D490F8240043F63432B5
:10312000C2F2002232F81020022A18BF704700288D
:1031300041F27000C4F2350004BF7020C4F22500D3
:1031400000EB410030F8021C41F4007120F8021C31
:103150007047D4D4D4D4D4D490F8240043F6343275
:10316000C2F2002232F81020022A18BF704700284D
:1031700041F27000C4F2350004BF7020C4F2250093
:1031800000EB410030F8021C21F4007120F8021C11
:103190007047D4D4D4D4D4D490F8240043F6343235
:1031A000C2F2002232F81020022A18BF704758B12C
:1031B00041F26000C4F2350059B100EB4100C18911
:1031C00041F48071C181704760200029C4F225005C
:1031D000F3D1018841F4807101807047D4D4D4D4F4
:1031E00090F8240043F63433C2F2002333F8103051
:1031F000022B18BF704780B541F2600340F2600CAB
:10320000C4F23503C4F2250C03F1100E002802BFEE
:103210000CF1100E6023C4F225030EEB41000029CF
:1032200018BF831E188820F00300188018881043E8
:103230001880BDE88040704790F8240043F634338E
:10324000C2F2002333F81030022B18BF704758B178
:1032500041F26000C4F2350011B100EB41000E30C4
:10326000018891430180704760200029C4F2250045
:10327000F3D1F5E7D4D4D4D490F8240043F6343213
:10328000C2F2002232F81020022A18BF704700282C
:1032900041F29000C4F2350004BF9020C4F2250032
:1032A00000EB810030F8041C41F4007120F8041C8C
:1032B0007047D4D4D4D4D4D490F8240043F6343214
:1032C000C2F2002232F81020022A18BF70470028EC
:1032D00041F29000C4F2350004BF9020C4F22500F2
:1032E00000EB810030F8041C21F4007120F8041C6C
:1032F0007047D4D4D4D4D4D490F8240043F63432D4
:10330000C2F2002232F81020022A18BF70470028AB
:1033100041F29000C4F2350004BF9020C4F22500B1
:1033200000EB810030F8041C41F4807120F8041C8B
:103330007047D4D4D4D4D4D490F8240043F6343392
:10334000C2F2002333F81030022B18BF7047002858
:1033500041F29200C4F2350004BF9220C4F225006D
:1033600000EB810020F8042C7047D4D4D4D4D4D4FA
:1033700090F8240043F63431C2F20021012831F8DC
:1033800010104FF0000001BF022941F24010C4F2BA
:10339000350000887047D4D4012818BF704741F227
:1033A0000210C4F23500018841F480410180704769
:1033B000012818BF704741F20210C4F2350001889D
:1033C00021F48041018070472DE9F04F83B090F8DF
:1033D000247043F6343CC2F2002C044692463CF87A
:1033E0001730012B01D1002605E043F26040C2F204
:1033F000002050F821603825BAF1010F08BF3C25A4
:1034000060596FF00302002F4068406890F8008018
:1034100043F29810C2F2002000EB071050F8283059
:1034200008BF6FF0010213EA020B1AD0CDE90116B2
:1034300000EB88064CF2083920465146C4F20009D8
:10344000FFF7EEF994F82400C0B1BAF1010F21D1D1
:10345000D9F80C0020F48030C9F80C00D9F80C0021
:1034600029E03CF81700012800F0C88008465146C2
:10347000224603B0BDE8F04F02F0A2B9BAF1010F45
:1034800011D1D9F8000020F48030C9F80000D9F833
:10349000000010E0D9F8100020F48030C9F81000C6
:1034A000D9F8100007E0D9F8040020F48030C9F8FA
:1034B0000400D9F8040043F2B8133046C2F20023E6
:1034C000DDF8049003EBC70131F818108B450BD2DF
:1034D00043F2C8120168029EC2F2002257B102EB09
:1034E000870201F0030107E0BBFBF1F2029E02FB41
:1034F00001FB0DE001F0010102F8081043F2D011C8
:10350000C2F2002106EB0B0201EB071141F8282063
:10351000615994F82450A26BC0F800B0496803EBDD
:10352000C50350684968097833F8117003EB410C02
:103530000168BB455BEA378E5FEA8B7708BF012DD8
:1035400012D0002D5FEA0F9340F2A0150AEB4A0754
:10355000C2F200254FF0010843EAC30305EB8303E1
:1035600003EB870304330AE00AEB4A0340F2A01599
:10357000C2F200254FF0020805EB830324331B68D9
:103580008B6040684AF20007C4F2000703781068B5
:1035900007EB8313002783609D7F01372D0627EA01
:1035A000E577BDB2642DF7D32EFA08F34E60CB81D8
:1035B000ABF10107BCF80030B7FBF3F301338B81AB
:1035C000926852689047204600F086FD28B9002393
:1035D000204649465246FEF7EFFD20465146FFF78A
:1035E000D3F8204600F078FD40B10023204649463C
:1035F000524603B0BDE8F04FFEF7DEBD03B0BDE8B4
:10360000F08FD4D4D4D4D4D448B101294FF03801A8
:1036100008BF3C21405840684068007870470A2045
:103620007047D4D4D4D4D4D42DE9F04381B0044627
:1036300090F8240043F634331646C2F200230D46B8
:1036400033F81030012B02D14FF0000805E043F2AF
:103650006041C2F2002151F825803821012E08BFB7
:103660003C21615843F29812C2F20022496802EBF1
:1036700000104968097850F82120A2B100EB8109B7
:103680004CF2083720463146C4F20007FFF7C8F86D
:1036900094F8240050B1012E10D1F86820F4803045
:1036A000F860F86815E001B0BDE8F083012E0BD199
:1036B000386820F48030386038680AE0386920F4CF
:1036C00080303861386904E0786820F480307860B0
:1036D0007868D9F8003020464146324600F03CF880
:1036E000204600F0F9FC28B900232046294632463E
:1036F000FEF762FD2046294601F056FAD9F800107F
:103700000139B1FBF0F02946013082B22046FEF7C4
:10371000EBFD20462946FFF71BFA2046294601F01B
:103720002FFA20463146FEF7F3FF20463146FFF7D9
:103730002BF8204600F0D0FC28B100232046294673
:103740003246FEF739FD2046294601B0BDE8F04378
:1037500001F06EBAD4D4D4D4002808BF70472DE944
:10376000F0433827D0F83CE00546012A08BF3C2743
:10377000DEE900064AF2000CEF5995F824907468CF
:10378000C4F2000C7F6824787F6897F800800CEB07
:1037900084140027846000BFA57F01372D0627EA27
:1037A000E577BDB2642DF7D3D6F800C043F2B81662
:1037B000B9F1010FC2F2002612D102EB420240F22F
:1037C000A014C2F2002404EB820206EB4804526A01
:1037D000CCF804202289013A02EB927292101AE08E
:1037E000B9F1000F5FEA0F9440F2A01502EB42021C
:1037F000C2F2002544EAC40405EB840404EB82020F
:1038000006EBC9045268CCF8042034F81820013AB9
:1038100002EBD272521006EBC9040132CCF8081048
:10382000ACF80E2034F818105A1EB2FBF1F1013139
:10383000ACF80C10DEF808104A686146BDE8F043A9
:103840001047D4D4D4D4D4D480B590F8243043F6DF
:10385000343CC2F2002C002B5FEA0F923CF813E0DC
:10386000BEF1020F52EA038201294FF0380108BF6E
:103870003C21405843F2F011C2F20021406801EBB4
:10388000C2014068007831F810103CF81330022B68
:1038900018BF80BD43F29813C2F2002303EB02125B
:1038A00043F23843C2F2002352F8200053F821209B
:1038B000101A43F8210080BD2DE9F04F81B08846F1
:1038C0001946994693460546FFF722FB2846FFF71F
:1038D00037FB044610F0100F4FF0010050EA009A39
:1038E000284600F0F9FB28B90023284649465246ED
:1038F000FEF762FC4CF2083628465146C4F2000638
:10390000FEF78EFF95F8240038B1E0060DD4F0687C
:1039100020F48030F060F06812E0E0060BD43068EC
:1039200020F48030306030680AE0306920F4803064
:103930003061306904E0706820F480307060706835
:10394000E0064FF0380058BF3C20285895F8243046
:10395000AA6B40684068017843F2B810C2F20020B8
:1039600000EBC306506806EB410C36F811400168C5
:10397000A3455BEA348E5FEA8B7408BF012B11D03C
:10398000002B5FEA0F9340F2A0140AEB4A06C2F242
:10399000002443EAC30304EB830303EB86031E1DE9
:1039A00001230AE00AEB4A0340F2A014C2F2002409
:1039B00004EB830303F12406022334688C6040681F
:1039C0004AF20006C4F200060478106806EB84167A
:1039D0000024866000BF00BFB77F01343F0624EAA1
:1039E000E774A7B2642FF7D32EFA03F3C1F804806B
:1039F000CB81ABF10107BCF80030B7FBF3F3013327
:103A00008B8192685268904728465146FEF7BCFE6B
:103A1000284600F061FB40B1002328464946524643
:103A200001B0BDE8F04FFEF7C7BB01B0BDE8F08FB5
:103A30002DE9F0473822012908BF3C22825890F82E
:103A4000247043F634385268C2F200285268157860
:103A500043F2F012C2F2002202EBC70212F8154044
:103A600038F81720012A00F0A58043F2B81243F27B
:103A7000384AC2F20022C2F2002A02EBC70243F225
:103A8000604CC2F2002C32F815305AF824209A42C9
:103A900012D243F2C812C2F2002202EB8702525D38
:103AA000002A64D10E4621460546FFF75DF92846F7
:103AB0003146FEF7D9FF25E043F298135CF82490D5
:103AC000C2F2002303EB071656F82530D21A4AF843
:103AD00024201DD121460646FFF746F930462146EF
:103AE0003546FFF7CDFA40040CD438F8170001280A
:103AF00008BFBDE8F087012120462A46BDE8F0470F
:103B000002F0CEBA28462146BDE8F047FFF798B844
:103B100006EB850E9944CEF800205FB143F2C8133E
:103B200002F00306C2F2002303EB87035E554FF653
:103B3000FC7308E043F2C81602F00103C2F200264B
:103B400073554FF6FE7343F2D0161A40C2F20026A8
:103B500002EB090306EB071646F8253007D0CEF82E
:103B6000002049462346BDE8F047FFF7A5BE38F8D8
:103B70001720012A16D043F2C81243F2D013C2F222
:103B80000022C2F2002302EB870203EB0713525D0F
:103B90004AF8242053F825204CF8242002462046D9
:103BA00001F00EFE43F2C8100021C2F2002000EB2B
:103BB00087004155BDE8F08770B592B043F6B47008
:103BC00043F63431C2F20020C2F2002184694888F1
:103BD000012827D001A8022101258DF828500226AE
:103BE000FEF71EFE43F2002043F20423C2F200203F
:103BF000C2F20023028802EB0211013202F0070236
:103C0000028003EB810140F25110C0F2040008620F
:103C100081F82450D4E90902C1E90E0205200E857D
:103C200001F0A6F912B070BD01294AF20001C4F2F8
:103C3000000112D1C06BD0E900204068007801EB90
:103C400080100021906000BF827F0131120621EABE
:103C5000E2718AB2642AF7D312E0806BD0E90020C7
:103C60004068007801EB80100021906000BF00BF29
:103C7000827F0131120621EAE2718AB2642AF7D307
:103C80007047D4D4D4D4D4D480B584B0C06B816808
:103C90000068CA6969469047BDF8040004B080BD59
:103CA00010B543F204010028C4F22001086813D0C3
:103CB000C00413D50120EFF3108480F31088086846
:103CC00020F48050086008681E20012105F03CFBAC
:103CD00084F31088002010BD000502D440F2DD50AE
:103CE00010BD0120EFF3108480F31088086820F4E1
:103CF0000060086008681E20012105F025FB84F3A0
:103D00001088002010BDD4D4C8B341F200000021B7
:103D1000C4F2350080220181A0F86020A0F8701064
:103D2000A0F87210A0F87410A0F87610A0F878101F
:103D3000A0F87A10A0F87C10A0F87E10A0F88010EF
:103D4000C1860187418701864186A0F84610A0F808
:103D50004810A0F84A10028822F01002028002885F
:103D600022F020020280028822F0400202800288B3
:103D700022F001020280A0F802110020704700200A
:103D80000021C4F2250080220181A0F86020A0F863
:103D90007010A0F87210A0F87410A0F87610A0F8B7
:103DA0007810A0F87A10A0F87C10A0F87E10A0F887
:103DB0008010C1860187418701864186A0F84610A0
:103DC000A0F84810A0F84A10018821F010010180E5
:103DD000018821F020010180018821F0400101804B
:103DE000018821F00101018000207047D4D4D4D48F
:103DF00010B50446FFF788FF012C1DD0002C3AD1E6
:103E000043F20400C4F220000168090530D40168BF
:103E1000090533D40121EFF3108481F31088016880
:103E200041F40061016000681E20012105F08CFA58
:103E300084F31088002010BD43F20400C4F2200077
:103E40000168C90414D40168C90417D40121EFF32F
:103E5000108481F31088016841F48051016000688A
:103E60001E20012105F070FA84F31088002010BD97
:103E700040F2DC5010BD40F2E25010BD4FF4BC6087
:103E800010BDD4D4D4D4D4D4B0B5012800F0A180CE
:103E9000002840F0188140F200404EF2001EC4F2AB
:103EA000250043F6B47CCEF2000EC2F2002C02686C
:103EB00022F01002026091F90E304CF20032C4F28E
:103EC0000002002B1DD4487D0EEB030401250001E8
:103ED00084F800034CF8231052F8230020F48030BB
:103EE00042F8230052F82300580903F01F03BFF3E0
:103EF0005F8F0EEB800405FA03F3C4F880314EF8AF
:103F0000203091F90F30002B1DD4887D0EEB030477
:103F10000125000184F800034CF8231052F8230017
:103F200020F4803042F8230052F82300580903F0AF
:103F30001F03BFF35F8F0EEB800405FA03F3C4F891
:103F400080314EF8203091F90D30002B1DD4087DC2
:103F50000EEB03040125000184F800034CF8231044
:103F600052F8230020F4803042F8230052F8230056
:103F7000580903F01F03BFF35F8F0EEB800405FAAF
:103F800003F3C4F880314EF8203091F90C30002B47
:103F900000F19980C87C0EEB0304000184F8000353
:103FA0004CF8231052F8230020F4803042F823000C
:103FB00052F82300580903F01F0201230EEB800181
:103FC00003FA02F2BFF35F8FC1F880214EF8202080
:103FD000B0BD91F911304EF2001E4CF20032CEF21B
:103FE000000E002BC4F2000220D443F6B47C0D7EF8
:103FF0000EEB0304C2F2002C2D01012084F80053C3
:104000004CF8231052F8235025F4803542F8235001
:1040100052F823505D0903F01F03BFF35F8F0EEBCF
:1040200085049840C4F880014EF8250091F91230BB
:10403000002B21D443F6B474487E0EEB0305C2F284
:104040000024000185F8000344F8231052F82300EF
:10405000012420F4803042F8230052F8230058094C
:1040600003F01F03BFF35F8F0EEB800504FA03F329
:10407000C5F880314EF8203091F91030002B48BF40
:10408000B0BD43F6B474C87D0EEB0305C2F2002444
:10409000000185F8000344F8231052F8230020F4AF
:1040A000803042F8230052F82300580903F01F0221
:1040B00001230EEB800103FA02F2BFF35F8FC1F818
:1040C00080214EF82020B0BD012105F03DB9D4D4A7
:1040D00006F08EBFD4D4D4D490F8240001285FEA2F
:1040E0001F907047D4D4D4D44FF07041EFF30380C5
:1040F00001EB00604CF200318015C4F2000142581F
:1041000022F480324250405843F63431C2F200214A
:104110000888012808BF704701F026BDD4D4D4D444
:104120004FF07041EFF3038001EB00604CF200317F
:104130008015C4F20001425822F48032425043F606
:10414000B4724158C2F200221058807800F08CBB43
:104150004FF07041EFF3038001EB00604CF200314F
:104160008015C4F20001425822F480324250405877
:104170007047D4D4D4D4D4D44FF07041EFF303803B
:1041800001EB00604CF200318015C4F2000142588E
:1041900022F48032425040587047D4D4D4D4D4D47E
:1041A0004FF07041EFF3038001EB00604CF20031FF
:1041B0008015C4F20001425822F480324250405827
:1041C00043F63431C2F200214888012808BF704705
:1041D00001F0CABCD4D4D4D44FF07041EFF30380C3
:1041E00001EB00604CF200318015C4F2000142582E
:1041F00022F48032425040587047D4D4D4D4D4D41E
:104200004FF07041EFF3038001EB00604CF200319E
:104210008015C4F20001425822F4803242504058C6
:104220007047D4D4D4D4D4D42DE9F04F81B040F227
:104230004009012AC4F225094B4604BF41F240035C
:10424000C4F235031F88DD88B3F808E0B3F80AB07C
:1042500033F8106C33F80A4C33F808AC33F806CC5A
:10426000B7F5807F4FF0000303800B8002D201B0CE
:10427000BDE8F08F3E4041F240087304C4F23508B7
:104280001DD433B2B3F1FF3F21DDB6F5005F26D276
:10429000B6F5805F30D204EA0503F5059FB239D543
:1042A00017F0010336D0012A58EA098240F2FE33A2
:1042B000D380012202800A8001B0BDE8F08F012A7C
:1042C00058EA09816FF480420A80122110E0012A25
:1042D00058EA098147F6FF720A80112108E0012A95
:1042E00058EA09816FF4804202F500520A801321D6
:1042F000018001B0BDE8F08F012A58EA09826FF40D
:10430000804303F540531380142202800F8001B0D4
:10431000BDE8F08F0CEA0B035FEA465B9BB20AD55F
:1043200013F0010407D0012A58EA098240F2FE3353
:104330005381022210E00AEA0E045FEA865E1FFA49
:1043400084FC0FD51CF001040CD0012A58EA098224
:1043500040F2FE331381032202800120088001B065
:10436000BDE8F08FB6F5006F17D2002D35D4BBF144
:10437000000F3BD4BEF1000F7FF579AF012A58EA58
:10438000098240F2FF3323EA0C03138103220280E7
:10439000A1F800C001B0BDE8F08F044610460D46FC
:1043A0001646FEF795FC012E58EA098728806FF41F
:1043B000804000F56050388015202080288800F06B
:1043C000070006287FF453AF304600F05DFA002066
:1043D0002080288001B0BDE8F08F012A58EA0982C8
:1043E00040F2FF33BB43D38001228EE7012A58EA13
:1043F000098240F2FF379F435781022202800B80DF
:1044000001B0BDE8F08FD4D410B5044600F03CFAFA
:104410002046FEF7E1FC43F6F201C2F200210880DB
:104420002046FEF7E5FC43F6F401C2F200210880C5
:104430002046FEF7E9FC43F6F601C2F200210880AF
:104440002046FEF7EDFC43F6F801C2F20021088099
:1044500010BDD4D4D4D4D4D480B590F82400FEF7C1
:1044600037FC00F0700030285FEA1F9080BDD4D484
:10447000B0B543F2546143F6EC05C2F20021C2F23A
:1044800000250446FF200988288001290FD12046F5
:1044900000F0DAF92046FEF71BFC410408D4400680
:1044A00058BFB0BD204600F0AFF900202880B0BD55
:1044B000D52028802046BDE8B04000F0D5B9D4D43E
:1044C000B0B543F6F0050022C2F200252988A1F517
:1044D0008071B2EB912F18BFB0BD00210446FDF7EB
:1044E000CBFF69782046BDE8B040FDF7C5BFD4D406
:1044F00010B5044690F8240000F0B6F994F82400B2
:10450000BDE8104000F0A0B9034602220846194653
:10451000FEF766BED4D4D4D400210222FEF760BEDA
:104520002DE9F0411D4693F8243014460E4680468E
:104530005BB35FEA980708D054F8042B284631464D
:10454000FDF7C6FF013F3804F6D15FEA88700BD54E
:104550004FF4806228463146FEF79EF934F8022B6C
:1045600028463146FDF7E8FF5FEAC8700AD000220E
:1045700028463146FEF790F914F8012B28463146BB
:10458000FEF712F84FF400621BE05FEA580708D00C
:1045900034F8022B28463146FDF7CEFF013F3804A0
:1045A000F6D15FEAC87010D0002228463146FEF7E7
:1045B00073F914F8012B28463146FDF7F5FF4FF447
:1045C000806228463146FEF767F92046BDE8F08153
:1045D0002DE9F0411D4693F8243014460E468046DE
:1045E00013B35FEA980708D028463146FDF758FF15
:1045F000013F44F8040B3804F6D118F0030010D042
:104600000138012111FA80F728463146FDF748FFAD
:1046100047F001E000BF00BF04F8010B000A0FF0F3
:1046200005C82046BDE8F0815FEA580709D000BF01
:1046300028463146FDF764FF013F24F8020B380499
:10464000F6D15FEAC870ECD028463146FDF758FF36
:1046500004F8010B2046BDE8F081D4D4D4D4D4D4DE
:10466000F0B581B004460E46104621461546FDF7CA
:10467000DFFD28462146FEF787FA28462146FEF749
:10468000BFFA28462146FEF703FB28462146FDF7E0
:10469000C3FD00212846FDF7BFFF00F00F00A04238
:1046A00005D10021002200232846FDF785FD0121C8
:1046B0002846FDF7B1FF00F00F00A04209D100210C
:1046C000012200232846FDF777FD01212846FEF749
:1046D000A7F802212846FDF79FFF00F00F00A04237
:1046E00009D10021022200232846FDF765FD0221A1
:1046F0002846FEF795F82846214600F089FA284614
:104700002146FEF7E9FC43F28847C2F2002757F83A
:10471000240020B343F238410685C2F2002151F84B
:104720002410016128462146FEF7AAFC57F82420F0
:10473000014610465368518523B100210022984755
:1047400057F8240005F0A8F995F82400002147F84F
:104750002410214601B0BDE8F04000F09DBC01B03E
:10476000F0BDD4D4D4D4D4D410B543F22444C2F28E
:1047700000242188002908BF10BDFEF70DFE64202B
:10478000FFF7A2FC0020208010BDD4D4D4D4D4D410
:1047900010B543F22444C2F200242188002908BF46
:1047A00010BDFEF7F9FD6420FFF78EFC002020808D
:1047B00010BDD4D4D4D4D4D443F224410122C2F2C3
:1047C00000210A80FEF7F4BD002841F20000C4F287
:1047D000350004BF0020C4F22500018841F010011B
:1047E00001807047D4D4D4D4002841F20000C4F230
:1047F000350004BF0020C4F22500018821F010011B
:1048000001807047D4D4D4D4002841F20800C4F207
:10481000350004BF0820C4F22500018841F48071EE
:1048200001807047D4D4D4D4002841F23000C4F2BF
:10483000350004BF3020C4F22500018841F48041D6
:1048400001807047D4D4D4D4002841F23000C4F29F
:10485000350004BF3020C4F22500018821F48041D6
:1048600001807047D4D4D4D4002841F24000C4F26F
:1048700035004BF6FF7104BF4020C4F225000180D3
:104880007047D4D4D4D4D4D4002841F24000C4F228
:1048900035004FF6F77104BF4020C4F225000180B7
:1048A0007047D4D4D4D4D4D4002841F26000C4F2E8
:1048B000350004BF6020C4F22500018841F00401E6
:1048C00001807047D4D4D4D410B5002845D041F22B
:1048D0003E04C4F23504208840F031002080208856
:1048E0006FF3DF3020800120FFF7EEFB208820F0FF
:1048F000010020800120FFF7EBFB208820F0020060
:10490000208034F83E0C20F0200024F83E0C34F8CF
:104910003E0C40F0010024F83E0CB4F8C40040F412
:104920008040A4F8C40000BF34F8380CC007FBD0A6
:1049300040F6077024F83C0C208840F480702080FA
:104940004FF4006024F81E0C24F8160C24F8120C06
:1049500000206080A4F10E0017E00020C4F22500C2
:10496000018841F48061018001884905FCD50188F6
:1049700021F020010180018841F0010101804FF404
:10498000806101840185818530304FF41D410180B3
:1049900010BDD4D4D4D4D4D420B141F26000C4F238
:1049A000350002E06020C4F225000288002922F0D0
:1049B00003020280028814BF42F0020142F00101AA
:1049C00001807047D4D4D4D4007843F63433C2F293
:1049D000002333F81030022B08D143F6FA03C2F259
:1049E00000231B88012B03D1D5207047002070477E
:1049F00080B592B08DF8280043F6FC00C2F200208A
:104A00000123038001AB10461A4600F051FC002040
:104A100012B080BDD4D4D4D410B59AB0037843F684
:104A20003434C2F200248DF8243034F81330022BD1
:104A30001FD1002908BF002A09D043F6FA00C2F2AC
:104A400000200088012809D1D5201AB010BD0446E5
:104A5000808888B16846FFF75FFD11E043F6FC00EF
:104A60000123C2F2002003806B4610461A4600F074
:104A7000E3FB00201AB010BD6846002100F0D8F812
:104A8000D4E90301CDE91401207800248DF8440015
:104A90001394ADF8484093208DF8470006F030FE9F
:104AA000169011A9082000F0EBF820461AB010BDAE
:104AB00090F803C0BCF1090F01D90020704780B500
:104AC00092B043F22643039140F2E811C2F2002370
:104AD000C2F20021049213F81CE0037851F83C1054
:104AE0000291D0E90701CDE90F0101A88DF8283026
:104AF000ADF826E0059200F093FE12B080BDD4D44C
:104B000010B592B0C478092C02D9002012B010BDA3
:104B100043F2264390F800E0C2F2002303EB440383
:104B200093F801C043F62C33C2F2002313F80E3081
:104B300063450CD140F280230A78C2F200231A7236
:104B40000A2249785972194690F800E0C47840F278
:104B5000E8130391C2F20023059203EBC4038DF81E
:104B600028E0ADF826C059680291D0E90701CDE9E7
:104B70000F0101A800F054FE12B010BDD4D4D4D45B
:104B8000092988BF7047FEF71FB8D4D4D4D4D4D431
:104B9000092901D90020704780B5FEF771FA00F0AD
:104BA000030080BDD4D4D4D4092901D90020704792
:104BB00010B541B10446FEF7ABF92046FEF718FAEE
:104BC0006FF3DF2010BDFEF767F96FF3DF2010BD34
:104BD000092901D90020704710B50446FEF798F95D
:104BE0002046FEF7ADF900F0100010BDD4D4D4D4A7
:104BF000092901D90020704710B50446FEF788F94D
:104C00002046FEF79DF900F4404010BDD4D4D4D422
:104C1000092988BF7047B0B504460D46FEF77CFAF7
:104C200020462946BDE8B040FEF796BAD4D4D4D485
:104C3000092988BF70470122FEF7D2BAD4D4D4D450
:104C4000092988BF7047B0B504460D46FDF7F0FA54
:104C5000022220462946BDE8B040FEF7EDBAD4D482
:104C600080B5FDF7F1FB00F007004021013800227C
:104C7000032838BF01EB801290B280BDD4D4D4D4C5
:104C80002DE9F04143F2A05843F64433C2F2002824
:104C9000C2F200238871A0F1010CB8F80020BCF129
:104CA0000C0F02EBC20203EB820E0A467346F0CAF7
:104CB000F0C392E8F100F1C313D8DFE80CF007125B
:104CC000072B2B070735222207070700087843F632
:104CD0003831C2F2002151F8203000210022704604
:104CE0009847B8F800004CF6CD42013081B25143EC
:104CF000C90C01EB8101A0EB4100A8F80000BDE860
:104D0000F081087843F63832C2F20022496952F83D
:104D10002030E3E7087843F63431C2F2002131F85D
:104D200010100129D3D1DCE7087843F63432C2F2FF
:104D3000002232F81020012AD3D043F638334A8AB1
:104D4000C2F20023002A4FF0000253F820C0704640
:104D50000CBF00214969E047C3E7D4D4D4D4D4D4EC
:104D60002DE9F04F83B004460078012821D00A20B5
:104D700004210022042505F033F843F2B451002841
:104D8000C2F2002108605ED045F281304DF2C4517C
:104D900043F2D457C0F20020C0F200214FF4007259
:104DA0000023C2F20027CDE9005705F0F5FE0128E7
:104DB0004DD143F2D05BC2F2002B9BF801009BF86F
:104DC0000010C0B2084307D0A07801210BF80010F2
:104DD000002003B0BDE8F08F43F2D85943F20068D9
:104DE00000204FF0010AC2F20029C2F2002800EBB5
:104DF0008007052509EB87060A200421002204F01C
:104E0000EFFF3060D8B1013D06F10406F4D108EBA4
:104E1000C7060A2500BF00BF0A200421002204F0B3
:104E2000DFFF306058B1013D06F10406F4D15FEABE
:104E3000CA704FF001004FF0000AD8D1C4E7022039
:104E400003B0BDE8F08F012003B0BDE8F08F032070
:104E500003B0BDE8F08FD4D42DE9F04381B043F224
:104E6000D0540021C2F20024215443F63431C2F25E
:104E7000002131F8100001280DD043F2D450C2F2C5
:104E80000020006805F0F4FE43F2B450C2F20020A6
:104E9000006805F0C1FC60782178C0B208432BD1CE
:104EA00043F2D85843F2006900200125C2F20028DD
:104EB000C2F2002900BF00BF00EB8007052608EB07
:104EC000870400BF00BF00BF54F8040B05F0A4FC2A
:104ED000013EF9D109EBC7040A2600BF00BF00BF9D
:104EE00054F8040B05F098FC013EF9D1E8074FF0A7
:104EF00001004FF00005DFD1002001B0BDE8F083D4
:104F0000D1B110B50C460021002A216040F28C215D
:104F1000C2F2002151F82000214608BF40F6B83205
:104F2000006805F081FB012804D1206800281CBF1F
:104F3000002010BDFF2010BDFF207047D4D4D4D472
:104F400080B582B0019181B140F28C210022C2F281
:104F50000021002351F8200001A9006804F074FF2B
:104F6000013818BFFF2002B080BDFF2002B080BD15
:104F700080B582B0002901914FF0000100911DD051
:104F800040F28C216A46C2F20021002351F8200031
:104F900001A9006805F0F8F901280FD1009850B177
:104FA0004EF604504FF08051CEF200000160BFF386
:104FB0004F8FBFF36F8F002002B080BDFF2002B083
:104FC00080BDD4D4D4D4D4D4B0B582B090F8245019
:104FD0000C4604F061FDA4F10A0010F1090F01D2A2
:104FE00002B0B0BD05EB850043F20061C2F20021C2
:104FF000002201EBC00501A955F8240005F014FBBF
:105000000128EDD101980028EAD005EB840501AC18
:1050100004F042FD28680022214605F005FB012826
:10502000DED101980028F3D1DAE7D4D4D4D4D4D493
:10503000B0B582B090F824500C4604F02DFDA01FAE
:1050400010F1050F01D202B0B0BD05EB850043F2AF
:10505000D851C2F20021002201EB800501A955F8C8
:10506000240005F0E1FA0128EDD101980028EAD0EA
:1050700005EB840501AC00BF04F00EFD286800229A
:10508000214605F0D1FA0128DDD101980028F3D19D
:10509000D9E7D4D4D4D4D4D4A1F10A0212F1090F9F
:1050A00038BF704710B582B0044600EB800043F271
:1050B0000062C2F2002202EBC000002250F8210080
:1050C00001A905F0B1FA012817D10198A8B143F65A
:1050D000343040F28C21C2F20020C2F200210022C2
:1050E000002330F8140001284FF0140008BF0420FA
:1050F000085801A9006804F0A7FE02B0BDE81040FE
:105100007047D4D4D4D4D4D480B582B0A1F10A02EB
:10511000019012F1090F10D390F8240043F20062BD
:10512000C2F20022002300EB800002EBC00000224C
:1051300050F8210001A904F087FE02B080BDD4D44C
:10514000B0B58AB0044600F043F806212046FDF7CA
:1051500033F92A20FEF7BCFF2046FEF709F9054681
:1051600006212046FDF740F91620FEF7B1FFE805BD
:1051700007D443F250600021C2F2002001800AB03F
:10518000B0BD18212046FDF717F92A20FEF7A0FF31
:105190002046FEF7EDF8054618212046FDF724F9D4
:1051A00043F2506115F4007FC2F200214FF001007C
:1051B00050EA009094F82420088001A90B208DF873
:1051C0000420FFF75DFD0AB0B0BDD4D4D4D4D4D44C
:1051D00070B5044690F82400FDF7B2F8012120468E
:1051E000FDF7EAF80520FEF773FF002540F2572689
:1051F0000AE000BF00BF00BF0B350120FEF768FFCB
:10520000B54205F101050ED22046FDF705F98007EC
:10521000F3D10B20FEF75CFF2046FDF7FDF8800779
:10522000EAD1012500E0002501212046FDF7DCF848
:10523000284670BDD4D4D4D4B0B5144643F6FA028F
:10524000C2F200220123138043F2384243F260434A
:10525000C2F20022C2F20023106000221960002175
:1052600020232046FCF7A8FF00212046FDF738FC4C
:1052700000212046FDF778FD00200021224600F0A5
:105280007BFD0546022802D0012D04D05DB9002126
:105290002046FDF7D5FC00212046FFF771FC0021D8
:1052A0002046FFF7C5FC2846B0BDD4D4D4D4D4D40E
:1052B00010B5144643F6FA02C2F20022012313800D
:1052C00043F2384243F26043C2F20022C2F20023AA
:1052D000106000221960002100232046FCF76CFFBB
:1052E00000212046FDF7FCFB00212046FDF730FCA5
:1052F00000212046FFF744FC00212046BDE8104075
:10530000FFF796BCD4D4D4D4B0B5054643F6FA0022
:10531000C2F2002043F6FC020C46C2F20022002139
:10532000018020461180FDF7B3FC00212046FDF7E7
:105330002BFC00212046FDF763FC94F824004FF479
:10534000806200210128204608BF4FF40062FDF76B
:10535000A3FA25F00200052804D12046BDE8B0409C
:10536000FFF7DAB8082D05D100212046BDE8B0408E
:10537000FCF75EBF94F82400BDE8B040FFF794BA94
:1053800082B043F6A00843F6F20B43F6FE0543F65F
:10539000F80A01ACC2F200284FF00109C2F2002B5A
:1053A000C2F20025C2F2002A05204FF47A7221468B
:1053B000FFF7A6FD08B12FF009C8019E308CA0F2BE
:1053C00051100428F0D8DFE800F00A2B0403210074
:1053D000EAE7708C08213246FFF742F9E4E7708C67
:1053E00001381428E0D8318DDFE800F00C472C306C
:1053F0000B0B0B0B0B0B0B0B0B0B0B0B1E4B0B565F
:105400003900D1E7304600F04BFBCDE796F8240099
:10541000FFF7BEF9019890F82400FFF729F8C3E7D9
:10542000304600F09DF8BFE796F82400FCF788FFAF
:1054300096F8240001F058FA402838D1304601F09F
:10544000C3F9B1E7304600F05FFBADE730460F46E9
:10545000FEF7EAFB30463946FEF7EAFAA4E711F018
:10546000070730D001F00500012818BF052F34D1FF
:1054700096F82400FEF7C8FF2FE0304600F04CFB02
:1054800092E7D8F824301BB100210022304698471B
:105490003046FFF72DF887E7C1F3021009FA00F054
:1054A00010F0F00F07D0304601F0E2F97CE730460B
:1054B00001F09AF978E710F00D0F7FF475AF3046E0
:1054C00001F05EF970E743F25660C2F200200088F6
:1054D000012802D13046FEF7F3FFBBF8000010F0C0
:1054E000600F19D043F6F4012880C2F2002143F680
:1054F000F600C2F20020D8F82C30098869800088B4
:10550000BAF80010A880E9800BB92FF0B3C828467C
:1055100039463246984747E7DFE807F015190D117D
:10552000091D040407203146FFF7EEFE3CE7304634
:1055300001F0DAFE38E7304601F082FE34E730460B
:1055400001F092FC30E7304601F086FA2CE7304655
:1055500001F0CEFA28E7304601F08AFC24E7D4D4E3
:10556000B0B5448C0546FEF777FF01280CD143F215
:105570008840C2F2002050F8241061B1284621462C
:10558000FFF7C2FD0020B0BD8CB128462146FFF7D1
:105590001BFD0020B0BD40F8245028462146FFF7EF
:1055A00017FB50B1204600F067FB0020B0BD002182
:1055B0002846FFF73DFD0020B0BD204600F064FC0A
:1055C0000020B0BDD4D4D4D480B543F2526043F2AD
:1055D0005462C2F20020C2F200220021018043F294
:1055E00058601180C2F200204FF4FF7106F099FD5F
:1055F00080BDD4D4D4D4D4D480B543F25261C2F2A5
:105600000021088043F25860C2F200204FF4FF717D
:1056100006F087FD80BDD4D480B54FF0020E43F66E
:105620005600C2F20020203087FF5F0800BF00BF95
:1056300000ED901EA0EC881E0FF007C080BDD4D4F2
:1056400043F6A000C2F20020806800797047D4D4ED
:1056500080B543F6A001C2F200218B681A78B3F836
:1056600002E0964513D913444FF0000C06E000BF4A
:1056700019780A440B4492B272450AD25978042927
:10568000F6D19978884208BF93F803C0F0E74FF04D
:10569000000C1FFA8CF080BD2DE9F04743F6A00204
:1056A000C2F2002293681F785A88BA4298BFBDE8B8
:1056B000F08743F656083B444FF0000C4FF0200EA5
:1056C000C2F200284FF000094FF0000A3C4605E006
:1056D0001D787C19A7B22B44974227D25D78052DFF
:1056E0000AD0042DF4D19D78A84219D1DD78A942C1
:1056F00016D193F804C015E01FFA8CF41FFA8AF54E
:10570000A542E5D29C7809EB0A060AF1010AF6B235
:1057100004F00F050EEA9404444424F81560D7E71A
:105720001D79A9441D782C44E4B2D3E7BDE8F08785
:1057300043F25260C2F20020008840B143F6A0005C
:10574000C2F200208068C079C0F34010704700208A
:105750007047D4D4D4D4D4D443F6A000C2F20020ED
:105760008068C079C0F380107047D4D4D4D4D4D426
:10577000B0B5092888BFB0BD0446154600F014FC3A
:10578000032805D8DFE800F002120A0B03210EE01F
:10579000FF2801D1152103E0072101E0B0BD05215B
:1057A00020462A46BDE8B040FEF75ABF04212046F5
:1057B0002A46BDE8B04000F073BCD4D4D4D4D4D4CD
:1057C00070B5092888BF70BD044610460E462146B4
:1057D0001546FDF7D9F9204631462A4600F0CCFAA5
:1057E000022808D3FF2810D0022810D128462146CD
:1057F000FDF7AEF903E028462146FDF721FA2846D9
:105800002146BDE87040FFF7BBB9152100E0072134
:1058100020462A46BDE87040FEF722BFD4D4D4D437
:10582000B0B50546408CD8B1002028604FF4A9706F
:105830002884442003F0FCFF90B14422294604460A
:1058400006F074FC05F05CFFE06105202146FFF7DF
:1058500077FB38B10546204604F01EF92846B0BD56
:10586000FF20B0BD0020B0BD43F6A00045F6A10268
:10587000C2F200200021C0F20022C0E90011C0E9FC
:105880000211C0E9041245F6A901C0F20021C0E9E5
:105890000622C0E90822C0E90A217047D4D4D4D432
:1058A0007047D4D4D4D4D4D47047D4D4D4D4D4D49A
:1058B000F0B5486843F6A004C2F2002445F6291565
:1058C000D0E900C2C0F20025002AD0F810E0D0E9EB
:1058D000023153EA0282C4E900C104F1080145F62D
:1058E000F91645F6292781E80C4004F11401C0F2AD
:1058F0000026C0F2002704F1200CE0C145F6592132
:10590000007DC0F2002145F6712245F6992347F249
:105910008937C0F20022C0F20023C0F2002784F8C9
:1059200030008CE88E00F0BD2DE9F04393B043F6D3
:10593000EE020D46C2F200228046D0E90E01CDE90A
:1059400008011388012B09D198F824100020108039
:105950008DF828100AA90620FFF792F9C02D0DD165
:1059600043F6A001C2F20021D1E90226304612B16D
:1059700007205070C86870B102210BE043F6A00008
:10598000C2F200208668002E1CBF02217170C06820
:1059900008B1072141705EB198F82400778800F0C3
:1059A0004FFE3478A7421BD94FF000090FE000BF2B
:1059B000FEE700BF00BF00BF5FFA89F228464146FC
:1059C00000F052FD2878204484B2BC4208D2351938
:1059D00068780528F0D00428F4D195F80590F1E70F
:1059E00098F8240001A98DF804000120FFF748F978
:1059F00013B0BDE8F083D4D480B58AB043F6EE018D
:105A00000122C2F200210A8090F824108DF80410BF
:105A1000D0E90E10CDE9081001A90320FFF730F9F5
:105A20000AB080BDD4D4D4D443F6EE01C2F2002132
:105A30000A88012A18BF704780B58AB090F8240000
:105A400000220A808DF8040001A90620FFF718F94A
:105A50000AB0BDE88040704780B58AB090F8240055
:105A600001A98DF804000420FFF70AF90AB080BDEF
:105A700080B58AB090F824108DF80410D0E90E217A
:105A8000CDE90821C069069001A90520FFF7F8F8C3
:105A90000AB080BDD4D4D4D47047D4D4D4D4D4D410
:105AA00010B5CA07044604D12046BDE8104000F0F6
:105AB0007BBB00200021224600F076FA022806DC9B
:105AC0000CD200212046BDE81040FDF75DB8032848
