:020000040200F8
:1000000000040022D1240002A1230002E124000206
:10001000E1240002E1240002E1240002E1240002C4
:10002000000000000000000000000000E1240002C9
:10003000E124000200000000E1240002E1240002AB
:0800400019120002191200025E
:100050002DE9F04381B040F22C461546C2F200264D
:10006000884607463378532B36D0A821304602F015
:10007000E7FB03203061706142F6A66040F2D44194
:10008000C0F20020B061C2F20021F1614FF4806142
:1000900031620021B1627162F16240F6D4023066D1
:1000A0004FF0100E42F6CE10C2F200227266C6F871
:1000B00068E03167F1667167BFF35F8FC0F20020BF
:1000C0000F30314600BF00BF10F8012901F8012BA5
:1000D0000FF007C0BFF35F8F07EB470006EBC000D0
:1000E00000F16009C76E046FBC4213D9D9E9010160
:1000F000091BA94251EA358601194046324602F0F1
:10010000A3FB3019D9F80810411AB04450EA118401
:10011000AD1B00E00026381BA84250EA358545B1EA
:10012000D9F804002A460119404602F08DFB2E44FE
:100130002C44002E304618BFC9F8104001B0BDE86D
:10014000F083D4D4D4D4D4D410B50B46EFF31184B7
:100150004FF0200181F311881946FFF779FF84F3EE
:10016000118810BDD4D4D4D42DE9F04381B000EB74
:10017000400040F22C43C2F20023154603EBC003BB
:10018000894603F11808D86A022819D001280CD032
:1001900048B9D8F80C40D8F81000E143A04267D91C
:1001A0000844A8426AD2002689E0D8F80C40D8F862
:1001B0001010A14233D9E0430144D8F8080033E0DD
:1001C000D8F80C40002621E0D8F808101044084464
:1001D000091B884250EA31804946A84250EA3587D7
:1001E000D8F8040020443A4602F02EFB3819D8F81B
:1001F0000810411AA5EB070550EA11843E44B944A2
:10020000002DBFF35F8FC8F80C4058D0D8F810000D
:10021000E243A042D8D91044D8F80810D8E7E24306
:10022000D8F8080011440144A94251EA3586051B5B
:10023000D8F804002044AE4209D24946324602F0C2
:1002400003FBBFF35F8F3019C8F80C0037E0494655
:100250002A4602F0F9FA771BD8F8040009EB0501E9
:100260003A4602F0F1FABFF35F8FC8F80C7026E04F
:10027000D8F8082008441044A84294D3D8E90101D2
:100280000E1B2044B54209D249462A4602F0DCFA48
:10029000BFF35F8F6019C8F80C000FE04946324683
:1002A00002F0D2FAAF1BD8F8040009EB06013A4677
:1002B00002F0CAFABFF35F8FC8F80C702E463046C2
:1002C00001B0BDE8F083D4D4F0B581B040F22C4544
:1002D0000C46C2F200252B78532B37D00646A821B6
:1002E0002846174602F0ACFA03202861686142F6FE
:1002F000A66040F2D441C0F20020A861C2F2002101
:10030000E9614FF4806129620021A9626962E962B2
:1003100040F6D40228664FF0100E42F6CE10C2F21C
:1003200000226A66C5F868E02967E9666967BFF375
:100330005F8FC0F200200F3010F8011905F8011B83
:100340000FF007C03A463046BFF35F8FEFF31185D9
:100350004FF0200181F311882146FFF705FF85F357
:10036000118801B0F0BDD4D410B540F22C44C2F2D3
:1003700000242078532837D0A821204602F060FAC4
:1003800003202061606142F6A66040F2D441C0F2D1
:100390000020A061C2F20021E1614FF4806121627E
:1003A0000021A1626162E16240F6D40220664FF052
:1003B000100E42F6CE10C2F200226266C4F868E067
:1003C0002167E1666167BFF35F8FC0F200200F30E5
:1003D000214600BF00BF00BF10F8012901F8012B22
:1003E0000FF007C0BFF35F8FE06E216F81425FEABD
:1003F0000F9010BDD4D4D4D400EB400040F22C4177
:10040000C2F2002101EBC000416A806A081A7047FD
:100410002DE9F04F9BB092460F464FF00009049033
:100420001A900DF1580B002006A916914021179142
:10043000CDE918990EE0011DCAF800100168CDE958
:1004400000385846234600F01BFA1998B0F1FF3FD8
:1004500040F3128217F8011B25291DD0002900F056
:10046000FB81DDE91720431C934207D8169A1154EB
:1004700018931998179A0130199018469042E4D1B0
:1004800016991A98FFF720FF1899884240F0DF81EB
:10049000CDF86090D9E700BF4FF000083978A1F19E
:1004A00023030D2B18D80222DFE803F00E161616D0
:1004B0001616161610161216160748EA0208013705
:1004C000ECE700BF00BF00BF0822F6E70422F4E714
:1004D0000122F2E700BF00BFA1F13A02002312F1AE
:1004E0000A0F0FD30A4600BF17F8011F03EB83035F
:1004F000A1F13A0602EB430216F10B0FA2F1300311
:100500000A46F1D82E290FD13A4612F8016F2A2E49
:100510000DD1DAF8001002370A1DCAF800200C6865
:1005200001211DE000BF00BF0021002418E0A6F15A
:100530003A0717F10A0F02D2002100240FE000242D
:1005400012F8011F04EB8407A1F13A0506EB4707F7
:1005500015F10B0FA7F130040E46F1D80121174613
:1005600017F8012B02F0FB06682EF9D0A2F158060D
:10057000202E26D8DFE806F01211111111111111E9
:10058000111111163C11111111111111111111112B
:100590006C11117911381111120056E7DAF80000C8
:1005A000102248E7DDE91720411CDAF800309142BB
:1005B00003F10406CAF800603FF660AF169A1B68A4
:1005C0000AE0252A7FF441AFDDE91720411C914262
:1005D0003FF654AF169A2523135418911998179A79
:1005E00001301990084649E7DAF800000A2222E7AC
:1005F000DAF800104CF6CD4C0A1DCAF800200A6843
:1006000005925142002A48BF0A460A2ACCF6CC4C31
:1006100003914FF0010107DBA2FB0C56632A01F1A5
:1006200001014FEAD602F7D88C4254EA81895E462E
:10063000002B58D0059908F0040200295FEA5F9169
:1006400041EA9201A3EB010B5FEA887550D473E095
:10065000DAF800001022011DCAF800100168082312
:100660000820CDE900095846EDE6DAF80020131D10
:10067000CAF80030126842F62D53002AC0F2002357
:1006800052EA13865FEA01880BE000BF00BF00BF9B
:100690001998CDF86090B0F1FF3FA4F101047FF705
:1006A000D4AE16F8011B002C5FEA188200293FF433
:1006B000CCAE002A7FF4C9AEDDE917235D1C95425C
:1006C00007D81698C1542B461998179A01301895D7
:1006D00019909342DFD116991A98FFF7F5FD1899F2
:1006E0008842D5D0B3E04FF0000B5FEA887523D580
:1006F00014BB002800F1A7800598B0F1FF3F47DD4B
:100700005FEA487064D5DDE91720411C914208D8A2
:10071000169A2B23135418911998179A013019908F
:100720000846904254D116991A98FFF7CDFD1899B2
:100730008842059944D08AE05FEAC871D9D1BBF1FB
:10074000000FD6D0029502E00028AB467BD4ABF177
:1007500001055D4538BFD94536D2DDE917214B1C6F
:10076000934208D816982022425419461998179A8D
:100770000130189319909142E6D116991A98FFF713
:10078000A3FD1899884262D1002018901998DBE7E0
:10079000DDE91720411C914208D8169A2D231354E5
:1007A00018911998179A01301990084690420DD166
:1007B00016991A98FFF788FD18998842039946D12F
:1007C00000201890059103E0029D92E703980590A0
:1007D0001998002850D4002D0BD40A2230460599D0
:1007E0002346CDE900B8B34600F04AF84FF00009BF
:1007F0002BE608F001012143EFD1BBF1000FECD053
:10080000ABF101055D4538BFD945E6D2DDE91721D9
:100810004B1C934208D81698302242541946199816
:10082000179A013018931990914209D116991A9884
:10083000FFF74AFD1899884209D1002018901998AD
:100840000028AB46DCD54FF00009B346FDE54FF07C
:10085000FF301BB0BDE8F08F40B1189A52B106A925
:100860000498FFF731FDDDE9181004E000201BB00B
:10087000BDE8F08F002108441BB0BDE8F08FD4D450
:100880002DE9F04F81B015468B4691421F46044634
:10089000DDF828904FF0010007D3594600BF00BF94
:1008A000B1FBF5F10130A942FAD2874257EA8088BC
:1008B000B9F1000F0B9938D011F0010035D188073C
:1008C0004FF0200048BF30202021002F50EA018641
:1008D0004FF0000A06E000BFE068A9F10109B0F19D
:1008E000FF3F22DDB9F1000F1FD0C8451DD2D4E96A
:1008F0000120411C914207D822681654A160E0688B
:1009000062680130E06008469042E5D121682069C4
:10091000FFF7DAFCA168884202D1C4F808A0DBE73F
:100920004FF0FF30E060A9F10109E068002842D4EF
:10093000012603E000BF00BF013F6E43022FFBD240
:10094000BBFBF6F1A942F8D243F24447A268C0F2D9
:10095000002700BF00BF00BF6168531CBBFBF6FA55
:100960008B4209D8206817F80A1081541A46E068AB
:1009700061680130A360E0608A4209D12168206982
:10098000FFF7A2FCA26890420CD10022E068A260AE
:1009900000280AD4B6FBF5F10AFB16BBB5420E4699
:1009A000DAD902E04FF0FF30E0600B99C90718BFB9
:1009B000B9F1000F02D101B0BDE8F08F2025A9F1F7
:1009C00001064E4538BFC845F5D26168531C8B42BD
:1009D00007D8206885541A46E06861680130A36032
:1009E000E0608A4209D121682069FFF76DFCA168A7
:1009F000884207D10022E068A260B0F1FF3FB14613
:100A0000DDDCD8E74FF0FF30E06001B0BDE8F08FEB
:100A100082B080B582B0CDE9042304AA019201AA74
:100A2000FFF7F6FC02B0BDE8804002B07047D4D4B6
:100A300084B040F6E400C2F20020017800294FF0B3
:100A40000001039108D0017042F6AF61C0F20021AD
:100A50000020FFF7DDFF2DE003A801F055FC9DF815
:100A60000F3042F6DF1142F6D9329DF80D609DF845
:100A70000E50C0F20021C0F200220020CDE9005645
:100A8000FFF7C6FF00BF00BF0020FFF7B5FC08B1AD
:100A90002FF007C043F229110020C0F20021FFF718
:100AA000B7FF00BF00BF00BF0020FFF7A5FC08B1E3
:100AB0002FF007C000F06CF843F2460442F68E6255
:100AC000C0F20024C0F20022214600F069FA00F0D2
:100AD000A3F843F2E3022146C0F2002200F060FADC
:100AE00043F2790542F6E946C0F20025C0F200263D
:100AF00000F022F921462A4600F052FA00F0B0F93F
:100B00002146324600F04CFAF2E7D4D4D4D4D4D4FF
:100B1000022818BF704710B54EF64024C4F20104F5
:100B200094F90000B0F1FF3F0CDC40F6E400012135
:100B3000C2F200200170002000F04AFC207800F092
:100B40007F00207040F6E80043F6D811C2F2002082
:100B5000C0F20021BDE8104000F012BDD4D4D4D4BE
:100B60000079002818BF704740F6E5000121C2F265
:100B7000002001707047D4D40079002818BF704756
:100B800040F6E6000121C2F2002001707047D4D483
:100B900010B540F6F00043F27041C2F20020C0F2FE
:100BA000002100F081FB28B143F2CE330446C0F2AD
:100BB000002320E040F6141043F2D841C2F2002096
:100BC000C0F2002100F010FA28B142F600430446BA
:100BD000C0F200230FE040F6F80043F2B041C2F249
:100BE0000020C0F2002100F0FFF988B143F2473342
:100BF0000446C0F2002342F6726142F68842C0F217
:100C00000021C0F200220020FFF702FF204610BDA5
:100C1000002010BDD4D4D4D42DE9F04188B042F6E0
:100C2000DA580020C0F20028002741460797CDE996
:100C30000577CDE90377CDE90177FFF7E9FE42F6C5
:100C4000655604ADC0F20026FFF78EFB08B92FF001
:100C500005C8002010222946CDE90677CDE90477A2
:100C6000FFF772FA9DF81040A4F13100C0B20328DA
:100C700008D300203146FFF7CBFE00204146FFF7A6
:100C8000C7FEE1E743F26441C0F2002151F82010B1
:100C90000020FFF7BDFE40F6141001A9C2F20020AB
:100CA00000F06AFA28B142F697430546C0F20023E5
:100CB0002FE0A4F13000C4B2029800FB04F140F62A
:100CC0001410C2F2002000F047FA28B142F6345363
:100CD0000546C0F200231CE040F6F80001A9C2F26C
:100CE000002000F049FA28B143F29F330546C0F2D4
:100CF00000230EE0029800FB04F140F6F800C2F277
:100D0000002000F029FA98B143F2E6330546C0F21C
:100D1000002342F6726142F68652C0F20021C0F210
:100D200000220020FFF774FE284608B0BDE8F081DD
:100D30000025F9E7D4D4D4D42DE9F04F81B040F6A2
:100D4000F8000027C2F200208DF8037000F0E4F9EB
:100D500068B142F6726142F69F7243F2174304464D
:100D6000C0F20021C0F20022C0F2002365E042F68A
:100D70000A510020C0F20021FFF74AFE40F6E604C7
:100D800043F2544B42F6965A43F6604840F6E80563
:100D9000C2F20024C0F2002BC0F2002AC0F20028E8
:100DA000C2F200254FF0000905E000BF00BF00BF00
:100DB000B9F1030F2DD220780128F9D109F10109E9
:100DC0002770002051465BF829603246FFF720FE6D
:100DD000B8F800000028EBD0D8F804000DF10302A9
:100DE0000188284600F0D8FBD8F804009DF80320BD
:100DF000018882F0010228468DF8032000F0E0FB14
:100E000042F6DD310020C0F200213246FFF700FE3D
:100E1000CEE740F6F800C2F2002000F08DF998B15C
:100E200042F6726142F69F7243F273330446C0F297
:100E30000021C0F20022C0F200230020FFF7E8FDED
:100E4000204601B0BDE8F08F42F6C6410020C0F256
:100E500000210024FFF7DCFDF2E7D4D4D4D4D4D4AD
:100E600010B540F61410C2F2002000F055F928B178
:100E700043F2B6030446C0F2002324E042F6B63142
:100E80000020C0F20021FFF7C3FD42F651410020CF
:100E9000C0F20021FFF7BCFD0020FFF7ADFA08B15A
:100EA0002FF007C001204FF47A7101F035FA40F6B7
:100EB000F000C2F2002000F00FFA88B142F62C4395
:100EC0000446C0F2002342F6726143F29A02C0F275
:100ED0000021C0F200220020FFF79AFD204610BD3D
:100EE000002010BDD4D4D4D480B540F61410C2F282
:100EF00000200068A8B140F61410C2F2002000F0F3
:100F000057F970B142F6726142F6774243F2FC0340
:100F1000C0F20021C0F20022C0F200230020FFF73F
:100F200077FD40F6F800C2F200200068A8B140F654
:100F3000F800C2F2002000F03BF970B142F6726195
:100F400042F6774243F21903C0F20021C0F20022B8
:100F5000C0F200230020FFF75BFD40F6F000C2F274
:100F600000200068002808BF80BD40F6F000C2F2F3
:100F7000002000F0A9F980B142F6726142F6774292
:100F800042F6B773C0F20021C0F20022C0F2002383
:100F90000020BDE88040FFF73BBD80BDD4D4D4D451
:100FA000002808BF704770B5044615460E46FFF787
:100FB0009BFF42F672610020C0F2002132462B46B0
:100FC000FFF726FD42F6BA510020C0F2002122466A
:100FD000FFF71EFD00BE70BD80B5FFF729FD0020A4
:100FE00080BDD4D4D4D4D4D470B50D46097C0022AD
:100FF0000446C4F2220242EA0120C4E90150012061
:10100000EFF3108680F31088297CC1F10901884034
:1010100043F21001C4F220010A6822EA00000860CD
:1010200008681E20012101F077F986F3108800215D
:10103000A0680173A06800BF017B8907FCD44FF052
:10104000000C80F80EC0EA6995F800E010780228DC
:1010500002D10220002304E02B7A00F0200003F0EC
:101060000703A6689178D278BEF1010F70735FEA2A
:101070001F96A06802F0C002837301F03000A168DF
:1010800030441044C873A06880F810C0A06880F88D
:1010900011C0A06880F812C0A0686968E1600139D9
:1010A000016095F91200002828D44EF20012697CE4
:1010B000CEF2000201268318090183F8001340F6DE
:1010C0008C11C2F2002141F820404CF20031C4F2F0
:1010D000000151F8203023F4803341F8203051F8DA
:1010E0002010410900F01F00BFF35F8F02EB810366
:1010F00006FA00F0C3F8800142F82100D5E90501A5
:101100000022C4E9040245F254020020C5F24C5208
:10111000A161226070BDD4D48168087B00BF00BF8C
:101120000A7B80EA5202D207FAD10020E1220A7338
:101130007047D4D4D4D4D4D48168087B00BF00BF16
:101140000A7B80EA5202D207FAD10020E0220A7319
:101150007047D4D4D4D4D4D4D0F808C09CF80C3080
:101160009CF80C2083EA5202D207F9D1C16000201A
:101170000139CCF800107047D0F808C09CF80C304A
:101180009CF80C2083EA5202D207F9D1C06888602B
:101190009CF80D009CF80E004FF4004200F0070090
:1011A00022FA00F04860002000220A707047D4D470
:1011B00080B501468068027B037B82EA5303DB072C
:1011C000FAD1E4220273886800220274486890F918
:1011D000120010F121031BD0002812D44EF2801E01
:1011E00000F01F034009CEF2000E4FF0010C0CFA84
:1011F00003F34EF82030BFF34F8FBFF36F8F486873
:10120000807C40F68C1340B2C2F2002343F82010D9
:1012100000200A6080BDD4D4B0B584B04FF07041D6
:10122000EFF3038001EB00604CF200318015C4F253
:101230000001425822F48032425040F68C1241584C
:10124000C2F200221458A068037B21695AB209B384
:10125000606970B1D0E900CE85680395CDE901CE13
:101260009D0609D45B0609D4B2F1FF3F08DC0222D7
:1012700005E001A89D06F5D5002200E001220271DB
:10128000A26902608847606910B101AB0ECB0EC045
:10129000A068027BC17B01F0010181F01F011140B8
:1012A000017304B0B0BDD4D410B504464160084603
:1012B00000F0A2F8002818BF10BD45F24D01C5F29C
:1012C0004C21216010BDD4D40146002000220A60C8
:1012D0007047D4D4D4D4D4D42DE9F04381B004469B
:1012E0004EF690264EF240090120C4F20106C4F2E7
:1012F000010901F0C5F83078052832D399F860006B
:101300003778002500F00308002001F0B9F8082F15
:101310001DD316F8580C00F0FE0006F8580C16F80D
:10132000780C06F8785C16F8740C06F8745C16F8FD
:10133000700C06F8705C16F86C0C06F86C5C96F88D
:10134000B80086F8B85096F8BC0086F8BC5099F8FA
:10135000000099F80010C70901F07F0089F800002B
:1013600002E000274FF0000860684EF61055CEF2FC
:101370000005007818B1286840F0040028600020BB
:1013800001F07EF800F06CFABFF34F8F30BF00F031
:10139000EBFA002001F048F86068007818B128687E
:1013A00020F0040028603078052809D389F860808F
:1013B00099F80000384389F80000002001F034F863
:1013C000012001F031F8002001B0BDE8F083D4D451
:1013D00080B5012001F054F84EF60020C4F201005F
:1013E000017801F0BF010170012001F01DF800201B
:1013F00080BDD4D4D4D4D4D470B54EF604350446CC
:10140000C4F201054EF20C06C4F20106287894F8E5
:101410002E10C0F3400088420DD1287994F82F1087
:10142000C0F34000884206D1287A94F83010C0F307
:101430004000884205D096F8940080071CBF052024
:1014400070BD012001F01CF8217889B3042931D145
:10145000207E617E05F8FC0C05F8F81CA07E402378
:1014600005F8F40CE07E05F8F00C207F85F83C00D0
:10147000607F85F8400094F8200094F8211005F86A
:10148000DC0C05F8D81C94F8220005F8D40C94F86C
:10149000230005F8D00C94F8240085F84C00A07CBB
:1014A00094F82820217803EA801040EA820002E0C4
:1014B00008464AE0002001390A0606D0627CC9B21B
:1014C00001294FEA821101D937E0002194F82C203C
:1014D00086F836212278022A2FD1628DA6F834218F
:1014E0002B7894F82E20C3F34003934207D02B7837
:1014F00002F0010203F0FD0343EA42022A702B7955
:1015000094F82F20C3F34003934207D02B7902F0C5
:10151000010203F0FD0343EA42022A712B7A94F898
:101520003020C3F34003934207D02B7A02F001022C
:1015300003F0FD0343EA42022A724CF2A012A368B0
:10154000C4F200021360E36853603170217804290B
:1015500003D0022905D1052104E0E17C41F0080116
:1015600000E000214FF6FC6205F8741CCFF6FF7214
:10157000A854012000F058FF002070BDD4D4D4D46A
:1015800080B545F25422C5F24F020260084600F0D1
:1015900033F8002080BDD4D46FF03F00CBB200EA16
:1015A000910040F6000100EB8300C4F24001415875
:1015B0000020C1F3400111707047D4D4D4D4D4D4E6
:1015C00010B5CBB2012098406FF0010E84B20EEA44
:1015D000D110002A40F208024FF4803C4FEA00117B
:1015E000C4F240024FF0000008BF0CFA03F454505C
:1015F00010BDD4D4D4D4D4D470B5044600F064F86B
:1016000040F6881CEFF31081C2F2002C012080F319
:101610001088DCF8000038B940F614500022C4F2FB
:101620004000027040220270DCF800000130CCF86B
:10163000000081F31088208830B340F6000E0021AE
:10164000C4F2400E08E000BF0EEB8010013140F8FC
:1016500022302088814217D2606800EBC10250F826
:1016600031309288D8034FEA1220D2B2ECD50EEB7B
:10167000801555F8226026F4803645F8226023F460
:10168000803645F82260DFE70120EFF3108180F318
:101690001088DCF8000020B1DCF800000138CCF83C
:1016A0000000DCF8000010B181F3108870BD40F636
:1016B00014500022C4F2400002708022027081F3B4
:1016C000108870BDD4D4D4D42DE9F04F81B0044635
:1016D0000088002867D04EF64C4B0025C4F2010B61
:1016E0004FF0010A04E000BF2088013585425AD23C
:1016F00043F6E81642F240080027C0F20026C4F282
:1017000020080CE000BF00BF88F80000C8200121BD
:1017100000F002FE013708F10208032FE4D06068F0
:1017200036F8021B00EBC50082888A42F2D10068BD
:101730009BF8001000F0B8500AFA07F9B0F1807F6A
:1017400009EA010018D158B9012000F099FE9BF870
:10175000000040EA09008BF80000012000F064FE60
:1017600098F900000028D5D498F8000040F08000D7
:10177000CAE700BF00BF00BF58B1012000F080FEE3
:101780009BF8000020EA09008BF80000012000F01F
:101790004BFE98F90000B0F1FF3FBBDC98F8000069
:1017A00000F07F00B0E701B0BDE8F08FD4D4D4D40E
:1017B0004EF22401C4F201018878098801F00F0279
:1017C000A2F1080103293BD8DFE801F0022C101E2A
:1017D00040F20041C2F2002151F820004AF6AB214C
:1017E000CAF6AA21A0FB0101480830E040F20041FE
:1017F000C2F2002151F820004AF6AB21CAF6AA2114
:10180000A0FB0101C80822E040F20041C2F2002121
:1018100051F820004AF6AB21CAF6AA21A0FB01012B
:10182000080914E040F20041C2F2002151F8200002
:101830004AF6AB21CAF6AA21A0FB0101880806E0FE
:1018400040F20041C2F2002151F82000D04040F6A1
:10185000A011C2F2002108607047D4D4D4D4D4D4EB
:1018600010B51E20012100F057FD40F6A01C46F2E5
:101870000151C2F2002CC1F6CD51DCF800408C427F
:1018800067D34EF2240240F63013C4F20102C2F2D2
:1018900000231188198052F8041CC1F30363090E58
:1018A00043EA0310000140EA0130184410809178A7
:1018B000108800F00F03A3F10802032A3BD8DFE8E9
:1018C00002F0022C101E40F20040C2F2002050F83C
:1018D00021004AF6AB21CAF6AA21A0FB0101490862
:1018E00031E040F20040C2F2002050F821004AF6F8
:1018F000AB21CAF6AA21A0FB0101C90823E040F2EE
:101900000040C2F2002050F821004AF6AB21CAF68E
:10191000AA21A0FB0101090915E040F20040C2F232
:10192000002050F821004AF6AB21CAF6AA21A0FBFC
:101930000101890807E040F20040C2F2002050F89F
:10194000210020FA03F1CCF800101E20012100F044
:10195000E3FC46F20050C1F6CD5084425FEA9F900E
:1019600010BDD4D4D4D4D4D410B504461E20012143
:1019700000F0D2FC002C08BF10BD40F630104EF233
:101980002401C2F20020C4F2010100880880887896
:10199000098801F00F02A2F1080103293BD8DFE812
:1019A00001F0022C101E40F20041C2F2002151F859
:1019B00020004AF6AB21CAF6AA21A0FB01014A0881
:1019C00031E040F20041C2F2002151F820004AF615
:1019D000AB21CAF6AA21A0FB0101CA0823E040F20C
:1019E0000041C2F2002151F820004AF6AB21CAF6AC
:1019F000AA21A0FB01010A0915E040F20041C2F250
:101A0000002151F820004AF6AB21CAF6AA21A0FB1A
:101A100001018A0807E040F20041C2F2002151F8BA
:101A2000200020FA02F240F6A0131E20C2F200238A
:101A300001211A60BDE8104000F06EBCD4D4D4D4AB
:101A40002DE9F04782B00FF298604EF2FA3840F27A
:101A50000046C4F201084AF2015190ED001FC2F2A3
:101A600000260FF28C60CFF6FF714EF25505023161
:101A7000A8F8001086ED001F06F12003C4F201054E
:101A800090ED001F48F2004040F60001C1F2D7700F
:101A900043F6000286ED041FC2F6AF71C1F69C4208
:101AA00007C315F82F0C35F8311C01F00F02A2F115
:101AB000080103292BD8DFE801F002200C164AF6B2
:101AC000AB2156F82000CAF6AA21A0FB0101480864
:101AD00020E04AF6AB2156F82000CAF6AA21A0FB66
:101AE0000101C80816E04AF6AB2156F82000CAF6F4
:101AF000AA21A0FB010108090CE04AF6AB2156F827
:101B00002000CAF6AA21A0FB0101880802E056F8CD
:101B10002000D04040F6A01A4EF60044C2F2002A3F
:101B2000C4F201040A214EF60147CAF800004FF63C
:101B30005060CFF6FF70C4F201072154092085F8E8
:101B40004D00207818B93878800700F0C0822078DE
:101B500048B901202070C820012100F0DDFB00BF42
:101B600020780128FCD10020387020704AF20159F9
:101B7000002005F81F0C05F8230C00BF00BF00BFB4
:101B800015F8190C0007FBD542F602314EF6145039
:101B9000C0F20101C5F8731040F2234125F8071C7B
:101BA000002205F80B2C4FF60211C5F8571040F231
:101BB000514125F8091CCEF200004EF20001BFF39E
:101BC0004F8FBFF36F8F0368CEF2010123F4003310
:101BD0000360C0F83C22BFF34F8FBFF36F8F0A68DA
:101BE00022F440520A60BFF34F8FBFF36F8F15F896
:101BF000412C02F0F802013205F8412C00BF00BF71
:101C000015F8412CD206FBD40A6842F440520A600F
:101C1000BFF34F8FBFF36F8F0168890312D4BFF3F7
:101C20004F8FBFF36F8F0021C0F83C12BFF34F8F6F
:101C3000BFF36F8F016841F400310160BFF34F8F34
:101C4000BFF36F8F002005F82B0C00BF00BF00BF53
:101C500015F8190C8006FBD54CF200040020C4F2E4
:101C6000130420702078207820786068FA2807D044
:101C7000FA20C1F6006000BF60606168FA29FBD1FC
:101C8000A0687D2808D07D20CEF2001000BF00BFE4
:101C9000A060A1687D29FBD143F23240C3F223202A
:101CA00045F8350C42F2201025F8310C052005F8D6
:101CB0002F0C15F82F0C35F8311C01F00F02A2F192
:101CC000080103292BD8DFE801F002200C164AF6A0
:101CD000AB2156F82000CAF6AA21A0FB0101480852
:101CE00020E04AF6AB2156F82000CAF6AA21A0FB54
:101CF0000101C80816E04AF6AB2156F82000CAF6E2
:101D0000AA21A0FB010108090CE04AF6AB2156F814
:101D10002000CAF6AA21A0FB0101880802E056F8BB
:101D20002000D040CAF800001E200121012700F049
:101D3000F3FA60686FF39F20652828BF277015F8B5
:101D40002F0C35F8311C01F00F02A2F10801032914
:101D50002BD8DFE801F002200C164AF6AB2156F82A
:101D60002000CAF6AA21A0FB0101480820E04AF69B
:101D7000AB2156F82000CAF6AA21A0FB0101C80831
:101D800016E04AF6AB2156F82000CAF6AA21A0FBBD
:101D9000010108090CE04AF6AB2156F82000CAF60A
:101DA000AA21A0FB0101880802E056F82000D040DB
:101DB00042F20001CAF80000C4F200010120A1F8BB
:101DC0000090BFF35F8F08724FF42540BFF35F8F21
:101DD000088095F8850040F0400085F8850000BF38
:101DE00095F98500B0F1FF3FFADC032085F87F000C
:101DF000C92085F8850095F8850000F0BF0085F8BA
:101E0000850000BF00BF00BF95F985000028FBD406
:101E1000012005F8250C05F8030C05F8020C00203C
:101E200005F8170C802005F8170CE87F40F04000FB
:101E3000E87700BF00BF00BF95F91F00B0F1FF3F7A
:101E4000FADC0720E8754A20E8770A20E87700BF27
:101E500095F91F000028FBD40720ADF806000DF10E
:101E6000060000F04DF995F8210040F0400085F89B
:101E7000210000BF00BF00BF95F92100B0F1FF3F76
:101E8000FADC03206876CA2085F8210095F8210045
:101E900000F0BF0085F8210095F921000028FBD44F
:101EA000287840F04000287095F90000B0F1FF3F1D
:101EB000FADC022005F8010CCA202870287800F00E
:101EC000BF00287000BF00BF95F900000028FBD4B8
:101ED000A87840F04000A87095F90200B0F1FF3FEB
:101EE000FADC00206870C720A870A87800F0BF0056
:101EF000A87000BF00BF00BF95F902000028FBD406
:101F0000287A40F04000287295F90800B0F1FF3FB0
:101F1000FADC0120E871C6202872287A00F0BF00A0
:101F2000287200BF00BF00BF95F908000028FBD44D
:101F300095F8230040F0400085F8230000BF00BF63
:101F400095F92300B0F1FF3FFADC0220E876C920C2
:101F500085F8230095F8230000F0BF0085F82300E2
:101F600095F923000028FBD4A87A40F04000A8721D
:101F700095F90A00B0F1FF3FFADC01206872CA202F
:101F8000A872A87A00F0BF00A87200BF00BF00BF0F
:101F900095F90A000028FBD495F8220040F0400093
:101FA00085F8220000BF00BF95F92200B0F1FF3F85
:101FB000FADC0420A876CA2085F8220095F82200D1
:101FC00000F0BF0085F8220095F922000028FBD41C
:101FD000A87940F04000A87195F90600B0F1FF3FE4
:101FE000FADC02206871CA20A871A87900F0BF004D
:101FF000A87100BF00BF00BF95F906000028FBD400
:1020000095F8860040F0400085F8860000BF00BFCC
:1020100095F98600B0F1FF3FFADC022085F88000D8
:10202000C52085F8860095F8860000F0BF0085F889
:10203000860000BF00BF00BF95F986000028FBD4D2
:1020400095F8870040F0400085F8870000BF00BF8A
:1020500095F98700B0F1FF3FFADC012085F8810097
:10206000C52085F8870095F8870000F0BF0085F847
:10207000870000BF00BF00BF95F987000028FBD490
:1020800095F8890040F0400085F8890000BF00BF46
:1020900095F98900B0F1FF3FFADC092085F883004B
:1020A000C92085F8890095F8890000F0BF0085F8FF
:1020B000890000BF00BF00BF95F989000028FBD44C
:1020C0004FF42540A8F8000002B0BDE8F0874FF4B7
:1020D0007A7000F0CDF849E500BF00BF00BF00BF37
:1020E000006CDC0200127A000080000000366E01F5
:1020F0000080000000CA9A3B0046C3235543DE130C
:102100002DE9F04F81B04EF2FA3143F20406C4F2E9
:1021100001018246C4F220064AF20350B1F8009051
:1021200008804FF0010B00254FF480340127002078
:1021300008E000BF00BF00BFF8074FF001004FF0FC
:10214000000716D004FA00F132680A42F4D1EFF326
:1021500010888BF3108832680BFA00F0114331605D
:10216000316805431E20012100F0D6F888F310885D
:10217000E2E74EF2750740F20041C4F20107C2F2F5
:102180000021387800F00F0051F8200017F8081CE3
:1021900001F00F01022901D801220BE0CA1E052A15
:1021A00006D243F63C41C0F2002151F8221003E070
:1021B0000839102202FA01F1B0FBF1F04DF683610B
:1021C000C4F21B31A0FB01016FF0010000EA514095
:1021D000012100F0A1F8387840F04000387000BFCD
:1021E00097F90000B0F1FF3FFADC9AF8010007F818
:1021F000080C9AF8000040F0400038709AF800008F
:10220000387000BF00BF00BF97F900000028FBD462
:1022100000204FF0010A4FF48038012406E000BF8F
:10222000E0074FF001004FF0000415D025FA00F14F
:10223000C907F5D0EFF310878AF3108808FA00F089
:10224000316821EA0000306030681E20012100F072
:1022500063F887F31088E3E74EF2FA3149F425403A
:10226000C4F20101088001B0BDE8F08FD4D4D4D409
:102270007047D4D4D4D4D4D4B0B542F22404C82006
:10228000C4F2200401210025257100F045F82570D5
:10229000207808B12FF005C0207840F002002070AF
:1022A00020788007FCD4002004F8020C00BF00BF97
:1022B00014F8020C08B12FF005C84FF0030E0020EF
:1022C00004F11C0100BF00BF11F8102002F07F02D2
:1022D00001F8102000BF00BF11F91020002AFBD424
:1022E00001300FF00FC8012000F0CAF84EF64C4143
:1022F0000120C4F2010100220A70BDE8B04000F0E4
:1023000093B8D4D4D4D4D4D4014600220020C0F24F
:1023100004620A607047D4D440F6A01241F2002350
:10232000C2F20022C0F27A03484312689A420FD3E5
:1023300044F23F21C0F20F0111444DF68362C4F212
:102340001B32A1FB0212910CA0FB0101C9B11DE0DF
:102350004CF60021C3F69A31B1FBF2F148F638127F
:10236000C0F24102904205D24FF47A725043B0FB62
:10237000F1F006E0B0FBF1F0904207D24FF47A7131
:102380004843002808BF704700F006B84FF0FF3000
:1023900000F002B8D4D4D4D401380028FCD170475E
:1023A000F0B581B04CF2201540F63417C4F20005A8
:1023B0000024C2F2002755F8200C296801EA000623
:1023C00006E000BF00BF00BF01340437152C09D060
:1023D00026FA04F0C007F7D039680029F4D0204667
:1023E0008847F1E745F8106C28683042FCD101B00D
:1023F000F0BDD4D4D4D4D4D480B54FF0020E43F67B
:10240000E4104CF200320021C0F20020C4F20002BD
:1024100030F81130002B18BF42F8213001210FF0A5
:1024200009C880BDD4D4D4D4EFF31081012282F343
:10243000108840F69412C2F2002232F8103023B114
:1024400032F81030013B22F8103032F8102012B16F
:1024500081F3108870474EF2FA3243F6504CC4F2C2
:102460000102C0F2002C13883CF8100043F425430D
:1024700023EA0000108081F310887047D4D4D4D4AC
:1024800010B5EFF31081012282F3108840F6941208
:10249000C2F2002232F8103083B94EF2FA3E43F60F
:1024A000504CC4F2010EC0F2002CBEF800403CF8C3
:1024B0001030234343F42543AEF8003032F8103097
:1024C000013322F8103081F3108810BDD4D4D4D455
:1024D00000F00AF8FEF780FDFEE7D4D4D4D4D4D4BB
:1024E00000BE7047D4D4D4D42DE9F04381B04EF669
:1024F000085840F20120CEF20008C0F20E004EF261
:102500000004C8F80C00CEF20104BFF34F8FBFF3F4
:102510006F8F58F8081CC1F3035001285FEA1F921F
:1025200011F00F0F5FEA0F911142216811D10228BB
:102530000FD241F0040020604EF20800BFF34F8F2D
:10254000CEF20000BFF36F8F016841F4803101606B
:1025500002E021F004002060BFF34F8FBFF36F8FC4
:102560004FF4700040F20001C8F880000020C0F273
:102570000021C8F800100025FEF7CAFAFFF760FA3C
:102580004EF2FA304EF6B022C4F20100C4F201025B
:102590004AF20251018015704FF42541018001205B
:1025A000FEF7B6FA40F20000C2F2002080F30A887B
:1025B0002068800724D5D8F80000B0F1007F1FD133
:1025C00020694FF40071C0F3C300626901FA00F39F
:1025D000C2F3C30081400020DA08CB080146074659
:1025E00042F007C000BF00BFE7E802010FF005C0DE
:1025F0004FF0005243F005C0E2E802010FF005C0C1
:1026000043F61024C0F20024276897B160683E4664
:10261000051D05E000BF00BF013E05F10C0508D017
:1026200068790028F8D155E90101091A00F008F984
:10263000F2E7D4F80890B9F1000F13D0E0684E46E5
:1026400000F1080504E000BF013E05F1100509D0C6
:1026500068790028F8D155E902022968121A00F0B9
:10266000F3F8F1E7FFF7A4F8FFF706FE0320FFF702
:1026700007FF4FF00E0E40F63050C4F2400000212C
:1026800020F8041B0FF005C04EF210150320C4F211
:102690000105FFF7C9FE0320FFF7F2FE44F2040034
:1026A0000021C4F22000016041608160C16003200C
:1026B000FFF7BAFED5F8C802800714D42878A0B175
:1026C0000120FFF7DDFE00BF95F9000010F1410F7A
:1026D000FADC0020287000BF28783F28FCD80120B1
:1026E000FFF7A2FE01E0D5F8C802D5F8C8024007FE
:1026F00015D42879A8B10120FFF7C2FE00BF00BFA2
:1027000095F9040010F1410FFADC0020287100BF98
:1027100028793F28FCD80120FFF786FE01E0D5F894
:10272000C8020220FEF7F4F9A7B160684FF4807682
:10273000051D05E000BF00BF013F05F10C0509D0F4
:102740006879B6EB002FF7D155E90101091A00F0BD
:1027500077F8F1E7B9F1000F16D0E0684FF4807513
:1027600000F1080405E000BFB9F1010904F110040B
:102770000AD06079B5EB002FF6D154E90202216846
:10278000121A00F061F8EFE740F6A814C2F2002434
:10279000204600F032F8204600F047F8BFF34F8F94
:1027A000BFF36F8F0020C8F8480243F6B64043F6E7
:1027B000B641C0F20020C0F20021BFF34F8F081ACB
:1027C000BFF36F8F8410012C0BDB43F6B645C0F2CC
:1027D000002500BF00BF00BF55F8040B8047013C37
:1027E000FAD1FFF709FE002001B0BDE8F04300F088
:1027F00003B8D4D4D4D4D4D4704710B540F248012F
:1028000040F20002C0F20021C0F20002044600F0D3
:102810001BF840F2000040F20001C0F20000C0F2DC
:102820000001204400F00CF810BD40F20801C0F295
:102830000001401A40F6A411C2F20021086070475E
:102840000A46002100F076B8844641EA000313F0FE
:10285000030349D1403A23D30B6803604B684360BC
:102860008B688360CB68C3600B6903614B6943610C
:102870008B698361CB69C3610B6A03624B6A4362F4
:102880008B6A8362CB6AC3620B6B03634B6B4363DC
:102890008B6B8363CB6BC36340304031403ADBD2F8
:1028A00030320BD30B6803604B6843608B688360E6
:1028B000CB68C36010301031103AF3D20C3205D31C
:1028C00051F8043B40F8043B043AF9D2043208D0F2
:1028D000D2071CBF11F8013B00F8013B01D30B8864
:1028E00003806046704700BF082A13D38B07B1D01E
:1028F00010F00303AED0C3F10403D21ADB071CBFF0
:1029000011F8013B00F8013BA4D331F8023B20F859
:10291000023B9FE7043AD9D3013A11F8013B00F892
:10292000013BF9D20B7803704B7843708B7883703E
:102930006046704770B4840746D0541E002A41D0C8
:10294000CDB2034602E0621EE4B3144603F8015B15
:102950009A07F8D1032C2ED9CDB245EA05250F2CC4
:1029600045EA054519D9264603F11002103E0F2EFF
:1029700042F8105C42F80C5C42F8085C42F8045CD7
:1029800002F11002F2D8A4F1100222F00F0204F0BA
:102990000F041032032C13440DD91E462246121F79
:1029A000032A46F8045BFAD8221F22F00302121D04
:1029B000134404F003042CB1C9B21C4403F8011BF6
:1029C000A342FBD170BC704714460346C2E7000027
:1029D0000000000054545220524547474553000D13
:1029E0000A2A2A2A2A2A2A2A2A2A2A2A2A2A2A2A67
:1029F0002A2A2A2A2A2A2A2A2A2A2A2A2A2A2A2A37
:102A00002A2A2A2A2A2A2A2A2A2A2A2A2A2A2A2A26
:102A10002A2A2A2A2A2A2A2A2A2A2A2A2A2A2A2A16
:102A20002A2A2A0D0A2A20202052656E65736173B6
:102A300020465350204578616D706C652050726F50
:102A40006A65637420666F7220725F756C707420A3
:102A50004D6F64756C6520202020202020202020D0
:102A60002020202020202A0D0A2A202020457861BD
:102A70006D706C652050726F6A6563742056657264
:102A800073696F6E202573202020202020202020B5
:102A90002020202020202020202020202020202036
:102AA0002020202020202020202A0D0A2A2020203B
:102AB000466C657820536F6674776172652050614B
:102AC000636B2056657273696F6E2025642E2564D2
:102AD0002E2564202020202020202020202020209F
:102AE00020202020202020202020202020202020E6
:102AF0002A0D0A2A2A2A2A2A2A2A2A2A2A2A2A2A73
:102B00002A2A2A2A2A2A2A2A2A2A2A2A2A2A2A2A25
:102B10002A2A2A2A2A2A2A2A2A2A2A2A2A2A2A2A15
:102B20002A2A2A2A2A2A2A2A2A2A2A2A2A2A2A2A05
:102B30002A2A2A2A2A0D0A526566657220746F2095
:102B4000726561646D652E7478742066696C6520A9
:102B5000666F72206D6F72652064657461696C7355
:102B6000206F6E204578616D706C652050726F6AC1
:102B700065637420616E640D0A4653502055736579
:102B8000722773204D616E75616C20666F72206DC7
:102B90006F726520696E666F726D6174696F6E2009
:102BA00061626F757420725F756C707420647269F5
:102BB0007665720D0A000D0A554C50543020696E2E
:102BC000206F6E652D73686F74206D6F6465207360
:102BD0007461727465640D0A00312E30000D0A4C68
:102BE000454420697320746F67676C656420666F65
:102BF00072207468652025732074696D650D0A0064
:102C0000525F554C50545F4F70656E2041504920C3
:102C1000666F72206F6E652D73686F742074696DB6
:102C20006572206661696C65640D0A00525F4C50E4
:102C30004D5F4C6F77506F7765724D6F6465456E71
:102C400074657220415049206661696C65640D0AA3
:102C5000000D0A4D435520656E74657220746F2017
:102C600044656570205357205374616E6462792007
:102C70006D6F64650D0A0068775F6D6F64756C65D4
:102C80005F6465696E69740068775F6D6F64756C09
:102C9000655F696E697400525F554C50545F496EB0
:102CA000666F4765742041504920666F72206F6ED1
:102CB000652D73686F742074696D65722066616933
:102CC0006C65640D0A000D0A554C50543120696E34
:102CD00020706572696F646963206D6F646520732D
:102CE000746F707065640D0A00756C70745F6F6E40
:102CF000655F73686F745F6F7065726174696F6E22
:102D0000206661696C65640D0A000D0A554C5054CB
:102D10003120696E20706572696F646963206D6F20
:102D2000646520737461727465640D0A00284E55E1
:102D30004C4C2900525F554C50545F506572696F7E
:102D4000645365742041504920666F72206F6E6530
:102D50002D73686F742074696D6572206661696C8B
:102D600065640D0A000D0A53656C65637465642023
:102D7000706572696F6420697320696E76616C6931
:102D80006420210D0A00756C70745F7365745F7048
:102D90006572696F64000D0A554C50543120756E90
:102DA000646572666C6F7720666F72207468652048
:102DB00025732074696D650D0A000D0A52657475DE
:102DC000726E6564204572726F7220436F64653A5B
:102DD000203078257820200D0A000D0A53656C6597
:102DE000637420706572696F642076616C756573B9
:102DF00020666F7220626F7468206F6E652D736835
:102E00006F7420616E6420706572696F64696320FD
:102E100074696D6572730D0A312E20506572696F89
:102E2000642076616C756520697320312073656359
:102E30006F6E640D0A322E20506572696F642076C1
:102E4000616C75652069732032207365636F6E64F1
:102E5000730D0A332E20506572696F642076616CA1
:102E600075652069732033207365636F6E64730D1D
:102E70000A005B4552525D20496E2046756E6374B0
:102E8000696F6E3A20257328292C202573006877F6
:102E90005F6D6F64756C655F696E697420666169EA
:102EA0006C65640D0A005465726D696E616C000D8D
:102EB0000A2A2A2A2A2A2A2A2A2A2A2A2A2A2A2A92
:102EC0002A2A2A2A2A2A2A2A2A2A2A2A2A2A2A2A62
:102ED0002A2A2A2A2A2A2A2A2A2A2A2A2A2A2A2A52
:102EE0002A2A2A2A2A2A2A2A2A2A2A2A2A2A2A2A42
:102EF0002A2A2A0D0A2A204D435520686173206230
:102F000065656E2072657365742066726F6D20440E
:102F1000656570205357205374616E646279206D2B
:102F20006F646520627920696E7465726E616C20D1
:102F30007265736574202A0D0A2A2A2A2A2A2A2AE7
:102F40002A2A2A2A2A2A2A2A2A2A2A2A2A2A2A2AE1
:102F50002A2A2A2A2A2A2A2A2A2A2A2A2A2A2A2AD1
:102F60002A2A2A2A2A2A2A2A2A2A2A2A2A2A2A2AC1
:102F70002A2A2A2A2A2A2A2A2A2A2A0D0A0D0A4114
:102F80002073657175656E63652068617320626585
:102F9000656E20636F6D706C657465640D0A0075F5
:102FA0006C70745F706572696F6469635F6F706580
:102FB000726174696F6E00525F4C504D5F436C6F6D
:102FC000736520415049206661696C65640D0A0093
:102FD0000D0A5468652073656C65637465642070C0
:102FE0006572696F642069732031207365636F6E49
:102FF000640D0A000D0A5468652073656C6563747E
:10300000656420706572696F642069732032207373
:1030100065636F6E64730D0A00525F554C50545FC8
:10302000436C6F73652041504920666F7220706554
:1030300072696F6469632074696D65722066616985
:103040006C65640D0A0068616C5F656E747279006E
:103050000D0A5468652073656C656374656420703F
:103060006572696F642069732033207365636F6EC6
:1030700064730D0A0033726400756C70745F706560
:1030800072696F6469635F6F7065726174696F6E96
:10309000206661696C65640D0A00756C70745F6F01
:1030A0006E655F73686F745F6F7065726174696F6E
:1030B0006E0031737400525F554C50545F5374610D
:1030C00072742041504920666F72206F6E652D73B7
:1030D000686F742074696D6572206661696C6564DF
:1030E0000D0A00756C70745F7365745F706572694A
:1030F0006F64206661696C65640D0A00525F554C0F
:1031000050545F436C6F73652041504920666F7265
:10311000206F6E652D73686F742074696D65722001
:103120006661696C65640D0A000D0A546869732054
:103130006578616D706C652070726F6A656374206C
:1031400064656D6F6E737472617465732074686505
:103150002066756E6374696F6E616C697479206F37
:103160006620554C505420696E20706572696F64FA
:103170006963206D6F646520616E640D0A6F6E6512
:103180002D73686F74206D6F64652E205468652000
:10319000757365722073656C6563747320746865FC
:1031A00020706572696F6420666F7220626F746848
:1031B000206F6E652D73686F7420616E642070657A
:1031C00072696F6469632074696D6572730D0A6159
:1031D000732031207365636F6E642C203220736519
:1031E000636F6E64732C206F722033207365636F7E
:1031F0006E64732E2041667465722073656C65631E
:1032000074696E672074686520706572696F642CDC
:103210002074686520554C50543120737461727469
:10322000730D0A696E20706572696F646963206D41
:103230006F646520616E6420746F67676C657320CE
:10324000746865206F6E2D626F617264204C454416
:10325000207768656E2074686520554C5054312085
:10326000756E646572666C6F77206F6363757273D9
:103270002E0D0A54686520554C5054312077696CE6
:103280006C2073746F7020616674657220756E6453
:103290006572666C6F772074687265652074696DFD
:1032A00065732C20616E642074686520554C505401
:1032B000302077696C6C20737461727420696E20A1
:1032C0000D0A6F6E652D73686F74206D6F646520D5
:1032D000616674657220746861742E20546865207C
:1032E0004D43552077696C6C2062652070757420A1
:1032F000696E746F20446565702053572053746164
:103300006E646279206D6F646520616E640D0A776A
:1033100061697420666F722074686520554C505442
:103320003020756E646572666C6F7720746F2072E2
:103330006573657420696E7465726E616C6C792E4C
:103340000D0A00326E6400525F554C50545F4F704E
:10335000656E2041504920666F7220706572696FFA
:103360006469632074696D6572206661696C656467
:103370000D0A00525F554C50545F53746F702041DA
:10338000504920666F7220706572696F64696320AE
:1033900074696D6572206661696C65640D0A00521E
:1033A0005F554C50545F496E666F476574204150BD
:1033B0004920666F7220706572696F64696320745A
:1033C000696D6572206661696C65640D0A00525F03
:1033D0004C504D5F4F70656E2041504920666169C9
:1033E0006C65640D0A00525F554C50545F50657215
:1033F000696F645365742041504920666F72207074
:103400006572696F6469632074696D6572206661B5
:10341000696C65640D0A00525F554C50545F5374DB
:103420006172742041504920666F72207065726924
:103430006F6469632074696D6572206661696C658B
:10344000640D0A0030313233343536373839414271
:103450004344454600000000B230000243330002FE
:1034600075300002D02F0002F42F0002503000020D
:103470000400000000000000000000000000000048
:103480000001010000000000000000040000000036
:10349000000000000000000001000000010000002A
:1034A000000000000000000000000000000000D448
:1034B000000000000080000000000000004000004C
:1034C00001020100790B000200000000A834000294
:1034D00000000000000000D4010000000080000097
:1034E000000000000040000000020000610B00022C
:1034F00000000000D0340002004000000000000086
:10350000004000000600000000400000080000002D
:103510000040000009000000004000000C00000016
:10352000450000000D000000000C011C000100001F
:10353000000C011C01010000000C011C0201000034
:10354000000C011C03010000000C011C0401000020
:10355000000C011C05010000000C011C060100000C
:1035600000400000070100004504000009010000C0
:10357000104000000B010000000C010B0C010000CA
:10358000000C010B0D010000000C010B0E010000EE
:10359000000C010B0F0100000040000000020000C1
:1035A000000C011806020000000C011907020000BF
:1035B000000C010008020000000C010009020000DC
:1035C000000C01000A020000000C01000B020000C8
:1035D000000C010B00030000000C010B01030000B4
:1035E000000C010B02030000040C000003030000A8
:1035F000000C011804030000000C01180503000072
:10360000000C011806030000000C0118070300005D
:10361000000C011809030000000C01180A03000047
:10362000400C010700040000400C010701040000E9
:103630000000011202040000000001120304000057
:10364000000001120404000000040112050400003F
:103650000004011206040000000401130704000026
:1036600000040114080400000004011F0B04000002
:10367000000401180E040000000401180F040000EB
:103680000000011300050000000C0103010500000B
:103690000004011B02050000000C010B03050000E3
:1036A000000C010B04050000000C010B05050000D7
:1036B000000C010B06050000000C010B07050000C3
:1036C000000C010B08050000000C010B09050000AF
:1036D000000C010B0A050000400401070B05000067
:1036E000400401070C050000000C01190D05000045
:1036F000040400000E050000000C01190F05000075
:10370000040C00000006000004040000060600008F
:10371000000C010B07060000000C010B080600005E
:10372000000C010B09060000000C010B0A0600004A
:10373000000C010B0B060000000C010B0C06000036
:10374000000C010B0D060000000C010B0E06000022
:10375000000C010B0F060000000C01190707000008
:10376000040400000807000004040000090700002A
:10377000000C01190A070000000C01190B070000DA
:10378000000C01190C070000000C01190D070000C6
:10379000000C01190E070000000C01190F070000B2
:1037A000000C011C00080000000C011C01080000B6
:1037B000000C011C02080000000C011C03080000A2
:1037C000000C011C04080000000C01190508000091
:1037D000000C011906080000000C01190708000080
:1037E000000C011C080800000004011B0C0800006C
:1037F000000C010B0D080000000C01130E08000066
:10380000000C01130F080000000C01190209000050
:10381000000C011903090000000C01190409000043
:10382000000C011805090000000C01180609000031
:10383000000C011807090000000C0118080900001D
:10384000000C011809090000000C01190A09000008
:10385000000C01190B090000000C01190C090000F3
:10386000000C01190D090000000C01190E090000DF
:10387000000C01190F090000000C010B000A0000E8
:10388000000C010B010A0000000C010B020A0000F1
:10389000000C010B030A0000000C010B040A0000DD
:1038A000000C010B050A0000000C010B060A0000C9
:1038B000040C0000070A0000000C010B080A0000BD
:1038C000000C010B090A0000000C010B0A0A0000A1
:1038D000000C010B0B0A0000000C010B0C0A00008D
:1038E000000C010B0D0A0000000C010B0E0A000079
:1038F000000C010B0F0A0000000C0119000B000066
:10390000000C0119010B0000000C0119020B000052
:10391000000C0119030B0000000C0119040B00003E
:10392000000C0119050B0000000C0119060B00002A
:10393000000C0119070B0000000C010B000C00002B
:10394000000C010B010C0000000C010B020C00002C
:10395000000C010B030C0000000C010B040C000018
:10396000000C010B050C0000000C010B060C000004
:10397000000C010B070C0000000C010B080C0000F0
:10398000000C010B090C0000000C010B0A0C0000DC
:10399000000C010B0B0C0000000C010B0C0C0000C8
:1039A000000C010B0D0C0000000C010B0E0C0000B4
:1039B000000C010B0F0C0000000C010B000D0000AF
:1039C000000C0104020D0000000C0104030D0000B6
:1039D00000040114070D00009C000000F8340002F0
:1039E0000000000080008300020403040404D4D417
:1039F00000000068000000680000008000000080F7
:103A00000000007000000070000000220000002292
:103A10000B000000283A000219000000AC3A000236
:103A200004000000F0390002000000680000006897
:103A30000001000D00000068000000680001000D9A
:103A400000000080000000800001000800000080ED
:103A500000000080000100080000007000000070FD
:103A60000001000A00000070000000700001000A60
:103A70000000000000000000010000050000002020
:103A800000000020010000040000002200000022CD
:103A9000000000032C040022A809002200000003FB
:103AA000A8090022A8090022000000030000006805
:103AB00000000068000000900001090D000000688F
:103AC000000000680000007800010B0D0000006895
:103AD00000000068000000270001020D00000068DF
:103AE00000000068480000020001010D0000008095
:103AF0000000008000000090000109080000008024
:103B0000000000800000007800010B080000008029
:103B10000000008000000027000102080000008073
:103B20000000008048000002000101080000007051
:103B300000000070000000900001090A0000007001
:103B4000000000700000007800010B0A0000007007
:103B500000000070000000270001020A0000007051
:103B600000000070480000020001010A000000008F
:103B700000000000000000900101090500000000A5
:103B8000000000000000007801010B0500000000AB
:103B900000000000000000270100020500000000F6
:103BA00000000000480000020100010500000020A4
:103BB0000000002000000090010109040000002026
:103BC000000000200000007801010B04000000202C
:103BD0000000002000000027010002040000002077
:103BE0000000002048000002010001040000002243
:103BF00000000022000000900001090300000022E4
:103C0000000000220000007800010B0300000022E9
:103C10000000002200000027000002030000002234
:103C2000000000224800000200000103A809002251
:103C3000A80900224800000200000103060000005D
:103C40000800000003000000050000000A0000005A
:103C50000100020008001000200000060303070A0C
:103C6000030000005A3C000200000406362E342EE9
:103C700030004275696C7420776974682052656EF3
:103C80006573617320416476616E63656420466C80
:103C9000657869626C6520536F6674776172652020
:103CA0005061636B6167652076657273696F6E2022
:063CB000362E342E300018
:0200000402C92F
:04F04000FFFFFFFFD0
:04F04400EFFFFFFFDC
:04F0C000FFFFFFFD52
:04F0C400FFFFFFFF4C
:04F1200000000000EB
:04F1240000000000E7
:04000005020024D100
:00000001FF
