:020000040200F8
:1000000000040022311800021117000241180002FA
:100010004118000241180002411800024118000274
:100020000000000000000000000000004118000275
:1000300041180002000000004118000241180002AF
:04004000A90A000207
:100050002DE9F04381B000EB400040F22C43C2F2A6
:100060000023154603EBC003894603F11808D86A3C
:10007000022819D001280CD048B9D8F80C40D8F87B
:100080001000E143A04267D90844A8426AD2002682
:1000900089E0D8F80C40D8F81010A14233D9E043D9
:1000A0000144D8F8080033E0D8F80C40002621E0DD
:1000B000D8F8081010440844091B884250EA3180DF
:1000C0004946A84250EA3587D8F8040020443A4609
:1000D00001F02EFD3819D8F80810411AA5EB0705D4
:1000E00050EA11843E44B944002DBFF35F8FC8F835
:1000F0000C4058D0D8F81000E243A042D8D91044A0
:10010000D8F80810D8E7E243D8F8080011440144B1
:10011000A94251EA3586051BD8F804002044AE42B6
:1001200009D24946324601F003FDBFF35F8F301913
:10013000C8F80C0037E049462A4601F0F9FC771B65
:10014000D8F8040009EB05013A4601F0F1FCBFF3D1
:100150005F8FC8F80C7026E0D8F8082008441044D7
:10016000A84294D3D8E901010E1B2044B54209D21C
:1001700049462A4601F0DCFCBFF35F8F6019C8F8DE
:100180000C000FE04946324601F0D2FCAF1BD8F814
:10019000040009EB06013A4601F0CAFCBFF35F8F89
:1001A000C8F80C702E46304601B0BDE8F083D4D4B8
:1001B000F0B581B040F22C450C46C2F200252B78F8
:1001C000532B37D00646A8212846174601F0ACFC31
:1001D00003202861686141F6527040F2D441C0F2B8
:1001E0000020A861C2F20021E9614FF48061296218
:1001F0000021A9626962E96240F6D40228664FF0E4
:10020000100E41F6B640C2F200226A66C5F868E0F8
:100210002967E9666967BFF35F8FC0F200200F307E
:1002200010F8011905F8011B0FF007C03A463046D7
:10023000BFF35F8FEFF311854FF0200181F3118839
:100240002146FFF705FF85F3118801B0F0BDD4D436
:100250002DE9F04F9BB092460F464FF000090490F5
:100260001A900DF1580B002006A916914021179104
:10027000CDE918990EE0011DCAF800100168CDE91A
:1002800000385846234600F01BFA1998B0F1FF3F9A
:1002900040F3128217F8011B25291DD0002900F018
:1002A000FB81DDE91720431C934207D8169A1154AD
:1002B00018931998179A0130199018469042E4D172
:1002C00016991A98FFF774FF1899884240F0DF8159
:1002D000CDF86090D9E700BF4FF000083978A1F160
:1002E00023030D2B18D80222DFE803F00E16161692
:1002F0001616161610161216160748EA02080137C7
:10030000ECE700BF00BF00BF0822F6E70422F4E7D5
:100310000122F2E700BF00BFA1F13A02002312F16F
:100320000A0F0FD30A4600BF17F8011F03EB830320
:10033000A1F13A0602EB430216F10B0FA2F13003D2
:100340000A46F1D82E290FD13A4612F8016F2A2E0B
:100350000DD1DAF8001002370A1DCAF800200C6827
:1003600001211DE000BF00BF0021002418E0A6F11C
:100370003A0717F10A0F02D2002100240FE00024EF
:1003800012F8011F04EB8407A1F13A0506EB4707B9
:1003900015F10B0FA7F130040E46F1D801211746D5
:1003A00017F8012B02F0FB06682EF9D0A2F15806CF
:1003B000202E26D8DFE806F01211111111111111AB
:1003C000111111163C1111111111111111111111ED
:1003D0006C11117911381111120056E7DAF800008A
:1003E000102248E7DDE91720411CDAF8003091427D
:1003F00003F10406CAF800603FF660AF169A1B6866
:100400000AE0252A7FF441AFDDE91720411C914223
:100410003FF654AF169A2523135418911998179A3A
:1004200001301990084649E7DAF800000A2222E76D
:10043000DAF800104CF6CD4C0A1DCAF800200A6804
:1004400005925142002A48BF0A460A2ACCF6CC4CF3
:1004500003914FF0010107DBA2FB0C56632A01F167
:1004600001014FEAD602F7D88C4254EA81895E46F0
:10047000002B58D0059908F0040200295FEA5F912B
:1004800041EA9201A3EB010B5FEA887550D473E057
:10049000DAF800001022011DCAF8001001680823D4
:1004A0000820CDE900095846EDE6DAF80020131DD2
:1004B000CAF80030126841F62263002AC0F2002315
:1004C00052EA13865FEA01880BE000BF00BF00BF5D
:1004D0001998CDF86090B0F1FF3FA4F101047FF7C7
:1004E000D4AE16F8011B002C5FEA188200293FF4F5
:1004F000CCAE002A7FF4C9AEDDE917235D1C95421E
:1005000007D81698C1542B461998179A0130189598
:1005100019909342DFD116991A98FFF749FE18995E
:100520008842D5D0B3E04FF0000B5FEA887523D541
:1005300014BB002800F1A7800598B0F1FF3F47DD0C
:100540005FEA487064D5DDE91720411C914208D864
:10055000169A2B23135418911998179A0130199051
:100560000846904254D116991A98FFF721FE18991F
:100570008842059944D08AE05FEAC871D9D1BBF1BD
:10058000000FD6D0029502E00028AB467BD4ABF139
:1005900001055D4538BFD94536D2DDE917214B1C31
:1005A000934208D816982022425419461998179A4F
:1005B0000130189319909142E6D116991A98FFF7D5
:1005C000F7FD1899884262D1002018901998DBE74E
:1005D000DDE91720411C914208D8169A2D231354A7
:1005E00018911998179A01301990084690420DD128
:1005F00016991A98FFF7DCFD18998842039946D19D
:1006000000201890059103E0029D92E70398059061
:100610001998002850D4002D0BD40A223046059991
:100620002346CDE900B8B34600F04AF84FF0000980
:100630002BE608F001012143EFD1BBF1000FECD014
:10064000ABF101055D4538BFD945E6D2DDE917219B
:100650004B1C934208D816983022425419461998D8
:10066000179A013018931990914209D116991A9846
:10067000FFF79EFD1899884209D10020189019981B
:100680000028AB46DCD54FF00009B346FDE54FF03E
:10069000FF301BB0BDE8F08F40B1189A52B106A9E7
:1006A0000498FFF785FDDDE9181004E000201BB079
:1006B000BDE8F08F002108441BB0BDE8F08FD4D412
:1006C0002DE9F04F81B015468B4691421F460446F6
:1006D000DDF828904FF0010007D3594600BF00BF56
:1006E000B1FBF5F10130A942FAD2874257EA80887E
:1006F000B9F1000F0B9938D011F0010035D18807FE
:100700004FF0200048BF30202021002F50EA018602
:100710004FF0000A06E000BFE068A9F10109B0F15E
:10072000FF3F22DDB9F1000F1FD0C8451DD2D4E92B
:100730000120411C914207D822681654A160E0684C
:1007400062680130E06008469042E5D12168206986
:10075000FFF72EFDA168884202D1C4F808A0DBE7AC
:100760004FF0FF30E060A9F10109E068002842D4B1
:10077000012603E000BF00BF013F6E43022FFBD202
:10078000BBFBF6F1A942F8D242F2BC17A268C0F254
:10079000002700BF00BF00BF6168531CBBFBF6FA17
:1007A0008B4209D8206817F80A1081541A46E0686D
:1007B00061680130A360E0608A4209D12168206944
:1007C000FFF7F6FCA26890420CD10022E068A2601C
:1007D00000280AD4B6FBF5F10AFB16BBB5420E465B
:1007E000DAD902E04FF0FF30E0600B99C90718BF7B
:1007F000B9F1000F02D101B0BDE8F08F2025A9F1B9
:1008000001064E4538BFC845F5D26168531C8B427E
:1008100007D8206885541A46E06861680130A360F3
:10082000E0608A4209D121682069FFF7C1FCA16814
:10083000884207D10022E068A260B0F1FF3FB146D4
:10084000DDDCD8E74FF0FF30E06001B0BDE8F08FAD
:1008500082B080B582B0CDE9042304AA019201AA36
:10086000FFF7F6FC02B0BDE8804002B07047D4D478
:10087000B0B582B04FF0FF30019043F2080041F272
:100880000004C4F22000C4F2310440F6E40501681B
:10089000C2F2002521F400510160207800F0FC0034
:1008A0002070207800F08F0010302070207800F049
:1008B000F7002070207A40F0010020724AF2A55023
:1008C00020614CF20030C4F20000016821F4803154
:1008D000016000684EF200100121CEF20000BFF36B
:1008E0005F8FC0F8801101604BF2B550E0600A20C4
:1008F000019000BF00BF00BF019801380190287827
:1009000018B9019808B12FF009C82079C00702D1A1
:100910002878012808D141F685610020C0F2002125
:100920001E22FFF795FF00BE4AF2A550E0600120AD
:1009300000F03EF84FF0FF30019000BF00BF00BF55
:10094000019801380190287818B9019808B12FF062
:1009500009C8019808B92878E0B12079C0070DD1FD
:10096000032000F025F841F685610020C0F2002147
:100970001E22FFF76DFF00BE02B0B0BD207A00213D
:1009800040F0010020720220297002B0BDE8B040A2
:1009900000F00EB8032000F00BF841F6856100204E
:1009A000C0F200211E22FFF753FF00BE02B0B0BD0F
:1009B00070B542F6C816C0F20026318802290FD160
:1009C000032822D002283ED170680122018840F617
:1009D000E800C2F2002000F00BF90024022050E0F1
:1009E000032938BF70BD03281BD0022837D1706897
:1009F00040F6E805C2F200250122018828460124BC
:100A000000F0F6F87068002236E0706800220024DA
:100A1000018840F6E800C2F2002000F0E9F8022068
:100A20002FE0706840F6E804C2F200240122018839
:100A3000204600F0DDF8706801224188204600F071
:100A4000D7F800241CE070680022018840F6E80016
:100A5000C2F2002000F0CCF80124022011E07068FE
:100A600040F6E805C2F2002500220188284600F081
:100A7000BFF87068012201244188284600F0B8F8C8
:100A8000042071682246095A40F6E800C2F20020AC
:100A900000F0AEF84FF4FA700121BDE8704000F0AC
:100AA000F3BDD4D4D4D4D4D440F6E4024FF0704192
:100AB000C2F20022EFF3038001EB0060012111700C
:100AC0004CF200318015C4F20001425822F4803209
:100AD000425040587047D4D484B00020039003A8FB
:100AE00000F0CAFD9DF80F3041F65B7141F61F52D0
:100AF0009DF80D509DF80E40C0F20021C0F200227A
:100B00000020CDE90045FFF7A3FE41F62351002068
:100B1000C0F20021FFF79CFE42F2F3010020C0F278
:100B20000021FFF795FE41F6C7410020C0F20021E9
:100B3000FFF78EFE42F6C810C0F20020008802289F
:100B40000CD941F67C5441F6CD5541F6A561C0F271
:100B50000024C0F20025C0F200210DE0022816D1C9
:100B600041F6296441F6FB6542F24411C0F20024CB
:100B7000C0F20025C0F200210020FFF769FE00202E
:100B80002946FFF765FE00202146FFF761FEFFF7CB
:100B90006FFE42F29F110020C0F20021FFF758FEC5
:100BA00030BFFDE7D4D4D4D4022818BF704740F634
:100BB000E80042F23C71C2F20020C0F2002100F0D5
:100BC0000BB8D4D4D4D4D4D480B5FFF785FF00209B
:100BD00080BDD4D4D4D4D4D480B545F25422C5F247
:100BE0004F020260084600F01FF8002080BDD4D4F8
:100BF00010B5CBB2012098406FF0010E84B20EEA1E
:100C0000D110002A40F208024FF4803C4FEA001154
:100C1000C4F240024FF0000008BF0CFA03F4545035
:100C200010BDD4D4D4D4D4D470B5044600F064F844
:100C300040F6441CEFF31081C2F2002C012080F337
:100C40001088DCF8000038B940F614500022C4F2D5
:100C50004000027040220270DCF800000130CCF845
:100C6000000081F31088208830B340F6000E002188
:100C7000C4F2400E08E000BF0EEB8010013140F8D6
:100C800022302088814217D2606800EBC10250F800
:100C900031309288D8034FEA1220D2B2ECD50EEB55
:100CA000801555F8226026F4803645F8226023F43A
:100CB000803645F82260DFE70120EFF3108180F3F2
:100CC0001088DCF8000020B1DCF800000138CCF816
:100CD0000000DCF8000010B181F3108870BD40F610
:100CE00014500022C4F2400002708022027081F38E
:100CF000108870BDD4D4D4D42DE9F04F81B004460F
:100D00000088002867D04EF64C4B0025C4F2010B3A
:100D10004FF0010A04E000BF2088013585425AD215
:100D200042F24A7642F240080027C0F20026C4F29E
:100D300020080CE000BF00BF88F80000C820012197
:100D400000F0A2FC013708F10208032FE4D060682C
:100D500036F8021B00EBC50082888A42F2D1006897
:100D60009BF8001000F0B8500AFA07F9B0F1807F44
:100D700009EA010018D158B9012000F031FD9BF8B3
:100D8000000040EA09008BF80000012000F0FCFCA4
:100D900098F900000028D5D498F8000040F08000B1
:100DA000CAE700BF00BF00BF58B1012000F018FD26
:100DB0009BF8000020EA09008BF80000012000F0F9
:100DC000E3FC98F90000B0F1FF3FBBDC98F80000AD
:100DD00000F07F00B0E701B0BDE8F08FD4D4D4D4E8
:100DE0004EF22401C4F201018878098801F00F0253
:100DF000A2F1080103293BD8DFE801F0022C101E04
:100E000040F20041C2F2002151F820004AF6AB2125
:100E1000CAF6AA21A0FB0101480830E040F20041D7
:100E2000C2F2002151F820004AF6AB21CAF6AA21ED
:100E3000A0FB0101C80822E040F20041C2F20021FB
:100E400051F820004AF6AB21CAF6AA21A0FB010105
:100E5000080914E040F20041C2F2002151F82000DC
:100E60004AF6AB21CAF6AA21A0FB0101880806E0D8
:100E700040F20041C2F2002151F82000D04040F67B
:100E80005411C2F2002108607047D4D4D4D4D4D411
:100E90002DE9F04782B00FF228604EF2FA3840F2A6
:100EA0000046C4F201084AF2015190ED001FC2F25F
:100EB00000260FF21C60CFF6FF714EF2550502318D
:100EC000A8F8001086ED001F06F12003C4F201050A
:100ED00090ED001F48F2004040F60001C1F2D770CB
:100EE00043F6000286ED041FC2F6AF71C1F69C42C4
:100EF00007C315F82F0C35F8311C01F00F02A2F1D1
:100F0000080103292BD8DFE801F002200C164AF66D
:100F1000AB2156F82000CAF6AA21A0FB010148081F
:100F200020E04AF6AB2156F82000CAF6AA21A0FB21
:100F30000101C80816E04AF6AB2156F82000CAF6AF
:100F4000AA21A0FB010108090CE04AF6AB2156F8E2
:100F50002000CAF6AA21A0FB0101880802E056F889
:100F60002000D04040F6541A4AF20159C2F2002A39
:100F70000A21CAF800004EF65020C4F201000170A8
:100F8000092185F84D10012180F8B011002005F8E5
:100F90001F0C05F8230C00BF15F8190C0007FBD532
:100FA00042F602314EF61450C0F20101C5F873103A
:100FB00040F2234125F8071C002205F80B2C4FF6C0
:100FC0000211C5F8571040F2514125F8091CCEF224
:100FD00000004EF20001BFF34F8FBFF36F8F036825
:100FE000CEF2010123F400330360C0F83C22BFF3CA
:100FF0004F8FBFF36F8F0A6822F440520A60BFF32D
:101000004F8FBFF36F8F15F8412C02F0F8020132B9
:1010100005F8412C00BF00BF15F8412CD206FBD4C7
:101020000A6842F440520A60BFF34F8FBFF36F8FDC
:101030000168890312D4BFF34F8FBFF36F8F002174
:10104000C0F83C12BFF34F8FBFF36F8F016841F4BC
:1010500000310160BFF34F8FBFF36F8F002005F8A1
:101060002B0C00BF00BF00BF15F8190C8006FBD584
:101070004CF200070020C4F2130738703878387833
:1010800038787868FA2807D0FA20C1F6006000BFE7
:1010900078607968FA29FBD1B8687D2808D07D206E
:1010A000CEF2001000BF00BFB860B9687D29FBD147
:1010B00043F23240C3F2232045F8350C42F220209F
:1010C00025F8310C052005F82F0C15F82F0C35F8F4
:1010D000311C01F00F02A2F1080103292BD8DFE82F
:1010E00001F002200C164AF6AB2156F82000CAF691
:1010F000AA21A0FB0101480820E04AF6AB2156F8DE
:101100002000CAF6AA21A0FB0101C80816E04AF691
:10111000AB2156F82000CAF6AA21A0FB010108095C
:101120000CE04AF6AB2156F82000CAF6AA21A0FB33
:101130000101880802E056F82000D040CAF80000FB
:101140001E200121012400F09FFA78686FF39F2090
:10115000652828BF3C7015F82F0C35F8311C01F0BC
:101160000F02A2F1080103292BD8DFE801F00220C9
:101170000C164AF6AB2156F82000CAF6AA21A0FBAD
:101180000101480820E04AF6AB2156F82000CAF6D3
:10119000AA21A0FB0101C80816E04AF6AB2156F8C7
:1011A0002000CAF6AA21A0FB010108090CE04AF6BA
:1011B000AB2156F82000CAF6AA21A0FB010188083D
:1011C00002E056F82000D04042F20001CAF80000C8
:1011D000C4F200010120A1F80090BFF35F8F0872F4
:1011E0004FF42540BFF35F8F088095F8850040F0ED
:1011F000400085F8850000BF95F98500B0F1FF3FFC
:10120000FADC032085F87F00C92085F8850095F871
:10121000850000F0BF0085F8850000BF00BF00BF5B
:1012200095F985000028FBD4012005F8020C002068
:1012300005F8170C802005F8170CE87F40F04000F7
:10124000E87700BF00BF00BF95F91F00B0F1FF3F76
:10125000FADC0720E8754A20E8770A20E87700BF23
:1012600095F91F000028FBD40720ADF806000DF10A
:10127000060000F035F995F8210040F0400085F8AF
:10128000210000BF00BF00BF95F92100B0F1FF3F72
:10129000FADC03206876CA2085F8210095F8210041
:1012A00000F0BF0085F8210095F921000028FBD44B
:1012B000287840F04000287095F90000B0F1FF3F19
:1012C000FADC022005F8010CCA202870287800F00A
:1012D000BF00287000BF00BF95F900000028FBD4B4
:1012E000A87840F04000A87095F90200B0F1FF3FE7
:1012F000FADC00206870C720A870A87800F0BF0052
:10130000A87000BF00BF00BF95F902000028FBD401
:10131000287A40F04000287295F90800B0F1FF3FAC
:10132000FADC0120E871C6202872287A00F0BF009C
:10133000287200BF00BF00BF95F908000028FBD449
:1013400095F8230040F0400085F8230000BF00BF5F
:1013500095F92300B0F1FF3FFADC0220E876C920BE
:1013600085F8230095F8230000F0BF0085F82300DE
:1013700095F923000028FBD4A87940F04000A8711B
:1013800095F90600B0F1FF3FFADC02206871CA202F
:10139000A871A87900F0BF00A87100BF00BF00BF0E
:1013A00095F906000028FBD495F8860040F040002F
:1013B00085F8860000BF00BF95F98600B0F1FF3FB9
:1013C000FADC022085F88000C52085F8860095F8B3
:1013D000860000F0BF0085F8860000BF00BF00BF98
:1013E00095F986000028FBD495F8870040F040006E
:1013F00085F8870000BF00BF95F98700B0F1FF3F77
:10140000FADC012085F88100C52085F8870095F871
:10141000870000F0BF0085F8870000BF00BF00BF55
:1014200095F987000028FBD495F8890040F040002A
:1014300085F8890000BF00BF95F98900B0F1FF3F32
:10144000FADC092085F88300C92085F8890095F821
:10145000890000F0BF0085F8890000BF00BF00BF11
:1014600095F989000028FBD495F8880040F04000E9
:1014700085F8880000BF00BF95F98800B0F1FF3FF4
:10148000FADC042085F88200C92085F8880095F8E8
:10149000880000F0BF0085F8880000BF00BF00BFD3
:1014A00095F988000028FBD44FF42540A8F80000E7
:1014B00002B0BDE8F08700BF00BF00BF00BF00BFA3
:1014C000006CDC0200127A000080000000366E0121
:1014D0000000000000CA9A3B0046C3235543DE13B8
:1014E0002DE9F04F81B04EF2FA3143F20406C4F216
:1014F00001018246C4F220064AF20350B1F800907E
:1015000008804FF0010B00254FF4803401270020A4
:1015100008E000BF00BF00BFF8074FF001004FF028
:10152000000716D004FA00F132680A42F4D1EFF352
:1015300010888BF3108832680BFA00F01143316089
:10154000316805431E20012100F09EF888F31088C1
:10155000E2E74EF2750740F20041C4F20107C2F221
:101560000021387800F00F0051F8200017F8081C0F
:1015700001F00F01022901D801220BE0CA1E052A41
:1015800006D242F69C11C0F2002151F8221003E06D
:101590000839102202FA01F1B0FBF1F04DF6836137
:1015A000C4F21B31A0FB01016FF0010000EA5140C1
:1015B000012100F069F8387840F04000387000BF31
:1015C00097F90000B0F1FF3FFADC9AF8010007F844
:1015D000080C9AF8000040F0400038709AF80000BB
:1015E000387000BF00BF00BF97F900000028FBD48F
:1015F00000204FF0010A4FF48038012406E000BFBC
:10160000E0074FF001004FF0000415D025FA00F17B
:10161000C907F5D0EFF310878AF3108808FA00F0B5
:10162000316821EA0000306030681E20012100F09E
:101630002BF887F31088E3E74EF2FA3149F425409E
:10164000C4F20101088001B0BDE8F08FD4D4D4D435
:1016500010B542F228000024C4F2200004700120DA
:1016600000F0BEF84EF64C410120C4F201010C70AE
:10167000BDE8104000F088B8014600220020C0F20A
:1016800004620A607047D4D440F6541241F2002339
:10169000C2F20022C0F27A03484312689A420FD382
:1016A00044F23F21C0F20F0111444DF68362C4F2AF
:1016B0001B32A1FB0212910CA0FB0101C9B11DE07C
:1016C0004CF60021C3F69A31B1FBF2F148F638121C
:1016D000C0F24102904205D24FF47A725043B0FBFF
:1016E000F1F006E0B0FBF1F0904207D24FF47A71CE
:1016F0004843002808BF704700F006B84FF0FF309D
:1017000000F002B8D4D4D4D401380028FCD17047FA
:10171000F0B581B04CF2201540F6F007C4F2000598
:101720000024C2F2002755F8200C296801EA0006BF
:1017300006E000BF00BF00BF01340437152C09D0FC
:1017400026FA04F0C007F7D039680029F4D0204603
:101750008847F1E745F8106C28683042FCD101B0A9
:10176000F0BDD4D4D4D4D4D442F24870C0F2002016
:101770000088002808BF70474CF20031C4F2000115
:1017800008607047D4D4D4D4EFF31081012282F3DF
:10179000108840F64812C2F2002232F8103023B10D
:1017A00032F81030013B22F8103032F8102012B11C
:1017B00081F3108870474EF2FA3242F6B01CC4F240
:1017C0000102C0F2002C13883CF8100043F42543BA
:1017D00023EA0000108081F310887047D4D4D4D459
:1017E00010B5EFF31081012282F3108840F6481201
:1017F000C2F2002232F8103083B94EF2FA3E42F6BD
:10180000B01CC4F2010EC0F2002CBEF800403CF83F
:101810001030234343F42543AEF8003032F8103043
:10182000013322F8103081F3108810BDD4D4D4D401
:1018300000F00AF8FFF7C8F9FEE7D4D4D4D4D4D422
:1018400000BE7047D4D4D4D42DE9F04381B04EF615
:10185000085840F20120CEF20008C0F20E004EF20D
:101860000004C8F80C00CEF20104BFF34F8FBFF3A1
:101870006F8F58F8081CC1F3035001285FEA1F92CC
:1018800011F00F0F5FEA0F911142216811D1022868
:101890000FD241F0040020604EF20800BFF34F8FDA
:1018A000CEF20000BFF36F8F016841F48031016018
:1018B00002E021F004002060BFF34F8FBFF36F8F71
:1018C0004FF4700040F20001C8F880000020C0F220
:1018D0000021C8F800100025FFF766F9FFF7D8FAD5
:1018E0004EF2FA304EF6B022C4F20100C4F2010208
:1018F0004AF20251018015704FF425410180012008
:10190000FFF752F940F20000C2F2002080F30A888B
:101910002068800724D5D8F80000B0F1007F1FD1DF
:1019200020694FF40071C0F3C300626901FA00F34B
:10193000C2F3C30081400020DA08CB080146074605
:1019400042F007C000BF00BFE7E802010FF005C08A
:101950004FF0005243F005C0E2E802010FF005C06D
:1019600042F27074C0F20024276897B160683E4666
:10197000051D05E000BF00BF013E05F10C0508D0C4
:1019800068790028F8D155E90101091A00F0CCF86E
:10199000F2E7D4F80890B9F1000F13D0E0684E4692
:1019A00000F1080504E000BF013E05F1100509D073
:1019B00068790028F8D155E902022968121A00F066
:1019C000B7F8F1E7FFF70CFAFFF742FE0320FFF745
:1019D00007FF4FF00E0E40F63050C4F240000021D9
:1019E00020F8041B0FF005C00320FFF7CDFE0320F5
:1019F000FFF7F6FE44F204000021C4F2200001606B
:101A000041608160C1600320FFF7BEFE0220FFF746
:101A1000CBF89FB160684FF48076051D04E000BFED
:101A2000013F05F10C0509D06879B6EB002FF7D11D
:101A300055E90101091A00F077F8F1E7B9F1000F53
:101A400016D0E0684FF4807500F1080405E000BF8F
:101A5000B9F1010904F110040AD06079B5EB002F47
:101A6000F6D154E902022168121A00F061F8EFE79A
:101A700040F65C14C2F20024204600F032F8204602
:101A800000F047F8BFF34F8FBFF36F8F0020C8F807
:101A9000480242F61E2042F61E21C0F20020C0F28B
:101AA0000021BFF34F8F081ABFF36F8F8410012CF2
:101AB0000BDB42F61E25C0F2002500BF00BF00BFB1
:101AC00055F8040B8047013CFAD1FFF74DFE00208A
:101AD00001B0BDE8F04300F003B8D4D4D4D4D4D4DA
:101AE000704710B540F2440140F20002C0F20021FC
:101AF000C0F20002044600F01BF840F2000040F281
:101B00000001C0F20000C0F20001204400F00CF817
:101B100010BD40F20801C0F20001401A40F6581111
:101B2000C2F20021086070470A46002100F076B832
:101B3000844641EA000313F0030349D1403A23D31A
:101B40000B6803604B6843608B688360CB68C3603D
:101B50000B6903614B6943618B698361CB69C36125
:101B60000B6A03624B6A43628B6A8362CB6AC3620D
:101B70000B6B03634B6B43638B6B8363CB6BC363F5
:101B800040304031403ADBD230320BD30B68036037
:101B90004B6843608B688360CB68C3601030103142
:101BA000103AF3D20C3205D351F8043B40F8043B11
:101BB000043AF9D2043208D0D2071CBF11F8013B15
:101BC00000F8013B01D30B8803806046704700BFDB
:101BD000082A13D38B07B1D010F00303AED0C3F1A2
:101BE0000403D21ADB071CBF11F8013B00F8013BCC
:101BF000A4D331F8023B20F8023B9FE7043AD9D343
:101C0000013A11F8013B00F8013BF9D20B7803705F
:101C10004B7843708B7883706046704770B484074C
:101C200046D0541E002A41D0CDB2034602E0621EC7
:101C3000E4B3144603F8015B9A07F8D1032C2ED9BC
:101C4000CDB245EA05250F2C45EA054519D92646AA
:101C500003F11002103E0F2E42F8105C42F80C5CAB
:101C600042F8085C42F8045C02F11002F2D8A4F1D8
:101C7000100222F00F0204F00F041032032C134460
:101C80000DD91E462246121F032A46F8045BFAD8D5
:101C9000221F22F00302121D134404F003042CB18E
:101CA000C9B21C4403F8011BA342FBD170BC7047AE
:101CB00014460346C2E700000000000054545220BE
:101CC000524547474553000D0A5468652049535211
:101CD00020666F722074686520444F43206973202A
:101CE000636F6E66696775726564207468726F757C
:101CF00067682074686520496E74657272757074C7
:101D00007320746162206F662074686520465350AA
:101D100020436F6E666967757261746F722E003151
:101D20002E30000D0A546869732070726F6A656303
:101D3000742064656D6F6E73747261746573207462
:101D40006865206469726563742061636365737399
:101D50002C20636F6E66696775726174696F6E2C93
:101D600020616E64206F7065726174696F6E206FA0
:101D70006620444F4320534652732E000D0A4C45B3
:101D8000442033206973207475726E6564204F4E51
:101D900020696620746865726520697320616E2011
:101DA0006578706563746564206572726F72206512
:101DB0006E636F756E746572656420647572696EAA
:101DC00067206F7065726174696F6E2E000D0A4C2A
:101DD00045442032206973207475726E6564204F0B
:101DE0004E20746F20696E64696361746520746845
:101DF00065207375636365737366756C20636F6EBE
:101E0000636C7573696F6E206F66206170706C69AA
:101E1000636174696F6E20657865637574696F6E50
:101E20002E00284E554C4C29000D0A4C45442031BB
:101E300020616E64204C454420322061726520741C
:101E400075726E6564204F4E2069662074686572F5
:101E50006520697320616E206578706563746564C0
:101E6000206572726F7220656E636F756E74657235
:101E7000656420647572696E67206F706572617445
:101E8000696F6E2E000D0A52657475726E6564205E
:101E90004572726F7220436F64653A2030782578FE
:101EA00020200D0A000D0A4C454420312069732082
:101EB0007475726E6564204F4E207768696C65207A
:101EC00070726F6772616D20636F6E74726F6C20D9
:101ED000776169747320666F72207468652055732A
:101EE000657220446566696E6564204953522074AA
:101EF0006F20657865637574652E000D0A4C454446
:101F00002032206973207475726E6564204F4E20F4
:101F10006F6E6C7920696E646963617465207468A2
:101F200065207375636365737366756C20636F6E8C
:101F3000636C7573696F6E206F66206170706C6979
:101F4000636174696F6E20657865637574696F6E1F
:101F50002E005465726D696E616C000D0A2A2A2A82
:101F60002A2A2A2A2A2A2A2A2A2A2A2A2A2A2A2AD1
:101F70002A2A2A2A2A2A2A2A2A2A2A2A2A2A2A2AC1
:101F80002A2A2A2A2A2A2A2A2A2A2A2A2A2A2A2AB1
:101F90002A2A2A2A2A2A2A2A2A2A2A2A2A2A2A0DBE
:101FA0000A2A20202052656E6573617320465350C3
:101FB000204578616D706C652050726F6A6563743E
:101FC00020666F7220426172656D6574616C206F6E
:101FD0007065726174696F6E20202020202020209F
:101FE00020202A0D0A2A2020204578616D706C651A
:101FF0002050726F6A6563742056657273696F6EE4
:102000002025732020202020202020202020202078
:1020100020202020202020202020202020202020C0
:1020200020202020202A0D0A2A202020466C6578B6
:1020300020536F667477617265205061636B205620
:10204000657273696F6E202025642E25642E2564C9
:102050002020202020202020202020202020202080
:102060002020202020202020202020202A0D0A2A85
:102070002A2A2A2A2A2A2A2A2A2A2A2A2A2A2A2AC0
:102080002A2A2A2A2A2A2A2A2A2A2A2A2A2A2A2AB0
:102090002A2A2A2A2A2A2A2A2A2A2A2A2A2A2A2AA0
:1020A0002A2A2A2A2A2A2A2A2A2A2A2A2A2A2A2A90
:1020B0002A0D0A526566657220746F20726561642C
:1020C0006D652E7478742066696C6520666F722069
:1020D0006D6F72652064657461696C73206F6E202A
:1020E0004578616D706C652050726F6A656374200D
:1020F0000D0A000D0A546865205346527320616E24
:102100006420696E74657272757074732061726593
:1021100020636F6E666967757265642064697265B5
:1021200063746C7920746F20706572666F726D20B5
:102130006120636F6D70617269736F6E206D617481
:1021400063682E000D0A4C454420312069732074C9
:1021500075726E6564204F4E206F6E6C79207768C3
:10216000696C652070726F6772616D20636F6E7449
:10217000726F6C20776169747320666F7220746867
:1021800065205573657220446566696E65642049F3
:10219000535220746F20657865637574652E000D49
:1021A0000A52656163686564204170706C6963619F
:1021B00074696F6E20456E642E0D0A003031323323
:1021C00034353637383941424344454600800000B3
:1021D00000000000008000000100000000800000FE
:1021E00002000000008000000300000000800000EA
:1021F00004000000008000000500000000800000D6
:1022000006000000008000000700000000800000C1
:1022100008000000008000000900000000800000AD
:102220000A000000008000000B0000000080000099
:102230000C000000008000000D0000000080000085
:102240000E000000008000000F00000000000000F1
:102250000001000000000102010100000000010374
:102260000201000000000103030100000000000063
:102270000A010000000001150B010000000001022E
:102280000C010000000001060D0100000004010621
:102290000E010000000401060F0100000000010013
:1022A000010200000000010302020000000001031F
:1022B000030200000000010304020000000001030B
:1022C000050200000000011A0602000004000000E0
:1022D00007020000000001000802000000000100E9
:1022E00009020000000001000A02000000000100D5
:1022F0000B020000000001000C02000000000100C1
:102300000D02000000000103000300000000011A9C
:10231000040300000000011A050300000000011A78
:10232000060300000000011A070300000000011A64
:102330000803000004000000090300000000011A67
:102340000A0300000000011A0B0300000000011A3C
:102350000C030000000000000D030000004000001E
:102360000E030000000001060F030000000001053D
:102370000004000000000105010400000000011A33
:10238000020400000000011A030400000000011A0A
:10239000040400000000011A050400000000011AF6
:1023A00006040000000001130704000000000113F0
:1023B00008040000000001130904000004000000EC
:1023C0000A040000000000000B04000004000000EC
:1023D0000C040000040000000D04000000000104D3
:1023E0000E040000000001040F0400000080000043
:1023F00000050000008000000105000000800000D2
:1024000002050000000000000305000000000000BD
:1024100004050000040000000505000000000103A1
:10242000070500000000010308050000050000008A
:1024300009050000050000000A0500000000011A5F
:102440000B050000040000000C05000000800000E7
:102450000D050000000401070E050000000401073F
:102460000F0500000000010300060000000001034A
:102470000106000000000103020600000000010345
:102480000306000000000103040600000000010331
:102490000506000000040106090600000000010610
:1024A0000A060000040000000B0600000000010303
:1024B0000C060000000001030D06000005000000EE
:1024C0000E060000000001020F0600000000011AC5
:1024D000000700000000011A010700000000011AB7
:1024E000020700000000011A030700000000011AA3
:1024F000040700000000011A0507000000000109A0
:102500000607000000400000070700000000011A55
:10251000080700000000011A09070000000001047C
:102520000A0700000000011A0B0700000000011A52
:102530000C0700000000011A0D0700000000011A3E
:102540000E070000004000000F0700000000000020
:1025500000080000004000000208000000400000E9
:1025600003080000000001020408000000800000D1
:1025700005080000008000000608000004000000BC
:1025800008080000040000000908000000800000A6
:102590000C080000040000000D08000000000113FA
:1025A0000E080000000001130F08000005000000E5
:1025B0000009000000000000010900000400000004
:1025C000040900000000011A050900000000011ABA
:1025D000060900000000011A070900000000011AA6
:1025E000080900000000011A0909000000000000AD
:1025F0000B090000000000000C09000004000000AE
:102600000D09000000000000000A000000000104A5
:10261000020A000000000104030A00000500000097
:10262000040A00000000010D050A0000040000007B
:10263000060A000000000000070A00000040000039
:10264000080A000000400000090A000000400000E5
:102650000A0A0000040000000B0A00000000010547
:102660000C0A0000000001050D0A00000000010531
:102670000E0A0000050000000F0A00000000011A09
:10268000000B00000000011A010B00000000011AFD
:10269000020B00000000011A030B00000000011AE9
:1026A000040B000000400000050B000004000000C7
:1026B000060B000000000000070B00000000011ADC
:1026C000080B00000000011A090B00000000011AAD
:1026D0000A0B00000000011A0B0B00000000011A99
:1026E0000C0B00000000011A0D0B00000000011A85
:1026F0000E0B0000000001100F0C00000000011084
:10270000000D000000000115010D00000000011582
:10271000020D000000000115030D0000000001156E
:10272000040D000000000115050D0000000001155A
:10273000060D000000000115070D0000AE000000AE
:10274000CC210002000000006F0302040304040413
:1027500000000068000000680000008000000080A9
:102760000000007000000070000000220000002245
:102770000B00000088270002190000000C2800024E
:1027800004000000502700020000006800000068FC
:102790000001000D00000068000000680001000D4D
:1027A00000000080000000800001000800000080A0
:1027B00000000080000100080000007000000070B0
:1027C0000001000A00000070000000700001000A13
:1027D00000000000000000000100000500000020D3
:1027E0000000002001000004000000220000002280
:1027F000000000032C0400225C09002200000003FA
:102800005C0900225C09002200000003000000684F
:1028100000000068000000900001090D0000006841
:10282000000000680000007800010B0D0000006847
:1028300000000068000000270001020D0000006891
:1028400000000068440000020001010D000000804B
:1028500000000080000000900001090800000080D6
:10286000000000800000007800010B0800000080DC
:102870000000008000000027000102080000008026
:102880000000008044000002000101080000007008
:1028900000000070000000900001090A00000070B4
:1028A000000000700000007800010B0A00000070BA
:1028B00000000070000000270001020A0000007004
:1028C00000000070440000020001010A0000000046
:1028D0000000000000000090010109050000000058
:1028E000000000000000007801010B05000000005E
:1028F00000000000000000270100020500000000A9
:10290000000000004400000201000105000000205A
:1029100000000020000000900101090400000020D8
:10292000000000200000007801010B0400000020DE
:102930000000002000000027010002040000002029
:1029400000000020440000020100010400000022F9
:102950000000002200000090000109030000002296
:10296000000000220000007800010B03000000229C
:1029700000000022000000270000020300000022E7
:102980000000002244000002000001035C09002254
:102990005C09002244000002000001030600000060
:1029A0000800000003000000050000000A0000000D
:1029B000010002000800100020000E060F0A040AA1
:1029C000000909050A05D4D406000000BA2900024E
:1029D00000000406362E342E30004275696C7420D7
:1029E000776974682052656E6573617320416476FF
:1029F000616E63656420466C657869626C6520531E
:102A00006F667477617265205061636B61676520E2
:0E2A100076657273696F6E20362E342E30009C
:0200000402C92F
:04F04000FFFFFFFFD0
:04F04400EDFFFFFFDE
:04F0C000FFFFFFFD52
:04F0C400FFFFFFFF4C
:04F1200000000000EB
:04F1240000000000E7
:0400000502001831AC
:00000001FF
