:10000000B804FE1FA1280000812700009D280000E1
:100010009D2800009D2800009D2800009D280000CC
:100020000000000000000000000000009D2800000B
:100030009D280000000000009D2800009D28000071
:10004000C91B0000691C0000411D0000291E0000A2
:10005000C91B0000691C0000411D0000291E000092
:1000600002000000D0000000060000007000000048
:1000700000000090000000900000006000010C0DE6
:100080000000009000000090000010400001020DF0
:100090000000009000000090400400000001010DED
:1000A0002000FE1F2000FE1F0000006000010C0366
:1000B0002000FE1F2000FE1F000010400000020371
:1000C0002000FE1FB400FE1F4004000000000103DA
:1000D00000000090000000900001000DD004FE1F01
:0800E0000C12FE1F00000003DA
:04040000FFFFFFFFFC
:04040400FFFDFFFFFA
:10044000FFFFFF0000001008000000000000000097
:100450000000000000000800000000000000000094
:100460000000000000001008000000000000000074
:100470000000000000000800000000000000000074
:10048000000000006800FE1F00000000D410FE1FE6
:100490003C11FE1FA411FE1F000000000000000020
:1004A000000000000000000000000000000000004C
:1004B000000000000000000000000000000000003C
:1004C000000000000000000000000000000000002C
:0404D0000000000028
:1004D4000348044B834202D0034B03B118477047CF
:1004E400B400FE1FB400FE1F000000000548064BC8
:1004F4001B1AD90F01EBA301491002D0034B03B11E
:1005040018477047B400FE1FB400FE1F000000002F
:1005140010B5064C237843B9FFF7DAFF044B13B147
:100524000448AFF300800123237010BDD004FE1FE4
:10053400000000000804000008B5054B1BB1054984
:100544000548AFF30080BDE80840FFF7CFBF00BF08
:1005540000000000D404FE1F080400002DE9F0414F
:10056400D0E902850446A8EB050740689742284471
:10057400154408D83A460E46A5EB080502F018FAC9
:1005840060682A46F11902F013FABFF35F8FE56041
:10059400BDE8F0812DE9F8430646D0E90204894616
:1005A40017464FF0000833699C4203F1FF3228BF1D
:1005B40003F1FF33A0EB04052ABF1B18131B1B1BFD
:1005C400BD4228BF3D469D42706828BF1D4649462E
:1005D4002A46204402F0ECF9B0682C44A844A9440B
:1005E4007F1BA04208BF0024BFF35F8FF460002F7D
:1005F400D9D14046BDE8F88310B5154CA822002196
:10060400204602F0FDF903212161124A616112487A
:10061400A2614FF40061E061002321620F48A362EC
:1006240040216362E36222666066A1662367E36633
:100634006367BFF35F8F0A4BA3F1100C1846C21A0D
:1006440013F9011DA1546345F9D1BFF35F8F10BDA8
:100654002C0DFE1F1C2B00002C05FE1FEC04FE1F9E
:10066400043600002DE9F04FDFF8A89099F8003027
:10067400532B83B005460F46144601D0FFF7BCFF49
:1006840005EB450309EBC3034FEA4508D3F86CB007
:100694001E6F5E451FD8ABEB060B5C4528BF5C465E
:1006A4001CB9204603B0BDE8F08FA24608EB050351
:1006B40009EBC3033846596E2246314402F078F9F7
:1006C4002644BAF1000F04D0A84409EBC808C8F8BE
:1006D40070605446E5E79A6E596E0193A2EB060AE0
:1006E400A24528BFA24631445246384602F060F97A
:1006F400019B9B6E5644B342A4EB0A0414BFABEBBC
:10070400060B00265C4528BF5C46002CD9D0574414
:10071400A244CBE72C0DFE1F10B50B46EFF311845A
:100724004FF0200181F311881946FFF79BFF84F3F2
:10073400118810BD38B5214B00EB400403EBC40E07
:100744000130DEF82C4000EB4000012C8C461546AD
:1007540003EBC00015D0022C0FD034BBDEF82830D8
:10076400DEF8242093429CBFDEF820105B18013B86
:100774009A1A95421CD9204638BDBDE83840FFF787
:1007840009BFDEF82830DEF82440A3429CBFDEF81F
:1007940020105B18013B1C1B944228BF14462246C0
:1007A4006146FFF7DBFE204638BD0024204638BDF5
:1007B4002A466146FFF7D2FE2C46DCE72C0DFE1FCD
:1007C400F8B50B4B1B78532B04460D46164601D047
:1007D400FFF712FFEFF311874FF0200181F3118827
:1007E400324629462046FFF7A5FF87F31188F8BD56
:1007F4002C0DFE1F10B5064C2378532B01D0FFF7A8
:10080400FBFEE36E206FC01A18BF012010BD00BFAD
:100814002C0DFE1FD0E9013210B50446501C98423D
:1008240007D823689954E2686368A0600132E260E3
:1008340002469A4200D010BD21682069FFF7C0FF2C
:10084400A368984215BF4FF0FF330023E360A36011
:1008540010BD00BF2DE9F84F1546A942DDF82890D8
:100864000B9A0F4683461E4669D30B464FF0010888
:10087400B3FBF5F39D4208F10108F9D9B04538BF3F
:10088400B04612F0010A02D1B9F1000F3ED1DBF8F3
:100894000C30002B29DB012402E0013E05FB04F4AB
:1008A400012EFAD8B7FBF4F39D4205D805FB04F4F6
:1008B400B7FBF4F39D42F9D9224E06E0AC42B4FBF7
:1008C400F5F30CD31C46B7FBF3F3F156584604FB7F
:1008D4001377FFF79FFFDBF80C30002BEEDABAF149
:1008E400000F02D0B9F1000F07D1BDE8F88FFFF770
:1008F40091FFDBF80C30002BF7DBC1454FF02001F2
:10090400584609F1FF39F2D8BDE8F88F930711D49E
:1009140020240AE0FFF77EFFDBF80C30002B09F1FE
:10092400FF39E2DBB9F1000FB3D0C1452146584687
:10093400F0D8ACE7002E0CBF30242024F5E74FF0AC
:1009440001089BE7083600002DE9F04F9BB04023D7
:100954000DF12809CDE904930023CDE90730804641
:100964000C461746069306E004A8FFF753FF079BBF
:10097400002BC0F2AE8014F9011B002900F0A18005
:100984002529F1D10026234613F9011BA1F12302E5
:100994000D2A08D8DFE802F08007070707070707D2
:1009A4007C0784070778A1F13002D2B2092A4FF0FC
:1009B400000501D90EE0013305EB850501EB450582
:1009C40093F90010A1F13002D2B2092A1C46A5F114
:1009D4003005F0D92E2900F08080002294F900100F
:1009E400924621F00403682B04F101045CD025290C
:1009F400BAD05839CBB2202BB9D82029B7D801A303
:100A040053F821F02F0B0000730900007309000054
:100A140073090000730900007309000073090000E2
:100A240073090000730900007309000073090000D2
:100A34004B0B0000D30B0000730900007309000086
:100A440073090000730900007309000073090000B2
:100A540073090000730900007309000073090000A2
:100A640073090000B50B000073090000730900004E
:100A7400790B0000730900005F0B0000730900008C
:100A8400730900002F0B000046F002061C467AE7AB
:100A940046F004061C4676E746F008061C4672E754
:100AA40046F001061C466EE714F9011B21F004030D
:100AB400682B9CD114F9011B21F00403682B96D1F7
:100AC400F2E7079B002B04DD069C002C40F0B3806A
:100AD400234418461BB0BDE8F08F94F901102A296D
:100AE40009D13B6802341A1D3A6094F900101A685F
:100AF4004FF0010A75E7A1F13003DBB2092B04F1D1
:100B040001044FF0000200F2E38002EB820201EBE9
:100B1400420214F9011FA1F13003DBB2092BA2F147
:100B24003002F2D94FF0010A5BE7386813460168D6
:100B340010220430CDE9005638600DEB0200FFF7B7
:100B440089FE079B14E73B681A1D93F900103A606D
:100B540004A8FFF75FFE079B0AE7386801680430C2
:100B64001346CDE900560A22386004A8FFF772FE46
:100B7400079BFDE63B68191D39601D68002D00F0D8
:100B84008E800132AE1815F9011B04A800293FF428
:100B9400EEAEBAF1000F02D0B5423FF4E8AEFFF773
:100BA40039FE079B002BEEDA18461BB0BDE8F08F28
:100BB4003A68116804323A60002208230192102234
:100BC40000930DEB0200FFF745FE079BD0E63B6860
:100BD400D3F800B004333B608BEAEB73A3EBEB7305
:100BE400092B77DD4E484FF0010A19466329A0FB13
:100BF40003C30AF1010A4FEAD303F6DC924538BF76
:100C040092460DBB0798002503460028FFF661AF06
:100C1400BBF1000F47DB730753D406F00303022B29
:100C24005BD01346CDE9005659460A2204A8FFF7C3
:100C340011FE079B9CE62246494640460393FFF774
:100C4400BFFD039B234444E7BBF1000F06F00203FE
:100C54001CDB71071AD4002B59D0A2B1F3070ED5AF
:100C640011E004A80392FFF7D5FD0798039A002822
:100C740005F1FF350346FFF62CAF002DC5D0AA457C
:100C84004FF02001EDD307980346BEE7013D0BB1B9
:100C9400002AF8D0F107F6D4002DF0D1B2E7214DA7
:100CA4004FF0000A6DE72D2104A80392FFF7B2FD6F
:100CB400039ACBF1000B079800280346FFF609AF0F
:100CC400ABE72B2104A80392FFF7A4FD039AF2E7F4
:100CD400924686E64FF0010A90E7002AA1D1002D42
:100CE4009FD055454FF0300117D904A80392FFF760
:100CF40091FD0798002805F1FF350346FFF6E9AE9C
:100D0400039A002DEDD10028FFF6E3AE89E7F00742
:100D1400B5D5079B002B84DADBE60346F3E700BF77
:100D2400CDCCCCCC282B00000EB400B582B003ABE4
:100D340001AA53F8041B0193FFF706FE02B05DF805
:100D440004EB03B0704700BF30B5002495B04022D7
:100D5400214604A8039401F053FE03A801F0B8FC53
:100D640055492046FFF7E0FF54492046FFF7DCFFD2
:100D7400534A54492046FFF7D7FF9DF80D209DF8AC
:100D84000E305149009220469DF80F20FFF7CCFF0A
:100D940049492046FFF7C8FF4C492046FFF7C4FFE6
:100DA4004B492046FFF7C0FF00F0BEF800284CD0A6
:100DB400054648492046FFF7B7FF47492A462046DB
:100DC400FFF7B2FF00BE45490020FFF7ADFF4449DD
:100DD4000020FFF7A9FF43490020FFF7A5FF424980
:100DE4000020FFF7A1FF0024032C28D0FFF702FD09
:100DF4000028FBD0402204A90020FFF78DFC04A8A2
:100E040001F0E4FDC4B2022C23D0032C08D0012C41
:100E140030D100F0D1F80546002848D033491DE010
:100E240000F02AFB044600283DD031490020FFF79A
:100E34007BFF294922460020FFF776FF00BE2D499B
:100E44000020FFF771FF15B030BD2B49FFF76CFF91
:100E5400B9E700F0DDF90546E8B128490020FFF7BD
:100E640063FF00F04BFB1C492A460020FFF75CFFA0
:100E740000BE13E019490020FFF756FF184900206F
:100E8400FFF752FF17490020FFF74EFF16490020D5
:100E9400FFF74AFFA8E71A49FFF746FF1949002060
:100EA400FFF742FFA0E71849FFF73EFFC7E71749DE
:100EB400FFF73AFFF2E700BF302B0000782B000069
:100EC400C02B0000C42B0000082C0000542C000090
:100ED400D42C0000EC2D0000082E0000482E000049
:100EE400702E0000942E0000B02E0000C42E0000CE
:100EF400702F0000B42F0000282E0000202F0000C7
:100F0400442F0000D82F0000902F0000F02E000086
:100F1400022800D070470249024801F0BBB800BF64
:100F240030370000D80FFE1F10B51949194800F0DA
:100F3400A9FCF0B91849194800F0A4FC044608B902
:100F4400204610BD164B174A17490020FFF7ECFE48
:100F5400124800F023FBC8B90E4800F01FFB00281C
:100F6400EED0124B0F4A10490020FFF7DDFE204659
:100F740010BD0F4B04460B4A0B490020FFF7D4FE6B
:100F8400044800F00BFB0028DAD0EAE7094BF2E74B
:100F940068360000E00FFE1FCC3600002010FE1F54
:100FA4008C3000005C3600003C30000058300000FB
:100FB4000C300000BC3000002DE9F0472022002155
:100FC4007B487B4C7B4D01F01BFD202200217A489D
:100FD40001F016FD20220021784801F011FD784926
:100FE4000020FFF7A1FEFFF705FC0028FBD02146F7
:100FF40080220020FFF790FB294610B9FFF794FEEA
:10100400F1E7431E9E0813F0030379D001366B49C0
:101014006C481F23324600F013FC8046002872D12E
:10102400634969481F23324600F016FC80460028B5
:1010340040F09880654C664D664F0BE02368013B99
:1010440023602368002B7AD02B78022B64D03B7862
:10105400022B61D02B78012BF0D13B78012BEDD101
:101064004FF000096FF07F435B492360484685F8E1
:10107400009087F80090FFF757FE504951481F230E
:10108400324600F0E9FB8046002874D14A494E48B4
:101094001F23324600F0D4FB804660B172E023681F
:1010A400013B23602368002B49D02B78022B33D0DB
:1010B4003B78022B30D02B78012BF0D13B78012BDD
:1010C4005FFA83FAEBD14FF0000944496FF07F4394
:1010D4004846236085F8009087F80090FFF724FEC7
:1010E40035493348324601F07BFC002851D1324A5D
:1010F4003B49FFF719FE3B49504601F0F9FA08E075
:1011040044F8263083E7384B384A39490020FFF742
:101114000BFE4046BDE8F087364B344A3449002084
:10112400FFF702FE34490020FFF7FEFD4FF49678E6
:1011340032490020FFF7F8FD4046BDE8F0872D4B0B
:101144002A4A2B490020FFF7EFFD2B490020FFF727
:10115400EBFD4FF0140829490020FFF7E5FD404658
:10116400BDE8F087264B214A21490020FFF7DCFD2A
:101174004046BDE8F087234B1C4A1D494846FFF70B
:10118400D3FDC6E7204B194A19494846FFF7CCFD61
:10119400BFE71E494846FFF7C7FD17494846FFF712
:1011A400C3FD16494846FFF7BFFD40F22F18B0E7CC
:1011B400540FFE1F3C310000D40EFE1FD40DFE1F41
:1011C400EC3000002010FE1FE00FFE1F2000FE1F69
:1011D400D50FFE1FD40FFE1FFC310000703200003B
:1011E400A032000040420F004C310000483600009D
:1011F4003C30000088310000B8310000E4310000C8
:10120400683100003032000050320000CC3200005F
:101214002DE9F041202282B000217D487C4D7D4C97
:1012240001F0EEFB202200217B4801F0E9FB2022A3
:1012340000217A4801F0E4FB20220021784801F0E3
:10124400DFFB78490020FFF76FFDFFF7D3FA002892
:10125400FBD0294680220020FFF75EFA214610B910
:10126400FFF762FDF1E7431E9C0813F0030371D0FE
:1012740001346D49694D674E0020FFF755FDFFF7B6
:10128400B9FA0028FBD0294680220020FFF744FA4F
:10129400314610B9FFF748FDF1E7431E13F003028E
:1012A40002D19B0845F823201F255D4A5B495F480E
:1012B4000095234600F0DAFA064600284DD1564A36
:1012C40053495B480095234600F0D0FA06460028AF
:1012D40074D1584A584959480BE01368013B1360CC
:1012E4001568002D57D00B78022B40D00378022BC1
:1012F4003DD00B78012BF0D10378012BDDB2ECD17A
:1013040000276FF07F4313600F704D490770384614
:10131400FFF70AFD4B493846FFF706FD3E493F48B3
:10132400224601F05DFB8046002851D13A4A4649E5
:10133400FFF7FAFC3A493648224601F051FB0028EF
:1013440057D1374A4149FFF7EFFC4149284601F09C
:10135400CFF908E045F824308BE73E4B3E4A3F493D
:101364000020FFF7E1FC304602B0BDE8F0813C4BC1
:10137400394A3A490020FFF7D7FC3A490020FFF7E1
:10138400D3FC39490020FFF7CFFC4FF49676304662
:1013940002B0BDE8F081324B2F4A30492846FFF7AE
:1013A400C3FC30492846FFF7BFFC2F492846FFF706
:1013B400BBFC1426304602B0BDE8F0812B4B264A14
:1013C40026490020FFF7B0FC304602B0BDE8F081AA
:1013D400274B214A21493846FFF7A6FC21493846C4
:1013E400FFF7A2FC20493846FFF79EFC40F22F1677
:1013F400B9E7204B184A19494046FFF795FC1949AB
:101404004046FFF791FC18494046FFF78DFCEDE795
:10141400540FFE1F3C310000D40EFE1F540EFE1F5D
:10142400D40DFE1F04330000543300002010FE1FAF
:10143400E00FFE1F2000FE1FD50FFE1FD40FFE1F5E
:101444001C3400004C3400007C340000EC340000F8
:1014540040420F00A4330000383600003C30000046
:10146400EC330000B8310000E4310000C833000060
:10147400A43400001435000010B50E4800F08EF8B6
:1014840070B90D4800F08AF8044608B9204610BD2A
:101494000A4B0B4A0B490020FFF746FC204610BDBF
:1014A4000446094B064A07490020FFF73DFC204645
:1014B40010BD00BFE00FFE1F2010FE1F7C35000092
:1014C400283600003C3000005C3500000379012B15
:1014D40003D0034B02221A707047014A13707047FD
:1014E400D50FFE1F0379012B03D0034B02221A7080
:1014F4007047014A13707047D40FFE1F10B50E4891
:1015040000F04CF820B90D4800F048F858B910BD67
:101514000B4B0C4A0C490020FFF706FC074800F06F
:101524003DF80028F3D0BDE81040084B054A0649B1
:101534000020FFF7F9BB00BFE00FFE1F2010FE1FC5
:101544009C350000183600003C300000C83500000F
:1015540008B5FFF7F9FB002008BD00BF30B5836A6A
:1015640085B004468C4601ADABB193E8070085E82D
:1015740007006268117883F804C0E26A9A6019600F
:101584001846626A9047A36A1BB195E8070083E88E
:10159400070005B030BD2B46EBE700BF002867D03D
:1015A400344B02689A4210B504465FD143685A69C5
:1015B4000021016022B1936810681B6A9847636830
:1015C4001A6922B1936810681B6A9847636893F993
:1015D4000220002A0EDB530927480121203302F0A0
:1015E4001F0201FA02F240F82320BFF34F8FBFF32A
:1015F4006F8F636893F90120002A0EDB53091E489C
:101604000121203302F01F0201FA02F240F82320E4
:10161400BFF34F8FBFF36F8F636893F9033016489E
:1016240059090122203103F01F0302FA03F340F8A1
:101634002130BFF34F8FBFF36F8F636893F904308A
:10164400590903F01F039A4001F1200340F82320B5
:10165400BFF34F8FBFF36F8FA268137823F040035B
:1016640000211370D378D170084610BD072010BD37
:10167400012070474950535200E100E02DE9F04148
:1016840084B09DF82870002800F0B18090461D4673
:101694000268684B9A42044640F0AD800E46002929
:1016A40000F0A180002D00F0A2806268536963B14C
:1016B4009A681868D36969469847002840F098806A
:1016C400029BAB42C0F09380626813695BB19A6875
:1016D4001868D36969469847002840F08980029BBE
:1016E400AB42C0F08480062F40F281800F2F04D9D2
:1016F4007B1C9B077BD11B2F79D0A268137813F036
:1017040040037CD1C4E90533636884F820705869C8
:10171400E561C4E9036810B34368A5610F2F196834
:101724006FD8FB1F18BF01234A881B0322F44052C1
:1017340043F0080322F00C0213434B80ABB2CB817D
:10174400C1F80880B8F1000F66D0836800685B6850
:10175400984700284CD1636894F82070A268D3F8A5
:1017640010C0BCF1000F24D0DCF8043065610F2FE9
:10177400196848D8072F94BF002301231B0143F0A5
:101784000800ABB2CB81CB784E6023F03C0303431B
:10179400CB70002E47D01378DCF8000023F0200330
:1017A4001370DCF808305B68984708BBA26894F8AB
:1017B4002070D17A138A0F2FC9B29BB225D9013771
:1017C40021F04001BF08053F41F0200123F470637C
:1017D40043EA07239BB2D1721382137843F0600368
:1017E4000020137004E0B8F1000F7FF45BAF012018
:1017F40004B0BDE8F081072004B0BDE8F081082002
:10180400F6E7022390E70223B8E7072F94BF41F0DD
:10181400400101F09F01D9E78B7868F383038B7053
:10182400054B8B6091E7DBB266F38303CB70034B0C
:101834004B60B0E7495053526410FE1F6010FE1F06
:1018440000B583B0009313460A460021FFF716FF44
:1018540003B05DF804FB00BF00B583B000931346EA
:101864000022FFF70BFF03B05DF804FB30B49DF8D2
:10187400085021B11AB1029530BCFFF7FFBE012018
:1018840030BC70472DE9F04F83B0002849D0B14BEC
:1018940002689A42044600F048810D46002940D06F
:1018A4008B69002B3DD00B6A002B3AD00B78012BAF
:1018B40000F2358191F90320002A32DB91F90420EA
:1018C400002A2EDB4A7A012A03D18A7A012A40F0BF
:1018D4003E81DFF894822F691B02984467B1D7E9EF
:1018E40001131A680B684FF000601860C3F8088091
:1018F400386890470646A8B96B69BBB1D3E90112B1
:1019040018680B681268C3F804804FF400261E6040
:101914009047064650B12FB1BB6838681B6A984798
:1019240000E00126304603B0BDE8F08FD5E9061388
:101934000022C4E90A2365606162287800F5800307
:1019440003F5E4631B02A3606E7A002E00F0F280BC
:101954001146B02796466B7B95F80BC02A6AAD7A80
:101964001B0343EA4C032B431578002D40F0EC8015
:1019740001218140890704D0B6FA86F1490943EA76
:10198400C11392F801C090784FEA4C1127EACC17A2
:1019940041EA4C0123F070053943D3781779984014
:1019A4001B011FB1022F0CBF3027202792F805C05E
:1019B400BCF1000F06D0BCF1010F14BF4EF0010EB4
:1019C4004EF0030E92F808C092F806900CF0030C47
:1019D40043EA8C032B43002E40F0B180557A0095E6
:1019E40092F80B80957A019543F46043EFF3108AE3
:1019F400012585F31088666896F800C0564ECCF130
:101A0400130CD6F800B105FA0CFC2BEA0C0BC6F843
:101A140000B1D6F800618AF31088A668C9B296F8B6
:101A240003C0C0B24FF0000C86F803C03170707070
:101A3400B770D279B272009A3273019A72739BB200
:101A4400626886F80E805FFA8EFE86F80FE03382B5
:101A540086F8209092F90230634580F287803F49EE
:101A640092F90130002B26DB527903F1604000F536
:101A740061401201D2B280F8002303F1C000384A59
:101A840041F8234052F8205025F4803542F8205084
:101A940052F82020BFF35F8F5A09920002F160428E
:101AA400012002F5614203F01F0300FA03F3C2F8B8
:101AB40080311360626892F904302A48127A284D02
:101AC400C6181201D2B286F8002303F1C00241F80D
:101AD400234055F8226026F4803645F8226055F8F4
:101AE4002220BFF35F8F03F01F055B099B0003F106
:101AF400604303F561430122AA40C3F880211A60C0
:101B0400636893F90320DB7910441B01DBB280F88E
:101B14000033104B41F822400026236002E740F2D4
:101B24007A56304603B0BDE8F08F0E26304603B037
:101B3400BDE8F08FB82708214FF0100E0BE74FF0E7
:101B44000008CDE9008851E741F0B10719E70626FE
:101B5400E8E600BF49505352006F0440A410FE1F32
:101B64000060004000E100E004200740927903F1A6
:101B7400604101F561411201D2B281F800230F499D
:101B84000F4A41F8234003F1C00052F820606CF37F
:101B9400104642F8206052F82020BFF35F8F03F014
:101BA4001F025B099B0003F1604303F56143954009
:101BB400C3F880511D60626852E700BFA410FE1F85
:101BC4000060004010B4EFF30383103B5BB203F1F9
:101BD400C001214A52F8210020F4803042F821004B
:101BE40052F821201D4A52F82330D3E906218A42B3
:101BF4001CD018699C6840B393F820C0BCF10F0F47
:101C04000AD9616840F82210D96901328A429A617E
:101C14000CD05DF8044B7047BCF1070F17D821793D
:101C24008154D96901328A429A61F2D15B6893F98D
:101C340003300B495809012203F01F0302FA03F38E
:101C440041F820305DF8044B70476068DDE7A488F4
:101C540020F81240D9E700BF00600040A410FE1F26
:101C640000E100E010B5EFF30383103B5BB23049B1
:101C740003F1C00251F8220020F4803041F8220020
:101C840051F822202B4A52F823305C68226A72B33E
:101C940092F801C0D8695A69BCF1010F16D082428A
:101CA4000BD0D3E9020129B193F820400F2C05D9B8
:101CB40051F82210416001325A6110BD072C95BFC2
:101CC400895C31F8121001718180F4E700F1FF3E64
:101CD40096450FD021690029E1D094F903201649D3
:101CE400500902F01F020CFA02F241F820205A694E
:101CF400D869D4E794F9030000F1C00251F82240F6
:101D040024F4803441F8224051F82220BFF35F8F3D
:101D14004209920002F1604202F5614200F01F00A4
:101D24000CFA00F0C2F8800110605A69D869B6E76D
:101D340000600040A410FE1F00E100E030B4EFF3A7
:101D44000383103B5AB202F1C000334951F82040DA
:101D540024F4803441F8204003F0FF0351F82010AC
:101D64002E4951F822008168C978890705D5416850
:101D7400497A012901D030BC70475209284C01210D
:101D8400203203F01F0301FA03F344F82230BFF3B7
:101D94004F8FBFF36F8F436893F90230002B32DB10
:101DA4005A09203203F01F0301FA03F344F82230E6
:101DB400BFF34F8FBFF36F8FD0E90124237892F9DB
:101DC400022023F04003002A237018DB02F1C00430
:101DD400114B53F8245025F4803543F8245053F81C
:101DE4002430BFF35F8F53099B0003F1604302F07B
:101DF4001F0203F561439140C3F88011196030BCA0
:101E04000121FFF7ABBB8268137823F0400330BC99
:101E140013700121FFF7A2BB00600040A410FE1F55
:101E240000E100E070B5EFF30383103B5CB2354A88
:101E340052F82460736893F90230002B49DB5A0985
:101E440031492032012003F01F0300FA03F341F863
:101E54002230BFF34F8FBFF36F8FD6E9013293F96E
:101E640002301178002B21F04001117019DB03F1CD
:101E7400C001264A52F8215025F4803542F82150F9
:101E840052F82120BFF35F8F03F01F025B099B0010
:101E940003F1604303F561439040C3F88001186087
:101EA400B268D3780021D1701A07DDB224D4EB07CD
:101EB40015D405F01405142D19D0144A04F1C003E7
:101EC40052F8231021F4803142F8231052F82330C1
:101ED40070BDB268137823F040031370E1E7042166
:101EE400304605F01405FFF739FB142DE5D1082120
:101EF4003046FFF733FBE0E705213046FFF72EFBC2
:101F0400D5E700BFA410FE1F00E100E00060004020
:101F14002DE9F84F0388DBB1DFF8D88082464FF013
:101F2400000B4FF00109314D4FEACB070024DAF8DA
:101F3400043035F8022BD919898891420AD001342A
:101F4400032CF4D1BAF800300BF1010B5B45EAD84D
:101F5400BDE8F88FDB5903F0B85309FA04F6B3F17E
:101F6400807FF6B298F8BB3413D0334231D1204A83
:101F740004F1200112F81130DB09E0D012F811301D
:101F840023F0800302F81130C820012100F0B0FBD7
:101F9400D5E7334211D0164A04F1200112F811306A
:101FA400DB09CCD112F8113043F0800302F8113070
:101FB400C820012100F09CFBC1E7012000F042FC95
:101FC40098F8BB343343012088F8BB3400F00AFC92
:101FD400E1E7012000F036FC98F8BB3423EA06035D
:101FE400012088F8BB3400F0FDFBC0E79C370000FB
:101FF4000040044000E00140F8B50446FFF788FFC4
:10200400EFF31082012383F310881F4F3B681BB941
:102014001E49CB704023CB703B6801333B6082F395
:1020240010882388E3B16168194C01EBC30E8A88D8
:102034000868130AC503D2B202EB031C09D554F88D
:102044002C6020F4803526F4803644F82C6044F863
:102054002C501B01134408318E4544F82300E6D16B
:10206400EFF31082012383F310883B6813B13B68BC
:10207400013B3B603B681BB904498020CB70C870AE
:1020840082F31088F8BD00BFA010FE1F000D0440AD
:102094000008044090B189B108B54B684BB1094BB5
:1020A40002689A420CD003600846FFF7A5FF00209F
:1020B40008BD0B88002BF2D0012008BD0120704719
:1020C4000E2008BD54524F5006207047062070471A
:1020D40088B10A4B02689A420BD190F9043008493E
:1020E400C033002051F8232022F0807241F82320CD
:1020F4007047072070470120704700BF00435444D5
:10210400006000400620704706207047C37803F043
:102114000C02042A11D0827802F00C0104290CD09C
:102124003F2B04D9C3899BB2B3F5807F07D83F2ADC
:1021340000F11000EAD80020704706207047012003
:10214400704700BFF0B1194B02689A421CD1C9B163
:1021540090F90400164A002352F82020C1E9003304
:10216400D3783F2B12D9D08903F0C00310B4C0B286
:102174004FF48074802BC1E902400FD000205DF839
:10218400044B70470120704707207047D3894FF4F0
:1021940080329BB2C1E902230020704793894FF437
:1021A40080329BB2C1E90023E8E700BF00435444F6
:1021B4000000FE1F0346B8B10C4A0168914211D1D8
:1021C40090F904100A4801F1C00C50F82C2022F0B8
:1021D400807240F82C200748002240F82120104645
:1021E4001A60704707207047012070470043544429
:1021F400006000400000FE1F1A4B30B553F8203039
:1022040005464FF0FF3415E093F802C00CF00C02C1
:10221400042A1AD05A68D2B19A68C2B19A688A4319
:1022240015D1586810EA0E0003F110030FD1BCF168
:102234003F0F0ED9DA78C2F3011102F00C0204FA4E
:1022440001F1042A6FEA010EDED1062030BD01201F
:1022540030BD054AC03552F8253043F0807342F84A
:10226400253030BD0000FE1F0060004030B583B053
:102274000191009200283CD01F4A0168914233D159
:1022840090F904101D4C1E4A01F1C00C52F8215063
:1022940054F82C2022F0807244F82C2041F40041A0
:1022A400A4F54064E28992B29142FBD008222270E4
:1022B400019A0AB1019A6A60009A0AB1009AAA6066
:1022C400EA7802F0C001802911D03F2A98BFEB813F
:1022D4000C4B18221A7090F90400FFF78DFF0028A8
:1022E40018BF132003B030BD072003B030BDAB814D
:1022F400EEE7012003B030BD0043544400600040C9
:102304000000FE1F0054004048B1064B02689A4288
:1023140001D00720704790F90400FFF76DBF01203A
:10232400704700BF00435444002848D0264B02683D
:102334009A4270B5044640D10D4600293BD0084668
:10234400FFF7E4FE002836D1EB7803F03003302B9E
:1023540037D094F904C01D4B1D490CF1C00253F849
:10236400226060F3186643F822604CF40042CB8983
:102374009BB29A42FBD02B46DA783F2A194605D9FC
:10238400DA89D2B202EB022292B2DA818A783F2A47
:1023940003F11003F0D80E4B08221A700D4A42F8CC
:1023A4002C5018221A7094F90400FFF725FF002816
:1023B40018BF132070BD012070BD072070BD01201F
:1023C4007047062070BD00BF0043544400600040C5
:1023D400005400400000FE1F002839D0F8B5026800
:1023E4002B4B9A4204464FD00D4679B34B686BB3DE
:1023F400284A117871B393F90060002E46DB264F0A
:1024040057F82630002B3DD126712D68D5B12846CA
:10241400FFF77CFEC8B92B46DA783F2A194605D95E
:10242400DA89D2B202EB022292B2DA818A783F2AA6
:1024340003F11003F0D8194B08221A70182247F838
:1024440026501A70124B23600020F8BD0120F8BDFD
:102454000120704701261670EFF3108086F3108870
:102464000F4BDA6922F48002DA61DB6980F31088A9
:10247400094B2022184600F0C3FA084A6B685060E2
:102484001673B8E70820F8BD0E20F8BD0B20F8BD80
:10249400004354446810FE1F0000FE1F0054004017
:1024A40000E00140064B074993F826001A6A51F8E8
:1024B40020300549C2F30262D3400B60704700BF6D
:1024C40000E00140B804FE1FD010FE1F704700BF9B
:1024D400494B4A494A4A70B500204A4C4A4E4AF28E
:1024E4000355A3F8FE53A1F8000148496160484D23
:1024F400484922604FF40042C4E9022193F82610AF
:10250400C4E9042554F82120196AC1F30261CA40C0
:102514000921326083F8130483F8A21093F880240D
:102524001AB993F88134980761D0334D95F8803403
:10253400002B51D0304B002283F8812483F880246F
:102544002D4A0621002382F8A51082F8323092F831
:102554003C301907FBD5002342F20171118582F842
:102564002A30254B93F83C209206FBD5234A2A486F
:10257400022182F81C1129491962052183F82610C9
:1025840093F8261054F821101C6AC4F30264E14045
:102594003160F1210171BFF35F8F0E210172BFF32E
:1025A4005F8FF0240471012140244FF4254083F807
:1025B400301083F8521083F8531083F82440A3F8A2
:1025C400FE03A2F80411B2F804319BB2002BFAD135
:1025D4000123A2F8003170BD012185F88014C820C0
:1025E40000F086F895F88034012BFBD1A2E74FF474
:1025F4007A70FFF76BFFA3E700E0014000C00140E1
:10260400002D3101B804FE1FD010FE1F00127A0005
:10261400001C4E0E00366E010020004021120121E4
:1026240038B5294C002584F828500121C82000F031
:102634005FF884F8245094F82430002BFBD194F8EC
:102644002430214943F0020384F8243091F82430E3
:10265400C3F340009B07F9D41B4A81F8220092F887
:10266400223003F0FF00002BF9D192F840301649D4
:1026740060F3C71382F8403091F84030DB09FBD196
:1026840091F84200104A63F3C71081F8420092F8AF
:102694004230DB09FBD192F844000B4963F3C710C5
:1026A40082F8440091F84430C3F3C014DB09F9D133
:1026B400012000F0C7F8054B012083F8BB44BDE8B6
:1026C400384000F08FB800BF0040044000E00140F3
:1026D40018B1034B0360002070470120704700BF0E
:1026E40000000406A0F101000028FBD1704700BFE0
:1026F4001F4B204A1B68934200FB01F113D302F1E4
:10270400854202F5071203F5741302F6834203F6B9
:10271400FF03A2FB03231B0DA3FB01314FF0FF308A
:10272400F9B1FFF7DFBF4FF47A7210B4A1FB02C412
:102734001148B0FBF3F34FF0FF3044B9BCFBF3FC9A
:102744004FEA9C0088B15DF8044BFFF7CBBF9B00B8
:10275400B1FBF3F1A1FB0212002AF4D1084620B127
:10276400F1E71846002BDCD170475DF8044B704745
:10277400D010FE1F00127A0000CA9A3B0C4B70B5B1
:10278400B3F82021B3F840510A4EADB200241540ED
:1027940025FA04F3DB0704D556F82430E0B203B17C
:1027A400984701340D2CF3D1014BA3F8305170BD7F
:1027B400006000406C10FE1F10B40849084C002350
:1027C40031F8022F03F1C00001330AB144F820208C
:1027D400082BF5D15DF8044B704700BF8A37000021
:1027E40000600040EFF31081012383F31088124B43
:1027F40033F8102092B22AB133F81020013A92B281
:1028040023F8102033F810309BB293B90B4A10B45C
:10281400B2F8FE330A4C9BB234F8100043F425435B
:1028240023EA0003A2F8FE3381F310885DF8044B19
:10283400704781F310887047C410FE1F00E0014008
:10284400D037000030B4EFF31081012383F31088F4
:102854000E4A32F810309BB26BB90D4C0D4DB4F8E2
:10286400FE3335F810C09BB243EA0C0343F425430E
:102874009BB2A4F8FE3332F8103001339BB222F835
:10288400103081F3108830BC704700BFC410FE1FA5
:1028940000E00140D037000000BE704708B500F0EA
:1028A40035F8FEF755FEFEE7F8B5174F3E680546C6
:1028B400A6B17C6806EB460604EB860602E00C34FF
:1028C400B4420BD0637AAB42F9D1D4E900020021BF
:1028D400121A0C3400F094F8B442F3D1BE6896B1E5
:1028E400FC6804EB061602E01034A6420BD0637BAE
:1028F400AB42F9D1D4E90002A168121A103400F0F5
:1029040057F8A642F3D1F8BD60000000204B214ADD
:102914004FF4700170B50020C3F888109A60FEF778
:10292400F7FAFFF7D5FD0120FEF7F2FA1A4B1B4A1E
:102934001B4900244FF425409C80012518809A608F
:1029440002F580604FF48052D860A1F8202120461F
:102954009D80FFF7A9FFFFF7A5FDFFF761FE0220A9
:10296400FEF7D6FA2846FFF79FFF0E4D0E4B5B1B72
:10297400A34206DD9E1055F8043B01349847A64255
:10298400F9DCFFF719FFBDE87040002000F00EB835
:1029940000ED00E000000000000D0040B800FE1F44
:1029A400006000403439000038390000704700BF2F
:1029B4000A44914200F1FF3300D1704710B511F879
:1029C400014B03F8014F9142F9D110BD0A220021B5
:1029D40000F098B8014B1868704700BF6400FE1FF0
:1029E40010B501390244904201D1002005E003787A
:1029F40011F8014FA34201D0181B10BD0130F2E7BA
:102A040002440346934200D1704703F8011BF9E7DF
:102A1400242B2DE9F0478646904601D8012B06D198
:102A2400FFF7D8FF162303600020BDE8F087344881
:102A34000D462A4615F8014B065D16F00806F8D136
:102A44002D2C10D12C780126951C33F0100215D1B1
:102A5400302C0DD12A7802F0DF02582A08D16C7884
:102A6400023510230AE02B2C04BF2C78951CECE7CC
:102A7400002BF6D1302C14BF0A23082306F1004C96
:102A84000CF1FF3C0022BCFBF3F9104603FB19CA0E
:102A9400A4F13007092F0FD83C46A3421BDD571C75
:102AA40007D0814514D301D1A24511DB00FB0340BB
:102AB400012215F8014BEBE7A4F14107192F01D8C6
:102AC400373CEAE7A4F16107192F04D8573CE4E73F
:102AD4004FF0FF32EDE7531C08D12223CEF800302B
:102AE4006046B8F1000FA0D0691E06E006B140426E
:102AF400B8F1000F99D0002AF6D1C8F8001094E775
:102B0400DB37000013460A46014602480068FFF717
:102B14007FBF00BF6400FE1F5465726D696E616CF7
:102B240000000000284E554C4C2900000D0A2A2AAA
:102B34002A2A2A2A2A2A2A2A2A2A2A2A2A2A2A2AF1
:102B44002A2A2A2A2A2A2A2A2A2A2A2A2A2A2A2AE1
:102B54002A2A2A2A2A2A2A2A2A2A2A2A2A2A2A2AD1
:102B64002A2A2A2A2A2A2A2A2A2A2A2A2A2A2A2AC1
:102B7400000000000D0A2A20202052656E65736152
:102B84007320465350204578616D706C65205072F7
:102B94006F6A65637420666F7220725F7370692058
:102BA4004D6F64756C65202020202020202020207B
:102BB400202020202020202A00000000312E300078
:102BC4000D0A2A2020204578616D706C65205072B2
:102BD4006F6A6563742056657273696F6E2025731E
:102BE40020202020202020202020202020202020E1
:102BF40020202020202020202020202020202020D1
:102C0400202000002A0D0A2A202020466C65782006
:102C1400536F667477617265205061636B205665EB
:102C24007273696F6E202025642E25642E2564201E
:102C34002020202020202020202020202020202090
:102C440020202020202020202020202A00000000F6
:102C54000D0A526566657220746F20726561646D39
:102C6400652E7478742066696C6520666F72206DB9
:102C74006F72652064657461696C73206F6E2045A2
:102C840078616D706C652050726F6A656374206141
:102C94006E640D0A46535020557365722773204D98
:102CA400616E75616C20666F72206D6F726520694C
:102CB4006E666F726D6174696F6E2061626F757498
:102CC40020725F737069206472697665720D0A0000
:102CD4000D0A5468652070726F6A65637420696EAA
:102CE400697469616C697A65732053504920647210
:102CF4006976657220616E6420636F6E66696775BC
:102D040072657320535049206368616E6E656C73FD
:102D140020696E204D617374657220616E64205366
:102D24006C617665206D6F64652E0D0A416674656D
:102D34007220696E697469616C697A6174696F6E15
:102D44002C206D617374657220616E6420736C61F4
:102D540076652063616E207472616E736D69742090
:102D6400616E64207265636569766520646174616F
:102D7400206261736564206F6E2074686520636FE0
:102D84006D6D616E64732066726F6D20757365720C
:102D94002E0D0A526566657220746F207468652072
:102DA4004D43552055736572204D616E75616C20DD
:102DB400666F722076616C69642062697420726146
:102DC40074657320616E6420636F72726573706FD3
:102DD4006E64696E6720636C6F636B2073657474D3
:102DE400696E67732E0D0A000D0A202A2A2053509B
:102DF4004920494E4954204641494C4544202A2AF9
:102E0400200D0A000D0A52657475726E65642045C2
:102E140072726F7220436F64653A2030782578208F
:102E2400200D0A000D0A202A2A2053504920494E19
:102E34004954205355434345535346554C202A2A5D
:102E4400200D0A000D0A53656C6563742066726F69
:102E54006D207468652062656C6F77204D656E75B2
:102E6400206F7074696F6E730D0A00000D0A507242
:102E7400657373203120666F7220577269746528F8
:102E84002920616E642052656164282900000000D5
:102E94000D0A5072657373203220666F7220577268
:102EA4006974655265616428290000000D0A507236
:102EB400657373203320746F20457869740D0A009C
:102EC4002A2A2053504920575249544520414E4400
:102ED40020524541442044656D6F206661696C65EC
:102EE40064202A2A20200D0A000000000D0A2A2A44
:102EF4002053504920575249544520414E442052B2
:102F04004541442044656D6F205375636365737355
:102F140066756C2A2A20200D0A0000000D0A2A2A50
:102F2400205350492057524954452044656D6F2021
:102F34006661696C6564202A2A20200D0A0000005D
:102F44002A2A2053504920575249544520414E447F
:102F540020524541442044656D6F20537563636579
:102F6400737366756C2A2A20200D0A002A2A2053BE
:102F7400504920455849542044656D6F2066616965
:102F84006C6564202A2A200D0A0000002A2A205396
:102F9400504920455849542044656D6F207375632A
:102FA4006365737366756C202A2A200D0A0000007D
:102FB4001B5B313B33366D0D0A45786974696E6766
:102FC400205350492064656D6F2E2E2E2E0D0A1B42
:102FD4005B306D000D0A456E74657220616E792058
:102FE4006F74686572206B657920746F20676F2039
:102FF4006261636B20746F20746865206D61696E13
:10300400206D656E750D0A002A2A20525F535049BF
:103014005F4F70656E2041504920666F7220535097
:1030240049204D6173746572206661696C65642022
:103034002A2A205C725C6E005B4552525D20496E08
:103044002046756E6374696F6E3A20257328292CA7
:10305400202573002A2A20525F5350495F436C6F26
:1030640073652041504920666F7220535049204DAA
:103074006173746572206661696C6564202A2A2014
:103084005C725C6E000000002A2A20525F53504993
:103094005F4F70656E2041504920666F7220535017
:1030A4004920536C617665206661696C6564202AE9
:1030B4002A205C725C6E00002A2A20525F53504919
:1030C4005F436C6F73652041504920666F722053D3
:1030D400504920536C617665206661696C65642093
:1030E4002A2A205C725C6E000D0A456E746572209B
:1030F4007465787420696E70757420666F72204DE3
:103104006173746572206275666665722E2044610F
:1031140074612073697A652073686F756C64206EBE
:103124006F74206578636565642036342062797431
:1031340065732E200D0A00000D0A4E6F20496E7033
:1031440075740D0A000000000D0A536C6176652049
:10315400525F5350495F5265616428292066616952
:103164006C6564000D0A4D617374657220525F537F
:1031740050495F57726974652829206661696C65D6
:10318400640000000D0A535049206D6F64756C652E
:1031940020626C6F636B656420696E20577269747A
:1031A400652F52656164206F7065726174696F6E1A
:1031B4002E0D0A000D0A4572726F7220696E20632B
:1031C4006F6E66696775726174696F6E206F7220C5
:1031D400636F6E6E656374696F6E2E0D0A00000076
:1031E4000D0A526573657420746865204D43552E2D
:1031F4002E2E0D0A000000000D0A4D6173746572D5
:10320400207472616E736D6974746564207573657E
:103214007220696E707574206461746120746F200B
:10322400536C617665200D0A000000000D0A536C92
:1032340061766520525F5350495F577269746528FF
:1032440029206661696C6564000000000D0A4D6107
:103254007374657220525F5350495F5265616428EC
:1032640029206661696C6564000000000D0A536CD6
:10327400617665207472616E736D6974746564201F
:103284007468652064617461206261636B20746F8B
:10329400204D6173746572200D0A00000D0A4D61A2
:1032A4007374657220726563656976656420646110
:1032B40074613A1B5B313B33326D202573200D0A58
:1032C4001B5B306D000000000D0A52656365697672
:1032D4006564206461746120646F6573206E6F742B
:1032E400206D617463682077697468207472616EFC
:1032F400736D697474656420446174612E0D0A00F1
:103304000D0A456E746572207465787420696E7058
:10331400757420666F72204D6173746572206275D6
:10332400666665722E20446174612073697A652033
:1033340073686F756C64206E6F742065786365655F
:10334400642036342062797465732E0D0A000000FF
:103354000D0A456E746572207465787420696E7008
:10336400757420666F7220536C6176652062756691
:103374006665722E20446174612073697A652073D6
:10338400686F756C64206E6F74206578636565641E
:103394002036342062797465732E0D0A0000000013
:1033A4000D0A536C61766520525F5350495F577222
:1033B400697465526561642829206661696C656475
:1033C400000000000D0A4D617374657220525F5352
:1033D40050495F5772697465526561642829206693
:1033E40061696C65640000000D0A535049206D6FDB
:1033F40064756C65206661696C656420696E20572C
:10340400726974652F52656164206F7065726174AE
:10341400696F6E2E0D0A00000D0A4D61737465729A
:1034240020627566666572206461746120747261DD
:103434006E736D697474656420746F20536C617667
:1034440065200D0A000000000D0A536C61766520AA
:103454006275666665722064617461207472616E5F
:10346400736D697474656420746F204D6173746541
:1034740072200D0A000000000D0A4D61737465721C
:1034840020726563656976656420646174613A1BC2
:103494005B313B33326D2025730D0A1B5B306D00AD
:1034A4000D0A4D6173746572207265636569766592
:1034B40064206461746120646F6573206E6F74208E
:1034C4006D61746368207769746820536C617665F4
:1034D400207472616E736D697474656420446174E0
:1034E400612E0D0A000000000D0A536C6176652000
:1034F400726563656976656420646174613A1B5B17
:10350400313B33326D2025730D0A1B5B306D000097
:103514000D0A536C6176652072656365697665642E
:10352400206461746120646F6573206E6F74206D14
:10353400617463682077697468204D61737465727F
:10354400207472616E736D6974746564204461746F
:10355400612E0D0A000000000D0A4D61737465723E
:1035640020525F5350495F436C6F7365282920666E
:1035740061696C65640000000D0A536C6176652016
:10358400525F5350495F436C6F736528292066610D
:10359400696C6564000000002A2A20525F53504978
:1035A4005F436C6F73652041504920666F72206DD4
:1035B4006173746572206661696C6564202A2A20CF
:1035C400200D0A002A2A20525F5350495F436C6F32
:1035D40073652041504920666F7220736C61766573
:1035E400206661696C6564202A2A20200D0A000087
:1035F40000000000000054545220524547474553F0
:103604000000000030313233343536373839414226
:10361400434445467370695F636C65616E5F7570A2
:10362400000000007370695F657869745F64656D9C
:103634006F0000007370695F77726974655F72650B
:10364400616400007370695F77726974655F616EAD
:10365400645F7265616400007370695F696E6974A8
:103664000000000000000102030202020200010047
:10367400010000009C360000B4360000D1140000A4
:10368400000000008C360000010000000000003B38
:1036940000000000000000001010FE1FA83600000B
:1036A400A43700002400FE1FB03600000100000013
:1036B4001810FE1FC0360000A43700003400FE1F9F
:1036C400C8360000000000000104050607020202DB
:1036D400020101000100000000370000183700005B
:1036E400E914000000000000F036000001000000B2
:1036F4000000003B00000000000000005010FE1F0E
:103704000C370000A43700004400FE1F14370000EB
:10371400050000005810FE1F24370000A4370000E5
:103724005400FE1F2C370000040000000A000000B3
:103734003C37000000000000000001000801000008
:103744000000010009010000000001000A0100005E
:10375400000001060202000000000106030200004E
:103764000000010604020000000001000003000044
:10377400000001060A040000000001060B0400001A
:10378400000001060C040000BC01BD01C001BF0122
:10379400C101C201C501C401020403040404000000
:1037A400DD2300002D230000712200000D23000002
:1037B400D5200000CD200000D120000049210000C8
:1037C400B9210000092100000D21000001000200C0
:1037D400080010002000002020202020202020208D
:1037E40028282828282020202020202020202020AD
:1037F40020202020202020881010101010101010DD
:103804001010101010101004040404040404040420
:1038140004101010101010104141414141410101A8
:103824000101010101010101010101010101010184
:103834000101101010101010424242424242020292
:103844000202020202020202020202020202020254
:103854000202101010102000000000000000000000
:103864000000000000000000000000000000000054
:103874000000000000000000000000000000000044
:103884000000000000000000000000000000000034
:103894000000000000000000000000000000000024
:1038A4000000000000000000000000000000000014
:1038B4000000000000000000000000000000000004
:1038C40000000000000000000000000000000000F4
:1038D40000000000000000004275696C74207769E4
:1038E40074682052656E6573617320416476616EFD
:1038F40063656420466C657869626C6520536F6605
:103904007477617265205061636B616765207665C9
:103914007273696F6E20362E342E3000362E342E9C
:08392400300000000000040661
:04392C00F8B500BF2B
:04393000F8B500BF27
:043934003D0500004D
:043938001505000071
:04000003000028A130
:00000001FF
